{
  "contractName": "ERC20Stakable",
  "abi": [
    {
      "inputs": [
        {
          "internalType": "string",
          "name": "name_",
          "type": "string"
        },
        {
          "internalType": "string",
          "name": "symbol_",
          "type": "string"
        },
        {
          "internalType": "uint256",
          "name": "minStakedAmountForValidation_",
          "type": "uint256"
        }
      ],
      "stateMutability": "nonpayable",
      "type": "constructor"
    },
    {
      "anonymous": false,
      "inputs": [
        {
          "indexed": true,
          "internalType": "address",
          "name": "owner",
          "type": "address"
        },
        {
          "indexed": true,
          "internalType": "address",
          "name": "spender",
          "type": "address"
        },
        {
          "indexed": false,
          "internalType": "uint256",
          "name": "value",
          "type": "uint256"
        }
      ],
      "name": "Approval",
      "type": "event"
    },
    {
      "anonymous": false,
      "inputs": [
        {
          "indexed": true,
          "internalType": "address",
          "name": "from",
          "type": "address"
        },
        {
          "indexed": true,
          "internalType": "address",
          "name": "to",
          "type": "address"
        },
        {
          "indexed": false,
          "internalType": "uint256",
          "name": "value",
          "type": "uint256"
        }
      ],
      "name": "Transfer",
      "type": "event"
    },
    {
      "inputs": [
        {
          "internalType": "address",
          "name": "owner",
          "type": "address"
        },
        {
          "internalType": "address",
          "name": "spender",
          "type": "address"
        }
      ],
      "name": "allowance",
      "outputs": [
        {
          "internalType": "uint256",
          "name": "",
          "type": "uint256"
        }
      ],
      "stateMutability": "view",
      "type": "function"
    },
    {
      "inputs": [
        {
          "internalType": "address",
          "name": "spender",
          "type": "address"
        },
        {
          "internalType": "uint256",
          "name": "amount",
          "type": "uint256"
        }
      ],
      "name": "approve",
      "outputs": [
        {
          "internalType": "bool",
          "name": "",
          "type": "bool"
        }
      ],
      "stateMutability": "nonpayable",
      "type": "function"
    },
    {
      "inputs": [
        {
          "internalType": "address",
          "name": "account",
          "type": "address"
        }
      ],
      "name": "balanceOf",
      "outputs": [
        {
          "internalType": "uint256",
          "name": "",
          "type": "uint256"
        }
      ],
      "stateMutability": "view",
      "type": "function"
    },
    {
      "inputs": [],
      "name": "decimals",
      "outputs": [
        {
          "internalType": "uint8",
          "name": "",
          "type": "uint8"
        }
      ],
      "stateMutability": "view",
      "type": "function"
    },
    {
      "inputs": [
        {
          "internalType": "address",
          "name": "spender",
          "type": "address"
        },
        {
          "internalType": "uint256",
          "name": "subtractedValue",
          "type": "uint256"
        }
      ],
      "name": "decreaseAllowance",
      "outputs": [
        {
          "internalType": "bool",
          "name": "",
          "type": "bool"
        }
      ],
      "stateMutability": "nonpayable",
      "type": "function"
    },
    {
      "inputs": [
        {
          "internalType": "address",
          "name": "spender",
          "type": "address"
        },
        {
          "internalType": "uint256",
          "name": "addedValue",
          "type": "uint256"
        }
      ],
      "name": "increaseAllowance",
      "outputs": [
        {
          "internalType": "bool",
          "name": "",
          "type": "bool"
        }
      ],
      "stateMutability": "nonpayable",
      "type": "function"
    },
    {
      "inputs": [],
      "name": "name",
      "outputs": [
        {
          "internalType": "string",
          "name": "",
          "type": "string"
        }
      ],
      "stateMutability": "view",
      "type": "function"
    },
    {
      "inputs": [],
      "name": "symbol",
      "outputs": [
        {
          "internalType": "string",
          "name": "",
          "type": "string"
        }
      ],
      "stateMutability": "view",
      "type": "function"
    },
    {
      "inputs": [],
      "name": "totalSupply",
      "outputs": [
        {
          "internalType": "uint256",
          "name": "",
          "type": "uint256"
        }
      ],
      "stateMutability": "view",
      "type": "function"
    },
    {
      "inputs": [
        {
          "internalType": "address",
          "name": "to",
          "type": "address"
        },
        {
          "internalType": "uint256",
          "name": "amount",
          "type": "uint256"
        }
      ],
      "name": "transfer",
      "outputs": [
        {
          "internalType": "bool",
          "name": "",
          "type": "bool"
        }
      ],
      "stateMutability": "nonpayable",
      "type": "function"
    },
    {
      "inputs": [
        {
          "internalType": "address",
          "name": "from",
          "type": "address"
        },
        {
          "internalType": "address",
          "name": "to",
          "type": "address"
        },
        {
          "internalType": "uint256",
          "name": "amount",
          "type": "uint256"
        }
      ],
      "name": "transferFrom",
      "outputs": [
        {
          "internalType": "bool",
          "name": "",
          "type": "bool"
        }
      ],
      "stateMutability": "nonpayable",
      "type": "function"
    },
    {
      "inputs": [
        {
          "internalType": "address",
          "name": "address_",
          "type": "address"
        }
      ],
      "name": "getStakedAmount",
      "outputs": [
        {
          "internalType": "uint256",
          "name": "",
          "type": "uint256"
        }
      ],
      "stateMutability": "view",
      "type": "function"
    },
    {
      "inputs": [
        {
          "internalType": "uint256",
          "name": "amount_",
          "type": "uint256"
        }
      ],
      "name": "stake",
      "outputs": [],
      "stateMutability": "nonpayable",
      "type": "function"
    },
    {
      "inputs": [
        {
          "internalType": "uint256",
          "name": "amount_",
          "type": "uint256"
        }
      ],
      "name": "unstake",
      "outputs": [],
      "stateMutability": "nonpayable",
      "type": "function"
    }
  ],
  "bytecode": "0x60a06040523480156200001157600080fd5b5060405162002211380380620022118339818101604052810190620000379190620001b7565b82828160039080519060200190620000519291906200007e565b5080600490805190602001906200006a9291906200007e565b505050806080818152505050505062000394565b8280546200008c90620002e6565b90600052602060002090601f016020900481019282620000b05760008555620000fc565b82601f10620000cb57805160ff1916838001178555620000fc565b82800160010185558215620000fc579182015b82811115620000fb578251825591602001919060010190620000de565b5b5090506200010b91906200010f565b5090565b5b808211156200012a57600081600090555060010162000110565b5090565b6000620001456200013f8462000273565b6200023f565b9050828152602081018484840111156200015e57600080fd5b6200016b848285620002b0565b509392505050565b600082601f8301126200018557600080fd5b8151620001978482602086016200012e565b91505092915050565b600081519050620001b1816200037a565b92915050565b600080600060608486031215620001cd57600080fd5b600084015167ffffffffffffffff811115620001e857600080fd5b620001f68682870162000173565b935050602084015167ffffffffffffffff8111156200021457600080fd5b620002228682870162000173565b92505060406200023586828701620001a0565b9150509250925092565b6000604051905081810181811067ffffffffffffffff821117156200026957620002686200034b565b5b8060405250919050565b600067ffffffffffffffff8211156200029157620002906200034b565b5b601f19601f8301169050602081019050919050565b6000819050919050565b60005b83811015620002d0578082015181840152602081019050620002b3565b83811115620002e0576000848401525b50505050565b60006002820490506001821680620002ff57607f821691505b602082108114156200031657620003156200031c565b5b50919050565b7f4e487b7100000000000000000000000000000000000000000000000000000000600052602260045260246000fd5b7f4e487b7100000000000000000000000000000000000000000000000000000000600052604160045260246000fd5b6200038581620002a6565b81146200039157600080fd5b50565b608051611e5a620003b760003960008181610ec201526111f90152611e5a6000f3fe608060405234801561001057600080fd5b50600436106100ea5760003560e01c80634da6a5561161008c578063a457c2d711610066578063a457c2d714610273578063a694fc3a146102a3578063a9059cbb146102bf578063dd62ed3e146102ef576100ea565b80634da6a556146101f557806370a082311461022557806395d89b4114610255576100ea565b806323b872dd116100c857806323b872dd1461015b5780632e17de781461018b578063313ce567146101a757806339509351146101c5576100ea565b806306fdde03146100ef578063095ea7b31461010d57806318160ddd1461013d575b600080fd5b6100f761031f565b6040516101049190611a6f565b60405180910390f35b61012760048036038101906101229190611520565b6103b1565b6040516101349190611a54565b60405180910390f35b6101456103d4565b6040516101529190611bf1565b60405180910390f35b610175600480360381019061017091906114d1565b6103de565b6040516101829190611a54565b60405180910390f35b6101a560048036038101906101a0919061155c565b61040d565b005b6101af610410565b6040516101bc9190611c0c565b60405180910390f35b6101df60048036038101906101da9190611520565b610419565b6040516101ec9190611a54565b60405180910390f35b61020f600480360381019061020a919061146c565b6104c3565b60405161021c9190611bf1565b60405180910390f35b61023f600480360381019061023a919061146c565b610568565b60405161024c9190611bf1565b60405180910390f35b61025d6105b0565b60405161026a9190611a6f565b60405180910390f35b61028d60048036038101906102889190611520565b610642565b60405161029a9190611a54565b60405180910390f35b6102bd60048036038101906102b8919061155c565b61072c565b005b6102d960048036038101906102d49190611520565b610841565b6040516102e69190611a54565b60405180910390f35b61030960048036038101906103049190611495565b610864565b6040516103169190611bf1565b60405180910390f35b60606003805461032e90611d55565b80601f016020809104026020016040519081016040528092919081815260200182805461035a90611d55565b80156103a75780601f1061037c576101008083540402835291602001916103a7565b820191906000526020600020905b81548152906001019060200180831161038a57829003601f168201915b5050505050905090565b6000806103bc6108eb565b90506103c98185856108f3565b600191505092915050565b6000600254905090565b6000806103e96108eb565b90506103f6858285610abe565b610401858585610b4a565b60019150509392505050565b50565b60006012905090565b6000806104246108eb565b90506104b8818585600160008673ffffffffffffffffffffffffffffffffffffffff1673ffffffffffffffffffffffffffffffffffffffff16815260200190815260200160002060008973ffffffffffffffffffffffffffffffffffffffff1673ffffffffffffffffffffffffffffffffffffffff168152602001908152602001600020546104b39190611c43565b6108f3565b600191505092915050565b600081600073ffffffffffffffffffffffffffffffffffffffff168173ffffffffffffffffffffffffffffffffffffffff16141561050057600080fd5b600061050b84610dcb565b9050600060058281548110610549577f4e487b7100000000000000000000000000000000000000000000000000000000600052603260045260246000fd5b9060005260206000209060060201905080600101549350505050919050565b60008060008373ffffffffffffffffffffffffffffffffffffffff1673ffffffffffffffffffffffffffffffffffffffff168152602001908152602001600020549050919050565b6060600480546105bf90611d55565b80601f01602080910402602001604051908101604052809291908181526020018280546105eb90611d55565b80156106385780601f1061060d57610100808354040283529160200191610638565b820191906000526020600020905b81548152906001019060200180831161061b57829003601f168201915b5050505050905090565b60008061064d6108eb565b90506000600160008373ffffffffffffffffffffffffffffffffffffffff1673ffffffffffffffffffffffffffffffffffffffff16815260200190815260200160002060008673ffffffffffffffffffffffffffffffffffffffff1673ffffffffffffffffffffffffffffffffffffffff16815260200190815260200160002054905083811015610713576040517f08c379a000000000000000000000000000000000000000000000000000000000815260040161070a90611bd1565b60405180910390fd5b61072082868684036108f3565b60019250505092915050565b600033905060003073ffffffffffffffffffffffffffffffffffffffff166370a08231836040518263ffffffff1660e01b815260040161076c9190611a39565b60206040518083038186803b15801561078457600080fd5b505afa158015610798573d6000803e3d6000fd5b505050506040513d601f19601f820116820180604052508101906107bc9190611585565b905082811015610801576040517f08c379a00000000000000000000000000000000000000000000000000000000081526004016107f890611b31565b60405180910390fd5b600061080c83610dcb565b90506000811415610826576108218385610ebe565b610831565b610830818561115d565b5b61083b838561124c565b50505050565b60008061084c6108eb565b9050610859818585610b4a565b600191505092915050565b6000600160008473ffffffffffffffffffffffffffffffffffffffff1673ffffffffffffffffffffffffffffffffffffffff16815260200190815260200160002060008373ffffffffffffffffffffffffffffffffffffffff1673ffffffffffffffffffffffffffffffffffffffff16815260200190815260200160002054905092915050565b600033905090565b600073ffffffffffffffffffffffffffffffffffffffff168373ffffffffffffffffffffffffffffffffffffffff161415610963576040517f08c379a000000000000000000000000000000000000000000000000000000000815260040161095a90611bb1565b60405180910390fd5b600073ffffffffffffffffffffffffffffffffffffffff168273ffffffffffffffffffffffffffffffffffffffff1614156109d3576040517f08c379a00000000000000000000000000000000000000000000000000000000081526004016109ca90611ad1565b60405180910390fd5b80600160008573ffffffffffffffffffffffffffffffffffffffff1673ffffffffffffffffffffffffffffffffffffffff16815260200190815260200160002060008473ffffffffffffffffffffffffffffffffffffffff1673ffffffffffffffffffffffffffffffffffffffff168152602001908152602001600020819055508173ffffffffffffffffffffffffffffffffffffffff168373ffffffffffffffffffffffffffffffffffffffff167f8c5be1e5ebec7d5bd14f71427d1e84f3dd0314c0f7b2291e5b200ac8c7c3b92583604051610ab19190611bf1565b60405180910390a3505050565b6000610aca8484610864565b90507fffffffffffffffffffffffffffffffffffffffffffffffffffffffffffffffff8114610b445781811015610b36576040517f08c379a0000000000000000000000000000000000000000000000000000000008152600401610b2d90611af1565b60405180910390fd5b610b4384848484036108f3565b5b50505050565b600073ffffffffffffffffffffffffffffffffffffffff168373ffffffffffffffffffffffffffffffffffffffff161415610bba576040517f08c379a0000000000000000000000000000000000000000000000000000000008152600401610bb190611b91565b60405180910390fd5b600073ffffffffffffffffffffffffffffffffffffffff168273ffffffffffffffffffffffffffffffffffffffff161415610c2a576040517f08c379a0000000000000000000000000000000000000000000000000000000008152600401610c2190611a91565b60405180910390fd5b610c35838383611423565b60008060008573ffffffffffffffffffffffffffffffffffffffff1673ffffffffffffffffffffffffffffffffffffffff16815260200190815260200160002054905081811015610cbb576040517f08c379a0000000000000000000000000000000000000000000000000000000008152600401610cb290611b11565b60405180910390fd5b8181036000808673ffffffffffffffffffffffffffffffffffffffff1673ffffffffffffffffffffffffffffffffffffffff16815260200190815260200160002081905550816000808573ffffffffffffffffffffffffffffffffffffffff1673ffffffffffffffffffffffffffffffffffffffff1681526020019081526020016000206000828254610d4e9190611c43565b925050819055508273ffffffffffffffffffffffffffffffffffffffff168473ffffffffffffffffffffffffffffffffffffffff167fddf252ad1be2c89b69c2b068fc378daa952ba7f163c4a11628f55a4df523b3ef84604051610db29190611bf1565b60405180910390a3610dc5848484611428565b50505050565b600081600073ffffffffffffffffffffffffffffffffffffffff168173ffffffffffffffffffffffffffffffffffffffff161415610e0857600080fd5b6000600660008573ffffffffffffffffffffffffffffffffffffffff1673ffffffffffffffffffffffffffffffffffffffff1681526020019081526020016000205490506000811415610e5f576000925050610eb8565b6001600580549050610e719190611c99565b811115610eb3576040517f08c379a0000000000000000000000000000000000000000000000000000000008152600401610eaa90611b51565b60405180910390fd5b809250505b50919050565b60007f000000000000000000000000000000000000000000000000000000000000000082101590506000600580549050905060008114156110015760056040518060c00160405280600073ffffffffffffffffffffffffffffffffffffffff1681526020016000815260200160008152602001600081526020016000815260200160001515815250908060018154018082558091505060019003906000526020600020906006020160009091909190915060008201518160000160006101000a81548173ffffffffffffffffffffffffffffffffffffffff021916908373ffffffffffffffffffffffffffffffffffffffff1602179055506020820151816001015560408201518160020155606082015181600301556080820151816004015560a08201518160050160006101000a81548160ff02191690831515021790555050505b60018161100e9190611c43565b905060056040518060c001604052808673ffffffffffffffffffffffffffffffffffffffff1681526020018581526020018581526020016000815260200160008152602001841515815250908060018154018082558091505060019003906000526020600020906006020160009091909190915060008201518160000160006101000a81548173ffffffffffffffffffffffffffffffffffffffff021916908373ffffffffffffffffffffffffffffffffffffffff1602179055506020820151816001015560408201518160020155606082015181600301556080820151816004015560a08201518160050160006101000a81548160ff021916908315150217905550505080600660008673ffffffffffffffffffffffffffffffffffffffff1673ffffffffffffffffffffffffffffffffffffffff1681526020019081526020016000208190555050505050565b600060058381548110611199577f4e487b7100000000000000000000000000000000000000000000000000000000600052603260045260246000fd5b90600052602060002090600602019050818160010160008282546111bd9190611c43565b92505081905550818160020160008282546111d89190611c43565b925050819055508060050160009054906101000a900460ff166112475760007f000000000000000000000000000000000000000000000000000000000000000082600101541015905080156112455760018260050160006101000a81548160ff0219169083151502179055505b505b505050565b600073ffffffffffffffffffffffffffffffffffffffff168273ffffffffffffffffffffffffffffffffffffffff1614156112bc576040517f08c379a00000000000000000000000000000000000000000000000000000000081526004016112b390611b71565b60405180910390fd5b6112c882600083611423565b60008060008473ffffffffffffffffffffffffffffffffffffffff1673ffffffffffffffffffffffffffffffffffffffff1681526020019081526020016000205490508181101561134e576040517f08c379a000000000000000000000000000000000000000000000000000000000815260040161134590611ab1565b60405180910390fd5b8181036000808573ffffffffffffffffffffffffffffffffffffffff1673ffffffffffffffffffffffffffffffffffffffff1681526020019081526020016000208190555081600260008282546113a59190611c99565b92505081905550600073ffffffffffffffffffffffffffffffffffffffff168373ffffffffffffffffffffffffffffffffffffffff167fddf252ad1be2c89b69c2b068fc378daa952ba7f163c4a11628f55a4df523b3ef8460405161140a9190611bf1565b60405180910390a361141e83600084611428565b505050565b505050565b505050565b60008135905061143c81611df6565b92915050565b60008135905061145181611e0d565b92915050565b60008151905061146681611e0d565b92915050565b60006020828403121561147e57600080fd5b600061148c8482850161142d565b91505092915050565b600080604083850312156114a857600080fd5b60006114b68582860161142d565b92505060206114c78582860161142d565b9150509250929050565b6000806000606084860312156114e657600080fd5b60006114f48682870161142d565b93505060206115058682870161142d565b925050604061151686828701611442565b9150509250925092565b6000806040838503121561153357600080fd5b60006115418582860161142d565b925050602061155285828601611442565b9150509250929050565b60006020828403121561156e57600080fd5b600061157c84828501611442565b91505092915050565b60006020828403121561159757600080fd5b60006115a584828501611457565b91505092915050565b6115b781611ccd565b82525050565b6115c681611cdf565b82525050565b60006115d782611c27565b6115e18185611c32565b93506115f1818560208601611d22565b6115fa81611de5565b840191505092915050565b6000611612602383611c32565b91507f45524332303a207472616e7366657220746f20746865207a65726f206164647260008301527f65737300000000000000000000000000000000000000000000000000000000006020830152604082019050919050565b6000611678602283611c32565b91507f45524332303a206275726e20616d6f756e7420657863656564732062616c616e60008301527f63650000000000000000000000000000000000000000000000000000000000006020830152604082019050919050565b60006116de602283611c32565b91507f45524332303a20617070726f766520746f20746865207a65726f20616464726560008301527f73730000000000000000000000000000000000000000000000000000000000006020830152604082019050919050565b6000611744601d83611c32565b91507f45524332303a20696e73756666696369656e7420616c6c6f77616e63650000006000830152602082019050919050565b6000611784602683611c32565b91507f45524332303a207472616e7366657220616d6f756e742065786365656473206260008301527f616c616e636500000000000000000000000000000000000000000000000000006020830152604082019050919050565b60006117ea602083611c32565b91507f496e73756666696369656e742062616c616e636520666f72207374616b696e676000830152602082019050919050565b600061182a602983611c32565b91507f496e76616c696420696e64657820666f72207374616b65686f6c64657273206360008301527f6f6c6c656374696f6e00000000000000000000000000000000000000000000006020830152604082019050919050565b6000611890602183611c32565b91507f45524332303a206275726e2066726f6d20746865207a65726f2061646472657360008301527f73000000000000000000000000000000000000000000000000000000000000006020830152604082019050919050565b60006118f6602583611c32565b91507f45524332303a207472616e736665722066726f6d20746865207a65726f20616460008301527f64726573730000000000000000000000000000000000000000000000000000006020830152604082019050919050565b600061195c602483611c32565b91507f45524332303a20617070726f76652066726f6d20746865207a65726f2061646460008301527f72657373000000000000000000000000000000000000000000000000000000006020830152604082019050919050565b60006119c2602583611c32565b91507f45524332303a2064656372656173656420616c6c6f77616e63652062656c6f7760008301527f207a65726f0000000000000000000000000000000000000000000000000000006020830152604082019050919050565b611a2481611d0b565b82525050565b611a3381611d15565b82525050565b6000602082019050611a4e60008301846115ae565b92915050565b6000602082019050611a6960008301846115bd565b92915050565b60006020820190508181036000830152611a8981846115cc565b905092915050565b60006020820190508181036000830152611aaa81611605565b9050919050565b60006020820190508181036000830152611aca8161166b565b9050919050565b60006020820190508181036000830152611aea816116d1565b9050919050565b60006020820190508181036000830152611b0a81611737565b9050919050565b60006020820190508181036000830152611b2a81611777565b9050919050565b60006020820190508181036000830152611b4a816117dd565b9050919050565b60006020820190508181036000830152611b6a8161181d565b9050919050565b60006020820190508181036000830152611b8a81611883565b9050919050565b60006020820190508181036000830152611baa816118e9565b9050919050565b60006020820190508181036000830152611bca8161194f565b9050919050565b60006020820190508181036000830152611bea816119b5565b9050919050565b6000602082019050611c066000830184611a1b565b92915050565b6000602082019050611c216000830184611a2a565b92915050565b600081519050919050565b600082825260208201905092915050565b6000611c4e82611d0b565b9150611c5983611d0b565b9250827fffffffffffffffffffffffffffffffffffffffffffffffffffffffffffffffff03821115611c8e57611c8d611d87565b5b828201905092915050565b6000611ca482611d0b565b9150611caf83611d0b565b925082821015611cc257611cc1611d87565b5b828203905092915050565b6000611cd882611ceb565b9050919050565b60008115159050919050565b600073ffffffffffffffffffffffffffffffffffffffff82169050919050565b6000819050919050565b600060ff82169050919050565b60005b83811015611d40578082015181840152602081019050611d25565b83811115611d4f576000848401525b50505050565b60006002820490506001821680611d6d57607f821691505b60208210811415611d8157611d80611db6565b5b50919050565b7f4e487b7100000000000000000000000000000000000000000000000000000000600052601160045260246000fd5b7f4e487b7100000000000000000000000000000000000000000000000000000000600052602260045260246000fd5b6000601f19601f8301169050919050565b611dff81611ccd565b8114611e0a57600080fd5b50565b611e1681611d0b565b8114611e2157600080fd5b5056fea26469706673582212208909221dcb7bc57d2815b3de2eac4f80e508e5b47e04ab7df9ee3fdcbe60a39864736f6c63430008000033",
  "immutableReferences": {
    "780": [
      {
        "length": 32,
        "start": 3778
      },
      {
        "length": 32,
        "start": 4601
      }
    ]
  },
  "source": "pragma solidity ^0.8.0;\r\n\r\nimport \"@openzeppelin/contracts/token/ERC20/ERC20.sol\";\r\nimport \"../Interfaces/IStakable.sol\";\r\nimport \"../utils/NominatingStakeholders.sol\";\r\n\r\ncontract ERC20Stakable is IStakable, ERC20 {\r\n    uint256 immutable _minStakedAmountForValidation;\r\n    Stakeholders.Stakeholder[] private _stakeholders;\r\n    mapping(address => uint256) private _stakeholdersIndexes;\r\n\r\n    constructor(\r\n        string memory name_,\r\n        string memory symbol_,\r\n        uint256 minStakedAmountForValidation_\r\n    ) ERC20(name_, symbol_) {\r\n        _minStakedAmountForValidation = minStakedAmountForValidation_;\r\n    }\r\n\r\n    modifier notNullAddress(address address_) {\r\n        require(address_ != address(0));\r\n        _;\r\n    }\r\n\r\n    function getStakedAmount(address address_)\r\n        external\r\n        view\r\n        override\r\n        notNullAddress(address_)\r\n        returns (uint256)\r\n    {\r\n        uint256 stakeholderIndex = _getStakeholderIndex(address_);\r\n        Stakeholders.Stakeholder storage stakeholder = _stakeholders[\r\n            stakeholderIndex\r\n        ];\r\n        return stakeholder.totalAmount;\r\n    }\r\n\r\n    function stake(uint256 amount_) external override {\r\n        address stakeholderAddress = msg.sender;\r\n\r\n        //fisrst check if the caller has at least amount_ tokens\r\n        uint256 balance = this.balanceOf(stakeholderAddress);\r\n\r\n        require(balance >= amount_, \"Insufficient balance for staking\");\r\n        //second check if stakeholder exist\r\n        uint256 stakeholderIndex = _getStakeholderIndex(stakeholderAddress);\r\n        if (stakeholderIndex == 0) {\r\n            //stakeholder does not exists. Create new one and stake the amout\r\n            _createNewStakeholder(stakeholderAddress, amount_);\r\n        } else {\r\n            _stakeholderUpdateOwnStakedAmount(stakeholderIndex, amount_);\r\n        }\r\n\r\n        //burn tokens from balance\r\n        _burn(stakeholderAddress, amount_);\r\n    }\r\n\r\n    function unstake(uint256 amount_) external override {}\r\n\r\n    function _getStakeholderIndex(address address_)\r\n        internal\r\n        view\r\n        virtual\r\n        notNullAddress(address_)\r\n        returns (uint256)\r\n    {\r\n        uint256 stakeholderIndex = _stakeholdersIndexes[address_];\r\n        if (stakeholderIndex == 0) return 0;\r\n        require(\r\n            stakeholderIndex <= _stakeholders.length - 1,\r\n            \"Invalid index for stakeholders collection\"\r\n        );\r\n\r\n        return stakeholderIndex;\r\n    }\r\n\r\n    function _createNewStakeholder(address address_, uint256 amount_)\r\n        internal\r\n        virtual\r\n    {\r\n        bool canValidate = amount_ >= _minStakedAmountForValidation;\r\n        uint256 newStakeholderIndex = _stakeholders.length;\r\n\r\n        if (newStakeholderIndex == 0) {\r\n            // this is very first stakeholder. Create a fake one at index 0.\r\n            _stakeholders.push(\r\n                Stakeholders.Stakeholder({\r\n                    user: address(0),\r\n                    totalAmount: 0,\r\n                    ownedAmount: 0,\r\n                    nominatedAmount: 0,\r\n                    nominatorsCount: 0,\r\n                    canValidate: false\r\n                })\r\n            );\r\n        }\r\n\r\n        newStakeholderIndex += 1;\r\n\r\n        _stakeholders.push(\r\n            Stakeholders.Stakeholder({\r\n                user: address_,\r\n                totalAmount: amount_,\r\n                ownedAmount: amount_,\r\n                nominatedAmount: 0,\r\n                nominatorsCount: 0,\r\n                canValidate: canValidate\r\n            })\r\n        );\r\n\r\n        _stakeholdersIndexes[address_] = newStakeholderIndex;\r\n    }\r\n\r\n    function _stakeholderUpdateOwnStakedAmount(\r\n        uint256 stakeholderIndex_,\r\n        uint256 amount_\r\n    ) internal virtual {\r\n        Stakeholders.Stakeholder storage stakeHolder = _stakeholders[\r\n            stakeholderIndex_\r\n        ];\r\n\r\n        stakeHolder.totalAmount += amount_;\r\n        stakeHolder.ownedAmount += amount_;\r\n\r\n        if (!stakeHolder.canValidate) {\r\n            //check if he can now\r\n            bool canValidate = stakeHolder.totalAmount >=\r\n                _minStakedAmountForValidation;\r\n\r\n            if (canValidate) {\r\n                stakeHolder.canValidate = true;\r\n            }\r\n        }\r\n    }\r\n}\r\n",
  "sourcePath": "D:\\Documents\\Dev\\Repositories\\gold-price-oracle\\gold-price-oracle\\token\\contracts\\base\\ERC20Stakable.sol",
  "compiler": {
    "name": "solc",
    "version": "0.8.0+commit.c7dfd78e.Emscripten.clang"
  },
  "schemaVersion": "3.4.3",
  "updatedAt": "2022-02-20T16:49:29.612Z",
  "devdoc": {
    "kind": "dev",
    "methods": {
      "allowance(address,address)": {
        "details": "See {IERC20-allowance}."
      },
      "approve(address,uint256)": {
        "details": "See {IERC20-approve}. NOTE: If `amount` is the maximum `uint256`, the allowance is not updated on `transferFrom`. This is semantically equivalent to an infinite approval. Requirements: - `spender` cannot be the zero address."
      },
      "balanceOf(address)": {
        "details": "See {IERC20-balanceOf}."
      },
      "decimals()": {
        "details": "Returns the number of decimals used to get its user representation. For example, if `decimals` equals `2`, a balance of `505` tokens should be displayed to a user as `5.05` (`505 / 10 ** 2`). Tokens usually opt for a value of 18, imitating the relationship between Ether and Wei. This is the value {ERC20} uses, unless this function is overridden; NOTE: This information is only used for _display_ purposes: it in no way affects any of the arithmetic of the contract, including {IERC20-balanceOf} and {IERC20-transfer}."
      },
      "decreaseAllowance(address,uint256)": {
        "details": "Atomically decreases the allowance granted to `spender` by the caller. This is an alternative to {approve} that can be used as a mitigation for problems described in {IERC20-approve}. Emits an {Approval} event indicating the updated allowance. Requirements: - `spender` cannot be the zero address. - `spender` must have allowance for the caller of at least `subtractedValue`."
      },
      "increaseAllowance(address,uint256)": {
        "details": "Atomically increases the allowance granted to `spender` by the caller. This is an alternative to {approve} that can be used as a mitigation for problems described in {IERC20-approve}. Emits an {Approval} event indicating the updated allowance. Requirements: - `spender` cannot be the zero address."
      },
      "name()": {
        "details": "Returns the name of the token."
      },
      "symbol()": {
        "details": "Returns the symbol of the token, usually a shorter version of the name."
      },
      "totalSupply()": {
        "details": "See {IERC20-totalSupply}."
      },
      "transfer(address,uint256)": {
        "details": "See {IERC20-transfer}. Requirements: - `to` cannot be the zero address. - the caller must have a balance of at least `amount`."
      },
      "transferFrom(address,address,uint256)": {
        "details": "See {IERC20-transferFrom}. Emits an {Approval} event indicating the updated allowance. This is not required by the EIP. See the note at the beginning of {ERC20}. NOTE: Does not update the allowance if the current allowance is the maximum `uint256`. Requirements: - `from` and `to` cannot be the zero address. - `from` must have a balance of at least `amount`. - the caller must have allowance for ``from``'s tokens of at least `amount`."
      }
    },
    "version": 1
  },
  "userdoc": {
    "kind": "user",
    "methods": {},
    "version": 1
  }
}