{
  "contractName": "GoldOracleToken",
  "abi": [
    {
      "inputs": [],
      "stateMutability": "nonpayable",
      "type": "constructor"
    },
    {
      "anonymous": false,
      "inputs": [
        {
          "indexed": true,
          "internalType": "address",
          "name": "owner",
          "type": "address"
        },
        {
          "indexed": true,
          "internalType": "address",
          "name": "spender",
          "type": "address"
        },
        {
          "indexed": false,
          "internalType": "uint256",
          "name": "value",
          "type": "uint256"
        }
      ],
      "name": "Approval",
      "type": "event"
    },
    {
      "anonymous": false,
      "inputs": [
        {
          "indexed": true,
          "internalType": "address",
          "name": "from",
          "type": "address"
        },
        {
          "indexed": true,
          "internalType": "address",
          "name": "to",
          "type": "address"
        },
        {
          "indexed": false,
          "internalType": "uint256",
          "name": "value",
          "type": "uint256"
        }
      ],
      "name": "Transfer",
      "type": "event"
    },
    {
      "inputs": [
        {
          "internalType": "address",
          "name": "owner",
          "type": "address"
        },
        {
          "internalType": "address",
          "name": "spender",
          "type": "address"
        }
      ],
      "name": "allowance",
      "outputs": [
        {
          "internalType": "uint256",
          "name": "",
          "type": "uint256"
        }
      ],
      "stateMutability": "view",
      "type": "function"
    },
    {
      "inputs": [
        {
          "internalType": "address",
          "name": "spender",
          "type": "address"
        },
        {
          "internalType": "uint256",
          "name": "amount",
          "type": "uint256"
        }
      ],
      "name": "approve",
      "outputs": [
        {
          "internalType": "bool",
          "name": "",
          "type": "bool"
        }
      ],
      "stateMutability": "nonpayable",
      "type": "function"
    },
    {
      "inputs": [
        {
          "internalType": "address",
          "name": "account",
          "type": "address"
        }
      ],
      "name": "balanceOf",
      "outputs": [
        {
          "internalType": "uint256",
          "name": "",
          "type": "uint256"
        }
      ],
      "stateMutability": "view",
      "type": "function"
    },
    {
      "inputs": [],
      "name": "decimals",
      "outputs": [
        {
          "internalType": "uint8",
          "name": "",
          "type": "uint8"
        }
      ],
      "stateMutability": "view",
      "type": "function"
    },
    {
      "inputs": [
        {
          "internalType": "address",
          "name": "spender",
          "type": "address"
        },
        {
          "internalType": "uint256",
          "name": "subtractedValue",
          "type": "uint256"
        }
      ],
      "name": "decreaseAllowance",
      "outputs": [
        {
          "internalType": "bool",
          "name": "",
          "type": "bool"
        }
      ],
      "stateMutability": "nonpayable",
      "type": "function"
    },
    {
      "inputs": [
        {
          "internalType": "address",
          "name": "address_",
          "type": "address"
        }
      ],
      "name": "getStakedAmount",
      "outputs": [
        {
          "internalType": "uint256",
          "name": "",
          "type": "uint256"
        }
      ],
      "stateMutability": "view",
      "type": "function"
    },
    {
      "inputs": [
        {
          "internalType": "address",
          "name": "spender",
          "type": "address"
        },
        {
          "internalType": "uint256",
          "name": "addedValue",
          "type": "uint256"
        }
      ],
      "name": "increaseAllowance",
      "outputs": [
        {
          "internalType": "bool",
          "name": "",
          "type": "bool"
        }
      ],
      "stateMutability": "nonpayable",
      "type": "function"
    },
    {
      "inputs": [],
      "name": "name",
      "outputs": [
        {
          "internalType": "string",
          "name": "",
          "type": "string"
        }
      ],
      "stateMutability": "view",
      "type": "function"
    },
    {
      "inputs": [
        {
          "internalType": "uint256",
          "name": "amount_",
          "type": "uint256"
        }
      ],
      "name": "stake",
      "outputs": [],
      "stateMutability": "nonpayable",
      "type": "function"
    },
    {
      "inputs": [],
      "name": "symbol",
      "outputs": [
        {
          "internalType": "string",
          "name": "",
          "type": "string"
        }
      ],
      "stateMutability": "view",
      "type": "function"
    },
    {
      "inputs": [],
      "name": "totalSupply",
      "outputs": [
        {
          "internalType": "uint256",
          "name": "",
          "type": "uint256"
        }
      ],
      "stateMutability": "view",
      "type": "function"
    },
    {
      "inputs": [
        {
          "internalType": "address",
          "name": "to",
          "type": "address"
        },
        {
          "internalType": "uint256",
          "name": "amount",
          "type": "uint256"
        }
      ],
      "name": "transfer",
      "outputs": [
        {
          "internalType": "bool",
          "name": "",
          "type": "bool"
        }
      ],
      "stateMutability": "nonpayable",
      "type": "function"
    },
    {
      "inputs": [
        {
          "internalType": "address",
          "name": "from",
          "type": "address"
        },
        {
          "internalType": "address",
          "name": "to",
          "type": "address"
        },
        {
          "internalType": "uint256",
          "name": "amount",
          "type": "uint256"
        }
      ],
      "name": "transferFrom",
      "outputs": [
        {
          "internalType": "bool",
          "name": "",
          "type": "bool"
        }
      ],
      "stateMutability": "nonpayable",
      "type": "function"
    },
    {
      "inputs": [
        {
          "internalType": "uint256",
          "name": "amount_",
          "type": "uint256"
        }
      ],
      "name": "unstake",
      "outputs": [],
      "stateMutability": "nonpayable",
      "type": "function"
    },
    {
      "inputs": [],
      "name": "getOwnerAddress",
      "outputs": [
        {
          "internalType": "address",
          "name": "",
          "type": "address"
        }
      ],
      "stateMutability": "view",
      "type": "function"
    }
  ],
  "bytecode": "0x60a06040523480156200001157600080fd5b506040518060400160405280600f81526020017f476f6c644f7261636c65546f6b656e00000000000000000000000000000000008152506040518060400160405280600381526020017f474f54000000000000000000000000000000000000000000000000000000000081525069043c33c193756480000082828160039080519060200190620000a392919062000111565b508060049080519060200190620000bc92919062000111565b505050806080818152505050505033600760006101000a81548173ffffffffffffffffffffffffffffffffffffffff021916908373ffffffffffffffffffffffffffffffffffffffff16021790555062000226565b8280546200011f90620001c1565b90600052602060002090601f0160209004810192826200014357600085556200018f565b82601f106200015e57805160ff19168380011785556200018f565b828001600101855582156200018f579182015b828111156200018e57825182559160200191906001019062000171565b5b5090506200019e9190620001a2565b5090565b5b80821115620001bd576000816000905550600101620001a3565b5090565b60006002820490506001821680620001da57607f821691505b60208210811415620001f157620001f0620001f7565b5b50919050565b7f4e487b7100000000000000000000000000000000000000000000000000000000600052602260045260246000fd5b608051611ead6200024960003960008181610f15015261124c0152611ead6000f3fe608060405234801561001057600080fd5b50600436106100f55760003560e01c80633950935111610097578063a457c2d711610066578063a457c2d71461029c578063a694fc3a146102cc578063a9059cbb146102e8578063dd62ed3e14610318576100f5565b806339509351146101ee5780634da6a5561461021e57806370a082311461024e57806395d89b411461027e576100f5565b806318160ddd116100d357806318160ddd1461016657806323b872dd146101845780632e17de78146101b4578063313ce567146101d0576100f5565b806306fdde03146100fa578063095ea7b3146101185780630c4f65bd14610148575b600080fd5b610102610348565b60405161010f9190611ac2565b60405180910390f35b610132600480360381019061012d9190611573565b6103da565b60405161013f9190611aa7565b60405180910390f35b6101506103fd565b60405161015d9190611a8c565b60405180910390f35b61016e610427565b60405161017b9190611c44565b60405180910390f35b61019e60048036038101906101999190611524565b610431565b6040516101ab9190611aa7565b60405180910390f35b6101ce60048036038101906101c991906115af565b610460565b005b6101d8610463565b6040516101e59190611c5f565b60405180910390f35b61020860048036038101906102039190611573565b61046c565b6040516102159190611aa7565b60405180910390f35b610238600480360381019061023391906114bf565b610516565b6040516102459190611c44565b60405180910390f35b610268600480360381019061026391906114bf565b6105bb565b6040516102759190611c44565b60405180910390f35b610286610603565b6040516102939190611ac2565b60405180910390f35b6102b660048036038101906102b19190611573565b610695565b6040516102c39190611aa7565b60405180910390f35b6102e660048036038101906102e191906115af565b61077f565b005b61030260048036038101906102fd9190611573565b610894565b60405161030f9190611aa7565b60405180910390f35b610332600480360381019061032d91906114e8565b6108b7565b60405161033f9190611c44565b60405180910390f35b60606003805461035790611da8565b80601f016020809104026020016040519081016040528092919081815260200182805461038390611da8565b80156103d05780601f106103a5576101008083540402835291602001916103d0565b820191906000526020600020905b8154815290600101906020018083116103b357829003601f168201915b5050505050905090565b6000806103e561093e565b90506103f2818585610946565b600191505092915050565b6000600760009054906101000a900473ffffffffffffffffffffffffffffffffffffffff16905090565b6000600254905090565b60008061043c61093e565b9050610449858285610b11565b610454858585610b9d565b60019150509392505050565b50565b60006012905090565b60008061047761093e565b905061050b818585600160008673ffffffffffffffffffffffffffffffffffffffff1673ffffffffffffffffffffffffffffffffffffffff16815260200190815260200160002060008973ffffffffffffffffffffffffffffffffffffffff1673ffffffffffffffffffffffffffffffffffffffff168152602001908152602001600020546105069190611c96565b610946565b600191505092915050565b600081600073ffffffffffffffffffffffffffffffffffffffff168173ffffffffffffffffffffffffffffffffffffffff16141561055357600080fd5b600061055e84610e1e565b905060006005828154811061059c577f4e487b7100000000000000000000000000000000000000000000000000000000600052603260045260246000fd5b9060005260206000209060060201905080600101549350505050919050565b60008060008373ffffffffffffffffffffffffffffffffffffffff1673ffffffffffffffffffffffffffffffffffffffff168152602001908152602001600020549050919050565b60606004805461061290611da8565b80601f016020809104026020016040519081016040528092919081815260200182805461063e90611da8565b801561068b5780601f106106605761010080835404028352916020019161068b565b820191906000526020600020905b81548152906001019060200180831161066e57829003601f168201915b5050505050905090565b6000806106a061093e565b90506000600160008373ffffffffffffffffffffffffffffffffffffffff1673ffffffffffffffffffffffffffffffffffffffff16815260200190815260200160002060008673ffffffffffffffffffffffffffffffffffffffff1673ffffffffffffffffffffffffffffffffffffffff16815260200190815260200160002054905083811015610766576040517f08c379a000000000000000000000000000000000000000000000000000000000815260040161075d90611c24565b60405180910390fd5b6107738286868403610946565b60019250505092915050565b600033905060003073ffffffffffffffffffffffffffffffffffffffff166370a08231836040518263ffffffff1660e01b81526004016107bf9190611a8c565b60206040518083038186803b1580156107d757600080fd5b505afa1580156107eb573d6000803e3d6000fd5b505050506040513d601f19601f8201168201806040525081019061080f91906115d8565b905082811015610854576040517f08c379a000000000000000000000000000000000000000000000000000000000815260040161084b90611b84565b60405180910390fd5b600061085f83610e1e565b90506000811415610879576108748385610f11565b610884565b61088381856111b0565b5b61088e838561129f565b50505050565b60008061089f61093e565b90506108ac818585610b9d565b600191505092915050565b6000600160008473ffffffffffffffffffffffffffffffffffffffff1673ffffffffffffffffffffffffffffffffffffffff16815260200190815260200160002060008373ffffffffffffffffffffffffffffffffffffffff1673ffffffffffffffffffffffffffffffffffffffff16815260200190815260200160002054905092915050565b600033905090565b600073ffffffffffffffffffffffffffffffffffffffff168373ffffffffffffffffffffffffffffffffffffffff1614156109b6576040517f08c379a00000000000000000000000000000000000000000000000000000000081526004016109ad90611c04565b60405180910390fd5b600073ffffffffffffffffffffffffffffffffffffffff168273ffffffffffffffffffffffffffffffffffffffff161415610a26576040517f08c379a0000000000000000000000000000000000000000000000000000000008152600401610a1d90611b24565b60405180910390fd5b80600160008573ffffffffffffffffffffffffffffffffffffffff1673ffffffffffffffffffffffffffffffffffffffff16815260200190815260200160002060008473ffffffffffffffffffffffffffffffffffffffff1673ffffffffffffffffffffffffffffffffffffffff168152602001908152602001600020819055508173ffffffffffffffffffffffffffffffffffffffff168373ffffffffffffffffffffffffffffffffffffffff167f8c5be1e5ebec7d5bd14f71427d1e84f3dd0314c0f7b2291e5b200ac8c7c3b92583604051610b049190611c44565b60405180910390a3505050565b6000610b1d84846108b7565b90507fffffffffffffffffffffffffffffffffffffffffffffffffffffffffffffffff8114610b975781811015610b89576040517f08c379a0000000000000000000000000000000000000000000000000000000008152600401610b8090611b44565b60405180910390fd5b610b968484848403610946565b5b50505050565b600073ffffffffffffffffffffffffffffffffffffffff168373ffffffffffffffffffffffffffffffffffffffff161415610c0d576040517f08c379a0000000000000000000000000000000000000000000000000000000008152600401610c0490611be4565b60405180910390fd5b600073ffffffffffffffffffffffffffffffffffffffff168273ffffffffffffffffffffffffffffffffffffffff161415610c7d576040517f08c379a0000000000000000000000000000000000000000000000000000000008152600401610c7490611ae4565b60405180910390fd5b610c88838383611476565b60008060008573ffffffffffffffffffffffffffffffffffffffff1673ffffffffffffffffffffffffffffffffffffffff16815260200190815260200160002054905081811015610d0e576040517f08c379a0000000000000000000000000000000000000000000000000000000008152600401610d0590611b64565b60405180910390fd5b8181036000808673ffffffffffffffffffffffffffffffffffffffff1673ffffffffffffffffffffffffffffffffffffffff16815260200190815260200160002081905550816000808573ffffffffffffffffffffffffffffffffffffffff1673ffffffffffffffffffffffffffffffffffffffff1681526020019081526020016000206000828254610da19190611c96565b925050819055508273ffffffffffffffffffffffffffffffffffffffff168473ffffffffffffffffffffffffffffffffffffffff167fddf252ad1be2c89b69c2b068fc378daa952ba7f163c4a11628f55a4df523b3ef84604051610e059190611c44565b60405180910390a3610e1884848461147b565b50505050565b600081600073ffffffffffffffffffffffffffffffffffffffff168173ffffffffffffffffffffffffffffffffffffffff161415610e5b57600080fd5b6000600660008573ffffffffffffffffffffffffffffffffffffffff1673ffffffffffffffffffffffffffffffffffffffff1681526020019081526020016000205490506000811415610eb2576000925050610f0b565b6001600580549050610ec49190611cec565b811115610f06576040517f08c379a0000000000000000000000000000000000000000000000000000000008152600401610efd90611ba4565b60405180910390fd5b809250505b50919050565b60007f000000000000000000000000000000000000000000000000000000000000000082101590506000600580549050905060008114156110545760056040518060c00160405280600073ffffffffffffffffffffffffffffffffffffffff1681526020016000815260200160008152602001600081526020016000815260200160001515815250908060018154018082558091505060019003906000526020600020906006020160009091909190915060008201518160000160006101000a81548173ffffffffffffffffffffffffffffffffffffffff021916908373ffffffffffffffffffffffffffffffffffffffff1602179055506020820151816001015560408201518160020155606082015181600301556080820151816004015560a08201518160050160006101000a81548160ff02191690831515021790555050505b6001816110619190611c96565b905060056040518060c001604052808673ffffffffffffffffffffffffffffffffffffffff1681526020018581526020018581526020016000815260200160008152602001841515815250908060018154018082558091505060019003906000526020600020906006020160009091909190915060008201518160000160006101000a81548173ffffffffffffffffffffffffffffffffffffffff021916908373ffffffffffffffffffffffffffffffffffffffff1602179055506020820151816001015560408201518160020155606082015181600301556080820151816004015560a08201518160050160006101000a81548160ff021916908315150217905550505080600660008673ffffffffffffffffffffffffffffffffffffffff1673ffffffffffffffffffffffffffffffffffffffff1681526020019081526020016000208190555050505050565b6000600583815481106111ec577f4e487b7100000000000000000000000000000000000000000000000000000000600052603260045260246000fd5b90600052602060002090600602019050818160010160008282546112109190611c96565b925050819055508181600201600082825461122b9190611c96565b925050819055508060050160009054906101000a900460ff1661129a5760007f000000000000000000000000000000000000000000000000000000000000000082600101541015905080156112985760018260050160006101000a81548160ff0219169083151502179055505b505b505050565b600073ffffffffffffffffffffffffffffffffffffffff168273ffffffffffffffffffffffffffffffffffffffff16141561130f576040517f08c379a000000000000000000000000000000000000000000000000000000000815260040161130690611bc4565b60405180910390fd5b61131b82600083611476565b60008060008473ffffffffffffffffffffffffffffffffffffffff1673ffffffffffffffffffffffffffffffffffffffff168152602001908152602001600020549050818110156113a1576040517f08c379a000000000000000000000000000000000000000000000000000000000815260040161139890611b04565b60405180910390fd5b8181036000808573ffffffffffffffffffffffffffffffffffffffff1673ffffffffffffffffffffffffffffffffffffffff1681526020019081526020016000208190555081600260008282546113f89190611cec565b92505081905550600073ffffffffffffffffffffffffffffffffffffffff168373ffffffffffffffffffffffffffffffffffffffff167fddf252ad1be2c89b69c2b068fc378daa952ba7f163c4a11628f55a4df523b3ef8460405161145d9190611c44565b60405180910390a36114718360008461147b565b505050565b505050565b505050565b60008135905061148f81611e49565b92915050565b6000813590506114a481611e60565b92915050565b6000815190506114b981611e60565b92915050565b6000602082840312156114d157600080fd5b60006114df84828501611480565b91505092915050565b600080604083850312156114fb57600080fd5b600061150985828601611480565b925050602061151a85828601611480565b9150509250929050565b60008060006060848603121561153957600080fd5b600061154786828701611480565b935050602061155886828701611480565b925050604061156986828701611495565b9150509250925092565b6000806040838503121561158657600080fd5b600061159485828601611480565b92505060206115a585828601611495565b9150509250929050565b6000602082840312156115c157600080fd5b60006115cf84828501611495565b91505092915050565b6000602082840312156115ea57600080fd5b60006115f8848285016114aa565b91505092915050565b61160a81611d20565b82525050565b61161981611d32565b82525050565b600061162a82611c7a565b6116348185611c85565b9350611644818560208601611d75565b61164d81611e38565b840191505092915050565b6000611665602383611c85565b91507f45524332303a207472616e7366657220746f20746865207a65726f206164647260008301527f65737300000000000000000000000000000000000000000000000000000000006020830152604082019050919050565b60006116cb602283611c85565b91507f45524332303a206275726e20616d6f756e7420657863656564732062616c616e60008301527f63650000000000000000000000000000000000000000000000000000000000006020830152604082019050919050565b6000611731602283611c85565b91507f45524332303a20617070726f766520746f20746865207a65726f20616464726560008301527f73730000000000000000000000000000000000000000000000000000000000006020830152604082019050919050565b6000611797601d83611c85565b91507f45524332303a20696e73756666696369656e7420616c6c6f77616e63650000006000830152602082019050919050565b60006117d7602683611c85565b91507f45524332303a207472616e7366657220616d6f756e742065786365656473206260008301527f616c616e636500000000000000000000000000000000000000000000000000006020830152604082019050919050565b600061183d602083611c85565b91507f496e73756666696369656e742062616c616e636520666f72207374616b696e676000830152602082019050919050565b600061187d602983611c85565b91507f496e76616c696420696e64657820666f72207374616b65686f6c64657273206360008301527f6f6c6c656374696f6e00000000000000000000000000000000000000000000006020830152604082019050919050565b60006118e3602183611c85565b91507f45524332303a206275726e2066726f6d20746865207a65726f2061646472657360008301527f73000000000000000000000000000000000000000000000000000000000000006020830152604082019050919050565b6000611949602583611c85565b91507f45524332303a207472616e736665722066726f6d20746865207a65726f20616460008301527f64726573730000000000000000000000000000000000000000000000000000006020830152604082019050919050565b60006119af602483611c85565b91507f45524332303a20617070726f76652066726f6d20746865207a65726f2061646460008301527f72657373000000000000000000000000000000000000000000000000000000006020830152604082019050919050565b6000611a15602583611c85565b91507f45524332303a2064656372656173656420616c6c6f77616e63652062656c6f7760008301527f207a65726f0000000000000000000000000000000000000000000000000000006020830152604082019050919050565b611a7781611d5e565b82525050565b611a8681611d68565b82525050565b6000602082019050611aa16000830184611601565b92915050565b6000602082019050611abc6000830184611610565b92915050565b60006020820190508181036000830152611adc818461161f565b905092915050565b60006020820190508181036000830152611afd81611658565b9050919050565b60006020820190508181036000830152611b1d816116be565b9050919050565b60006020820190508181036000830152611b3d81611724565b9050919050565b60006020820190508181036000830152611b5d8161178a565b9050919050565b60006020820190508181036000830152611b7d816117ca565b9050919050565b60006020820190508181036000830152611b9d81611830565b9050919050565b60006020820190508181036000830152611bbd81611870565b9050919050565b60006020820190508181036000830152611bdd816118d6565b9050919050565b60006020820190508181036000830152611bfd8161193c565b9050919050565b60006020820190508181036000830152611c1d816119a2565b9050919050565b60006020820190508181036000830152611c3d81611a08565b9050919050565b6000602082019050611c596000830184611a6e565b92915050565b6000602082019050611c746000830184611a7d565b92915050565b600081519050919050565b600082825260208201905092915050565b6000611ca182611d5e565b9150611cac83611d5e565b9250827fffffffffffffffffffffffffffffffffffffffffffffffffffffffffffffffff03821115611ce157611ce0611dda565b5b828201905092915050565b6000611cf782611d5e565b9150611d0283611d5e565b925082821015611d1557611d14611dda565b5b828203905092915050565b6000611d2b82611d3e565b9050919050565b60008115159050919050565b600073ffffffffffffffffffffffffffffffffffffffff82169050919050565b6000819050919050565b600060ff82169050919050565b60005b83811015611d93578082015181840152602081019050611d78565b83811115611da2576000848401525b50505050565b60006002820490506001821680611dc057607f821691505b60208210811415611dd457611dd3611e09565b5b50919050565b7f4e487b7100000000000000000000000000000000000000000000000000000000600052601160045260246000fd5b7f4e487b7100000000000000000000000000000000000000000000000000000000600052602260045260246000fd5b6000601f19601f8301169050919050565b611e5281611d20565b8114611e5d57600080fd5b50565b611e6981611d5e565b8114611e7457600080fd5b5056fea2646970667358221220f1e22bb4c3961a5a02649fd6eb789cc47b785a96c396847774d763642c4442a364736f6c63430008000033",
  "immutableReferences": {
    "780": [
      {
        "length": 32,
        "start": 3861
      },
      {
        "length": 32,
        "start": 4684
      }
    ]
  },
  "source": "pragma solidity ^0.8.0;\r\n\r\nimport \"./base/ERC20Stakable.sol\";\r\n\r\ncontract GoldOracleToken is ERC20Stakable {\r\n    uint256 private constant _minAmountStakedForValidation = 20000 * 10**18;\r\n    address private _owner;\r\n\r\n    constructor()\r\n        ERC20Stakable(\"GoldOracleToken\", \"GOT\", _minAmountStakedForValidation)\r\n    {\r\n        _owner = msg.sender;\r\n    }\r\n\r\n    function getOwnerAddress() public view returns (address) {\r\n        return _owner;\r\n    }\r\n}\r\n",
  "sourcePath": "D:\\Documents\\Dev\\Repositories\\gold-price-oracle\\gold-price-oracle\\token\\contracts\\GoldOracleToken.sol",
  "compiler": {
    "name": "solc",
    "version": "0.8.0+commit.c7dfd78e.Emscripten.clang"
  },
  "schemaVersion": "3.4.3",
  "updatedAt": "2022-02-20T16:49:29.604Z",
  "devdoc": {
    "kind": "dev",
    "methods": {
      "allowance(address,address)": {
        "details": "See {IERC20-allowance}."
      },
      "approve(address,uint256)": {
        "details": "See {IERC20-approve}. NOTE: If `amount` is the maximum `uint256`, the allowance is not updated on `transferFrom`. This is semantically equivalent to an infinite approval. Requirements: - `spender` cannot be the zero address."
      },
      "balanceOf(address)": {
        "details": "See {IERC20-balanceOf}."
      },
      "decimals()": {
        "details": "Returns the number of decimals used to get its user representation. For example, if `decimals` equals `2`, a balance of `505` tokens should be displayed to a user as `5.05` (`505 / 10 ** 2`). Tokens usually opt for a value of 18, imitating the relationship between Ether and Wei. This is the value {ERC20} uses, unless this function is overridden; NOTE: This information is only used for _display_ purposes: it in no way affects any of the arithmetic of the contract, including {IERC20-balanceOf} and {IERC20-transfer}."
      },
      "decreaseAllowance(address,uint256)": {
        "details": "Atomically decreases the allowance granted to `spender` by the caller. This is an alternative to {approve} that can be used as a mitigation for problems described in {IERC20-approve}. Emits an {Approval} event indicating the updated allowance. Requirements: - `spender` cannot be the zero address. - `spender` must have allowance for the caller of at least `subtractedValue`."
      },
      "increaseAllowance(address,uint256)": {
        "details": "Atomically increases the allowance granted to `spender` by the caller. This is an alternative to {approve} that can be used as a mitigation for problems described in {IERC20-approve}. Emits an {Approval} event indicating the updated allowance. Requirements: - `spender` cannot be the zero address."
      },
      "name()": {
        "details": "Returns the name of the token."
      },
      "symbol()": {
        "details": "Returns the symbol of the token, usually a shorter version of the name."
      },
      "totalSupply()": {
        "details": "See {IERC20-totalSupply}."
      },
      "transfer(address,uint256)": {
        "details": "See {IERC20-transfer}. Requirements: - `to` cannot be the zero address. - the caller must have a balance of at least `amount`."
      },
      "transferFrom(address,address,uint256)": {
        "details": "See {IERC20-transferFrom}. Emits an {Approval} event indicating the updated allowance. This is not required by the EIP. See the note at the beginning of {ERC20}. NOTE: Does not update the allowance if the current allowance is the maximum `uint256`. Requirements: - `from` and `to` cannot be the zero address. - `from` must have a balance of at least `amount`. - the caller must have allowance for ``from``'s tokens of at least `amount`."
      }
    },
    "version": 1
  },
  "userdoc": {
    "kind": "user",
    "methods": {},
    "version": 1
  }
}