{
  "contractName": "GoldOracleToken",
  "abi": [
    {
      "inputs": [],
      "stateMutability": "nonpayable",
      "type": "constructor"
    },
    {
      "anonymous": false,
      "inputs": [
        {
          "indexed": true,
          "internalType": "address",
          "name": "owner",
          "type": "address"
        },
        {
          "indexed": true,
          "internalType": "address",
          "name": "spender",
          "type": "address"
        },
        {
          "indexed": false,
          "internalType": "uint256",
          "name": "value",
          "type": "uint256"
        }
      ],
      "name": "Approval",
      "type": "event"
    },
    {
      "anonymous": false,
      "inputs": [
        {
          "indexed": true,
          "internalType": "address",
          "name": "from",
          "type": "address"
        },
        {
          "indexed": true,
          "internalType": "address",
          "name": "to",
          "type": "address"
        },
        {
          "indexed": false,
          "internalType": "uint256",
          "name": "value",
          "type": "uint256"
        }
      ],
      "name": "Transfer",
      "type": "event"
    },
    {
      "inputs": [
        {
          "internalType": "address",
          "name": "owner",
          "type": "address"
        },
        {
          "internalType": "address",
          "name": "spender",
          "type": "address"
        }
      ],
      "name": "allowance",
      "outputs": [
        {
          "internalType": "uint256",
          "name": "",
          "type": "uint256"
        }
      ],
      "stateMutability": "view",
      "type": "function",
      "constant": true
    },
    {
      "inputs": [
        {
          "internalType": "address",
          "name": "spender",
          "type": "address"
        },
        {
          "internalType": "uint256",
          "name": "amount",
          "type": "uint256"
        }
      ],
      "name": "approve",
      "outputs": [
        {
          "internalType": "bool",
          "name": "",
          "type": "bool"
        }
      ],
      "stateMutability": "nonpayable",
      "type": "function"
    },
    {
      "inputs": [
        {
          "internalType": "address",
          "name": "account",
          "type": "address"
        }
      ],
      "name": "balanceOf",
      "outputs": [
        {
          "internalType": "uint256",
          "name": "",
          "type": "uint256"
        }
      ],
      "stateMutability": "view",
      "type": "function",
      "constant": true
    },
    {
      "inputs": [],
      "name": "decimals",
      "outputs": [
        {
          "internalType": "uint8",
          "name": "",
          "type": "uint8"
        }
      ],
      "stateMutability": "view",
      "type": "function",
      "constant": true
    },
    {
      "inputs": [
        {
          "internalType": "address",
          "name": "spender",
          "type": "address"
        },
        {
          "internalType": "uint256",
          "name": "subtractedValue",
          "type": "uint256"
        }
      ],
      "name": "decreaseAllowance",
      "outputs": [
        {
          "internalType": "bool",
          "name": "",
          "type": "bool"
        }
      ],
      "stateMutability": "nonpayable",
      "type": "function"
    },
    {
      "inputs": [
        {
          "internalType": "address",
          "name": "address_",
          "type": "address"
        }
      ],
      "name": "getStakedAmount",
      "outputs": [
        {
          "internalType": "uint256",
          "name": "",
          "type": "uint256"
        }
      ],
      "stateMutability": "view",
      "type": "function",
      "constant": true
    },
    {
      "inputs": [
        {
          "internalType": "address",
          "name": "spender",
          "type": "address"
        },
        {
          "internalType": "uint256",
          "name": "addedValue",
          "type": "uint256"
        }
      ],
      "name": "increaseAllowance",
      "outputs": [
        {
          "internalType": "bool",
          "name": "",
          "type": "bool"
        }
      ],
      "stateMutability": "nonpayable",
      "type": "function"
    },
    {
      "inputs": [],
      "name": "name",
      "outputs": [
        {
          "internalType": "string",
          "name": "",
          "type": "string"
        }
      ],
      "stateMutability": "view",
      "type": "function",
      "constant": true
    },
    {
      "inputs": [
        {
          "internalType": "uint256",
          "name": "amount_",
          "type": "uint256"
        }
      ],
      "name": "stake",
      "outputs": [],
      "stateMutability": "nonpayable",
      "type": "function"
    },
    {
      "inputs": [],
      "name": "symbol",
      "outputs": [
        {
          "internalType": "string",
          "name": "",
          "type": "string"
        }
      ],
      "stateMutability": "view",
      "type": "function",
      "constant": true
    },
    {
      "inputs": [],
      "name": "totalSupply",
      "outputs": [
        {
          "internalType": "uint256",
          "name": "",
          "type": "uint256"
        }
      ],
      "stateMutability": "view",
      "type": "function",
      "constant": true
    },
    {
      "inputs": [
        {
          "internalType": "address",
          "name": "to",
          "type": "address"
        },
        {
          "internalType": "uint256",
          "name": "amount",
          "type": "uint256"
        }
      ],
      "name": "transfer",
      "outputs": [
        {
          "internalType": "bool",
          "name": "",
          "type": "bool"
        }
      ],
      "stateMutability": "nonpayable",
      "type": "function"
    },
    {
      "inputs": [
        {
          "internalType": "address",
          "name": "from",
          "type": "address"
        },
        {
          "internalType": "address",
          "name": "to",
          "type": "address"
        },
        {
          "internalType": "uint256",
          "name": "amount",
          "type": "uint256"
        }
      ],
      "name": "transferFrom",
      "outputs": [
        {
          "internalType": "bool",
          "name": "",
          "type": "bool"
        }
      ],
      "stateMutability": "nonpayable",
      "type": "function"
    },
    {
      "inputs": [
        {
          "internalType": "uint256",
          "name": "amount_",
          "type": "uint256"
        }
      ],
      "name": "unstake",
      "outputs": [],
      "stateMutability": "nonpayable",
      "type": "function"
    },
    {
      "inputs": [],
      "name": "getOwnerAddress",
      "outputs": [
        {
          "internalType": "address",
          "name": "",
          "type": "address"
        }
      ],
      "stateMutability": "view",
      "type": "function",
      "constant": true
    }
  ],
  "bytecode": "0x60a06040523480156200001157600080fd5b506040518060400160405280600f81526020017f476f6c644f7261636c65546f6b656e00000000000000000000000000000000008152506040518060400160405280600381526020017f474f54000000000000000000000000000000000000000000000000000000000081525069043c33c193756480000082828160039080519060200190620000a3929190620002be565b508060049080519060200190620000bc929190620002be565b505050806080818152505050505033600860006101000a81548173ffffffffffffffffffffffffffffffffffffffff021916908373ffffffffffffffffffffffffffffffffffffffff1602179055506200013533600a69043c33c19375648000006200012991906200046e565b6200013b60201b60201c565b6200056d565b600073ffffffffffffffffffffffffffffffffffffffff168273ffffffffffffffffffffffffffffffffffffffff161415620001ae576040517f08c379a0000000000000000000000000000000000000000000000000000000008152600401620001a590620003c1565b60405180910390fd5b620001c260008383620002b460201b60201c565b8060026000828254620001d6919062000411565b92505081905550806000808473ffffffffffffffffffffffffffffffffffffffff1673ffffffffffffffffffffffffffffffffffffffff16815260200190815260200160002060008282546200022d919062000411565b925050819055508173ffffffffffffffffffffffffffffffffffffffff16600073ffffffffffffffffffffffffffffffffffffffff167fddf252ad1be2c89b69c2b068fc378daa952ba7f163c4a11628f55a4df523b3ef83604051620002949190620003e3565b60405180910390a3620002b060008383620002b960201b60201c565b5050565b505050565b505050565b828054620002cc90620004d9565b90600052602060002090601f016020900481019282620002f057600085556200033c565b82601f106200030b57805160ff19168380011785556200033c565b828001600101855582156200033c579182015b828111156200033b5782518255916020019190600101906200031e565b5b5090506200034b91906200034f565b5090565b5b808211156200036a57600081600090555060010162000350565b5090565b60006200037d601f8362000400565b91507f45524332303a206d696e7420746f20746865207a65726f2061646472657373006000830152602082019050919050565b620003bb81620004cf565b82525050565b60006020820190508181036000830152620003dc816200036e565b9050919050565b6000602082019050620003fa6000830184620003b0565b92915050565b600082825260208201905092915050565b60006200041e82620004cf565b91506200042b83620004cf565b9250827fffffffffffffffffffffffffffffffffffffffffffffffffffffffffffffffff038211156200046357620004626200050f565b5b828201905092915050565b60006200047b82620004cf565b91506200048883620004cf565b9250817fffffffffffffffffffffffffffffffffffffffffffffffffffffffffffffffff0483118215151615620004c457620004c36200050f565b5b828202905092915050565b6000819050919050565b60006002820490506001821680620004f257607f821691505b602082108114156200050957620005086200053e565b5b50919050565b7f4e487b7100000000000000000000000000000000000000000000000000000000600052601160045260246000fd5b7f4e487b7100000000000000000000000000000000000000000000000000000000600052602260045260246000fd5b608051612361620005976000396000818161057e01528181611207015261153b01526123616000f3fe608060405234801561001057600080fd5b50600436106100f55760003560e01c80633950935111610097578063a457c2d711610066578063a457c2d71461029c578063a694fc3a146102cc578063a9059cbb146102e8578063dd62ed3e14610318576100f5565b806339509351146101ee5780634da6a5561461021e57806370a082311461024e57806395d89b411461027e576100f5565b806318160ddd116100d357806318160ddd1461016657806323b872dd146101845780632e17de78146101b4578063313ce567146101d0576100f5565b806306fdde03146100fa578063095ea7b3146101185780630c4f65bd14610148575b600080fd5b610102610348565b60405161010f9190611f36565b60405180910390f35b610132600480360381019061012d9190611941565b6103da565b60405161013f9190611f1b565b60405180910390f35b6101506103fd565b60405161015d9190611f00565b60405180910390f35b61016e610427565b60405161017b91906120f8565b60405180910390f35b61019e600480360381019061019991906118f2565b610431565b6040516101ab9190611f1b565b60405180910390f35b6101ce60048036038101906101c9919061197d565b610460565b005b6101d86105f5565b6040516101e59190612113565b60405180910390f35b61020860048036038101906102039190611941565b6105fe565b6040516102159190611f1b565b60405180910390f35b6102386004803603810190610233919061188d565b6106a8565b60405161024591906120f8565b60405180910390f35b6102686004803603810190610263919061188d565b61074d565b60405161027591906120f8565b60405180910390f35b610286610795565b6040516102939190611f36565b60405180910390f35b6102b660048036038101906102b19190611941565b610827565b6040516102c39190611f1b565b60405180910390f35b6102e660048036038101906102e1919061197d565b610911565b005b61030260048036038101906102fd9190611941565b610a26565b60405161030f9190611f1b565b60405180910390f35b610332600480360381019061032d91906118b6565b610a49565b60405161033f91906120f8565b60405180910390f35b6060600380546103579061225c565b80601f01602080910402602001604051908101604052809291908181526020018280546103839061225c565b80156103d05780601f106103a5576101008083540402835291602001916103d0565b820191906000526020600020905b8154815290600101906020018083116103b357829003601f168201915b5050505050905090565b6000806103e5610ad0565b90506103f2818585610ad8565b600191505092915050565b6000600860009054906101000a900473ffffffffffffffffffffffffffffffffffffffff16905090565b6000600254905090565b60008061043c610ad0565b9050610449858285610ca3565b610454858585610d2f565b60019150509392505050565b60003390506000600760008373ffffffffffffffffffffffffffffffffffffffff1673ffffffffffffffffffffffffffffffffffffffff16815260200190815260200160002054905060008114156104b95750506105f2565b6000600582815481106104f5577f4e487b7100000000000000000000000000000000000000000000000000000000600052603260045260246000fd5b90600052602060002090600602019050838160010154101561054c576040517f08c379a000000000000000000000000000000000000000000000000000000000815260040161054390611fd8565b60405180910390fd5b60008482600101600082825461056291906121a0565b92505081905590508082600101819055508082600201819055507f000000000000000000000000000000000000000000000000000000000000000081106105c55760018260050160006101000a81548160ff0219169083151502179055506105e3565b60008260050160006101000a81548160ff0219169083151502179055505b6105ed8486610fb0565b505050505b50565b60006012905090565b600080610609610ad0565b905061069d818585600160008673ffffffffffffffffffffffffffffffffffffffff1673ffffffffffffffffffffffffffffffffffffffff16815260200190815260200160002060008973ffffffffffffffffffffffffffffffffffffffff1673ffffffffffffffffffffffffffffffffffffffff16815260200190815260200160002054610698919061214a565b610ad8565b600191505092915050565b600081600073ffffffffffffffffffffffffffffffffffffffff168173ffffffffffffffffffffffffffffffffffffffff1614156106e557600080fd5b60006106f084611110565b905060006005828154811061072e577f4e487b7100000000000000000000000000000000000000000000000000000000600052603260045260246000fd5b9060005260206000209060060201905080600101549350505050919050565b60008060008373ffffffffffffffffffffffffffffffffffffffff1673ffffffffffffffffffffffffffffffffffffffff168152602001908152602001600020549050919050565b6060600480546107a49061225c565b80601f01602080910402602001604051908101604052809291908181526020018280546107d09061225c565b801561081d5780601f106107f25761010080835404028352916020019161081d565b820191906000526020600020905b81548152906001019060200180831161080057829003601f168201915b5050505050905090565b600080610832610ad0565b90506000600160008373ffffffffffffffffffffffffffffffffffffffff1673ffffffffffffffffffffffffffffffffffffffff16815260200190815260200160002060008673ffffffffffffffffffffffffffffffffffffffff1673ffffffffffffffffffffffffffffffffffffffff168152602001908152602001600020549050838110156108f8576040517f08c379a00000000000000000000000000000000000000000000000000000000081526004016108ef906120b8565b60405180910390fd5b6109058286868403610ad8565b60019250505092915050565b600033905060003073ffffffffffffffffffffffffffffffffffffffff166370a08231836040518263ffffffff1660e01b81526004016109519190611f00565b60206040518083038186803b15801561096957600080fd5b505afa15801561097d573d6000803e3d6000fd5b505050506040513d601f19601f820116820180604052508101906109a191906119a6565b9050828110156109e6576040517f08c379a00000000000000000000000000000000000000000000000000000000081526004016109dd90612018565b60405180910390fd5b60006109f183611110565b90506000811415610a0b57610a068385611203565b610a16565b610a15818561149f565b5b610a2083856115be565b50505050565b600080610a31610ad0565b9050610a3e818585610d2f565b600191505092915050565b6000600160008473ffffffffffffffffffffffffffffffffffffffff1673ffffffffffffffffffffffffffffffffffffffff16815260200190815260200160002060008373ffffffffffffffffffffffffffffffffffffffff1673ffffffffffffffffffffffffffffffffffffffff16815260200190815260200160002054905092915050565b600033905090565b600073ffffffffffffffffffffffffffffffffffffffff168373ffffffffffffffffffffffffffffffffffffffff161415610b48576040517f08c379a0000000000000000000000000000000000000000000000000000000008152600401610b3f90612098565b60405180910390fd5b600073ffffffffffffffffffffffffffffffffffffffff168273ffffffffffffffffffffffffffffffffffffffff161415610bb8576040517f08c379a0000000000000000000000000000000000000000000000000000000008152600401610baf90611f98565b60405180910390fd5b80600160008573ffffffffffffffffffffffffffffffffffffffff1673ffffffffffffffffffffffffffffffffffffffff16815260200190815260200160002060008473ffffffffffffffffffffffffffffffffffffffff1673ffffffffffffffffffffffffffffffffffffffff168152602001908152602001600020819055508173ffffffffffffffffffffffffffffffffffffffff168373ffffffffffffffffffffffffffffffffffffffff167f8c5be1e5ebec7d5bd14f71427d1e84f3dd0314c0f7b2291e5b200ac8c7c3b92583604051610c9691906120f8565b60405180910390a3505050565b6000610caf8484610a49565b90507fffffffffffffffffffffffffffffffffffffffffffffffffffffffffffffffff8114610d295781811015610d1b576040517f08c379a0000000000000000000000000000000000000000000000000000000008152600401610d1290611fb8565b60405180910390fd5b610d288484848403610ad8565b5b50505050565b600073ffffffffffffffffffffffffffffffffffffffff168373ffffffffffffffffffffffffffffffffffffffff161415610d9f576040517f08c379a0000000000000000000000000000000000000000000000000000000008152600401610d9690612078565b60405180910390fd5b600073ffffffffffffffffffffffffffffffffffffffff168273ffffffffffffffffffffffffffffffffffffffff161415610e0f576040517f08c379a0000000000000000000000000000000000000000000000000000000008152600401610e0690611f58565b60405180910390fd5b610e1a838383611795565b60008060008573ffffffffffffffffffffffffffffffffffffffff1673ffffffffffffffffffffffffffffffffffffffff16815260200190815260200160002054905081811015610ea0576040517f08c379a0000000000000000000000000000000000000000000000000000000008152600401610e9790611ff8565b60405180910390fd5b8181036000808673ffffffffffffffffffffffffffffffffffffffff1673ffffffffffffffffffffffffffffffffffffffff16815260200190815260200160002081905550816000808573ffffffffffffffffffffffffffffffffffffffff1673ffffffffffffffffffffffffffffffffffffffff1681526020019081526020016000206000828254610f33919061214a565b925050819055508273ffffffffffffffffffffffffffffffffffffffff168473ffffffffffffffffffffffffffffffffffffffff167fddf252ad1be2c89b69c2b068fc378daa952ba7f163c4a11628f55a4df523b3ef84604051610f9791906120f8565b60405180910390a3610faa84848461179a565b50505050565b600073ffffffffffffffffffffffffffffffffffffffff168273ffffffffffffffffffffffffffffffffffffffff161415611020576040517f08c379a0000000000000000000000000000000000000000000000000000000008152600401611017906120d8565b60405180910390fd5b61102c60008383611795565b806002600082825461103e919061214a565b92505081905550806000808473ffffffffffffffffffffffffffffffffffffffff1673ffffffffffffffffffffffffffffffffffffffff1681526020019081526020016000206000828254611093919061214a565b925050819055508173ffffffffffffffffffffffffffffffffffffffff16600073ffffffffffffffffffffffffffffffffffffffff167fddf252ad1be2c89b69c2b068fc378daa952ba7f163c4a11628f55a4df523b3ef836040516110f891906120f8565b60405180910390a361110c6000838361179a565b5050565b600081600073ffffffffffffffffffffffffffffffffffffffff168173ffffffffffffffffffffffffffffffffffffffff16141561114d57600080fd5b6000600760008573ffffffffffffffffffffffffffffffffffffffff1673ffffffffffffffffffffffffffffffffffffffff16815260200190815260200160002054905060008114156111a45760009250506111fd565b60016005805490506111b691906121a0565b8111156111f8576040517f08c379a00000000000000000000000000000000000000000000000000000000081526004016111ef90612038565b60405180910390fd5b809250505b50919050565b60007f000000000000000000000000000000000000000000000000000000000000000082101590506000600580549050905060008114156113465760056040518060c00160405280600073ffffffffffffffffffffffffffffffffffffffff1681526020016000815260200160008152602001600081526020016000815260200160001515815250908060018154018082558091505060019003906000526020600020906006020160009091909190915060008201518160000160006101000a81548173ffffffffffffffffffffffffffffffffffffffff021916908373ffffffffffffffffffffffffffffffffffffffff1602179055506020820151816001015560408201518160020155606082015181600301556080820151816004015560a08201518160050160006101000a81548160ff02191690831515021790555050505b60056040518060c001604052808673ffffffffffffffffffffffffffffffffffffffff1681526020018581526020018581526020016000815260200160008152602001841515815250908060018154018082558091505060019003906000526020600020906006020160009091909190915060008201518160000160006101000a81548173ffffffffffffffffffffffffffffffffffffffff021916908373ffffffffffffffffffffffffffffffffffffffff1602179055506020820151816001015560408201518160020155606082015181600301556080820151816004015560a08201518160050160006101000a81548160ff021916908315150217905550505080600760008673ffffffffffffffffffffffffffffffffffffffff1673ffffffffffffffffffffffffffffffffffffffff1681526020019081526020016000208190555061149882858361179f565b5050505050565b6000600583815481106114db577f4e487b7100000000000000000000000000000000000000000000000000000000600052603260045260246000fd5b90600052602060002090600602019050818160010160008282546114ff919061214a565b925050819055508181600201600082825461151a919061214a565b925050819055508060050160009054906101000a900460ff166115b95760007f000000000000000000000000000000000000000000000000000000000000000082600101541015905080156115b75760018260050160006101000a81548160ff0219169083151502179055506115b5818360000160009054906101000a900473ffffffffffffffffffffffffffffffffffffffff168661179f565b505b505b505050565b600073ffffffffffffffffffffffffffffffffffffffff168273ffffffffffffffffffffffffffffffffffffffff16141561162e576040517f08c379a000000000000000000000000000000000000000000000000000000000815260040161162590612058565b60405180910390fd5b61163a82600083611795565b60008060008473ffffffffffffffffffffffffffffffffffffffff1673ffffffffffffffffffffffffffffffffffffffff168152602001908152602001600020549050818110156116c0576040517f08c379a00000000000000000000000000000000000000000000000000000000081526004016116b790611f78565b60405180910390fd5b8181036000808573ffffffffffffffffffffffffffffffffffffffff1673ffffffffffffffffffffffffffffffffffffffff16815260200190815260200160002081905550816002600082825461171791906121a0565b92505081905550600073ffffffffffffffffffffffffffffffffffffffff168373ffffffffffffffffffffffffffffffffffffffff167fddf252ad1be2c89b69c2b068fc378daa952ba7f163c4a11628f55a4df523b3ef8460405161177c91906120f8565b60405180910390a36117908360008461179a565b505050565b505050565b505050565b6000836117af5760009050611847565b6000600660008573ffffffffffffffffffffffffffffffffffffffff1673ffffffffffffffffffffffffffffffffffffffff16815260200190815260200160002054905060008114156118415782600660008673ffffffffffffffffffffffffffffffffffffffff1673ffffffffffffffffffffffffffffffffffffffff168152602001908152602001600020819055505b60019150505b9392505050565b60008135905061185d816122fd565b92915050565b60008135905061187281612314565b92915050565b60008151905061188781612314565b92915050565b60006020828403121561189f57600080fd5b60006118ad8482850161184e565b91505092915050565b600080604083850312156118c957600080fd5b60006118d78582860161184e565b92505060206118e88582860161184e565b9150509250929050565b60008060006060848603121561190757600080fd5b60006119158682870161184e565b93505060206119268682870161184e565b925050604061193786828701611863565b9150509250925092565b6000806040838503121561195457600080fd5b60006119628582860161184e565b925050602061197385828601611863565b9150509250929050565b60006020828403121561198f57600080fd5b600061199d84828501611863565b91505092915050565b6000602082840312156119b857600080fd5b60006119c684828501611878565b91505092915050565b6119d8816121d4565b82525050565b6119e7816121e6565b82525050565b60006119f88261212e565b611a028185612139565b9350611a12818560208601612229565b611a1b816122ec565b840191505092915050565b6000611a33602383612139565b91507f45524332303a207472616e7366657220746f20746865207a65726f206164647260008301527f65737300000000000000000000000000000000000000000000000000000000006020830152604082019050919050565b6000611a99602283612139565b91507f45524332303a206275726e20616d6f756e7420657863656564732062616c616e60008301527f63650000000000000000000000000000000000000000000000000000000000006020830152604082019050919050565b6000611aff602283612139565b91507f45524332303a20617070726f766520746f20746865207a65726f20616464726560008301527f73730000000000000000000000000000000000000000000000000000000000006020830152604082019050919050565b6000611b65601d83612139565b91507f45524332303a20696e73756666696369656e7420616c6c6f77616e63650000006000830152602082019050919050565b6000611ba5602283612139565b91507f496e73756666696369656e742062616c616e636520666f7220756e7374616b6960008301527f6e670000000000000000000000000000000000000000000000000000000000006020830152604082019050919050565b6000611c0b602683612139565b91507f45524332303a207472616e7366657220616d6f756e742065786365656473206260008301527f616c616e636500000000000000000000000000000000000000000000000000006020830152604082019050919050565b6000611c71602083612139565b91507f496e73756666696369656e742062616c616e636520666f72207374616b696e676000830152602082019050919050565b6000611cb1602983612139565b91507f496e76616c696420696e64657820666f72207374616b65686f6c64657273206360008301527f6f6c6c656374696f6e00000000000000000000000000000000000000000000006020830152604082019050919050565b6000611d17602183612139565b91507f45524332303a206275726e2066726f6d20746865207a65726f2061646472657360008301527f73000000000000000000000000000000000000000000000000000000000000006020830152604082019050919050565b6000611d7d602583612139565b91507f45524332303a207472616e736665722066726f6d20746865207a65726f20616460008301527f64726573730000000000000000000000000000000000000000000000000000006020830152604082019050919050565b6000611de3602483612139565b91507f45524332303a20617070726f76652066726f6d20746865207a65726f2061646460008301527f72657373000000000000000000000000000000000000000000000000000000006020830152604082019050919050565b6000611e49602583612139565b91507f45524332303a2064656372656173656420616c6c6f77616e63652062656c6f7760008301527f207a65726f0000000000000000000000000000000000000000000000000000006020830152604082019050919050565b6000611eaf601f83612139565b91507f45524332303a206d696e7420746f20746865207a65726f2061646472657373006000830152602082019050919050565b611eeb81612212565b82525050565b611efa8161221c565b82525050565b6000602082019050611f1560008301846119cf565b92915050565b6000602082019050611f3060008301846119de565b92915050565b60006020820190508181036000830152611f5081846119ed565b905092915050565b60006020820190508181036000830152611f7181611a26565b9050919050565b60006020820190508181036000830152611f9181611a8c565b9050919050565b60006020820190508181036000830152611fb181611af2565b9050919050565b60006020820190508181036000830152611fd181611b58565b9050919050565b60006020820190508181036000830152611ff181611b98565b9050919050565b6000602082019050818103600083015261201181611bfe565b9050919050565b6000602082019050818103600083015261203181611c64565b9050919050565b6000602082019050818103600083015261205181611ca4565b9050919050565b6000602082019050818103600083015261207181611d0a565b9050919050565b6000602082019050818103600083015261209181611d70565b9050919050565b600060208201905081810360008301526120b181611dd6565b9050919050565b600060208201905081810360008301526120d181611e3c565b9050919050565b600060208201905081810360008301526120f181611ea2565b9050919050565b600060208201905061210d6000830184611ee2565b92915050565b60006020820190506121286000830184611ef1565b92915050565b600081519050919050565b600082825260208201905092915050565b600061215582612212565b915061216083612212565b9250827fffffffffffffffffffffffffffffffffffffffffffffffffffffffffffffffff038211156121955761219461228e565b5b828201905092915050565b60006121ab82612212565b91506121b683612212565b9250828210156121c9576121c861228e565b5b828203905092915050565b60006121df826121f2565b9050919050565b60008115159050919050565b600073ffffffffffffffffffffffffffffffffffffffff82169050919050565b6000819050919050565b600060ff82169050919050565b60005b8381101561224757808201518184015260208101905061222c565b83811115612256576000848401525b50505050565b6000600282049050600182168061227457607f821691505b60208210811415612288576122876122bd565b5b50919050565b7f4e487b7100000000000000000000000000000000000000000000000000000000600052601160045260246000fd5b7f4e487b7100000000000000000000000000000000000000000000000000000000600052602260045260246000fd5b6000601f19601f8301169050919050565b612306816121d4565b811461231157600080fd5b50565b61231d81612212565b811461232857600080fd5b5056fea26469706673582212205a72c04022a664e92033203a58bb62168a191bd7f19f6e049f39e55322d09e7f64736f6c63430008000033",
  "immutableReferences": {
    "788": [
      {
        "length": 32,
        "start": 1406
      },
      {
        "length": 32,
        "start": 4615
      },
      {
        "length": 32,
        "start": 5435
      }
    ]
  },
  "source": "pragma solidity ^0.8.0;\r\n\r\nimport \"./base/ERC20Stakable.sol\";\r\n\r\ncontract GoldOracleToken is ERC20Stakable {\r\n    uint256 private constant _minAmountStakedForValidation = 20000 * 10**18;\r\n    address private _owner;\r\n\r\n    constructor()\r\n        ERC20Stakable(\"GoldOracleToken\", \"GOT\", _minAmountStakedForValidation)\r\n    {\r\n        _owner = msg.sender;\r\n        _mint(msg.sender, _minAmountStakedForValidation * 10); // for testing\r\n    }\r\n\r\n    function getOwnerAddress() public view returns (address) {\r\n        return _owner;\r\n    }\r\n}\r\n",
  "sourcePath": "D:\\Documents\\Dev\\Repositories\\gold-price-oracle\\gold-price-oracle\\token\\contracts\\GoldOracleToken.sol",
  "compiler": {
    "name": "solc",
    "version": "0.8.0+commit.c7dfd78e.Emscripten.clang"
  },
  "schemaVersion": "3.4.3",
  "updatedAt": "2022-02-21T12:44:18.946Z",
  "networkType": "ethereum",
  "devdoc": {
    "kind": "dev",
    "methods": {
      "allowance(address,address)": {
        "details": "See {IERC20-allowance}."
      },
      "approve(address,uint256)": {
        "details": "See {IERC20-approve}. NOTE: If `amount` is the maximum `uint256`, the allowance is not updated on `transferFrom`. This is semantically equivalent to an infinite approval. Requirements: - `spender` cannot be the zero address."
      },
      "balanceOf(address)": {
        "details": "See {IERC20-balanceOf}."
      },
      "decimals()": {
        "details": "Returns the number of decimals used to get its user representation. For example, if `decimals` equals `2`, a balance of `505` tokens should be displayed to a user as `5.05` (`505 / 10 ** 2`). Tokens usually opt for a value of 18, imitating the relationship between Ether and Wei. This is the value {ERC20} uses, unless this function is overridden; NOTE: This information is only used for _display_ purposes: it in no way affects any of the arithmetic of the contract, including {IERC20-balanceOf} and {IERC20-transfer}."
      },
      "decreaseAllowance(address,uint256)": {
        "details": "Atomically decreases the allowance granted to `spender` by the caller. This is an alternative to {approve} that can be used as a mitigation for problems described in {IERC20-approve}. Emits an {Approval} event indicating the updated allowance. Requirements: - `spender` cannot be the zero address. - `spender` must have allowance for the caller of at least `subtractedValue`."
      },
      "increaseAllowance(address,uint256)": {
        "details": "Atomically increases the allowance granted to `spender` by the caller. This is an alternative to {approve} that can be used as a mitigation for problems described in {IERC20-approve}. Emits an {Approval} event indicating the updated allowance. Requirements: - `spender` cannot be the zero address."
      },
      "name()": {
        "details": "Returns the name of the token."
      },
      "symbol()": {
        "details": "Returns the symbol of the token, usually a shorter version of the name."
      },
      "totalSupply()": {
        "details": "See {IERC20-totalSupply}."
      },
      "transfer(address,uint256)": {
        "details": "See {IERC20-transfer}. Requirements: - `to` cannot be the zero address. - the caller must have a balance of at least `amount`."
      },
      "transferFrom(address,address,uint256)": {
        "details": "See {IERC20-transferFrom}. Emits an {Approval} event indicating the updated allowance. This is not required by the EIP. See the note at the beginning of {ERC20}. NOTE: Does not update the allowance if the current allowance is the maximum `uint256`. Requirements: - `from` and `to` cannot be the zero address. - `from` must have a balance of at least `amount`. - the caller must have allowance for ``from``'s tokens of at least `amount`."
      }
    },
    "version": 1
  },
  "userdoc": {
    "kind": "user",
    "methods": {},
    "version": 1
  }
}