{
  "contractName": "ERC20ProofOfStake",
  "abi": [
    {
      "inputs": [
        {
          "internalType": "string",
          "name": "name_",
          "type": "string"
        },
        {
          "internalType": "string",
          "name": "symbol_",
          "type": "string"
        },
        {
          "internalType": "uint256",
          "name": "minStakedAmountForValidation_",
          "type": "uint256"
        },
        {
          "internalType": "uint256",
          "name": "rewardForValidatorsAfterEachEra_",
          "type": "uint256"
        }
      ],
      "stateMutability": "nonpayable",
      "type": "constructor"
    },
    {
      "anonymous": false,
      "inputs": [
        {
          "indexed": true,
          "internalType": "address",
          "name": "owner",
          "type": "address"
        },
        {
          "indexed": true,
          "internalType": "address",
          "name": "spender",
          "type": "address"
        },
        {
          "indexed": false,
          "internalType": "uint256",
          "name": "value",
          "type": "uint256"
        }
      ],
      "name": "Approval",
      "type": "event"
    },
    {
      "anonymous": false,
      "inputs": [
        {
          "indexed": false,
          "internalType": "bytes32",
          "name": "eraId",
          "type": "bytes32"
        },
        {
          "indexed": false,
          "internalType": "address",
          "name": "chairman",
          "type": "address"
        },
        {
          "indexed": false,
          "internalType": "uint256",
          "name": "timestap",
          "type": "uint256"
        }
      ],
      "name": "EndEraByNewElectedChairman",
      "type": "event"
    },
    {
      "anonymous": false,
      "inputs": [
        {
          "indexed": false,
          "internalType": "bytes32",
          "name": "eraId",
          "type": "bytes32"
        },
        {
          "indexed": false,
          "internalType": "address",
          "name": "chairman",
          "type": "address"
        },
        {
          "indexed": false,
          "internalType": "address[]",
          "name": "council",
          "type": "address[]"
        },
        {
          "indexed": false,
          "internalType": "uint256",
          "name": "validatorsCount",
          "type": "uint256"
        },
        {
          "indexed": false,
          "internalType": "uint256",
          "name": "calculatedSeed",
          "type": "uint256"
        }
      ],
      "name": "NewEraElecationProposal",
      "type": "event"
    },
    {
      "anonymous": false,
      "inputs": [
        {
          "components": [
            {
              "internalType": "bytes32",
              "name": "id",
              "type": "bytes32"
            },
            {
              "internalType": "uint256",
              "name": "colectedFeesAmount",
              "type": "uint256"
            },
            {
              "internalType": "uint256",
              "name": "startDate",
              "type": "uint256"
            },
            {
              "internalType": "uint256",
              "name": "endDate",
              "type": "uint256"
            },
            {
              "internalType": "address",
              "name": "chairman",
              "type": "address"
            },
            {
              "internalType": "uint256",
              "name": "requiredQuorum",
              "type": "uint256"
            },
            {
              "internalType": "bool",
              "name": "isQuorumReached",
              "type": "bool"
            },
            {
              "internalType": "uint256",
              "name": "possitiveVotes",
              "type": "uint256"
            },
            {
              "internalType": "uint256",
              "name": "negativeVotes",
              "type": "uint256"
            },
            {
              "internalType": "bool",
              "name": "accepted",
              "type": "bool"
            },
            {
              "internalType": "bool",
              "name": "ended",
              "type": "bool"
            }
          ],
          "indexed": false,
          "internalType": "struct Eras.Era",
          "name": "era",
          "type": "tuple"
        }
      ],
      "name": "NewEraElectionComplited",
      "type": "event"
    },
    {
      "anonymous": false,
      "inputs": [
        {
          "indexed": true,
          "internalType": "address",
          "name": "from",
          "type": "address"
        },
        {
          "indexed": true,
          "internalType": "address",
          "name": "to",
          "type": "address"
        },
        {
          "indexed": false,
          "internalType": "uint256",
          "name": "value",
          "type": "uint256"
        }
      ],
      "name": "Transfer",
      "type": "event"
    },
    {
      "inputs": [
        {
          "internalType": "address",
          "name": "owner",
          "type": "address"
        },
        {
          "internalType": "address",
          "name": "spender",
          "type": "address"
        }
      ],
      "name": "allowance",
      "outputs": [
        {
          "internalType": "uint256",
          "name": "",
          "type": "uint256"
        }
      ],
      "stateMutability": "view",
      "type": "function"
    },
    {
      "inputs": [
        {
          "internalType": "address",
          "name": "spender",
          "type": "address"
        },
        {
          "internalType": "uint256",
          "name": "amount",
          "type": "uint256"
        }
      ],
      "name": "approve",
      "outputs": [
        {
          "internalType": "bool",
          "name": "",
          "type": "bool"
        }
      ],
      "stateMutability": "nonpayable",
      "type": "function"
    },
    {
      "inputs": [
        {
          "internalType": "address",
          "name": "account",
          "type": "address"
        }
      ],
      "name": "balanceOf",
      "outputs": [
        {
          "internalType": "uint256",
          "name": "",
          "type": "uint256"
        }
      ],
      "stateMutability": "view",
      "type": "function"
    },
    {
      "inputs": [],
      "name": "decimals",
      "outputs": [
        {
          "internalType": "uint8",
          "name": "",
          "type": "uint8"
        }
      ],
      "stateMutability": "view",
      "type": "function"
    },
    {
      "inputs": [
        {
          "internalType": "address",
          "name": "spender",
          "type": "address"
        },
        {
          "internalType": "uint256",
          "name": "subtractedValue",
          "type": "uint256"
        }
      ],
      "name": "decreaseAllowance",
      "outputs": [
        {
          "internalType": "bool",
          "name": "",
          "type": "bool"
        }
      ],
      "stateMutability": "nonpayable",
      "type": "function"
    },
    {
      "inputs": [
        {
          "internalType": "address",
          "name": "address_",
          "type": "address"
        }
      ],
      "name": "getStakedAmount",
      "outputs": [
        {
          "internalType": "uint256",
          "name": "",
          "type": "uint256"
        }
      ],
      "stateMutability": "view",
      "type": "function"
    },
    {
      "inputs": [
        {
          "internalType": "address",
          "name": "address_",
          "type": "address"
        }
      ],
      "name": "getStakeholderInformation",
      "outputs": [
        {
          "internalType": "uint256",
          "name": "",
          "type": "uint256"
        },
        {
          "internalType": "uint256",
          "name": "",
          "type": "uint256"
        },
        {
          "internalType": "uint256",
          "name": "",
          "type": "uint256"
        },
        {
          "internalType": "uint256",
          "name": "",
          "type": "uint256"
        },
        {
          "internalType": "bool",
          "name": "",
          "type": "bool"
        }
      ],
      "stateMutability": "view",
      "type": "function"
    },
    {
      "inputs": [],
      "name": "getStakeholders",
      "outputs": [
        {
          "components": [
            {
              "internalType": "address",
              "name": "user",
              "type": "address"
            },
            {
              "internalType": "uint256",
              "name": "totalAmount",
              "type": "uint256"
            },
            {
              "internalType": "uint256",
              "name": "ownedAmount",
              "type": "uint256"
            },
            {
              "internalType": "uint256",
              "name": "nominatedAmount",
              "type": "uint256"
            },
            {
              "internalType": "uint256",
              "name": "nominatorsCount",
              "type": "uint256"
            },
            {
              "internalType": "bool",
              "name": "canValidate",
              "type": "bool"
            },
            {
              "internalType": "uint256",
              "name": "notCollectedTokenRewards",
              "type": "uint256"
            }
          ],
          "internalType": "struct Stakeholders.Stakeholder[]",
          "name": "stakeholders",
          "type": "tuple[]"
        }
      ],
      "stateMutability": "view",
      "type": "function"
    },
    {
      "inputs": [
        {
          "internalType": "address",
          "name": "spender",
          "type": "address"
        },
        {
          "internalType": "uint256",
          "name": "addedValue",
          "type": "uint256"
        }
      ],
      "name": "increaseAllowance",
      "outputs": [
        {
          "internalType": "bool",
          "name": "",
          "type": "bool"
        }
      ],
      "stateMutability": "nonpayable",
      "type": "function"
    },
    {
      "inputs": [],
      "name": "name",
      "outputs": [
        {
          "internalType": "string",
          "name": "",
          "type": "string"
        }
      ],
      "stateMutability": "view",
      "type": "function"
    },
    {
      "inputs": [
        {
          "internalType": "uint256",
          "name": "amount_",
          "type": "uint256"
        }
      ],
      "name": "stake",
      "outputs": [],
      "stateMutability": "nonpayable",
      "type": "function"
    },
    {
      "inputs": [],
      "name": "symbol",
      "outputs": [
        {
          "internalType": "string",
          "name": "",
          "type": "string"
        }
      ],
      "stateMutability": "view",
      "type": "function"
    },
    {
      "inputs": [],
      "name": "totalSupply",
      "outputs": [
        {
          "internalType": "uint256",
          "name": "",
          "type": "uint256"
        }
      ],
      "stateMutability": "view",
      "type": "function"
    },
    {
      "inputs": [
        {
          "internalType": "address",
          "name": "to",
          "type": "address"
        },
        {
          "internalType": "uint256",
          "name": "amount",
          "type": "uint256"
        }
      ],
      "name": "transfer",
      "outputs": [
        {
          "internalType": "bool",
          "name": "",
          "type": "bool"
        }
      ],
      "stateMutability": "nonpayable",
      "type": "function"
    },
    {
      "inputs": [
        {
          "internalType": "address",
          "name": "from",
          "type": "address"
        },
        {
          "internalType": "address",
          "name": "to",
          "type": "address"
        },
        {
          "internalType": "uint256",
          "name": "amount",
          "type": "uint256"
        }
      ],
      "name": "transferFrom",
      "outputs": [
        {
          "internalType": "bool",
          "name": "",
          "type": "bool"
        }
      ],
      "stateMutability": "nonpayable",
      "type": "function"
    },
    {
      "inputs": [
        {
          "internalType": "uint256",
          "name": "amount_",
          "type": "uint256"
        }
      ],
      "name": "unstake",
      "outputs": [],
      "stateMutability": "nonpayable",
      "type": "function"
    },
    {
      "inputs": [],
      "name": "getValidatorsCount",
      "outputs": [
        {
          "internalType": "uint256",
          "name": "",
          "type": "uint256"
        }
      ],
      "stateMutability": "view",
      "type": "function"
    },
    {
      "inputs": [],
      "name": "getCurrentEra",
      "outputs": [
        {
          "components": [
            {
              "internalType": "bytes32",
              "name": "id",
              "type": "bytes32"
            },
            {
              "internalType": "uint256",
              "name": "colectedFeesAmount",
              "type": "uint256"
            },
            {
              "internalType": "uint256",
              "name": "startDate",
              "type": "uint256"
            },
            {
              "internalType": "uint256",
              "name": "endDate",
              "type": "uint256"
            },
            {
              "internalType": "address",
              "name": "chairman",
              "type": "address"
            },
            {
              "internalType": "uint256",
              "name": "requiredQuorum",
              "type": "uint256"
            },
            {
              "internalType": "bool",
              "name": "isQuorumReached",
              "type": "bool"
            },
            {
              "internalType": "uint256",
              "name": "possitiveVotes",
              "type": "uint256"
            },
            {
              "internalType": "uint256",
              "name": "negativeVotes",
              "type": "uint256"
            },
            {
              "internalType": "bool",
              "name": "accepted",
              "type": "bool"
            },
            {
              "internalType": "bool",
              "name": "ended",
              "type": "bool"
            }
          ],
          "internalType": "struct Eras.Era",
          "name": "currentEra",
          "type": "tuple"
        }
      ],
      "stateMutability": "view",
      "type": "function"
    },
    {
      "inputs": [],
      "name": "getErasCount",
      "outputs": [
        {
          "internalType": "uint256",
          "name": "",
          "type": "uint256"
        }
      ],
      "stateMutability": "view",
      "type": "function"
    },
    {
      "inputs": [
        {
          "internalType": "uint256",
          "name": "timestamp",
          "type": "uint256"
        }
      ],
      "name": "endEra",
      "outputs": [],
      "stateMutability": "nonpayable",
      "type": "function"
    },
    {
      "inputs": [
        {
          "internalType": "bytes32",
          "name": "eraId_",
          "type": "bytes32"
        },
        {
          "internalType": "address",
          "name": "chairman_",
          "type": "address"
        },
        {
          "internalType": "address[]",
          "name": "coucil_",
          "type": "address[]"
        },
        {
          "internalType": "uint256",
          "name": "utcTimeStamp_",
          "type": "uint256"
        },
        {
          "internalType": "uint256",
          "name": "calculatedSeed_",
          "type": "uint256"
        }
      ],
      "name": "proposeNewEra",
      "outputs": [],
      "stateMutability": "nonpayable",
      "type": "function"
    },
    {
      "inputs": [
        {
          "internalType": "bytes32",
          "name": "eraId",
          "type": "bytes32"
        },
        {
          "internalType": "bool",
          "name": "approves",
          "type": "bool"
        }
      ],
      "name": "voteForProposedEra",
      "outputs": [],
      "stateMutability": "nonpayable",
      "type": "function"
    },
    {
      "inputs": [
        {
          "internalType": "bytes32",
          "name": "eraId_",
          "type": "bytes32"
        }
      ],
      "name": "getEraById",
      "outputs": [
        {
          "components": [
            {
              "internalType": "bytes32",
              "name": "id",
              "type": "bytes32"
            },
            {
              "internalType": "uint256",
              "name": "colectedFeesAmount",
              "type": "uint256"
            },
            {
              "internalType": "uint256",
              "name": "startDate",
              "type": "uint256"
            },
            {
              "internalType": "uint256",
              "name": "endDate",
              "type": "uint256"
            },
            {
              "internalType": "address",
              "name": "chairman",
              "type": "address"
            },
            {
              "internalType": "uint256",
              "name": "requiredQuorum",
              "type": "uint256"
            },
            {
              "internalType": "bool",
              "name": "isQuorumReached",
              "type": "bool"
            },
            {
              "internalType": "uint256",
              "name": "possitiveVotes",
              "type": "uint256"
            },
            {
              "internalType": "uint256",
              "name": "negativeVotes",
              "type": "uint256"
            },
            {
              "internalType": "bool",
              "name": "accepted",
              "type": "bool"
            },
            {
              "internalType": "bool",
              "name": "ended",
              "type": "bool"
            }
          ],
          "internalType": "struct Eras.Era",
          "name": "era",
          "type": "tuple"
        }
      ],
      "stateMutability": "view",
      "type": "function"
    }
  ],
  "bytecode": "0x60c06040523480156200001157600080fd5b5060405162004d0238038062004d028339818101604052810190620000379190620001ce565b838383828281600390805190602001906200005492919062000095565b5080600490805190602001906200006d92919062000095565b505050806080818152505060006005819055505050508060a0818152505050505050620003c1565b828054620000a39062000313565b90600052602060002090601f016020900481019282620000c7576000855562000113565b82601f10620000e257805160ff191683800117855562000113565b8280016001018555821562000113579182015b8281111562000112578251825591602001919060010190620000f5565b5b50905062000122919062000126565b5090565b5b808211156200014157600081600090555060010162000127565b5090565b60006200015c6200015684620002a0565b6200026c565b9050828152602081018484840111156200017557600080fd5b62000182848285620002dd565b509392505050565b600082601f8301126200019c57600080fd5b8151620001ae84826020860162000145565b91505092915050565b600081519050620001c881620003a7565b92915050565b60008060008060808587031215620001e557600080fd5b600085015167ffffffffffffffff8111156200020057600080fd5b6200020e878288016200018a565b945050602085015167ffffffffffffffff8111156200022c57600080fd5b6200023a878288016200018a565b93505060406200024d87828801620001b7565b92505060606200026087828801620001b7565b91505092959194509250565b6000604051905081810181811067ffffffffffffffff8211171562000296576200029562000378565b5b8060405250919050565b600067ffffffffffffffff821115620002be57620002bd62000378565b5b601f19601f8301169050602081019050919050565b6000819050919050565b60005b83811015620002fd578082015181840152602081019050620002e0565b838111156200030d576000848401525b50505050565b600060028204905060018216806200032c57607f821691505b6020821081141562000343576200034262000349565b5b50919050565b7f4e487b7100000000000000000000000000000000000000000000000000000000600052602260045260246000fd5b7f4e487b7100000000000000000000000000000000000000000000000000000000600052604160045260246000fd5b620003b281620002d3565b8114620003be57600080fd5b50565b60805160a05161490d620003f56000396000611a830152600081816107a6015281816125db015261293f015261490d6000f3fe608060405234801561001057600080fd5b506004361061014d5760003560e01c80634da6a556116100c3578063a9059cbb1161007c578063a9059cbb146103ca578063b6992247146103fa578063d250b6cb14610418578063dd62ed3e14610436578063e4ae026f14610466578063e6037852146104825761014d565b80634da6a556146102e2578063533aa7b81461031257806370a082311461033057806395d89b4114610360578063a457c2d71461037e578063a694fc3a146103ae5761014d565b80632bf9262c116101155780632bf9262c1461020c5780632e17de7814610240578063313ce5671461025c578063395093511461027a57806340c86f1a146102aa5780634c5962cc146102c65761014d565b806306fdde0314610152578063095ea7b31461017057806318160ddd146101a057806323b872dd146101be57806327498240146101ee575b600080fd5b61015a6104b2565b6040516101679190613f97565b60405180910390f35b61018a6004803603810190610185919061301f565b610544565b6040516101979190613eeb565b60405180910390f35b6101a8610567565b6040516101b59190614311565b60405180910390f35b6101d860048036038101906101d39190612fd0565b610571565b6040516101e59190613eeb565b60405180910390f35b6101f66105a0565b6040516102039190614311565b60405180910390f35b61022660048036038101906102219190612f6b565b6105aa565b60405161023795949392919061432c565b60405180910390f35b61025a6004803603810190610255919061314f565b610688565b005b610264610835565b604051610271919061437f565b60405180910390f35b610294600480360381019061028f919061301f565b61083e565b6040516102a19190613eeb565b60405180910390f35b6102c460048036038101906102bf9190613113565b6108e8565b005b6102e060048036038101906102db9190613084565b610eb3565b005b6102fc60048036038101906102f79190612f6b565b6111cc565b6040516103099190614311565b60405180910390f35b61031a611285565b6040516103279190614311565b60405180910390f35b61034a60048036038101906103459190612f6b565b61128f565b6040516103579190614311565b60405180910390f35b6103686112d7565b6040516103759190613f97565b60405180910390f35b6103986004803603810190610393919061301f565b611369565b6040516103a59190613eeb565b60405180910390f35b6103c860048036038101906103c3919061314f565b611453565b005b6103e460048036038101906103df919061301f565b611568565b6040516103f19190613eeb565b60405180910390f35b61040261158b565b60405161040f9190613ec9565b60405180910390f35b61042061168d565b60405161042d91906142d9565b60405180910390f35b610450600480360381019061044b9190612f94565b6117f6565b60405161045d9190614311565b60405180910390f35b610480600480360381019061047b919061314f565b61187d565b005b61049c6004803603810190610497919061305b565b611b0d565b6040516104a991906142d9565b60405180910390f35b6060600380546104c190614697565b80601f01602080910402602001604051908101604052809291908181526020018280546104ed90614697565b801561053a5780601f1061050f5761010080835404028352916020019161053a565b820191906000526020600020905b81548152906001019060200180831161051d57829003601f168201915b5050505050905090565b60008061054f611cba565b905061055c818585611cc2565b600191505092915050565b6000600254905090565b60008061057c611cba565b9050610589858285611e8d565b610594858585611f19565b60019150509392505050565b6000600554905090565b6000806000806000806105bc8761219a565b905060008111610601576040517f08c379a00000000000000000000000000000000000000000000000000000000081526004016105f890614179565b60405180910390fd5b60006007828154811061063d577f4e487b7100000000000000000000000000000000000000000000000000000000600052603260045260246000fd5b9060005260206000209060070201905080600101548160020154826003015483600401548460050160009054906101000a900460ff1696509650965096509650505091939590929450565b60003390506000600960008373ffffffffffffffffffffffffffffffffffffffff1673ffffffffffffffffffffffffffffffffffffffff16815260200190815260200160002054905060008114156106e1575050610832565b60006007828154811061071d577f4e487b7100000000000000000000000000000000000000000000000000000000600052603260045260246000fd5b906000526020600020906007020190508381600101541015610774576040517f08c379a000000000000000000000000000000000000000000000000000000000815260040161076b906140b9565b60405180910390fd5b60008482600101600082825461078a9190614566565b92505081905590508082600101819055508082600201819055507f000000000000000000000000000000000000000000000000000000000000000081106107ed5760018260050160006101000a81548160ff021916908315150217905550610823565b60008260050160006101000a81548160ff0219169083151502179055506005600081548092919061081d9061466d565b91905055505b61082d848661228d565b505050505b50565b60006012905090565b600080610849611cba565b90506108dd818585600160008673ffffffffffffffffffffffffffffffffffffffff1673ffffffffffffffffffffffffffffffffffffffff16815260200190815260200160002060008973ffffffffffffffffffffffffffffffffffffffff1673ffffffffffffffffffffffffffffffffffffffff168152602001908152602001600020546108d89190614485565b611cc2565b600191505092915050565b6000600860003373ffffffffffffffffffffffffffffffffffffffff1673ffffffffffffffffffffffffffffffffffffffff1681526020019081526020016000205490506000811415610970576040517f08c379a0000000000000000000000000000000000000000000000000000000008152600401610967906141b9565b60405180910390fd5b6000600b600085815260200190815260200160002054905060008114156109cc576040517f08c379a00000000000000000000000000000000000000000000000000000000081526004016109c3906141d9565b60405180910390fd5b6001600a805490506109de9190614566565b8114610a1f576040517f08c379a0000000000000000000000000000000000000000000000000000000008152600401610a1690614059565b60405180910390fd5b6000600a8281548110610a5b577f4e487b7100000000000000000000000000000000000000000000000000000000600052603260045260246000fd5b90600052602060002090600a020190506000801b81600001541415610ab5576040517f08c379a0000000000000000000000000000000000000000000000000000000008152600401610aac90614019565b60405180910390fd5b600073ffffffffffffffffffffffffffffffffffffffff168160040160009054906101000a900473ffffffffffffffffffffffffffffffffffffffff1673ffffffffffffffffffffffffffffffffffffffff161415610b49576040517f08c379a0000000000000000000000000000000000000000000000000000000008152600401610b4090614079565b60405180910390fd5b600015158160060160009054906101000a900460ff16151514610ba1576040517f08c379a0000000000000000000000000000000000000000000000000000000008152600401610b9890614279565b60405180910390fd5b60003390506000600c600088815260200190815260200160002060008373ffffffffffffffffffffffffffffffffffffffff1673ffffffffffffffffffffffffffffffffffffffff1681526020019081526020016000209050600073ffffffffffffffffffffffffffffffffffffffff168160000160009054906101000a900473ffffffffffffffffffffffffffffffffffffffff1673ffffffffffffffffffffffffffffffffffffffff1614610c8d576040517f08c379a0000000000000000000000000000000000000000000000000000000008152600401610c84906140f9565b60405180910390fd5b600115158615151415610d095760018360070154610cab9190614485565b83600701819055508260050154836007015410610d045760018360060160006101000a81548160ff02191690831515021790555060018360090160006101000a81548160ff021916908315150217905550866010819055505b610d6d565b60018360080154610d1a9190614485565b83600801819055508260050154836008015410610d6c5760018360060160006101000a81548160ff02191690831515021790555060008360090160006101000a81548160ff0219169083151502179055505b5b600115158360060160009054906101000a900460ff1615151415610dc3577ff8fc26765c3e6892820e259afcf2966297e8970183df3a7bdb1be186e80208cd83604051610dba91906142f5565b60405180910390a15b60405180604001604052808373ffffffffffffffffffffffffffffffffffffffff168152602001871515815250600c600089815260200190815260200160002060008473ffffffffffffffffffffffffffffffffffffffff1673ffffffffffffffffffffffffffffffffffffffff16815260200190815260200160002060008201518160000160006101000a81548173ffffffffffffffffffffffffffffffffffffffff021916908373ffffffffffffffffffffffffffffffffffffffff16021790555060208201518160000160146101000a81548160ff02191690831515021790555090505050505050505050565b60003390506000610ec26123ed565b9050600073ffffffffffffffffffffffffffffffffffffffff16816080015173ffffffffffffffffffffffffffffffffffffffff1614610f6f57806080015173ffffffffffffffffffffffffffffffffffffffff168273ffffffffffffffffffffffffffffffffffffffff1614610f6e576040517f08c379a0000000000000000000000000000000000000000000000000000000008152600401610f6590614159565b60405180910390fd5b5b6000600b60008981526020019081526020016000205490506000811415610fcb576040517f08c379a0000000000000000000000000000000000000000000000000000000008152600401610fc290614139565b60405180910390fd5b6000600a805490509050600a6040518061016001604052808b815260200160008152602001888152602001600081526020018a73ffffffffffffffffffffffffffffffffffffffff16815260200161102161259a565b815260200160001515815260200160008152602001600081526020016000151581526020016000151581525090806001815401808255809150506001900390600052602060002090600a02016000909190919091506000820151816000015560208201518160010155604082015181600201556060820151816003015560808201518160040160006101000a81548173ffffffffffffffffffffffffffffffffffffffff021916908373ffffffffffffffffffffffffffffffffffffffff16021790555060a0820151816005015560c08201518160060160006101000a81548160ff02191690831515021790555060e0820151816007015561010082015181600801556101208201518160090160006101000a81548160ff0219169083151502179055506101408201518160090160016101000a81548160ff021916908315150217905550505080600b60008b8152602001908152602001600020819055507f6d4aad47cb7bcb13b25ae71b45f2c76944033a9b2e76c78a342b7863412504e6898989600554896040516111b9959493929190613f06565b60405180910390a1505050505050505050565b600081600073ffffffffffffffffffffffffffffffffffffffff168173ffffffffffffffffffffffffffffffffffffffff16141561120957600080fd5b60006112148461219a565b9050600081141561122957600092505061127f565b600060078281548110611265577f4e487b7100000000000000000000000000000000000000000000000000000000600052603260045260246000fd5b906000526020600020906007020190508060010154935050505b50919050565b6000600654905090565b60008060008373ffffffffffffffffffffffffffffffffffffffff1673ffffffffffffffffffffffffffffffffffffffff168152602001908152602001600020549050919050565b6060600480546112e690614697565b80601f016020809104026020016040519081016040528092919081815260200182805461131290614697565b801561135f5780601f106113345761010080835404028352916020019161135f565b820191906000526020600020905b81548152906001019060200180831161134257829003601f168201915b5050505050905090565b600080611374611cba565b90506000600160008373ffffffffffffffffffffffffffffffffffffffff1673ffffffffffffffffffffffffffffffffffffffff16815260200190815260200160002060008673ffffffffffffffffffffffffffffffffffffffff1673ffffffffffffffffffffffffffffffffffffffff1681526020019081526020016000205490508381101561143a576040517f08c379a000000000000000000000000000000000000000000000000000000000815260040161143190614299565b60405180910390fd5b6114478286868403611cc2565b60019250505092915050565b600033905060003073ffffffffffffffffffffffffffffffffffffffff166370a08231836040518263ffffffff1660e01b81526004016114939190613eae565b60206040518083038186803b1580156114ab57600080fd5b505afa1580156114bf573d6000803e3d6000fd5b505050506040513d601f19601f820116820180604052508101906114e39190613178565b905082811015611528576040517f08c379a000000000000000000000000000000000000000000000000000000000815260040161151f90614119565b60405180910390fd5b60006115338361219a565b9050600081141561154d5761154883856125d7565b611558565b61155781856128a3565b5b61156283856129c2565b50505050565b600080611573611cba565b9050611580818585611f19565b600191505092915050565b60606007805480602002602001604051908101604052809291908181526020016000905b8282101561168457838290600052602060002090600702016040518060e00160405290816000820160009054906101000a900473ffffffffffffffffffffffffffffffffffffffff1673ffffffffffffffffffffffffffffffffffffffff1673ffffffffffffffffffffffffffffffffffffffff168152602001600182015481526020016002820154815260200160038201548152602001600482015481526020016005820160009054906101000a900460ff16151515158152602001600682015481525050815260200190600101906115af565b50505050905090565b611695612df3565b6000600b6000600e548152602001908152602001600020549050600a81815481106116e9577f4e487b7100000000000000000000000000000000000000000000000000000000600052603260045260246000fd5b90600052602060002090600a020160405180610160016040529081600082015481526020016001820154815260200160028201548152602001600382015481526020016004820160009054906101000a900473ffffffffffffffffffffffffffffffffffffffff1673ffffffffffffffffffffffffffffffffffffffff1673ffffffffffffffffffffffffffffffffffffffff168152602001600582015481526020016006820160009054906101000a900460ff1615151515815260200160078201548152602001600882015481526020016009820160009054906101000a900460ff161515151581526020016009820160019054906101000a900460ff16151515158152505091505090565b6000600160008473ffffffffffffffffffffffffffffffffffffffff1673ffffffffffffffffffffffffffffffffffffffff16815260200190815260200160002060008373ffffffffffffffffffffffffffffffffffffffff1673ffffffffffffffffffffffffffffffffffffffff16815260200190815260200160002054905092915050565b60003390506000600b600060105481526020019081526020016000205490506000600a82815481106118d8577f4e487b7100000000000000000000000000000000000000000000000000000000600052603260045260246000fd5b90600052602060002090600a020160405180610160016040529081600082015481526020016001820154815260200160028201548152602001600382015481526020016004820160009054906101000a900473ffffffffffffffffffffffffffffffffffffffff1673ffffffffffffffffffffffffffffffffffffffff1673ffffffffffffffffffffffffffffffffffffffff168152602001600582015481526020016006820160009054906101000a900460ff1615151515815260200160078201548152602001600882015481526020016009820160009054906101000a900460ff161515151581526020016009820160019054906101000a900460ff1615151515815250509050806080015173ffffffffffffffffffffffffffffffffffffffff168373ffffffffffffffffffffffffffffffffffffffff1614611a53576040517f08c379a0000000000000000000000000000000000000000000000000000000008152600401611a4a90614199565b60405180910390fd5b6000801b600f54148015611a6b57506000801b600e54145b15611a7e57601054600f81905550611ac1565b611ab77f00000000000000000000000000000000000000000000000000000000000000008260200151611ab19190614485565b84612b99565b600e54600f819055505b601054600e819055507f722e3d4179a09427e9445cc06f5ccd49fe7a5cb5f568f00324d780aca56e341c600e548486604051611aff93929190613f60565b60405180910390a150505050565b611b15612df3565b6000600b60008481526020019081526020016000205490506000811415611b71576040517f08c379a0000000000000000000000000000000000000000000000000000000008152600401611b6890614019565b60405180910390fd5b600a8181548110611bab577f4e487b7100000000000000000000000000000000000000000000000000000000600052603260045260246000fd5b90600052602060002090600a020160405180610160016040529081600082015481526020016001820154815260200160028201548152602001600382015481526020016004820160009054906101000a900473ffffffffffffffffffffffffffffffffffffffff1673ffffffffffffffffffffffffffffffffffffffff1673ffffffffffffffffffffffffffffffffffffffff168152602001600582015481526020016006820160009054906101000a900460ff1615151515815260200160078201548152602001600882015481526020016009820160009054906101000a900460ff161515151581526020016009820160019054906101000a900460ff161515151581525050915050919050565b600033905090565b600073ffffffffffffffffffffffffffffffffffffffff168373ffffffffffffffffffffffffffffffffffffffff161415611d32576040517f08c379a0000000000000000000000000000000000000000000000000000000008152600401611d2990614259565b60405180910390fd5b600073ffffffffffffffffffffffffffffffffffffffff168273ffffffffffffffffffffffffffffffffffffffff161415611da2576040517f08c379a0000000000000000000000000000000000000000000000000000000008152600401611d9990614039565b60405180910390fd5b80600160008573ffffffffffffffffffffffffffffffffffffffff1673ffffffffffffffffffffffffffffffffffffffff16815260200190815260200160002060008473ffffffffffffffffffffffffffffffffffffffff1673ffffffffffffffffffffffffffffffffffffffff168152602001908152602001600020819055508173ffffffffffffffffffffffffffffffffffffffff168373ffffffffffffffffffffffffffffffffffffffff167f8c5be1e5ebec7d5bd14f71427d1e84f3dd0314c0f7b2291e5b200ac8c7c3b92583604051611e809190614311565b60405180910390a3505050565b6000611e9984846117f6565b90507fffffffffffffffffffffffffffffffffffffffffffffffffffffffffffffffff8114611f135781811015611f05576040517f08c379a0000000000000000000000000000000000000000000000000000000008152600401611efc90614099565b60405180910390fd5b611f128484848403611cc2565b5b50505050565b600073ffffffffffffffffffffffffffffffffffffffff168373ffffffffffffffffffffffffffffffffffffffff161415611f89576040517f08c379a0000000000000000000000000000000000000000000000000000000008152600401611f8090614239565b60405180910390fd5b600073ffffffffffffffffffffffffffffffffffffffff168273ffffffffffffffffffffffffffffffffffffffff161415611ff9576040517f08c379a0000000000000000000000000000000000000000000000000000000008152600401611ff090613fb9565b60405180910390fd5b612004838383612d01565b60008060008573ffffffffffffffffffffffffffffffffffffffff1673ffffffffffffffffffffffffffffffffffffffff1681526020019081526020016000205490508181101561208a576040517f08c379a0000000000000000000000000000000000000000000000000000000008152600401612081906140d9565b60405180910390fd5b8181036000808673ffffffffffffffffffffffffffffffffffffffff1673ffffffffffffffffffffffffffffffffffffffff16815260200190815260200160002081905550816000808573ffffffffffffffffffffffffffffffffffffffff1673ffffffffffffffffffffffffffffffffffffffff168152602001908152602001600020600082825461211d9190614485565b925050819055508273ffffffffffffffffffffffffffffffffffffffff168473ffffffffffffffffffffffffffffffffffffffff167fddf252ad1be2c89b69c2b068fc378daa952ba7f163c4a11628f55a4df523b3ef846040516121819190614311565b60405180910390a3612194848484612d06565b50505050565b600081600073ffffffffffffffffffffffffffffffffffffffff168173ffffffffffffffffffffffffffffffffffffffff1614156121d757600080fd5b6000600960008573ffffffffffffffffffffffffffffffffffffffff1673ffffffffffffffffffffffffffffffffffffffff168152602001908152602001600020549050600081141561222e576000925050612287565b60016007805490506122409190614566565b811115612282576040517f08c379a0000000000000000000000000000000000000000000000000000000008152600401612279906141f9565b60405180910390fd5b809250505b50919050565b600073ffffffffffffffffffffffffffffffffffffffff168273ffffffffffffffffffffffffffffffffffffffff1614156122fd576040517f08c379a00000000000000000000000000000000000000000000000000000000081526004016122f4906142b9565b60405180910390fd5b61230960008383612d01565b806002600082825461231b9190614485565b92505081905550806000808473ffffffffffffffffffffffffffffffffffffffff1673ffffffffffffffffffffffffffffffffffffffff16815260200190815260200160002060008282546123709190614485565b925050819055508173ffffffffffffffffffffffffffffffffffffffff16600073ffffffffffffffffffffffffffffffffffffffff167fddf252ad1be2c89b69c2b068fc378daa952ba7f163c4a11628f55a4df523b3ef836040516123d59190614311565b60405180910390a36123e960008383612d06565b5050565b6123f5612df3565b6000600b6000600e5481526020019081526020016000205490506000811415612453576040517f08c379a000000000000000000000000000000000000000000000000000000000815260040161244a90614019565b60405180910390fd5b600a818154811061248d577f4e487b7100000000000000000000000000000000000000000000000000000000600052603260045260246000fd5b90600052602060002090600a020160405180610160016040529081600082015481526020016001820154815260200160028201548152602001600382015481526020016004820160009054906101000a900473ffffffffffffffffffffffffffffffffffffffff1673ffffffffffffffffffffffffffffffffffffffff1673ffffffffffffffffffffffffffffffffffffffff168152602001600582015481526020016006820160009054906101000a900460ff1615151515815260200160078201548152602001600882015481526020016009820160009054906101000a900460ff161515151581526020016009820160019054906101000a900460ff16151515158152505091505090565b6000600160055414156125b057600190506125d4565b6000606460336005546125c3919061450c565b6125cd91906144db565b9050809150505b90565b60007f0000000000000000000000000000000000000000000000000000000000000000821015905060006007805490509050600081141561273957808061261d9061474b565b91505060076040518060e00160405280600073ffffffffffffffffffffffffffffffffffffffff168152602001600081526020016000815260200160008152602001600081526020016000151581526020016000815250908060018154018082558091505060019003906000526020600020906007020160009091909190915060008201518160000160006101000a81548173ffffffffffffffffffffffffffffffffffffffff021916908373ffffffffffffffffffffffffffffffffffffffff1602179055506020820151816001015560408201518160020155606082015181600301556080820151816004015560a08201518160050160006101000a81548160ff02191690831515021790555060c0820151816006015550505b60076040518060e001604052808673ffffffffffffffffffffffffffffffffffffffff168152602001858152602001858152602001600081526020016000815260200184151581526020016000815250908060018154018082558091505060019003906000526020600020906007020160009091909190915060008201518160000160006101000a81548173ffffffffffffffffffffffffffffffffffffffff021916908373ffffffffffffffffffffffffffffffffffffffff1602179055506020820151816001015560408201518160020155606082015181600301556080820151816004015560a08201518160050160006101000a81548160ff02191690831515021790555060c08201518160060155505080600960008673ffffffffffffffffffffffffffffffffffffffff1673ffffffffffffffffffffffffffffffffffffffff1681526020019081526020016000208190555061289c828583612d0b565b5050505050565b6000600783815481106128df577f4e487b7100000000000000000000000000000000000000000000000000000000600052603260045260246000fd5b90600052602060002090600702019050818160010160008282546129039190614485565b925050819055508181600201600082825461291e9190614485565b925050819055508060050160009054906101000a900460ff166129bd5760007f000000000000000000000000000000000000000000000000000000000000000082600101541015905080156129bb5760018260050160006101000a81548160ff0219169083151502179055506129b9818360000160009054906101000a900473ffffffffffffffffffffffffffffffffffffffff1686612d0b565b505b505b505050565b600073ffffffffffffffffffffffffffffffffffffffff168273ffffffffffffffffffffffffffffffffffffffff161415612a32576040517f08c379a0000000000000000000000000000000000000000000000000000000008152600401612a2990614219565b60405180910390fd5b612a3e82600083612d01565b60008060008473ffffffffffffffffffffffffffffffffffffffff1673ffffffffffffffffffffffffffffffffffffffff16815260200190815260200160002054905081811015612ac4576040517f08c379a0000000000000000000000000000000000000000000000000000000008152600401612abb90613fd9565b60405180910390fd5b8181036000808573ffffffffffffffffffffffffffffffffffffffff1673ffffffffffffffffffffffffffffffffffffffff168152602001908152602001600020819055508160026000828254612b1b9190614566565b92505081905550600073ffffffffffffffffffffffffffffffffffffffff168373ffffffffffffffffffffffffffffffffffffffff167fddf252ad1be2c89b69c2b068fc378daa952ba7f163c4a11628f55a4df523b3ef84604051612b809190614311565b60405180910390a3612b9483600084612d06565b505050565b6000600283612ba891906144db565b90506000600960008473ffffffffffffffffffffffffffffffffffffffff1673ffffffffffffffffffffffffffffffffffffffff168152602001908152602001600020549050600060078281548110612c2a577f4e487b7100000000000000000000000000000000000000000000000000000000600052603260045260246000fd5b90600052602060002090600702019050600073ffffffffffffffffffffffffffffffffffffffff168160000160009054906101000a900473ffffffffffffffffffffffffffffffffffffffff1673ffffffffffffffffffffffffffffffffffffffff161415612cce576040517f08c379a0000000000000000000000000000000000000000000000000000000008152600401612cc590613ff9565b60405180910390fd5b82816006016000828254612ce29190614485565b9250508190555060008386612cf79190614566565b9050505050505050565b505050565b505050565b600083612d1b5760009050612dec565b6000600860008573ffffffffffffffffffffffffffffffffffffffff1673ffffffffffffffffffffffffffffffffffffffff1681526020019081526020016000205490506000811415612dce5782600860008673ffffffffffffffffffffffffffffffffffffffff1673ffffffffffffffffffffffffffffffffffffffff1681526020019081526020016000208190555060056000815480929190612dbf9061474b565b91905055506001915050612dec565b60056000815480929190612de19061474b565b919050555060019150505b9392505050565b60405180610160016040528060008019168152602001600081526020016000815260200160008152602001600073ffffffffffffffffffffffffffffffffffffffff1681526020016000815260200160001515815260200160008152602001600081526020016000151581526020016000151581525090565b6000612e7f612e7a846143cb565b61439a565b90508083825260208201905082856020860282011115612e9e57600080fd5b60005b85811015612ece5781612eb48882612ed8565b845260208401935060208301925050600181019050612ea1565b5050509392505050565b600081359050612ee78161487b565b92915050565b600082601f830112612efe57600080fd5b8135612f0e848260208601612e6c565b91505092915050565b600081359050612f2681614892565b92915050565b600081359050612f3b816148a9565b92915050565b600081359050612f50816148c0565b92915050565b600081519050612f65816148c0565b92915050565b600060208284031215612f7d57600080fd5b6000612f8b84828501612ed8565b91505092915050565b60008060408385031215612fa757600080fd5b6000612fb585828601612ed8565b9250506020612fc685828601612ed8565b9150509250929050565b600080600060608486031215612fe557600080fd5b6000612ff386828701612ed8565b935050602061300486828701612ed8565b925050604061301586828701612f41565b9150509250925092565b6000806040838503121561303257600080fd5b600061304085828601612ed8565b925050602061305185828601612f41565b9150509250929050565b60006020828403121561306d57600080fd5b600061307b84828501612f2c565b91505092915050565b600080600080600060a0868803121561309c57600080fd5b60006130aa88828901612f2c565b95505060206130bb88828901612ed8565b945050604086013567ffffffffffffffff8111156130d857600080fd5b6130e488828901612eed565b93505060606130f588828901612f41565b925050608061310688828901612f41565b9150509295509295909350565b6000806040838503121561312657600080fd5b600061313485828601612f2c565b925050602061314585828601612f17565b9150509250929050565b60006020828403121561316157600080fd5b600061316f84828501612f41565b91505092915050565b60006020828403121561318a57600080fd5b600061319884828501612f56565b91505092915050565b60006131ad83836131d1565b60208301905092915050565b60006131c58383613df3565b60e08301905092915050565b6131da816145db565b82525050565b6131e9816145db565b82525050565b60006131fa82614417565b6132048185614452565b935061320f836143f7565b8060005b8381101561324057815161322788826131a1565b975061323283614438565b925050600181019050613213565b5085935050505092915050565b600061325882614422565b6132628185614463565b935061326d83614407565b8060005b8381101561329e57815161328588826131b9565b975061329083614445565b925050600181019050613271565b5085935050505092915050565b6132b4816145ed565b82525050565b6132c3816145ed565b82525050565b6132d2816145f9565b82525050565b6132e1816145f9565b82525050565b60006132f28261442d565b6132fc8185614474565b935061330c81856020860161463a565b61331581614850565b840191505092915050565b600061332d602383614474565b91507f45524332303a207472616e7366657220746f20746865207a65726f206164647260008301527f65737300000000000000000000000000000000000000000000000000000000006020830152604082019050919050565b6000613393602283614474565b91507f45524332303a206275726e20616d6f756e7420657863656564732062616c616e60008301527f63650000000000000000000000000000000000000000000000000000000000006020830152604082019050919050565b60006133f9601f83614474565b91507f43686169726d616e206164647265737320646f6573206e6f74206578697374006000830152602082019050919050565b6000613439600e83614474565b91507f496e76616c6964204572612049640000000000000000000000000000000000006000830152602082019050919050565b6000613479602283614474565b91507f45524332303a20617070726f766520746f20746865207a65726f20616464726560008301527f73730000000000000000000000000000000000000000000000000000000000006020830152604082019050919050565b60006134df601983614474565b91507f4572614964206973206e6f7420746865206c61737420657261000000000000006000830152602082019050919050565b600061351f602183614474565b91507f45726120776974682070617373656420496420646f6573206e6f74206578697360008301527f74000000000000000000000000000000000000000000000000000000000000006020830152604082019050919050565b6000613585601d83614474565b91507f45524332303a20696e73756666696369656e7420616c6c6f77616e63650000006000830152602082019050919050565b60006135c5602283614474565b91507f496e73756666696369656e742062616c616e636520666f7220756e7374616b6960008301527f6e670000000000000000000000000000000000000000000000000000000000006020830152604082019050919050565b600061362b602683614474565b91507f45524332303a207472616e7366657220616d6f756e742065786365656473206260008301527f616c616e636500000000000000000000000000000000000000000000000000006020830152604082019050919050565b6000613691601783614474565b91507f56616c696461746f7220616c726561647920766f7465640000000000000000006000830152602082019050919050565b60006136d1602083614474565b91507f496e73756666696369656e742062616c616e636520666f72207374616b696e676000830152602082019050919050565b6000613711602583614474565b91507f4572612077697468207468652073616d6520494420616c72656164792070726f60008301527f706f7365640000000000000000000000000000000000000000000000000000006020830152604082019050919050565b6000613777602f83614474565b91507f43616c6c6572206e6f742070726576696f7573206572612063686169726d616e60008301527f2e204163636573732064656e69656400000000000000000000000000000000006020830152604082019050919050565b60006137dd602583614474565b91507f41646472657373206e6f74206c696e6b656420746f20616e79207374616b656860008301527f6f6c6465720000000000000000000000000000000000000000000000000000006020830152604082019050919050565b6000613843602183614474565b91507f4f6e6c792063686169726d616e2063616e20656e642063757272656e7420657260008301527f61000000000000000000000000000000000000000000000000000000000000006020830152604082019050919050565b60006138a9602383614474565b91507f566f74696e6720666f7262696464656e20666f72206e6f6e2d76616c6964617460008301527f6f727300000000000000000000000000000000000000000000000000000000006020830152604082019050919050565b600061390f600e83614474565b91507f496e76616c6964206572612069640000000000000000000000000000000000006000830152602082019050919050565b600061394f602983614474565b91507f496e76616c696420696e64657820666f72207374616b65686f6c64657273206360008301527f6f6c6c656374696f6e00000000000000000000000000000000000000000000006020830152604082019050919050565b60006139b5602183614474565b91507f45524332303a206275726e2066726f6d20746865207a65726f2061646472657360008301527f73000000000000000000000000000000000000000000000000000000000000006020830152604082019050919050565b6000613a1b602583614474565b91507f45524332303a207472616e736665722066726f6d20746865207a65726f20616460008301527f64726573730000000000000000000000000000000000000000000000000000006020830152604082019050919050565b6000613a81602483614474565b91507f45524332303a20617070726f76652066726f6d20746865207a65726f2061646460008301527f72657373000000000000000000000000000000000000000000000000000000006020830152604082019050919050565b6000613ae7601f83614474565b91507f566f746520616c726561647920656e64656420666f72207468617420657261006000830152602082019050919050565b6000613b27602583614474565b91507f45524332303a2064656372656173656420616c6c6f77616e63652062656c6f7760008301527f207a65726f0000000000000000000000000000000000000000000000000000006020830152604082019050919050565b6000613b8d601f83614474565b91507f45524332303a206d696e7420746f20746865207a65726f2061646472657373006000830152602082019050919050565b61016082016000820151613bd760008501826132c9565b506020820151613bea6020850182613e81565b506040820151613bfd6040850182613e81565b506060820151613c106060850182613e81565b506080820151613c2360808501826131d1565b5060a0820151613c3660a0850182613e81565b5060c0820151613c4960c08501826132ab565b5060e0820151613c5c60e0850182613e81565b50610100820151613c71610100850182613e81565b50610120820151613c866101208501826132ab565b50610140820151613c9b6101408501826132ab565b50505050565b61016082016000808301549050613cb7816146fd565b613cc460008601826132c9565b5060018301549050613cd581614717565b613ce26020860182613e81565b5060028301549050613cf381614717565b613d006040860182613e81565b5060038301549050613d1181614717565b613d1e6060860182613e81565b5060048301549050613d2f816146c9565b613d3c60808601826131d1565b5060058301549050613d4d81614717565b613d5a60a0860182613e81565b5060068301549050613d6b816146e3565b613d7860c08601826132ab565b5060078301549050613d8981614717565b613d9660e0860182613e81565b5060088301549050613da781614717565b613db5610100860182613e81565b5060098301549050613dc6816146e3565b613dd46101208601826132ab565b50613dde81614731565b613dec6101408601826132ab565b5050505050565b60e082016000820151613e0960008501826131d1565b506020820151613e1c6020850182613e81565b506040820151613e2f6040850182613e81565b506060820151613e426060850182613e81565b506080820151613e556080850182613e81565b5060a0820151613e6860a08501826132ab565b5060c0820151613e7b60c0850182613e81565b50505050565b613e8a81614623565b82525050565b613e9981614623565b82525050565b613ea88161462d565b82525050565b6000602082019050613ec360008301846131e0565b92915050565b60006020820190508181036000830152613ee3818461324d565b905092915050565b6000602082019050613f0060008301846132ba565b92915050565b600060a082019050613f1b60008301886132d8565b613f2860208301876131e0565b8181036040830152613f3a81866131ef565b9050613f496060830185613e90565b613f566080830184613e90565b9695505050505050565b6000606082019050613f7560008301866132d8565b613f8260208301856131e0565b613f8f6040830184613e90565b949350505050565b60006020820190508181036000830152613fb181846132e7565b905092915050565b60006020820190508181036000830152613fd281613320565b9050919050565b60006020820190508181036000830152613ff281613386565b9050919050565b60006020820190508181036000830152614012816133ec565b9050919050565b600060208201905081810360008301526140328161342c565b9050919050565b600060208201905081810360008301526140528161346c565b9050919050565b60006020820190508181036000830152614072816134d2565b9050919050565b6000602082019050818103600083015261409281613512565b9050919050565b600060208201905081810360008301526140b281613578565b9050919050565b600060208201905081810360008301526140d2816135b8565b9050919050565b600060208201905081810360008301526140f28161361e565b9050919050565b6000602082019050818103600083015261411281613684565b9050919050565b60006020820190508181036000830152614132816136c4565b9050919050565b6000602082019050818103600083015261415281613704565b9050919050565b600060208201905081810360008301526141728161376a565b9050919050565b60006020820190508181036000830152614192816137d0565b9050919050565b600060208201905081810360008301526141b281613836565b9050919050565b600060208201905081810360008301526141d28161389c565b9050919050565b600060208201905081810360008301526141f281613902565b9050919050565b6000602082019050818103600083015261421281613942565b9050919050565b60006020820190508181036000830152614232816139a8565b9050919050565b6000602082019050818103600083015261425281613a0e565b9050919050565b6000602082019050818103600083015261427281613a74565b9050919050565b6000602082019050818103600083015261429281613ada565b9050919050565b600060208201905081810360008301526142b281613b1a565b9050919050565b600060208201905081810360008301526142d281613b80565b9050919050565b6000610160820190506142ef6000830184613bc0565b92915050565b60006101608201905061430b6000830184613ca1565b92915050565b60006020820190506143266000830184613e90565b92915050565b600060a0820190506143416000830188613e90565b61434e6020830187613e90565b61435b6040830186613e90565b6143686060830185613e90565b61437560808301846132ba565b9695505050505050565b60006020820190506143946000830184613e9f565b92915050565b6000604051905081810181811067ffffffffffffffff821117156143c1576143c0614821565b5b8060405250919050565b600067ffffffffffffffff8211156143e6576143e5614821565b5b602082029050602081019050919050565b6000819050602082019050919050565b6000819050602082019050919050565b600081519050919050565b600081519050919050565b600081519050919050565b6000602082019050919050565b6000602082019050919050565b600082825260208201905092915050565b600082825260208201905092915050565b600082825260208201905092915050565b600061449082614623565b915061449b83614623565b9250827fffffffffffffffffffffffffffffffffffffffffffffffffffffffffffffffff038211156144d0576144cf614794565b5b828201905092915050565b60006144e682614623565b91506144f183614623565b925082614501576145006147c3565b5b828204905092915050565b600061451782614623565b915061452283614623565b9250817fffffffffffffffffffffffffffffffffffffffffffffffffffffffffffffffff048311821515161561455b5761455a614794565b5b828202905092915050565b600061457182614623565b915061457c83614623565b92508282101561458f5761458e614794565b5b828203905092915050565b600073ffffffffffffffffffffffffffffffffffffffff82169050919050565b600060ff82169050919050565b6000819050919050565b6000819050919050565b60006145e682614603565b9050919050565b60008115159050919050565b6000819050919050565b600073ffffffffffffffffffffffffffffffffffffffff82169050919050565b6000819050919050565b600060ff82169050919050565b60005b8381101561465857808201518184015260208101905061463d565b83811115614667576000848401525b50505050565b600061467882614623565b9150600082141561468c5761468b614794565b5b600182039050919050565b600060028204905060018216806146af57607f821691505b602082108114156146c3576146c26147f2565b5b50919050565b60006146dc6146d783614861565b61459a565b9050919050565b60006146f66146f183614861565b6145ba565b9050919050565b600061471061470b83614861565b6145c7565b9050919050565b600061472a61472583614861565b6145d1565b9050919050565b600061474461473f8361486e565b6145ba565b9050919050565b600061475682614623565b91507fffffffffffffffffffffffffffffffffffffffffffffffffffffffffffffffff82141561478957614788614794565b5b600182019050919050565b7f4e487b7100000000000000000000000000000000000000000000000000000000600052601160045260246000fd5b7f4e487b7100000000000000000000000000000000000000000000000000000000600052601260045260246000fd5b7f4e487b7100000000000000000000000000000000000000000000000000000000600052602260045260246000fd5b7f4e487b7100000000000000000000000000000000000000000000000000000000600052604160045260246000fd5b6000601f19601f8301169050919050565b60008160001c9050919050565b60008160081c9050919050565b614884816145db565b811461488f57600080fd5b50565b61489b816145ed565b81146148a657600080fd5b50565b6148b2816145f9565b81146148bd57600080fd5b50565b6148c981614623565b81146148d457600080fd5b5056fea264697066735822122010cdd79928287e649802189867fd947b4c7c260f6d6236d2ad45b0c42474b04664736f6c63430008000033",
  "immutableReferences": {
    "1892": [
      {
        "length": 32,
        "start": 6787
      }
    ],
    "2513": [
      {
        "length": 32,
        "start": 1958
      },
      {
        "length": 32,
        "start": 9691
      },
      {
        "length": 32,
        "start": 10559
      }
    ]
  },
  "source": "pragma solidity ^0.8.0;\r\n\r\nimport \"./ERC20Stakable.sol\";\r\nimport \"../utils/NominatingStakeholders.sol\";\r\nimport \"../utils/Eras.sol\";\r\nimport \"../Interfaces/IProofOfStake.sol\";\r\nimport \"../Interfaces/IErasMonitor.sol\";\r\nimport \"../utils/ErasVotes.sol\";\r\n\r\ncontract ERC20ProofOfStake is IErasMonitor, IProofOfStake, ERC20Stakable {\r\n    uint256 private constant MAX_COUICIL_MEMBERS_COUNT = 10;\r\n    uint256\r\n        private constant MINIMUM_QUORUM_REQUURED_FOR_VALIDATION_IN_PERCENTS =\r\n        51;\r\n    uint256 immutable _rewardForValidatorsAfterEachEra;\r\n    Eras.Era[] internal _eras;\r\n    mapping(bytes32 => uint256) internal _erasIndexes;\r\n    mapping(bytes32 => mapping(address => ErasVotes.ErasVote))\r\n        internal _eraValidatorVotes;\r\n    mapping(bytes32 => address[]) internal _erasCouncil;\r\n    bytes32 internal _activeEraId;\r\n    bytes32 internal _previousEraId;\r\n    bytes32 internal _lastApprovedEra;\r\n\r\n    constructor(\r\n        string memory name_,\r\n        string memory symbol_,\r\n        uint256 minStakedAmountForValidation_,\r\n        uint256 rewardForValidatorsAfterEachEra_\r\n    ) ERC20Stakable(name_, symbol_, minStakedAmountForValidation_) {\r\n        _rewardForValidatorsAfterEachEra = rewardForValidatorsAfterEachEra_;\r\n    }\r\n\r\n    event NewEraElecationProposal(\r\n        bytes32 eraId,\r\n        address chairman,\r\n        address[] council,\r\n        uint256 validatorsCount,\r\n        uint256 calculatedSeed\r\n    );\r\n\r\n    event NewEraElectionComplited(Eras.Era era);\r\n\r\n    event EndEraByNewElectedChairman(\r\n        bytes32 eraId,\r\n        address chairman,\r\n        uint256 timestap\r\n    );\r\n\r\n    modifier onlyValidatorAction() {\r\n        uint256 validatorNodeIndex = _validatorsStakeholderIndexes[msg.sender];\r\n        require(validatorNodeIndex != 0, \"Voting forbidden for non-validators\");\r\n        _;\r\n    }\r\n\r\n    //** for INTERFACE !!! */\r\n    function getValidatorsCount() external view override returns (uint256) {\r\n        return _validatorsCount;\r\n    }\r\n\r\n    function getCurrentEra()\r\n        external\r\n        view\r\n        override\r\n        returns (Eras.Era memory currentEra)\r\n    {\r\n        uint256 lastEraId = _erasIndexes[_activeEraId];\r\n        return _eras[lastEraId];\r\n    }\r\n\r\n    function getErasCount() external view override returns (uint256) {\r\n        return _erasCount;\r\n    }\r\n\r\n    function endEra(uint256 timestamp) external override {\r\n        address caller = msg.sender;\r\n        uint256 eraIdex = _erasIndexes[_lastApprovedEra];\r\n        Eras.Era memory lastEra = _eras[eraIdex];\r\n\r\n        //TODO: validation for time elapsed\r\n        require(\r\n            caller == lastEra.chairman,\r\n            \"Only chairman can end current era\"\r\n        );\r\n        if (_previousEraId == 0 && _activeEraId == 0) {\r\n            //corner case . The only time when this will be executed\r\n            //is on the very firs era\r\n            //no fees for distribution\r\n            //and auto set previous era as current era\r\n            _previousEraId = _lastApprovedEra;\r\n        } else {\r\n            _payReward(\r\n                lastEra.colectedFeesAmount + _rewardForValidatorsAfterEachEra,\r\n                caller\r\n            );\r\n            _previousEraId = _activeEraId;\r\n        }\r\n        _activeEraId = _lastApprovedEra;\r\n\r\n        emit EndEraByNewElectedChairman(_activeEraId, caller, timestamp);\r\n        //more complex stuff - add validation for timestamp by nodes, with another vote and\r\n        //if proposed timestamp is wrong, and consensus is reached - punish the node\r\n        //that execute this code. For now this will not be implemented\r\n    }\r\n\r\n    function proposeNewEra(\r\n        bytes32 eraId_,\r\n        address chairman_,\r\n        address[] memory coucil_,\r\n        uint256 utcTimeStamp_,\r\n        uint256 calculatedSeed_\r\n    ) external override {\r\n        address caller = msg.sender;\r\n        Eras.Era memory currentEra = _getCurrentEraInternal();\r\n        if (currentEra.chairman != address(0)) {\r\n            //this is not the first era. Only previous chairman can propose new election\r\n            require(\r\n                caller == currentEra.chairman,\r\n                \"Caller not previous era chairman. Access denied\"\r\n            );\r\n        }\r\n        //check if era with the same eraId already exist!\r\n        uint256 eraId = _erasIndexes[eraId_];\r\n        require(\r\n            //eraId is unique. If era with that Id is found, then the proposal is not valid\r\n            eraId != 0,\r\n            \"Era with the same ID already proposed\"\r\n        );\r\n        //TODO: after testing new proposed era should come with one possitive vote\r\n\r\n        uint256 newEraIndex = _eras.length;\r\n        _eras.push(\r\n            Eras.Era({\r\n                id: eraId_,\r\n                colectedFeesAmount: 0,\r\n                startDate: utcTimeStamp_,\r\n                endDate: 0,\r\n                chairman: chairman_,\r\n                requiredQuorum: _calculateMinimumNodesCountForReachingQuorum(), //51% of all validators\r\n                isQuorumReached: false,\r\n                possitiveVotes: 0,\r\n                negativeVotes: 0,\r\n                accepted: false,\r\n                ended: false\r\n            })\r\n        );\r\n        _erasIndexes[eraId_] = newEraIndex;\r\n\r\n        emit NewEraElecationProposal(\r\n            eraId_,\r\n            chairman_,\r\n            coucil_,\r\n            _validatorsCount,\r\n            calculatedSeed_\r\n        );\r\n    }\r\n\r\n    function voteForProposedEra(bytes32 eraId, bool approves)\r\n        external\r\n        override\r\n        onlyValidatorAction\r\n    {\r\n        uint256 eraIndex = _erasIndexes[eraId];\r\n        require(eraIndex != 0, \"Invalid era id\");\r\n        require(eraIndex == _eras.length - 1, \"EraId is not the last era\");\r\n\r\n        Eras.Era storage era = _eras[eraIndex];\r\n\r\n        require(era.id != 0, \"Invalid Era Id\");\r\n        require(\r\n            era.chairman != address(0),\r\n            \"Era with passed Id does not exist\"\r\n        );\r\n\r\n        require(\r\n            era.isQuorumReached == false,\r\n            \"Vote already ended for that era\"\r\n        );\r\n\r\n        address caller = msg.sender;\r\n\r\n        ErasVotes.ErasVote storage eraVote = _eraValidatorVotes[eraId][caller];\r\n\r\n        require(eraVote.voter == address(0), \"Validator already voted\");\r\n\r\n        //check required quorum is reached\r\n        if (approves == true) {\r\n            era.possitiveVotes = era.possitiveVotes + 1;\r\n            if (era.possitiveVotes >= era.requiredQuorum) {\r\n                //era election is approved!\r\n                era.isQuorumReached = true;\r\n                era.accepted = true;\r\n                _lastApprovedEra = eraId;\r\n            }\r\n        } else {\r\n            era.negativeVotes = era.negativeVotes + 1;\r\n            if (era.negativeVotes >= era.requiredQuorum) {\r\n                //era election is denied!\r\n                era.isQuorumReached = true;\r\n                era.accepted = false;\r\n                //TODO: initialized a revote and new proposal!\r\n                //TODO: punish the era proposal node (slash)\r\n            }\r\n        }\r\n\r\n        if (era.isQuorumReached == true) {\r\n            emit NewEraElectionComplited(era);\r\n        }\r\n\r\n        //register vote\r\n        _eraValidatorVotes[eraId][caller] = ErasVotes.ErasVote({\r\n            voter: caller,\r\n            approve: approves\r\n        });\r\n    }\r\n\r\n    function getEraById(bytes32 eraId_)\r\n        external\r\n        view\r\n        override\r\n        returns (Eras.Era memory era)\r\n    {\r\n        uint256 eraIndex = _erasIndexes[eraId_];\r\n        require(eraIndex != 0, \"Invalid Era Id\");\r\n        return _eras[eraIndex];\r\n    }\r\n\r\n    function _getCurrentEraInternal()\r\n        internal\r\n        view\r\n        returns (Eras.Era memory era)\r\n    {\r\n        uint256 eraIndex = _erasIndexes[_activeEraId];\r\n        require(eraIndex != 0, \"Invalid Era Id\");\r\n        return _eras[eraIndex];\r\n    }\r\n\r\n    function _payReward(uint256 tokenAmountForDistribution_, address chainman_)\r\n        internal\r\n        virtual\r\n    {\r\n        //simple scheme withoud nominators\r\n        //this reward scheme can be ovveriden for much complex one\r\n        //for simple reward distribution\r\n        //chainrman gets 50% of all fees\r\n        uint256 chairmainsReward = tokenAmountForDistribution_ / 2;\r\n        uint256 stakeholderIndex = _stakeholdersIndexes[chainman_];\r\n        Stakeholders.Stakeholder storage chairman = _stakeholders[\r\n            stakeholderIndex\r\n        ];\r\n\r\n        require(chairman.user != address(0), \"Chairman address does not exist\");\r\n\r\n        chairman.notCollectedTokenRewards += chairmainsReward;\r\n\r\n        uint256 remainingAmountForDistribution = tokenAmountForDistribution_ -\r\n            chairmainsReward;\r\n\r\n        //TODO: calculate remaining rewards for the rest of the voting council for this era\r\n    }\r\n\r\n    function _calculateMinimumNodesCountForReachingQuorum()\r\n        private\r\n        view\r\n        returns (uint256)\r\n    {\r\n        //TODO get from PoSS\r\n        if (_validatorsCount == 1) {\r\n            return 1;\r\n        }\r\n\r\n        uint256 nodesRequiredForQuorum = (_validatorsCount *\r\n            MINIMUM_QUORUM_REQUURED_FOR_VALIDATION_IN_PERCENTS) / 100;\r\n\r\n        return nodesRequiredForQuorum;\r\n    }\r\n}\r\n",
  "sourcePath": "D:\\Documents\\Dev\\Repositories\\gold-price-oracle\\gold-price-oracle\\on-chain\\contracts\\token\\base\\ERC20ProofOfStake.sol",
  "compiler": {
    "name": "solc",
    "version": "0.8.0+commit.c7dfd78e.Emscripten.clang"
  },
  "schemaVersion": "3.4.3",
  "updatedAt": "2022-03-16T10:10:24.182Z",
  "devdoc": {
    "kind": "dev",
    "methods": {
      "allowance(address,address)": {
        "details": "See {IERC20-allowance}."
      },
      "approve(address,uint256)": {
        "details": "See {IERC20-approve}. NOTE: If `amount` is the maximum `uint256`, the allowance is not updated on `transferFrom`. This is semantically equivalent to an infinite approval. Requirements: - `spender` cannot be the zero address."
      },
      "balanceOf(address)": {
        "details": "See {IERC20-balanceOf}."
      },
      "decimals()": {
        "details": "Returns the number of decimals used to get its user representation. For example, if `decimals` equals `2`, a balance of `505` tokens should be displayed to a user as `5.05` (`505 / 10 ** 2`). Tokens usually opt for a value of 18, imitating the relationship between Ether and Wei. This is the value {ERC20} uses, unless this function is overridden; NOTE: This information is only used for _display_ purposes: it in no way affects any of the arithmetic of the contract, including {IERC20-balanceOf} and {IERC20-transfer}."
      },
      "decreaseAllowance(address,uint256)": {
        "details": "Atomically decreases the allowance granted to `spender` by the caller. This is an alternative to {approve} that can be used as a mitigation for problems described in {IERC20-approve}. Emits an {Approval} event indicating the updated allowance. Requirements: - `spender` cannot be the zero address. - `spender` must have allowance for the caller of at least `subtractedValue`."
      },
      "increaseAllowance(address,uint256)": {
        "details": "Atomically increases the allowance granted to `spender` by the caller. This is an alternative to {approve} that can be used as a mitigation for problems described in {IERC20-approve}. Emits an {Approval} event indicating the updated allowance. Requirements: - `spender` cannot be the zero address."
      },
      "name()": {
        "details": "Returns the name of the token."
      },
      "symbol()": {
        "details": "Returns the symbol of the token, usually a shorter version of the name."
      },
      "totalSupply()": {
        "details": "See {IERC20-totalSupply}."
      },
      "transfer(address,uint256)": {
        "details": "See {IERC20-transfer}. Requirements: - `to` cannot be the zero address. - the caller must have a balance of at least `amount`."
      },
      "transferFrom(address,address,uint256)": {
        "details": "See {IERC20-transferFrom}. Emits an {Approval} event indicating the updated allowance. This is not required by the EIP. See the note at the beginning of {ERC20}. NOTE: Does not update the allowance if the current allowance is the maximum `uint256`. Requirements: - `from` and `to` cannot be the zero address. - `from` must have a balance of at least `amount`. - the caller must have allowance for ``from``'s tokens of at least `amount`."
      }
    },
    "version": 1
  },
  "userdoc": {
    "kind": "user",
    "methods": {},
    "version": 1
  }
}