{
  "contractName": "ERC20Stakable",
  "abi": [
    {
      "inputs": [
        {
          "internalType": "string",
          "name": "name_",
          "type": "string"
        },
        {
          "internalType": "string",
          "name": "symbol_",
          "type": "string"
        },
        {
          "internalType": "uint256",
          "name": "minStakedAmountForValidation_",
          "type": "uint256"
        }
      ],
      "stateMutability": "nonpayable",
      "type": "constructor"
    },
    {
      "anonymous": false,
      "inputs": [
        {
          "indexed": true,
          "internalType": "address",
          "name": "owner",
          "type": "address"
        },
        {
          "indexed": true,
          "internalType": "address",
          "name": "spender",
          "type": "address"
        },
        {
          "indexed": false,
          "internalType": "uint256",
          "name": "value",
          "type": "uint256"
        }
      ],
      "name": "Approval",
      "type": "event"
    },
    {
      "anonymous": false,
      "inputs": [
        {
          "indexed": true,
          "internalType": "address",
          "name": "from",
          "type": "address"
        },
        {
          "indexed": true,
          "internalType": "address",
          "name": "to",
          "type": "address"
        },
        {
          "indexed": false,
          "internalType": "uint256",
          "name": "value",
          "type": "uint256"
        }
      ],
      "name": "Transfer",
      "type": "event"
    },
    {
      "inputs": [
        {
          "internalType": "address",
          "name": "owner",
          "type": "address"
        },
        {
          "internalType": "address",
          "name": "spender",
          "type": "address"
        }
      ],
      "name": "allowance",
      "outputs": [
        {
          "internalType": "uint256",
          "name": "",
          "type": "uint256"
        }
      ],
      "stateMutability": "view",
      "type": "function"
    },
    {
      "inputs": [
        {
          "internalType": "address",
          "name": "spender",
          "type": "address"
        },
        {
          "internalType": "uint256",
          "name": "amount",
          "type": "uint256"
        }
      ],
      "name": "approve",
      "outputs": [
        {
          "internalType": "bool",
          "name": "",
          "type": "bool"
        }
      ],
      "stateMutability": "nonpayable",
      "type": "function"
    },
    {
      "inputs": [
        {
          "internalType": "address",
          "name": "account",
          "type": "address"
        }
      ],
      "name": "balanceOf",
      "outputs": [
        {
          "internalType": "uint256",
          "name": "",
          "type": "uint256"
        }
      ],
      "stateMutability": "view",
      "type": "function"
    },
    {
      "inputs": [],
      "name": "decimals",
      "outputs": [
        {
          "internalType": "uint8",
          "name": "",
          "type": "uint8"
        }
      ],
      "stateMutability": "view",
      "type": "function"
    },
    {
      "inputs": [
        {
          "internalType": "address",
          "name": "spender",
          "type": "address"
        },
        {
          "internalType": "uint256",
          "name": "subtractedValue",
          "type": "uint256"
        }
      ],
      "name": "decreaseAllowance",
      "outputs": [
        {
          "internalType": "bool",
          "name": "",
          "type": "bool"
        }
      ],
      "stateMutability": "nonpayable",
      "type": "function"
    },
    {
      "inputs": [
        {
          "internalType": "address",
          "name": "spender",
          "type": "address"
        },
        {
          "internalType": "uint256",
          "name": "addedValue",
          "type": "uint256"
        }
      ],
      "name": "increaseAllowance",
      "outputs": [
        {
          "internalType": "bool",
          "name": "",
          "type": "bool"
        }
      ],
      "stateMutability": "nonpayable",
      "type": "function"
    },
    {
      "inputs": [],
      "name": "name",
      "outputs": [
        {
          "internalType": "string",
          "name": "",
          "type": "string"
        }
      ],
      "stateMutability": "view",
      "type": "function"
    },
    {
      "inputs": [],
      "name": "symbol",
      "outputs": [
        {
          "internalType": "string",
          "name": "",
          "type": "string"
        }
      ],
      "stateMutability": "view",
      "type": "function"
    },
    {
      "inputs": [],
      "name": "totalSupply",
      "outputs": [
        {
          "internalType": "uint256",
          "name": "",
          "type": "uint256"
        }
      ],
      "stateMutability": "view",
      "type": "function"
    },
    {
      "inputs": [
        {
          "internalType": "address",
          "name": "to",
          "type": "address"
        },
        {
          "internalType": "uint256",
          "name": "amount",
          "type": "uint256"
        }
      ],
      "name": "transfer",
      "outputs": [
        {
          "internalType": "bool",
          "name": "",
          "type": "bool"
        }
      ],
      "stateMutability": "nonpayable",
      "type": "function"
    },
    {
      "inputs": [
        {
          "internalType": "address",
          "name": "from",
          "type": "address"
        },
        {
          "internalType": "address",
          "name": "to",
          "type": "address"
        },
        {
          "internalType": "uint256",
          "name": "amount",
          "type": "uint256"
        }
      ],
      "name": "transferFrom",
      "outputs": [
        {
          "internalType": "bool",
          "name": "",
          "type": "bool"
        }
      ],
      "stateMutability": "nonpayable",
      "type": "function"
    },
    {
      "inputs": [
        {
          "internalType": "address",
          "name": "address_",
          "type": "address"
        }
      ],
      "name": "getStakedAmount",
      "outputs": [
        {
          "internalType": "uint256",
          "name": "",
          "type": "uint256"
        }
      ],
      "stateMutability": "view",
      "type": "function"
    },
    {
      "inputs": [
        {
          "internalType": "address",
          "name": "address_",
          "type": "address"
        }
      ],
      "name": "getStakeholderInformation",
      "outputs": [
        {
          "internalType": "uint256",
          "name": "",
          "type": "uint256"
        },
        {
          "internalType": "uint256",
          "name": "",
          "type": "uint256"
        },
        {
          "internalType": "uint256",
          "name": "",
          "type": "uint256"
        },
        {
          "internalType": "uint256",
          "name": "",
          "type": "uint256"
        },
        {
          "internalType": "bool",
          "name": "",
          "type": "bool"
        },
        {
          "internalType": "uint256",
          "name": "",
          "type": "uint256"
        }
      ],
      "stateMutability": "view",
      "type": "function"
    },
    {
      "inputs": [],
      "name": "getStakeholders",
      "outputs": [
        {
          "components": [
            {
              "internalType": "address",
              "name": "user",
              "type": "address"
            },
            {
              "internalType": "uint256",
              "name": "totalAmount",
              "type": "uint256"
            },
            {
              "internalType": "uint256",
              "name": "ownedAmount",
              "type": "uint256"
            },
            {
              "internalType": "uint256",
              "name": "nominatedAmount",
              "type": "uint256"
            },
            {
              "internalType": "uint256",
              "name": "nominatorsCount",
              "type": "uint256"
            },
            {
              "internalType": "bool",
              "name": "canValidate",
              "type": "bool"
            },
            {
              "internalType": "uint256",
              "name": "notCollectedTokenRewards",
              "type": "uint256"
            }
          ],
          "internalType": "struct Stakeholders.Stakeholder[]",
          "name": "stakeholders",
          "type": "tuple[]"
        }
      ],
      "stateMutability": "view",
      "type": "function"
    },
    {
      "inputs": [
        {
          "internalType": "uint256",
          "name": "amount_",
          "type": "uint256"
        }
      ],
      "name": "stake",
      "outputs": [],
      "stateMutability": "nonpayable",
      "type": "function"
    },
    {
      "inputs": [
        {
          "internalType": "uint256",
          "name": "amount_",
          "type": "uint256"
        }
      ],
      "name": "unstake",
      "outputs": [],
      "stateMutability": "nonpayable",
      "type": "function"
    }
  ],
  "bytecode": "0x60a06040523480156200001157600080fd5b5060405162002ca138038062002ca18339818101604052810190620000379190620001bf565b828281600390805190602001906200005192919062000086565b5080600490805190602001906200006a92919062000086565b505050806080818152505060006005819055505050506200039c565b8280546200009490620002ee565b90600052602060002090601f016020900481019282620000b8576000855562000104565b82601f10620000d357805160ff191683800117855562000104565b8280016001018555821562000104579182015b8281111562000103578251825591602001919060010190620000e6565b5b50905062000113919062000117565b5090565b5b808211156200013257600081600090555060010162000118565b5090565b60006200014d62000147846200027b565b62000247565b9050828152602081018484840111156200016657600080fd5b62000173848285620002b8565b509392505050565b600082601f8301126200018d57600080fd5b81516200019f84826020860162000136565b91505092915050565b600081519050620001b98162000382565b92915050565b600080600060608486031215620001d557600080fd5b600084015167ffffffffffffffff811115620001f057600080fd5b620001fe868287016200017b565b935050602084015167ffffffffffffffff8111156200021c57600080fd5b6200022a868287016200017b565b92505060406200023d86828701620001a8565b9150509250925092565b6000604051905081810181811067ffffffffffffffff8211171562000271576200027062000353565b5b8060405250919050565b600067ffffffffffffffff82111562000299576200029862000353565b5b601f19601f8301169050602081019050919050565b6000819050919050565b60005b83811015620002d8578082015181840152602081019050620002bb565b83811115620002e8576000848401525b50505050565b600060028204905060018216806200030757607f821691505b602082108114156200031e576200031d62000324565b5b50919050565b7f4e487b7100000000000000000000000000000000000000000000000000000000600052602260045260246000fd5b7f4e487b7100000000000000000000000000000000000000000000000000000000600052604160045260246000fd5b6200038d81620002ae565b81146200039957600080fd5b50565b6080516128db620003c66000396000818161067b01528181611432015261179601526128db6000f3fe608060405234801561001057600080fd5b50600436106101005760003560e01c80634da6a55611610097578063a694fc3a11610066578063a694fc3a146102ee578063a9059cbb1461030a578063b69922471461033a578063dd62ed3e1461035857610100565b80634da6a5561461024057806370a082311461027057806395d89b41146102a0578063a457c2d7146102be57610100565b80632bf9262c116100d35780632bf9262c146101a15780632e17de78146101d6578063313ce567146101f2578063395093511461021057610100565b806306fdde0314610105578063095ea7b31461012357806318160ddd1461015357806323b872dd14610171575b600080fd5b61010d610388565b60405161011a9190612383565b60405180910390f35b61013d60048036038101906101389190611bd5565b61041a565b60405161014a9190612368565b60405180910390f35b61015b61043d565b6040516101689190612565565b60405180910390f35b61018b60048036038101906101869190611b86565b610447565b6040516101989190612368565b60405180910390f35b6101bb60048036038101906101b69190611b21565b610476565b6040516101cd96959493929190612580565b60405180910390f35b6101f060048036038101906101eb9190611c11565b61055d565b005b6101fa61070a565b60405161020791906125e1565b60405180910390f35b61022a60048036038101906102259190611bd5565b610713565b6040516102379190612368565b60405180910390f35b61025a60048036038101906102559190611b21565b6107bd565b6040516102679190612565565b60405180910390f35b61028a60048036038101906102859190611b21565b610876565b6040516102979190612565565b60405180910390f35b6102a86108be565b6040516102b59190612383565b60405180910390f35b6102d860048036038101906102d39190611bd5565b610950565b6040516102e59190612368565b60405180910390f35b61030860048036038101906103039190611c11565b610a3a565b005b610324600480360381019061031f9190611bd5565b610b4f565b6040516103319190612368565b60405180910390f35b610342610b72565b60405161034f9190612346565b60405180910390f35b610372600480360381019061036d9190611b4a565b610c74565b60405161037f9190612565565b60405180910390f35b6060600380546103979061278d565b80601f01602080910402602001604051908101604052809291908181526020018280546103c39061278d565b80156104105780601f106103e557610100808354040283529160200191610410565b820191906000526020600020905b8154815290600101906020018083116103f357829003601f168201915b5050505050905090565b600080610425610cfb565b9050610432818585610d03565b600191505092915050565b6000600254905090565b600080610452610cfb565b905061045f858285610ece565b61046a858585610f5a565b60019150509392505050565b600080600080600080600061048a886111db565b9050600081116104cf576040517f08c379a00000000000000000000000000000000000000000000000000000000081526004016104c690612485565b60405180910390fd5b60006007828154811061050b577f4e487b7100000000000000000000000000000000000000000000000000000000600052603260045260246000fd5b9060005260206000209060070201905080600101548160020154826003015483600401548460050160009054906101000a900460ff168560060154975097509750975097509750505091939550919395565b60003390506000600960008373ffffffffffffffffffffffffffffffffffffffff1673ffffffffffffffffffffffffffffffffffffffff16815260200190815260200160002054905060008114156105b6575050610707565b6000600782815481106105f2577f4e487b7100000000000000000000000000000000000000000000000000000000600052603260045260246000fd5b906000526020600020906007020190508381600101541015610649576040517f08c379a000000000000000000000000000000000000000000000000000000000815260040161064090612425565b60405180910390fd5b60008482600101600082825461065f91906126a7565b92505081905590508082600101819055508082600201819055507f000000000000000000000000000000000000000000000000000000000000000081106106c25760018260050160006101000a81548160ff0219169083151502179055506106f8565b60008260050160006101000a81548160ff021916908315150217905550600560008154809291906106f290612763565b91905055505b61070284866112ce565b505050505b50565b60006012905090565b60008061071e610cfb565b90506107b2818585600160008673ffffffffffffffffffffffffffffffffffffffff1673ffffffffffffffffffffffffffffffffffffffff16815260200190815260200160002060008973ffffffffffffffffffffffffffffffffffffffff1673ffffffffffffffffffffffffffffffffffffffff168152602001908152602001600020546107ad9190612651565b610d03565b600191505092915050565b600081600073ffffffffffffffffffffffffffffffffffffffff168173ffffffffffffffffffffffffffffffffffffffff1614156107fa57600080fd5b6000610805846111db565b9050600081141561081a576000925050610870565b600060078281548110610856577f4e487b7100000000000000000000000000000000000000000000000000000000600052603260045260246000fd5b906000526020600020906007020190508060010154935050505b50919050565b60008060008373ffffffffffffffffffffffffffffffffffffffff1673ffffffffffffffffffffffffffffffffffffffff168152602001908152602001600020549050919050565b6060600480546108cd9061278d565b80601f01602080910402602001604051908101604052809291908181526020018280546108f99061278d565b80156109465780601f1061091b57610100808354040283529160200191610946565b820191906000526020600020905b81548152906001019060200180831161092957829003601f168201915b5050505050905090565b60008061095b610cfb565b90506000600160008373ffffffffffffffffffffffffffffffffffffffff1673ffffffffffffffffffffffffffffffffffffffff16815260200190815260200160002060008673ffffffffffffffffffffffffffffffffffffffff1673ffffffffffffffffffffffffffffffffffffffff16815260200190815260200160002054905083811015610a21576040517f08c379a0000000000000000000000000000000000000000000000000000000008152600401610a1890612525565b60405180910390fd5b610a2e8286868403610d03565b60019250505092915050565b600033905060003073ffffffffffffffffffffffffffffffffffffffff166370a08231836040518263ffffffff1660e01b8152600401610a7a919061232b565b60206040518083038186803b158015610a9257600080fd5b505afa158015610aa6573d6000803e3d6000fd5b505050506040513d601f19601f82011682018060405250810190610aca9190611c3a565b905082811015610b0f576040517f08c379a0000000000000000000000000000000000000000000000000000000008152600401610b0690612465565b60405180910390fd5b6000610b1a836111db565b90506000811415610b3457610b2f838561142e565b610b3f565b610b3e81856116fa565b5b610b498385611819565b50505050565b600080610b5a610cfb565b9050610b67818585610f5a565b600191505092915050565b60606007805480602002602001604051908101604052809291908181526020016000905b82821015610c6b57838290600052602060002090600702016040518060e00160405290816000820160009054906101000a900473ffffffffffffffffffffffffffffffffffffffff1673ffffffffffffffffffffffffffffffffffffffff1673ffffffffffffffffffffffffffffffffffffffff168152602001600182015481526020016002820154815260200160038201548152602001600482015481526020016005820160009054906101000a900460ff1615151515815260200160068201548152505081526020019060010190610b96565b50505050905090565b6000600160008473ffffffffffffffffffffffffffffffffffffffff1673ffffffffffffffffffffffffffffffffffffffff16815260200190815260200160002060008373ffffffffffffffffffffffffffffffffffffffff1673ffffffffffffffffffffffffffffffffffffffff16815260200190815260200160002054905092915050565b600033905090565b600073ffffffffffffffffffffffffffffffffffffffff168373ffffffffffffffffffffffffffffffffffffffff161415610d73576040517f08c379a0000000000000000000000000000000000000000000000000000000008152600401610d6a90612505565b60405180910390fd5b600073ffffffffffffffffffffffffffffffffffffffff168273ffffffffffffffffffffffffffffffffffffffff161415610de3576040517f08c379a0000000000000000000000000000000000000000000000000000000008152600401610dda906123e5565b60405180910390fd5b80600160008573ffffffffffffffffffffffffffffffffffffffff1673ffffffffffffffffffffffffffffffffffffffff16815260200190815260200160002060008473ffffffffffffffffffffffffffffffffffffffff1673ffffffffffffffffffffffffffffffffffffffff168152602001908152602001600020819055508173ffffffffffffffffffffffffffffffffffffffff168373ffffffffffffffffffffffffffffffffffffffff167f8c5be1e5ebec7d5bd14f71427d1e84f3dd0314c0f7b2291e5b200ac8c7c3b92583604051610ec19190612565565b60405180910390a3505050565b6000610eda8484610c74565b90507fffffffffffffffffffffffffffffffffffffffffffffffffffffffffffffffff8114610f545781811015610f46576040517f08c379a0000000000000000000000000000000000000000000000000000000008152600401610f3d90612405565b60405180910390fd5b610f538484848403610d03565b5b50505050565b600073ffffffffffffffffffffffffffffffffffffffff168373ffffffffffffffffffffffffffffffffffffffff161415610fca576040517f08c379a0000000000000000000000000000000000000000000000000000000008152600401610fc1906124e5565b60405180910390fd5b600073ffffffffffffffffffffffffffffffffffffffff168273ffffffffffffffffffffffffffffffffffffffff16141561103a576040517f08c379a0000000000000000000000000000000000000000000000000000000008152600401611031906123a5565b60405180910390fd5b6110458383836119f0565b60008060008573ffffffffffffffffffffffffffffffffffffffff1673ffffffffffffffffffffffffffffffffffffffff168152602001908152602001600020549050818110156110cb576040517f08c379a00000000000000000000000000000000000000000000000000000000081526004016110c290612445565b60405180910390fd5b8181036000808673ffffffffffffffffffffffffffffffffffffffff1673ffffffffffffffffffffffffffffffffffffffff16815260200190815260200160002081905550816000808573ffffffffffffffffffffffffffffffffffffffff1673ffffffffffffffffffffffffffffffffffffffff168152602001908152602001600020600082825461115e9190612651565b925050819055508273ffffffffffffffffffffffffffffffffffffffff168473ffffffffffffffffffffffffffffffffffffffff167fddf252ad1be2c89b69c2b068fc378daa952ba7f163c4a11628f55a4df523b3ef846040516111c29190612565565b60405180910390a36111d58484846119f5565b50505050565b600081600073ffffffffffffffffffffffffffffffffffffffff168173ffffffffffffffffffffffffffffffffffffffff16141561121857600080fd5b6000600960008573ffffffffffffffffffffffffffffffffffffffff1673ffffffffffffffffffffffffffffffffffffffff168152602001908152602001600020549050600081141561126f5760009250506112c8565b600160078054905061128191906126a7565b8111156112c3576040517f08c379a00000000000000000000000000000000000000000000000000000000081526004016112ba906124a5565b60405180910390fd5b809250505b50919050565b600073ffffffffffffffffffffffffffffffffffffffff168273ffffffffffffffffffffffffffffffffffffffff16141561133e576040517f08c379a000000000000000000000000000000000000000000000000000000000815260040161133590612545565b60405180910390fd5b61134a600083836119f0565b806002600082825461135c9190612651565b92505081905550806000808473ffffffffffffffffffffffffffffffffffffffff1673ffffffffffffffffffffffffffffffffffffffff16815260200190815260200160002060008282546113b19190612651565b925050819055508173ffffffffffffffffffffffffffffffffffffffff16600073ffffffffffffffffffffffffffffffffffffffff167fddf252ad1be2c89b69c2b068fc378daa952ba7f163c4a11628f55a4df523b3ef836040516114169190612565565b60405180910390a361142a600083836119f5565b5050565b60007f00000000000000000000000000000000000000000000000000000000000000008210159050600060078054905090506000811415611590578080611474906127bf565b91505060076040518060e00160405280600073ffffffffffffffffffffffffffffffffffffffff168152602001600081526020016000815260200160008152602001600081526020016000151581526020016000815250908060018154018082558091505060019003906000526020600020906007020160009091909190915060008201518160000160006101000a81548173ffffffffffffffffffffffffffffffffffffffff021916908373ffffffffffffffffffffffffffffffffffffffff1602179055506020820151816001015560408201518160020155606082015181600301556080820151816004015560a08201518160050160006101000a81548160ff02191690831515021790555060c0820151816006015550505b60076040518060e001604052808673ffffffffffffffffffffffffffffffffffffffff168152602001858152602001858152602001600081526020016000815260200184151581526020016000815250908060018154018082558091505060019003906000526020600020906007020160009091909190915060008201518160000160006101000a81548173ffffffffffffffffffffffffffffffffffffffff021916908373ffffffffffffffffffffffffffffffffffffffff1602179055506020820151816001015560408201518160020155606082015181600301556080820151816004015560a08201518160050160006101000a81548160ff02191690831515021790555060c08201518160060155505080600960008673ffffffffffffffffffffffffffffffffffffffff1673ffffffffffffffffffffffffffffffffffffffff168152602001908152602001600020819055506116f38285836119fa565b5050505050565b600060078381548110611736577f4e487b7100000000000000000000000000000000000000000000000000000000600052603260045260246000fd5b906000526020600020906007020190508181600101600082825461175a9190612651565b92505081905550818160020160008282546117759190612651565b925050819055508060050160009054906101000a900460ff166118145760007f000000000000000000000000000000000000000000000000000000000000000082600101541015905080156118125760018260050160006101000a81548160ff021916908315150217905550611810818360000160009054906101000a900473ffffffffffffffffffffffffffffffffffffffff16866119fa565b505b505b505050565b600073ffffffffffffffffffffffffffffffffffffffff168273ffffffffffffffffffffffffffffffffffffffff161415611889576040517f08c379a0000000000000000000000000000000000000000000000000000000008152600401611880906124c5565b60405180910390fd5b611895826000836119f0565b60008060008473ffffffffffffffffffffffffffffffffffffffff1673ffffffffffffffffffffffffffffffffffffffff1681526020019081526020016000205490508181101561191b576040517f08c379a0000000000000000000000000000000000000000000000000000000008152600401611912906123c5565b60405180910390fd5b8181036000808573ffffffffffffffffffffffffffffffffffffffff1673ffffffffffffffffffffffffffffffffffffffff16815260200190815260200160002081905550816002600082825461197291906126a7565b92505081905550600073ffffffffffffffffffffffffffffffffffffffff168373ffffffffffffffffffffffffffffffffffffffff167fddf252ad1be2c89b69c2b068fc378daa952ba7f163c4a11628f55a4df523b3ef846040516119d79190612565565b60405180910390a36119eb836000846119f5565b505050565b505050565b505050565b600083611a0a5760009050611adb565b6000600860008573ffffffffffffffffffffffffffffffffffffffff1673ffffffffffffffffffffffffffffffffffffffff1681526020019081526020016000205490506000811415611abd5782600860008673ffffffffffffffffffffffffffffffffffffffff1673ffffffffffffffffffffffffffffffffffffffff1681526020019081526020016000208190555060056000815480929190611aae906127bf565b91905055506001915050611adb565b60056000815480929190611ad0906127bf565b919050555060019150505b9392505050565b600081359050611af181612877565b92915050565b600081359050611b068161288e565b92915050565b600081519050611b1b8161288e565b92915050565b600060208284031215611b3357600080fd5b6000611b4184828501611ae2565b91505092915050565b60008060408385031215611b5d57600080fd5b6000611b6b85828601611ae2565b9250506020611b7c85828601611ae2565b9150509250929050565b600080600060608486031215611b9b57600080fd5b6000611ba986828701611ae2565b9350506020611bba86828701611ae2565b9250506040611bcb86828701611af7565b9150509250925092565b60008060408385031215611be857600080fd5b6000611bf685828601611ae2565b9250506020611c0785828601611af7565b9150509250929050565b600060208284031215611c2357600080fd5b6000611c3184828501611af7565b91505092915050565b600060208284031215611c4c57600080fd5b6000611c5a84828501611b0c565b91505092915050565b6000611c6f8383612270565b60e08301905092915050565b611c84816126db565b82525050565b611c93816126db565b82525050565b6000611ca48261260c565b611cae818561262f565b9350611cb9836125fc565b8060005b83811015611cea578151611cd18882611c63565b9750611cdc83612622565b925050600181019050611cbd565b5085935050505092915050565b611d00816126ed565b82525050565b611d0f816126ed565b82525050565b6000611d2082612617565b611d2a8185612640565b9350611d3a818560208601612730565b611d4381612866565b840191505092915050565b6000611d5b602383612640565b91507f45524332303a207472616e7366657220746f20746865207a65726f206164647260008301527f65737300000000000000000000000000000000000000000000000000000000006020830152604082019050919050565b6000611dc1602283612640565b91507f45524332303a206275726e20616d6f756e7420657863656564732062616c616e60008301527f63650000000000000000000000000000000000000000000000000000000000006020830152604082019050919050565b6000611e27602283612640565b91507f45524332303a20617070726f766520746f20746865207a65726f20616464726560008301527f73730000000000000000000000000000000000000000000000000000000000006020830152604082019050919050565b6000611e8d601d83612640565b91507f45524332303a20696e73756666696369656e7420616c6c6f77616e63650000006000830152602082019050919050565b6000611ecd602283612640565b91507f496e73756666696369656e742062616c616e636520666f7220756e7374616b6960008301527f6e670000000000000000000000000000000000000000000000000000000000006020830152604082019050919050565b6000611f33602683612640565b91507f45524332303a207472616e7366657220616d6f756e742065786365656473206260008301527f616c616e636500000000000000000000000000000000000000000000000000006020830152604082019050919050565b6000611f99602083612640565b91507f496e73756666696369656e742062616c616e636520666f72207374616b696e676000830152602082019050919050565b6000611fd9602583612640565b91507f41646472657373206e6f74206c696e6b656420746f20616e79207374616b656860008301527f6f6c6465720000000000000000000000000000000000000000000000000000006020830152604082019050919050565b600061203f602983612640565b91507f496e76616c696420696e64657820666f72207374616b65686f6c64657273206360008301527f6f6c6c656374696f6e00000000000000000000000000000000000000000000006020830152604082019050919050565b60006120a5602183612640565b91507f45524332303a206275726e2066726f6d20746865207a65726f2061646472657360008301527f73000000000000000000000000000000000000000000000000000000000000006020830152604082019050919050565b600061210b602583612640565b91507f45524332303a207472616e736665722066726f6d20746865207a65726f20616460008301527f64726573730000000000000000000000000000000000000000000000000000006020830152604082019050919050565b6000612171602483612640565b91507f45524332303a20617070726f76652066726f6d20746865207a65726f2061646460008301527f72657373000000000000000000000000000000000000000000000000000000006020830152604082019050919050565b60006121d7602583612640565b91507f45524332303a2064656372656173656420616c6c6f77616e63652062656c6f7760008301527f207a65726f0000000000000000000000000000000000000000000000000000006020830152604082019050919050565b600061223d601f83612640565b91507f45524332303a206d696e7420746f20746865207a65726f2061646472657373006000830152602082019050919050565b60e0820160008201516122866000850182611c7b565b50602082015161229960208501826122fe565b5060408201516122ac60408501826122fe565b5060608201516122bf60608501826122fe565b5060808201516122d260808501826122fe565b5060a08201516122e560a0850182611cf7565b5060c08201516122f860c08501826122fe565b50505050565b61230781612719565b82525050565b61231681612719565b82525050565b61232581612723565b82525050565b60006020820190506123406000830184611c8a565b92915050565b600060208201905081810360008301526123608184611c99565b905092915050565b600060208201905061237d6000830184611d06565b92915050565b6000602082019050818103600083015261239d8184611d15565b905092915050565b600060208201905081810360008301526123be81611d4e565b9050919050565b600060208201905081810360008301526123de81611db4565b9050919050565b600060208201905081810360008301526123fe81611e1a565b9050919050565b6000602082019050818103600083015261241e81611e80565b9050919050565b6000602082019050818103600083015261243e81611ec0565b9050919050565b6000602082019050818103600083015261245e81611f26565b9050919050565b6000602082019050818103600083015261247e81611f8c565b9050919050565b6000602082019050818103600083015261249e81611fcc565b9050919050565b600060208201905081810360008301526124be81612032565b9050919050565b600060208201905081810360008301526124de81612098565b9050919050565b600060208201905081810360008301526124fe816120fe565b9050919050565b6000602082019050818103600083015261251e81612164565b9050919050565b6000602082019050818103600083015261253e816121ca565b9050919050565b6000602082019050818103600083015261255e81612230565b9050919050565b600060208201905061257a600083018461230d565b92915050565b600060c082019050612595600083018961230d565b6125a2602083018861230d565b6125af604083018761230d565b6125bc606083018661230d565b6125c96080830185611d06565b6125d660a083018461230d565b979650505050505050565b60006020820190506125f6600083018461231c565b92915050565b6000819050602082019050919050565b600081519050919050565b600081519050919050565b6000602082019050919050565b600082825260208201905092915050565b600082825260208201905092915050565b600061265c82612719565b915061266783612719565b9250827fffffffffffffffffffffffffffffffffffffffffffffffffffffffffffffffff0382111561269c5761269b612808565b5b828201905092915050565b60006126b282612719565b91506126bd83612719565b9250828210156126d0576126cf612808565b5b828203905092915050565b60006126e6826126f9565b9050919050565b60008115159050919050565b600073ffffffffffffffffffffffffffffffffffffffff82169050919050565b6000819050919050565b600060ff82169050919050565b60005b8381101561274e578082015181840152602081019050612733565b8381111561275d576000848401525b50505050565b600061276e82612719565b9150600082141561278257612781612808565b5b600182039050919050565b600060028204905060018216806127a557607f821691505b602082108114156127b9576127b8612837565b5b50919050565b60006127ca82612719565b91507fffffffffffffffffffffffffffffffffffffffffffffffffffffffffffffffff8214156127fd576127fc612808565b5b600182019050919050565b7f4e487b7100000000000000000000000000000000000000000000000000000000600052601160045260246000fd5b7f4e487b7100000000000000000000000000000000000000000000000000000000600052602260045260246000fd5b6000601f19601f8301169050919050565b612880816126db565b811461288b57600080fd5b50565b61289781612719565b81146128a257600080fd5b5056fea26469706673582212209d7c85114ad5a794cb550aaa14d4c021c7f77ee9ba4c736bda65b8abe8168d0564736f6c63430008000033",
  "immutableReferences": {
    "2962": [
      {
        "length": 32,
        "start": 1659
      },
      {
        "length": 32,
        "start": 5170
      },
      {
        "length": 32,
        "start": 6038
      }
    ]
  },
  "source": "pragma solidity ^0.8.0;\r\n\r\nimport \"@openzeppelin/contracts/token/ERC20/ERC20.sol\";\r\nimport \"../Interfaces/IStakable.sol\";\r\nimport \"../utils/NominatingStakeholders.sol\";\r\nimport \"../utils/Eras.sol\";\r\n\r\ncontract ERC20Stakable is IStakable, ERC20 {\r\n    uint256 immutable _minStakedAmountForValidation;\r\n    uint256 internal _validatorsCount;\r\n    uint256 internal _erasCount;\r\n    Stakeholders.Stakeholder[] internal _stakeholders;\r\n    mapping(address => uint256) internal _validatorsStakeholderIndexes;\r\n    mapping(address => uint256) internal _stakeholdersIndexes;\r\n\r\n    constructor(\r\n        string memory name_,\r\n        string memory symbol_,\r\n        uint256 minStakedAmountForValidation_\r\n    ) ERC20(name_, symbol_) {\r\n        _minStakedAmountForValidation = minStakedAmountForValidation_;\r\n        _validatorsCount = 0;\r\n    }\r\n\r\n    modifier notNullAddress(address address_) {\r\n        require(address_ != address(0));\r\n        _;\r\n    }\r\n\r\n    function getStakedAmount(address address_)\r\n        external\r\n        view\r\n        override\r\n        notNullAddress(address_)\r\n        returns (uint256)\r\n    {\r\n        uint256 stakeholderIndex = _getStakeholderIndex(address_);\r\n        if (stakeholderIndex == 0) {\r\n            //no stakeholder registered\r\n            return 0;\r\n        }\r\n        Stakeholders.Stakeholder storage stakeholder = _stakeholders[\r\n            stakeholderIndex\r\n        ];\r\n        return stakeholder.totalAmount;\r\n    }\r\n\r\n    function getStakeholderInformation(address address_)\r\n        external\r\n        view\r\n        override\r\n        returns (\r\n            uint256,\r\n            uint256,\r\n            uint256,\r\n            uint256,\r\n            bool,\r\n            uint256\r\n        )\r\n    {\r\n        uint256 stakeholderIndex = _getStakeholderIndex(address_);\r\n\r\n        require(stakeholderIndex > 0, \"Address not linked to any stakeholder\");\r\n\r\n        Stakeholders.Stakeholder storage stakeholder = _stakeholders[\r\n            stakeholderIndex\r\n        ];\r\n\r\n        return (\r\n            stakeholder.totalAmount,\r\n            stakeholder.ownedAmount,\r\n            stakeholder.nominatedAmount,\r\n            stakeholder.nominatorsCount,\r\n            stakeholder.canValidate,\r\n            stakeholder.notCollectedTokenRewards\r\n        );\r\n    }\r\n\r\n    function getStakeholders()\r\n        external\r\n        view\r\n        override\r\n        returns (Stakeholders.Stakeholder[] memory stakeholders)\r\n    {\r\n        return _stakeholders;\r\n    }\r\n\r\n    function stake(uint256 amount_) external override {\r\n        address stakeholderAddress = msg.sender;\r\n\r\n        //fisrst check if the caller has at least amount_ tokens\r\n        uint256 balance = this.balanceOf(stakeholderAddress);\r\n\r\n        require(balance >= amount_, \"Insufficient balance for staking\");\r\n        //second check if stakeholder exist\r\n        uint256 stakeholderIndex = _getStakeholderIndex(stakeholderAddress);\r\n        if (stakeholderIndex == 0) {\r\n            //stakeholder does not exists. Create new one and stake the amout\r\n            _createNewStakeholder(stakeholderAddress, amount_);\r\n        } else {\r\n            _stakeholderUpdateOwnStakedAmount(stakeholderIndex, amount_);\r\n        }\r\n\r\n        //burn tokens from balance\r\n        _burn(stakeholderAddress, amount_);\r\n    }\r\n\r\n    function unstake(uint256 amount_) external override {\r\n        address stakeholderAddress = msg.sender;\r\n        uint256 stakeholderIndex = _stakeholdersIndexes[stakeholderAddress];\r\n        if (stakeholderIndex == 0) {\r\n            // this user no longer have any staked ammount\r\n            return;\r\n        }\r\n\r\n        Stakeholders.Stakeholder storage stakeholder = _stakeholders[\r\n            stakeholderIndex\r\n        ];\r\n        require(\r\n            stakeholder.totalAmount >= amount_,\r\n            \"Insufficient balance for unstaking\"\r\n        );\r\n\r\n        uint256 newAmount = stakeholder.totalAmount -= amount_;\r\n\r\n        stakeholder.totalAmount = newAmount;\r\n        stakeholder.ownedAmount = newAmount;\r\n\r\n        if (newAmount >= _minStakedAmountForValidation) {\r\n            stakeholder.canValidate = true;\r\n        } else {\r\n            stakeholder.canValidate = false;\r\n            _validatorsCount--;\r\n        }\r\n\r\n        //mint amount_ tokes to address\r\n        _mint(stakeholderAddress, amount_);\r\n    }\r\n\r\n    function _getStakeholderIndex(address address_)\r\n        internal\r\n        view\r\n        virtual\r\n        notNullAddress(address_)\r\n        returns (uint256)\r\n    {\r\n        uint256 stakeholderIndex = _stakeholdersIndexes[address_];\r\n        if (stakeholderIndex == 0) return 0;\r\n        require(\r\n            stakeholderIndex <= _stakeholders.length - 1,\r\n            \"Invalid index for stakeholders collection\"\r\n        );\r\n\r\n        return stakeholderIndex;\r\n    }\r\n\r\n    function _createNewStakeholder(address address_, uint256 amount_)\r\n        internal\r\n        virtual\r\n    {\r\n        bool canValidate = amount_ >= _minStakedAmountForValidation;\r\n        uint256 newStakeholderIndex = _stakeholders.length;\r\n\r\n        if (newStakeholderIndex == 0) {\r\n            newStakeholderIndex++;\r\n            // this is very first stakeholder. Create a fake one at index 0.\r\n            _stakeholders.push(\r\n                Stakeholders.Stakeholder({\r\n                    user: address(0),\r\n                    totalAmount: 0,\r\n                    ownedAmount: 0,\r\n                    nominatedAmount: 0,\r\n                    nominatorsCount: 0,\r\n                    canValidate: false,\r\n                    notCollectedTokenRewards: 0\r\n                })\r\n            );\r\n        }\r\n\r\n        _stakeholders.push(\r\n            Stakeholders.Stakeholder({\r\n                user: address_,\r\n                totalAmount: amount_,\r\n                ownedAmount: amount_,\r\n                nominatedAmount: 0,\r\n                nominatorsCount: 0,\r\n                canValidate: canValidate,\r\n                notCollectedTokenRewards: 0\r\n            })\r\n        );\r\n\r\n        _stakeholdersIndexes[address_] = newStakeholderIndex;\r\n        _tryRecordStakeholderAsNewValidator(\r\n            canValidate,\r\n            address_,\r\n            newStakeholderIndex\r\n        );\r\n    }\r\n\r\n    function _stakeholderUpdateOwnStakedAmount(\r\n        uint256 stakeholderIndex_,\r\n        uint256 amount_\r\n    ) internal virtual {\r\n        Stakeholders.Stakeholder storage stakeHolder = _stakeholders[\r\n            stakeholderIndex_\r\n        ];\r\n\r\n        stakeHolder.totalAmount += amount_;\r\n        stakeHolder.ownedAmount += amount_;\r\n\r\n        if (!stakeHolder.canValidate) {\r\n            //check if he can now\r\n            bool canValidate = stakeHolder.totalAmount >=\r\n                _minStakedAmountForValidation;\r\n\r\n            if (canValidate) {\r\n                stakeHolder.canValidate = true;\r\n                _tryRecordStakeholderAsNewValidator(\r\n                    canValidate,\r\n                    stakeHolder.user,\r\n                    stakeholderIndex_\r\n                );\r\n            }\r\n        }\r\n    }\r\n\r\n    function _tryRecordStakeholderAsNewValidator(\r\n        bool canValidate_,\r\n        address address_,\r\n        uint256 validatorIndex_\r\n    ) internal returns (bool) {\r\n        if (!canValidate_) {\r\n            return false;\r\n        }\r\n        uint256 validatorIndex = _validatorsStakeholderIndexes[address_];\r\n        if (validatorIndex == 0) {\r\n            //we don't have any valid validator\r\n            _validatorsStakeholderIndexes[address_] = validatorIndex_;\r\n            _validatorsCount++;\r\n            return true;\r\n        }\r\n        //else validator already exist in records\r\n        _validatorsCount++;\r\n        return true;\r\n    }\r\n}\r\n",
  "sourcePath": "D:\\Documents\\Dev\\Repositories\\gold-price-oracle\\gold-price-oracle\\on-chain\\contracts\\token\\base\\ERC20Stakable.sol",
  "compiler": {
    "name": "solc",
    "version": "0.8.0+commit.c7dfd78e.Emscripten.clang"
  },
  "schemaVersion": "3.4.3",
  "updatedAt": "2022-05-23T23:43:41.330Z",
  "devdoc": {
    "kind": "dev",
    "methods": {
      "allowance(address,address)": {
        "details": "See {IERC20-allowance}."
      },
      "approve(address,uint256)": {
        "details": "See {IERC20-approve}. NOTE: If `amount` is the maximum `uint256`, the allowance is not updated on `transferFrom`. This is semantically equivalent to an infinite approval. Requirements: - `spender` cannot be the zero address."
      },
      "balanceOf(address)": {
        "details": "See {IERC20-balanceOf}."
      },
      "decimals()": {
        "details": "Returns the number of decimals used to get its user representation. For example, if `decimals` equals `2`, a balance of `505` tokens should be displayed to a user as `5.05` (`505 / 10 ** 2`). Tokens usually opt for a value of 18, imitating the relationship between Ether and Wei. This is the value {ERC20} uses, unless this function is overridden; NOTE: This information is only used for _display_ purposes: it in no way affects any of the arithmetic of the contract, including {IERC20-balanceOf} and {IERC20-transfer}."
      },
      "decreaseAllowance(address,uint256)": {
        "details": "Atomically decreases the allowance granted to `spender` by the caller. This is an alternative to {approve} that can be used as a mitigation for problems described in {IERC20-approve}. Emits an {Approval} event indicating the updated allowance. Requirements: - `spender` cannot be the zero address. - `spender` must have allowance for the caller of at least `subtractedValue`."
      },
      "increaseAllowance(address,uint256)": {
        "details": "Atomically increases the allowance granted to `spender` by the caller. This is an alternative to {approve} that can be used as a mitigation for problems described in {IERC20-approve}. Emits an {Approval} event indicating the updated allowance. Requirements: - `spender` cannot be the zero address."
      },
      "name()": {
        "details": "Returns the name of the token."
      },
      "symbol()": {
        "details": "Returns the symbol of the token, usually a shorter version of the name."
      },
      "totalSupply()": {
        "details": "See {IERC20-totalSupply}."
      },
      "transfer(address,uint256)": {
        "details": "See {IERC20-transfer}. Requirements: - `to` cannot be the zero address. - the caller must have a balance of at least `amount`."
      },
      "transferFrom(address,address,uint256)": {
        "details": "See {IERC20-transferFrom}. Emits an {Approval} event indicating the updated allowance. This is not required by the EIP. See the note at the beginning of {ERC20}. NOTE: Does not update the allowance if the current allowance is the maximum `uint256`. Requirements: - `from` and `to` cannot be the zero address. - `from` must have a balance of at least `amount`. - the caller must have allowance for ``from``'s tokens of at least `amount`."
      }
    },
    "version": 1
  },
  "userdoc": {
    "kind": "user",
    "methods": {},
    "version": 1
  }
}