{
  "contractName": "ERC20Stakable",
  "abi": [
    {
      "inputs": [
        {
          "internalType": "string",
          "name": "name_",
          "type": "string"
        },
        {
          "internalType": "string",
          "name": "symbol_",
          "type": "string"
        },
        {
          "internalType": "uint256",
          "name": "minStakedAmountForValidation_",
          "type": "uint256"
        }
      ],
      "stateMutability": "nonpayable",
      "type": "constructor"
    },
    {
      "anonymous": false,
      "inputs": [
        {
          "indexed": true,
          "internalType": "address",
          "name": "owner",
          "type": "address"
        },
        {
          "indexed": true,
          "internalType": "address",
          "name": "spender",
          "type": "address"
        },
        {
          "indexed": false,
          "internalType": "uint256",
          "name": "value",
          "type": "uint256"
        }
      ],
      "name": "Approval",
      "type": "event"
    },
    {
      "anonymous": false,
      "inputs": [
        {
          "indexed": true,
          "internalType": "address",
          "name": "from",
          "type": "address"
        },
        {
          "indexed": true,
          "internalType": "address",
          "name": "to",
          "type": "address"
        },
        {
          "indexed": false,
          "internalType": "uint256",
          "name": "value",
          "type": "uint256"
        }
      ],
      "name": "Transfer",
      "type": "event"
    },
    {
      "inputs": [
        {
          "internalType": "address",
          "name": "owner",
          "type": "address"
        },
        {
          "internalType": "address",
          "name": "spender",
          "type": "address"
        }
      ],
      "name": "allowance",
      "outputs": [
        {
          "internalType": "uint256",
          "name": "",
          "type": "uint256"
        }
      ],
      "stateMutability": "view",
      "type": "function"
    },
    {
      "inputs": [
        {
          "internalType": "address",
          "name": "spender",
          "type": "address"
        },
        {
          "internalType": "uint256",
          "name": "amount",
          "type": "uint256"
        }
      ],
      "name": "approve",
      "outputs": [
        {
          "internalType": "bool",
          "name": "",
          "type": "bool"
        }
      ],
      "stateMutability": "nonpayable",
      "type": "function"
    },
    {
      "inputs": [
        {
          "internalType": "address",
          "name": "account",
          "type": "address"
        }
      ],
      "name": "balanceOf",
      "outputs": [
        {
          "internalType": "uint256",
          "name": "",
          "type": "uint256"
        }
      ],
      "stateMutability": "view",
      "type": "function"
    },
    {
      "inputs": [],
      "name": "decimals",
      "outputs": [
        {
          "internalType": "uint8",
          "name": "",
          "type": "uint8"
        }
      ],
      "stateMutability": "view",
      "type": "function"
    },
    {
      "inputs": [
        {
          "internalType": "address",
          "name": "spender",
          "type": "address"
        },
        {
          "internalType": "uint256",
          "name": "subtractedValue",
          "type": "uint256"
        }
      ],
      "name": "decreaseAllowance",
      "outputs": [
        {
          "internalType": "bool",
          "name": "",
          "type": "bool"
        }
      ],
      "stateMutability": "nonpayable",
      "type": "function"
    },
    {
      "inputs": [
        {
          "internalType": "address",
          "name": "spender",
          "type": "address"
        },
        {
          "internalType": "uint256",
          "name": "addedValue",
          "type": "uint256"
        }
      ],
      "name": "increaseAllowance",
      "outputs": [
        {
          "internalType": "bool",
          "name": "",
          "type": "bool"
        }
      ],
      "stateMutability": "nonpayable",
      "type": "function"
    },
    {
      "inputs": [],
      "name": "name",
      "outputs": [
        {
          "internalType": "string",
          "name": "",
          "type": "string"
        }
      ],
      "stateMutability": "view",
      "type": "function"
    },
    {
      "inputs": [],
      "name": "symbol",
      "outputs": [
        {
          "internalType": "string",
          "name": "",
          "type": "string"
        }
      ],
      "stateMutability": "view",
      "type": "function"
    },
    {
      "inputs": [],
      "name": "totalSupply",
      "outputs": [
        {
          "internalType": "uint256",
          "name": "",
          "type": "uint256"
        }
      ],
      "stateMutability": "view",
      "type": "function"
    },
    {
      "inputs": [
        {
          "internalType": "address",
          "name": "to",
          "type": "address"
        },
        {
          "internalType": "uint256",
          "name": "amount",
          "type": "uint256"
        }
      ],
      "name": "transfer",
      "outputs": [
        {
          "internalType": "bool",
          "name": "",
          "type": "bool"
        }
      ],
      "stateMutability": "nonpayable",
      "type": "function"
    },
    {
      "inputs": [
        {
          "internalType": "address",
          "name": "from",
          "type": "address"
        },
        {
          "internalType": "address",
          "name": "to",
          "type": "address"
        },
        {
          "internalType": "uint256",
          "name": "amount",
          "type": "uint256"
        }
      ],
      "name": "transferFrom",
      "outputs": [
        {
          "internalType": "bool",
          "name": "",
          "type": "bool"
        }
      ],
      "stateMutability": "nonpayable",
      "type": "function"
    },
    {
      "inputs": [
        {
          "internalType": "address",
          "name": "address_",
          "type": "address"
        }
      ],
      "name": "getStakedAmount",
      "outputs": [
        {
          "internalType": "uint256",
          "name": "",
          "type": "uint256"
        }
      ],
      "stateMutability": "view",
      "type": "function"
    },
    {
      "inputs": [
        {
          "internalType": "address",
          "name": "address_",
          "type": "address"
        }
      ],
      "name": "getStakeholderInformation",
      "outputs": [
        {
          "internalType": "uint256",
          "name": "",
          "type": "uint256"
        },
        {
          "internalType": "uint256",
          "name": "",
          "type": "uint256"
        },
        {
          "internalType": "uint256",
          "name": "",
          "type": "uint256"
        },
        {
          "internalType": "uint256",
          "name": "",
          "type": "uint256"
        },
        {
          "internalType": "bool",
          "name": "",
          "type": "bool"
        }
      ],
      "stateMutability": "view",
      "type": "function"
    },
    {
      "inputs": [
        {
          "internalType": "uint256",
          "name": "amount_",
          "type": "uint256"
        }
      ],
      "name": "stake",
      "outputs": [],
      "stateMutability": "nonpayable",
      "type": "function"
    },
    {
      "inputs": [
        {
          "internalType": "uint256",
          "name": "amount_",
          "type": "uint256"
        }
      ],
      "name": "unstake",
      "outputs": [],
      "stateMutability": "nonpayable",
      "type": "function"
    },
    {
      "inputs": [],
      "name": "getValidatorsCount",
      "outputs": [
        {
          "internalType": "uint256",
          "name": "",
          "type": "uint256"
        }
      ],
      "stateMutability": "view",
      "type": "function"
    },
    {
      "inputs": [],
      "name": "getCurrentEra",
      "outputs": [
        {
          "components": [
            {
              "internalType": "bytes32",
              "name": "id",
              "type": "bytes32"
            },
            {
              "internalType": "uint256",
              "name": "colectedFeesAmount",
              "type": "uint256"
            },
            {
              "internalType": "uint256",
              "name": "startDate",
              "type": "uint256"
            },
            {
              "internalType": "uint256",
              "name": "endDate",
              "type": "uint256"
            },
            {
              "internalType": "address",
              "name": "chairman",
              "type": "address"
            }
          ],
          "internalType": "struct Eras.Era",
          "name": "currentEra",
          "type": "tuple"
        }
      ],
      "stateMutability": "view",
      "type": "function"
    },
    {
      "inputs": [],
      "name": "getErasCount",
      "outputs": [
        {
          "internalType": "uint256",
          "name": "",
          "type": "uint256"
        }
      ],
      "stateMutability": "view",
      "type": "function"
    },
    {
      "inputs": [],
      "name": "electNewChairman",
      "outputs": [
        {
          "internalType": "address",
          "name": "",
          "type": "address"
        }
      ],
      "stateMutability": "nonpayable",
      "type": "function"
    },
    {
      "inputs": [],
      "name": "startNewEra",
      "outputs": [
        {
          "internalType": "bytes32",
          "name": "",
          "type": "bytes32"
        }
      ],
      "stateMutability": "nonpayable",
      "type": "function"
    }
  ],
  "bytecode": "0x60a06040523480156200001157600080fd5b5060405162002c4638038062002c468339818101604052810190620000379190620001c7565b82828160039080519060200190620000519291906200008e565b5080600490805190602001906200006a9291906200008e565b505050806080818152505060006005819055506000600681905550505050620003a4565b8280546200009c90620002f6565b90600052602060002090601f016020900481019282620000c057600085556200010c565b82601f10620000db57805160ff19168380011785556200010c565b828001600101855582156200010c579182015b828111156200010b578251825591602001919060010190620000ee565b5b5090506200011b91906200011f565b5090565b5b808211156200013a57600081600090555060010162000120565b5090565b6000620001556200014f8462000283565b6200024f565b9050828152602081018484840111156200016e57600080fd5b6200017b848285620002c0565b509392505050565b600082601f8301126200019557600080fd5b8151620001a78482602086016200013e565b91505092915050565b600081519050620001c1816200038a565b92915050565b600080600060608486031215620001dd57600080fd5b600084015167ffffffffffffffff811115620001f857600080fd5b620002068682870162000183565b935050602084015167ffffffffffffffff8111156200022457600080fd5b620002328682870162000183565b92505060406200024586828701620001b0565b9150509250925092565b6000604051905081810181811067ffffffffffffffff821117156200027957620002786200035b565b5b8060405250919050565b600067ffffffffffffffff821115620002a157620002a06200035b565b5b601f19601f8301169050602081019050919050565b6000819050919050565b60005b83811015620002e0578082015181840152602081019050620002c3565b83811115620002f0576000848401525b50505050565b600060028204905060018216806200030f57607f821691505b602082108114156200032657620003256200032c565b5b50919050565b7f4e487b7100000000000000000000000000000000000000000000000000000000600052602260045260246000fd5b7f4e487b7100000000000000000000000000000000000000000000000000000000600052604160045260246000fd5b6200039581620002b6565b8114620003a157600080fd5b50565b608051612878620003ce600039600081816107240152818161148001526117c201526128786000f3fe608060405234801561001057600080fd5b506004361061012c5760003560e01c80634da6a556116100ad578063a457c2d711610071578063a457c2d714610361578063a694fc3a14610391578063a9059cbb146103ad578063d250b6cb146103dd578063dd62ed3e146103fb5761012c565b80634da6a556146102a7578063533aa7b8146102d757806370a08231146102f557806395d89b4114610325578063a2709eb4146103435761012c565b806327498240116100f457806327498240146101eb5780632bf9262c146102095780632e17de781461023d578063313ce5671461025957806339509351146102775761012c565b806306fdde0314610131578063095ea7b31461014f57806318160ddd1461017f5780631e70953e1461019d57806323b872dd146101bb575b600080fd5b61013961042b565b6040516101469190612342565b60405180910390f35b61016960048036038101906101649190611c28565b6104bd565b604051610176919061230c565b60405180910390f35b6101876104e0565b604051610194919061253f565b60405180910390f35b6101a56104ea565b6040516101b29190612327565b60405180910390f35b6101d560048036038101906101d09190611bd9565b6104ef565b6040516101e2919061230c565b60405180910390f35b6101f361051e565b604051610200919061253f565b60405180910390f35b610223600480360381019061021e9190611b74565b610528565b60405161023495949392919061255a565b60405180910390f35b61025760048036038101906102529190611c64565b610606565b005b6102616107b3565b60405161026e91906125ad565b60405180910390f35b610291600480360381019061028c9190611c28565b6107bc565b60405161029e919061230c565b60405180910390f35b6102c160048036038101906102bc9190611b74565b610866565b6040516102ce919061253f565b60405180910390f35b6102df61091f565b6040516102ec919061253f565b60405180910390f35b61030f600480360381019061030a9190611b74565b610929565b60405161031c919061253f565b60405180910390f35b61032d610971565b60405161033a9190612342565b60405180910390f35b61034b610a03565b60405161035891906122f1565b60405180910390f35b61037b60048036038101906103769190611c28565b610a08565b604051610388919061230c565b60405180910390f35b6103ab60048036038101906103a69190611c64565b610af2565b005b6103c760048036038101906103c29190611c28565b610c07565b6040516103d4919061230c565b60405180910390f35b6103e5610c2a565b6040516103f29190612524565b60405180910390f35b61041560048036038101906104109190611b9d565b610cc2565b604051610422919061253f565b60405180910390f35b60606003805461043a9061272a565b80601f01602080910402602001604051908101604052809291908181526020018280546104669061272a565b80156104b35780601f10610488576101008083540402835291602001916104b3565b820191906000526020600020905b81548152906001019060200180831161049657829003601f168201915b5050505050905090565b6000806104c8610d49565b90506104d5818585610d51565b600191505092915050565b6000600254905090565b600090565b6000806104fa610d49565b9050610507858285610f1c565b610512858585610fa8565b60019150509392505050565b6000600554905090565b60008060008060008061053a87611229565b90506000811161057f576040517f08c379a000000000000000000000000000000000000000000000000000000000815260040161057690612444565b60405180910390fd5b6000600782815481106105bb577f4e487b7100000000000000000000000000000000000000000000000000000000600052603260045260246000fd5b9060005260206000209060060201905080600101548160020154826003015483600401548460050160009054906101000a900460ff1696509650965096509650505091939590929450565b60003390506000600960008373ffffffffffffffffffffffffffffffffffffffff1673ffffffffffffffffffffffffffffffffffffffff168152602001908152602001600020549050600081141561065f5750506107b0565b60006007828154811061069b577f4e487b7100000000000000000000000000000000000000000000000000000000600052603260045260246000fd5b9060005260206000209060060201905083816001015410156106f2576040517f08c379a00000000000000000000000000000000000000000000000000000000081526004016106e9906123e4565b60405180910390fd5b600084826001016000828254610708919061263a565b92505081905590508082600101819055508082600201819055507f0000000000000000000000000000000000000000000000000000000000000000811061076b5760018260050160006101000a81548160ff0219169083151502179055506107a1565b60008260050160006101000a81548160ff0219169083151502179055506005600081548092919061079b90612700565b91905055505b6107ab848661131c565b505050505b50565b60006012905090565b6000806107c7610d49565b905061085b818585600160008673ffffffffffffffffffffffffffffffffffffffff1673ffffffffffffffffffffffffffffffffffffffff16815260200190815260200160002060008973ffffffffffffffffffffffffffffffffffffffff1673ffffffffffffffffffffffffffffffffffffffff1681526020019081526020016000205461085691906125e4565b610d51565b600191505092915050565b600081600073ffffffffffffffffffffffffffffffffffffffff168173ffffffffffffffffffffffffffffffffffffffff1614156108a357600080fd5b60006108ae84611229565b905060008114156108c3576000925050610919565b6000600782815481106108ff577f4e487b7100000000000000000000000000000000000000000000000000000000600052603260045260246000fd5b906000526020600020906006020190508060010154935050505b50919050565b6000600654905090565b60008060008373ffffffffffffffffffffffffffffffffffffffff1673ffffffffffffffffffffffffffffffffffffffff168152602001908152602001600020549050919050565b6060600480546109809061272a565b80601f01602080910402602001604051908101604052809291908181526020018280546109ac9061272a565b80156109f95780601f106109ce576101008083540402835291602001916109f9565b820191906000526020600020905b8154815290600101906020018083116109dc57829003601f168201915b5050505050905090565b600090565b600080610a13610d49565b90506000600160008373ffffffffffffffffffffffffffffffffffffffff1673ffffffffffffffffffffffffffffffffffffffff16815260200190815260200160002060008673ffffffffffffffffffffffffffffffffffffffff1673ffffffffffffffffffffffffffffffffffffffff16815260200190815260200160002054905083811015610ad9576040517f08c379a0000000000000000000000000000000000000000000000000000000008152600401610ad0906124e4565b60405180910390fd5b610ae68286868403610d51565b60019250505092915050565b600033905060003073ffffffffffffffffffffffffffffffffffffffff166370a08231836040518263ffffffff1660e01b8152600401610b3291906122f1565b60206040518083038186803b158015610b4a57600080fd5b505afa158015610b5e573d6000803e3d6000fd5b505050506040513d601f19601f82011682018060405250810190610b829190611c8d565b905082811015610bc7576040517f08c379a0000000000000000000000000000000000000000000000000000000008152600401610bbe90612424565b60405180910390fd5b6000610bd283611229565b90506000811415610bec57610be7838561147c565b610bf7565b610bf68185611726565b5b610c018385611845565b50505050565b600080610c12610d49565b9050610c1f818585610fa8565b600191505092915050565b610c32611aed565b600b6040518060a0016040529081600082015481526020016001820154815260200160028201548152602001600382015481526020016004820160009054906101000a900473ffffffffffffffffffffffffffffffffffffffff1673ffffffffffffffffffffffffffffffffffffffff1673ffffffffffffffffffffffffffffffffffffffff1681525050905090565b6000600160008473ffffffffffffffffffffffffffffffffffffffff1673ffffffffffffffffffffffffffffffffffffffff16815260200190815260200160002060008373ffffffffffffffffffffffffffffffffffffffff1673ffffffffffffffffffffffffffffffffffffffff16815260200190815260200160002054905092915050565b600033905090565b600073ffffffffffffffffffffffffffffffffffffffff168373ffffffffffffffffffffffffffffffffffffffff161415610dc1576040517f08c379a0000000000000000000000000000000000000000000000000000000008152600401610db8906124c4565b60405180910390fd5b600073ffffffffffffffffffffffffffffffffffffffff168273ffffffffffffffffffffffffffffffffffffffff161415610e31576040517f08c379a0000000000000000000000000000000000000000000000000000000008152600401610e28906123a4565b60405180910390fd5b80600160008573ffffffffffffffffffffffffffffffffffffffff1673ffffffffffffffffffffffffffffffffffffffff16815260200190815260200160002060008473ffffffffffffffffffffffffffffffffffffffff1673ffffffffffffffffffffffffffffffffffffffff168152602001908152602001600020819055508173ffffffffffffffffffffffffffffffffffffffff168373ffffffffffffffffffffffffffffffffffffffff167f8c5be1e5ebec7d5bd14f71427d1e84f3dd0314c0f7b2291e5b200ac8c7c3b92583604051610f0f919061253f565b60405180910390a3505050565b6000610f288484610cc2565b90507fffffffffffffffffffffffffffffffffffffffffffffffffffffffffffffffff8114610fa25781811015610f94576040517f08c379a0000000000000000000000000000000000000000000000000000000008152600401610f8b906123c4565b60405180910390fd5b610fa18484848403610d51565b5b50505050565b600073ffffffffffffffffffffffffffffffffffffffff168373ffffffffffffffffffffffffffffffffffffffff161415611018576040517f08c379a000000000000000000000000000000000000000000000000000000000815260040161100f906124a4565b60405180910390fd5b600073ffffffffffffffffffffffffffffffffffffffff168273ffffffffffffffffffffffffffffffffffffffff161415611088576040517f08c379a000000000000000000000000000000000000000000000000000000000815260040161107f90612364565b60405180910390fd5b611093838383611a1c565b60008060008573ffffffffffffffffffffffffffffffffffffffff1673ffffffffffffffffffffffffffffffffffffffff16815260200190815260200160002054905081811015611119576040517f08c379a000000000000000000000000000000000000000000000000000000000815260040161111090612404565b60405180910390fd5b8181036000808673ffffffffffffffffffffffffffffffffffffffff1673ffffffffffffffffffffffffffffffffffffffff16815260200190815260200160002081905550816000808573ffffffffffffffffffffffffffffffffffffffff1673ffffffffffffffffffffffffffffffffffffffff16815260200190815260200160002060008282546111ac91906125e4565b925050819055508273ffffffffffffffffffffffffffffffffffffffff168473ffffffffffffffffffffffffffffffffffffffff167fddf252ad1be2c89b69c2b068fc378daa952ba7f163c4a11628f55a4df523b3ef84604051611210919061253f565b60405180910390a3611223848484611a21565b50505050565b600081600073ffffffffffffffffffffffffffffffffffffffff168173ffffffffffffffffffffffffffffffffffffffff16141561126657600080fd5b6000600960008573ffffffffffffffffffffffffffffffffffffffff1673ffffffffffffffffffffffffffffffffffffffff16815260200190815260200160002054905060008114156112bd576000925050611316565b60016007805490506112cf919061263a565b811115611311576040517f08c379a000000000000000000000000000000000000000000000000000000000815260040161130890612464565b60405180910390fd5b809250505b50919050565b600073ffffffffffffffffffffffffffffffffffffffff168273ffffffffffffffffffffffffffffffffffffffff16141561138c576040517f08c379a000000000000000000000000000000000000000000000000000000000815260040161138390612504565b60405180910390fd5b61139860008383611a1c565b80600260008282546113aa91906125e4565b92505081905550806000808473ffffffffffffffffffffffffffffffffffffffff1673ffffffffffffffffffffffffffffffffffffffff16815260200190815260200160002060008282546113ff91906125e4565b925050819055508173ffffffffffffffffffffffffffffffffffffffff16600073ffffffffffffffffffffffffffffffffffffffff167fddf252ad1be2c89b69c2b068fc378daa952ba7f163c4a11628f55a4df523b3ef83604051611464919061253f565b60405180910390a361147860008383611a21565b5050565b60007f000000000000000000000000000000000000000000000000000000000000000082101590506000600780549050905060008114156115cd5780806114c29061275c565b91505060076040518060c00160405280600073ffffffffffffffffffffffffffffffffffffffff1681526020016000815260200160008152602001600081526020016000815260200160001515815250908060018154018082558091505060019003906000526020600020906006020160009091909190915060008201518160000160006101000a81548173ffffffffffffffffffffffffffffffffffffffff021916908373ffffffffffffffffffffffffffffffffffffffff1602179055506020820151816001015560408201518160020155606082015181600301556080820151816004015560a08201518160050160006101000a81548160ff02191690831515021790555050505b60076040518060c001604052808673ffffffffffffffffffffffffffffffffffffffff1681526020018581526020018581526020016000815260200160008152602001841515815250908060018154018082558091505060019003906000526020600020906006020160009091909190915060008201518160000160006101000a81548173ffffffffffffffffffffffffffffffffffffffff021916908373ffffffffffffffffffffffffffffffffffffffff1602179055506020820151816001015560408201518160020155606082015181600301556080820151816004015560a08201518160050160006101000a81548160ff021916908315150217905550505080600960008673ffffffffffffffffffffffffffffffffffffffff1673ffffffffffffffffffffffffffffffffffffffff1681526020019081526020016000208190555061171f828583611a26565b5050505050565b600060078381548110611762577f4e487b7100000000000000000000000000000000000000000000000000000000600052603260045260246000fd5b906000526020600020906006020190508181600101600082825461178691906125e4565b92505081905550818160020160008282546117a191906125e4565b925050819055508060050160009054906101000a900460ff166118405760007f0000000000000000000000000000000000000000000000000000000000000000826001015410159050801561183e5760018260050160006101000a81548160ff02191690831515021790555061183c818360000160009054906101000a900473ffffffffffffffffffffffffffffffffffffffff1686611a26565b505b505b505050565b600073ffffffffffffffffffffffffffffffffffffffff168273ffffffffffffffffffffffffffffffffffffffff1614156118b5576040517f08c379a00000000000000000000000000000000000000000000000000000000081526004016118ac90612484565b60405180910390fd5b6118c182600083611a1c565b60008060008473ffffffffffffffffffffffffffffffffffffffff1673ffffffffffffffffffffffffffffffffffffffff16815260200190815260200160002054905081811015611947576040517f08c379a000000000000000000000000000000000000000000000000000000000815260040161193e90612384565b60405180910390fd5b8181036000808573ffffffffffffffffffffffffffffffffffffffff1673ffffffffffffffffffffffffffffffffffffffff16815260200190815260200160002081905550816002600082825461199e919061263a565b92505081905550600073ffffffffffffffffffffffffffffffffffffffff168373ffffffffffffffffffffffffffffffffffffffff167fddf252ad1be2c89b69c2b068fc378daa952ba7f163c4a11628f55a4df523b3ef84604051611a03919061253f565b60405180910390a3611a1783600084611a21565b505050565b505050565b505050565b600083611a365760009050611ae6565b6000600860008573ffffffffffffffffffffffffffffffffffffffff1673ffffffffffffffffffffffffffffffffffffffff1681526020019081526020016000205490506000811415611ae05782600860008673ffffffffffffffffffffffffffffffffffffffff1673ffffffffffffffffffffffffffffffffffffffff1681526020019081526020016000208190555060056000815480929190611ada9061275c565b91905055505b60019150505b9392505050565b6040518060a0016040528060008019168152602001600081526020016000815260200160008152602001600073ffffffffffffffffffffffffffffffffffffffff1681525090565b600081359050611b4481612814565b92915050565b600081359050611b598161282b565b92915050565b600081519050611b6e8161282b565b92915050565b600060208284031215611b8657600080fd5b6000611b9484828501611b35565b91505092915050565b60008060408385031215611bb057600080fd5b6000611bbe85828601611b35565b9250506020611bcf85828601611b35565b9150509250929050565b600080600060608486031215611bee57600080fd5b6000611bfc86828701611b35565b9350506020611c0d86828701611b35565b9250506040611c1e86828701611b4a565b9150509250925092565b60008060408385031215611c3b57600080fd5b6000611c4985828601611b35565b9250506020611c5a85828601611b4a565b9150509250929050565b600060208284031215611c7657600080fd5b6000611c8484828501611b4a565b91505092915050565b600060208284031215611c9f57600080fd5b6000611cad84828501611b5f565b91505092915050565b611cbf8161266e565b82525050565b611cce8161266e565b82525050565b611cdd81612680565b82525050565b611cec8161268c565b82525050565b611cfb8161268c565b82525050565b6000611d0c826125c8565b611d1681856125d3565b9350611d268185602086016126cd565b611d2f81612803565b840191505092915050565b6000611d476023836125d3565b91507f45524332303a207472616e7366657220746f20746865207a65726f206164647260008301527f65737300000000000000000000000000000000000000000000000000000000006020830152604082019050919050565b6000611dad6022836125d3565b91507f45524332303a206275726e20616d6f756e7420657863656564732062616c616e60008301527f63650000000000000000000000000000000000000000000000000000000000006020830152604082019050919050565b6000611e136022836125d3565b91507f45524332303a20617070726f766520746f20746865207a65726f20616464726560008301527f73730000000000000000000000000000000000000000000000000000000000006020830152604082019050919050565b6000611e79601d836125d3565b91507f45524332303a20696e73756666696369656e7420616c6c6f77616e63650000006000830152602082019050919050565b6000611eb96022836125d3565b91507f496e73756666696369656e742062616c616e636520666f7220756e7374616b6960008301527f6e670000000000000000000000000000000000000000000000000000000000006020830152604082019050919050565b6000611f1f6026836125d3565b91507f45524332303a207472616e7366657220616d6f756e742065786365656473206260008301527f616c616e636500000000000000000000000000000000000000000000000000006020830152604082019050919050565b6000611f856020836125d3565b91507f496e73756666696369656e742062616c616e636520666f72207374616b696e676000830152602082019050919050565b6000611fc56025836125d3565b91507f41646472657373206e6f74206c696e6b656420746f20616e79207374616b656860008301527f6f6c6465720000000000000000000000000000000000000000000000000000006020830152604082019050919050565b600061202b6029836125d3565b91507f496e76616c696420696e64657820666f72207374616b65686f6c64657273206360008301527f6f6c6c656374696f6e00000000000000000000000000000000000000000000006020830152604082019050919050565b60006120916021836125d3565b91507f45524332303a206275726e2066726f6d20746865207a65726f2061646472657360008301527f73000000000000000000000000000000000000000000000000000000000000006020830152604082019050919050565b60006120f76025836125d3565b91507f45524332303a207472616e736665722066726f6d20746865207a65726f20616460008301527f64726573730000000000000000000000000000000000000000000000000000006020830152604082019050919050565b600061215d6024836125d3565b91507f45524332303a20617070726f76652066726f6d20746865207a65726f2061646460008301527f72657373000000000000000000000000000000000000000000000000000000006020830152604082019050919050565b60006121c36025836125d3565b91507f45524332303a2064656372656173656420616c6c6f77616e63652062656c6f7760008301527f207a65726f0000000000000000000000000000000000000000000000000000006020830152604082019050919050565b6000612229601f836125d3565b91507f45524332303a206d696e7420746f20746865207a65726f2061646472657373006000830152602082019050919050565b60a0820160008201516122726000850182611ce3565b50602082015161228560208501826122c4565b50604082015161229860408501826122c4565b5060608201516122ab60608501826122c4565b5060808201516122be6080850182611cb6565b50505050565b6122cd816126b6565b82525050565b6122dc816126b6565b82525050565b6122eb816126c0565b82525050565b60006020820190506123066000830184611cc5565b92915050565b60006020820190506123216000830184611cd4565b92915050565b600060208201905061233c6000830184611cf2565b92915050565b6000602082019050818103600083015261235c8184611d01565b905092915050565b6000602082019050818103600083015261237d81611d3a565b9050919050565b6000602082019050818103600083015261239d81611da0565b9050919050565b600060208201905081810360008301526123bd81611e06565b9050919050565b600060208201905081810360008301526123dd81611e6c565b9050919050565b600060208201905081810360008301526123fd81611eac565b9050919050565b6000602082019050818103600083015261241d81611f12565b9050919050565b6000602082019050818103600083015261243d81611f78565b9050919050565b6000602082019050818103600083015261245d81611fb8565b9050919050565b6000602082019050818103600083015261247d8161201e565b9050919050565b6000602082019050818103600083015261249d81612084565b9050919050565b600060208201905081810360008301526124bd816120ea565b9050919050565b600060208201905081810360008301526124dd81612150565b9050919050565b600060208201905081810360008301526124fd816121b6565b9050919050565b6000602082019050818103600083015261251d8161221c565b9050919050565b600060a082019050612539600083018461225c565b92915050565b600060208201905061255460008301846122d3565b92915050565b600060a08201905061256f60008301886122d3565b61257c60208301876122d3565b61258960408301866122d3565b61259660608301856122d3565b6125a36080830184611cd4565b9695505050505050565b60006020820190506125c260008301846122e2565b92915050565b600081519050919050565b600082825260208201905092915050565b60006125ef826126b6565b91506125fa836126b6565b9250827fffffffffffffffffffffffffffffffffffffffffffffffffffffffffffffffff0382111561262f5761262e6127a5565b5b828201905092915050565b6000612645826126b6565b9150612650836126b6565b925082821015612663576126626127a5565b5b828203905092915050565b600061267982612696565b9050919050565b60008115159050919050565b6000819050919050565b600073ffffffffffffffffffffffffffffffffffffffff82169050919050565b6000819050919050565b600060ff82169050919050565b60005b838110156126eb5780820151818401526020810190506126d0565b838111156126fa576000848401525b50505050565b600061270b826126b6565b9150600082141561271f5761271e6127a5565b5b600182039050919050565b6000600282049050600182168061274257607f821691505b60208210811415612756576127556127d4565b5b50919050565b6000612767826126b6565b91507fffffffffffffffffffffffffffffffffffffffffffffffffffffffffffffffff82141561279a576127996127a5565b5b600182019050919050565b7f4e487b7100000000000000000000000000000000000000000000000000000000600052601160045260246000fd5b7f4e487b7100000000000000000000000000000000000000000000000000000000600052602260045260246000fd5b6000601f19601f8301169050919050565b61281d8161266e565b811461282857600080fd5b50565b612834816126b6565b811461283f57600080fd5b5056fea2646970667358221220f2220e5351534c3cb722f1530ab02d3b3bc4dd2fa23971398c7de102089da60764736f6c63430008000033",
  "immutableReferences": {
    "1748": [
      {
        "length": 32,
        "start": 1828
      },
      {
        "length": 32,
        "start": 5248
      },
      {
        "length": 32,
        "start": 6082
      }
    ]
  },
  "source": "pragma solidity ^0.8.0;\r\n\r\nimport \"@openzeppelin/contracts/token/ERC20/ERC20.sol\";\r\nimport \"../Interfaces/IStakable.sol\";\r\nimport \"../utils/NominatingStakeholders.sol\";\r\nimport \"../utils/Eras.sol\";\r\nimport \"../Interfaces/IProofOfStake.sol\";\r\n\r\ncontract ERC20Stakable is IProofOfStake, IStakable, ERC20 {\r\n    uint256 immutable _minStakedAmountForValidation;\r\n    uint256 private _validatorsCount;\r\n    uint256 private _erasCount;\r\n    Stakeholders.Stakeholder[] private _stakeholders;\r\n    mapping(address => uint256) private _validatorsStakeholderIndexes;\r\n    mapping(address => uint256) private _stakeholdersIndexes;\r\n    mapping(bytes32 => Eras.Era) private _eras;\r\n    Eras.Era private _currentErra;\r\n\r\n    constructor(\r\n        string memory name_,\r\n        string memory symbol_,\r\n        uint256 minStakedAmountForValidation_\r\n    ) ERC20(name_, symbol_) {\r\n        _minStakedAmountForValidation = minStakedAmountForValidation_;\r\n        _validatorsCount = 0;\r\n        _erasCount = 0;\r\n    }\r\n\r\n    modifier notNullAddress(address address_) {\r\n        require(address_ != address(0));\r\n        _;\r\n    }\r\n\r\n    function getStakedAmount(address address_)\r\n        external\r\n        view\r\n        override\r\n        notNullAddress(address_)\r\n        returns (uint256)\r\n    {\r\n        uint256 stakeholderIndex = _getStakeholderIndex(address_);\r\n        if (stakeholderIndex == 0) {\r\n            //no stakeholder registered\r\n            return 0;\r\n        }\r\n        Stakeholders.Stakeholder storage stakeholder = _stakeholders[\r\n            stakeholderIndex\r\n        ];\r\n        return stakeholder.totalAmount;\r\n    }\r\n\r\n    function getStakeholderInformation(address address_)\r\n        external\r\n        view\r\n        override\r\n        returns (\r\n            uint256,\r\n            uint256,\r\n            uint256,\r\n            uint256,\r\n            bool\r\n        )\r\n    {\r\n        uint256 stakeholderIndex = _getStakeholderIndex(address_);\r\n\r\n        require(stakeholderIndex > 0, \"Address not linked to any stakeholder\");\r\n\r\n        Stakeholders.Stakeholder storage stakeholder = _stakeholders[\r\n            stakeholderIndex\r\n        ];\r\n\r\n        return (\r\n            stakeholder.totalAmount,\r\n            stakeholder.ownedAmount,\r\n            stakeholder.nominatedAmount,\r\n            stakeholder.nominatorsCount,\r\n            stakeholder.canValidate\r\n        );\r\n    }\r\n\r\n    function stake(uint256 amount_) external override {\r\n        address stakeholderAddress = msg.sender;\r\n\r\n        //fisrst check if the caller has at least amount_ tokens\r\n        uint256 balance = this.balanceOf(stakeholderAddress);\r\n\r\n        require(balance >= amount_, \"Insufficient balance for staking\");\r\n        //second check if stakeholder exist\r\n        uint256 stakeholderIndex = _getStakeholderIndex(stakeholderAddress);\r\n        if (stakeholderIndex == 0) {\r\n            //stakeholder does not exists. Create new one and stake the amout\r\n            _createNewStakeholder(stakeholderAddress, amount_);\r\n        } else {\r\n            _stakeholderUpdateOwnStakedAmount(stakeholderIndex, amount_);\r\n        }\r\n\r\n        //burn tokens from balance\r\n        _burn(stakeholderAddress, amount_);\r\n    }\r\n\r\n    function unstake(uint256 amount_) external override {\r\n        address stakeholderAddress = msg.sender;\r\n        uint256 stakeholderIndex = _stakeholdersIndexes[stakeholderAddress];\r\n        if (stakeholderIndex == 0) {\r\n            // this user no longer have any staked ammount\r\n            return;\r\n        }\r\n\r\n        Stakeholders.Stakeholder storage stakeholder = _stakeholders[\r\n            stakeholderIndex\r\n        ];\r\n        require(\r\n            stakeholder.totalAmount >= amount_,\r\n            \"Insufficient balance for unstaking\"\r\n        );\r\n\r\n        uint256 newAmount = stakeholder.totalAmount -= amount_;\r\n\r\n        stakeholder.totalAmount = newAmount;\r\n        stakeholder.ownedAmount = newAmount;\r\n\r\n        if (newAmount >= _minStakedAmountForValidation) {\r\n            stakeholder.canValidate = true;\r\n        } else {\r\n            stakeholder.canValidate = false;\r\n            _validatorsCount--;\r\n        }\r\n\r\n        //mint amount_ tokes to address\r\n        _mint(stakeholderAddress, amount_);\r\n    }\r\n\r\n    function _getStakeholderIndex(address address_)\r\n        internal\r\n        view\r\n        virtual\r\n        notNullAddress(address_)\r\n        returns (uint256)\r\n    {\r\n        uint256 stakeholderIndex = _stakeholdersIndexes[address_];\r\n        if (stakeholderIndex == 0) return 0;\r\n        require(\r\n            stakeholderIndex <= _stakeholders.length - 1,\r\n            \"Invalid index for stakeholders collection\"\r\n        );\r\n\r\n        return stakeholderIndex;\r\n    }\r\n\r\n    function _createNewStakeholder(address address_, uint256 amount_)\r\n        internal\r\n        virtual\r\n    {\r\n        bool canValidate = amount_ >= _minStakedAmountForValidation;\r\n        uint256 newStakeholderIndex = _stakeholders.length;\r\n\r\n        if (newStakeholderIndex == 0) {\r\n            newStakeholderIndex++;\r\n            // this is very first stakeholder. Create a fake one at index 0.\r\n            _stakeholders.push(\r\n                Stakeholders.Stakeholder({\r\n                    user: address(0),\r\n                    totalAmount: 0,\r\n                    ownedAmount: 0,\r\n                    nominatedAmount: 0,\r\n                    nominatorsCount: 0,\r\n                    canValidate: false\r\n                })\r\n            );\r\n        }\r\n\r\n        _stakeholders.push(\r\n            Stakeholders.Stakeholder({\r\n                user: address_,\r\n                totalAmount: amount_,\r\n                ownedAmount: amount_,\r\n                nominatedAmount: 0,\r\n                nominatorsCount: 0,\r\n                canValidate: canValidate\r\n            })\r\n        );\r\n\r\n        _stakeholdersIndexes[address_] = newStakeholderIndex;\r\n        _tryRecordStakeholderAsNewValidator(\r\n            canValidate,\r\n            address_,\r\n            newStakeholderIndex\r\n        );\r\n    }\r\n\r\n    function _stakeholderUpdateOwnStakedAmount(\r\n        uint256 stakeholderIndex_,\r\n        uint256 amount_\r\n    ) internal virtual {\r\n        Stakeholders.Stakeholder storage stakeHolder = _stakeholders[\r\n            stakeholderIndex_\r\n        ];\r\n\r\n        stakeHolder.totalAmount += amount_;\r\n        stakeHolder.ownedAmount += amount_;\r\n\r\n        if (!stakeHolder.canValidate) {\r\n            //check if he can now\r\n            bool canValidate = stakeHolder.totalAmount >=\r\n                _minStakedAmountForValidation;\r\n\r\n            if (canValidate) {\r\n                stakeHolder.canValidate = true;\r\n\r\n                _tryRecordStakeholderAsNewValidator(\r\n                    canValidate,\r\n                    stakeHolder.user,\r\n                    stakeholderIndex_\r\n                );\r\n            }\r\n        }\r\n    }\r\n\r\n    function _tryRecordStakeholderAsNewValidator(\r\n        bool canValidate_,\r\n        address address_,\r\n        uint256 validatorIndex_\r\n    ) internal returns (bool) {\r\n        if (!canValidate_) {\r\n            return false;\r\n        }\r\n        uint256 validatorIndex = _validatorsStakeholderIndexes[address_];\r\n        if (validatorIndex == 0) {\r\n            //we don't have any valid validator\r\n            _validatorsStakeholderIndexes[address_] = validatorIndex_;\r\n            _validatorsCount++;\r\n        }\r\n        //else validator already exist in records\r\n        return true;\r\n    }\r\n\r\n    //** for INTERFACE !!! */\r\n    function getValidatorsCount() external view override returns (uint256) {\r\n        return _validatorsCount;\r\n    }\r\n\r\n    function getCurrentEra()\r\n        external\r\n        view\r\n        override\r\n        returns (Eras.Era memory currentEra)\r\n    {\r\n        return _currentErra;\r\n    }\r\n\r\n    function getErasCount() external view override returns (uint256) {\r\n        return _erasCount;\r\n    }\r\n\r\n    function electNewChairman() external returns (address) {}\r\n\r\n    function startNewEra() external returns (bytes32) {}\r\n}\r\n",
  "sourcePath": "D:\\Documents\\Dev\\Repositories\\gold-price-oracle\\gold-price-oracle\\on-chain\\contracts\\token\\base\\ERC20Stakable.sol",
  "compiler": {
    "name": "solc",
    "version": "0.8.0+commit.c7dfd78e.Emscripten.clang"
  },
  "schemaVersion": "3.4.3",
  "updatedAt": "2022-03-04T09:26:19.024Z",
  "devdoc": {
    "kind": "dev",
    "methods": {
      "allowance(address,address)": {
        "details": "See {IERC20-allowance}."
      },
      "approve(address,uint256)": {
        "details": "See {IERC20-approve}. NOTE: If `amount` is the maximum `uint256`, the allowance is not updated on `transferFrom`. This is semantically equivalent to an infinite approval. Requirements: - `spender` cannot be the zero address."
      },
      "balanceOf(address)": {
        "details": "See {IERC20-balanceOf}."
      },
      "decimals()": {
        "details": "Returns the number of decimals used to get its user representation. For example, if `decimals` equals `2`, a balance of `505` tokens should be displayed to a user as `5.05` (`505 / 10 ** 2`). Tokens usually opt for a value of 18, imitating the relationship between Ether and Wei. This is the value {ERC20} uses, unless this function is overridden; NOTE: This information is only used for _display_ purposes: it in no way affects any of the arithmetic of the contract, including {IERC20-balanceOf} and {IERC20-transfer}."
      },
      "decreaseAllowance(address,uint256)": {
        "details": "Atomically decreases the allowance granted to `spender` by the caller. This is an alternative to {approve} that can be used as a mitigation for problems described in {IERC20-approve}. Emits an {Approval} event indicating the updated allowance. Requirements: - `spender` cannot be the zero address. - `spender` must have allowance for the caller of at least `subtractedValue`."
      },
      "increaseAllowance(address,uint256)": {
        "details": "Atomically increases the allowance granted to `spender` by the caller. This is an alternative to {approve} that can be used as a mitigation for problems described in {IERC20-approve}. Emits an {Approval} event indicating the updated allowance. Requirements: - `spender` cannot be the zero address."
      },
      "name()": {
        "details": "Returns the name of the token."
      },
      "symbol()": {
        "details": "Returns the symbol of the token, usually a shorter version of the name."
      },
      "totalSupply()": {
        "details": "See {IERC20-totalSupply}."
      },
      "transfer(address,uint256)": {
        "details": "See {IERC20-transfer}. Requirements: - `to` cannot be the zero address. - the caller must have a balance of at least `amount`."
      },
      "transferFrom(address,address,uint256)": {
        "details": "See {IERC20-transferFrom}. Emits an {Approval} event indicating the updated allowance. This is not required by the EIP. See the note at the beginning of {ERC20}. NOTE: Does not update the allowance if the current allowance is the maximum `uint256`. Requirements: - `from` and `to` cannot be the zero address. - `from` must have a balance of at least `amount`. - the caller must have allowance for ``from``'s tokens of at least `amount`."
      }
    },
    "version": 1
  },
  "userdoc": {
    "kind": "user",
    "methods": {},
    "version": 1
  }
}