{
  "contractName": "ERC20ProofOfStake",
  "abi": [
    {
      "inputs": [
        {
          "internalType": "string",
          "name": "name_",
          "type": "string"
        },
        {
          "internalType": "string",
          "name": "symbol_",
          "type": "string"
        },
        {
          "internalType": "uint256",
          "name": "minStakedAmountForValidation_",
          "type": "uint256"
        },
        {
          "internalType": "uint256",
          "name": "rewardForValidatorsAfterEachEra_",
          "type": "uint256"
        }
      ],
      "stateMutability": "nonpayable",
      "type": "constructor"
    },
    {
      "anonymous": false,
      "inputs": [
        {
          "indexed": true,
          "internalType": "address",
          "name": "owner",
          "type": "address"
        },
        {
          "indexed": true,
          "internalType": "address",
          "name": "spender",
          "type": "address"
        },
        {
          "indexed": false,
          "internalType": "uint256",
          "name": "value",
          "type": "uint256"
        }
      ],
      "name": "Approval",
      "type": "event"
    },
    {
      "anonymous": false,
      "inputs": [
        {
          "indexed": false,
          "internalType": "bytes32",
          "name": "eraId",
          "type": "bytes32"
        },
        {
          "indexed": false,
          "internalType": "address",
          "name": "chairman",
          "type": "address"
        },
        {
          "indexed": false,
          "internalType": "uint256",
          "name": "timestap",
          "type": "uint256"
        }
      ],
      "name": "EndEraByNewElectedChairman",
      "type": "event"
    },
    {
      "anonymous": false,
      "inputs": [
        {
          "indexed": false,
          "internalType": "bytes32",
          "name": "eraId",
          "type": "bytes32"
        },
        {
          "indexed": false,
          "internalType": "address",
          "name": "chairman",
          "type": "address"
        },
        {
          "indexed": false,
          "internalType": "address[]",
          "name": "council",
          "type": "address[]"
        },
        {
          "indexed": false,
          "internalType": "uint256",
          "name": "validatorsCount",
          "type": "uint256"
        },
        {
          "indexed": false,
          "internalType": "uint256",
          "name": "calculatedSeed",
          "type": "uint256"
        }
      ],
      "name": "NewEraElecationProposal",
      "type": "event"
    },
    {
      "anonymous": false,
      "inputs": [
        {
          "components": [
            {
              "internalType": "bytes32",
              "name": "id",
              "type": "bytes32"
            },
            {
              "internalType": "bytes32",
              "name": "previousEraId",
              "type": "bytes32"
            },
            {
              "internalType": "uint256",
              "name": "colectedFeesAmount",
              "type": "uint256"
            },
            {
              "internalType": "uint256",
              "name": "startDate",
              "type": "uint256"
            },
            {
              "internalType": "uint256",
              "name": "endDate",
              "type": "uint256"
            },
            {
              "internalType": "address",
              "name": "chairman",
              "type": "address"
            },
            {
              "internalType": "uint256",
              "name": "requiredQuorum",
              "type": "uint256"
            },
            {
              "internalType": "bool",
              "name": "isQuorumReached",
              "type": "bool"
            },
            {
              "internalType": "uint256",
              "name": "possitiveVotes",
              "type": "uint256"
            },
            {
              "internalType": "uint256",
              "name": "negativeVotes",
              "type": "uint256"
            },
            {
              "internalType": "bool",
              "name": "accepted",
              "type": "bool"
            },
            {
              "internalType": "bool",
              "name": "ended",
              "type": "bool"
            },
            {
              "internalType": "uint256",
              "name": "totalWeightOfVotingCoucil",
              "type": "uint256"
            }
          ],
          "indexed": false,
          "internalType": "struct Eras.Era",
          "name": "era",
          "type": "tuple"
        }
      ],
      "name": "NewEraElectionComplited",
      "type": "event"
    },
    {
      "anonymous": false,
      "inputs": [
        {
          "indexed": true,
          "internalType": "address",
          "name": "from",
          "type": "address"
        },
        {
          "indexed": true,
          "internalType": "address",
          "name": "to",
          "type": "address"
        },
        {
          "indexed": false,
          "internalType": "uint256",
          "name": "value",
          "type": "uint256"
        }
      ],
      "name": "Transfer",
      "type": "event"
    },
    {
      "inputs": [
        {
          "internalType": "address",
          "name": "owner",
          "type": "address"
        },
        {
          "internalType": "address",
          "name": "spender",
          "type": "address"
        }
      ],
      "name": "allowance",
      "outputs": [
        {
          "internalType": "uint256",
          "name": "",
          "type": "uint256"
        }
      ],
      "stateMutability": "view",
      "type": "function"
    },
    {
      "inputs": [
        {
          "internalType": "address",
          "name": "spender",
          "type": "address"
        },
        {
          "internalType": "uint256",
          "name": "amount",
          "type": "uint256"
        }
      ],
      "name": "approve",
      "outputs": [
        {
          "internalType": "bool",
          "name": "",
          "type": "bool"
        }
      ],
      "stateMutability": "nonpayable",
      "type": "function"
    },
    {
      "inputs": [
        {
          "internalType": "address",
          "name": "account",
          "type": "address"
        }
      ],
      "name": "balanceOf",
      "outputs": [
        {
          "internalType": "uint256",
          "name": "",
          "type": "uint256"
        }
      ],
      "stateMutability": "view",
      "type": "function"
    },
    {
      "inputs": [],
      "name": "decimals",
      "outputs": [
        {
          "internalType": "uint8",
          "name": "",
          "type": "uint8"
        }
      ],
      "stateMutability": "view",
      "type": "function"
    },
    {
      "inputs": [
        {
          "internalType": "address",
          "name": "spender",
          "type": "address"
        },
        {
          "internalType": "uint256",
          "name": "subtractedValue",
          "type": "uint256"
        }
      ],
      "name": "decreaseAllowance",
      "outputs": [
        {
          "internalType": "bool",
          "name": "",
          "type": "bool"
        }
      ],
      "stateMutability": "nonpayable",
      "type": "function"
    },
    {
      "inputs": [
        {
          "internalType": "address",
          "name": "address_",
          "type": "address"
        }
      ],
      "name": "getStakedAmount",
      "outputs": [
        {
          "internalType": "uint256",
          "name": "",
          "type": "uint256"
        }
      ],
      "stateMutability": "view",
      "type": "function"
    },
    {
      "inputs": [
        {
          "internalType": "address",
          "name": "address_",
          "type": "address"
        }
      ],
      "name": "getStakeholderInformation",
      "outputs": [
        {
          "internalType": "uint256",
          "name": "",
          "type": "uint256"
        },
        {
          "internalType": "uint256",
          "name": "",
          "type": "uint256"
        },
        {
          "internalType": "uint256",
          "name": "",
          "type": "uint256"
        },
        {
          "internalType": "uint256",
          "name": "",
          "type": "uint256"
        },
        {
          "internalType": "bool",
          "name": "",
          "type": "bool"
        },
        {
          "internalType": "uint256",
          "name": "",
          "type": "uint256"
        }
      ],
      "stateMutability": "view",
      "type": "function"
    },
    {
      "inputs": [],
      "name": "getStakeholders",
      "outputs": [
        {
          "components": [
            {
              "internalType": "address",
              "name": "user",
              "type": "address"
            },
            {
              "internalType": "uint256",
              "name": "totalAmount",
              "type": "uint256"
            },
            {
              "internalType": "uint256",
              "name": "ownedAmount",
              "type": "uint256"
            },
            {
              "internalType": "uint256",
              "name": "nominatedAmount",
              "type": "uint256"
            },
            {
              "internalType": "uint256",
              "name": "nominatorsCount",
              "type": "uint256"
            },
            {
              "internalType": "bool",
              "name": "canValidate",
              "type": "bool"
            },
            {
              "internalType": "uint256",
              "name": "notCollectedTokenRewards",
              "type": "uint256"
            }
          ],
          "internalType": "struct Stakeholders.Stakeholder[]",
          "name": "stakeholders",
          "type": "tuple[]"
        }
      ],
      "stateMutability": "view",
      "type": "function"
    },
    {
      "inputs": [
        {
          "internalType": "address",
          "name": "spender",
          "type": "address"
        },
        {
          "internalType": "uint256",
          "name": "addedValue",
          "type": "uint256"
        }
      ],
      "name": "increaseAllowance",
      "outputs": [
        {
          "internalType": "bool",
          "name": "",
          "type": "bool"
        }
      ],
      "stateMutability": "nonpayable",
      "type": "function"
    },
    {
      "inputs": [],
      "name": "name",
      "outputs": [
        {
          "internalType": "string",
          "name": "",
          "type": "string"
        }
      ],
      "stateMutability": "view",
      "type": "function"
    },
    {
      "inputs": [
        {
          "internalType": "uint256",
          "name": "amount_",
          "type": "uint256"
        }
      ],
      "name": "stake",
      "outputs": [],
      "stateMutability": "nonpayable",
      "type": "function"
    },
    {
      "inputs": [],
      "name": "symbol",
      "outputs": [
        {
          "internalType": "string",
          "name": "",
          "type": "string"
        }
      ],
      "stateMutability": "view",
      "type": "function"
    },
    {
      "inputs": [],
      "name": "totalSupply",
      "outputs": [
        {
          "internalType": "uint256",
          "name": "",
          "type": "uint256"
        }
      ],
      "stateMutability": "view",
      "type": "function"
    },
    {
      "inputs": [
        {
          "internalType": "address",
          "name": "to",
          "type": "address"
        },
        {
          "internalType": "uint256",
          "name": "amount",
          "type": "uint256"
        }
      ],
      "name": "transfer",
      "outputs": [
        {
          "internalType": "bool",
          "name": "",
          "type": "bool"
        }
      ],
      "stateMutability": "nonpayable",
      "type": "function"
    },
    {
      "inputs": [
        {
          "internalType": "address",
          "name": "from",
          "type": "address"
        },
        {
          "internalType": "address",
          "name": "to",
          "type": "address"
        },
        {
          "internalType": "uint256",
          "name": "amount",
          "type": "uint256"
        }
      ],
      "name": "transferFrom",
      "outputs": [
        {
          "internalType": "bool",
          "name": "",
          "type": "bool"
        }
      ],
      "stateMutability": "nonpayable",
      "type": "function"
    },
    {
      "inputs": [
        {
          "internalType": "uint256",
          "name": "amount_",
          "type": "uint256"
        }
      ],
      "name": "unstake",
      "outputs": [],
      "stateMutability": "nonpayable",
      "type": "function"
    },
    {
      "inputs": [],
      "name": "getValidatorsCount",
      "outputs": [
        {
          "internalType": "uint256",
          "name": "",
          "type": "uint256"
        }
      ],
      "stateMutability": "view",
      "type": "function"
    },
    {
      "inputs": [],
      "name": "getCurrentEra",
      "outputs": [
        {
          "components": [
            {
              "internalType": "bytes32",
              "name": "id",
              "type": "bytes32"
            },
            {
              "internalType": "bytes32",
              "name": "previousEraId",
              "type": "bytes32"
            },
            {
              "internalType": "uint256",
              "name": "colectedFeesAmount",
              "type": "uint256"
            },
            {
              "internalType": "uint256",
              "name": "startDate",
              "type": "uint256"
            },
            {
              "internalType": "uint256",
              "name": "endDate",
              "type": "uint256"
            },
            {
              "internalType": "address",
              "name": "chairman",
              "type": "address"
            },
            {
              "internalType": "uint256",
              "name": "requiredQuorum",
              "type": "uint256"
            },
            {
              "internalType": "bool",
              "name": "isQuorumReached",
              "type": "bool"
            },
            {
              "internalType": "uint256",
              "name": "possitiveVotes",
              "type": "uint256"
            },
            {
              "internalType": "uint256",
              "name": "negativeVotes",
              "type": "uint256"
            },
            {
              "internalType": "bool",
              "name": "accepted",
              "type": "bool"
            },
            {
              "internalType": "bool",
              "name": "ended",
              "type": "bool"
            },
            {
              "internalType": "uint256",
              "name": "totalWeightOfVotingCoucil",
              "type": "uint256"
            }
          ],
          "internalType": "struct Eras.Era",
          "name": "currentEra",
          "type": "tuple"
        }
      ],
      "stateMutability": "view",
      "type": "function"
    },
    {
      "inputs": [],
      "name": "getErasCount",
      "outputs": [
        {
          "internalType": "uint256",
          "name": "",
          "type": "uint256"
        }
      ],
      "stateMutability": "view",
      "type": "function"
    },
    {
      "inputs": [
        {
          "internalType": "uint256",
          "name": "timestamp",
          "type": "uint256"
        }
      ],
      "name": "endEra",
      "outputs": [],
      "stateMutability": "nonpayable",
      "type": "function"
    },
    {
      "inputs": [
        {
          "internalType": "bytes32",
          "name": "eraId_",
          "type": "bytes32"
        },
        {
          "internalType": "address",
          "name": "chairman_",
          "type": "address"
        },
        {
          "internalType": "address[]",
          "name": "coucil_",
          "type": "address[]"
        },
        {
          "internalType": "uint256",
          "name": "utcTimeStamp_",
          "type": "uint256"
        },
        {
          "internalType": "uint256",
          "name": "calculatedSeed_",
          "type": "uint256"
        }
      ],
      "name": "proposeNewEra",
      "outputs": [],
      "stateMutability": "nonpayable",
      "type": "function"
    },
    {
      "inputs": [
        {
          "internalType": "bytes32",
          "name": "eraId",
          "type": "bytes32"
        },
        {
          "internalType": "bool",
          "name": "approves",
          "type": "bool"
        }
      ],
      "name": "voteForProposedEra",
      "outputs": [],
      "stateMutability": "nonpayable",
      "type": "function"
    },
    {
      "inputs": [
        {
          "internalType": "bytes32",
          "name": "eraId_",
          "type": "bytes32"
        }
      ],
      "name": "getEraById",
      "outputs": [
        {
          "components": [
            {
              "internalType": "bytes32",
              "name": "id",
              "type": "bytes32"
            },
            {
              "internalType": "bytes32",
              "name": "previousEraId",
              "type": "bytes32"
            },
            {
              "internalType": "uint256",
              "name": "colectedFeesAmount",
              "type": "uint256"
            },
            {
              "internalType": "uint256",
              "name": "startDate",
              "type": "uint256"
            },
            {
              "internalType": "uint256",
              "name": "endDate",
              "type": "uint256"
            },
            {
              "internalType": "address",
              "name": "chairman",
              "type": "address"
            },
            {
              "internalType": "uint256",
              "name": "requiredQuorum",
              "type": "uint256"
            },
            {
              "internalType": "bool",
              "name": "isQuorumReached",
              "type": "bool"
            },
            {
              "internalType": "uint256",
              "name": "possitiveVotes",
              "type": "uint256"
            },
            {
              "internalType": "uint256",
              "name": "negativeVotes",
              "type": "uint256"
            },
            {
              "internalType": "bool",
              "name": "accepted",
              "type": "bool"
            },
            {
              "internalType": "bool",
              "name": "ended",
              "type": "bool"
            },
            {
              "internalType": "uint256",
              "name": "totalWeightOfVotingCoucil",
              "type": "uint256"
            }
          ],
          "internalType": "struct Eras.Era",
          "name": "era",
          "type": "tuple"
        }
      ],
      "stateMutability": "view",
      "type": "function"
    },
    {
      "inputs": [],
      "name": "getValidatorsCoundForActiveEra",
      "outputs": [
        {
          "internalType": "uint256",
          "name": "",
          "type": "uint256"
        }
      ],
      "stateMutability": "view",
      "type": "function"
    },
    {
      "inputs": [
        {
          "internalType": "address",
          "name": "address_",
          "type": "address"
        }
      ],
      "name": "isAddressElectedForValidation",
      "outputs": [
        {
          "internalType": "bool",
          "name": "",
          "type": "bool"
        }
      ],
      "stateMutability": "view",
      "type": "function"
    },
    {
      "inputs": [],
      "name": "getLastApprovedEraId",
      "outputs": [
        {
          "internalType": "bytes32",
          "name": "",
          "type": "bytes32"
        }
      ],
      "stateMutability": "view",
      "type": "function"
    },
    {
      "inputs": [
        {
          "internalType": "uint256",
          "name": "timestamp",
          "type": "uint256"
        }
      ],
      "name": "endEraBackDoor",
      "outputs": [],
      "stateMutability": "nonpayable",
      "type": "function"
    },
    {
      "inputs": [],
      "name": "callEndEraBackDoor",
      "outputs": [],
      "stateMutability": "nonpayable",
      "type": "function"
    }
  ],
  "bytecode": "0x60c06040523480156200001157600080fd5b5060405162005631380380620056318339818101604052810190620000379190620001ce565b838383828281600390805190602001906200005492919062000095565b5080600490805190602001906200006d92919062000095565b505050806080818152505060006005819055505050508060a0818152505050505050620003c1565b828054620000a39062000313565b90600052602060002090601f016020900481019282620000c7576000855562000113565b82601f10620000e257805160ff191683800117855562000113565b8280016001018555821562000113579182015b8281111562000112578251825591602001919060010190620000f5565b5b50905062000122919062000126565b5090565b5b808211156200014157600081600090555060010162000127565b5090565b60006200015c6200015684620002a0565b6200026c565b9050828152602081018484840111156200017557600080fd5b62000182848285620002dd565b509392505050565b600082601f8301126200019c57600080fd5b8151620001ae84826020860162000145565b91505092915050565b600081519050620001c881620003a7565b92915050565b60008060008060808587031215620001e557600080fd5b600085015167ffffffffffffffff8111156200020057600080fd5b6200020e878288016200018a565b945050602085015167ffffffffffffffff8111156200022c57600080fd5b6200023a878288016200018a565b93505060406200024d87828801620001b7565b92505060606200026087828801620001b7565b91505092959194509250565b6000604051905081810181811067ffffffffffffffff8211171562000296576200029562000378565b5b8060405250919050565b600067ffffffffffffffff821115620002be57620002bd62000378565b5b601f19601f8301169050602081019050919050565b6000819050919050565b60005b83811015620002fd578082015181840152602081019050620002e0565b838111156200030d576000848401525b50505050565b600060028204905060018216806200032c57607f821691505b6020821081141562000343576200034262000349565b5b50919050565b7f4e487b7100000000000000000000000000000000000000000000000000000000600052602260045260246000fd5b7f4e487b7100000000000000000000000000000000000000000000000000000000600052604160045260246000fd5b620003b281620002d3565b8114620003be57600080fd5b50565b60805160a051615235620003fc60003960008181611719015261201a015260008181610a1901528181612c130152612f7701526152356000f3fe608060405234801561001057600080fd5b50600436106101c45760003560e01c8063533aa7b8116100f9578063a9059cbb11610097578063d250b6cb11610071578063d250b6cb14610522578063dd62ed3e14610540578063e4ae026f14610570578063e60378521461058c576101c4565b8063a9059cbb146104a4578063b6992247146104d4578063d100896d146104f2576101c4565b80637bfb5797116100d35780637bfb57971461041e57806395d89b411461043a578063a457c2d714610458578063a694fc3a14610488576101c4565b8063533aa7b8146103b25780636c3811ae146103d057806370a08231146103ee576101c4565b80632e17de781161016657806340c86f1a1161014057806340c86f1a1461032c5780634c5962cc146103485780634da6a55614610364578063517efd8914610394576101c4565b80632e17de78146102c2578063313ce567146102de57806339509351146102fc576101c4565b806323b872dd116101a257806323b872dd14610235578063274982401461026557806327fc2774146102835780632bf9262c1461028d576101c4565b806306fdde03146101c9578063095ea7b3146101e757806318160ddd14610217575b600080fd5b6101d16105bc565b6040516101de91906148b1565b60405180910390f35b61020160048036038101906101fc91906138b6565b61064e565b60405161020e91906147ea565b60405180910390f35b61021f610671565b60405161022c9190614c2b565b60405180910390f35b61024f600480360381019061024a9190613867565b61067b565b60405161025c91906147ea565b60405180910390f35b61026d6106aa565b60405161027a9190614c2b565b60405180910390f35b61028b6106b4565b005b6102a760048036038101906102a29190613802565b610814565b6040516102b996959493929190614c46565b60405180910390f35b6102dc60048036038101906102d791906139e6565b6108fb565b005b6102e6610aa8565b6040516102f39190614ca7565b60405180910390f35b610316600480360381019061031191906138b6565b610ab1565b60405161032391906147ea565b60405180910390f35b610346600480360381019061034191906139aa565b610b5b565b005b610362600480360381019061035d919061391b565b610fff565b005b61037e60048036038101906103799190613802565b611425565b60405161038b9190614c2b565b60405180910390f35b61039c6114de565b6040516103a99190614805565b60405180910390f35b6103ba6114e8565b6040516103c79190614c2b565b60405180910390f35b6103d86114f2565b6040516103e59190614c2b565b60405180910390f35b61040860048036038101906104039190613802565b611576565b6040516104159190614c2b565b60405180910390f35b610438600480360381019061043391906139e6565b6115be565b005b6104426117a5565b60405161044f91906148b1565b60405180910390f35b610472600480360381019061046d91906138b6565b611837565b60405161047f91906147ea565b60405180910390f35b6104a2600480360381019061049d91906139e6565b611921565b005b6104be60048036038101906104b991906138b6565b611a36565b6040516104cb91906147ea565b60405180910390f35b6104dc611a59565b6040516104e991906147c8565b60405180910390f35b61050c60048036038101906105079190613802565b611b5b565b60405161051991906147ea565b60405180910390f35b61052a611c97565b6040516105379190614bf3565b60405180910390f35b61055a6004803603810190610555919061382b565b611dc6565b6040516105679190614c2b565b60405180910390f35b61058a600480360381019061058591906139e6565b611e4d565b005b6105a660048036038101906105a191906138f2565b6120b8565b6040516105b39190614bf3565b60405180910390f35b6060600380546105cb90614fbf565b80601f01602080910402602001604051908101604052809291908181526020018280546105f790614fbf565b80156106445780601f1061061957610100808354040283529160200191610644565b820191906000526020600020905b81548152906001019060200180831161062757829003601f168201915b5050505050905090565b6000806106596121e7565b90506106668185856121ef565b600191505092915050565b6000600254905090565b6000806106866121e7565b90506106938582856123ba565b61069e858585612446565b60019150509392505050565b6000600554905090565b6000600a6000600f548152602001908152602001600020604051806101a001604052908160008201548152602001600182015481526020016002820154815260200160038201548152602001600482015481526020016005820160009054906101000a900473ffffffffffffffffffffffffffffffffffffffff1673ffffffffffffffffffffffffffffffffffffffff1673ffffffffffffffffffffffffffffffffffffffff168152602001600682015481526020016007820160009054906101000a900460ff161515151581526020016008820154815260200160098201548152602001600a820160009054906101000a900460ff16151515158152602001600a820160019054906101000a900460ff16151515158152602001600b8201548152505090507f52efb45347e749d77f44c740574e54b8d92ef207c7e60967d24a7a96cfd084f2816040516108099190614bf3565b60405180910390a150565b6000806000806000806000610828886126c7565b90506000811161086d576040517f08c379a000000000000000000000000000000000000000000000000000000000815260040161086490614a93565b60405180910390fd5b6000600782815481106108a9577f4e487b7100000000000000000000000000000000000000000000000000000000600052603260045260246000fd5b9060005260206000209060070201905080600101548160020154826003015483600401548460050160009054906101000a900460ff168560060154975097509750975097509750505091939550919395565b60003390506000600960008373ffffffffffffffffffffffffffffffffffffffff1673ffffffffffffffffffffffffffffffffffffffff1681526020019081526020016000205490506000811415610954575050610aa5565b600060078281548110610990577f4e487b7100000000000000000000000000000000000000000000000000000000600052603260045260246000fd5b9060005260206000209060070201905083816001015410156109e7576040517f08c379a00000000000000000000000000000000000000000000000000000000081526004016109de906149b3565b60405180910390fd5b6000848260010160008282546109fd9190614e8e565b92505081905590508082600101819055508082600201819055507f00000000000000000000000000000000000000000000000000000000000000008110610a605760018260050160006101000a81548160ff021916908315150217905550610a96565b60008260050160006101000a81548160ff02191690831515021790555060056000815480929190610a9090614f95565b91905055505b610aa084866127ba565b505050505b50565b60006012905090565b600080610abc6121e7565b9050610b50818585600160008673ffffffffffffffffffffffffffffffffffffffff1673ffffffffffffffffffffffffffffffffffffffff16815260200190815260200160002060008973ffffffffffffffffffffffffffffffffffffffff1673ffffffffffffffffffffffffffffffffffffffff16815260200190815260200160002054610b4b9190614dad565b6121ef565b600191505092915050565b6000600860003373ffffffffffffffffffffffffffffffffffffffff1673ffffffffffffffffffffffffffffffffffffffff1681526020019081526020016000205490506000811415610be3576040517f08c379a0000000000000000000000000000000000000000000000000000000008152600401610bda90614af3565b60405180910390fd5b6000600a60008581526020019081526020016000209050600073ffffffffffffffffffffffffffffffffffffffff168160050160009054906101000a900473ffffffffffffffffffffffffffffffffffffffff1673ffffffffffffffffffffffffffffffffffffffff161415610c8e576040517f08c379a0000000000000000000000000000000000000000000000000000000008152600401610c8590614973565b60405180910390fd5b600015158160070160009054906101000a900460ff16151514610ce6576040517f08c379a0000000000000000000000000000000000000000000000000000000008152600401610cdd90614b93565b60405180910390fd5b60003390506000600b600087815260200190815260200160002060008373ffffffffffffffffffffffffffffffffffffffff1673ffffffffffffffffffffffffffffffffffffffff1681526020019081526020016000209050600073ffffffffffffffffffffffffffffffffffffffff168160000160009054906101000a900473ffffffffffffffffffffffffffffffffffffffff1673ffffffffffffffffffffffffffffffffffffffff1614610dd2576040517f08c379a0000000000000000000000000000000000000000000000000000000008152600401610dc990614a13565b60405180910390fd5b60405180604001604052808373ffffffffffffffffffffffffffffffffffffffff168152602001861515815250600b600088815260200190815260200160002060008473ffffffffffffffffffffffffffffffffffffffff1673ffffffffffffffffffffffffffffffffffffffff16815260200190815260200160002060008201518160000160006101000a81548173ffffffffffffffffffffffffffffffffffffffff021916908373ffffffffffffffffffffffffffffffffffffffff16021790555060208201518160000160146101000a81548160ff021916908315150217905550905050600115158515151415610f39576001836008016000828254610edb9190614dad565b92505081905550826006015483600801541415610f345760018360070160006101000a81548160ff021916908315150217905550600183600a0160006101000a81548160ff02191690831515021790555085600f819055505b610fa1565b6001836009016000828254610f4e9190614dad565b92505081905550826006015483600901541415610fa05760018360070160006101000a81548160ff021916908315150217905550600083600a0160006101000a81548160ff0219169083151502179055505b5b600115158360070160009054906101000a900460ff1615151415610ff7577f52efb45347e749d77f44c740574e54b8d92ef207c7e60967d24a7a96cfd084f283604051610fee9190614c0f565b60405180910390a15b505050505050565b6000339050600061100e61291a565b9050600073ffffffffffffffffffffffffffffffffffffffff168160a0015173ffffffffffffffffffffffffffffffffffffffff16146110bb578060a0015173ffffffffffffffffffffffffffffffffffffffff168273ffffffffffffffffffffffffffffffffffffffff16146110ba576040517f08c379a00000000000000000000000000000000000000000000000000000000081526004016110b190614a73565b60405180910390fd5b5b6000600a60008981526020019081526020016000209050600073ffffffffffffffffffffffffffffffffffffffff168160050160009054906101000a900473ffffffffffffffffffffffffffffffffffffffff1673ffffffffffffffffffffffffffffffffffffffff1614611165576040517f08c379a000000000000000000000000000000000000000000000000000000000815260040161115c90614a53565b60405180910390fd5b6000805b87518110156112385760008882815181106111ad577f4e487b7100000000000000000000000000000000000000000000000000000000600052603260045260246000fd5b6020026020010151905060006111c2826126c7565b9050600060078281548110611200577f4e487b7100000000000000000000000000000000000000000000000000000000600052603260045260246000fd5b906000526020600020906007020190508060010154856112209190614dad565b9450505050808061123090615073565b915050611169565b50604051806101a001604052808a8152602001600e54815260200160008152602001878152602001600081526020018973ffffffffffffffffffffffffffffffffffffffff16815260200161128b612a49565b8152602001600015158152602001600081526020016000815260200160001515815260200160001515815260200182815250600a60008b8152602001908152602001600020600082015181600001556020820151816001015560408201518160020155606082015181600301556080820151816004015560a08201518160050160006101000a81548173ffffffffffffffffffffffffffffffffffffffff021916908373ffffffffffffffffffffffffffffffffffffffff16021790555060c0820151816006015560e08201518160070160006101000a81548160ff0219169083151502179055506101008201518160080155610120820151816009015561014082015181600a0160006101000a81548160ff02191690831515021790555061016082015181600a0160016101000a81548160ff02191690831515021790555061018082015181600b01559050507f6d4aad47cb7bcb13b25ae71b45f2c76944033a9b2e76c78a342b7863412504e689898960055489604051611412959493929190614820565b60405180910390a1505050505050505050565b600081600073ffffffffffffffffffffffffffffffffffffffff168173ffffffffffffffffffffffffffffffffffffffff16141561146257600080fd5b600061146d846126c7565b905060008114156114825760009250506114d8565b6000600782815481106114be577f4e487b7100000000000000000000000000000000000000000000000000000000600052603260045260246000fd5b906000526020600020906007020190508060010154935050505b50919050565b6000600f54905090565b6000600654905090565b6000806114fd61291a565b9050600073ffffffffffffffffffffffffffffffffffffffff168160a0015173ffffffffffffffffffffffffffffffffffffffff161461154257600554915050611573565b6000600c60008360000151815260200190815260200160002090506001818054905061156e9190614dad565b925050505b90565b60008060008373ffffffffffffffffffffffffffffffffffffffff1673ffffffffffffffffffffffffffffffffffffffff168152602001908152602001600020549050919050565b60003390506000600a6000600d548152602001908152602001600020604051806101a001604052908160008201548152602001600182015481526020016002820154815260200160038201548152602001600482015481526020016005820160009054906101000a900473ffffffffffffffffffffffffffffffffffffffff1673ffffffffffffffffffffffffffffffffffffffff1673ffffffffffffffffffffffffffffffffffffffff168152602001600682015481526020016007820160009054906101000a900460ff161515151581526020016008820154815260200160098201548152602001600a820160009054906101000a900460ff16151515158152602001600a820160019054906101000a900460ff16151515158152602001600b8201548152505090506000801b600e5414801561170157506000801b600d54145b1561171457600d54600e8190555061175a565b6117507f000000000000000000000000000000000000000000000000000000000000000082604001516117479190614dad565b83600e54612a80565b600d54600e819055505b600f54600d819055507f722e3d4179a09427e9445cc06f5ccd49fe7a5cb5f568f00324d780aca56e341c600d5483856040516117989392919061487a565b60405180910390a1505050565b6060600480546117b490614fbf565b80601f01602080910402602001604051908101604052809291908181526020018280546117e090614fbf565b801561182d5780601f106118025761010080835404028352916020019161182d565b820191906000526020600020905b81548152906001019060200180831161181057829003601f168201915b5050505050905090565b6000806118426121e7565b90506000600160008373ffffffffffffffffffffffffffffffffffffffff1673ffffffffffffffffffffffffffffffffffffffff16815260200190815260200160002060008673ffffffffffffffffffffffffffffffffffffffff1673ffffffffffffffffffffffffffffffffffffffff16815260200190815260200160002054905083811015611908576040517f08c379a00000000000000000000000000000000000000000000000000000000081526004016118ff90614bb3565b60405180910390fd5b61191582868684036121ef565b60019250505092915050565b600033905060003073ffffffffffffffffffffffffffffffffffffffff166370a08231836040518263ffffffff1660e01b815260040161196191906147ad565b60206040518083038186803b15801561197957600080fd5b505afa15801561198d573d6000803e3d6000fd5b505050506040513d601f19601f820116820180604052508101906119b19190613a0f565b9050828110156119f6576040517f08c379a00000000000000000000000000000000000000000000000000000000081526004016119ed90614a33565b60405180910390fd5b6000611a01836126c7565b90506000811415611a1b57611a168385612c0f565b611a26565b611a258185612edb565b5b611a308385612ffa565b50505050565b600080611a416121e7565b9050611a4e818585612446565b600191505092915050565b60606007805480602002602001604051908101604052809291908181526020016000905b82821015611b5257838290600052602060002090600702016040518060e00160405290816000820160009054906101000a900473ffffffffffffffffffffffffffffffffffffffff1673ffffffffffffffffffffffffffffffffffffffff1673ffffffffffffffffffffffffffffffffffffffff168152602001600182015481526020016002820154815260200160038201548152602001600482015481526020016005820160009054906101000a900460ff1615151515815260200160068201548152505081526020019060010190611a7d565b50505050905090565b600080611b6661291a565b9050600073ffffffffffffffffffffffffffffffffffffffff168160a0015173ffffffffffffffffffffffffffffffffffffffff1614611baa576001915050611c92565b6000600c600083600001518152602001908152602001600020905060005b8180549050811015611c8a57818181548110611c0d577f4e487b7100000000000000000000000000000000000000000000000000000000600052603260045260246000fd5b9060005260206000200160009054906101000a900473ffffffffffffffffffffffffffffffffffffffff1673ffffffffffffffffffffffffffffffffffffffff168573ffffffffffffffffffffffffffffffffffffffff161415611c775760019350505050611c92565b8080611c8290615073565b915050611bc8565b506000925050505b919050565b611c9f613679565b600a6000600d548152602001908152602001600020604051806101a001604052908160008201548152602001600182015481526020016002820154815260200160038201548152602001600482015481526020016005820160009054906101000a900473ffffffffffffffffffffffffffffffffffffffff1673ffffffffffffffffffffffffffffffffffffffff1673ffffffffffffffffffffffffffffffffffffffff168152602001600682015481526020016007820160009054906101000a900460ff161515151581526020016008820154815260200160098201548152602001600a820160009054906101000a900460ff16151515158152602001600a820160019054906101000a900460ff16151515158152602001600b82015481525050905090565b6000600160008473ffffffffffffffffffffffffffffffffffffffff1673ffffffffffffffffffffffffffffffffffffffff16815260200190815260200160002060008373ffffffffffffffffffffffffffffffffffffffff1673ffffffffffffffffffffffffffffffffffffffff16815260200190815260200160002054905092915050565b60003390506000600a6000600d548152602001908152602001600020604051806101a001604052908160008201548152602001600182015481526020016002820154815260200160038201548152602001600482015481526020016005820160009054906101000a900473ffffffffffffffffffffffffffffffffffffffff1673ffffffffffffffffffffffffffffffffffffffff1673ffffffffffffffffffffffffffffffffffffffff168152602001600682015481526020016007820160009054906101000a900460ff161515151581526020016008820154815260200160098201548152602001600a820160009054906101000a900460ff16151515158152602001600a820160019054906101000a900460ff16151515158152602001600b8201548152505090508060a0015173ffffffffffffffffffffffffffffffffffffffff168273ffffffffffffffffffffffffffffffffffffffff1614611fea576040517f08c379a0000000000000000000000000000000000000000000000000000000008152600401611fe190614ab3565b60405180910390fd5b6000801b600e5414801561200257506000801b600d54145b1561201557600d54600e8190555061205b565b6120517f000000000000000000000000000000000000000000000000000000000000000082604001516120489190614dad565b83600e54612a80565b600d54600e819055505b600f54600d819055506001816101600190151590811515815250507f722e3d4179a09427e9445cc06f5ccd49fe7a5cb5f568f00324d780aca56e341c600d5483856040516120ab9392919061487a565b60405180910390a1505050565b6120c0613679565b600a6000838152602001908152602001600020604051806101a001604052908160008201548152602001600182015481526020016002820154815260200160038201548152602001600482015481526020016005820160009054906101000a900473ffffffffffffffffffffffffffffffffffffffff1673ffffffffffffffffffffffffffffffffffffffff1673ffffffffffffffffffffffffffffffffffffffff168152602001600682015481526020016007820160009054906101000a900460ff161515151581526020016008820154815260200160098201548152602001600a820160009054906101000a900460ff16151515158152602001600a820160019054906101000a900460ff16151515158152602001600b820154815250509050919050565b600033905090565b600073ffffffffffffffffffffffffffffffffffffffff168373ffffffffffffffffffffffffffffffffffffffff16141561225f576040517f08c379a000000000000000000000000000000000000000000000000000000000815260040161225690614b73565b60405180910390fd5b600073ffffffffffffffffffffffffffffffffffffffff168273ffffffffffffffffffffffffffffffffffffffff1614156122cf576040517f08c379a00000000000000000000000000000000000000000000000000000000081526004016122c690614953565b60405180910390fd5b80600160008573ffffffffffffffffffffffffffffffffffffffff1673ffffffffffffffffffffffffffffffffffffffff16815260200190815260200160002060008473ffffffffffffffffffffffffffffffffffffffff1673ffffffffffffffffffffffffffffffffffffffff168152602001908152602001600020819055508173ffffffffffffffffffffffffffffffffffffffff168373ffffffffffffffffffffffffffffffffffffffff167f8c5be1e5ebec7d5bd14f71427d1e84f3dd0314c0f7b2291e5b200ac8c7c3b925836040516123ad9190614c2b565b60405180910390a3505050565b60006123c68484611dc6565b90507fffffffffffffffffffffffffffffffffffffffffffffffffffffffffffffffff81146124405781811015612432576040517f08c379a000000000000000000000000000000000000000000000000000000000815260040161242990614993565b60405180910390fd5b61243f84848484036121ef565b5b50505050565b600073ffffffffffffffffffffffffffffffffffffffff168373ffffffffffffffffffffffffffffffffffffffff1614156124b6576040517f08c379a00000000000000000000000000000000000000000000000000000000081526004016124ad90614b53565b60405180910390fd5b600073ffffffffffffffffffffffffffffffffffffffff168273ffffffffffffffffffffffffffffffffffffffff161415612526576040517f08c379a000000000000000000000000000000000000000000000000000000000815260040161251d906148d3565b60405180910390fd5b6125318383836131d1565b60008060008573ffffffffffffffffffffffffffffffffffffffff1673ffffffffffffffffffffffffffffffffffffffff168152602001908152602001600020549050818110156125b7576040517f08c379a00000000000000000000000000000000000000000000000000000000081526004016125ae906149f3565b60405180910390fd5b8181036000808673ffffffffffffffffffffffffffffffffffffffff1673ffffffffffffffffffffffffffffffffffffffff16815260200190815260200160002081905550816000808573ffffffffffffffffffffffffffffffffffffffff1673ffffffffffffffffffffffffffffffffffffffff168152602001908152602001600020600082825461264a9190614dad565b925050819055508273ffffffffffffffffffffffffffffffffffffffff168473ffffffffffffffffffffffffffffffffffffffff167fddf252ad1be2c89b69c2b068fc378daa952ba7f163c4a11628f55a4df523b3ef846040516126ae9190614c2b565b60405180910390a36126c18484846131d6565b50505050565b600081600073ffffffffffffffffffffffffffffffffffffffff168173ffffffffffffffffffffffffffffffffffffffff16141561270457600080fd5b6000600960008573ffffffffffffffffffffffffffffffffffffffff1673ffffffffffffffffffffffffffffffffffffffff168152602001908152602001600020549050600081141561275b5760009250506127b4565b600160078054905061276d9190614e8e565b8111156127af576040517f08c379a00000000000000000000000000000000000000000000000000000000081526004016127a690614b13565b60405180910390fd5b809250505b50919050565b600073ffffffffffffffffffffffffffffffffffffffff168273ffffffffffffffffffffffffffffffffffffffff16141561282a576040517f08c379a000000000000000000000000000000000000000000000000000000000815260040161282190614bd3565b60405180910390fd5b612836600083836131d1565b80600260008282546128489190614dad565b92505081905550806000808473ffffffffffffffffffffffffffffffffffffffff1673ffffffffffffffffffffffffffffffffffffffff168152602001908152602001600020600082825461289d9190614dad565b925050819055508173ffffffffffffffffffffffffffffffffffffffff16600073ffffffffffffffffffffffffffffffffffffffff167fddf252ad1be2c89b69c2b068fc378daa952ba7f163c4a11628f55a4df523b3ef836040516129029190614c2b565b60405180910390a3612916600083836131d6565b5050565b612922613679565b600a6000600d548152602001908152602001600020604051806101a001604052908160008201548152602001600182015481526020016002820154815260200160038201548152602001600482015481526020016005820160009054906101000a900473ffffffffffffffffffffffffffffffffffffffff1673ffffffffffffffffffffffffffffffffffffffff1673ffffffffffffffffffffffffffffffffffffffff168152602001600682015481526020016007820160009054906101000a900460ff161515151581526020016008820154815260200160098201548152602001600a820160009054906101000a900460ff16151515158152602001600a820160019054906101000a900460ff16151515158152602001600b82015481525050905090565b600060016005541415612a5f5760019050612a7d565b60646033600554612a709190614e34565b612a7a9190614e03565b90505b90565b6000600284612a8f9190614e03565b90506000600960008573ffffffffffffffffffffffffffffffffffffffff1673ffffffffffffffffffffffffffffffffffffffff168152602001908152602001600020549050600060078281548110612b11577f4e487b7100000000000000000000000000000000000000000000000000000000600052603260045260246000fd5b90600052602060002090600702019050600073ffffffffffffffffffffffffffffffffffffffff168160000160009054906101000a900473ffffffffffffffffffffffffffffffffffffffff1673ffffffffffffffffffffffffffffffffffffffff161415612bb5576040517f08c379a0000000000000000000000000000000000000000000000000000000008152600401612bac90614913565b60405180910390fd5b82816006016000828254612bc99190614dad565b9250508190555082816001016000828254612be49190614dad565b9250508190555060008387612bf99190614e8e565b9050612c068582886131db565b50505050505050565b60007f00000000000000000000000000000000000000000000000000000000000000008210159050600060078054905090506000811415612d71578080612c5590615073565b91505060076040518060e00160405280600073ffffffffffffffffffffffffffffffffffffffff168152602001600081526020016000815260200160008152602001600081526020016000151581526020016000815250908060018154018082558091505060019003906000526020600020906007020160009091909190915060008201518160000160006101000a81548173ffffffffffffffffffffffffffffffffffffffff021916908373ffffffffffffffffffffffffffffffffffffffff1602179055506020820151816001015560408201518160020155606082015181600301556080820151816004015560a08201518160050160006101000a81548160ff02191690831515021790555060c0820151816006015550505b60076040518060e001604052808673ffffffffffffffffffffffffffffffffffffffff168152602001858152602001858152602001600081526020016000815260200184151581526020016000815250908060018154018082558091505060019003906000526020600020906007020160009091909190915060008201518160000160006101000a81548173ffffffffffffffffffffffffffffffffffffffff021916908373ffffffffffffffffffffffffffffffffffffffff1602179055506020820151816001015560408201518160020155606082015181600301556080820151816004015560a08201518160050160006101000a81548160ff02191690831515021790555060c08201518160060155505080600960008673ffffffffffffffffffffffffffffffffffffffff1673ffffffffffffffffffffffffffffffffffffffff16815260200190815260200160002081905550612ed4828583613591565b5050505050565b600060078381548110612f17577f4e487b7100000000000000000000000000000000000000000000000000000000600052603260045260246000fd5b9060005260206000209060070201905081816001016000828254612f3b9190614dad565b9250508190555081816002016000828254612f569190614dad565b925050819055508060050160009054906101000a900460ff16612ff55760007f00000000000000000000000000000000000000000000000000000000000000008260010154101590508015612ff35760018260050160006101000a81548160ff021916908315150217905550612ff1818360000160009054906101000a900473ffffffffffffffffffffffffffffffffffffffff1686613591565b505b505b505050565b600073ffffffffffffffffffffffffffffffffffffffff168273ffffffffffffffffffffffffffffffffffffffff16141561306a576040517f08c379a000000000000000000000000000000000000000000000000000000000815260040161306190614b33565b60405180910390fd5b613076826000836131d1565b60008060008473ffffffffffffffffffffffffffffffffffffffff1673ffffffffffffffffffffffffffffffffffffffff168152602001908152602001600020549050818110156130fc576040517f08c379a00000000000000000000000000000000000000000000000000000000081526004016130f3906148f3565b60405180910390fd5b8181036000808573ffffffffffffffffffffffffffffffffffffffff1673ffffffffffffffffffffffffffffffffffffffff1681526020019081526020016000208190555081600260008282546131539190614e8e565b92505081905550600073ffffffffffffffffffffffffffffffffffffffff168373ffffffffffffffffffffffffffffffffffffffff167fddf252ad1be2c89b69c2b068fc378daa952ba7f163c4a11628f55a4df523b3ef846040516131b89190614c2b565b60405180910390a36131cc836000846131d6565b505050565b505050565b505050565b6000600c600085815260200190815260200160002090506000818054905014156132da57600061320a836126c7565b90506000811415613250576040517f08c379a000000000000000000000000000000000000000000000000000000000815260040161324790614ad3565b60405180910390fd5b60006007828154811061328c577f4e487b7100000000000000000000000000000000000000000000000000000000600052603260045260246000fd5b90600052602060002090600702019050848160010160008282546132b09190614dad565b92505081905550848160060160008282546132cb9190614dad565b9250508190555050505061358c565b6000600a60008681526020019081526020016000209050600073ffffffffffffffffffffffffffffffffffffffff168160050160009054906101000a900473ffffffffffffffffffffffffffffffffffffffff1673ffffffffffffffffffffffffffffffffffffffff161415613385576040517f08c379a000000000000000000000000000000000000000000000000000000000815260040161337c90614933565b60405180910390fd5b60005b82805490508110156135885760006134028483815481106133d2577f4e487b7100000000000000000000000000000000000000000000000000000000600052603260045260246000fd5b9060005260206000200160009054906101000a900473ffffffffffffffffffffffffffffffffffffffff166126c7565b90506000811415613448576040517f08c379a000000000000000000000000000000000000000000000000000000000815260040161343f906149d3565b60405180910390fd5b600060078281548110613484577f4e487b7100000000000000000000000000000000000000000000000000000000600052603260045260246000fd5b90600052602060002090600702019050600073ffffffffffffffffffffffffffffffffffffffff168160000160009054906101000a900473ffffffffffffffffffffffffffffffffffffffff1673ffffffffffffffffffffffffffffffffffffffff161461357357600084600b0154606483600101546135049190614e34565b61350e9190614e03565b905060006064828a6135209190614e34565b61352a9190614e03565b905080896135389190614e8e565b98508083600101600082825461354e9190614dad565b92505081905550808360060160008282546135699190614dad565b9250508190555050505b5050808061358090615073565b915050613388565b5050505b505050565b6000836135a15760009050613672565b6000600860008573ffffffffffffffffffffffffffffffffffffffff1673ffffffffffffffffffffffffffffffffffffffff16815260200190815260200160002054905060008114156136545782600860008673ffffffffffffffffffffffffffffffffffffffff1673ffffffffffffffffffffffffffffffffffffffff168152602001908152602001600020819055506005600081548092919061364590615073565b91905055506001915050613672565b6005600081548092919061366790615073565b919050555060019150505b9392505050565b604051806101a001604052806000801916815260200160008019168152602001600081526020016000815260200160008152602001600073ffffffffffffffffffffffffffffffffffffffff168152602001600081526020016000151581526020016000815260200160008152602001600015158152602001600015158152602001600081525090565b600061371661371184614cf3565b614cc2565b9050808382526020820190508285602086028201111561373557600080fd5b60005b85811015613765578161374b888261376f565b845260208401935060208301925050600181019050613738565b5050509392505050565b60008135905061377e816151a3565b92915050565b600082601f83011261379557600080fd5b81356137a5848260208601613703565b91505092915050565b6000813590506137bd816151ba565b92915050565b6000813590506137d2816151d1565b92915050565b6000813590506137e7816151e8565b92915050565b6000815190506137fc816151e8565b92915050565b60006020828403121561381457600080fd5b60006138228482850161376f565b91505092915050565b6000806040838503121561383e57600080fd5b600061384c8582860161376f565b925050602061385d8582860161376f565b9150509250929050565b60008060006060848603121561387c57600080fd5b600061388a8682870161376f565b935050602061389b8682870161376f565b92505060406138ac868287016137d8565b9150509250925092565b600080604083850312156138c957600080fd5b60006138d78582860161376f565b92505060206138e8858286016137d8565b9150509250929050565b60006020828403121561390457600080fd5b6000613912848285016137c3565b91505092915050565b600080600080600060a0868803121561393357600080fd5b6000613941888289016137c3565b95505060206139528882890161376f565b945050604086013567ffffffffffffffff81111561396f57600080fd5b61397b88828901613784565b935050606061398c888289016137d8565b925050608061399d888289016137d8565b9150509295509295909350565b600080604083850312156139bd57600080fd5b60006139cb858286016137c3565b92505060206139dc858286016137ae565b9150509250929050565b6000602082840312156139f857600080fd5b6000613a06848285016137d8565b91505092915050565b600060208284031215613a2157600080fd5b6000613a2f848285016137ed565b91505092915050565b6000613a448383613a68565b60208301905092915050565b6000613a5c83836146f2565b60e08301905092915050565b613a7181614f03565b82525050565b613a8081614f03565b82525050565b6000613a9182614d3f565b613a9b8185614d7a565b9350613aa683614d1f565b8060005b83811015613ad7578151613abe8882613a38565b9750613ac983614d60565b925050600181019050613aaa565b5085935050505092915050565b6000613aef82614d4a565b613af98185614d8b565b9350613b0483614d2f565b8060005b83811015613b35578151613b1c8882613a50565b9750613b2783614d6d565b925050600181019050613b08565b5085935050505092915050565b613b4b81614f15565b82525050565b613b5a81614f15565b82525050565b613b6981614f21565b82525050565b613b7881614f21565b82525050565b6000613b8982614d55565b613b938185614d9c565b9350613ba3818560208601614f62565b613bac81615178565b840191505092915050565b6000613bc4602383614d9c565b91507f45524332303a207472616e7366657220746f20746865207a65726f206164647260008301527f65737300000000000000000000000000000000000000000000000000000000006020830152604082019050919050565b6000613c2a602283614d9c565b91507f45524332303a206275726e20616d6f756e7420657863656564732062616c616e60008301527f63650000000000000000000000000000000000000000000000000000000000006020830152604082019050919050565b6000613c90601f83614d9c565b91507f43686169726d616e206164647265737320646f6573206e6f74206578697374006000830152602082019050919050565b6000613cd0600e83614d9c565b91507f496e76616c6964204572612049640000000000000000000000000000000000006000830152602082019050919050565b6000613d10602283614d9c565b91507f45524332303a20617070726f766520746f20746865207a65726f20616464726560008301527f73730000000000000000000000000000000000000000000000000000000000006020830152604082019050919050565b6000613d76602183614d9c565b91507f45726120776974682070617373656420496420646f6573206e6f74206578697360008301527f74000000000000000000000000000000000000000000000000000000000000006020830152604082019050919050565b6000613ddc601d83614d9c565b91507f45524332303a20696e73756666696369656e7420616c6c6f77616e63650000006000830152602082019050919050565b6000613e1c602283614d9c565b91507f496e73756666696369656e742062616c616e636520666f7220756e7374616b6960008301527f6e670000000000000000000000000000000000000000000000000000000000006020830152604082019050919050565b6000613e82601883614d9c565b91507f496e76616c69642063686169726d616e206164647265737300000000000000006000830152602082019050919050565b6000613ec2602683614d9c565b91507f45524332303a207472616e7366657220616d6f756e742065786365656473206260008301527f616c616e636500000000000000000000000000000000000000000000000000006020830152604082019050919050565b6000613f28601783614d9c565b91507f56616c696461746f7220616c726561647920766f7465640000000000000000006000830152602082019050919050565b6000613f68602083614d9c565b91507f496e73756666696369656e742062616c616e636520666f72207374616b696e676000830152602082019050919050565b6000613fa8602583614d9c565b91507f4572612077697468207468652073616d6520494420616c72656164792070726f60008301527f706f7365640000000000000000000000000000000000000000000000000000006020830152604082019050919050565b600061400e602f83614d9c565b91507f43616c6c6572206e6f742070726576696f7573206572612063686169726d616e60008301527f2e204163636573732064656e69656400000000000000000000000000000000006020830152604082019050919050565b6000614074602583614d9c565b91507f41646472657373206e6f74206c696e6b656420746f20616e79207374616b656860008301527f6f6c6465720000000000000000000000000000000000000000000000000000006020830152604082019050919050565b60006140da602183614d9c565b91507f4f6e6c792063686169726d616e2063616e20656e642063757272656e7420657260008301527f61000000000000000000000000000000000000000000000000000000000000006020830152604082019050919050565b6000614140601883614d9c565b91507f496e76616c69642063686172696d616e206164647265737300000000000000006000830152602082019050919050565b6000614180602383614d9c565b91507f566f74696e6720666f7262696464656e20666f72206e6f6e2d76616c6964617460008301527f6f727300000000000000000000000000000000000000000000000000000000006020830152604082019050919050565b60006141e6602983614d9c565b91507f496e76616c696420696e64657820666f72207374616b65686f6c64657273206360008301527f6f6c6c656374696f6e00000000000000000000000000000000000000000000006020830152604082019050919050565b600061424c602183614d9c565b91507f45524332303a206275726e2066726f6d20746865207a65726f2061646472657360008301527f73000000000000000000000000000000000000000000000000000000000000006020830152604082019050919050565b60006142b2602583614d9c565b91507f45524332303a207472616e736665722066726f6d20746865207a65726f20616460008301527f64726573730000000000000000000000000000000000000000000000000000006020830152604082019050919050565b6000614318602483614d9c565b91507f45524332303a20617070726f76652066726f6d20746865207a65726f2061646460008301527f72657373000000000000000000000000000000000000000000000000000000006020830152604082019050919050565b600061437e601f83614d9c565b91507f566f746520616c726561647920656e64656420666f72207468617420657261006000830152602082019050919050565b60006143be602583614d9c565b91507f45524332303a2064656372656173656420616c6c6f77616e63652062656c6f7760008301527f207a65726f0000000000000000000000000000000000000000000000000000006020830152604082019050919050565b6000614424601f83614d9c565b91507f45524332303a206d696e7420746f20746865207a65726f2061646472657373006000830152602082019050919050565b6101a08201600082015161446e6000850182613b60565b5060208201516144816020850182613b60565b5060408201516144946040850182614780565b5060608201516144a76060850182614780565b5060808201516144ba6080850182614780565b5060a08201516144cd60a0850182613a68565b5060c08201516144e060c0850182614780565b5060e08201516144f360e0850182613b42565b50610100820151614508610100850182614780565b5061012082015161451d610120850182614780565b50610140820151614532610140850182613b42565b50610160820151614547610160850182613b42565b5061018082015161455c610180850182614780565b50505050565b6101a08201600080830154905061457881615025565b6145856000860182613b60565b506001830154905061459681615025565b6145a36020860182613b60565b50600283015490506145b48161503f565b6145c16040860182614780565b50600383015490506145d28161503f565b6145df6060860182614780565b50600483015490506145f08161503f565b6145fd6080860182614780565b506005830154905061460e81614ff1565b61461b60a0860182613a68565b506006830154905061462c8161503f565b61463960c0860182614780565b506007830154905061464a8161500b565b61465760e0860182613b42565b50600883015490506146688161503f565b614676610100860182614780565b50600983015490506146878161503f565b614695610120860182614780565b50600a83015490506146a68161500b565b6146b4610140860182613b42565b506146be81615059565b6146cc610160860182613b42565b50600b83015490506146dd8161503f565b6146eb610180860182614780565b5050505050565b60e0820160008201516147086000850182613a68565b50602082015161471b6020850182614780565b50604082015161472e6040850182614780565b5060608201516147416060850182614780565b5060808201516147546080850182614780565b5060a082015161476760a0850182613b42565b5060c082015161477a60c0850182614780565b50505050565b61478981614f4b565b82525050565b61479881614f4b565b82525050565b6147a781614f55565b82525050565b60006020820190506147c26000830184613a77565b92915050565b600060208201905081810360008301526147e28184613ae4565b905092915050565b60006020820190506147ff6000830184613b51565b92915050565b600060208201905061481a6000830184613b6f565b92915050565b600060a0820190506148356000830188613b6f565b6148426020830187613a77565b81810360408301526148548186613a86565b9050614863606083018561478f565b614870608083018461478f565b9695505050505050565b600060608201905061488f6000830186613b6f565b61489c6020830185613a77565b6148a9604083018461478f565b949350505050565b600060208201905081810360008301526148cb8184613b7e565b905092915050565b600060208201905081810360008301526148ec81613bb7565b9050919050565b6000602082019050818103600083015261490c81613c1d565b9050919050565b6000602082019050818103600083015261492c81613c83565b9050919050565b6000602082019050818103600083015261494c81613cc3565b9050919050565b6000602082019050818103600083015261496c81613d03565b9050919050565b6000602082019050818103600083015261498c81613d69565b9050919050565b600060208201905081810360008301526149ac81613dcf565b9050919050565b600060208201905081810360008301526149cc81613e0f565b9050919050565b600060208201905081810360008301526149ec81613e75565b9050919050565b60006020820190508181036000830152614a0c81613eb5565b9050919050565b60006020820190508181036000830152614a2c81613f1b565b9050919050565b60006020820190508181036000830152614a4c81613f5b565b9050919050565b60006020820190508181036000830152614a6c81613f9b565b9050919050565b60006020820190508181036000830152614a8c81614001565b9050919050565b60006020820190508181036000830152614aac81614067565b9050919050565b60006020820190508181036000830152614acc816140cd565b9050919050565b60006020820190508181036000830152614aec81614133565b9050919050565b60006020820190508181036000830152614b0c81614173565b9050919050565b60006020820190508181036000830152614b2c816141d9565b9050919050565b60006020820190508181036000830152614b4c8161423f565b9050919050565b60006020820190508181036000830152614b6c816142a5565b9050919050565b60006020820190508181036000830152614b8c8161430b565b9050919050565b60006020820190508181036000830152614bac81614371565b9050919050565b60006020820190508181036000830152614bcc816143b1565b9050919050565b60006020820190508181036000830152614bec81614417565b9050919050565b60006101a082019050614c096000830184614457565b92915050565b60006101a082019050614c256000830184614562565b92915050565b6000602082019050614c40600083018461478f565b92915050565b600060c082019050614c5b600083018961478f565b614c68602083018861478f565b614c75604083018761478f565b614c82606083018661478f565b614c8f6080830185613b51565b614c9c60a083018461478f565b979650505050505050565b6000602082019050614cbc600083018461479e565b92915050565b6000604051905081810181811067ffffffffffffffff82111715614ce957614ce8615149565b5b8060405250919050565b600067ffffffffffffffff821115614d0e57614d0d615149565b5b602082029050602081019050919050565b6000819050602082019050919050565b6000819050602082019050919050565b600081519050919050565b600081519050919050565b600081519050919050565b6000602082019050919050565b6000602082019050919050565b600082825260208201905092915050565b600082825260208201905092915050565b600082825260208201905092915050565b6000614db882614f4b565b9150614dc383614f4b565b9250827fffffffffffffffffffffffffffffffffffffffffffffffffffffffffffffffff03821115614df857614df76150bc565b5b828201905092915050565b6000614e0e82614f4b565b9150614e1983614f4b565b925082614e2957614e286150eb565b5b828204905092915050565b6000614e3f82614f4b565b9150614e4a83614f4b565b9250817fffffffffffffffffffffffffffffffffffffffffffffffffffffffffffffffff0483118215151615614e8357614e826150bc565b5b828202905092915050565b6000614e9982614f4b565b9150614ea483614f4b565b925082821015614eb757614eb66150bc565b5b828203905092915050565b600073ffffffffffffffffffffffffffffffffffffffff82169050919050565b600060ff82169050919050565b6000819050919050565b6000819050919050565b6000614f0e82614f2b565b9050919050565b60008115159050919050565b6000819050919050565b600073ffffffffffffffffffffffffffffffffffffffff82169050919050565b6000819050919050565b600060ff82169050919050565b60005b83811015614f80578082015181840152602081019050614f65565b83811115614f8f576000848401525b50505050565b6000614fa082614f4b565b91506000821415614fb457614fb36150bc565b5b600182039050919050565b60006002820490506001821680614fd757607f821691505b60208210811415614feb57614fea61511a565b5b50919050565b6000615004614fff83615189565b614ec2565b9050919050565b600061501e61501983615189565b614ee2565b9050919050565b600061503861503383615189565b614eef565b9050919050565b600061505261504d83615189565b614ef9565b9050919050565b600061506c61506783615196565b614ee2565b9050919050565b600061507e82614f4b565b91507fffffffffffffffffffffffffffffffffffffffffffffffffffffffffffffffff8214156150b1576150b06150bc565b5b600182019050919050565b7f4e487b7100000000000000000000000000000000000000000000000000000000600052601160045260246000fd5b7f4e487b7100000000000000000000000000000000000000000000000000000000600052601260045260246000fd5b7f4e487b7100000000000000000000000000000000000000000000000000000000600052602260045260246000fd5b7f4e487b7100000000000000000000000000000000000000000000000000000000600052604160045260246000fd5b6000601f19601f8301169050919050565b60008160001c9050919050565b60008160081c9050919050565b6151ac81614f03565b81146151b757600080fd5b50565b6151c381614f15565b81146151ce57600080fd5b50565b6151da81614f21565b81146151e557600080fd5b50565b6151f181614f4b565b81146151fc57600080fd5b5056fea2646970667358221220fe4c193bf5c2904befe41c725c3140fc38d7da06e8a7cff1e7437a2b3f12386364736f6c63430008000033",
  "immutableReferences": {
    "2008": [
      {
        "length": 32,
        "start": 5913
      },
      {
        "length": 32,
        "start": 8218
      }
    ],
    "2962": [
      {
        "length": 32,
        "start": 2585
      },
      {
        "length": 32,
        "start": 11283
      },
      {
        "length": 32,
        "start": 12151
      }
    ]
  },
  "source": "pragma solidity ^0.8.0;\r\n\r\nimport \"./ERC20Stakable.sol\";\r\nimport \"../utils/NominatingStakeholders.sol\";\r\nimport \"../utils/Eras.sol\";\r\nimport \"../Interfaces/IProofOfStake.sol\";\r\nimport \"../Interfaces/IErasMonitor.sol\";\r\nimport \"../utils/ErasVotes.sol\";\r\n\r\ncontract ERC20ProofOfStake is IErasMonitor, IProofOfStake, ERC20Stakable {\r\n    uint256 private constant MAX_COUICIL_MEMBERS_COUNT = 10;\r\n    uint256\r\n        private constant MINIMUM_QUORUM_REQUURED_FOR_VALIDATION_IN_PERCENTS =\r\n        51;\r\n    uint256 immutable _rewardForValidatorsAfterEachEra;\r\n    mapping(bytes32 => Eras.Era) internal _eras;\r\n    mapping(bytes32 => mapping(address => ErasVotes.ErasVote))\r\n        internal _eraValidatorVotes;\r\n    mapping(bytes32 => address[]) internal _erasCouncil;\r\n    bytes32 internal _activeEraId;\r\n    bytes32 internal _previousEraId;\r\n    bytes32 internal _lastApprovedEra;\r\n\r\n    constructor(\r\n        string memory name_,\r\n        string memory symbol_,\r\n        uint256 minStakedAmountForValidation_,\r\n        uint256 rewardForValidatorsAfterEachEra_\r\n    ) ERC20Stakable(name_, symbol_, minStakedAmountForValidation_) {\r\n        _rewardForValidatorsAfterEachEra = rewardForValidatorsAfterEachEra_;\r\n    }\r\n\r\n    event NewEraElecationProposal(\r\n        bytes32 eraId,\r\n        address chairman,\r\n        address[] council,\r\n        uint256 validatorsCount,\r\n        uint256 calculatedSeed\r\n    );\r\n\r\n    event NewEraElectionComplited(Eras.Era era);\r\n\r\n    event EndEraByNewElectedChairman(\r\n        bytes32 eraId,\r\n        address chairman,\r\n        uint256 timestap\r\n    );\r\n\r\n    modifier onlyValidatorAction() {\r\n        uint256 validatorNodeIndex = _validatorsStakeholderIndexes[msg.sender];\r\n        require(validatorNodeIndex != 0, \"Voting forbidden for non-validators\");\r\n        _;\r\n    }\r\n\r\n    //** for INTERFACE !!! */\r\n    function getValidatorsCount() external view override returns (uint256) {\r\n        return _validatorsCount;\r\n    }\r\n\r\n    function getCurrentEra()\r\n        external\r\n        view\r\n        override\r\n        returns (Eras.Era memory currentEra)\r\n    {\r\n        return _eras[_activeEraId];\r\n    }\r\n\r\n    function getErasCount() external view override returns (uint256) {\r\n        return _erasCount;\r\n    }\r\n\r\n    function endEra(uint256 timestamp) external override {\r\n        address caller = msg.sender;\r\n        Eras.Era memory eraToEnd = _eras[_activeEraId];\r\n\r\n        //TODO: validation for time elapsed\r\n        require(\r\n            caller == eraToEnd.chairman,\r\n            \"Only chairman can end current era\"\r\n        );\r\n        if (_previousEraId == 0 && _activeEraId == 0) {\r\n            //corner case . The only time when this will be executed\r\n            //is on the very firs era\r\n            //no fees for distribution\r\n            //and auto set previous era as current era\r\n            _previousEraId = _activeEraId;\r\n        } else {\r\n            _payReward(\r\n                eraToEnd.colectedFeesAmount + _rewardForValidatorsAfterEachEra,\r\n                caller,\r\n                _previousEraId\r\n            );\r\n            _previousEraId = _activeEraId;\r\n        }\r\n        _activeEraId = _lastApprovedEra;\r\n        eraToEnd.ended = true;\r\n        emit EndEraByNewElectedChairman(_activeEraId, caller, timestamp);\r\n        //more complex stuff - add validation for timestamp by nodes, with another vote and\r\n        //if proposed timestamp is wrong, and consensus is reached - punish the node\r\n        //that execute this code. For now this will not be implemented\r\n    }\r\n\r\n    function proposeNewEra(\r\n        bytes32 eraId_,\r\n        address chairman_,\r\n        address[] memory coucil_,\r\n        uint256 utcTimeStamp_,\r\n        uint256 calculatedSeed_\r\n    ) external override {\r\n        address caller = msg.sender;\r\n        Eras.Era memory currentEra = _getCurrentEraInternal();\r\n        if (currentEra.chairman != address(0)) {\r\n            //this is not the first era. Only previous chairman can propose new election\r\n            require(\r\n                caller == currentEra.chairman,\r\n                \"Caller not previous era chairman. Access denied\"\r\n            );\r\n        }\r\n        //check if era with the same eraId already exist!\r\n        Eras.Era storage eraWithGivenId = _eras[eraId_];\r\n        require(\r\n            //eraId is unique. If era with that Id is found, then the proposal is not valid\r\n            eraWithGivenId.chairman == address(0),\r\n            \"Era with the same ID already proposed\"\r\n        );\r\n        //TODO: after testing new proposed era should come with one possitive vote\r\n\r\n        uint256 totalWeightOfProposedConcil = 0;\r\n        for (uint256 i = 0; i < coucil_.length; i++) {\r\n            address coucilMemberAddress = coucil_[i];\r\n            uint256 coucilMememberIndex = _getStakeholderIndex(\r\n                coucilMemberAddress\r\n            );\r\n\r\n            Stakeholders.Stakeholder storage coucilMember = _stakeholders[\r\n                coucilMememberIndex\r\n            ];\r\n\r\n            totalWeightOfProposedConcil += coucilMember.totalAmount;\r\n        }\r\n        _eras[eraId_] = Eras.Era({\r\n            id: eraId_,\r\n            previousEraId: _previousEraId,\r\n            colectedFeesAmount: 0,\r\n            startDate: utcTimeStamp_,\r\n            endDate: 0,\r\n            chairman: chairman_,\r\n            requiredQuorum: _calculateMinimumNodesCountForReachingQuorum(), //51% of all validators\r\n            isQuorumReached: false,\r\n            possitiveVotes: 0,\r\n            negativeVotes: 0,\r\n            accepted: false,\r\n            ended: false,\r\n            totalWeightOfVotingCoucil: totalWeightOfProposedConcil\r\n        });\r\n\r\n        emit NewEraElecationProposal(\r\n            eraId_,\r\n            chairman_,\r\n            coucil_,\r\n            _validatorsCount,\r\n            calculatedSeed_\r\n        );\r\n    }\r\n\r\n    function voteForProposedEra(bytes32 eraId, bool approves)\r\n        external\r\n        override\r\n        onlyValidatorAction\r\n    {\r\n        Eras.Era storage era = _eras[eraId];\r\n\r\n        require(\r\n            era.chairman != address(0),\r\n            \"Era with passed Id does not exist\"\r\n        );\r\n\r\n        require(\r\n            era.isQuorumReached == false,\r\n            \"Vote already ended for that era\"\r\n        );\r\n\r\n        address caller = msg.sender;\r\n\r\n        ErasVotes.ErasVote storage eraVote = _eraValidatorVotes[eraId][caller];\r\n\r\n        require(eraVote.voter == address(0), \"Validator already voted\");\r\n\r\n        //register vote\r\n        _eraValidatorVotes[eraId][caller] = ErasVotes.ErasVote({\r\n            voter: caller,\r\n            approve: approves\r\n        });\r\n\r\n        //check required quorum is reached\r\n        if (approves == true) {\r\n            era.possitiveVotes += uint256(1);\r\n            if (era.possitiveVotes == era.requiredQuorum) {\r\n                //era election is approved!\r\n                era.isQuorumReached = true;\r\n                era.accepted = true;\r\n                _lastApprovedEra = eraId;\r\n            }\r\n        } else {\r\n            era.negativeVotes += uint256(1);\r\n            if (era.negativeVotes == era.requiredQuorum) {\r\n                //era election is denied!\r\n                era.isQuorumReached = true;\r\n                era.accepted = false;\r\n                //TODO: initialized a revote and new proposal!\r\n                //TODO: punish the era proposal node (slash)\r\n            }\r\n        }\r\n\r\n        if (era.isQuorumReached == true) {\r\n            emit NewEraElectionComplited(era);\r\n        }\r\n    }\r\n\r\n    function getEraById(bytes32 eraId_)\r\n        external\r\n        view\r\n        override\r\n        returns (Eras.Era memory era)\r\n    {\r\n        return _eras[eraId_];\r\n    }\r\n\r\n    function getValidatorsCoundForActiveEra()\r\n        external\r\n        view\r\n        override\r\n        returns (uint256)\r\n    {\r\n        Eras.Era memory era = _getCurrentEraInternal();\r\n        if (era.chairman != address(0)) {\r\n            // in this case we don't have active era:\r\n            //return validators cound\r\n            return _validatorsCount;\r\n        }\r\n        address[] storage coucil = _erasCouncil[era.id];\r\n        return coucil.length + 1; // coucil count + 1 which is the chairman\r\n    }\r\n\r\n    function isAddressElectedForValidation(address address_)\r\n        external\r\n        view\r\n        override\r\n        returns (bool)\r\n    {\r\n        Eras.Era memory era = _getCurrentEraInternal();\r\n        if (era.chairman != address(0)) {\r\n            return true;\r\n        }\r\n        address[] storage coucil = _erasCouncil[era.id];\r\n\r\n        for (uint256 i = 0; i < coucil.length; i++) {\r\n            if (address_ == coucil[i]) {\r\n                return true;\r\n            }\r\n        }\r\n        return false;\r\n    }\r\n\r\n    function _getCurrentEraInternal()\r\n        internal\r\n        view\r\n        returns (Eras.Era memory era)\r\n    {\r\n        return _eras[_activeEraId];\r\n    }\r\n\r\n    function _payReward(\r\n        uint256 tokenAmountForDistribution_,\r\n        address chainman_,\r\n        bytes32 eraId_\r\n    ) internal virtual {\r\n        //simple scheme withoud nominators\r\n        //this reward scheme can be ovveriden for much complex one\r\n        //for simple reward distribution\r\n        //chainrman gets 50% of all fees\r\n        uint256 chairmanReward = tokenAmountForDistribution_ / 2;\r\n        uint256 stakeholderIndex = _stakeholdersIndexes[chainman_];\r\n        Stakeholders.Stakeholder storage chairman = _stakeholders[\r\n            stakeholderIndex\r\n        ];\r\n\r\n        require(chairman.user != address(0), \"Chairman address does not exist\");\r\n\r\n        chairman.notCollectedTokenRewards += chairmanReward;\r\n        chairman.totalAmount += chairmanReward;\r\n\r\n        uint256 remainingRewardForDistribution = tokenAmountForDistribution_ -\r\n            chairmanReward;\r\n\r\n        _calculateValidatorsPrice(\r\n            eraId_,\r\n            remainingRewardForDistribution,\r\n            chainman_\r\n        );\r\n    }\r\n\r\n    function _calculateMinimumNodesCountForReachingQuorum()\r\n        private\r\n        view\r\n        returns (uint256)\r\n    {\r\n        if (_validatorsCount == 1) {\r\n            return 1;\r\n        }\r\n\r\n        return\r\n            (_validatorsCount *\r\n                MINIMUM_QUORUM_REQUURED_FOR_VALIDATION_IN_PERCENTS) / 100;\r\n    }\r\n\r\n    function getLastApprovedEraId() public view returns (bytes32) {\r\n        return _lastApprovedEra;\r\n    }\r\n\r\n    function _calculateValidatorsPrice(\r\n        bytes32 eraId_,\r\n        uint256 remainingAmountForDistribution_,\r\n        address chairman_\r\n    ) internal {\r\n        address[] storage erasConcil = _erasCouncil[eraId_];\r\n\r\n        if (erasConcil.length == 0) {\r\n            uint256 chairmanIndex = _getStakeholderIndex(chairman_);\r\n\r\n            require(chairmanIndex != 0, \"Invalid chariman address\");\r\n\r\n            Stakeholders.Stakeholder storage chairman = _stakeholders[\r\n                chairmanIndex\r\n            ];\r\n\r\n            chairman.totalAmount += remainingAmountForDistribution_;\r\n            chairman\r\n                .notCollectedTokenRewards += remainingAmountForDistribution_;\r\n            return;\r\n        }\r\n\r\n        Eras.Era storage era = _eras[eraId_];\r\n\r\n        require(era.chairman != address(0), \"Invalid Era Id\");\r\n\r\n        for (uint256 i = 0; i < erasConcil.length; i++) {\r\n            uint256 stakeholderIndex = _getStakeholderIndex(erasConcil[i]);\r\n            require(stakeholderIndex != 0, \"Invalid chairman address\");\r\n\r\n            Stakeholders.Stakeholder storage coucilMember = _stakeholders[\r\n                stakeholderIndex\r\n            ];\r\n\r\n            if (coucilMember.user != address(0)) {\r\n                uint256 priceShareInPercents = (coucilMember.totalAmount *\r\n                    100) / era.totalWeightOfVotingCoucil;\r\n\r\n                uint256 praceTokenAmount = (remainingAmountForDistribution_ *\r\n                    priceShareInPercents) / 100;\r\n\r\n                remainingAmountForDistribution_ -= praceTokenAmount;\r\n                coucilMember.totalAmount += praceTokenAmount;\r\n                coucilMember.notCollectedTokenRewards += praceTokenAmount;\r\n            }\r\n        }\r\n    }\r\n\r\n    function endEraBackDoor(uint256 timestamp) public {\r\n        address caller = msg.sender;\r\n        Eras.Era memory ereToEnd = _eras[_activeEraId];\r\n\r\n        if (_previousEraId == 0 && _activeEraId == 0) {\r\n            //corner case . The only time when this will be executed\r\n            //is on the very firs era\r\n            //no fees for distribution\r\n            //and auto set previous era as current era\r\n            _previousEraId = _activeEraId;\r\n        } else {\r\n            _payReward(\r\n                ereToEnd.colectedFeesAmount + _rewardForValidatorsAfterEachEra,\r\n                caller,\r\n                _previousEraId\r\n            );\r\n            _previousEraId = _activeEraId;\r\n        }\r\n        _activeEraId = _lastApprovedEra;\r\n\r\n        emit EndEraByNewElectedChairman(_activeEraId, caller, timestamp);\r\n        //more complex stuff - add validation for timestamp by nodes, with another vote and\r\n        //if proposed timestamp is wrong, and consensus is reached - punish the node\r\n        //that execute this code. For now this will not be implemented\r\n    }\r\n\r\n    function callEndEraBackDoor() public {\r\n        Eras.Era memory era = _eras[_lastApprovedEra];\r\n\r\n        emit NewEraElectionComplited(era);\r\n    }\r\n}\r\n",
  "sourcePath": "D:\\Documents\\Dev\\Repositories\\gold-price-oracle\\gold-price-oracle\\on-chain\\contracts\\token\\base\\ERC20ProofOfStake.sol",
  "compiler": {
    "name": "solc",
    "version": "0.8.0+commit.c7dfd78e.Emscripten.clang"
  },
  "schemaVersion": "3.4.3",
  "updatedAt": "2022-05-23T23:43:41.296Z",
  "devdoc": {
    "kind": "dev",
    "methods": {
      "allowance(address,address)": {
        "details": "See {IERC20-allowance}."
      },
      "approve(address,uint256)": {
        "details": "See {IERC20-approve}. NOTE: If `amount` is the maximum `uint256`, the allowance is not updated on `transferFrom`. This is semantically equivalent to an infinite approval. Requirements: - `spender` cannot be the zero address."
      },
      "balanceOf(address)": {
        "details": "See {IERC20-balanceOf}."
      },
      "decimals()": {
        "details": "Returns the number of decimals used to get its user representation. For example, if `decimals` equals `2`, a balance of `505` tokens should be displayed to a user as `5.05` (`505 / 10 ** 2`). Tokens usually opt for a value of 18, imitating the relationship between Ether and Wei. This is the value {ERC20} uses, unless this function is overridden; NOTE: This information is only used for _display_ purposes: it in no way affects any of the arithmetic of the contract, including {IERC20-balanceOf} and {IERC20-transfer}."
      },
      "decreaseAllowance(address,uint256)": {
        "details": "Atomically decreases the allowance granted to `spender` by the caller. This is an alternative to {approve} that can be used as a mitigation for problems described in {IERC20-approve}. Emits an {Approval} event indicating the updated allowance. Requirements: - `spender` cannot be the zero address. - `spender` must have allowance for the caller of at least `subtractedValue`."
      },
      "increaseAllowance(address,uint256)": {
        "details": "Atomically increases the allowance granted to `spender` by the caller. This is an alternative to {approve} that can be used as a mitigation for problems described in {IERC20-approve}. Emits an {Approval} event indicating the updated allowance. Requirements: - `spender` cannot be the zero address."
      },
      "name()": {
        "details": "Returns the name of the token."
      },
      "symbol()": {
        "details": "Returns the symbol of the token, usually a shorter version of the name."
      },
      "totalSupply()": {
        "details": "See {IERC20-totalSupply}."
      },
      "transfer(address,uint256)": {
        "details": "See {IERC20-transfer}. Requirements: - `to` cannot be the zero address. - the caller must have a balance of at least `amount`."
      },
      "transferFrom(address,address,uint256)": {
        "details": "See {IERC20-transferFrom}. Emits an {Approval} event indicating the updated allowance. This is not required by the EIP. See the note at the beginning of {ERC20}. NOTE: Does not update the allowance if the current allowance is the maximum `uint256`. Requirements: - `from` and `to` cannot be the zero address. - `from` must have a balance of at least `amount`. - the caller must have allowance for ``from``'s tokens of at least `amount`."
      }
    },
    "version": 1
  },
  "userdoc": {
    "kind": "user",
    "methods": {},
    "version": 1
  }
}