{
  "contractName": "ERC20Stakable",
  "abi": [
    {
      "inputs": [
        {
          "internalType": "string",
          "name": "name_",
          "type": "string"
        },
        {
          "internalType": "string",
          "name": "symbol_",
          "type": "string"
        },
        {
          "internalType": "uint256",
          "name": "minStakedAmountForValidation_",
          "type": "uint256"
        },
        {
          "internalType": "uint256",
          "name": "rewardForValidatorsAfterEachEra_",
          "type": "uint256"
        }
      ],
      "stateMutability": "nonpayable",
      "type": "constructor"
    },
    {
      "anonymous": false,
      "inputs": [
        {
          "indexed": true,
          "internalType": "address",
          "name": "owner",
          "type": "address"
        },
        {
          "indexed": true,
          "internalType": "address",
          "name": "spender",
          "type": "address"
        },
        {
          "indexed": false,
          "internalType": "uint256",
          "name": "value",
          "type": "uint256"
        }
      ],
      "name": "Approval",
      "type": "event"
    },
    {
      "anonymous": false,
      "inputs": [
        {
          "indexed": true,
          "internalType": "address",
          "name": "from",
          "type": "address"
        },
        {
          "indexed": true,
          "internalType": "address",
          "name": "to",
          "type": "address"
        },
        {
          "indexed": false,
          "internalType": "uint256",
          "name": "value",
          "type": "uint256"
        }
      ],
      "name": "Transfer",
      "type": "event"
    },
    {
      "inputs": [
        {
          "internalType": "address",
          "name": "owner",
          "type": "address"
        },
        {
          "internalType": "address",
          "name": "spender",
          "type": "address"
        }
      ],
      "name": "allowance",
      "outputs": [
        {
          "internalType": "uint256",
          "name": "",
          "type": "uint256"
        }
      ],
      "stateMutability": "view",
      "type": "function"
    },
    {
      "inputs": [
        {
          "internalType": "address",
          "name": "spender",
          "type": "address"
        },
        {
          "internalType": "uint256",
          "name": "amount",
          "type": "uint256"
        }
      ],
      "name": "approve",
      "outputs": [
        {
          "internalType": "bool",
          "name": "",
          "type": "bool"
        }
      ],
      "stateMutability": "nonpayable",
      "type": "function"
    },
    {
      "inputs": [
        {
          "internalType": "address",
          "name": "account",
          "type": "address"
        }
      ],
      "name": "balanceOf",
      "outputs": [
        {
          "internalType": "uint256",
          "name": "",
          "type": "uint256"
        }
      ],
      "stateMutability": "view",
      "type": "function"
    },
    {
      "inputs": [],
      "name": "decimals",
      "outputs": [
        {
          "internalType": "uint8",
          "name": "",
          "type": "uint8"
        }
      ],
      "stateMutability": "view",
      "type": "function"
    },
    {
      "inputs": [
        {
          "internalType": "address",
          "name": "spender",
          "type": "address"
        },
        {
          "internalType": "uint256",
          "name": "subtractedValue",
          "type": "uint256"
        }
      ],
      "name": "decreaseAllowance",
      "outputs": [
        {
          "internalType": "bool",
          "name": "",
          "type": "bool"
        }
      ],
      "stateMutability": "nonpayable",
      "type": "function"
    },
    {
      "inputs": [
        {
          "internalType": "address",
          "name": "spender",
          "type": "address"
        },
        {
          "internalType": "uint256",
          "name": "addedValue",
          "type": "uint256"
        }
      ],
      "name": "increaseAllowance",
      "outputs": [
        {
          "internalType": "bool",
          "name": "",
          "type": "bool"
        }
      ],
      "stateMutability": "nonpayable",
      "type": "function"
    },
    {
      "inputs": [],
      "name": "name",
      "outputs": [
        {
          "internalType": "string",
          "name": "",
          "type": "string"
        }
      ],
      "stateMutability": "view",
      "type": "function"
    },
    {
      "inputs": [],
      "name": "symbol",
      "outputs": [
        {
          "internalType": "string",
          "name": "",
          "type": "string"
        }
      ],
      "stateMutability": "view",
      "type": "function"
    },
    {
      "inputs": [],
      "name": "totalSupply",
      "outputs": [
        {
          "internalType": "uint256",
          "name": "",
          "type": "uint256"
        }
      ],
      "stateMutability": "view",
      "type": "function"
    },
    {
      "inputs": [
        {
          "internalType": "address",
          "name": "to",
          "type": "address"
        },
        {
          "internalType": "uint256",
          "name": "amount",
          "type": "uint256"
        }
      ],
      "name": "transfer",
      "outputs": [
        {
          "internalType": "bool",
          "name": "",
          "type": "bool"
        }
      ],
      "stateMutability": "nonpayable",
      "type": "function"
    },
    {
      "inputs": [
        {
          "internalType": "address",
          "name": "from",
          "type": "address"
        },
        {
          "internalType": "address",
          "name": "to",
          "type": "address"
        },
        {
          "internalType": "uint256",
          "name": "amount",
          "type": "uint256"
        }
      ],
      "name": "transferFrom",
      "outputs": [
        {
          "internalType": "bool",
          "name": "",
          "type": "bool"
        }
      ],
      "stateMutability": "nonpayable",
      "type": "function"
    },
    {
      "inputs": [
        {
          "internalType": "address",
          "name": "address_",
          "type": "address"
        }
      ],
      "name": "getStakedAmount",
      "outputs": [
        {
          "internalType": "uint256",
          "name": "",
          "type": "uint256"
        }
      ],
      "stateMutability": "view",
      "type": "function"
    },
    {
      "inputs": [
        {
          "internalType": "address",
          "name": "address_",
          "type": "address"
        }
      ],
      "name": "getStakeholderInformation",
      "outputs": [
        {
          "internalType": "uint256",
          "name": "",
          "type": "uint256"
        },
        {
          "internalType": "uint256",
          "name": "",
          "type": "uint256"
        },
        {
          "internalType": "uint256",
          "name": "",
          "type": "uint256"
        },
        {
          "internalType": "uint256",
          "name": "",
          "type": "uint256"
        },
        {
          "internalType": "bool",
          "name": "",
          "type": "bool"
        }
      ],
      "stateMutability": "view",
      "type": "function"
    },
    {
      "inputs": [
        {
          "internalType": "uint256",
          "name": "amount_",
          "type": "uint256"
        }
      ],
      "name": "stake",
      "outputs": [],
      "stateMutability": "nonpayable",
      "type": "function"
    },
    {
      "inputs": [
        {
          "internalType": "uint256",
          "name": "amount_",
          "type": "uint256"
        }
      ],
      "name": "unstake",
      "outputs": [],
      "stateMutability": "nonpayable",
      "type": "function"
    },
    {
      "inputs": [],
      "name": "getValidatorsCount",
      "outputs": [
        {
          "internalType": "uint256",
          "name": "",
          "type": "uint256"
        }
      ],
      "stateMutability": "view",
      "type": "function"
    },
    {
      "inputs": [],
      "name": "getCurrentEra",
      "outputs": [
        {
          "components": [
            {
              "internalType": "bytes32",
              "name": "id",
              "type": "bytes32"
            },
            {
              "internalType": "uint256",
              "name": "colectedFeesAmount",
              "type": "uint256"
            },
            {
              "internalType": "uint256",
              "name": "startDate",
              "type": "uint256"
            },
            {
              "internalType": "uint256",
              "name": "endDate",
              "type": "uint256"
            },
            {
              "internalType": "address",
              "name": "chairman",
              "type": "address"
            }
          ],
          "internalType": "struct Eras.Era",
          "name": "currentEra",
          "type": "tuple"
        }
      ],
      "stateMutability": "view",
      "type": "function"
    },
    {
      "inputs": [],
      "name": "getErasCount",
      "outputs": [
        {
          "internalType": "uint256",
          "name": "",
          "type": "uint256"
        }
      ],
      "stateMutability": "view",
      "type": "function"
    },
    {
      "inputs": [],
      "name": "endCurrentEra",
      "outputs": [],
      "stateMutability": "nonpayable",
      "type": "function"
    },
    {
      "inputs": [],
      "name": "electNewChairman",
      "outputs": [
        {
          "internalType": "address",
          "name": "",
          "type": "address"
        }
      ],
      "stateMutability": "nonpayable",
      "type": "function"
    },
    {
      "inputs": [],
      "name": "startNewEra",
      "outputs": [
        {
          "internalType": "bytes32",
          "name": "",
          "type": "bytes32"
        }
      ],
      "stateMutability": "nonpayable",
      "type": "function"
    }
  ],
  "bytecode": "0x60c06040523480156200001157600080fd5b50604051620030ac380380620030ac8339818101604052810190620000379190620001d0565b838381600390805190602001906200005192919062000097565b5080600490805190602001906200006a92919062000097565b5050508160a0818152505060006005819055506000600681905550806080818152505050505050620003c3565b828054620000a59062000315565b90600052602060002090601f016020900481019282620000c9576000855562000115565b82601f10620000e457805160ff191683800117855562000115565b8280016001018555821562000115579182015b8281111562000114578251825591602001919060010190620000f7565b5b50905062000124919062000128565b5090565b5b808211156200014357600081600090555060010162000129565b5090565b60006200015e6200015884620002a2565b6200026e565b9050828152602081018484840111156200017757600080fd5b62000184848285620002df565b509392505050565b600082601f8301126200019e57600080fd5b8151620001b084826020860162000147565b91505092915050565b600081519050620001ca81620003a9565b92915050565b60008060008060808587031215620001e757600080fd5b600085015167ffffffffffffffff8111156200020257600080fd5b62000210878288016200018c565b945050602085015167ffffffffffffffff8111156200022e57600080fd5b6200023c878288016200018c565b93505060406200024f87828801620001b9565b92505060606200026287828801620001b9565b91505092959194509250565b6000604051905081810181811067ffffffffffffffff821117156200029857620002976200037a565b5b8060405250919050565b600067ffffffffffffffff821115620002c057620002bf6200037a565b5b601f19601f8301169050602081019050919050565b6000819050919050565b60005b83811015620002ff578082015181840152602081019050620002e2565b838111156200030f576000848401525b50505050565b600060028204905060018216806200032e57607f821691505b602082108114156200034557620003446200034b565b5b50919050565b7f4e487b7100000000000000000000000000000000000000000000000000000000600052602260045260246000fd5b7f4e487b7100000000000000000000000000000000000000000000000000000000600052604160045260246000fd5b620003b481620002d5565b8114620003c057600080fd5b50565b60805160a051612cb5620003f7600039600081816107390152818161155501526118b901526000610cc70152612cb56000f3fe608060405234801561001057600080fd5b50600436106101375760003560e01c80634da6a556116100b8578063a457c2d71161007c578063a457c2d71461036c578063a694fc3a1461039c578063a9059cbb146103b8578063b64cd8ca146103e8578063d250b6cb146103f2578063dd62ed3e1461041057610137565b80634da6a556146102b2578063533aa7b8146102e257806370a082311461030057806395d89b4114610330578063a2709eb41461034e57610137565b806327498240116100ff57806327498240146101f65780632bf9262c146102145780632e17de7814610248578063313ce56714610264578063395093511461028257610137565b806306fdde031461013c578063095ea7b31461015a57806318160ddd1461018a5780631e70953e146101a857806323b872dd146101c6575b600080fd5b610144610440565b60405161015191906126df565b60405180910390f35b610174600480360381019061016f9190611f1f565b6104d2565b60405161018191906126a9565b60405180910390f35b6101926104f5565b60405161019f919061291c565b60405180910390f35b6101b06104ff565b6040516101bd91906126c4565b60405180910390f35b6101e060048036038101906101db9190611ed0565b610504565b6040516101ed91906126a9565b60405180910390f35b6101fe610533565b60405161020b919061291c565b60405180910390f35b61022e60048036038101906102299190611e6b565b61053d565b60405161023f959493929190612937565b60405180910390f35b610262600480360381019061025d9190611f5b565b61061b565b005b61026c6107c8565b604051610279919061298a565b60405180910390f35b61029c60048036038101906102979190611f1f565b6107d1565b6040516102a991906126a9565b60405180910390f35b6102cc60048036038101906102c79190611e6b565b61087b565b6040516102d9919061291c565b60405180910390f35b6102ea610934565b6040516102f7919061291c565b60405180910390f35b61031a60048036038101906103159190611e6b565b61093e565b604051610327919061291c565b60405180910390f35b610338610986565b60405161034591906126df565b60405180910390f35b610356610a18565b604051610363919061268e565b60405180910390f35b61038660048036038101906103819190611f1f565b610a1d565b60405161039391906126a9565b60405180910390f35b6103b660048036038101906103b19190611f5b565b610b07565b005b6103d260048036038101906103cd9190611f1f565b610c1c565b6040516103df91906126a9565b60405180910390f35b6103f0610c3f565b005b6103fa610cff565b6040516104079190612901565b60405180910390f35b61042a60048036038101906104259190611e94565b610d97565b604051610437919061291c565b60405180910390f35b60606003805461044f90612b38565b80601f016020809104026020016040519081016040528092919081815260200182805461047b90612b38565b80156104c85780601f1061049d576101008083540402835291602001916104c8565b820191906000526020600020905b8154815290600101906020018083116104ab57829003601f168201915b5050505050905090565b6000806104dd610e1e565b90506104ea818585610e26565b600191505092915050565b6000600254905090565b600090565b60008061050f610e1e565b905061051c858285610ff1565b61052785858561107d565b60019150509392505050565b6000600554905090565b60008060008060008061054f876112fe565b905060008111610594576040517f08c379a000000000000000000000000000000000000000000000000000000000815260040161058b90612801565b60405180910390fd5b6000600782815481106105d0577f4e487b7100000000000000000000000000000000000000000000000000000000600052603260045260246000fd5b9060005260206000209060070201905080600101548160020154826003015483600401548460050160009054906101000a900460ff1696509650965096509650505091939590929450565b60003390506000600960008373ffffffffffffffffffffffffffffffffffffffff1673ffffffffffffffffffffffffffffffffffffffff16815260200190815260200160002054905060008114156106745750506107c5565b6000600782815481106106b0577f4e487b7100000000000000000000000000000000000000000000000000000000600052603260045260246000fd5b906000526020600020906007020190508381600101541015610707576040517f08c379a00000000000000000000000000000000000000000000000000000000081526004016106fe906127a1565b60405180910390fd5b60008482600101600082825461071d9190612a48565b92505081905590508082600101819055508082600201819055507f000000000000000000000000000000000000000000000000000000000000000081106107805760018260050160006101000a81548160ff0219169083151502179055506107b6565b60008260050160006101000a81548160ff021916908315150217905550600560008154809291906107b090612b0e565b91905055505b6107c084866113f1565b505050505b50565b60006012905090565b6000806107dc610e1e565b9050610870818585600160008673ffffffffffffffffffffffffffffffffffffffff1673ffffffffffffffffffffffffffffffffffffffff16815260200190815260200160002060008973ffffffffffffffffffffffffffffffffffffffff1673ffffffffffffffffffffffffffffffffffffffff1681526020019081526020016000205461086b91906129c1565b610e26565b600191505092915050565b600081600073ffffffffffffffffffffffffffffffffffffffff168173ffffffffffffffffffffffffffffffffffffffff1614156108b857600080fd5b60006108c3846112fe565b905060008114156108d857600092505061092e565b600060078281548110610914577f4e487b7100000000000000000000000000000000000000000000000000000000600052603260045260246000fd5b906000526020600020906007020190508060010154935050505b50919050565b6000600654905090565b60008060008373ffffffffffffffffffffffffffffffffffffffff1673ffffffffffffffffffffffffffffffffffffffff168152602001908152602001600020549050919050565b60606004805461099590612b38565b80601f01602080910402602001604051908101604052809291908181526020018280546109c190612b38565b8015610a0e5780601f106109e357610100808354040283529160200191610a0e565b820191906000526020600020905b8154815290600101906020018083116109f157829003601f168201915b5050505050905090565b600090565b600080610a28610e1e565b90506000600160008373ffffffffffffffffffffffffffffffffffffffff1673ffffffffffffffffffffffffffffffffffffffff16815260200190815260200160002060008673ffffffffffffffffffffffffffffffffffffffff1673ffffffffffffffffffffffffffffffffffffffff16815260200190815260200160002054905083811015610aee576040517f08c379a0000000000000000000000000000000000000000000000000000000008152600401610ae5906128c1565b60405180910390fd5b610afb8286868403610e26565b60019250505092915050565b600033905060003073ffffffffffffffffffffffffffffffffffffffff166370a08231836040518263ffffffff1660e01b8152600401610b47919061268e565b60206040518083038186803b158015610b5f57600080fd5b505afa158015610b73573d6000803e3d6000fd5b505050506040513d601f19601f82011682018060405250810190610b979190611f84565b905082811015610bdc576040517f08c379a0000000000000000000000000000000000000000000000000000000008152600401610bd3906127e1565b60405180910390fd5b6000610be7836112fe565b90506000811415610c0157610bfc8385611551565b610c0c565b610c0b818561181d565b5b610c16838561193c565b50505050565b600080610c27610e1e565b9050610c3481858561107d565b600191505092915050565b60003390506000610c4e611b13565b9050806080015173ffffffffffffffffffffffffffffffffffffffff168273ffffffffffffffffffffffffffffffffffffffff1614610cc2576040517f08c379a0000000000000000000000000000000000000000000000000000000008152600401610cb990612821565b60405180910390fd5b610cfb7f00000000000000000000000000000000000000000000000000000000000000008260200151610cf591906129c1565b83611bab565b5050565b610d07611de4565b600b6040518060a0016040529081600082015481526020016001820154815260200160028201548152602001600382015481526020016004820160009054906101000a900473ffffffffffffffffffffffffffffffffffffffff1673ffffffffffffffffffffffffffffffffffffffff1673ffffffffffffffffffffffffffffffffffffffff1681525050905090565b6000600160008473ffffffffffffffffffffffffffffffffffffffff1673ffffffffffffffffffffffffffffffffffffffff16815260200190815260200160002060008373ffffffffffffffffffffffffffffffffffffffff1673ffffffffffffffffffffffffffffffffffffffff16815260200190815260200160002054905092915050565b600033905090565b600073ffffffffffffffffffffffffffffffffffffffff168373ffffffffffffffffffffffffffffffffffffffff161415610e96576040517f08c379a0000000000000000000000000000000000000000000000000000000008152600401610e8d906128a1565b60405180910390fd5b600073ffffffffffffffffffffffffffffffffffffffff168273ffffffffffffffffffffffffffffffffffffffff161415610f06576040517f08c379a0000000000000000000000000000000000000000000000000000000008152600401610efd90612761565b60405180910390fd5b80600160008573ffffffffffffffffffffffffffffffffffffffff1673ffffffffffffffffffffffffffffffffffffffff16815260200190815260200160002060008473ffffffffffffffffffffffffffffffffffffffff1673ffffffffffffffffffffffffffffffffffffffff168152602001908152602001600020819055508173ffffffffffffffffffffffffffffffffffffffff168373ffffffffffffffffffffffffffffffffffffffff167f8c5be1e5ebec7d5bd14f71427d1e84f3dd0314c0f7b2291e5b200ac8c7c3b92583604051610fe4919061291c565b60405180910390a3505050565b6000610ffd8484610d97565b90507fffffffffffffffffffffffffffffffffffffffffffffffffffffffffffffffff81146110775781811015611069576040517f08c379a000000000000000000000000000000000000000000000000000000000815260040161106090612781565b60405180910390fd5b6110768484848403610e26565b5b50505050565b600073ffffffffffffffffffffffffffffffffffffffff168373ffffffffffffffffffffffffffffffffffffffff1614156110ed576040517f08c379a00000000000000000000000000000000000000000000000000000000081526004016110e490612881565b60405180910390fd5b600073ffffffffffffffffffffffffffffffffffffffff168273ffffffffffffffffffffffffffffffffffffffff16141561115d576040517f08c379a000000000000000000000000000000000000000000000000000000000815260040161115490612701565b60405180910390fd5b611168838383611d13565b60008060008573ffffffffffffffffffffffffffffffffffffffff1673ffffffffffffffffffffffffffffffffffffffff168152602001908152602001600020549050818110156111ee576040517f08c379a00000000000000000000000000000000000000000000000000000000081526004016111e5906127c1565b60405180910390fd5b8181036000808673ffffffffffffffffffffffffffffffffffffffff1673ffffffffffffffffffffffffffffffffffffffff16815260200190815260200160002081905550816000808573ffffffffffffffffffffffffffffffffffffffff1673ffffffffffffffffffffffffffffffffffffffff168152602001908152602001600020600082825461128191906129c1565b925050819055508273ffffffffffffffffffffffffffffffffffffffff168473ffffffffffffffffffffffffffffffffffffffff167fddf252ad1be2c89b69c2b068fc378daa952ba7f163c4a11628f55a4df523b3ef846040516112e5919061291c565b60405180910390a36112f8848484611d18565b50505050565b600081600073ffffffffffffffffffffffffffffffffffffffff168173ffffffffffffffffffffffffffffffffffffffff16141561133b57600080fd5b6000600960008573ffffffffffffffffffffffffffffffffffffffff1673ffffffffffffffffffffffffffffffffffffffff16815260200190815260200160002054905060008114156113925760009250506113eb565b60016007805490506113a49190612a48565b8111156113e6576040517f08c379a00000000000000000000000000000000000000000000000000000000081526004016113dd90612841565b60405180910390fd5b809250505b50919050565b600073ffffffffffffffffffffffffffffffffffffffff168273ffffffffffffffffffffffffffffffffffffffff161415611461576040517f08c379a0000000000000000000000000000000000000000000000000000000008152600401611458906128e1565b60405180910390fd5b61146d60008383611d13565b806002600082825461147f91906129c1565b92505081905550806000808473ffffffffffffffffffffffffffffffffffffffff1673ffffffffffffffffffffffffffffffffffffffff16815260200190815260200160002060008282546114d491906129c1565b925050819055508173ffffffffffffffffffffffffffffffffffffffff16600073ffffffffffffffffffffffffffffffffffffffff167fddf252ad1be2c89b69c2b068fc378daa952ba7f163c4a11628f55a4df523b3ef83604051611539919061291c565b60405180910390a361154d60008383611d18565b5050565b60007f000000000000000000000000000000000000000000000000000000000000000082101590506000600780549050905060008114156116b357808061159790612b6a565b91505060076040518060e00160405280600073ffffffffffffffffffffffffffffffffffffffff168152602001600081526020016000815260200160008152602001600081526020016000151581526020016000815250908060018154018082558091505060019003906000526020600020906007020160009091909190915060008201518160000160006101000a81548173ffffffffffffffffffffffffffffffffffffffff021916908373ffffffffffffffffffffffffffffffffffffffff1602179055506020820151816001015560408201518160020155606082015181600301556080820151816004015560a08201518160050160006101000a81548160ff02191690831515021790555060c0820151816006015550505b60076040518060e001604052808673ffffffffffffffffffffffffffffffffffffffff168152602001858152602001858152602001600081526020016000815260200184151581526020016000815250908060018154018082558091505060019003906000526020600020906007020160009091909190915060008201518160000160006101000a81548173ffffffffffffffffffffffffffffffffffffffff021916908373ffffffffffffffffffffffffffffffffffffffff1602179055506020820151816001015560408201518160020155606082015181600301556080820151816004015560a08201518160050160006101000a81548160ff02191690831515021790555060c08201518160060155505080600960008673ffffffffffffffffffffffffffffffffffffffff1673ffffffffffffffffffffffffffffffffffffffff16815260200190815260200160002081905550611816828583611d1d565b5050505050565b600060078381548110611859577f4e487b7100000000000000000000000000000000000000000000000000000000600052603260045260246000fd5b906000526020600020906007020190508181600101600082825461187d91906129c1565b925050819055508181600201600082825461189891906129c1565b925050819055508060050160009054906101000a900460ff166119375760007f000000000000000000000000000000000000000000000000000000000000000082600101541015905080156119355760018260050160006101000a81548160ff021916908315150217905550611933818360000160009054906101000a900473ffffffffffffffffffffffffffffffffffffffff1686611d1d565b505b505b505050565b600073ffffffffffffffffffffffffffffffffffffffff168273ffffffffffffffffffffffffffffffffffffffff1614156119ac576040517f08c379a00000000000000000000000000000000000000000000000000000000081526004016119a390612861565b60405180910390fd5b6119b882600083611d13565b60008060008473ffffffffffffffffffffffffffffffffffffffff1673ffffffffffffffffffffffffffffffffffffffff16815260200190815260200160002054905081811015611a3e576040517f08c379a0000000000000000000000000000000000000000000000000000000008152600401611a3590612721565b60405180910390fd5b8181036000808573ffffffffffffffffffffffffffffffffffffffff1673ffffffffffffffffffffffffffffffffffffffff168152602001908152602001600020819055508160026000828254611a959190612a48565b92505081905550600073ffffffffffffffffffffffffffffffffffffffff168373ffffffffffffffffffffffffffffffffffffffff167fddf252ad1be2c89b69c2b068fc378daa952ba7f163c4a11628f55a4df523b3ef84604051611afa919061291c565b60405180910390a3611b0e83600084611d18565b505050565b611b1b611de4565b600b6040518060a0016040529081600082015481526020016001820154815260200160028201548152602001600382015481526020016004820160009054906101000a900473ffffffffffffffffffffffffffffffffffffffff1673ffffffffffffffffffffffffffffffffffffffff1673ffffffffffffffffffffffffffffffffffffffff1681525050905090565b6000600283611bba9190612a17565b90506000600960008473ffffffffffffffffffffffffffffffffffffffff1673ffffffffffffffffffffffffffffffffffffffff168152602001908152602001600020549050600060078281548110611c3c577f4e487b7100000000000000000000000000000000000000000000000000000000600052603260045260246000fd5b90600052602060002090600702019050600073ffffffffffffffffffffffffffffffffffffffff168160000160009054906101000a900473ffffffffffffffffffffffffffffffffffffffff1673ffffffffffffffffffffffffffffffffffffffff161415611ce0576040517f08c379a0000000000000000000000000000000000000000000000000000000008152600401611cd790612741565b60405180910390fd5b82816006016000828254611cf491906129c1565b9250508190555060008386611d099190612a48565b9050505050505050565b505050565b505050565b600083611d2d5760009050611ddd565b6000600860008573ffffffffffffffffffffffffffffffffffffffff1673ffffffffffffffffffffffffffffffffffffffff1681526020019081526020016000205490506000811415611dd75782600860008673ffffffffffffffffffffffffffffffffffffffff1673ffffffffffffffffffffffffffffffffffffffff1681526020019081526020016000208190555060056000815480929190611dd190612b6a565b91905055505b60019150505b9392505050565b6040518060a0016040528060008019168152602001600081526020016000815260200160008152602001600073ffffffffffffffffffffffffffffffffffffffff1681525090565b600081359050611e3b81612c51565b92915050565b600081359050611e5081612c68565b92915050565b600081519050611e6581612c68565b92915050565b600060208284031215611e7d57600080fd5b6000611e8b84828501611e2c565b91505092915050565b60008060408385031215611ea757600080fd5b6000611eb585828601611e2c565b9250506020611ec685828601611e2c565b9150509250929050565b600080600060608486031215611ee557600080fd5b6000611ef386828701611e2c565b9350506020611f0486828701611e2c565b9250506040611f1586828701611e41565b9150509250925092565b60008060408385031215611f3257600080fd5b6000611f4085828601611e2c565b9250506020611f5185828601611e41565b9150509250929050565b600060208284031215611f6d57600080fd5b6000611f7b84828501611e41565b91505092915050565b600060208284031215611f9657600080fd5b6000611fa484828501611e56565b91505092915050565b611fb681612a7c565b82525050565b611fc581612a7c565b82525050565b611fd481612a8e565b82525050565b611fe381612a9a565b82525050565b611ff281612a9a565b82525050565b6000612003826129a5565b61200d81856129b0565b935061201d818560208601612adb565b61202681612c40565b840191505092915050565b600061203e6023836129b0565b91507f45524332303a207472616e7366657220746f20746865207a65726f206164647260008301527f65737300000000000000000000000000000000000000000000000000000000006020830152604082019050919050565b60006120a46022836129b0565b91507f45524332303a206275726e20616d6f756e7420657863656564732062616c616e60008301527f63650000000000000000000000000000000000000000000000000000000000006020830152604082019050919050565b600061210a601f836129b0565b91507f43686169726d616e206164647265737320646f6573206e6f74206578697374006000830152602082019050919050565b600061214a6022836129b0565b91507f45524332303a20617070726f766520746f20746865207a65726f20616464726560008301527f73730000000000000000000000000000000000000000000000000000000000006020830152604082019050919050565b60006121b0601d836129b0565b91507f45524332303a20696e73756666696369656e7420616c6c6f77616e63650000006000830152602082019050919050565b60006121f06022836129b0565b91507f496e73756666696369656e742062616c616e636520666f7220756e7374616b6960008301527f6e670000000000000000000000000000000000000000000000000000000000006020830152604082019050919050565b60006122566026836129b0565b91507f45524332303a207472616e7366657220616d6f756e742065786365656473206260008301527f616c616e636500000000000000000000000000000000000000000000000000006020830152604082019050919050565b60006122bc6020836129b0565b91507f496e73756666696369656e742062616c616e636520666f72207374616b696e676000830152602082019050919050565b60006122fc6025836129b0565b91507f41646472657373206e6f74206c696e6b656420746f20616e79207374616b656860008301527f6f6c6465720000000000000000000000000000000000000000000000000000006020830152604082019050919050565b60006123626021836129b0565b91507f4f6e6c792063686169726d616e2063616e20656e642063757272656e7420657260008301527f61000000000000000000000000000000000000000000000000000000000000006020830152604082019050919050565b60006123c86029836129b0565b91507f496e76616c696420696e64657820666f72207374616b65686f6c64657273206360008301527f6f6c6c656374696f6e00000000000000000000000000000000000000000000006020830152604082019050919050565b600061242e6021836129b0565b91507f45524332303a206275726e2066726f6d20746865207a65726f2061646472657360008301527f73000000000000000000000000000000000000000000000000000000000000006020830152604082019050919050565b60006124946025836129b0565b91507f45524332303a207472616e736665722066726f6d20746865207a65726f20616460008301527f64726573730000000000000000000000000000000000000000000000000000006020830152604082019050919050565b60006124fa6024836129b0565b91507f45524332303a20617070726f76652066726f6d20746865207a65726f2061646460008301527f72657373000000000000000000000000000000000000000000000000000000006020830152604082019050919050565b60006125606025836129b0565b91507f45524332303a2064656372656173656420616c6c6f77616e63652062656c6f7760008301527f207a65726f0000000000000000000000000000000000000000000000000000006020830152604082019050919050565b60006125c6601f836129b0565b91507f45524332303a206d696e7420746f20746865207a65726f2061646472657373006000830152602082019050919050565b60a08201600082015161260f6000850182611fda565b5060208201516126226020850182612661565b5060408201516126356040850182612661565b5060608201516126486060850182612661565b50608082015161265b6080850182611fad565b50505050565b61266a81612ac4565b82525050565b61267981612ac4565b82525050565b61268881612ace565b82525050565b60006020820190506126a36000830184611fbc565b92915050565b60006020820190506126be6000830184611fcb565b92915050565b60006020820190506126d96000830184611fe9565b92915050565b600060208201905081810360008301526126f98184611ff8565b905092915050565b6000602082019050818103600083015261271a81612031565b9050919050565b6000602082019050818103600083015261273a81612097565b9050919050565b6000602082019050818103600083015261275a816120fd565b9050919050565b6000602082019050818103600083015261277a8161213d565b9050919050565b6000602082019050818103600083015261279a816121a3565b9050919050565b600060208201905081810360008301526127ba816121e3565b9050919050565b600060208201905081810360008301526127da81612249565b9050919050565b600060208201905081810360008301526127fa816122af565b9050919050565b6000602082019050818103600083015261281a816122ef565b9050919050565b6000602082019050818103600083015261283a81612355565b9050919050565b6000602082019050818103600083015261285a816123bb565b9050919050565b6000602082019050818103600083015261287a81612421565b9050919050565b6000602082019050818103600083015261289a81612487565b9050919050565b600060208201905081810360008301526128ba816124ed565b9050919050565b600060208201905081810360008301526128da81612553565b9050919050565b600060208201905081810360008301526128fa816125b9565b9050919050565b600060a08201905061291660008301846125f9565b92915050565b60006020820190506129316000830184612670565b92915050565b600060a08201905061294c6000830188612670565b6129596020830187612670565b6129666040830186612670565b6129736060830185612670565b6129806080830184611fcb565b9695505050505050565b600060208201905061299f600083018461267f565b92915050565b600081519050919050565b600082825260208201905092915050565b60006129cc82612ac4565b91506129d783612ac4565b9250827fffffffffffffffffffffffffffffffffffffffffffffffffffffffffffffffff03821115612a0c57612a0b612bb3565b5b828201905092915050565b6000612a2282612ac4565b9150612a2d83612ac4565b925082612a3d57612a3c612be2565b5b828204905092915050565b6000612a5382612ac4565b9150612a5e83612ac4565b925082821015612a7157612a70612bb3565b5b828203905092915050565b6000612a8782612aa4565b9050919050565b60008115159050919050565b6000819050919050565b600073ffffffffffffffffffffffffffffffffffffffff82169050919050565b6000819050919050565b600060ff82169050919050565b60005b83811015612af9578082015181840152602081019050612ade565b83811115612b08576000848401525b50505050565b6000612b1982612ac4565b91506000821415612b2d57612b2c612bb3565b5b600182039050919050565b60006002820490506001821680612b5057607f821691505b60208210811415612b6457612b63612c11565b5b50919050565b6000612b7582612ac4565b91507fffffffffffffffffffffffffffffffffffffffffffffffffffffffffffffffff821415612ba857612ba7612bb3565b5b600182019050919050565b7f4e487b7100000000000000000000000000000000000000000000000000000000600052601160045260246000fd5b7f4e487b7100000000000000000000000000000000000000000000000000000000600052601260045260246000fd5b7f4e487b7100000000000000000000000000000000000000000000000000000000600052602260045260246000fd5b6000601f19601f8301169050919050565b612c5a81612a7c565b8114612c6557600080fd5b50565b612c7181612ac4565b8114612c7c57600080fd5b5056fea26469706673582212203e3633003c5523a2896a99ea3cb346c6c0d4cc16dab395b49f0be5c49ad5bd1f64736f6c63430008000033",
  "immutableReferences": {
    "1762": [
      {
        "length": 32,
        "start": 3271
      }
    ],
    "1764": [
      {
        "length": 32,
        "start": 1849
      },
      {
        "length": 32,
        "start": 5461
      },
      {
        "length": 32,
        "start": 6329
      }
    ]
  },
  "source": "pragma solidity ^0.8.0;\r\n\r\nimport \"@openzeppelin/contracts/token/ERC20/ERC20.sol\";\r\nimport \"../Interfaces/IStakable.sol\";\r\nimport \"../utils/NominatingStakeholders.sol\";\r\nimport \"../utils/Eras.sol\";\r\nimport \"../Interfaces/IProofOfStake.sol\";\r\nimport \"../Interfaces/IErasMonitor.sol\";\r\n\r\ncontract ERC20Stakable is IErasMonitor, IProofOfStake, IStakable, ERC20 {\r\n    uint256 immutable _rewardForValidatorsAfterEachEra;\r\n    uint256 immutable _minStakedAmountForValidation;\r\n    uint256 private _validatorsCount;\r\n    uint256 private _erasCount;\r\n    Stakeholders.Stakeholder[] private _stakeholders;\r\n    mapping(address => uint256) private _validatorsStakeholderIndexes;\r\n    mapping(address => uint256) private _stakeholdersIndexes;\r\n    mapping(bytes32 => Eras.Era) private _eras;\r\n    Eras.Era private _currentErra;\r\n\r\n    constructor(\r\n        string memory name_,\r\n        string memory symbol_,\r\n        uint256 minStakedAmountForValidation_,\r\n        uint256 rewardForValidatorsAfterEachEra_\r\n    ) ERC20(name_, symbol_) {\r\n        _minStakedAmountForValidation = minStakedAmountForValidation_;\r\n        _validatorsCount = 0;\r\n        _erasCount = 0;\r\n        _rewardForValidatorsAfterEachEra = rewardForValidatorsAfterEachEra_;\r\n    }\r\n\r\n    modifier notNullAddress(address address_) {\r\n        require(address_ != address(0));\r\n        _;\r\n    }\r\n\r\n    function getStakedAmount(address address_)\r\n        external\r\n        view\r\n        override\r\n        notNullAddress(address_)\r\n        returns (uint256)\r\n    {\r\n        uint256 stakeholderIndex = _getStakeholderIndex(address_);\r\n        if (stakeholderIndex == 0) {\r\n            //no stakeholder registered\r\n            return 0;\r\n        }\r\n        Stakeholders.Stakeholder storage stakeholder = _stakeholders[\r\n            stakeholderIndex\r\n        ];\r\n        return stakeholder.totalAmount;\r\n    }\r\n\r\n    function getStakeholderInformation(address address_)\r\n        external\r\n        view\r\n        override\r\n        returns (\r\n            uint256,\r\n            uint256,\r\n            uint256,\r\n            uint256,\r\n            bool\r\n        )\r\n    {\r\n        uint256 stakeholderIndex = _getStakeholderIndex(address_);\r\n\r\n        require(stakeholderIndex > 0, \"Address not linked to any stakeholder\");\r\n\r\n        Stakeholders.Stakeholder storage stakeholder = _stakeholders[\r\n            stakeholderIndex\r\n        ];\r\n\r\n        return (\r\n            stakeholder.totalAmount,\r\n            stakeholder.ownedAmount,\r\n            stakeholder.nominatedAmount,\r\n            stakeholder.nominatorsCount,\r\n            stakeholder.canValidate\r\n        );\r\n    }\r\n\r\n    function stake(uint256 amount_) external override {\r\n        address stakeholderAddress = msg.sender;\r\n\r\n        //fisrst check if the caller has at least amount_ tokens\r\n        uint256 balance = this.balanceOf(stakeholderAddress);\r\n\r\n        require(balance >= amount_, \"Insufficient balance for staking\");\r\n        //second check if stakeholder exist\r\n        uint256 stakeholderIndex = _getStakeholderIndex(stakeholderAddress);\r\n        if (stakeholderIndex == 0) {\r\n            //stakeholder does not exists. Create new one and stake the amout\r\n            _createNewStakeholder(stakeholderAddress, amount_);\r\n        } else {\r\n            _stakeholderUpdateOwnStakedAmount(stakeholderIndex, amount_);\r\n        }\r\n\r\n        //burn tokens from balance\r\n        _burn(stakeholderAddress, amount_);\r\n    }\r\n\r\n    function unstake(uint256 amount_) external override {\r\n        address stakeholderAddress = msg.sender;\r\n        uint256 stakeholderIndex = _stakeholdersIndexes[stakeholderAddress];\r\n        if (stakeholderIndex == 0) {\r\n            // this user no longer have any staked ammount\r\n            return;\r\n        }\r\n\r\n        Stakeholders.Stakeholder storage stakeholder = _stakeholders[\r\n            stakeholderIndex\r\n        ];\r\n        require(\r\n            stakeholder.totalAmount >= amount_,\r\n            \"Insufficient balance for unstaking\"\r\n        );\r\n\r\n        uint256 newAmount = stakeholder.totalAmount -= amount_;\r\n\r\n        stakeholder.totalAmount = newAmount;\r\n        stakeholder.ownedAmount = newAmount;\r\n\r\n        if (newAmount >= _minStakedAmountForValidation) {\r\n            stakeholder.canValidate = true;\r\n        } else {\r\n            stakeholder.canValidate = false;\r\n            _validatorsCount--;\r\n        }\r\n\r\n        //mint amount_ tokes to address\r\n        _mint(stakeholderAddress, amount_);\r\n    }\r\n\r\n    function _getStakeholderIndex(address address_)\r\n        internal\r\n        view\r\n        virtual\r\n        notNullAddress(address_)\r\n        returns (uint256)\r\n    {\r\n        uint256 stakeholderIndex = _stakeholdersIndexes[address_];\r\n        if (stakeholderIndex == 0) return 0;\r\n        require(\r\n            stakeholderIndex <= _stakeholders.length - 1,\r\n            \"Invalid index for stakeholders collection\"\r\n        );\r\n\r\n        return stakeholderIndex;\r\n    }\r\n\r\n    function _createNewStakeholder(address address_, uint256 amount_)\r\n        internal\r\n        virtual\r\n    {\r\n        bool canValidate = amount_ >= _minStakedAmountForValidation;\r\n        uint256 newStakeholderIndex = _stakeholders.length;\r\n\r\n        if (newStakeholderIndex == 0) {\r\n            newStakeholderIndex++;\r\n            // this is very first stakeholder. Create a fake one at index 0.\r\n            _stakeholders.push(\r\n                Stakeholders.Stakeholder({\r\n                    user: address(0),\r\n                    totalAmount: 0,\r\n                    ownedAmount: 0,\r\n                    nominatedAmount: 0,\r\n                    nominatorsCount: 0,\r\n                    canValidate: false,\r\n                    notCollectedTokenRewards: 0\r\n                })\r\n            );\r\n        }\r\n\r\n        _stakeholders.push(\r\n            Stakeholders.Stakeholder({\r\n                user: address_,\r\n                totalAmount: amount_,\r\n                ownedAmount: amount_,\r\n                nominatedAmount: 0,\r\n                nominatorsCount: 0,\r\n                canValidate: canValidate,\r\n                notCollectedTokenRewards: 0\r\n            })\r\n        );\r\n\r\n        _stakeholdersIndexes[address_] = newStakeholderIndex;\r\n        _tryRecordStakeholderAsNewValidator(\r\n            canValidate,\r\n            address_,\r\n            newStakeholderIndex\r\n        );\r\n    }\r\n\r\n    function _stakeholderUpdateOwnStakedAmount(\r\n        uint256 stakeholderIndex_,\r\n        uint256 amount_\r\n    ) internal virtual {\r\n        Stakeholders.Stakeholder storage stakeHolder = _stakeholders[\r\n            stakeholderIndex_\r\n        ];\r\n\r\n        stakeHolder.totalAmount += amount_;\r\n        stakeHolder.ownedAmount += amount_;\r\n\r\n        if (!stakeHolder.canValidate) {\r\n            //check if he can now\r\n            bool canValidate = stakeHolder.totalAmount >=\r\n                _minStakedAmountForValidation;\r\n\r\n            if (canValidate) {\r\n                stakeHolder.canValidate = true;\r\n\r\n                _tryRecordStakeholderAsNewValidator(\r\n                    canValidate,\r\n                    stakeHolder.user,\r\n                    stakeholderIndex_\r\n                );\r\n            }\r\n        }\r\n    }\r\n\r\n    function _tryRecordStakeholderAsNewValidator(\r\n        bool canValidate_,\r\n        address address_,\r\n        uint256 validatorIndex_\r\n    ) internal returns (bool) {\r\n        if (!canValidate_) {\r\n            return false;\r\n        }\r\n        uint256 validatorIndex = _validatorsStakeholderIndexes[address_];\r\n        if (validatorIndex == 0) {\r\n            //we don't have any valid validator\r\n            _validatorsStakeholderIndexes[address_] = validatorIndex_;\r\n            _validatorsCount++;\r\n        }\r\n        //else validator already exist in records\r\n        return true;\r\n    }\r\n\r\n    //** for INTERFACE !!! */\r\n    function getValidatorsCount() external view override returns (uint256) {\r\n        return _validatorsCount;\r\n    }\r\n\r\n    function getCurrentEra()\r\n        external\r\n        view\r\n        override\r\n        returns (Eras.Era memory currentEra)\r\n    {\r\n        return _currentErra;\r\n    }\r\n\r\n    function getErasCount() external view override returns (uint256) {\r\n        return _erasCount;\r\n    }\r\n\r\n    function endCurrentEra() external {\r\n        address caller = msg.sender;\r\n        Eras.Era memory lastEra = _getCurrentEraInternal();\r\n        //TODO: validation for time elapsed\r\n        require(\r\n            caller == lastEra.chairman,\r\n            \"Only chairman can end current era\"\r\n        );\r\n        _payReward(\r\n            lastEra.colectedFeesAmount + _rewardForValidatorsAfterEachEra,\r\n            caller\r\n        );\r\n    }\r\n\r\n    function electNewChairman() external returns (address) {}\r\n\r\n    function startNewEra() external returns (bytes32) {}\r\n\r\n    function _getCurrentEraInternal()\r\n        internal\r\n        view\r\n        returns (Eras.Era memory era)\r\n    {\r\n        return _currentErra;\r\n    }\r\n\r\n    function _payReward(uint256 tokenAmountForDistribution_, address chainman_)\r\n        internal\r\n        virtual\r\n    {\r\n        //simple scheme withoud nominators\r\n        //this reward scheme can be ovveriden for much complex one\r\n        //for simple reward distribution\r\n        //chainrman gets 50% of all fees\r\n        uint256 chairmainsReward = tokenAmountForDistribution_ / 2;\r\n        uint256 stakeholderIndex = _stakeholdersIndexes[chainman_];\r\n        Stakeholders.Stakeholder storage chairman = _stakeholders[\r\n            stakeholderIndex\r\n        ];\r\n\r\n        require(chairman.user != address(0), \"Chairman address does not exist\");\r\n\r\n        chairman.notCollectedTokenRewards += chairmainsReward;\r\n\r\n        uint256 remainingAmountForDistribution = tokenAmountForDistribution_ -\r\n            chairmainsReward;\r\n\r\n        //TODO: calculate remaining rewards for the rest of the voting council for this era\r\n    }\r\n}\r\n",
  "sourcePath": "D:\\Documents\\Dev\\Repositories\\gold-price-oracle\\gold-price-oracle\\on-chain\\contracts\\token\\base\\ERC20Stakable.sol",
  "compiler": {
    "name": "solc",
    "version": "0.8.0+commit.c7dfd78e.Emscripten.clang"
  },
  "schemaVersion": "3.4.3",
  "updatedAt": "2022-03-04T10:24:27.968Z",
  "devdoc": {
    "kind": "dev",
    "methods": {
      "allowance(address,address)": {
        "details": "See {IERC20-allowance}."
      },
      "approve(address,uint256)": {
        "details": "See {IERC20-approve}. NOTE: If `amount` is the maximum `uint256`, the allowance is not updated on `transferFrom`. This is semantically equivalent to an infinite approval. Requirements: - `spender` cannot be the zero address."
      },
      "balanceOf(address)": {
        "details": "See {IERC20-balanceOf}."
      },
      "decimals()": {
        "details": "Returns the number of decimals used to get its user representation. For example, if `decimals` equals `2`, a balance of `505` tokens should be displayed to a user as `5.05` (`505 / 10 ** 2`). Tokens usually opt for a value of 18, imitating the relationship between Ether and Wei. This is the value {ERC20} uses, unless this function is overridden; NOTE: This information is only used for _display_ purposes: it in no way affects any of the arithmetic of the contract, including {IERC20-balanceOf} and {IERC20-transfer}."
      },
      "decreaseAllowance(address,uint256)": {
        "details": "Atomically decreases the allowance granted to `spender` by the caller. This is an alternative to {approve} that can be used as a mitigation for problems described in {IERC20-approve}. Emits an {Approval} event indicating the updated allowance. Requirements: - `spender` cannot be the zero address. - `spender` must have allowance for the caller of at least `subtractedValue`."
      },
      "increaseAllowance(address,uint256)": {
        "details": "Atomically increases the allowance granted to `spender` by the caller. This is an alternative to {approve} that can be used as a mitigation for problems described in {IERC20-approve}. Emits an {Approval} event indicating the updated allowance. Requirements: - `spender` cannot be the zero address."
      },
      "name()": {
        "details": "Returns the name of the token."
      },
      "symbol()": {
        "details": "Returns the symbol of the token, usually a shorter version of the name."
      },
      "totalSupply()": {
        "details": "See {IERC20-totalSupply}."
      },
      "transfer(address,uint256)": {
        "details": "See {IERC20-transfer}. Requirements: - `to` cannot be the zero address. - the caller must have a balance of at least `amount`."
      },
      "transferFrom(address,address,uint256)": {
        "details": "See {IERC20-transferFrom}. Emits an {Approval} event indicating the updated allowance. This is not required by the EIP. See the note at the beginning of {ERC20}. NOTE: Does not update the allowance if the current allowance is the maximum `uint256`. Requirements: - `from` and `to` cannot be the zero address. - `from` must have a balance of at least `amount`. - the caller must have allowance for ``from``'s tokens of at least `amount`."
      }
    },
    "version": 1
  },
  "userdoc": {
    "kind": "user",
    "methods": {},
    "version": 1
  }
}