{
  "contractName": "ERC20ProofOfStake",
  "abi": [
    {
      "inputs": [
        {
          "internalType": "string",
          "name": "name_",
          "type": "string"
        },
        {
          "internalType": "string",
          "name": "symbol_",
          "type": "string"
        },
        {
          "internalType": "uint256",
          "name": "minStakedAmountForValidation_",
          "type": "uint256"
        },
        {
          "internalType": "uint256",
          "name": "rewardForValidatorsAfterEachEra_",
          "type": "uint256"
        }
      ],
      "stateMutability": "nonpayable",
      "type": "constructor"
    },
    {
      "anonymous": false,
      "inputs": [
        {
          "indexed": true,
          "internalType": "address",
          "name": "owner",
          "type": "address"
        },
        {
          "indexed": true,
          "internalType": "address",
          "name": "spender",
          "type": "address"
        },
        {
          "indexed": false,
          "internalType": "uint256",
          "name": "value",
          "type": "uint256"
        }
      ],
      "name": "Approval",
      "type": "event"
    },
    {
      "anonymous": false,
      "inputs": [
        {
          "indexed": false,
          "internalType": "bytes32",
          "name": "eraId",
          "type": "bytes32"
        },
        {
          "indexed": false,
          "internalType": "address",
          "name": "chairman",
          "type": "address"
        },
        {
          "indexed": false,
          "internalType": "uint256",
          "name": "timestap",
          "type": "uint256"
        }
      ],
      "name": "EndEraByNewElectedChairman",
      "type": "event"
    },
    {
      "anonymous": false,
      "inputs": [
        {
          "indexed": false,
          "internalType": "bytes32",
          "name": "eraId",
          "type": "bytes32"
        },
        {
          "indexed": false,
          "internalType": "address",
          "name": "chairman",
          "type": "address"
        },
        {
          "indexed": false,
          "internalType": "address[]",
          "name": "council",
          "type": "address[]"
        },
        {
          "indexed": false,
          "internalType": "uint256",
          "name": "validatorsCount",
          "type": "uint256"
        },
        {
          "indexed": false,
          "internalType": "uint256",
          "name": "calculatedSeed",
          "type": "uint256"
        }
      ],
      "name": "NewEraElecationProposal",
      "type": "event"
    },
    {
      "anonymous": false,
      "inputs": [
        {
          "components": [
            {
              "internalType": "bytes32",
              "name": "id",
              "type": "bytes32"
            },
            {
              "internalType": "uint256",
              "name": "colectedFeesAmount",
              "type": "uint256"
            },
            {
              "internalType": "uint256",
              "name": "startDate",
              "type": "uint256"
            },
            {
              "internalType": "uint256",
              "name": "endDate",
              "type": "uint256"
            },
            {
              "internalType": "address",
              "name": "chairman",
              "type": "address"
            },
            {
              "internalType": "uint256",
              "name": "requiredQuorum",
              "type": "uint256"
            },
            {
              "internalType": "bool",
              "name": "isQuorumReached",
              "type": "bool"
            },
            {
              "internalType": "uint256",
              "name": "possitiveVotes",
              "type": "uint256"
            },
            {
              "internalType": "uint256",
              "name": "negativeVotes",
              "type": "uint256"
            },
            {
              "internalType": "bool",
              "name": "accepted",
              "type": "bool"
            },
            {
              "internalType": "bool",
              "name": "ended",
              "type": "bool"
            }
          ],
          "indexed": false,
          "internalType": "struct Eras.Era",
          "name": "era",
          "type": "tuple"
        }
      ],
      "name": "NewEraElectionComplited",
      "type": "event"
    },
    {
      "anonymous": false,
      "inputs": [
        {
          "indexed": true,
          "internalType": "address",
          "name": "from",
          "type": "address"
        },
        {
          "indexed": true,
          "internalType": "address",
          "name": "to",
          "type": "address"
        },
        {
          "indexed": false,
          "internalType": "uint256",
          "name": "value",
          "type": "uint256"
        }
      ],
      "name": "Transfer",
      "type": "event"
    },
    {
      "inputs": [
        {
          "internalType": "address",
          "name": "owner",
          "type": "address"
        },
        {
          "internalType": "address",
          "name": "spender",
          "type": "address"
        }
      ],
      "name": "allowance",
      "outputs": [
        {
          "internalType": "uint256",
          "name": "",
          "type": "uint256"
        }
      ],
      "stateMutability": "view",
      "type": "function"
    },
    {
      "inputs": [
        {
          "internalType": "address",
          "name": "spender",
          "type": "address"
        },
        {
          "internalType": "uint256",
          "name": "amount",
          "type": "uint256"
        }
      ],
      "name": "approve",
      "outputs": [
        {
          "internalType": "bool",
          "name": "",
          "type": "bool"
        }
      ],
      "stateMutability": "nonpayable",
      "type": "function"
    },
    {
      "inputs": [
        {
          "internalType": "address",
          "name": "account",
          "type": "address"
        }
      ],
      "name": "balanceOf",
      "outputs": [
        {
          "internalType": "uint256",
          "name": "",
          "type": "uint256"
        }
      ],
      "stateMutability": "view",
      "type": "function"
    },
    {
      "inputs": [],
      "name": "decimals",
      "outputs": [
        {
          "internalType": "uint8",
          "name": "",
          "type": "uint8"
        }
      ],
      "stateMutability": "view",
      "type": "function"
    },
    {
      "inputs": [
        {
          "internalType": "address",
          "name": "spender",
          "type": "address"
        },
        {
          "internalType": "uint256",
          "name": "subtractedValue",
          "type": "uint256"
        }
      ],
      "name": "decreaseAllowance",
      "outputs": [
        {
          "internalType": "bool",
          "name": "",
          "type": "bool"
        }
      ],
      "stateMutability": "nonpayable",
      "type": "function"
    },
    {
      "inputs": [
        {
          "internalType": "address",
          "name": "address_",
          "type": "address"
        }
      ],
      "name": "getStakedAmount",
      "outputs": [
        {
          "internalType": "uint256",
          "name": "",
          "type": "uint256"
        }
      ],
      "stateMutability": "view",
      "type": "function"
    },
    {
      "inputs": [
        {
          "internalType": "address",
          "name": "address_",
          "type": "address"
        }
      ],
      "name": "getStakeholderInformation",
      "outputs": [
        {
          "internalType": "uint256",
          "name": "",
          "type": "uint256"
        },
        {
          "internalType": "uint256",
          "name": "",
          "type": "uint256"
        },
        {
          "internalType": "uint256",
          "name": "",
          "type": "uint256"
        },
        {
          "internalType": "uint256",
          "name": "",
          "type": "uint256"
        },
        {
          "internalType": "bool",
          "name": "",
          "type": "bool"
        }
      ],
      "stateMutability": "view",
      "type": "function"
    },
    {
      "inputs": [],
      "name": "getStakeholders",
      "outputs": [
        {
          "components": [
            {
              "internalType": "address",
              "name": "user",
              "type": "address"
            },
            {
              "internalType": "uint256",
              "name": "totalAmount",
              "type": "uint256"
            },
            {
              "internalType": "uint256",
              "name": "ownedAmount",
              "type": "uint256"
            },
            {
              "internalType": "uint256",
              "name": "nominatedAmount",
              "type": "uint256"
            },
            {
              "internalType": "uint256",
              "name": "nominatorsCount",
              "type": "uint256"
            },
            {
              "internalType": "bool",
              "name": "canValidate",
              "type": "bool"
            },
            {
              "internalType": "uint256",
              "name": "notCollectedTokenRewards",
              "type": "uint256"
            }
          ],
          "internalType": "struct Stakeholders.Stakeholder[]",
          "name": "stakeholders",
          "type": "tuple[]"
        }
      ],
      "stateMutability": "view",
      "type": "function"
    },
    {
      "inputs": [
        {
          "internalType": "address",
          "name": "spender",
          "type": "address"
        },
        {
          "internalType": "uint256",
          "name": "addedValue",
          "type": "uint256"
        }
      ],
      "name": "increaseAllowance",
      "outputs": [
        {
          "internalType": "bool",
          "name": "",
          "type": "bool"
        }
      ],
      "stateMutability": "nonpayable",
      "type": "function"
    },
    {
      "inputs": [],
      "name": "name",
      "outputs": [
        {
          "internalType": "string",
          "name": "",
          "type": "string"
        }
      ],
      "stateMutability": "view",
      "type": "function"
    },
    {
      "inputs": [
        {
          "internalType": "uint256",
          "name": "amount_",
          "type": "uint256"
        }
      ],
      "name": "stake",
      "outputs": [],
      "stateMutability": "nonpayable",
      "type": "function"
    },
    {
      "inputs": [],
      "name": "symbol",
      "outputs": [
        {
          "internalType": "string",
          "name": "",
          "type": "string"
        }
      ],
      "stateMutability": "view",
      "type": "function"
    },
    {
      "inputs": [],
      "name": "totalSupply",
      "outputs": [
        {
          "internalType": "uint256",
          "name": "",
          "type": "uint256"
        }
      ],
      "stateMutability": "view",
      "type": "function"
    },
    {
      "inputs": [
        {
          "internalType": "address",
          "name": "to",
          "type": "address"
        },
        {
          "internalType": "uint256",
          "name": "amount",
          "type": "uint256"
        }
      ],
      "name": "transfer",
      "outputs": [
        {
          "internalType": "bool",
          "name": "",
          "type": "bool"
        }
      ],
      "stateMutability": "nonpayable",
      "type": "function"
    },
    {
      "inputs": [
        {
          "internalType": "address",
          "name": "from",
          "type": "address"
        },
        {
          "internalType": "address",
          "name": "to",
          "type": "address"
        },
        {
          "internalType": "uint256",
          "name": "amount",
          "type": "uint256"
        }
      ],
      "name": "transferFrom",
      "outputs": [
        {
          "internalType": "bool",
          "name": "",
          "type": "bool"
        }
      ],
      "stateMutability": "nonpayable",
      "type": "function"
    },
    {
      "inputs": [
        {
          "internalType": "uint256",
          "name": "amount_",
          "type": "uint256"
        }
      ],
      "name": "unstake",
      "outputs": [],
      "stateMutability": "nonpayable",
      "type": "function"
    },
    {
      "inputs": [],
      "name": "getValidatorsCount",
      "outputs": [
        {
          "internalType": "uint256",
          "name": "",
          "type": "uint256"
        }
      ],
      "stateMutability": "view",
      "type": "function"
    },
    {
      "inputs": [],
      "name": "getCurrentEra",
      "outputs": [
        {
          "components": [
            {
              "internalType": "bytes32",
              "name": "id",
              "type": "bytes32"
            },
            {
              "internalType": "uint256",
              "name": "colectedFeesAmount",
              "type": "uint256"
            },
            {
              "internalType": "uint256",
              "name": "startDate",
              "type": "uint256"
            },
            {
              "internalType": "uint256",
              "name": "endDate",
              "type": "uint256"
            },
            {
              "internalType": "address",
              "name": "chairman",
              "type": "address"
            },
            {
              "internalType": "uint256",
              "name": "requiredQuorum",
              "type": "uint256"
            },
            {
              "internalType": "bool",
              "name": "isQuorumReached",
              "type": "bool"
            },
            {
              "internalType": "uint256",
              "name": "possitiveVotes",
              "type": "uint256"
            },
            {
              "internalType": "uint256",
              "name": "negativeVotes",
              "type": "uint256"
            },
            {
              "internalType": "bool",
              "name": "accepted",
              "type": "bool"
            },
            {
              "internalType": "bool",
              "name": "ended",
              "type": "bool"
            }
          ],
          "internalType": "struct Eras.Era",
          "name": "currentEra",
          "type": "tuple"
        }
      ],
      "stateMutability": "view",
      "type": "function"
    },
    {
      "inputs": [],
      "name": "getErasCount",
      "outputs": [
        {
          "internalType": "uint256",
          "name": "",
          "type": "uint256"
        }
      ],
      "stateMutability": "view",
      "type": "function"
    },
    {
      "inputs": [
        {
          "internalType": "uint256",
          "name": "timestamp",
          "type": "uint256"
        }
      ],
      "name": "endEra",
      "outputs": [],
      "stateMutability": "nonpayable",
      "type": "function"
    },
    {
      "inputs": [
        {
          "internalType": "bytes32",
          "name": "eraId_",
          "type": "bytes32"
        },
        {
          "internalType": "address",
          "name": "chairman_",
          "type": "address"
        },
        {
          "internalType": "address[]",
          "name": "coucil_",
          "type": "address[]"
        },
        {
          "internalType": "uint256",
          "name": "utcTimeStamp_",
          "type": "uint256"
        },
        {
          "internalType": "uint256",
          "name": "calculatedSeed_",
          "type": "uint256"
        }
      ],
      "name": "proposeNewEra",
      "outputs": [],
      "stateMutability": "nonpayable",
      "type": "function"
    },
    {
      "inputs": [
        {
          "internalType": "bytes32",
          "name": "eraId",
          "type": "bytes32"
        },
        {
          "internalType": "bool",
          "name": "approves",
          "type": "bool"
        }
      ],
      "name": "voteForProposedEra",
      "outputs": [],
      "stateMutability": "nonpayable",
      "type": "function"
    },
    {
      "inputs": [
        {
          "internalType": "bytes32",
          "name": "eraId_",
          "type": "bytes32"
        }
      ],
      "name": "getEraById",
      "outputs": [
        {
          "components": [
            {
              "internalType": "bytes32",
              "name": "id",
              "type": "bytes32"
            },
            {
              "internalType": "uint256",
              "name": "colectedFeesAmount",
              "type": "uint256"
            },
            {
              "internalType": "uint256",
              "name": "startDate",
              "type": "uint256"
            },
            {
              "internalType": "uint256",
              "name": "endDate",
              "type": "uint256"
            },
            {
              "internalType": "address",
              "name": "chairman",
              "type": "address"
            },
            {
              "internalType": "uint256",
              "name": "requiredQuorum",
              "type": "uint256"
            },
            {
              "internalType": "bool",
              "name": "isQuorumReached",
              "type": "bool"
            },
            {
              "internalType": "uint256",
              "name": "possitiveVotes",
              "type": "uint256"
            },
            {
              "internalType": "uint256",
              "name": "negativeVotes",
              "type": "uint256"
            },
            {
              "internalType": "bool",
              "name": "accepted",
              "type": "bool"
            },
            {
              "internalType": "bool",
              "name": "ended",
              "type": "bool"
            }
          ],
          "internalType": "struct Eras.Era",
          "name": "era",
          "type": "tuple"
        }
      ],
      "stateMutability": "view",
      "type": "function"
    }
  ],
  "bytecode": "0x60c06040523480156200001157600080fd5b5060405162004909380380620049098339818101604052810190620000379190620001ce565b838383828281600390805190602001906200005492919062000095565b5080600490805190602001906200006d92919062000095565b505050806080818152505060006005819055505050508060a0818152505050505050620003c1565b828054620000a39062000313565b90600052602060002090601f016020900481019282620000c7576000855562000113565b82601f10620000e257805160ff191683800117855562000113565b8280016001018555821562000113579182015b8281111562000112578251825591602001919060010190620000f5565b5b50905062000122919062000126565b5090565b5b808211156200014157600081600090555060010162000127565b5090565b60006200015c6200015684620002a0565b6200026c565b9050828152602081018484840111156200017557600080fd5b62000182848285620002dd565b509392505050565b600082601f8301126200019c57600080fd5b8151620001ae84826020860162000145565b91505092915050565b600081519050620001c881620003a7565b92915050565b60008060008060808587031215620001e557600080fd5b600085015167ffffffffffffffff8111156200020057600080fd5b6200020e878288016200018a565b945050602085015167ffffffffffffffff8111156200022c57600080fd5b6200023a878288016200018a565b93505060406200024d87828801620001b7565b92505060606200026087828801620001b7565b91505092959194509250565b6000604051905081810181811067ffffffffffffffff8211171562000296576200029562000378565b5b8060405250919050565b600067ffffffffffffffff821115620002be57620002bd62000378565b5b601f19601f8301169050602081019050919050565b6000819050919050565b60005b83811015620002fd578082015181840152602081019050620002e0565b838111156200030d576000848401525b50505050565b600060028204905060018216806200032c57607f821691505b6020821081141562000343576200034262000349565b5b50919050565b7f4e487b7100000000000000000000000000000000000000000000000000000000600052602260045260246000fd5b7f4e487b7100000000000000000000000000000000000000000000000000000000600052604160045260246000fd5b620003b281620002d3565b8114620003be57600080fd5b50565b60805160a051614514620003f560003960006118d50152600081816107a601528181612302015261266601526145146000f3fe608060405234801561001057600080fd5b506004361061014d5760003560e01c80634da6a556116100c3578063a9059cbb1161007c578063a9059cbb146103ca578063b6992247146103fa578063d250b6cb14610418578063dd62ed3e14610436578063e4ae026f14610466578063e6037852146104825761014d565b80634da6a556146102e2578063533aa7b81461031257806370a082311461033057806395d89b4114610360578063a457c2d71461037e578063a694fc3a146103ae5761014d565b80632bf9262c116101155780632bf9262c1461020c5780632e17de7814610240578063313ce5671461025c578063395093511461027a57806340c86f1a146102aa5780634c5962cc146102c65761014d565b806306fdde0314610152578063095ea7b31461017057806318160ddd146101a057806323b872dd146101be57806327498240146101ee575b600080fd5b61015a6104b2565b6040516101679190613bfe565b60405180910390f35b61018a60048036038101906101859190612d46565b610544565b6040516101979190613b52565b60405180910390f35b6101a8610567565b6040516101b59190613f18565b60405180910390f35b6101d860048036038101906101d39190612cf7565b610571565b6040516101e59190613b52565b60405180910390f35b6101f66105a0565b6040516102039190613f18565b60405180910390f35b61022660048036038101906102219190612c92565b6105aa565b604051610237959493929190613f33565b60405180910390f35b61025a60048036038101906102559190612e76565b610688565b005b610264610835565b6040516102719190613f86565b60405180910390f35b610294600480360381019061028f9190612d46565b61083e565b6040516102a19190613b52565b60405180910390f35b6102c460048036038101906102bf9190612e3a565b6108e8565b005b6102e060048036038101906102db9190612dab565b610d8c565b005b6102fc60048036038101906102f79190612c92565b6110b9565b6040516103099190613f18565b60405180910390f35b61031a611172565b6040516103279190613f18565b60405180910390f35b61034a60048036038101906103459190612c92565b61117c565b6040516103579190613f18565b60405180910390f35b6103686111c4565b6040516103759190613bfe565b60405180910390f35b61039860048036038101906103939190612d46565b611256565b6040516103a59190613b52565b60405180910390f35b6103c860048036038101906103c39190612e76565b611340565b005b6103e460048036038101906103df9190612d46565b611455565b6040516103f19190613b52565b60405180910390f35b610402611478565b60405161040f9190613b30565b60405180910390f35b61042061157a565b60405161042d9190613ee0565b60405180910390f35b610450600480360381019061044b9190612cbb565b611695565b60405161045d9190613f18565b60405180910390f35b610480600480360381019061047b9190612e76565b61171c565b005b61049c60048036038101906104979190612d82565b61195e565b6040516104a99190613ee0565b60405180910390f35b6060600380546104c19061429e565b80601f01602080910402602001604051908101604052809291908181526020018280546104ed9061429e565b801561053a5780601f1061050f5761010080835404028352916020019161053a565b820191906000526020600020905b81548152906001019060200180831161051d57829003601f168201915b5050505050905090565b60008061054f611a79565b905061055c818585611a81565b600191505092915050565b6000600254905090565b60008061057c611a79565b9050610589858285611c4c565b610594858585611cd8565b60019150509392505050565b6000600554905090565b6000806000806000806105bc87611f59565b905060008111610601576040517f08c379a00000000000000000000000000000000000000000000000000000000081526004016105f890613da0565b60405180910390fd5b60006007828154811061063d577f4e487b7100000000000000000000000000000000000000000000000000000000600052603260045260246000fd5b9060005260206000209060070201905080600101548160020154826003015483600401548460050160009054906101000a900460ff1696509650965096509650505091939590929450565b60003390506000600960008373ffffffffffffffffffffffffffffffffffffffff1673ffffffffffffffffffffffffffffffffffffffff16815260200190815260200160002054905060008114156106e1575050610832565b60006007828154811061071d577f4e487b7100000000000000000000000000000000000000000000000000000000600052603260045260246000fd5b906000526020600020906007020190508381600101541015610774576040517f08c379a000000000000000000000000000000000000000000000000000000000815260040161076b90613ce0565b60405180910390fd5b60008482600101600082825461078a919061416d565b92505081905590508082600101819055508082600201819055507f000000000000000000000000000000000000000000000000000000000000000081106107ed5760018260050160006101000a81548160ff021916908315150217905550610823565b60008260050160006101000a81548160ff0219169083151502179055506005600081548092919061081d90614274565b91905055505b61082d848661204c565b505050505b50565b60006012905090565b600080610849611a79565b90506108dd818585600160008673ffffffffffffffffffffffffffffffffffffffff1673ffffffffffffffffffffffffffffffffffffffff16815260200190815260200160002060008973ffffffffffffffffffffffffffffffffffffffff1673ffffffffffffffffffffffffffffffffffffffff168152602001908152602001600020546108d8919061408c565b611a81565b600191505092915050565b6000600860003373ffffffffffffffffffffffffffffffffffffffff1673ffffffffffffffffffffffffffffffffffffffff1681526020019081526020016000205490506000811415610970576040517f08c379a000000000000000000000000000000000000000000000000000000000815260040161096790613de0565b60405180910390fd5b6000600a60008581526020019081526020016000209050600073ffffffffffffffffffffffffffffffffffffffff168160040160009054906101000a900473ffffffffffffffffffffffffffffffffffffffff1673ffffffffffffffffffffffffffffffffffffffff161415610a1b576040517f08c379a0000000000000000000000000000000000000000000000000000000008152600401610a1290613ca0565b60405180910390fd5b600015158160060160009054906101000a900460ff16151514610a73576040517f08c379a0000000000000000000000000000000000000000000000000000000008152600401610a6a90613e80565b60405180910390fd5b60003390506000600b600087815260200190815260200160002060008373ffffffffffffffffffffffffffffffffffffffff1673ffffffffffffffffffffffffffffffffffffffff1681526020019081526020016000209050600073ffffffffffffffffffffffffffffffffffffffff168160000160009054906101000a900473ffffffffffffffffffffffffffffffffffffffff1673ffffffffffffffffffffffffffffffffffffffff1614610b5f576040517f08c379a0000000000000000000000000000000000000000000000000000000008152600401610b5690613d20565b60405180910390fd5b60405180604001604052808373ffffffffffffffffffffffffffffffffffffffff168152602001861515815250600b600088815260200190815260200160002060008473ffffffffffffffffffffffffffffffffffffffff1673ffffffffffffffffffffffffffffffffffffffff16815260200190815260200160002060008201518160000160006101000a81548173ffffffffffffffffffffffffffffffffffffffff021916908373ffffffffffffffffffffffffffffffffffffffff16021790555060208201518160000160146101000a81548160ff021916908315150217905550905050600115158515151415610cc6576001836007016000828254610c68919061408c565b92505081905550826005015483600701541415610cc15760018360060160006101000a81548160ff02191690831515021790555060018360090160006101000a81548160ff02191690831515021790555085600f819055505b610d2e565b6001836008016000828254610cdb919061408c565b92505081905550826005015483600801541415610d2d5760018360060160006101000a81548160ff02191690831515021790555060008360090160006101000a81548160ff0219169083151502179055505b5b600115158360060160009054906101000a900460ff1615151415610d84577ff8fc26765c3e6892820e259afcf2966297e8970183df3a7bdb1be186e80208cd83604051610d7b9190613efc565b60405180910390a15b505050505050565b60003390506000610d9b6121ac565b9050600073ffffffffffffffffffffffffffffffffffffffff16816080015173ffffffffffffffffffffffffffffffffffffffff1614610e4857806080015173ffffffffffffffffffffffffffffffffffffffff168273ffffffffffffffffffffffffffffffffffffffff1614610e47576040517f08c379a0000000000000000000000000000000000000000000000000000000008152600401610e3e90613d80565b60405180910390fd5b5b6000600a60008981526020019081526020016000209050600073ffffffffffffffffffffffffffffffffffffffff168160040160009054906101000a900473ffffffffffffffffffffffffffffffffffffffff1673ffffffffffffffffffffffffffffffffffffffff1614610ef2576040517f08c379a0000000000000000000000000000000000000000000000000000000008152600401610ee990613d60565b60405180910390fd5b60405180610160016040528089815260200160008152602001868152602001600081526020018873ffffffffffffffffffffffffffffffffffffffff168152602001610f3c6122c7565b8152602001600015158152602001600081526020016000815260200160001515815260200160001515815250600a60008a81526020019081526020016000206000820151816000015560208201518160010155604082015181600201556060820151816003015560808201518160040160006101000a81548173ffffffffffffffffffffffffffffffffffffffff021916908373ffffffffffffffffffffffffffffffffffffffff16021790555060a0820151816005015560c08201518160060160006101000a81548160ff02191690831515021790555060e0820151816007015561010082015181600801556101208201518160090160006101000a81548160ff0219169083151502179055506101408201518160090160016101000a81548160ff0219169083151502179055509050507f6d4aad47cb7bcb13b25ae71b45f2c76944033a9b2e76c78a342b7863412504e6888888600554886040516110a7959493929190613b6d565b60405180910390a15050505050505050565b600081600073ffffffffffffffffffffffffffffffffffffffff168173ffffffffffffffffffffffffffffffffffffffff1614156110f657600080fd5b600061110184611f59565b9050600081141561111657600092505061116c565b600060078281548110611152577f4e487b7100000000000000000000000000000000000000000000000000000000600052603260045260246000fd5b906000526020600020906007020190508060010154935050505b50919050565b6000600654905090565b60008060008373ffffffffffffffffffffffffffffffffffffffff1673ffffffffffffffffffffffffffffffffffffffff168152602001908152602001600020549050919050565b6060600480546111d39061429e565b80601f01602080910402602001604051908101604052809291908181526020018280546111ff9061429e565b801561124c5780601f106112215761010080835404028352916020019161124c565b820191906000526020600020905b81548152906001019060200180831161122f57829003601f168201915b5050505050905090565b600080611261611a79565b90506000600160008373ffffffffffffffffffffffffffffffffffffffff1673ffffffffffffffffffffffffffffffffffffffff16815260200190815260200160002060008673ffffffffffffffffffffffffffffffffffffffff1673ffffffffffffffffffffffffffffffffffffffff16815260200190815260200160002054905083811015611327576040517f08c379a000000000000000000000000000000000000000000000000000000000815260040161131e90613ea0565b60405180910390fd5b6113348286868403611a81565b60019250505092915050565b600033905060003073ffffffffffffffffffffffffffffffffffffffff166370a08231836040518263ffffffff1660e01b81526004016113809190613b15565b60206040518083038186803b15801561139857600080fd5b505afa1580156113ac573d6000803e3d6000fd5b505050506040513d601f19601f820116820180604052508101906113d09190612e9f565b905082811015611415576040517f08c379a000000000000000000000000000000000000000000000000000000000815260040161140c90613d40565b60405180910390fd5b600061142083611f59565b9050600081141561143a5761143583856122fe565b611445565b61144481856125ca565b5b61144f83856126e9565b50505050565b600080611460611a79565b905061146d818585611cd8565b600191505092915050565b60606007805480602002602001604051908101604052809291908181526020016000905b8282101561157157838290600052602060002090600702016040518060e00160405290816000820160009054906101000a900473ffffffffffffffffffffffffffffffffffffffff1673ffffffffffffffffffffffffffffffffffffffff1673ffffffffffffffffffffffffffffffffffffffff168152602001600182015481526020016002820154815260200160038201548152602001600482015481526020016005820160009054906101000a900460ff161515151581526020016006820154815250508152602001906001019061149c565b50505050905090565b611582612b1a565b600a6000600d54815260200190815260200160002060405180610160016040529081600082015481526020016001820154815260200160028201548152602001600382015481526020016004820160009054906101000a900473ffffffffffffffffffffffffffffffffffffffff1673ffffffffffffffffffffffffffffffffffffffff1673ffffffffffffffffffffffffffffffffffffffff168152602001600582015481526020016006820160009054906101000a900460ff1615151515815260200160078201548152602001600882015481526020016009820160009054906101000a900460ff161515151581526020016009820160019054906101000a900460ff161515151581525050905090565b6000600160008473ffffffffffffffffffffffffffffffffffffffff1673ffffffffffffffffffffffffffffffffffffffff16815260200190815260200160002060008373ffffffffffffffffffffffffffffffffffffffff1673ffffffffffffffffffffffffffffffffffffffff16815260200190815260200160002054905092915050565b60003390506000600a6000600f54815260200190815260200160002060405180610160016040529081600082015481526020016001820154815260200160028201548152602001600382015481526020016004820160009054906101000a900473ffffffffffffffffffffffffffffffffffffffff1673ffffffffffffffffffffffffffffffffffffffff1673ffffffffffffffffffffffffffffffffffffffff168152602001600582015481526020016006820160009054906101000a900460ff1615151515815260200160078201548152602001600882015481526020016009820160009054906101000a900460ff161515151581526020016009820160019054906101000a900460ff1615151515815250509050806080015173ffffffffffffffffffffffffffffffffffffffff168273ffffffffffffffffffffffffffffffffffffffff16146118a5576040517f08c379a000000000000000000000000000000000000000000000000000000000815260040161189c90613dc0565b60405180910390fd5b6000801b600e541480156118bd57506000801b600d54145b156118d057600f54600e81905550611913565b6119097f00000000000000000000000000000000000000000000000000000000000000008260200151611903919061408c565b836128c0565b600d54600e819055505b600f54600d819055507f722e3d4179a09427e9445cc06f5ccd49fe7a5cb5f568f00324d780aca56e341c600d54838560405161195193929190613bc7565b60405180910390a1505050565b611966612b1a565b600a600083815260200190815260200160002060405180610160016040529081600082015481526020016001820154815260200160028201548152602001600382015481526020016004820160009054906101000a900473ffffffffffffffffffffffffffffffffffffffff1673ffffffffffffffffffffffffffffffffffffffff1673ffffffffffffffffffffffffffffffffffffffff168152602001600582015481526020016006820160009054906101000a900460ff1615151515815260200160078201548152602001600882015481526020016009820160009054906101000a900460ff161515151581526020016009820160019054906101000a900460ff1615151515815250509050919050565b600033905090565b600073ffffffffffffffffffffffffffffffffffffffff168373ffffffffffffffffffffffffffffffffffffffff161415611af1576040517f08c379a0000000000000000000000000000000000000000000000000000000008152600401611ae890613e60565b60405180910390fd5b600073ffffffffffffffffffffffffffffffffffffffff168273ffffffffffffffffffffffffffffffffffffffff161415611b61576040517f08c379a0000000000000000000000000000000000000000000000000000000008152600401611b5890613c80565b60405180910390fd5b80600160008573ffffffffffffffffffffffffffffffffffffffff1673ffffffffffffffffffffffffffffffffffffffff16815260200190815260200160002060008473ffffffffffffffffffffffffffffffffffffffff1673ffffffffffffffffffffffffffffffffffffffff168152602001908152602001600020819055508173ffffffffffffffffffffffffffffffffffffffff168373ffffffffffffffffffffffffffffffffffffffff167f8c5be1e5ebec7d5bd14f71427d1e84f3dd0314c0f7b2291e5b200ac8c7c3b92583604051611c3f9190613f18565b60405180910390a3505050565b6000611c588484611695565b90507fffffffffffffffffffffffffffffffffffffffffffffffffffffffffffffffff8114611cd25781811015611cc4576040517f08c379a0000000000000000000000000000000000000000000000000000000008152600401611cbb90613cc0565b60405180910390fd5b611cd18484848403611a81565b5b50505050565b600073ffffffffffffffffffffffffffffffffffffffff168373ffffffffffffffffffffffffffffffffffffffff161415611d48576040517f08c379a0000000000000000000000000000000000000000000000000000000008152600401611d3f90613e40565b60405180910390fd5b600073ffffffffffffffffffffffffffffffffffffffff168273ffffffffffffffffffffffffffffffffffffffff161415611db8576040517f08c379a0000000000000000000000000000000000000000000000000000000008152600401611daf90613c20565b60405180910390fd5b611dc3838383612a28565b60008060008573ffffffffffffffffffffffffffffffffffffffff1673ffffffffffffffffffffffffffffffffffffffff16815260200190815260200160002054905081811015611e49576040517f08c379a0000000000000000000000000000000000000000000000000000000008152600401611e4090613d00565b60405180910390fd5b8181036000808673ffffffffffffffffffffffffffffffffffffffff1673ffffffffffffffffffffffffffffffffffffffff16815260200190815260200160002081905550816000808573ffffffffffffffffffffffffffffffffffffffff1673ffffffffffffffffffffffffffffffffffffffff1681526020019081526020016000206000828254611edc919061408c565b925050819055508273ffffffffffffffffffffffffffffffffffffffff168473ffffffffffffffffffffffffffffffffffffffff167fddf252ad1be2c89b69c2b068fc378daa952ba7f163c4a11628f55a4df523b3ef84604051611f409190613f18565b60405180910390a3611f53848484612a2d565b50505050565b600081600073ffffffffffffffffffffffffffffffffffffffff168173ffffffffffffffffffffffffffffffffffffffff161415611f9657600080fd5b6000600960008573ffffffffffffffffffffffffffffffffffffffff1673ffffffffffffffffffffffffffffffffffffffff1681526020019081526020016000205490506000811415611fed576000925050612046565b6001600780549050611fff919061416d565b811115612041576040517f08c379a000000000000000000000000000000000000000000000000000000000815260040161203890613e00565b60405180910390fd5b809250505b50919050565b600073ffffffffffffffffffffffffffffffffffffffff168273ffffffffffffffffffffffffffffffffffffffff1614156120bc576040517f08c379a00000000000000000000000000000000000000000000000000000000081526004016120b390613ec0565b60405180910390fd5b6120c860008383612a28565b80600260008282546120da919061408c565b92505081905550806000808473ffffffffffffffffffffffffffffffffffffffff1673ffffffffffffffffffffffffffffffffffffffff168152602001908152602001600020600082825461212f919061408c565b925050819055508173ffffffffffffffffffffffffffffffffffffffff16600073ffffffffffffffffffffffffffffffffffffffff167fddf252ad1be2c89b69c2b068fc378daa952ba7f163c4a11628f55a4df523b3ef836040516121949190613f18565b60405180910390a36121a860008383612a2d565b5050565b6121b4612b1a565b600a6000600d54815260200190815260200160002060405180610160016040529081600082015481526020016001820154815260200160028201548152602001600382015481526020016004820160009054906101000a900473ffffffffffffffffffffffffffffffffffffffff1673ffffffffffffffffffffffffffffffffffffffff1673ffffffffffffffffffffffffffffffffffffffff168152602001600582015481526020016006820160009054906101000a900460ff1615151515815260200160078201548152602001600882015481526020016009820160009054906101000a900460ff161515151581526020016009820160019054906101000a900460ff161515151581525050905090565b6000600160055414156122dd57600190506122fb565b606460336005546122ee9190614113565b6122f891906140e2565b90505b90565b60007f0000000000000000000000000000000000000000000000000000000000000000821015905060006007805490509050600081141561246057808061234490614352565b91505060076040518060e00160405280600073ffffffffffffffffffffffffffffffffffffffff168152602001600081526020016000815260200160008152602001600081526020016000151581526020016000815250908060018154018082558091505060019003906000526020600020906007020160009091909190915060008201518160000160006101000a81548173ffffffffffffffffffffffffffffffffffffffff021916908373ffffffffffffffffffffffffffffffffffffffff1602179055506020820151816001015560408201518160020155606082015181600301556080820151816004015560a08201518160050160006101000a81548160ff02191690831515021790555060c0820151816006015550505b60076040518060e001604052808673ffffffffffffffffffffffffffffffffffffffff168152602001858152602001858152602001600081526020016000815260200184151581526020016000815250908060018154018082558091505060019003906000526020600020906007020160009091909190915060008201518160000160006101000a81548173ffffffffffffffffffffffffffffffffffffffff021916908373ffffffffffffffffffffffffffffffffffffffff1602179055506020820151816001015560408201518160020155606082015181600301556080820151816004015560a08201518160050160006101000a81548160ff02191690831515021790555060c08201518160060155505080600960008673ffffffffffffffffffffffffffffffffffffffff1673ffffffffffffffffffffffffffffffffffffffff168152602001908152602001600020819055506125c3828583612a32565b5050505050565b600060078381548110612606577f4e487b7100000000000000000000000000000000000000000000000000000000600052603260045260246000fd5b906000526020600020906007020190508181600101600082825461262a919061408c565b9250508190555081816002016000828254612645919061408c565b925050819055508060050160009054906101000a900460ff166126e45760007f000000000000000000000000000000000000000000000000000000000000000082600101541015905080156126e25760018260050160006101000a81548160ff0219169083151502179055506126e0818360000160009054906101000a900473ffffffffffffffffffffffffffffffffffffffff1686612a32565b505b505b505050565b600073ffffffffffffffffffffffffffffffffffffffff168273ffffffffffffffffffffffffffffffffffffffff161415612759576040517f08c379a000000000000000000000000000000000000000000000000000000000815260040161275090613e20565b60405180910390fd5b61276582600083612a28565b60008060008473ffffffffffffffffffffffffffffffffffffffff1673ffffffffffffffffffffffffffffffffffffffff168152602001908152602001600020549050818110156127eb576040517f08c379a00000000000000000000000000000000000000000000000000000000081526004016127e290613c40565b60405180910390fd5b8181036000808573ffffffffffffffffffffffffffffffffffffffff1673ffffffffffffffffffffffffffffffffffffffff168152602001908152602001600020819055508160026000828254612842919061416d565b92505081905550600073ffffffffffffffffffffffffffffffffffffffff168373ffffffffffffffffffffffffffffffffffffffff167fddf252ad1be2c89b69c2b068fc378daa952ba7f163c4a11628f55a4df523b3ef846040516128a79190613f18565b60405180910390a36128bb83600084612a2d565b505050565b60006002836128cf91906140e2565b90506000600960008473ffffffffffffffffffffffffffffffffffffffff1673ffffffffffffffffffffffffffffffffffffffff168152602001908152602001600020549050600060078281548110612951577f4e487b7100000000000000000000000000000000000000000000000000000000600052603260045260246000fd5b90600052602060002090600702019050600073ffffffffffffffffffffffffffffffffffffffff168160000160009054906101000a900473ffffffffffffffffffffffffffffffffffffffff1673ffffffffffffffffffffffffffffffffffffffff1614156129f5576040517f08c379a00000000000000000000000000000000000000000000000000000000081526004016129ec90613c60565b60405180910390fd5b82816006016000828254612a09919061408c565b9250508190555060008386612a1e919061416d565b9050505050505050565b505050565b505050565b600083612a425760009050612b13565b6000600860008573ffffffffffffffffffffffffffffffffffffffff1673ffffffffffffffffffffffffffffffffffffffff1681526020019081526020016000205490506000811415612af55782600860008673ffffffffffffffffffffffffffffffffffffffff1673ffffffffffffffffffffffffffffffffffffffff1681526020019081526020016000208190555060056000815480929190612ae690614352565b91905055506001915050612b13565b60056000815480929190612b0890614352565b919050555060019150505b9392505050565b60405180610160016040528060008019168152602001600081526020016000815260200160008152602001600073ffffffffffffffffffffffffffffffffffffffff1681526020016000815260200160001515815260200160008152602001600081526020016000151581526020016000151581525090565b6000612ba6612ba184613fd2565b613fa1565b90508083825260208201905082856020860282011115612bc557600080fd5b60005b85811015612bf55781612bdb8882612bff565b845260208401935060208301925050600181019050612bc8565b5050509392505050565b600081359050612c0e81614482565b92915050565b600082601f830112612c2557600080fd5b8135612c35848260208601612b93565b91505092915050565b600081359050612c4d81614499565b92915050565b600081359050612c62816144b0565b92915050565b600081359050612c77816144c7565b92915050565b600081519050612c8c816144c7565b92915050565b600060208284031215612ca457600080fd5b6000612cb284828501612bff565b91505092915050565b60008060408385031215612cce57600080fd5b6000612cdc85828601612bff565b9250506020612ced85828601612bff565b9150509250929050565b600080600060608486031215612d0c57600080fd5b6000612d1a86828701612bff565b9350506020612d2b86828701612bff565b9250506040612d3c86828701612c68565b9150509250925092565b60008060408385031215612d5957600080fd5b6000612d6785828601612bff565b9250506020612d7885828601612c68565b9150509250929050565b600060208284031215612d9457600080fd5b6000612da284828501612c53565b91505092915050565b600080600080600060a08688031215612dc357600080fd5b6000612dd188828901612c53565b9550506020612de288828901612bff565b945050604086013567ffffffffffffffff811115612dff57600080fd5b612e0b88828901612c14565b9350506060612e1c88828901612c68565b9250506080612e2d88828901612c68565b9150509295509295909350565b60008060408385031215612e4d57600080fd5b6000612e5b85828601612c53565b9250506020612e6c85828601612c3e565b9150509250929050565b600060208284031215612e8857600080fd5b6000612e9684828501612c68565b91505092915050565b600060208284031215612eb157600080fd5b6000612ebf84828501612c7d565b91505092915050565b6000612ed48383612ef8565b60208301905092915050565b6000612eec8383613a5a565b60e08301905092915050565b612f01816141e2565b82525050565b612f10816141e2565b82525050565b6000612f218261401e565b612f2b8185614059565b9350612f3683613ffe565b8060005b83811015612f67578151612f4e8882612ec8565b9750612f598361403f565b925050600181019050612f3a565b5085935050505092915050565b6000612f7f82614029565b612f89818561406a565b9350612f948361400e565b8060005b83811015612fc5578151612fac8882612ee0565b9750612fb78361404c565b925050600181019050612f98565b5085935050505092915050565b612fdb816141f4565b82525050565b612fea816141f4565b82525050565b612ff981614200565b82525050565b61300881614200565b82525050565b600061301982614034565b613023818561407b565b9350613033818560208601614241565b61303c81614457565b840191505092915050565b600061305460238361407b565b91507f45524332303a207472616e7366657220746f20746865207a65726f206164647260008301527f65737300000000000000000000000000000000000000000000000000000000006020830152604082019050919050565b60006130ba60228361407b565b91507f45524332303a206275726e20616d6f756e7420657863656564732062616c616e60008301527f63650000000000000000000000000000000000000000000000000000000000006020830152604082019050919050565b6000613120601f8361407b565b91507f43686169726d616e206164647265737320646f6573206e6f74206578697374006000830152602082019050919050565b600061316060228361407b565b91507f45524332303a20617070726f766520746f20746865207a65726f20616464726560008301527f73730000000000000000000000000000000000000000000000000000000000006020830152604082019050919050565b60006131c660218361407b565b91507f45726120776974682070617373656420496420646f6573206e6f74206578697360008301527f74000000000000000000000000000000000000000000000000000000000000006020830152604082019050919050565b600061322c601d8361407b565b91507f45524332303a20696e73756666696369656e7420616c6c6f77616e63650000006000830152602082019050919050565b600061326c60228361407b565b91507f496e73756666696369656e742062616c616e636520666f7220756e7374616b6960008301527f6e670000000000000000000000000000000000000000000000000000000000006020830152604082019050919050565b60006132d260268361407b565b91507f45524332303a207472616e7366657220616d6f756e742065786365656473206260008301527f616c616e636500000000000000000000000000000000000000000000000000006020830152604082019050919050565b600061333860178361407b565b91507f56616c696461746f7220616c726561647920766f7465640000000000000000006000830152602082019050919050565b600061337860208361407b565b91507f496e73756666696369656e742062616c616e636520666f72207374616b696e676000830152602082019050919050565b60006133b860258361407b565b91507f4572612077697468207468652073616d6520494420616c72656164792070726f60008301527f706f7365640000000000000000000000000000000000000000000000000000006020830152604082019050919050565b600061341e602f8361407b565b91507f43616c6c6572206e6f742070726576696f7573206572612063686169726d616e60008301527f2e204163636573732064656e69656400000000000000000000000000000000006020830152604082019050919050565b600061348460258361407b565b91507f41646472657373206e6f74206c696e6b656420746f20616e79207374616b656860008301527f6f6c6465720000000000000000000000000000000000000000000000000000006020830152604082019050919050565b60006134ea60218361407b565b91507f4f6e6c792063686169726d616e2063616e20656e642063757272656e7420657260008301527f61000000000000000000000000000000000000000000000000000000000000006020830152604082019050919050565b600061355060238361407b565b91507f566f74696e6720666f7262696464656e20666f72206e6f6e2d76616c6964617460008301527f6f727300000000000000000000000000000000000000000000000000000000006020830152604082019050919050565b60006135b660298361407b565b91507f496e76616c696420696e64657820666f72207374616b65686f6c64657273206360008301527f6f6c6c656374696f6e00000000000000000000000000000000000000000000006020830152604082019050919050565b600061361c60218361407b565b91507f45524332303a206275726e2066726f6d20746865207a65726f2061646472657360008301527f73000000000000000000000000000000000000000000000000000000000000006020830152604082019050919050565b600061368260258361407b565b91507f45524332303a207472616e736665722066726f6d20746865207a65726f20616460008301527f64726573730000000000000000000000000000000000000000000000000000006020830152604082019050919050565b60006136e860248361407b565b91507f45524332303a20617070726f76652066726f6d20746865207a65726f2061646460008301527f72657373000000000000000000000000000000000000000000000000000000006020830152604082019050919050565b600061374e601f8361407b565b91507f566f746520616c726561647920656e64656420666f72207468617420657261006000830152602082019050919050565b600061378e60258361407b565b91507f45524332303a2064656372656173656420616c6c6f77616e63652062656c6f7760008301527f207a65726f0000000000000000000000000000000000000000000000000000006020830152604082019050919050565b60006137f4601f8361407b565b91507f45524332303a206d696e7420746f20746865207a65726f2061646472657373006000830152602082019050919050565b6101608201600082015161383e6000850182612ff0565b5060208201516138516020850182613ae8565b5060408201516138646040850182613ae8565b5060608201516138776060850182613ae8565b50608082015161388a6080850182612ef8565b5060a082015161389d60a0850182613ae8565b5060c08201516138b060c0850182612fd2565b5060e08201516138c360e0850182613ae8565b506101008201516138d8610100850182613ae8565b506101208201516138ed610120850182612fd2565b50610140820151613902610140850182612fd2565b50505050565b6101608201600080830154905061391e81614304565b61392b6000860182612ff0565b506001830154905061393c8161431e565b6139496020860182613ae8565b506002830154905061395a8161431e565b6139676040860182613ae8565b50600383015490506139788161431e565b6139856060860182613ae8565b5060048301549050613996816142d0565b6139a36080860182612ef8565b50600583015490506139b48161431e565b6139c160a0860182613ae8565b50600683015490506139d2816142ea565b6139df60c0860182612fd2565b50600783015490506139f08161431e565b6139fd60e0860182613ae8565b5060088301549050613a0e8161431e565b613a1c610100860182613ae8565b5060098301549050613a2d816142ea565b613a3b610120860182612fd2565b50613a4581614338565b613a53610140860182612fd2565b5050505050565b60e082016000820151613a706000850182612ef8565b506020820151613a836020850182613ae8565b506040820151613a966040850182613ae8565b506060820151613aa96060850182613ae8565b506080820151613abc6080850182613ae8565b5060a0820151613acf60a0850182612fd2565b5060c0820151613ae260c0850182613ae8565b50505050565b613af18161422a565b82525050565b613b008161422a565b82525050565b613b0f81614234565b82525050565b6000602082019050613b2a6000830184612f07565b92915050565b60006020820190508181036000830152613b4a8184612f74565b905092915050565b6000602082019050613b676000830184612fe1565b92915050565b600060a082019050613b826000830188612fff565b613b8f6020830187612f07565b8181036040830152613ba18186612f16565b9050613bb06060830185613af7565b613bbd6080830184613af7565b9695505050505050565b6000606082019050613bdc6000830186612fff565b613be96020830185612f07565b613bf66040830184613af7565b949350505050565b60006020820190508181036000830152613c18818461300e565b905092915050565b60006020820190508181036000830152613c3981613047565b9050919050565b60006020820190508181036000830152613c59816130ad565b9050919050565b60006020820190508181036000830152613c7981613113565b9050919050565b60006020820190508181036000830152613c9981613153565b9050919050565b60006020820190508181036000830152613cb9816131b9565b9050919050565b60006020820190508181036000830152613cd98161321f565b9050919050565b60006020820190508181036000830152613cf98161325f565b9050919050565b60006020820190508181036000830152613d19816132c5565b9050919050565b60006020820190508181036000830152613d398161332b565b9050919050565b60006020820190508181036000830152613d598161336b565b9050919050565b60006020820190508181036000830152613d79816133ab565b9050919050565b60006020820190508181036000830152613d9981613411565b9050919050565b60006020820190508181036000830152613db981613477565b9050919050565b60006020820190508181036000830152613dd9816134dd565b9050919050565b60006020820190508181036000830152613df981613543565b9050919050565b60006020820190508181036000830152613e19816135a9565b9050919050565b60006020820190508181036000830152613e398161360f565b9050919050565b60006020820190508181036000830152613e5981613675565b9050919050565b60006020820190508181036000830152613e79816136db565b9050919050565b60006020820190508181036000830152613e9981613741565b9050919050565b60006020820190508181036000830152613eb981613781565b9050919050565b60006020820190508181036000830152613ed9816137e7565b9050919050565b600061016082019050613ef66000830184613827565b92915050565b600061016082019050613f126000830184613908565b92915050565b6000602082019050613f2d6000830184613af7565b92915050565b600060a082019050613f486000830188613af7565b613f556020830187613af7565b613f626040830186613af7565b613f6f6060830185613af7565b613f7c6080830184612fe1565b9695505050505050565b6000602082019050613f9b6000830184613b06565b92915050565b6000604051905081810181811067ffffffffffffffff82111715613fc857613fc7614428565b5b8060405250919050565b600067ffffffffffffffff821115613fed57613fec614428565b5b602082029050602081019050919050565b6000819050602082019050919050565b6000819050602082019050919050565b600081519050919050565b600081519050919050565b600081519050919050565b6000602082019050919050565b6000602082019050919050565b600082825260208201905092915050565b600082825260208201905092915050565b600082825260208201905092915050565b60006140978261422a565b91506140a28361422a565b9250827fffffffffffffffffffffffffffffffffffffffffffffffffffffffffffffffff038211156140d7576140d661439b565b5b828201905092915050565b60006140ed8261422a565b91506140f88361422a565b925082614108576141076143ca565b5b828204905092915050565b600061411e8261422a565b91506141298361422a565b9250817fffffffffffffffffffffffffffffffffffffffffffffffffffffffffffffffff04831182151516156141625761416161439b565b5b828202905092915050565b60006141788261422a565b91506141838361422a565b9250828210156141965761419561439b565b5b828203905092915050565b600073ffffffffffffffffffffffffffffffffffffffff82169050919050565b600060ff82169050919050565b6000819050919050565b6000819050919050565b60006141ed8261420a565b9050919050565b60008115159050919050565b6000819050919050565b600073ffffffffffffffffffffffffffffffffffffffff82169050919050565b6000819050919050565b600060ff82169050919050565b60005b8381101561425f578082015181840152602081019050614244565b8381111561426e576000848401525b50505050565b600061427f8261422a565b915060008214156142935761429261439b565b5b600182039050919050565b600060028204905060018216806142b657607f821691505b602082108114156142ca576142c96143f9565b5b50919050565b60006142e36142de83614468565b6141a1565b9050919050565b60006142fd6142f883614468565b6141c1565b9050919050565b600061431761431283614468565b6141ce565b9050919050565b600061433161432c83614468565b6141d8565b9050919050565b600061434b61434683614475565b6141c1565b9050919050565b600061435d8261422a565b91507fffffffffffffffffffffffffffffffffffffffffffffffffffffffffffffffff8214156143905761438f61439b565b5b600182019050919050565b7f4e487b7100000000000000000000000000000000000000000000000000000000600052601160045260246000fd5b7f4e487b7100000000000000000000000000000000000000000000000000000000600052601260045260246000fd5b7f4e487b7100000000000000000000000000000000000000000000000000000000600052602260045260246000fd5b7f4e487b7100000000000000000000000000000000000000000000000000000000600052604160045260246000fd5b6000601f19601f8301169050919050565b60008160001c9050919050565b60008160081c9050919050565b61448b816141e2565b811461449657600080fd5b50565b6144a2816141f4565b81146144ad57600080fd5b50565b6144b981614200565b81146144c457600080fd5b50565b6144d08161422a565b81146144db57600080fd5b5056fea26469706673582212202fc47231b0ff3f8adee55c0172c84271cd66b236c67f53728d2d0e1befd4392564736f6c63430008000033",
  "immutableReferences": {
    "1892": [
      {
        "length": 32,
        "start": 6357
      }
    ],
    "2433": [
      {
        "length": 32,
        "start": 1958
      },
      {
        "length": 32,
        "start": 8962
      },
      {
        "length": 32,
        "start": 9830
      }
    ]
  },
  "source": "pragma solidity ^0.8.0;\r\n\r\nimport \"./ERC20Stakable.sol\";\r\nimport \"../utils/NominatingStakeholders.sol\";\r\nimport \"../utils/Eras.sol\";\r\nimport \"../Interfaces/IProofOfStake.sol\";\r\nimport \"../Interfaces/IErasMonitor.sol\";\r\nimport \"../utils/ErasVotes.sol\";\r\n\r\ncontract ERC20ProofOfStake is IErasMonitor, IProofOfStake, ERC20Stakable {\r\n    uint256 private constant MAX_COUICIL_MEMBERS_COUNT = 10;\r\n    uint256\r\n        private constant MINIMUM_QUORUM_REQUURED_FOR_VALIDATION_IN_PERCENTS =\r\n        51;\r\n    uint256 immutable _rewardForValidatorsAfterEachEra;\r\n    mapping(bytes32 => Eras.Era) internal _eras;\r\n    mapping(bytes32 => mapping(address => ErasVotes.ErasVote))\r\n        internal _eraValidatorVotes;\r\n    mapping(bytes32 => address[]) internal _erasCouncil;\r\n    bytes32 internal _activeEraId;\r\n    bytes32 internal _previousEraId;\r\n    bytes32 internal _lastApprovedEra;\r\n\r\n    constructor(\r\n        string memory name_,\r\n        string memory symbol_,\r\n        uint256 minStakedAmountForValidation_,\r\n        uint256 rewardForValidatorsAfterEachEra_\r\n    ) ERC20Stakable(name_, symbol_, minStakedAmountForValidation_) {\r\n        _rewardForValidatorsAfterEachEra = rewardForValidatorsAfterEachEra_;\r\n    }\r\n\r\n    event NewEraElecationProposal(\r\n        bytes32 eraId,\r\n        address chairman,\r\n        address[] council,\r\n        uint256 validatorsCount,\r\n        uint256 calculatedSeed\r\n    );\r\n\r\n    event NewEraElectionComplited(Eras.Era era);\r\n\r\n    event EndEraByNewElectedChairman(\r\n        bytes32 eraId,\r\n        address chairman,\r\n        uint256 timestap\r\n    );\r\n\r\n    modifier onlyValidatorAction() {\r\n        uint256 validatorNodeIndex = _validatorsStakeholderIndexes[msg.sender];\r\n        require(validatorNodeIndex != 0, \"Voting forbidden for non-validators\");\r\n        _;\r\n    }\r\n\r\n    //** for INTERFACE !!! */\r\n    function getValidatorsCount() external view override returns (uint256) {\r\n        return _validatorsCount;\r\n    }\r\n\r\n    function getCurrentEra()\r\n        external\r\n        view\r\n        override\r\n        returns (Eras.Era memory currentEra)\r\n    {\r\n        return _eras[_activeEraId];\r\n    }\r\n\r\n    function getErasCount() external view override returns (uint256) {\r\n        return _erasCount;\r\n    }\r\n\r\n    function endEra(uint256 timestamp) external override {\r\n        address caller = msg.sender;\r\n        Eras.Era memory futureEra = _eras[_lastApprovedEra];\r\n\r\n        //TODO: validation for time elapsed\r\n        require(\r\n            caller == futureEra.chairman,\r\n            \"Only chairman can end current era\"\r\n        );\r\n        if (_previousEraId == 0 && _activeEraId == 0) {\r\n            //corner case . The only time when this will be executed\r\n            //is on the very firs era\r\n            //no fees for distribution\r\n            //and auto set previous era as current era\r\n            _previousEraId = _lastApprovedEra;\r\n        } else {\r\n            _payReward(\r\n                futureEra.colectedFeesAmount + _rewardForValidatorsAfterEachEra,\r\n                caller\r\n            );\r\n            _previousEraId = _activeEraId;\r\n        }\r\n        _activeEraId = _lastApprovedEra;\r\n\r\n        emit EndEraByNewElectedChairman(_activeEraId, caller, timestamp);\r\n        //more complex stuff - add validation for timestamp by nodes, with another vote and\r\n        //if proposed timestamp is wrong, and consensus is reached - punish the node\r\n        //that execute this code. For now this will not be implemented\r\n    }\r\n\r\n    function proposeNewEra(\r\n        bytes32 eraId_,\r\n        address chairman_,\r\n        address[] memory coucil_,\r\n        uint256 utcTimeStamp_,\r\n        uint256 calculatedSeed_\r\n    ) external override {\r\n        address caller = msg.sender;\r\n        Eras.Era memory currentEra = _getCurrentEraInternal();\r\n        if (currentEra.chairman != address(0)) {\r\n            //this is not the first era. Only previous chairman can propose new election\r\n            require(\r\n                caller == currentEra.chairman,\r\n                \"Caller not previous era chairman. Access denied\"\r\n            );\r\n        }\r\n        //check if era with the same eraId already exist!\r\n        Eras.Era storage eraWithGivenId = _eras[eraId_];\r\n        require(\r\n            //eraId is unique. If era with that Id is found, then the proposal is not valid\r\n            eraWithGivenId.chairman == address(0),\r\n            \"Era with the same ID already proposed\"\r\n        );\r\n        //TODO: after testing new proposed era should come with one possitive vote\r\n        _eras[eraId_] = Eras.Era({\r\n            id: eraId_,\r\n            colectedFeesAmount: 0,\r\n            startDate: utcTimeStamp_,\r\n            endDate: 0,\r\n            chairman: chairman_,\r\n            requiredQuorum: _calculateMinimumNodesCountForReachingQuorum(), //51% of all validators\r\n            isQuorumReached: false,\r\n            possitiveVotes: 0,\r\n            negativeVotes: 0,\r\n            accepted: false,\r\n            ended: false\r\n        });\r\n\r\n        emit NewEraElecationProposal(\r\n            eraId_,\r\n            chairman_,\r\n            coucil_,\r\n            _validatorsCount,\r\n            calculatedSeed_\r\n        );\r\n    }\r\n\r\n    function voteForProposedEra(bytes32 eraId, bool approves)\r\n        external\r\n        override\r\n        onlyValidatorAction\r\n    {\r\n        Eras.Era storage era = _eras[eraId];\r\n\r\n        require(\r\n            era.chairman != address(0),\r\n            \"Era with passed Id does not exist\"\r\n        );\r\n\r\n        require(\r\n            era.isQuorumReached == false,\r\n            \"Vote already ended for that era\"\r\n        );\r\n\r\n        address caller = msg.sender;\r\n\r\n        ErasVotes.ErasVote storage eraVote = _eraValidatorVotes[eraId][caller];\r\n\r\n        require(eraVote.voter == address(0), \"Validator already voted\");\r\n\r\n        //register vote\r\n        _eraValidatorVotes[eraId][caller] = ErasVotes.ErasVote({\r\n            voter: caller,\r\n            approve: approves\r\n        });\r\n\r\n        //check required quorum is reached\r\n        if (approves == true) {\r\n            era.possitiveVotes += uint256(1);\r\n            if (era.possitiveVotes == era.requiredQuorum) {\r\n                //era election is approved!\r\n                era.isQuorumReached = true;\r\n                era.accepted = true;\r\n                _lastApprovedEra = eraId;\r\n            }\r\n        } else {\r\n            era.negativeVotes += uint256(1);\r\n            if (era.negativeVotes == era.requiredQuorum) {\r\n                //era election is denied!\r\n                era.isQuorumReached = true;\r\n                era.accepted = false;\r\n                //TODO: initialized a revote and new proposal!\r\n                //TODO: punish the era proposal node (slash)\r\n            }\r\n        }\r\n\r\n        if (era.isQuorumReached == true) {\r\n            emit NewEraElectionComplited(era);\r\n        }\r\n    }\r\n\r\n    function getEraById(bytes32 eraId_)\r\n        external\r\n        view\r\n        override\r\n        returns (Eras.Era memory era)\r\n    {\r\n        return _eras[eraId_];\r\n    }\r\n\r\n    function _getCurrentEraInternal()\r\n        internal\r\n        view\r\n        returns (Eras.Era memory era)\r\n    {\r\n        return _eras[_activeEraId];\r\n    }\r\n\r\n    function _payReward(uint256 tokenAmountForDistribution_, address chainman_)\r\n        internal\r\n        virtual\r\n    {\r\n        //simple scheme withoud nominators\r\n        //this reward scheme can be ovveriden for much complex one\r\n        //for simple reward distribution\r\n        //chainrman gets 50% of all fees\r\n        uint256 chairmainsReward = tokenAmountForDistribution_ / 2;\r\n        uint256 stakeholderIndex = _stakeholdersIndexes[chainman_];\r\n        Stakeholders.Stakeholder storage chairman = _stakeholders[\r\n            stakeholderIndex\r\n        ];\r\n\r\n        require(chairman.user != address(0), \"Chairman address does not exist\");\r\n\r\n        chairman.notCollectedTokenRewards += chairmainsReward;\r\n\r\n        uint256 remainingAmountForDistribution = tokenAmountForDistribution_ -\r\n            chairmainsReward;\r\n\r\n        //TODO: calculate remaining rewards for the rest of the voting council for this era\r\n    }\r\n\r\n    function _calculateMinimumNodesCountForReachingQuorum()\r\n        private\r\n        view\r\n        returns (uint256)\r\n    {\r\n        if (_validatorsCount == 1) {\r\n            return 1;\r\n        }\r\n\r\n        return\r\n            (_validatorsCount *\r\n                MINIMUM_QUORUM_REQUURED_FOR_VALIDATION_IN_PERCENTS) / 100;\r\n    }\r\n}\r\n",
  "sourcePath": "D:\\Documents\\Dev\\Repositories\\gold-price-oracle\\gold-price-oracle\\on-chain\\contracts\\token\\base\\ERC20ProofOfStake.sol",
  "compiler": {
    "name": "solc",
    "version": "0.8.0+commit.c7dfd78e.Emscripten.clang"
  },
  "schemaVersion": "3.4.3",
  "updatedAt": "2022-03-16T22:00:54.384Z",
  "devdoc": {
    "kind": "dev",
    "methods": {
      "allowance(address,address)": {
        "details": "See {IERC20-allowance}."
      },
      "approve(address,uint256)": {
        "details": "See {IERC20-approve}. NOTE: If `amount` is the maximum `uint256`, the allowance is not updated on `transferFrom`. This is semantically equivalent to an infinite approval. Requirements: - `spender` cannot be the zero address."
      },
      "balanceOf(address)": {
        "details": "See {IERC20-balanceOf}."
      },
      "decimals()": {
        "details": "Returns the number of decimals used to get its user representation. For example, if `decimals` equals `2`, a balance of `505` tokens should be displayed to a user as `5.05` (`505 / 10 ** 2`). Tokens usually opt for a value of 18, imitating the relationship between Ether and Wei. This is the value {ERC20} uses, unless this function is overridden; NOTE: This information is only used for _display_ purposes: it in no way affects any of the arithmetic of the contract, including {IERC20-balanceOf} and {IERC20-transfer}."
      },
      "decreaseAllowance(address,uint256)": {
        "details": "Atomically decreases the allowance granted to `spender` by the caller. This is an alternative to {approve} that can be used as a mitigation for problems described in {IERC20-approve}. Emits an {Approval} event indicating the updated allowance. Requirements: - `spender` cannot be the zero address. - `spender` must have allowance for the caller of at least `subtractedValue`."
      },
      "increaseAllowance(address,uint256)": {
        "details": "Atomically increases the allowance granted to `spender` by the caller. This is an alternative to {approve} that can be used as a mitigation for problems described in {IERC20-approve}. Emits an {Approval} event indicating the updated allowance. Requirements: - `spender` cannot be the zero address."
      },
      "name()": {
        "details": "Returns the name of the token."
      },
      "symbol()": {
        "details": "Returns the symbol of the token, usually a shorter version of the name."
      },
      "totalSupply()": {
        "details": "See {IERC20-totalSupply}."
      },
      "transfer(address,uint256)": {
        "details": "See {IERC20-transfer}. Requirements: - `to` cannot be the zero address. - the caller must have a balance of at least `amount`."
      },
      "transferFrom(address,address,uint256)": {
        "details": "See {IERC20-transferFrom}. Emits an {Approval} event indicating the updated allowance. This is not required by the EIP. See the note at the beginning of {ERC20}. NOTE: Does not update the allowance if the current allowance is the maximum `uint256`. Requirements: - `from` and `to` cannot be the zero address. - `from` must have a balance of at least `amount`. - the caller must have allowance for ``from``'s tokens of at least `amount`."
      }
    },
    "version": 1
  },
  "userdoc": {
    "kind": "user",
    "methods": {},
    "version": 1
  }
}