{
  "contractName": "ERC20ProofOfStake",
  "abi": [
    {
      "inputs": [
        {
          "internalType": "string",
          "name": "name_",
          "type": "string"
        },
        {
          "internalType": "string",
          "name": "symbol_",
          "type": "string"
        },
        {
          "internalType": "uint256",
          "name": "minStakedAmountForValidation_",
          "type": "uint256"
        },
        {
          "internalType": "uint256",
          "name": "rewardForValidatorsAfterEachEra_",
          "type": "uint256"
        }
      ],
      "stateMutability": "nonpayable",
      "type": "constructor"
    },
    {
      "anonymous": false,
      "inputs": [
        {
          "indexed": true,
          "internalType": "address",
          "name": "owner",
          "type": "address"
        },
        {
          "indexed": true,
          "internalType": "address",
          "name": "spender",
          "type": "address"
        },
        {
          "indexed": false,
          "internalType": "uint256",
          "name": "value",
          "type": "uint256"
        }
      ],
      "name": "Approval",
      "type": "event"
    },
    {
      "anonymous": false,
      "inputs": [
        {
          "indexed": false,
          "internalType": "bytes32",
          "name": "eraId",
          "type": "bytes32"
        },
        {
          "indexed": false,
          "internalType": "address",
          "name": "chairman",
          "type": "address"
        },
        {
          "indexed": false,
          "internalType": "address[]",
          "name": "council",
          "type": "address[]"
        },
        {
          "indexed": false,
          "internalType": "uint256",
          "name": "validatorsCount",
          "type": "uint256"
        }
      ],
      "name": "NewEraElecationProposal",
      "type": "event"
    },
    {
      "anonymous": false,
      "inputs": [
        {
          "components": [
            {
              "internalType": "bytes32",
              "name": "id",
              "type": "bytes32"
            },
            {
              "internalType": "uint256",
              "name": "colectedFeesAmount",
              "type": "uint256"
            },
            {
              "internalType": "uint256",
              "name": "startDate",
              "type": "uint256"
            },
            {
              "internalType": "uint256",
              "name": "endDate",
              "type": "uint256"
            },
            {
              "internalType": "address",
              "name": "chairman",
              "type": "address"
            },
            {
              "internalType": "uint256",
              "name": "requiredQuorum",
              "type": "uint256"
            },
            {
              "internalType": "bool",
              "name": "isQuorumReached",
              "type": "bool"
            },
            {
              "internalType": "uint256",
              "name": "possitiveVotes",
              "type": "uint256"
            },
            {
              "internalType": "uint256",
              "name": "negativeVotes",
              "type": "uint256"
            },
            {
              "internalType": "bool",
              "name": "accepted",
              "type": "bool"
            }
          ],
          "indexed": false,
          "internalType": "struct Eras.Era",
          "name": "era",
          "type": "tuple"
        }
      ],
      "name": "NewEraElectionComplited",
      "type": "event"
    },
    {
      "anonymous": false,
      "inputs": [
        {
          "indexed": true,
          "internalType": "address",
          "name": "from",
          "type": "address"
        },
        {
          "indexed": true,
          "internalType": "address",
          "name": "to",
          "type": "address"
        },
        {
          "indexed": false,
          "internalType": "uint256",
          "name": "value",
          "type": "uint256"
        }
      ],
      "name": "Transfer",
      "type": "event"
    },
    {
      "inputs": [
        {
          "internalType": "address",
          "name": "owner",
          "type": "address"
        },
        {
          "internalType": "address",
          "name": "spender",
          "type": "address"
        }
      ],
      "name": "allowance",
      "outputs": [
        {
          "internalType": "uint256",
          "name": "",
          "type": "uint256"
        }
      ],
      "stateMutability": "view",
      "type": "function"
    },
    {
      "inputs": [
        {
          "internalType": "address",
          "name": "spender",
          "type": "address"
        },
        {
          "internalType": "uint256",
          "name": "amount",
          "type": "uint256"
        }
      ],
      "name": "approve",
      "outputs": [
        {
          "internalType": "bool",
          "name": "",
          "type": "bool"
        }
      ],
      "stateMutability": "nonpayable",
      "type": "function"
    },
    {
      "inputs": [
        {
          "internalType": "address",
          "name": "account",
          "type": "address"
        }
      ],
      "name": "balanceOf",
      "outputs": [
        {
          "internalType": "uint256",
          "name": "",
          "type": "uint256"
        }
      ],
      "stateMutability": "view",
      "type": "function"
    },
    {
      "inputs": [],
      "name": "decimals",
      "outputs": [
        {
          "internalType": "uint8",
          "name": "",
          "type": "uint8"
        }
      ],
      "stateMutability": "view",
      "type": "function"
    },
    {
      "inputs": [
        {
          "internalType": "address",
          "name": "spender",
          "type": "address"
        },
        {
          "internalType": "uint256",
          "name": "subtractedValue",
          "type": "uint256"
        }
      ],
      "name": "decreaseAllowance",
      "outputs": [
        {
          "internalType": "bool",
          "name": "",
          "type": "bool"
        }
      ],
      "stateMutability": "nonpayable",
      "type": "function"
    },
    {
      "inputs": [
        {
          "internalType": "address",
          "name": "address_",
          "type": "address"
        }
      ],
      "name": "getStakedAmount",
      "outputs": [
        {
          "internalType": "uint256",
          "name": "",
          "type": "uint256"
        }
      ],
      "stateMutability": "view",
      "type": "function"
    },
    {
      "inputs": [
        {
          "internalType": "address",
          "name": "address_",
          "type": "address"
        }
      ],
      "name": "getStakeholderInformation",
      "outputs": [
        {
          "internalType": "uint256",
          "name": "",
          "type": "uint256"
        },
        {
          "internalType": "uint256",
          "name": "",
          "type": "uint256"
        },
        {
          "internalType": "uint256",
          "name": "",
          "type": "uint256"
        },
        {
          "internalType": "uint256",
          "name": "",
          "type": "uint256"
        },
        {
          "internalType": "bool",
          "name": "",
          "type": "bool"
        }
      ],
      "stateMutability": "view",
      "type": "function"
    },
    {
      "inputs": [
        {
          "internalType": "address",
          "name": "spender",
          "type": "address"
        },
        {
          "internalType": "uint256",
          "name": "addedValue",
          "type": "uint256"
        }
      ],
      "name": "increaseAllowance",
      "outputs": [
        {
          "internalType": "bool",
          "name": "",
          "type": "bool"
        }
      ],
      "stateMutability": "nonpayable",
      "type": "function"
    },
    {
      "inputs": [],
      "name": "name",
      "outputs": [
        {
          "internalType": "string",
          "name": "",
          "type": "string"
        }
      ],
      "stateMutability": "view",
      "type": "function"
    },
    {
      "inputs": [
        {
          "internalType": "uint256",
          "name": "amount_",
          "type": "uint256"
        }
      ],
      "name": "stake",
      "outputs": [],
      "stateMutability": "nonpayable",
      "type": "function"
    },
    {
      "inputs": [],
      "name": "symbol",
      "outputs": [
        {
          "internalType": "string",
          "name": "",
          "type": "string"
        }
      ],
      "stateMutability": "view",
      "type": "function"
    },
    {
      "inputs": [],
      "name": "totalSupply",
      "outputs": [
        {
          "internalType": "uint256",
          "name": "",
          "type": "uint256"
        }
      ],
      "stateMutability": "view",
      "type": "function"
    },
    {
      "inputs": [
        {
          "internalType": "address",
          "name": "to",
          "type": "address"
        },
        {
          "internalType": "uint256",
          "name": "amount",
          "type": "uint256"
        }
      ],
      "name": "transfer",
      "outputs": [
        {
          "internalType": "bool",
          "name": "",
          "type": "bool"
        }
      ],
      "stateMutability": "nonpayable",
      "type": "function"
    },
    {
      "inputs": [
        {
          "internalType": "address",
          "name": "from",
          "type": "address"
        },
        {
          "internalType": "address",
          "name": "to",
          "type": "address"
        },
        {
          "internalType": "uint256",
          "name": "amount",
          "type": "uint256"
        }
      ],
      "name": "transferFrom",
      "outputs": [
        {
          "internalType": "bool",
          "name": "",
          "type": "bool"
        }
      ],
      "stateMutability": "nonpayable",
      "type": "function"
    },
    {
      "inputs": [
        {
          "internalType": "uint256",
          "name": "amount_",
          "type": "uint256"
        }
      ],
      "name": "unstake",
      "outputs": [],
      "stateMutability": "nonpayable",
      "type": "function"
    },
    {
      "inputs": [],
      "name": "getValidatorsCount",
      "outputs": [
        {
          "internalType": "uint256",
          "name": "",
          "type": "uint256"
        }
      ],
      "stateMutability": "view",
      "type": "function"
    },
    {
      "inputs": [],
      "name": "getStakeholders",
      "outputs": [
        {
          "components": [
            {
              "internalType": "address",
              "name": "user",
              "type": "address"
            },
            {
              "internalType": "uint256",
              "name": "totalAmount",
              "type": "uint256"
            },
            {
              "internalType": "uint256",
              "name": "ownedAmount",
              "type": "uint256"
            },
            {
              "internalType": "uint256",
              "name": "nominatedAmount",
              "type": "uint256"
            },
            {
              "internalType": "uint256",
              "name": "nominatorsCount",
              "type": "uint256"
            },
            {
              "internalType": "bool",
              "name": "canValidate",
              "type": "bool"
            },
            {
              "internalType": "uint256",
              "name": "notCollectedTokenRewards",
              "type": "uint256"
            }
          ],
          "internalType": "struct Stakeholders.Stakeholder[]",
          "name": "stakeholders",
          "type": "tuple[]"
        }
      ],
      "stateMutability": "view",
      "type": "function"
    },
    {
      "inputs": [],
      "name": "getCurrentEra",
      "outputs": [
        {
          "components": [
            {
              "internalType": "bytes32",
              "name": "id",
              "type": "bytes32"
            },
            {
              "internalType": "uint256",
              "name": "colectedFeesAmount",
              "type": "uint256"
            },
            {
              "internalType": "uint256",
              "name": "startDate",
              "type": "uint256"
            },
            {
              "internalType": "uint256",
              "name": "endDate",
              "type": "uint256"
            },
            {
              "internalType": "address",
              "name": "chairman",
              "type": "address"
            },
            {
              "internalType": "uint256",
              "name": "requiredQuorum",
              "type": "uint256"
            },
            {
              "internalType": "bool",
              "name": "isQuorumReached",
              "type": "bool"
            },
            {
              "internalType": "uint256",
              "name": "possitiveVotes",
              "type": "uint256"
            },
            {
              "internalType": "uint256",
              "name": "negativeVotes",
              "type": "uint256"
            },
            {
              "internalType": "bool",
              "name": "accepted",
              "type": "bool"
            }
          ],
          "internalType": "struct Eras.Era",
          "name": "currentEra",
          "type": "tuple"
        }
      ],
      "stateMutability": "view",
      "type": "function"
    },
    {
      "inputs": [],
      "name": "getErasCount",
      "outputs": [
        {
          "internalType": "uint256",
          "name": "",
          "type": "uint256"
        }
      ],
      "stateMutability": "view",
      "type": "function"
    },
    {
      "inputs": [],
      "name": "endCurrentEra",
      "outputs": [],
      "stateMutability": "nonpayable",
      "type": "function"
    },
    {
      "inputs": [
        {
          "internalType": "bytes32",
          "name": "eraId_",
          "type": "bytes32"
        },
        {
          "internalType": "address",
          "name": "chairman_",
          "type": "address"
        },
        {
          "internalType": "address[]",
          "name": "coucil_",
          "type": "address[]"
        },
        {
          "internalType": "uint256",
          "name": "utcTimeStamp_",
          "type": "uint256"
        }
      ],
      "name": "proposeNewEra",
      "outputs": [],
      "stateMutability": "nonpayable",
      "type": "function"
    },
    {
      "inputs": [
        {
          "internalType": "bytes32",
          "name": "eraId",
          "type": "bytes32"
        },
        {
          "internalType": "bool",
          "name": "approves",
          "type": "bool"
        }
      ],
      "name": "voteForProposedEra",
      "outputs": [],
      "stateMutability": "nonpayable",
      "type": "function"
    },
    {
      "inputs": [],
      "name": "startNewEra",
      "outputs": [
        {
          "internalType": "bytes32",
          "name": "",
          "type": "bytes32"
        }
      ],
      "stateMutability": "nonpayable",
      "type": "function"
    }
  ],
  "bytecode": "0x60c06040523480156200001157600080fd5b5060405162004462380380620044628339818101604052810190620000379190620001ce565b838383828281600390805190602001906200005492919062000095565b5080600490805190602001906200006d92919062000095565b505050806080818152505060006005819055505050508060a0818152505050505050620003c1565b828054620000a39062000313565b90600052602060002090601f016020900481019282620000c7576000855562000113565b82601f10620000e257805160ff191683800117855562000113565b8280016001018555821562000113579182015b8281111562000112578251825591602001919060010190620000f5565b5b50905062000122919062000126565b5090565b5b808211156200014157600081600090555060010162000127565b5090565b60006200015c6200015684620002a0565b6200026c565b9050828152602081018484840111156200017557600080fd5b62000182848285620002dd565b509392505050565b600082601f8301126200019c57600080fd5b8151620001ae84826020860162000145565b91505092915050565b600081519050620001c881620003a7565b92915050565b60008060008060808587031215620001e557600080fd5b600085015167ffffffffffffffff8111156200020057600080fd5b6200020e878288016200018a565b945050602085015167ffffffffffffffff8111156200022c57600080fd5b6200023a878288016200018a565b93505060406200024d87828801620001b7565b92505060606200026087828801620001b7565b91505092959194509250565b6000604051905081810181811067ffffffffffffffff8211171562000296576200029562000378565b5b8060405250919050565b600067ffffffffffffffff821115620002be57620002bd62000378565b5b601f19601f8301169050602081019050919050565b6000819050919050565b60005b83811015620002fd578082015181840152602081019050620002e0565b838111156200030d576000848401525b50505050565b600060028204905060018216806200032c57607f821691505b6020821081141562000343576200034262000349565b5b50919050565b7f4e487b7100000000000000000000000000000000000000000000000000000000600052602260045260246000fd5b7f4e487b7100000000000000000000000000000000000000000000000000000000600052604160045260246000fd5b620003b281620002d3565b8114620003be57600080fd5b50565b60805160a05161406d620003f560003960006114c801526000818161078701528181611ead0152612211015261406d6000f3fe608060405234801561001057600080fd5b506004361061014d5760003560e01c80634da6a556116100c3578063a694fc3a1161007c578063a694fc3a146103cc578063a9059cbb146103e8578063b64cd8ca14610418578063b699224714610422578063d250b6cb14610440578063dd62ed3e1461045e5761014d565b80634da6a556146102e4578063533aa7b81461031457806370a082311461033257806395d89b41146103625780639c673c3514610380578063a457c2d71461039c5761014d565b80632749824011610115578063274982401461020c5780632bf9262c1461022a5780632e17de781461025e578063313ce5671461027a578063395093511461029857806340c86f1a146102c85761014d565b806306fdde0314610152578063095ea7b31461017057806318160ddd146101a05780631e70953e146101be57806323b872dd146101dc575b600080fd5b61015a61048e565b60405161016791906137d8565b60405180910390f35b61018a600480360381019061018591906129b4565b610520565b6040516101979190613756565b60405180910390f35b6101a8610543565b6040516101b59190613af2565b60405180910390f35b6101c661054d565b6040516101d39190613771565b60405180910390f35b6101f660048036038101906101f19190612965565b610552565b6040516102039190613756565b60405180910390f35b610214610581565b6040516102219190613af2565b60405180910390f35b610244600480360381019061023f9190612900565b61058b565b604051610255959493929190613b0d565b60405180910390f35b61027860048036038101906102739190612aa7565b610669565b005b610282610816565b60405161028f9190613b60565b60405180910390f35b6102b260048036038101906102ad91906129b4565b61081f565b6040516102bf9190613756565b60405180910390f35b6102e260048036038101906102dd9190612a6b565b6108c9565b005b6102fe60048036038101906102f99190612900565b610d52565b60405161030b9190613af2565b60405180910390f35b61031c610e0b565b6040516103299190613af2565b60405180910390f35b61034c60048036038101906103479190612900565b610e15565b6040516103599190613af2565b60405180910390f35b61036a610e5d565b60405161037791906137d8565b60405180910390f35b61039a600480360381019061039591906129f0565b610eef565b005b6103b660048036038101906103b191906129b4565b61121e565b6040516103c39190613756565b60405180910390f35b6103e660048036038101906103e19190612aa7565b611308565b005b61040260048036038101906103fd91906129b4565b61141d565b60405161040f9190613756565b60405180910390f35b610420611440565b005b61042a611500565b6040516104379190613734565b60405180910390f35b610448611602565b6040516104559190613aba565b60405180910390f35b61047860048036038101906104739190612929565b6116ef565b6040516104859190613af2565b60405180910390f35b60606003805461049d90613e1e565b80601f01602080910402602001604051908101604052809291908181526020018280546104c990613e1e565b80156105165780601f106104eb57610100808354040283529160200191610516565b820191906000526020600020905b8154815290600101906020018083116104f957829003601f168201915b5050505050905090565b60008061052b611776565b905061053881858561177e565b600191505092915050565b6000600254905090565b600090565b60008061055d611776565b905061056a858285611949565b6105758585856119d5565b60019150509392505050565b6000600554905090565b60008060008060008061059d87611c56565b9050600081116105e2576040517f08c379a00000000000000000000000000000000000000000000000000000000081526004016105d99061397a565b60405180910390fd5b60006007828154811061061e577f4e487b7100000000000000000000000000000000000000000000000000000000600052603260045260246000fd5b9060005260206000209060070201905080600101548160020154826003015483600401548460050160009054906101000a900460ff1696509650965096509650505091939590929450565b60003390506000600960008373ffffffffffffffffffffffffffffffffffffffff1673ffffffffffffffffffffffffffffffffffffffff16815260200190815260200160002054905060008114156106c2575050610813565b6000600782815481106106fe577f4e487b7100000000000000000000000000000000000000000000000000000000600052603260045260246000fd5b906000526020600020906007020190508381600101541015610755576040517f08c379a000000000000000000000000000000000000000000000000000000000815260040161074c906138ba565b60405180910390fd5b60008482600101600082825461076b9190613ced565b92505081905590508082600101819055508082600201819055507f000000000000000000000000000000000000000000000000000000000000000081106107ce5760018260050160006101000a81548160ff021916908315150217905550610804565b60008260050160006101000a81548160ff021916908315150217905550600560008154809291906107fe90613df4565b91905055505b61080e8486611d49565b505050505b50565b60006012905090565b60008061082a611776565b90506108be818585600160008673ffffffffffffffffffffffffffffffffffffffff1673ffffffffffffffffffffffffffffffffffffffff16815260200190815260200160002060008973ffffffffffffffffffffffffffffffffffffffff1673ffffffffffffffffffffffffffffffffffffffff168152602001908152602001600020546108b99190613c66565b61177e565b600191505092915050565b6000600860003373ffffffffffffffffffffffffffffffffffffffff1673ffffffffffffffffffffffffffffffffffffffff1681526020019081526020016000205490506000811415610951576040517f08c379a0000000000000000000000000000000000000000000000000000000008152600401610948906139ba565b60405180910390fd5b6000600a60008581526020019081526020016000209050600073ffffffffffffffffffffffffffffffffffffffff168160040160009054906101000a900473ffffffffffffffffffffffffffffffffffffffff1673ffffffffffffffffffffffffffffffffffffffff1614156109fc576040517f08c379a00000000000000000000000000000000000000000000000000000000081526004016109f39061387a565b60405180910390fd5b600015158160060160009054906101000a900460ff16151514610a54576040517f08c379a0000000000000000000000000000000000000000000000000000000008152600401610a4b90613a5a565b60405180910390fd5b60003390506000600b600087815260200190815260200160002060008373ffffffffffffffffffffffffffffffffffffffff1673ffffffffffffffffffffffffffffffffffffffff1681526020019081526020016000209050600073ffffffffffffffffffffffffffffffffffffffff168160000160009054906101000a900473ffffffffffffffffffffffffffffffffffffffff1673ffffffffffffffffffffffffffffffffffffffff1614610b40576040517f08c379a0000000000000000000000000000000000000000000000000000000008152600401610b37906138fa565b60405180910390fd5b60405180604001604052808373ffffffffffffffffffffffffffffffffffffffff168152602001861515815250600b600088815260200190815260200160002060008473ffffffffffffffffffffffffffffffffffffffff1673ffffffffffffffffffffffffffffffffffffffff16815260200190815260200160002060008201518160000160006101000a81548173ffffffffffffffffffffffffffffffffffffffff021916908373ffffffffffffffffffffffffffffffffffffffff16021790555060208201518160000160146101000a81548160ff0219169083151502179055509050508415610c9657826007016000815480929190610c4290613eb8565b91905055508260050154836007015410610c915760018360060160006101000a81548160ff02191690831515021790555060018360090160006101000a81548160ff0219169083151502179055505b610cfb565b826008016000815480929190610cab90613eb8565b91905055508260050154836008015410610cfa5760018360060160006101000a81548160ff02191690831515021790555060008360090160006101000a81548160ff0219169083151502179055505b5b8260060160009054906101000a900460ff1615610d4a577fb1fce463952697f280ac0b6031859014a194dec4e698102ad56f64b08c62e8f083604051610d419190613ad6565b60405180910390a15b505050505050565b600081600073ffffffffffffffffffffffffffffffffffffffff168173ffffffffffffffffffffffffffffffffffffffff161415610d8f57600080fd5b6000610d9a84611c56565b90506000811415610daf576000925050610e05565b600060078281548110610deb577f4e487b7100000000000000000000000000000000000000000000000000000000600052603260045260246000fd5b906000526020600020906007020190508060010154935050505b50919050565b6000600654905090565b60008060008373ffffffffffffffffffffffffffffffffffffffff1673ffffffffffffffffffffffffffffffffffffffff168152602001908152602001600020549050919050565b606060048054610e6c90613e1e565b80601f0160208091040260200160405190810160405280929190818152602001828054610e9890613e1e565b8015610ee55780601f10610eba57610100808354040283529160200191610ee5565b820191906000526020600020905b815481529060010190602001808311610ec857829003601f168201915b5050505050905090565b6000339050600073ffffffffffffffffffffffffffffffffffffffff16600d60040160009054906101000a900473ffffffffffffffffffffffffffffffffffffffff1673ffffffffffffffffffffffffffffffffffffffff1614610fe157600d60040160009054906101000a900473ffffffffffffffffffffffffffffffffffffffff1673ffffffffffffffffffffffffffffffffffffffff168173ffffffffffffffffffffffffffffffffffffffff1614610fe0576040517f08c379a0000000000000000000000000000000000000000000000000000000008152600401610fd79061395a565b60405180910390fd5b5b6000600a60008781526020019081526020016000209050600073ffffffffffffffffffffffffffffffffffffffff168160040160009054906101000a900473ffffffffffffffffffffffffffffffffffffffff1673ffffffffffffffffffffffffffffffffffffffff161461108b576040517f08c379a00000000000000000000000000000000000000000000000000000000081526004016110829061393a565b60405180910390fd5b60405180610140016040528087815260200160008152602001848152602001600081526020018673ffffffffffffffffffffffffffffffffffffffff16815260200160008152602001600015158152602001600081526020016000815260200160001515815250600a60008881526020019081526020016000206000820151816000015560208201518160010155604082015181600201556060820151816003015560808201518160040160006101000a81548173ffffffffffffffffffffffffffffffffffffffff021916908373ffffffffffffffffffffffffffffffffffffffff16021790555060a0820151816005015560c08201518160060160006101000a81548160ff02191690831515021790555060e0820151816007015561010082015181600801556101208201518160090160006101000a81548160ff0219169083151502179055509050507fb822b250fdba4faa3c3716a21c74eb83232de44590b528cf663905730e8ebf9a86868660055460405161120e949392919061378c565b60405180910390a1505050505050565b600080611229611776565b90506000600160008373ffffffffffffffffffffffffffffffffffffffff1673ffffffffffffffffffffffffffffffffffffffff16815260200190815260200160002060008673ffffffffffffffffffffffffffffffffffffffff1673ffffffffffffffffffffffffffffffffffffffff168152602001908152602001600020549050838110156112ef576040517f08c379a00000000000000000000000000000000000000000000000000000000081526004016112e690613a7a565b60405180910390fd5b6112fc828686840361177e565b60019250505092915050565b600033905060003073ffffffffffffffffffffffffffffffffffffffff166370a08231836040518263ffffffff1660e01b81526004016113489190613719565b60206040518083038186803b15801561136057600080fd5b505afa158015611374573d6000803e3d6000fd5b505050506040513d601f19601f820116820180604052508101906113989190612ad0565b9050828110156113dd576040517f08c379a00000000000000000000000000000000000000000000000000000000081526004016113d49061391a565b60405180910390fd5b60006113e883611c56565b90506000811415611402576113fd8385611ea9565b61140d565b61140c8185612175565b5b6114178385612294565b50505050565b600080611428611776565b90506114358185856119d5565b600191505092915050565b6000339050600061144f61246b565b9050806080015173ffffffffffffffffffffffffffffffffffffffff168273ffffffffffffffffffffffffffffffffffffffff16146114c3576040517f08c379a00000000000000000000000000000000000000000000000000000000081526004016114ba9061399a565b60405180910390fd5b6114fc7f000000000000000000000000000000000000000000000000000000000000000082602001516114f69190613c66565b83612558565b5050565b60606007805480602002602001604051908101604052809291908181526020016000905b828210156115f957838290600052602060002090600702016040518060e00160405290816000820160009054906101000a900473ffffffffffffffffffffffffffffffffffffffff1673ffffffffffffffffffffffffffffffffffffffff1673ffffffffffffffffffffffffffffffffffffffff168152602001600182015481526020016002820154815260200160038201548152602001600482015481526020016005820160009054906101000a900460ff1615151515815260200160068201548152505081526020019060010190611524565b50505050905090565b61160a612791565b600d60405180610140016040529081600082015481526020016001820154815260200160028201548152602001600382015481526020016004820160009054906101000a900473ffffffffffffffffffffffffffffffffffffffff1673ffffffffffffffffffffffffffffffffffffffff1673ffffffffffffffffffffffffffffffffffffffff168152602001600582015481526020016006820160009054906101000a900460ff1615151515815260200160078201548152602001600882015481526020016009820160009054906101000a900460ff161515151581525050905090565b6000600160008473ffffffffffffffffffffffffffffffffffffffff1673ffffffffffffffffffffffffffffffffffffffff16815260200190815260200160002060008373ffffffffffffffffffffffffffffffffffffffff1673ffffffffffffffffffffffffffffffffffffffff16815260200190815260200160002054905092915050565b600033905090565b600073ffffffffffffffffffffffffffffffffffffffff168373ffffffffffffffffffffffffffffffffffffffff1614156117ee576040517f08c379a00000000000000000000000000000000000000000000000000000000081526004016117e590613a3a565b60405180910390fd5b600073ffffffffffffffffffffffffffffffffffffffff168273ffffffffffffffffffffffffffffffffffffffff16141561185e576040517f08c379a00000000000000000000000000000000000000000000000000000000081526004016118559061385a565b60405180910390fd5b80600160008573ffffffffffffffffffffffffffffffffffffffff1673ffffffffffffffffffffffffffffffffffffffff16815260200190815260200160002060008473ffffffffffffffffffffffffffffffffffffffff1673ffffffffffffffffffffffffffffffffffffffff168152602001908152602001600020819055508173ffffffffffffffffffffffffffffffffffffffff168373ffffffffffffffffffffffffffffffffffffffff167f8c5be1e5ebec7d5bd14f71427d1e84f3dd0314c0f7b2291e5b200ac8c7c3b9258360405161193c9190613af2565b60405180910390a3505050565b600061195584846116ef565b90507fffffffffffffffffffffffffffffffffffffffffffffffffffffffffffffffff81146119cf57818110156119c1576040517f08c379a00000000000000000000000000000000000000000000000000000000081526004016119b89061389a565b60405180910390fd5b6119ce848484840361177e565b5b50505050565b600073ffffffffffffffffffffffffffffffffffffffff168373ffffffffffffffffffffffffffffffffffffffff161415611a45576040517f08c379a0000000000000000000000000000000000000000000000000000000008152600401611a3c90613a1a565b60405180910390fd5b600073ffffffffffffffffffffffffffffffffffffffff168273ffffffffffffffffffffffffffffffffffffffff161415611ab5576040517f08c379a0000000000000000000000000000000000000000000000000000000008152600401611aac906137fa565b60405180910390fd5b611ac08383836126c0565b60008060008573ffffffffffffffffffffffffffffffffffffffff1673ffffffffffffffffffffffffffffffffffffffff16815260200190815260200160002054905081811015611b46576040517f08c379a0000000000000000000000000000000000000000000000000000000008152600401611b3d906138da565b60405180910390fd5b8181036000808673ffffffffffffffffffffffffffffffffffffffff1673ffffffffffffffffffffffffffffffffffffffff16815260200190815260200160002081905550816000808573ffffffffffffffffffffffffffffffffffffffff1673ffffffffffffffffffffffffffffffffffffffff1681526020019081526020016000206000828254611bd99190613c66565b925050819055508273ffffffffffffffffffffffffffffffffffffffff168473ffffffffffffffffffffffffffffffffffffffff167fddf252ad1be2c89b69c2b068fc378daa952ba7f163c4a11628f55a4df523b3ef84604051611c3d9190613af2565b60405180910390a3611c508484846126c5565b50505050565b600081600073ffffffffffffffffffffffffffffffffffffffff168173ffffffffffffffffffffffffffffffffffffffff161415611c9357600080fd5b6000600960008573ffffffffffffffffffffffffffffffffffffffff1673ffffffffffffffffffffffffffffffffffffffff1681526020019081526020016000205490506000811415611cea576000925050611d43565b6001600780549050611cfc9190613ced565b811115611d3e576040517f08c379a0000000000000000000000000000000000000000000000000000000008152600401611d35906139da565b60405180910390fd5b809250505b50919050565b600073ffffffffffffffffffffffffffffffffffffffff168273ffffffffffffffffffffffffffffffffffffffff161415611db9576040517f08c379a0000000000000000000000000000000000000000000000000000000008152600401611db090613a9a565b60405180910390fd5b611dc5600083836126c0565b8060026000828254611dd79190613c66565b92505081905550806000808473ffffffffffffffffffffffffffffffffffffffff1673ffffffffffffffffffffffffffffffffffffffff1681526020019081526020016000206000828254611e2c9190613c66565b925050819055508173ffffffffffffffffffffffffffffffffffffffff16600073ffffffffffffffffffffffffffffffffffffffff167fddf252ad1be2c89b69c2b068fc378daa952ba7f163c4a11628f55a4df523b3ef83604051611e919190613af2565b60405180910390a3611ea5600083836126c5565b5050565b60007f0000000000000000000000000000000000000000000000000000000000000000821015905060006007805490509050600081141561200b578080611eef90613eb8565b91505060076040518060e00160405280600073ffffffffffffffffffffffffffffffffffffffff168152602001600081526020016000815260200160008152602001600081526020016000151581526020016000815250908060018154018082558091505060019003906000526020600020906007020160009091909190915060008201518160000160006101000a81548173ffffffffffffffffffffffffffffffffffffffff021916908373ffffffffffffffffffffffffffffffffffffffff1602179055506020820151816001015560408201518160020155606082015181600301556080820151816004015560a08201518160050160006101000a81548160ff02191690831515021790555060c0820151816006015550505b60076040518060e001604052808673ffffffffffffffffffffffffffffffffffffffff168152602001858152602001858152602001600081526020016000815260200184151581526020016000815250908060018154018082558091505060019003906000526020600020906007020160009091909190915060008201518160000160006101000a81548173ffffffffffffffffffffffffffffffffffffffff021916908373ffffffffffffffffffffffffffffffffffffffff1602179055506020820151816001015560408201518160020155606082015181600301556080820151816004015560a08201518160050160006101000a81548160ff02191690831515021790555060c08201518160060155505080600960008673ffffffffffffffffffffffffffffffffffffffff1673ffffffffffffffffffffffffffffffffffffffff1681526020019081526020016000208190555061216e8285836126ca565b5050505050565b6000600783815481106121b1577f4e487b7100000000000000000000000000000000000000000000000000000000600052603260045260246000fd5b90600052602060002090600702019050818160010160008282546121d59190613c66565b92505081905550818160020160008282546121f09190613c66565b925050819055508060050160009054906101000a900460ff1661228f5760007f0000000000000000000000000000000000000000000000000000000000000000826001015410159050801561228d5760018260050160006101000a81548160ff02191690831515021790555061228b818360000160009054906101000a900473ffffffffffffffffffffffffffffffffffffffff16866126ca565b505b505b505050565b600073ffffffffffffffffffffffffffffffffffffffff168273ffffffffffffffffffffffffffffffffffffffff161415612304576040517f08c379a00000000000000000000000000000000000000000000000000000000081526004016122fb906139fa565b60405180910390fd5b612310826000836126c0565b60008060008473ffffffffffffffffffffffffffffffffffffffff1673ffffffffffffffffffffffffffffffffffffffff16815260200190815260200160002054905081811015612396576040517f08c379a000000000000000000000000000000000000000000000000000000000815260040161238d9061381a565b60405180910390fd5b8181036000808573ffffffffffffffffffffffffffffffffffffffff1673ffffffffffffffffffffffffffffffffffffffff1681526020019081526020016000208190555081600260008282546123ed9190613ced565b92505081905550600073ffffffffffffffffffffffffffffffffffffffff168373ffffffffffffffffffffffffffffffffffffffff167fddf252ad1be2c89b69c2b068fc378daa952ba7f163c4a11628f55a4df523b3ef846040516124529190613af2565b60405180910390a3612466836000846126c5565b505050565b612473612791565b600d60405180610140016040529081600082015481526020016001820154815260200160028201548152602001600382015481526020016004820160009054906101000a900473ffffffffffffffffffffffffffffffffffffffff1673ffffffffffffffffffffffffffffffffffffffff1673ffffffffffffffffffffffffffffffffffffffff168152602001600582015481526020016006820160009054906101000a900460ff1615151515815260200160078201548152602001600882015481526020016009820160009054906101000a900460ff161515151581525050905090565b60006002836125679190613cbc565b90506000600960008473ffffffffffffffffffffffffffffffffffffffff1673ffffffffffffffffffffffffffffffffffffffff1681526020019081526020016000205490506000600782815481106125e9577f4e487b7100000000000000000000000000000000000000000000000000000000600052603260045260246000fd5b90600052602060002090600702019050600073ffffffffffffffffffffffffffffffffffffffff168160000160009054906101000a900473ffffffffffffffffffffffffffffffffffffffff1673ffffffffffffffffffffffffffffffffffffffff16141561268d576040517f08c379a00000000000000000000000000000000000000000000000000000000081526004016126849061383a565b60405180910390fd5b828160060160008282546126a19190613c66565b92505081905550600083866126b69190613ced565b9050505050505050565b505050565b505050565b6000836126da576000905061278a565b6000600860008573ffffffffffffffffffffffffffffffffffffffff1673ffffffffffffffffffffffffffffffffffffffff16815260200190815260200160002054905060008114156127845782600860008673ffffffffffffffffffffffffffffffffffffffff1673ffffffffffffffffffffffffffffffffffffffff168152602001908152602001600020819055506005600081548092919061277e90613eb8565b91905055505b60019150505b9392505050565b60405180610140016040528060008019168152602001600081526020016000815260200160008152602001600073ffffffffffffffffffffffffffffffffffffffff1681526020016000815260200160001515815260200160008152602001600081526020016000151581525090565b600061281461280f84613bac565b613b7b565b9050808382526020820190508285602086028201111561283357600080fd5b60005b858110156128635781612849888261286d565b845260208401935060208301925050600181019050612836565b5050509392505050565b60008135905061287c81613fdb565b92915050565b600082601f83011261289357600080fd5b81356128a3848260208601612801565b91505092915050565b6000813590506128bb81613ff2565b92915050565b6000813590506128d081614009565b92915050565b6000813590506128e581614020565b92915050565b6000815190506128fa81614020565b92915050565b60006020828403121561291257600080fd5b60006129208482850161286d565b91505092915050565b6000806040838503121561293c57600080fd5b600061294a8582860161286d565b925050602061295b8582860161286d565b9150509250929050565b60008060006060848603121561297a57600080fd5b60006129888682870161286d565b93505060206129998682870161286d565b92505060406129aa868287016128d6565b9150509250925092565b600080604083850312156129c757600080fd5b60006129d58582860161286d565b92505060206129e6858286016128d6565b9150509250929050565b60008060008060808587031215612a0657600080fd5b6000612a14878288016128c1565b9450506020612a258782880161286d565b935050604085013567ffffffffffffffff811115612a4257600080fd5b612a4e87828801612882565b9250506060612a5f878288016128d6565b91505092959194509250565b60008060408385031215612a7e57600080fd5b6000612a8c858286016128c1565b9250506020612a9d858286016128ac565b9150509250929050565b600060208284031215612ab957600080fd5b6000612ac7848285016128d6565b91505092915050565b600060208284031215612ae257600080fd5b6000612af0848285016128eb565b91505092915050565b6000612b058383612b29565b60208301905092915050565b6000612b1d838361365e565b60e08301905092915050565b612b3281613d62565b82525050565b612b4181613d62565b82525050565b6000612b5282613bf8565b612b5c8185613c33565b9350612b6783613bd8565b8060005b83811015612b98578151612b7f8882612af9565b9750612b8a83613c19565b925050600181019050612b6b565b5085935050505092915050565b6000612bb082613c03565b612bba8185613c44565b9350612bc583613be8565b8060005b83811015612bf6578151612bdd8882612b11565b9750612be883613c26565b925050600181019050612bc9565b5085935050505092915050565b612c0c81613d74565b82525050565b612c1b81613d74565b82525050565b612c2a81613d80565b82525050565b612c3981613d80565b82525050565b6000612c4a82613c0e565b612c548185613c55565b9350612c64818560208601613dc1565b612c6d81613fbd565b840191505092915050565b6000612c85602383613c55565b91507f45524332303a207472616e7366657220746f20746865207a65726f206164647260008301527f65737300000000000000000000000000000000000000000000000000000000006020830152604082019050919050565b6000612ceb602283613c55565b91507f45524332303a206275726e20616d6f756e7420657863656564732062616c616e60008301527f63650000000000000000000000000000000000000000000000000000000000006020830152604082019050919050565b6000612d51601f83613c55565b91507f43686169726d616e206164647265737320646f6573206e6f74206578697374006000830152602082019050919050565b6000612d91602283613c55565b91507f45524332303a20617070726f766520746f20746865207a65726f20616464726560008301527f73730000000000000000000000000000000000000000000000000000000000006020830152604082019050919050565b6000612df7602183613c55565b91507f45726120776974682070617373656420496420646f6573206e6f74206578697360008301527f74000000000000000000000000000000000000000000000000000000000000006020830152604082019050919050565b6000612e5d601d83613c55565b91507f45524332303a20696e73756666696369656e7420616c6c6f77616e63650000006000830152602082019050919050565b6000612e9d602283613c55565b91507f496e73756666696369656e742062616c616e636520666f7220756e7374616b6960008301527f6e670000000000000000000000000000000000000000000000000000000000006020830152604082019050919050565b6000612f03602683613c55565b91507f45524332303a207472616e7366657220616d6f756e742065786365656473206260008301527f616c616e636500000000000000000000000000000000000000000000000000006020830152604082019050919050565b6000612f69601783613c55565b91507f56616c696461746f7220616c726561647920766f7465640000000000000000006000830152602082019050919050565b6000612fa9602083613c55565b91507f496e73756666696369656e742062616c616e636520666f72207374616b696e676000830152602082019050919050565b6000612fe9602583613c55565b91507f4572612077697468207468652073616d6520494420616c72656164792070726f60008301527f706f7365640000000000000000000000000000000000000000000000000000006020830152604082019050919050565b600061304f602f83613c55565b91507f43616c6c6572206e6f742070726576696f7573206572612063686169726d616e60008301527f2e204163636573732064656e69656400000000000000000000000000000000006020830152604082019050919050565b60006130b5602583613c55565b91507f41646472657373206e6f74206c696e6b656420746f20616e79207374616b656860008301527f6f6c6465720000000000000000000000000000000000000000000000000000006020830152604082019050919050565b600061311b602183613c55565b91507f4f6e6c792063686169726d616e2063616e20656e642063757272656e7420657260008301527f61000000000000000000000000000000000000000000000000000000000000006020830152604082019050919050565b6000613181602383613c55565b91507f566f74696e6720666f7262696464656e20666f72206e6f6e2d76616c6964617460008301527f6f727300000000000000000000000000000000000000000000000000000000006020830152604082019050919050565b60006131e7602983613c55565b91507f496e76616c696420696e64657820666f72207374616b65686f6c64657273206360008301527f6f6c6c656374696f6e00000000000000000000000000000000000000000000006020830152604082019050919050565b600061324d602183613c55565b91507f45524332303a206275726e2066726f6d20746865207a65726f2061646472657360008301527f73000000000000000000000000000000000000000000000000000000000000006020830152604082019050919050565b60006132b3602583613c55565b91507f45524332303a207472616e736665722066726f6d20746865207a65726f20616460008301527f64726573730000000000000000000000000000000000000000000000000000006020830152604082019050919050565b6000613319602483613c55565b91507f45524332303a20617070726f76652066726f6d20746865207a65726f2061646460008301527f72657373000000000000000000000000000000000000000000000000000000006020830152604082019050919050565b600061337f601f83613c55565b91507f566f746520616c726561647920656e64656420666f72207468617420657261006000830152602082019050919050565b60006133bf602583613c55565b91507f45524332303a2064656372656173656420616c6c6f77616e63652062656c6f7760008301527f207a65726f0000000000000000000000000000000000000000000000000000006020830152604082019050919050565b6000613425601f83613c55565b91507f45524332303a206d696e7420746f20746865207a65726f2061646472657373006000830152602082019050919050565b6101408201600082015161346f6000850182612c21565b50602082015161348260208501826136ec565b50604082015161349560408501826136ec565b5060608201516134a860608501826136ec565b5060808201516134bb6080850182612b29565b5060a08201516134ce60a08501826136ec565b5060c08201516134e160c0850182612c03565b5060e08201516134f460e08501826136ec565b506101008201516135096101008501826136ec565b5061012082015161351e610120850182612c03565b50505050565b6101408201600080830154905061353a81613e84565b6135476000860182612c21565b506001830154905061355881613e9e565b61356560208601826136ec565b506002830154905061357681613e9e565b61358360408601826136ec565b506003830154905061359481613e9e565b6135a160608601826136ec565b50600483015490506135b281613e50565b6135bf6080860182612b29565b50600583015490506135d081613e9e565b6135dd60a08601826136ec565b50600683015490506135ee81613e6a565b6135fb60c0860182612c03565b506007830154905061360c81613e9e565b61361960e08601826136ec565b506008830154905061362a81613e9e565b6136386101008601826136ec565b506009830154905061364981613e6a565b613657610120860182612c03565b5050505050565b60e0820160008201516136746000850182612b29565b50602082015161368760208501826136ec565b50604082015161369a60408501826136ec565b5060608201516136ad60608501826136ec565b5060808201516136c060808501826136ec565b5060a08201516136d360a0850182612c03565b5060c08201516136e660c08501826136ec565b50505050565b6136f581613daa565b82525050565b61370481613daa565b82525050565b61371381613db4565b82525050565b600060208201905061372e6000830184612b38565b92915050565b6000602082019050818103600083015261374e8184612ba5565b905092915050565b600060208201905061376b6000830184612c12565b92915050565b60006020820190506137866000830184612c30565b92915050565b60006080820190506137a16000830187612c30565b6137ae6020830186612b38565b81810360408301526137c08185612b47565b90506137cf60608301846136fb565b95945050505050565b600060208201905081810360008301526137f28184612c3f565b905092915050565b6000602082019050818103600083015261381381612c78565b9050919050565b6000602082019050818103600083015261383381612cde565b9050919050565b6000602082019050818103600083015261385381612d44565b9050919050565b6000602082019050818103600083015261387381612d84565b9050919050565b6000602082019050818103600083015261389381612dea565b9050919050565b600060208201905081810360008301526138b381612e50565b9050919050565b600060208201905081810360008301526138d381612e90565b9050919050565b600060208201905081810360008301526138f381612ef6565b9050919050565b6000602082019050818103600083015261391381612f5c565b9050919050565b6000602082019050818103600083015261393381612f9c565b9050919050565b6000602082019050818103600083015261395381612fdc565b9050919050565b6000602082019050818103600083015261397381613042565b9050919050565b60006020820190508181036000830152613993816130a8565b9050919050565b600060208201905081810360008301526139b38161310e565b9050919050565b600060208201905081810360008301526139d381613174565b9050919050565b600060208201905081810360008301526139f3816131da565b9050919050565b60006020820190508181036000830152613a1381613240565b9050919050565b60006020820190508181036000830152613a33816132a6565b9050919050565b60006020820190508181036000830152613a538161330c565b9050919050565b60006020820190508181036000830152613a7381613372565b9050919050565b60006020820190508181036000830152613a93816133b2565b9050919050565b60006020820190508181036000830152613ab381613418565b9050919050565b600061014082019050613ad06000830184613458565b92915050565b600061014082019050613aec6000830184613524565b92915050565b6000602082019050613b0760008301846136fb565b92915050565b600060a082019050613b2260008301886136fb565b613b2f60208301876136fb565b613b3c60408301866136fb565b613b4960608301856136fb565b613b566080830184612c12565b9695505050505050565b6000602082019050613b75600083018461370a565b92915050565b6000604051905081810181811067ffffffffffffffff82111715613ba257613ba1613f8e565b5b8060405250919050565b600067ffffffffffffffff821115613bc757613bc6613f8e565b5b602082029050602081019050919050565b6000819050602082019050919050565b6000819050602082019050919050565b600081519050919050565b600081519050919050565b600081519050919050565b6000602082019050919050565b6000602082019050919050565b600082825260208201905092915050565b600082825260208201905092915050565b600082825260208201905092915050565b6000613c7182613daa565b9150613c7c83613daa565b9250827fffffffffffffffffffffffffffffffffffffffffffffffffffffffffffffffff03821115613cb157613cb0613f01565b5b828201905092915050565b6000613cc782613daa565b9150613cd283613daa565b925082613ce257613ce1613f30565b5b828204905092915050565b6000613cf882613daa565b9150613d0383613daa565b925082821015613d1657613d15613f01565b5b828203905092915050565b600073ffffffffffffffffffffffffffffffffffffffff82169050919050565b600060ff82169050919050565b6000819050919050565b6000819050919050565b6000613d6d82613d8a565b9050919050565b60008115159050919050565b6000819050919050565b600073ffffffffffffffffffffffffffffffffffffffff82169050919050565b6000819050919050565b600060ff82169050919050565b60005b83811015613ddf578082015181840152602081019050613dc4565b83811115613dee576000848401525b50505050565b6000613dff82613daa565b91506000821415613e1357613e12613f01565b5b600182039050919050565b60006002820490506001821680613e3657607f821691505b60208210811415613e4a57613e49613f5f565b5b50919050565b6000613e63613e5e83613fce565b613d21565b9050919050565b6000613e7d613e7883613fce565b613d41565b9050919050565b6000613e97613e9283613fce565b613d4e565b9050919050565b6000613eb1613eac83613fce565b613d58565b9050919050565b6000613ec382613daa565b91507fffffffffffffffffffffffffffffffffffffffffffffffffffffffffffffffff821415613ef657613ef5613f01565b5b600182019050919050565b7f4e487b7100000000000000000000000000000000000000000000000000000000600052601160045260246000fd5b7f4e487b7100000000000000000000000000000000000000000000000000000000600052601260045260246000fd5b7f4e487b7100000000000000000000000000000000000000000000000000000000600052602260045260246000fd5b7f4e487b7100000000000000000000000000000000000000000000000000000000600052604160045260246000fd5b6000601f19601f8301169050919050565b60008160001c9050919050565b613fe481613d62565b8114613fef57600080fd5b50565b613ffb81613d74565b811461400657600080fd5b50565b61401281613d80565b811461401d57600080fd5b50565b61402981613daa565b811461403457600080fd5b5056fea26469706673582212209675b5f5146016bf1d3c5035c06d59a6c377a8379fa2af8b564971298c2096b764736f6c63430008000033",
  "immutableReferences": {
    "1846": [
      {
        "length": 32,
        "start": 5320
      }
    ],
    "2293": [
      {
        "length": 32,
        "start": 1927
      },
      {
        "length": 32,
        "start": 7853
      },
      {
        "length": 32,
        "start": 8721
      }
    ]
  },
  "source": "pragma solidity ^0.8.0;\r\n\r\nimport \"./ERC20Stakable.sol\";\r\nimport \"../utils/NominatingStakeholders.sol\";\r\nimport \"../utils/Eras.sol\";\r\nimport \"../Interfaces/IProofOfStake.sol\";\r\nimport \"../Interfaces/IErasMonitor.sol\";\r\nimport \"../utils/ErasVotes.sol\";\r\n\r\ncontract ERC20ProofOfStake is IErasMonitor, IProofOfStake, ERC20Stakable {\r\n    uint256 constant MAX_COUICIL_MEMBERS_COUNT = 10;\r\n\r\n    uint256 immutable _rewardForValidatorsAfterEachEra;\r\n    mapping(bytes32 => Eras.Era) internal _eras;\r\n    mapping(bytes32 => mapping(address => ErasVotes.ErasVote))\r\n        internal _eraValidatorVotes;\r\n    mapping(bytes32 => address[]) internal _erasCouncil;\r\n    Eras.Era internal _currentEra;\r\n\r\n    constructor(\r\n        string memory name_,\r\n        string memory symbol_,\r\n        uint256 minStakedAmountForValidation_,\r\n        uint256 rewardForValidatorsAfterEachEra_\r\n    ) ERC20Stakable(name_, symbol_, minStakedAmountForValidation_) {\r\n        _rewardForValidatorsAfterEachEra = rewardForValidatorsAfterEachEra_;\r\n    }\r\n\r\n    event NewEraElecationProposal(\r\n        bytes32 eraId,\r\n        address chairman,\r\n        address[] council,\r\n        uint256 validatorsCount\r\n    );\r\n\r\n    event NewEraElectionComplited(Eras.Era era);\r\n\r\n    modifier onlyValidatorAction() {\r\n        uint256 validatorNodeIndex = _validatorsStakeholderIndexes[msg.sender];\r\n        require(validatorNodeIndex != 0, \"Voting forbidden for non-validators\");\r\n        _;\r\n    }\r\n\r\n    //** for INTERFACE !!! */\r\n    function getValidatorsCount() external view override returns (uint256) {\r\n        return _validatorsCount;\r\n    }\r\n\r\n    function getStakeholders()\r\n        external\r\n        view\r\n        override\r\n        returns (Stakeholders.Stakeholder[] memory stakeholders)\r\n    {\r\n        return _stakeholders;\r\n    }\r\n\r\n    function getCurrentEra()\r\n        external\r\n        view\r\n        override\r\n        returns (Eras.Era memory currentEra)\r\n    {\r\n        return _currentEra;\r\n    }\r\n\r\n    function getErasCount() external view override returns (uint256) {\r\n        return _erasCount;\r\n    }\r\n\r\n    function endCurrentEra() external {\r\n        address caller = msg.sender;\r\n        Eras.Era memory lastEra = _getCurrentEraInternal();\r\n        //TODO: validation for time elapsed\r\n        require(\r\n            caller == lastEra.chairman,\r\n            \"Only chairman can end current era\"\r\n        );\r\n        _payReward(\r\n            lastEra.colectedFeesAmount + _rewardForValidatorsAfterEachEra,\r\n            caller\r\n        );\r\n    }\r\n\r\n    function proposeNewEra(\r\n        bytes32 eraId_,\r\n        address chairman_,\r\n        address[] memory coucil_,\r\n        uint256 utcTimeStamp_\r\n    ) external {\r\n        address caller = msg.sender;\r\n        if (_currentEra.chairman != address(0)) {\r\n            //this is not the first era. Only previous chairman can propose new election\r\n            require(\r\n                caller == _currentEra.chairman,\r\n                \"Caller not previous era chairman. Access denied\"\r\n            );\r\n        }\r\n        //check if era with the same eraId already exist!\r\n        Eras.Era storage eraWithGivenId = _eras[eraId_];\r\n        require(\r\n            //eraId is unique. If era with that Id is found, then the proposal is not valid\r\n            eraWithGivenId.chairman == address(0),\r\n            \"Era with the same ID already proposed\"\r\n        );\r\n\r\n        _eras[eraId_] = Eras.Era({\r\n            id: eraId_,\r\n            colectedFeesAmount: 0,\r\n            startDate: utcTimeStamp_,\r\n            endDate: 0,\r\n            chairman: chairman_,\r\n            requiredQuorum: 0, //51% of all validators\r\n            isQuorumReached: false,\r\n            possitiveVotes: 0,\r\n            negativeVotes: 0,\r\n            accepted: false\r\n        });\r\n\r\n        emit NewEraElecationProposal(\r\n            eraId_,\r\n            chairman_,\r\n            coucil_,\r\n            _validatorsCount\r\n        );\r\n    }\r\n\r\n    function voteForProposedEra(bytes32 eraId, bool approves)\r\n        external\r\n        onlyValidatorAction\r\n    {\r\n        Eras.Era storage era = _eras[eraId];\r\n\r\n        require(\r\n            era.chairman != address(0),\r\n            \"Era with passed Id does not exist\"\r\n        );\r\n\r\n        require(\r\n            era.isQuorumReached == false,\r\n            \"Vote already ended for that era\"\r\n        );\r\n\r\n        address caller = msg.sender;\r\n\r\n        ErasVotes.ErasVote storage eraVote = _eraValidatorVotes[eraId][caller];\r\n\r\n        require(eraVote.voter == address(0), \"Validator already voted\");\r\n\r\n        //register vote\r\n        _eraValidatorVotes[eraId][caller] = ErasVotes.ErasVote({\r\n            voter: caller,\r\n            approve: approves\r\n        });\r\n\r\n        //check required quorum is reached\r\n        if (approves) {\r\n            era.possitiveVotes++;\r\n            if (era.possitiveVotes >= era.requiredQuorum) {\r\n                //era election is approved!\r\n                era.isQuorumReached = true;\r\n                era.accepted = true;\r\n            }\r\n        } else {\r\n            era.negativeVotes++;\r\n            if (era.negativeVotes >= era.requiredQuorum) {\r\n                //era election is denied!\r\n                era.isQuorumReached = true;\r\n                era.accepted = false;\r\n            }\r\n        }\r\n\r\n        if (era.isQuorumReached) {\r\n            emit NewEraElectionComplited(era);\r\n        }\r\n    }\r\n\r\n    function startNewEra() external returns (bytes32) {}\r\n\r\n    function _getCurrentEraInternal()\r\n        internal\r\n        view\r\n        returns (Eras.Era memory era)\r\n    {\r\n        return _currentEra;\r\n    }\r\n\r\n    function _payReward(uint256 tokenAmountForDistribution_, address chainman_)\r\n        internal\r\n        virtual\r\n    {\r\n        //simple scheme withoud nominators\r\n        //this reward scheme can be ovveriden for much complex one\r\n        //for simple reward distribution\r\n        //chainrman gets 50% of all fees\r\n        uint256 chairmainsReward = tokenAmountForDistribution_ / 2;\r\n        uint256 stakeholderIndex = _stakeholdersIndexes[chainman_];\r\n        Stakeholders.Stakeholder storage chairman = _stakeholders[\r\n            stakeholderIndex\r\n        ];\r\n\r\n        require(chairman.user != address(0), \"Chairman address does not exist\");\r\n\r\n        chairman.notCollectedTokenRewards += chairmainsReward;\r\n\r\n        uint256 remainingAmountForDistribution = tokenAmountForDistribution_ -\r\n            chairmainsReward;\r\n\r\n        //TODO: calculate remaining rewards for the rest of the voting council for this era\r\n    }\r\n}\r\n",
  "sourcePath": "D:\\Documents\\Dev\\Repositories\\gold-price-oracle\\gold-price-oracle\\on-chain\\contracts\\token\\base\\ERC20ProofOfStake.sol",
  "compiler": {
    "name": "solc",
    "version": "0.8.0+commit.c7dfd78e.Emscripten.clang"
  },
  "schemaVersion": "3.4.3",
  "updatedAt": "2022-03-09T10:43:36.365Z",
  "devdoc": {
    "kind": "dev",
    "methods": {
      "allowance(address,address)": {
        "details": "See {IERC20-allowance}."
      },
      "approve(address,uint256)": {
        "details": "See {IERC20-approve}. NOTE: If `amount` is the maximum `uint256`, the allowance is not updated on `transferFrom`. This is semantically equivalent to an infinite approval. Requirements: - `spender` cannot be the zero address."
      },
      "balanceOf(address)": {
        "details": "See {IERC20-balanceOf}."
      },
      "decimals()": {
        "details": "Returns the number of decimals used to get its user representation. For example, if `decimals` equals `2`, a balance of `505` tokens should be displayed to a user as `5.05` (`505 / 10 ** 2`). Tokens usually opt for a value of 18, imitating the relationship between Ether and Wei. This is the value {ERC20} uses, unless this function is overridden; NOTE: This information is only used for _display_ purposes: it in no way affects any of the arithmetic of the contract, including {IERC20-balanceOf} and {IERC20-transfer}."
      },
      "decreaseAllowance(address,uint256)": {
        "details": "Atomically decreases the allowance granted to `spender` by the caller. This is an alternative to {approve} that can be used as a mitigation for problems described in {IERC20-approve}. Emits an {Approval} event indicating the updated allowance. Requirements: - `spender` cannot be the zero address. - `spender` must have allowance for the caller of at least `subtractedValue`."
      },
      "increaseAllowance(address,uint256)": {
        "details": "Atomically increases the allowance granted to `spender` by the caller. This is an alternative to {approve} that can be used as a mitigation for problems described in {IERC20-approve}. Emits an {Approval} event indicating the updated allowance. Requirements: - `spender` cannot be the zero address."
      },
      "name()": {
        "details": "Returns the name of the token."
      },
      "symbol()": {
        "details": "Returns the symbol of the token, usually a shorter version of the name."
      },
      "totalSupply()": {
        "details": "See {IERC20-totalSupply}."
      },
      "transfer(address,uint256)": {
        "details": "See {IERC20-transfer}. Requirements: - `to` cannot be the zero address. - the caller must have a balance of at least `amount`."
      },
      "transferFrom(address,address,uint256)": {
        "details": "See {IERC20-transferFrom}. Emits an {Approval} event indicating the updated allowance. This is not required by the EIP. See the note at the beginning of {ERC20}. NOTE: Does not update the allowance if the current allowance is the maximum `uint256`. Requirements: - `from` and `to` cannot be the zero address. - `from` must have a balance of at least `amount`. - the caller must have allowance for ``from``'s tokens of at least `amount`."
      }
    },
    "version": 1
  },
  "userdoc": {
    "kind": "user",
    "methods": {},
    "version": 1
  }
}