{
  "contractName": "ERC20Stakable",
  "abi": [
    {
      "inputs": [
        {
          "internalType": "string",
          "name": "name_",
          "type": "string"
        },
        {
          "internalType": "string",
          "name": "symbol_",
          "type": "string"
        },
        {
          "internalType": "uint256",
          "name": "minStakedAmountForValidation_",
          "type": "uint256"
        }
      ],
      "stateMutability": "nonpayable",
      "type": "constructor"
    },
    {
      "anonymous": false,
      "inputs": [
        {
          "indexed": true,
          "internalType": "address",
          "name": "owner",
          "type": "address"
        },
        {
          "indexed": true,
          "internalType": "address",
          "name": "spender",
          "type": "address"
        },
        {
          "indexed": false,
          "internalType": "uint256",
          "name": "value",
          "type": "uint256"
        }
      ],
      "name": "Approval",
      "type": "event"
    },
    {
      "anonymous": false,
      "inputs": [
        {
          "indexed": true,
          "internalType": "address",
          "name": "from",
          "type": "address"
        },
        {
          "indexed": true,
          "internalType": "address",
          "name": "to",
          "type": "address"
        },
        {
          "indexed": false,
          "internalType": "uint256",
          "name": "value",
          "type": "uint256"
        }
      ],
      "name": "Transfer",
      "type": "event"
    },
    {
      "inputs": [
        {
          "internalType": "address",
          "name": "owner",
          "type": "address"
        },
        {
          "internalType": "address",
          "name": "spender",
          "type": "address"
        }
      ],
      "name": "allowance",
      "outputs": [
        {
          "internalType": "uint256",
          "name": "",
          "type": "uint256"
        }
      ],
      "stateMutability": "view",
      "type": "function"
    },
    {
      "inputs": [
        {
          "internalType": "address",
          "name": "spender",
          "type": "address"
        },
        {
          "internalType": "uint256",
          "name": "amount",
          "type": "uint256"
        }
      ],
      "name": "approve",
      "outputs": [
        {
          "internalType": "bool",
          "name": "",
          "type": "bool"
        }
      ],
      "stateMutability": "nonpayable",
      "type": "function"
    },
    {
      "inputs": [
        {
          "internalType": "address",
          "name": "account",
          "type": "address"
        }
      ],
      "name": "balanceOf",
      "outputs": [
        {
          "internalType": "uint256",
          "name": "",
          "type": "uint256"
        }
      ],
      "stateMutability": "view",
      "type": "function"
    },
    {
      "inputs": [],
      "name": "decimals",
      "outputs": [
        {
          "internalType": "uint8",
          "name": "",
          "type": "uint8"
        }
      ],
      "stateMutability": "view",
      "type": "function"
    },
    {
      "inputs": [
        {
          "internalType": "address",
          "name": "spender",
          "type": "address"
        },
        {
          "internalType": "uint256",
          "name": "subtractedValue",
          "type": "uint256"
        }
      ],
      "name": "decreaseAllowance",
      "outputs": [
        {
          "internalType": "bool",
          "name": "",
          "type": "bool"
        }
      ],
      "stateMutability": "nonpayable",
      "type": "function"
    },
    {
      "inputs": [
        {
          "internalType": "address",
          "name": "spender",
          "type": "address"
        },
        {
          "internalType": "uint256",
          "name": "addedValue",
          "type": "uint256"
        }
      ],
      "name": "increaseAllowance",
      "outputs": [
        {
          "internalType": "bool",
          "name": "",
          "type": "bool"
        }
      ],
      "stateMutability": "nonpayable",
      "type": "function"
    },
    {
      "inputs": [],
      "name": "name",
      "outputs": [
        {
          "internalType": "string",
          "name": "",
          "type": "string"
        }
      ],
      "stateMutability": "view",
      "type": "function"
    },
    {
      "inputs": [],
      "name": "symbol",
      "outputs": [
        {
          "internalType": "string",
          "name": "",
          "type": "string"
        }
      ],
      "stateMutability": "view",
      "type": "function"
    },
    {
      "inputs": [],
      "name": "totalSupply",
      "outputs": [
        {
          "internalType": "uint256",
          "name": "",
          "type": "uint256"
        }
      ],
      "stateMutability": "view",
      "type": "function"
    },
    {
      "inputs": [
        {
          "internalType": "address",
          "name": "to",
          "type": "address"
        },
        {
          "internalType": "uint256",
          "name": "amount",
          "type": "uint256"
        }
      ],
      "name": "transfer",
      "outputs": [
        {
          "internalType": "bool",
          "name": "",
          "type": "bool"
        }
      ],
      "stateMutability": "nonpayable",
      "type": "function"
    },
    {
      "inputs": [
        {
          "internalType": "address",
          "name": "from",
          "type": "address"
        },
        {
          "internalType": "address",
          "name": "to",
          "type": "address"
        },
        {
          "internalType": "uint256",
          "name": "amount",
          "type": "uint256"
        }
      ],
      "name": "transferFrom",
      "outputs": [
        {
          "internalType": "bool",
          "name": "",
          "type": "bool"
        }
      ],
      "stateMutability": "nonpayable",
      "type": "function"
    },
    {
      "inputs": [
        {
          "internalType": "address",
          "name": "address_",
          "type": "address"
        }
      ],
      "name": "getStakedAmount",
      "outputs": [
        {
          "internalType": "uint256",
          "name": "",
          "type": "uint256"
        }
      ],
      "stateMutability": "view",
      "type": "function"
    },
    {
      "inputs": [
        {
          "internalType": "address",
          "name": "address_",
          "type": "address"
        }
      ],
      "name": "getStakeholderInformation",
      "outputs": [
        {
          "internalType": "uint256",
          "name": "",
          "type": "uint256"
        },
        {
          "internalType": "uint256",
          "name": "",
          "type": "uint256"
        },
        {
          "internalType": "uint256",
          "name": "",
          "type": "uint256"
        },
        {
          "internalType": "uint256",
          "name": "",
          "type": "uint256"
        },
        {
          "internalType": "bool",
          "name": "",
          "type": "bool"
        }
      ],
      "stateMutability": "view",
      "type": "function"
    },
    {
      "inputs": [
        {
          "internalType": "uint256",
          "name": "amount_",
          "type": "uint256"
        }
      ],
      "name": "stake",
      "outputs": [],
      "stateMutability": "nonpayable",
      "type": "function"
    },
    {
      "inputs": [
        {
          "internalType": "uint256",
          "name": "amount_",
          "type": "uint256"
        }
      ],
      "name": "unstake",
      "outputs": [],
      "stateMutability": "nonpayable",
      "type": "function"
    }
  ],
  "bytecode": "0x60a06040523480156200001157600080fd5b50604051620029b1380380620029b18339818101604052810190620000379190620001bf565b828281600390805190602001906200005192919062000086565b5080600490805190602001906200006a92919062000086565b505050806080818152505060006005819055505050506200039c565b8280546200009490620002ee565b90600052602060002090601f016020900481019282620000b8576000855562000104565b82601f10620000d357805160ff191683800117855562000104565b8280016001018555821562000104579182015b8281111562000103578251825591602001919060010190620000e6565b5b50905062000113919062000117565b5090565b5b808211156200013257600081600090555060010162000118565b5090565b60006200014d62000147846200027b565b62000247565b9050828152602081018484840111156200016657600080fd5b62000173848285620002b8565b509392505050565b600082601f8301126200018d57600080fd5b81516200019f84826020860162000136565b91505092915050565b600081519050620001b98162000382565b92915050565b600080600060608486031215620001d557600080fd5b600084015167ffffffffffffffff811115620001f057600080fd5b620001fe868287016200017b565b935050602084015167ffffffffffffffff8111156200021c57600080fd5b6200022a868287016200017b565b92505060406200023d86828701620001a8565b9150509250925092565b6000604051905081810181811067ffffffffffffffff8211171562000271576200027062000353565b5b8060405250919050565b600067ffffffffffffffff82111562000299576200029862000353565b5b601f19601f8301169050602081019050919050565b6000819050919050565b60005b83811015620002d8578082015181840152602081019050620002bb565b83811115620002e8576000848401525b50505050565b600060028204905060018216806200030757607f821691505b602082108114156200031e576200031d62000324565b5b50919050565b7f4e487b7100000000000000000000000000000000000000000000000000000000600052602260045260246000fd5b7f4e487b7100000000000000000000000000000000000000000000000000000000600052604160045260246000fd5b6200038d81620002ae565b81146200039957600080fd5b50565b6080516125eb620003c660003960008181610648015281816112fd015261166101526125eb6000f3fe608060405234801561001057600080fd5b50600436106100f55760003560e01c80633950935111610097578063a457c2d711610066578063a457c2d7146102b2578063a694fc3a146102e2578063a9059cbb146102fe578063dd62ed3e1461032e576100f5565b806339509351146102045780634da6a5561461023457806370a082311461026457806395d89b4114610294576100f5565b806323b872dd116100d357806323b872dd146101665780632bf9262c146101965780632e17de78146101ca578063313ce567146101e6576100f5565b806306fdde03146100fa578063095ea7b31461011857806318160ddd14610148575b600080fd5b61010261035e565b60405161010f91906120da565b60405180910390f35b610132600480360381019061012d9190611a7f565b6103f0565b60405161013f91906120bf565b60405180910390f35b610150610413565b60405161015d91906122bc565b60405180910390f35b610180600480360381019061017b9190611a30565b61041d565b60405161018d91906120bf565b60405180910390f35b6101b060048036038101906101ab91906119cb565b61044c565b6040516101c19594939291906122d7565b60405180910390f35b6101e460048036038101906101df9190611abb565b61052a565b005b6101ee6106d7565b6040516101fb919061232a565b60405180910390f35b61021e60048036038101906102199190611a7f565b6106e0565b60405161022b91906120bf565b60405180910390f35b61024e600480360381019061024991906119cb565b61078a565b60405161025b91906122bc565b60405180910390f35b61027e600480360381019061027991906119cb565b610843565b60405161028b91906122bc565b60405180910390f35b61029c61088b565b6040516102a991906120da565b60405180910390f35b6102cc60048036038101906102c79190611a7f565b61091d565b6040516102d991906120bf565b60405180910390f35b6102fc60048036038101906102f79190611abb565b610a07565b005b61031860048036038101906103139190611a7f565b610b1c565b60405161032591906120bf565b60405180910390f35b610348600480360381019061034391906119f4565b610b3f565b60405161035591906122bc565b60405180910390f35b60606003805461036d9061249d565b80601f01602080910402602001604051908101604052809291908181526020018280546103999061249d565b80156103e65780601f106103bb576101008083540402835291602001916103e6565b820191906000526020600020905b8154815290600101906020018083116103c957829003601f168201915b5050505050905090565b6000806103fb610bc6565b9050610408818585610bce565b600191505092915050565b6000600254905090565b600080610428610bc6565b9050610435858285610d99565b610440858585610e25565b60019150509392505050565b60008060008060008061045e876110a6565b9050600081116104a3576040517f08c379a000000000000000000000000000000000000000000000000000000000815260040161049a906121dc565b60405180910390fd5b6000600782815481106104df577f4e487b7100000000000000000000000000000000000000000000000000000000600052603260045260246000fd5b9060005260206000209060070201905080600101548160020154826003015483600401548460050160009054906101000a900460ff1696509650965096509650505091939590929450565b60003390506000600960008373ffffffffffffffffffffffffffffffffffffffff1673ffffffffffffffffffffffffffffffffffffffff16815260200190815260200160002054905060008114156105835750506106d4565b6000600782815481106105bf577f4e487b7100000000000000000000000000000000000000000000000000000000600052603260045260246000fd5b906000526020600020906007020190508381600101541015610616576040517f08c379a000000000000000000000000000000000000000000000000000000000815260040161060d9061217c565b60405180910390fd5b60008482600101600082825461062c91906123b7565b92505081905590508082600101819055508082600201819055507f0000000000000000000000000000000000000000000000000000000000000000811061068f5760018260050160006101000a81548160ff0219169083151502179055506106c5565b60008260050160006101000a81548160ff021916908315150217905550600560008154809291906106bf90612473565b91905055505b6106cf8486611199565b505050505b50565b60006012905090565b6000806106eb610bc6565b905061077f818585600160008673ffffffffffffffffffffffffffffffffffffffff1673ffffffffffffffffffffffffffffffffffffffff16815260200190815260200160002060008973ffffffffffffffffffffffffffffffffffffffff1673ffffffffffffffffffffffffffffffffffffffff1681526020019081526020016000205461077a9190612361565b610bce565b600191505092915050565b600081600073ffffffffffffffffffffffffffffffffffffffff168173ffffffffffffffffffffffffffffffffffffffff1614156107c757600080fd5b60006107d2846110a6565b905060008114156107e757600092505061083d565b600060078281548110610823577f4e487b7100000000000000000000000000000000000000000000000000000000600052603260045260246000fd5b906000526020600020906007020190508060010154935050505b50919050565b60008060008373ffffffffffffffffffffffffffffffffffffffff1673ffffffffffffffffffffffffffffffffffffffff168152602001908152602001600020549050919050565b60606004805461089a9061249d565b80601f01602080910402602001604051908101604052809291908181526020018280546108c69061249d565b80156109135780601f106108e857610100808354040283529160200191610913565b820191906000526020600020905b8154815290600101906020018083116108f657829003601f168201915b5050505050905090565b600080610928610bc6565b90506000600160008373ffffffffffffffffffffffffffffffffffffffff1673ffffffffffffffffffffffffffffffffffffffff16815260200190815260200160002060008673ffffffffffffffffffffffffffffffffffffffff1673ffffffffffffffffffffffffffffffffffffffff168152602001908152602001600020549050838110156109ee576040517f08c379a00000000000000000000000000000000000000000000000000000000081526004016109e59061227c565b60405180910390fd5b6109fb8286868403610bce565b60019250505092915050565b600033905060003073ffffffffffffffffffffffffffffffffffffffff166370a08231836040518263ffffffff1660e01b8152600401610a4791906120a4565b60206040518083038186803b158015610a5f57600080fd5b505afa158015610a73573d6000803e3d6000fd5b505050506040513d601f19601f82011682018060405250810190610a979190611ae4565b905082811015610adc576040517f08c379a0000000000000000000000000000000000000000000000000000000008152600401610ad3906121bc565b60405180910390fd5b6000610ae7836110a6565b90506000811415610b0157610afc83856112f9565b610b0c565b610b0b81856115c5565b5b610b1683856116e4565b50505050565b600080610b27610bc6565b9050610b34818585610e25565b600191505092915050565b6000600160008473ffffffffffffffffffffffffffffffffffffffff1673ffffffffffffffffffffffffffffffffffffffff16815260200190815260200160002060008373ffffffffffffffffffffffffffffffffffffffff1673ffffffffffffffffffffffffffffffffffffffff16815260200190815260200160002054905092915050565b600033905090565b600073ffffffffffffffffffffffffffffffffffffffff168373ffffffffffffffffffffffffffffffffffffffff161415610c3e576040517f08c379a0000000000000000000000000000000000000000000000000000000008152600401610c359061225c565b60405180910390fd5b600073ffffffffffffffffffffffffffffffffffffffff168273ffffffffffffffffffffffffffffffffffffffff161415610cae576040517f08c379a0000000000000000000000000000000000000000000000000000000008152600401610ca59061213c565b60405180910390fd5b80600160008573ffffffffffffffffffffffffffffffffffffffff1673ffffffffffffffffffffffffffffffffffffffff16815260200190815260200160002060008473ffffffffffffffffffffffffffffffffffffffff1673ffffffffffffffffffffffffffffffffffffffff168152602001908152602001600020819055508173ffffffffffffffffffffffffffffffffffffffff168373ffffffffffffffffffffffffffffffffffffffff167f8c5be1e5ebec7d5bd14f71427d1e84f3dd0314c0f7b2291e5b200ac8c7c3b92583604051610d8c91906122bc565b60405180910390a3505050565b6000610da58484610b3f565b90507fffffffffffffffffffffffffffffffffffffffffffffffffffffffffffffffff8114610e1f5781811015610e11576040517f08c379a0000000000000000000000000000000000000000000000000000000008152600401610e089061215c565b60405180910390fd5b610e1e8484848403610bce565b5b50505050565b600073ffffffffffffffffffffffffffffffffffffffff168373ffffffffffffffffffffffffffffffffffffffff161415610e95576040517f08c379a0000000000000000000000000000000000000000000000000000000008152600401610e8c9061223c565b60405180910390fd5b600073ffffffffffffffffffffffffffffffffffffffff168273ffffffffffffffffffffffffffffffffffffffff161415610f05576040517f08c379a0000000000000000000000000000000000000000000000000000000008152600401610efc906120fc565b60405180910390fd5b610f108383836118bb565b60008060008573ffffffffffffffffffffffffffffffffffffffff1673ffffffffffffffffffffffffffffffffffffffff16815260200190815260200160002054905081811015610f96576040517f08c379a0000000000000000000000000000000000000000000000000000000008152600401610f8d9061219c565b60405180910390fd5b8181036000808673ffffffffffffffffffffffffffffffffffffffff1673ffffffffffffffffffffffffffffffffffffffff16815260200190815260200160002081905550816000808573ffffffffffffffffffffffffffffffffffffffff1673ffffffffffffffffffffffffffffffffffffffff16815260200190815260200160002060008282546110299190612361565b925050819055508273ffffffffffffffffffffffffffffffffffffffff168473ffffffffffffffffffffffffffffffffffffffff167fddf252ad1be2c89b69c2b068fc378daa952ba7f163c4a11628f55a4df523b3ef8460405161108d91906122bc565b60405180910390a36110a08484846118c0565b50505050565b600081600073ffffffffffffffffffffffffffffffffffffffff168173ffffffffffffffffffffffffffffffffffffffff1614156110e357600080fd5b6000600960008573ffffffffffffffffffffffffffffffffffffffff1673ffffffffffffffffffffffffffffffffffffffff168152602001908152602001600020549050600081141561113a576000925050611193565b600160078054905061114c91906123b7565b81111561118e576040517f08c379a0000000000000000000000000000000000000000000000000000000008152600401611185906121fc565b60405180910390fd5b809250505b50919050565b600073ffffffffffffffffffffffffffffffffffffffff168273ffffffffffffffffffffffffffffffffffffffff161415611209576040517f08c379a00000000000000000000000000000000000000000000000000000000081526004016112009061229c565b60405180910390fd5b611215600083836118bb565b80600260008282546112279190612361565b92505081905550806000808473ffffffffffffffffffffffffffffffffffffffff1673ffffffffffffffffffffffffffffffffffffffff168152602001908152602001600020600082825461127c9190612361565b925050819055508173ffffffffffffffffffffffffffffffffffffffff16600073ffffffffffffffffffffffffffffffffffffffff167fddf252ad1be2c89b69c2b068fc378daa952ba7f163c4a11628f55a4df523b3ef836040516112e191906122bc565b60405180910390a36112f5600083836118c0565b5050565b60007f0000000000000000000000000000000000000000000000000000000000000000821015905060006007805490509050600081141561145b57808061133f906124cf565b91505060076040518060e00160405280600073ffffffffffffffffffffffffffffffffffffffff168152602001600081526020016000815260200160008152602001600081526020016000151581526020016000815250908060018154018082558091505060019003906000526020600020906007020160009091909190915060008201518160000160006101000a81548173ffffffffffffffffffffffffffffffffffffffff021916908373ffffffffffffffffffffffffffffffffffffffff1602179055506020820151816001015560408201518160020155606082015181600301556080820151816004015560a08201518160050160006101000a81548160ff02191690831515021790555060c0820151816006015550505b60076040518060e001604052808673ffffffffffffffffffffffffffffffffffffffff168152602001858152602001858152602001600081526020016000815260200184151581526020016000815250908060018154018082558091505060019003906000526020600020906007020160009091909190915060008201518160000160006101000a81548173ffffffffffffffffffffffffffffffffffffffff021916908373ffffffffffffffffffffffffffffffffffffffff1602179055506020820151816001015560408201518160020155606082015181600301556080820151816004015560a08201518160050160006101000a81548160ff02191690831515021790555060c08201518160060155505080600960008673ffffffffffffffffffffffffffffffffffffffff1673ffffffffffffffffffffffffffffffffffffffff168152602001908152602001600020819055506115be8285836118c5565b5050505050565b600060078381548110611601577f4e487b7100000000000000000000000000000000000000000000000000000000600052603260045260246000fd5b90600052602060002090600702019050818160010160008282546116259190612361565b92505081905550818160020160008282546116409190612361565b925050819055508060050160009054906101000a900460ff166116df5760007f000000000000000000000000000000000000000000000000000000000000000082600101541015905080156116dd5760018260050160006101000a81548160ff0219169083151502179055506116db818360000160009054906101000a900473ffffffffffffffffffffffffffffffffffffffff16866118c5565b505b505b505050565b600073ffffffffffffffffffffffffffffffffffffffff168273ffffffffffffffffffffffffffffffffffffffff161415611754576040517f08c379a000000000000000000000000000000000000000000000000000000000815260040161174b9061221c565b60405180910390fd5b611760826000836118bb565b60008060008473ffffffffffffffffffffffffffffffffffffffff1673ffffffffffffffffffffffffffffffffffffffff168152602001908152602001600020549050818110156117e6576040517f08c379a00000000000000000000000000000000000000000000000000000000081526004016117dd9061211c565b60405180910390fd5b8181036000808573ffffffffffffffffffffffffffffffffffffffff1673ffffffffffffffffffffffffffffffffffffffff16815260200190815260200160002081905550816002600082825461183d91906123b7565b92505081905550600073ffffffffffffffffffffffffffffffffffffffff168373ffffffffffffffffffffffffffffffffffffffff167fddf252ad1be2c89b69c2b068fc378daa952ba7f163c4a11628f55a4df523b3ef846040516118a291906122bc565b60405180910390a36118b6836000846118c0565b505050565b505050565b505050565b6000836118d55760009050611985565b6000600860008573ffffffffffffffffffffffffffffffffffffffff1673ffffffffffffffffffffffffffffffffffffffff168152602001908152602001600020549050600081141561197f5782600860008673ffffffffffffffffffffffffffffffffffffffff1673ffffffffffffffffffffffffffffffffffffffff1681526020019081526020016000208190555060056000815480929190611979906124cf565b91905055505b60019150505b9392505050565b60008135905061199b81612587565b92915050565b6000813590506119b08161259e565b92915050565b6000815190506119c58161259e565b92915050565b6000602082840312156119dd57600080fd5b60006119eb8482850161198c565b91505092915050565b60008060408385031215611a0757600080fd5b6000611a158582860161198c565b9250506020611a268582860161198c565b9150509250929050565b600080600060608486031215611a4557600080fd5b6000611a538682870161198c565b9350506020611a648682870161198c565b9250506040611a75868287016119a1565b9150509250925092565b60008060408385031215611a9257600080fd5b6000611aa08582860161198c565b9250506020611ab1858286016119a1565b9150509250929050565b600060208284031215611acd57600080fd5b6000611adb848285016119a1565b91505092915050565b600060208284031215611af657600080fd5b6000611b04848285016119b6565b91505092915050565b611b16816123eb565b82525050565b611b25816123fd565b82525050565b6000611b3682612345565b611b408185612350565b9350611b50818560208601612440565b611b5981612576565b840191505092915050565b6000611b71602383612350565b91507f45524332303a207472616e7366657220746f20746865207a65726f206164647260008301527f65737300000000000000000000000000000000000000000000000000000000006020830152604082019050919050565b6000611bd7602283612350565b91507f45524332303a206275726e20616d6f756e7420657863656564732062616c616e60008301527f63650000000000000000000000000000000000000000000000000000000000006020830152604082019050919050565b6000611c3d602283612350565b91507f45524332303a20617070726f766520746f20746865207a65726f20616464726560008301527f73730000000000000000000000000000000000000000000000000000000000006020830152604082019050919050565b6000611ca3601d83612350565b91507f45524332303a20696e73756666696369656e7420616c6c6f77616e63650000006000830152602082019050919050565b6000611ce3602283612350565b91507f496e73756666696369656e742062616c616e636520666f7220756e7374616b6960008301527f6e670000000000000000000000000000000000000000000000000000000000006020830152604082019050919050565b6000611d49602683612350565b91507f45524332303a207472616e7366657220616d6f756e742065786365656473206260008301527f616c616e636500000000000000000000000000000000000000000000000000006020830152604082019050919050565b6000611daf602083612350565b91507f496e73756666696369656e742062616c616e636520666f72207374616b696e676000830152602082019050919050565b6000611def602583612350565b91507f41646472657373206e6f74206c696e6b656420746f20616e79207374616b656860008301527f6f6c6465720000000000000000000000000000000000000000000000000000006020830152604082019050919050565b6000611e55602983612350565b91507f496e76616c696420696e64657820666f72207374616b65686f6c64657273206360008301527f6f6c6c656374696f6e00000000000000000000000000000000000000000000006020830152604082019050919050565b6000611ebb602183612350565b91507f45524332303a206275726e2066726f6d20746865207a65726f2061646472657360008301527f73000000000000000000000000000000000000000000000000000000000000006020830152604082019050919050565b6000611f21602583612350565b91507f45524332303a207472616e736665722066726f6d20746865207a65726f20616460008301527f64726573730000000000000000000000000000000000000000000000000000006020830152604082019050919050565b6000611f87602483612350565b91507f45524332303a20617070726f76652066726f6d20746865207a65726f2061646460008301527f72657373000000000000000000000000000000000000000000000000000000006020830152604082019050919050565b6000611fed602583612350565b91507f45524332303a2064656372656173656420616c6c6f77616e63652062656c6f7760008301527f207a65726f0000000000000000000000000000000000000000000000000000006020830152604082019050919050565b6000612053601f83612350565b91507f45524332303a206d696e7420746f20746865207a65726f2061646472657373006000830152602082019050919050565b61208f81612429565b82525050565b61209e81612433565b82525050565b60006020820190506120b96000830184611b0d565b92915050565b60006020820190506120d46000830184611b1c565b92915050565b600060208201905081810360008301526120f48184611b2b565b905092915050565b6000602082019050818103600083015261211581611b64565b9050919050565b6000602082019050818103600083015261213581611bca565b9050919050565b6000602082019050818103600083015261215581611c30565b9050919050565b6000602082019050818103600083015261217581611c96565b9050919050565b6000602082019050818103600083015261219581611cd6565b9050919050565b600060208201905081810360008301526121b581611d3c565b9050919050565b600060208201905081810360008301526121d581611da2565b9050919050565b600060208201905081810360008301526121f581611de2565b9050919050565b6000602082019050818103600083015261221581611e48565b9050919050565b6000602082019050818103600083015261223581611eae565b9050919050565b6000602082019050818103600083015261225581611f14565b9050919050565b6000602082019050818103600083015261227581611f7a565b9050919050565b6000602082019050818103600083015261229581611fe0565b9050919050565b600060208201905081810360008301526122b581612046565b9050919050565b60006020820190506122d16000830184612086565b92915050565b600060a0820190506122ec6000830188612086565b6122f96020830187612086565b6123066040830186612086565b6123136060830185612086565b6123206080830184611b1c565b9695505050505050565b600060208201905061233f6000830184612095565b92915050565b600081519050919050565b600082825260208201905092915050565b600061236c82612429565b915061237783612429565b9250827fffffffffffffffffffffffffffffffffffffffffffffffffffffffffffffffff038211156123ac576123ab612518565b5b828201905092915050565b60006123c282612429565b91506123cd83612429565b9250828210156123e0576123df612518565b5b828203905092915050565b60006123f682612409565b9050919050565b60008115159050919050565b600073ffffffffffffffffffffffffffffffffffffffff82169050919050565b6000819050919050565b600060ff82169050919050565b60005b8381101561245e578082015181840152602081019050612443565b8381111561246d576000848401525b50505050565b600061247e82612429565b9150600082141561249257612491612518565b5b600182039050919050565b600060028204905060018216806124b557607f821691505b602082108114156124c9576124c8612547565b5b50919050565b60006124da82612429565b91507fffffffffffffffffffffffffffffffffffffffffffffffffffffffffffffffff82141561250d5761250c612518565b5b600182019050919050565b7f4e487b7100000000000000000000000000000000000000000000000000000000600052601160045260246000fd5b7f4e487b7100000000000000000000000000000000000000000000000000000000600052602260045260246000fd5b6000601f19601f8301169050919050565b612590816123eb565b811461259b57600080fd5b50565b6125a781612429565b81146125b257600080fd5b5056fea264697066735822122065ad283f0f2417adb2703d324e93225e0e2d45845dceba789f5e2f7d6c9c488c64736f6c63430008000033",
  "immutableReferences": {
    "2293": [
      {
        "length": 32,
        "start": 1608
      },
      {
        "length": 32,
        "start": 4861
      },
      {
        "length": 32,
        "start": 5729
      }
    ]
  },
  "source": "pragma solidity ^0.8.0;\r\n\r\nimport \"@openzeppelin/contracts/token/ERC20/ERC20.sol\";\r\nimport \"../Interfaces/IStakable.sol\";\r\nimport \"../utils/NominatingStakeholders.sol\";\r\nimport \"../utils/Eras.sol\";\r\nimport \"../Interfaces/IProofOfStake.sol\";\r\nimport \"../Interfaces/IErasMonitor.sol\";\r\nimport \"../utils/ErasVotes.sol\";\r\n\r\ncontract ERC20Stakable is IStakable, ERC20 {\r\n    uint256 immutable _minStakedAmountForValidation;\r\n    uint256 internal _validatorsCount;\r\n    uint256 internal _erasCount;\r\n    Stakeholders.Stakeholder[] internal _stakeholders;\r\n    mapping(address => uint256) internal _validatorsStakeholderIndexes;\r\n    mapping(address => uint256) internal _stakeholdersIndexes;\r\n\r\n    constructor(\r\n        string memory name_,\r\n        string memory symbol_,\r\n        uint256 minStakedAmountForValidation_\r\n    ) ERC20(name_, symbol_) {\r\n        _minStakedAmountForValidation = minStakedAmountForValidation_;\r\n        _validatorsCount = 0;\r\n    }\r\n\r\n    modifier notNullAddress(address address_) {\r\n        require(address_ != address(0));\r\n        _;\r\n    }\r\n\r\n    function getStakedAmount(address address_)\r\n        external\r\n        view\r\n        override\r\n        notNullAddress(address_)\r\n        returns (uint256)\r\n    {\r\n        uint256 stakeholderIndex = _getStakeholderIndex(address_);\r\n        if (stakeholderIndex == 0) {\r\n            //no stakeholder registered\r\n            return 0;\r\n        }\r\n        Stakeholders.Stakeholder storage stakeholder = _stakeholders[\r\n            stakeholderIndex\r\n        ];\r\n        return stakeholder.totalAmount;\r\n    }\r\n\r\n    function getStakeholderInformation(address address_)\r\n        external\r\n        view\r\n        override\r\n        returns (\r\n            uint256,\r\n            uint256,\r\n            uint256,\r\n            uint256,\r\n            bool\r\n        )\r\n    {\r\n        uint256 stakeholderIndex = _getStakeholderIndex(address_);\r\n\r\n        require(stakeholderIndex > 0, \"Address not linked to any stakeholder\");\r\n\r\n        Stakeholders.Stakeholder storage stakeholder = _stakeholders[\r\n            stakeholderIndex\r\n        ];\r\n\r\n        return (\r\n            stakeholder.totalAmount,\r\n            stakeholder.ownedAmount,\r\n            stakeholder.nominatedAmount,\r\n            stakeholder.nominatorsCount,\r\n            stakeholder.canValidate\r\n        );\r\n    }\r\n\r\n    function stake(uint256 amount_) external override {\r\n        address stakeholderAddress = msg.sender;\r\n\r\n        //fisrst check if the caller has at least amount_ tokens\r\n        uint256 balance = this.balanceOf(stakeholderAddress);\r\n\r\n        require(balance >= amount_, \"Insufficient balance for staking\");\r\n        //second check if stakeholder exist\r\n        uint256 stakeholderIndex = _getStakeholderIndex(stakeholderAddress);\r\n        if (stakeholderIndex == 0) {\r\n            //stakeholder does not exists. Create new one and stake the amout\r\n            _createNewStakeholder(stakeholderAddress, amount_);\r\n        } else {\r\n            _stakeholderUpdateOwnStakedAmount(stakeholderIndex, amount_);\r\n        }\r\n\r\n        //burn tokens from balance\r\n        _burn(stakeholderAddress, amount_);\r\n    }\r\n\r\n    function unstake(uint256 amount_) external override {\r\n        address stakeholderAddress = msg.sender;\r\n        uint256 stakeholderIndex = _stakeholdersIndexes[stakeholderAddress];\r\n        if (stakeholderIndex == 0) {\r\n            // this user no longer have any staked ammount\r\n            return;\r\n        }\r\n\r\n        Stakeholders.Stakeholder storage stakeholder = _stakeholders[\r\n            stakeholderIndex\r\n        ];\r\n        require(\r\n            stakeholder.totalAmount >= amount_,\r\n            \"Insufficient balance for unstaking\"\r\n        );\r\n\r\n        uint256 newAmount = stakeholder.totalAmount -= amount_;\r\n\r\n        stakeholder.totalAmount = newAmount;\r\n        stakeholder.ownedAmount = newAmount;\r\n\r\n        if (newAmount >= _minStakedAmountForValidation) {\r\n            stakeholder.canValidate = true;\r\n        } else {\r\n            stakeholder.canValidate = false;\r\n            _validatorsCount--;\r\n        }\r\n\r\n        //mint amount_ tokes to address\r\n        _mint(stakeholderAddress, amount_);\r\n    }\r\n\r\n    function _getStakeholderIndex(address address_)\r\n        internal\r\n        view\r\n        virtual\r\n        notNullAddress(address_)\r\n        returns (uint256)\r\n    {\r\n        uint256 stakeholderIndex = _stakeholdersIndexes[address_];\r\n        if (stakeholderIndex == 0) return 0;\r\n        require(\r\n            stakeholderIndex <= _stakeholders.length - 1,\r\n            \"Invalid index for stakeholders collection\"\r\n        );\r\n\r\n        return stakeholderIndex;\r\n    }\r\n\r\n    function _createNewStakeholder(address address_, uint256 amount_)\r\n        internal\r\n        virtual\r\n    {\r\n        bool canValidate = amount_ >= _minStakedAmountForValidation;\r\n        uint256 newStakeholderIndex = _stakeholders.length;\r\n\r\n        if (newStakeholderIndex == 0) {\r\n            newStakeholderIndex++;\r\n            // this is very first stakeholder. Create a fake one at index 0.\r\n            _stakeholders.push(\r\n                Stakeholders.Stakeholder({\r\n                    user: address(0),\r\n                    totalAmount: 0,\r\n                    ownedAmount: 0,\r\n                    nominatedAmount: 0,\r\n                    nominatorsCount: 0,\r\n                    canValidate: false,\r\n                    notCollectedTokenRewards: 0\r\n                })\r\n            );\r\n        }\r\n\r\n        _stakeholders.push(\r\n            Stakeholders.Stakeholder({\r\n                user: address_,\r\n                totalAmount: amount_,\r\n                ownedAmount: amount_,\r\n                nominatedAmount: 0,\r\n                nominatorsCount: 0,\r\n                canValidate: canValidate,\r\n                notCollectedTokenRewards: 0\r\n            })\r\n        );\r\n\r\n        _stakeholdersIndexes[address_] = newStakeholderIndex;\r\n        _tryRecordStakeholderAsNewValidator(\r\n            canValidate,\r\n            address_,\r\n            newStakeholderIndex\r\n        );\r\n    }\r\n\r\n    function _stakeholderUpdateOwnStakedAmount(\r\n        uint256 stakeholderIndex_,\r\n        uint256 amount_\r\n    ) internal virtual {\r\n        Stakeholders.Stakeholder storage stakeHolder = _stakeholders[\r\n            stakeholderIndex_\r\n        ];\r\n\r\n        stakeHolder.totalAmount += amount_;\r\n        stakeHolder.ownedAmount += amount_;\r\n\r\n        if (!stakeHolder.canValidate) {\r\n            //check if he can now\r\n            bool canValidate = stakeHolder.totalAmount >=\r\n                _minStakedAmountForValidation;\r\n\r\n            if (canValidate) {\r\n                stakeHolder.canValidate = true;\r\n\r\n                _tryRecordStakeholderAsNewValidator(\r\n                    canValidate,\r\n                    stakeHolder.user,\r\n                    stakeholderIndex_\r\n                );\r\n            }\r\n        }\r\n    }\r\n\r\n    function _tryRecordStakeholderAsNewValidator(\r\n        bool canValidate_,\r\n        address address_,\r\n        uint256 validatorIndex_\r\n    ) internal returns (bool) {\r\n        if (!canValidate_) {\r\n            return false;\r\n        }\r\n        uint256 validatorIndex = _validatorsStakeholderIndexes[address_];\r\n        if (validatorIndex == 0) {\r\n            //we don't have any valid validator\r\n            _validatorsStakeholderIndexes[address_] = validatorIndex_;\r\n            _validatorsCount++;\r\n        }\r\n        //else validator already exist in records\r\n        return true;\r\n    }\r\n}\r\n",
  "sourcePath": "D:\\Documents\\Dev\\Repositories\\gold-price-oracle\\gold-price-oracle\\on-chain\\contracts\\token\\base\\ERC20Stakable.sol",
  "compiler": {
    "name": "solc",
    "version": "0.8.0+commit.c7dfd78e.Emscripten.clang"
  },
  "schemaVersion": "3.4.3",
  "updatedAt": "2022-03-09T10:43:36.406Z",
  "devdoc": {
    "kind": "dev",
    "methods": {
      "allowance(address,address)": {
        "details": "See {IERC20-allowance}."
      },
      "approve(address,uint256)": {
        "details": "See {IERC20-approve}. NOTE: If `amount` is the maximum `uint256`, the allowance is not updated on `transferFrom`. This is semantically equivalent to an infinite approval. Requirements: - `spender` cannot be the zero address."
      },
      "balanceOf(address)": {
        "details": "See {IERC20-balanceOf}."
      },
      "decimals()": {
        "details": "Returns the number of decimals used to get its user representation. For example, if `decimals` equals `2`, a balance of `505` tokens should be displayed to a user as `5.05` (`505 / 10 ** 2`). Tokens usually opt for a value of 18, imitating the relationship between Ether and Wei. This is the value {ERC20} uses, unless this function is overridden; NOTE: This information is only used for _display_ purposes: it in no way affects any of the arithmetic of the contract, including {IERC20-balanceOf} and {IERC20-transfer}."
      },
      "decreaseAllowance(address,uint256)": {
        "details": "Atomically decreases the allowance granted to `spender` by the caller. This is an alternative to {approve} that can be used as a mitigation for problems described in {IERC20-approve}. Emits an {Approval} event indicating the updated allowance. Requirements: - `spender` cannot be the zero address. - `spender` must have allowance for the caller of at least `subtractedValue`."
      },
      "increaseAllowance(address,uint256)": {
        "details": "Atomically increases the allowance granted to `spender` by the caller. This is an alternative to {approve} that can be used as a mitigation for problems described in {IERC20-approve}. Emits an {Approval} event indicating the updated allowance. Requirements: - `spender` cannot be the zero address."
      },
      "name()": {
        "details": "Returns the name of the token."
      },
      "symbol()": {
        "details": "Returns the symbol of the token, usually a shorter version of the name."
      },
      "totalSupply()": {
        "details": "See {IERC20-totalSupply}."
      },
      "transfer(address,uint256)": {
        "details": "See {IERC20-transfer}. Requirements: - `to` cannot be the zero address. - the caller must have a balance of at least `amount`."
      },
      "transferFrom(address,address,uint256)": {
        "details": "See {IERC20-transferFrom}. Emits an {Approval} event indicating the updated allowance. This is not required by the EIP. See the note at the beginning of {ERC20}. NOTE: Does not update the allowance if the current allowance is the maximum `uint256`. Requirements: - `from` and `to` cannot be the zero address. - `from` must have a balance of at least `amount`. - the caller must have allowance for ``from``'s tokens of at least `amount`."
      }
    },
    "version": 1
  },
  "userdoc": {
    "kind": "user",
    "methods": {},
    "version": 1
  }
}