{
  "contractName": "ERC20Stakable",
  "abi": [
    {
      "inputs": [
        {
          "internalType": "string",
          "name": "name_",
          "type": "string"
        },
        {
          "internalType": "string",
          "name": "symbol_",
          "type": "string"
        },
        {
          "internalType": "uint256",
          "name": "minStakedAmountForValidation_",
          "type": "uint256"
        },
        {
          "internalType": "uint256",
          "name": "rewardForValidatorsAfterEachEra_",
          "type": "uint256"
        }
      ],
      "stateMutability": "nonpayable",
      "type": "constructor"
    },
    {
      "anonymous": false,
      "inputs": [
        {
          "indexed": true,
          "internalType": "address",
          "name": "owner",
          "type": "address"
        },
        {
          "indexed": true,
          "internalType": "address",
          "name": "spender",
          "type": "address"
        },
        {
          "indexed": false,
          "internalType": "uint256",
          "name": "value",
          "type": "uint256"
        }
      ],
      "name": "Approval",
      "type": "event"
    },
    {
      "anonymous": false,
      "inputs": [
        {
          "indexed": true,
          "internalType": "address",
          "name": "from",
          "type": "address"
        },
        {
          "indexed": true,
          "internalType": "address",
          "name": "to",
          "type": "address"
        },
        {
          "indexed": false,
          "internalType": "uint256",
          "name": "value",
          "type": "uint256"
        }
      ],
      "name": "Transfer",
      "type": "event"
    },
    {
      "inputs": [
        {
          "internalType": "address",
          "name": "owner",
          "type": "address"
        },
        {
          "internalType": "address",
          "name": "spender",
          "type": "address"
        }
      ],
      "name": "allowance",
      "outputs": [
        {
          "internalType": "uint256",
          "name": "",
          "type": "uint256"
        }
      ],
      "stateMutability": "view",
      "type": "function"
    },
    {
      "inputs": [
        {
          "internalType": "address",
          "name": "spender",
          "type": "address"
        },
        {
          "internalType": "uint256",
          "name": "amount",
          "type": "uint256"
        }
      ],
      "name": "approve",
      "outputs": [
        {
          "internalType": "bool",
          "name": "",
          "type": "bool"
        }
      ],
      "stateMutability": "nonpayable",
      "type": "function"
    },
    {
      "inputs": [
        {
          "internalType": "address",
          "name": "account",
          "type": "address"
        }
      ],
      "name": "balanceOf",
      "outputs": [
        {
          "internalType": "uint256",
          "name": "",
          "type": "uint256"
        }
      ],
      "stateMutability": "view",
      "type": "function"
    },
    {
      "inputs": [],
      "name": "decimals",
      "outputs": [
        {
          "internalType": "uint8",
          "name": "",
          "type": "uint8"
        }
      ],
      "stateMutability": "view",
      "type": "function"
    },
    {
      "inputs": [
        {
          "internalType": "address",
          "name": "spender",
          "type": "address"
        },
        {
          "internalType": "uint256",
          "name": "subtractedValue",
          "type": "uint256"
        }
      ],
      "name": "decreaseAllowance",
      "outputs": [
        {
          "internalType": "bool",
          "name": "",
          "type": "bool"
        }
      ],
      "stateMutability": "nonpayable",
      "type": "function"
    },
    {
      "inputs": [
        {
          "internalType": "address",
          "name": "spender",
          "type": "address"
        },
        {
          "internalType": "uint256",
          "name": "addedValue",
          "type": "uint256"
        }
      ],
      "name": "increaseAllowance",
      "outputs": [
        {
          "internalType": "bool",
          "name": "",
          "type": "bool"
        }
      ],
      "stateMutability": "nonpayable",
      "type": "function"
    },
    {
      "inputs": [],
      "name": "name",
      "outputs": [
        {
          "internalType": "string",
          "name": "",
          "type": "string"
        }
      ],
      "stateMutability": "view",
      "type": "function"
    },
    {
      "inputs": [],
      "name": "symbol",
      "outputs": [
        {
          "internalType": "string",
          "name": "",
          "type": "string"
        }
      ],
      "stateMutability": "view",
      "type": "function"
    },
    {
      "inputs": [],
      "name": "totalSupply",
      "outputs": [
        {
          "internalType": "uint256",
          "name": "",
          "type": "uint256"
        }
      ],
      "stateMutability": "view",
      "type": "function"
    },
    {
      "inputs": [
        {
          "internalType": "address",
          "name": "to",
          "type": "address"
        },
        {
          "internalType": "uint256",
          "name": "amount",
          "type": "uint256"
        }
      ],
      "name": "transfer",
      "outputs": [
        {
          "internalType": "bool",
          "name": "",
          "type": "bool"
        }
      ],
      "stateMutability": "nonpayable",
      "type": "function"
    },
    {
      "inputs": [
        {
          "internalType": "address",
          "name": "from",
          "type": "address"
        },
        {
          "internalType": "address",
          "name": "to",
          "type": "address"
        },
        {
          "internalType": "uint256",
          "name": "amount",
          "type": "uint256"
        }
      ],
      "name": "transferFrom",
      "outputs": [
        {
          "internalType": "bool",
          "name": "",
          "type": "bool"
        }
      ],
      "stateMutability": "nonpayable",
      "type": "function"
    },
    {
      "inputs": [
        {
          "internalType": "address",
          "name": "address_",
          "type": "address"
        }
      ],
      "name": "getStakedAmount",
      "outputs": [
        {
          "internalType": "uint256",
          "name": "",
          "type": "uint256"
        }
      ],
      "stateMutability": "view",
      "type": "function"
    },
    {
      "inputs": [
        {
          "internalType": "address",
          "name": "address_",
          "type": "address"
        }
      ],
      "name": "getStakeholderInformation",
      "outputs": [
        {
          "internalType": "uint256",
          "name": "",
          "type": "uint256"
        },
        {
          "internalType": "uint256",
          "name": "",
          "type": "uint256"
        },
        {
          "internalType": "uint256",
          "name": "",
          "type": "uint256"
        },
        {
          "internalType": "uint256",
          "name": "",
          "type": "uint256"
        },
        {
          "internalType": "bool",
          "name": "",
          "type": "bool"
        }
      ],
      "stateMutability": "view",
      "type": "function"
    },
    {
      "inputs": [
        {
          "internalType": "uint256",
          "name": "amount_",
          "type": "uint256"
        }
      ],
      "name": "stake",
      "outputs": [],
      "stateMutability": "nonpayable",
      "type": "function"
    },
    {
      "inputs": [
        {
          "internalType": "uint256",
          "name": "amount_",
          "type": "uint256"
        }
      ],
      "name": "unstake",
      "outputs": [],
      "stateMutability": "nonpayable",
      "type": "function"
    },
    {
      "inputs": [],
      "name": "getStakeholders",
      "outputs": [
        {
          "components": [
            {
              "internalType": "address",
              "name": "user",
              "type": "address"
            },
            {
              "internalType": "uint256",
              "name": "totalAmount",
              "type": "uint256"
            },
            {
              "internalType": "uint256",
              "name": "ownedAmount",
              "type": "uint256"
            },
            {
              "internalType": "uint256",
              "name": "nominatedAmount",
              "type": "uint256"
            },
            {
              "internalType": "uint256",
              "name": "nominatorsCount",
              "type": "uint256"
            },
            {
              "internalType": "bool",
              "name": "canValidate",
              "type": "bool"
            },
            {
              "internalType": "uint256",
              "name": "notCollectedTokenRewards",
              "type": "uint256"
            }
          ],
          "internalType": "struct Stakeholders.Stakeholder[]",
          "name": "stakeholders",
          "type": "tuple[]"
        }
      ],
      "stateMutability": "view",
      "type": "function"
    },
    {
      "inputs": [],
      "name": "getValidatorsCount",
      "outputs": [
        {
          "internalType": "uint256",
          "name": "",
          "type": "uint256"
        }
      ],
      "stateMutability": "view",
      "type": "function"
    },
    {
      "inputs": [],
      "name": "getCurrentEra",
      "outputs": [
        {
          "components": [
            {
              "internalType": "bytes32",
              "name": "id",
              "type": "bytes32"
            },
            {
              "internalType": "uint256",
              "name": "colectedFeesAmount",
              "type": "uint256"
            },
            {
              "internalType": "uint256",
              "name": "startDate",
              "type": "uint256"
            },
            {
              "internalType": "uint256",
              "name": "endDate",
              "type": "uint256"
            },
            {
              "internalType": "address",
              "name": "chairman",
              "type": "address"
            }
          ],
          "internalType": "struct Eras.Era",
          "name": "currentEra",
          "type": "tuple"
        }
      ],
      "stateMutability": "view",
      "type": "function"
    },
    {
      "inputs": [],
      "name": "getErasCount",
      "outputs": [
        {
          "internalType": "uint256",
          "name": "",
          "type": "uint256"
        }
      ],
      "stateMutability": "view",
      "type": "function"
    },
    {
      "inputs": [],
      "name": "endCurrentEra",
      "outputs": [],
      "stateMutability": "nonpayable",
      "type": "function"
    },
    {
      "inputs": [],
      "name": "electNewChairman",
      "outputs": [
        {
          "internalType": "address",
          "name": "",
          "type": "address"
        }
      ],
      "stateMutability": "nonpayable",
      "type": "function"
    },
    {
      "inputs": [],
      "name": "startNewEra",
      "outputs": [
        {
          "internalType": "bytes32",
          "name": "",
          "type": "bytes32"
        }
      ],
      "stateMutability": "nonpayable",
      "type": "function"
    }
  ],
  "bytecode": "0x60c06040523480156200001157600080fd5b5060405162003345380380620033458339818101604052810190620000379190620001d0565b838381600390805190602001906200005192919062000097565b5080600490805190602001906200006a92919062000097565b5050508160a0818152505060006005819055506000600681905550806080818152505050505050620003c3565b828054620000a59062000315565b90600052602060002090601f016020900481019282620000c9576000855562000115565b82601f10620000e457805160ff191683800117855562000115565b8280016001018555821562000115579182015b8281111562000114578251825591602001919060010190620000f7565b5b50905062000124919062000128565b5090565b5b808211156200014357600081600090555060010162000129565b5090565b60006200015e6200015884620002a2565b6200026e565b9050828152602081018484840111156200017757600080fd5b62000184848285620002df565b509392505050565b600082601f8301126200019e57600080fd5b8151620001b084826020860162000147565b91505092915050565b600081519050620001ca81620003a9565b92915050565b60008060008060808587031215620001e757600080fd5b600085015167ffffffffffffffff8111156200020257600080fd5b62000210878288016200018c565b945050602085015167ffffffffffffffff8111156200022e57600080fd5b6200023c878288016200018c565b93505060406200024f87828801620001b9565b92505060606200026287828801620001b9565b91505092959194509250565b6000604051905081810181811067ffffffffffffffff821117156200029857620002976200037a565b5b8060405250919050565b600067ffffffffffffffff821115620002c057620002bf6200037a565b5b601f19601f8301169050602081019050919050565b6000819050919050565b60005b83811015620002ff578082015181840152602081019050620002e2565b838111156200030f576000848401525b50505050565b600060028204905060018216806200032e57607f821691505b602082108114156200034557620003446200034b565b5b50919050565b7f4e487b7100000000000000000000000000000000000000000000000000000000600052602260045260246000fd5b7f4e487b7100000000000000000000000000000000000000000000000000000000600052604160045260246000fd5b620003b481620002d5565b8114620003c057600080fd5b50565b60805160a051612f4e620003f7600039600081816107620152818161168001526119e401526000610cf00152612f4e6000f3fe608060405234801561001057600080fd5b50600436106101425760003560e01c8063533aa7b8116100b8578063a694fc3a1161007c578063a694fc3a146103a7578063a9059cbb146103c3578063b64cd8ca146103f3578063b6992247146103fd578063d250b6cb1461041b578063dd62ed3e1461043957610142565b8063533aa7b8146102ed57806370a082311461030b57806395d89b411461033b578063a2709eb414610359578063a457c2d71461037757610142565b8063274982401161010a57806327498240146102015780632bf9262c1461021f5780632e17de7814610253578063313ce5671461026f578063395093511461028d5780634da6a556146102bd57610142565b806306fdde0314610147578063095ea7b31461016557806318160ddd146101955780631e70953e146101b357806323b872dd146101d1575b600080fd5b61014f610469565b60405161015c919061293f565b60405180910390f35b61017f600480360381019061017a919061204a565b6104fb565b60405161018c9190612909565b60405180910390f35b61019d61051e565b6040516101aa9190612b7c565b60405180910390f35b6101bb610528565b6040516101c89190612924565b60405180910390f35b6101eb60048036038101906101e69190611ffb565b61052d565b6040516101f89190612909565b60405180910390f35b61020961055c565b6040516102169190612b7c565b60405180910390f35b61023960048036038101906102349190611f96565b610566565b60405161024a959493929190612b97565b60405180910390f35b61026d60048036038101906102689190612086565b610644565b005b6102776107f1565b6040516102849190612bea565b60405180910390f35b6102a760048036038101906102a2919061204a565b6107fa565b6040516102b49190612909565b60405180910390f35b6102d760048036038101906102d29190611f96565b6108a4565b6040516102e49190612b7c565b60405180910390f35b6102f561095d565b6040516103029190612b7c565b60405180910390f35b61032560048036038101906103209190611f96565b610967565b6040516103329190612b7c565b60405180910390f35b6103436109af565b604051610350919061293f565b60405180910390f35b610361610a41565b60405161036e91906128cc565b60405180910390f35b610391600480360381019061038c919061204a565b610a46565b60405161039e9190612909565b60405180910390f35b6103c160048036038101906103bc9190612086565b610b30565b005b6103dd60048036038101906103d8919061204a565b610c45565b6040516103ea9190612909565b60405180910390f35b6103fb610c68565b005b610405610d28565b60405161041291906128e7565b60405180910390f35b610423610e2a565b6040516104309190612b61565b60405180910390f35b610453600480360381019061044e9190611fbf565b610ec2565b6040516104609190612b7c565b60405180910390f35b60606003805461047890612dd1565b80601f01602080910402602001604051908101604052809291908181526020018280546104a490612dd1565b80156104f15780601f106104c6576101008083540402835291602001916104f1565b820191906000526020600020905b8154815290600101906020018083116104d457829003601f168201915b5050505050905090565b600080610506610f49565b9050610513818585610f51565b600191505092915050565b6000600254905090565b600090565b600080610538610f49565b905061054585828561111c565b6105508585856111a8565b60019150509392505050565b6000600554905090565b60008060008060008061057887611429565b9050600081116105bd576040517f08c379a00000000000000000000000000000000000000000000000000000000081526004016105b490612a61565b60405180910390fd5b6000600782815481106105f9577f4e487b7100000000000000000000000000000000000000000000000000000000600052603260045260246000fd5b9060005260206000209060070201905080600101548160020154826003015483600401548460050160009054906101000a900460ff1696509650965096509650505091939590929450565b60003390506000600960008373ffffffffffffffffffffffffffffffffffffffff1673ffffffffffffffffffffffffffffffffffffffff168152602001908152602001600020549050600081141561069d5750506107ee565b6000600782815481106106d9577f4e487b7100000000000000000000000000000000000000000000000000000000600052603260045260246000fd5b906000526020600020906007020190508381600101541015610730576040517f08c379a000000000000000000000000000000000000000000000000000000000815260040161072790612a01565b60405180910390fd5b6000848260010160008282546107469190612ce1565b92505081905590508082600101819055508082600201819055507f000000000000000000000000000000000000000000000000000000000000000081106107a95760018260050160006101000a81548160ff0219169083151502179055506107df565b60008260050160006101000a81548160ff021916908315150217905550600560008154809291906107d990612da7565b91905055505b6107e9848661151c565b505050505b50565b60006012905090565b600080610805610f49565b9050610899818585600160008673ffffffffffffffffffffffffffffffffffffffff1673ffffffffffffffffffffffffffffffffffffffff16815260200190815260200160002060008973ffffffffffffffffffffffffffffffffffffffff1673ffffffffffffffffffffffffffffffffffffffff168152602001908152602001600020546108949190612c5a565b610f51565b600191505092915050565b600081600073ffffffffffffffffffffffffffffffffffffffff168173ffffffffffffffffffffffffffffffffffffffff1614156108e157600080fd5b60006108ec84611429565b90506000811415610901576000925050610957565b60006007828154811061093d577f4e487b7100000000000000000000000000000000000000000000000000000000600052603260045260246000fd5b906000526020600020906007020190508060010154935050505b50919050565b6000600654905090565b60008060008373ffffffffffffffffffffffffffffffffffffffff1673ffffffffffffffffffffffffffffffffffffffff168152602001908152602001600020549050919050565b6060600480546109be90612dd1565b80601f01602080910402602001604051908101604052809291908181526020018280546109ea90612dd1565b8015610a375780601f10610a0c57610100808354040283529160200191610a37565b820191906000526020600020905b815481529060010190602001808311610a1a57829003601f168201915b5050505050905090565b600090565b600080610a51610f49565b90506000600160008373ffffffffffffffffffffffffffffffffffffffff1673ffffffffffffffffffffffffffffffffffffffff16815260200190815260200160002060008673ffffffffffffffffffffffffffffffffffffffff1673ffffffffffffffffffffffffffffffffffffffff16815260200190815260200160002054905083811015610b17576040517f08c379a0000000000000000000000000000000000000000000000000000000008152600401610b0e90612b21565b60405180910390fd5b610b248286868403610f51565b60019250505092915050565b600033905060003073ffffffffffffffffffffffffffffffffffffffff166370a08231836040518263ffffffff1660e01b8152600401610b7091906128cc565b60206040518083038186803b158015610b8857600080fd5b505afa158015610b9c573d6000803e3d6000fd5b505050506040513d601f19601f82011682018060405250810190610bc091906120af565b905082811015610c05576040517f08c379a0000000000000000000000000000000000000000000000000000000008152600401610bfc90612a41565b60405180910390fd5b6000610c1083611429565b90506000811415610c2a57610c25838561167c565b610c35565b610c348185611948565b5b610c3f8385611a67565b50505050565b600080610c50610f49565b9050610c5d8185856111a8565b600191505092915050565b60003390506000610c77611c3e565b9050806080015173ffffffffffffffffffffffffffffffffffffffff168273ffffffffffffffffffffffffffffffffffffffff1614610ceb576040517f08c379a0000000000000000000000000000000000000000000000000000000008152600401610ce290612a81565b60405180910390fd5b610d247f00000000000000000000000000000000000000000000000000000000000000008260200151610d1e9190612c5a565b83611cd6565b5050565b60606007805480602002602001604051908101604052809291908181526020016000905b82821015610e2157838290600052602060002090600702016040518060e00160405290816000820160009054906101000a900473ffffffffffffffffffffffffffffffffffffffff1673ffffffffffffffffffffffffffffffffffffffff1673ffffffffffffffffffffffffffffffffffffffff168152602001600182015481526020016002820154815260200160038201548152602001600482015481526020016005820160009054906101000a900460ff1615151515815260200160068201548152505081526020019060010190610d4c565b50505050905090565b610e32611f0f565b600b6040518060a0016040529081600082015481526020016001820154815260200160028201548152602001600382015481526020016004820160009054906101000a900473ffffffffffffffffffffffffffffffffffffffff1673ffffffffffffffffffffffffffffffffffffffff1673ffffffffffffffffffffffffffffffffffffffff1681525050905090565b6000600160008473ffffffffffffffffffffffffffffffffffffffff1673ffffffffffffffffffffffffffffffffffffffff16815260200190815260200160002060008373ffffffffffffffffffffffffffffffffffffffff1673ffffffffffffffffffffffffffffffffffffffff16815260200190815260200160002054905092915050565b600033905090565b600073ffffffffffffffffffffffffffffffffffffffff168373ffffffffffffffffffffffffffffffffffffffff161415610fc1576040517f08c379a0000000000000000000000000000000000000000000000000000000008152600401610fb890612b01565b60405180910390fd5b600073ffffffffffffffffffffffffffffffffffffffff168273ffffffffffffffffffffffffffffffffffffffff161415611031576040517f08c379a0000000000000000000000000000000000000000000000000000000008152600401611028906129c1565b60405180910390fd5b80600160008573ffffffffffffffffffffffffffffffffffffffff1673ffffffffffffffffffffffffffffffffffffffff16815260200190815260200160002060008473ffffffffffffffffffffffffffffffffffffffff1673ffffffffffffffffffffffffffffffffffffffff168152602001908152602001600020819055508173ffffffffffffffffffffffffffffffffffffffff168373ffffffffffffffffffffffffffffffffffffffff167f8c5be1e5ebec7d5bd14f71427d1e84f3dd0314c0f7b2291e5b200ac8c7c3b9258360405161110f9190612b7c565b60405180910390a3505050565b60006111288484610ec2565b90507fffffffffffffffffffffffffffffffffffffffffffffffffffffffffffffffff81146111a25781811015611194576040517f08c379a000000000000000000000000000000000000000000000000000000000815260040161118b906129e1565b60405180910390fd5b6111a18484848403610f51565b5b50505050565b600073ffffffffffffffffffffffffffffffffffffffff168373ffffffffffffffffffffffffffffffffffffffff161415611218576040517f08c379a000000000000000000000000000000000000000000000000000000000815260040161120f90612ae1565b60405180910390fd5b600073ffffffffffffffffffffffffffffffffffffffff168273ffffffffffffffffffffffffffffffffffffffff161415611288576040517f08c379a000000000000000000000000000000000000000000000000000000000815260040161127f90612961565b60405180910390fd5b611293838383611e3e565b60008060008573ffffffffffffffffffffffffffffffffffffffff1673ffffffffffffffffffffffffffffffffffffffff16815260200190815260200160002054905081811015611319576040517f08c379a000000000000000000000000000000000000000000000000000000000815260040161131090612a21565b60405180910390fd5b8181036000808673ffffffffffffffffffffffffffffffffffffffff1673ffffffffffffffffffffffffffffffffffffffff16815260200190815260200160002081905550816000808573ffffffffffffffffffffffffffffffffffffffff1673ffffffffffffffffffffffffffffffffffffffff16815260200190815260200160002060008282546113ac9190612c5a565b925050819055508273ffffffffffffffffffffffffffffffffffffffff168473ffffffffffffffffffffffffffffffffffffffff167fddf252ad1be2c89b69c2b068fc378daa952ba7f163c4a11628f55a4df523b3ef846040516114109190612b7c565b60405180910390a3611423848484611e43565b50505050565b600081600073ffffffffffffffffffffffffffffffffffffffff168173ffffffffffffffffffffffffffffffffffffffff16141561146657600080fd5b6000600960008573ffffffffffffffffffffffffffffffffffffffff1673ffffffffffffffffffffffffffffffffffffffff16815260200190815260200160002054905060008114156114bd576000925050611516565b60016007805490506114cf9190612ce1565b811115611511576040517f08c379a000000000000000000000000000000000000000000000000000000000815260040161150890612aa1565b60405180910390fd5b809250505b50919050565b600073ffffffffffffffffffffffffffffffffffffffff168273ffffffffffffffffffffffffffffffffffffffff16141561158c576040517f08c379a000000000000000000000000000000000000000000000000000000000815260040161158390612b41565b60405180910390fd5b61159860008383611e3e565b80600260008282546115aa9190612c5a565b92505081905550806000808473ffffffffffffffffffffffffffffffffffffffff1673ffffffffffffffffffffffffffffffffffffffff16815260200190815260200160002060008282546115ff9190612c5a565b925050819055508173ffffffffffffffffffffffffffffffffffffffff16600073ffffffffffffffffffffffffffffffffffffffff167fddf252ad1be2c89b69c2b068fc378daa952ba7f163c4a11628f55a4df523b3ef836040516116649190612b7c565b60405180910390a361167860008383611e43565b5050565b60007f000000000000000000000000000000000000000000000000000000000000000082101590506000600780549050905060008114156117de5780806116c290612e03565b91505060076040518060e00160405280600073ffffffffffffffffffffffffffffffffffffffff168152602001600081526020016000815260200160008152602001600081526020016000151581526020016000815250908060018154018082558091505060019003906000526020600020906007020160009091909190915060008201518160000160006101000a81548173ffffffffffffffffffffffffffffffffffffffff021916908373ffffffffffffffffffffffffffffffffffffffff1602179055506020820151816001015560408201518160020155606082015181600301556080820151816004015560a08201518160050160006101000a81548160ff02191690831515021790555060c0820151816006015550505b60076040518060e001604052808673ffffffffffffffffffffffffffffffffffffffff168152602001858152602001858152602001600081526020016000815260200184151581526020016000815250908060018154018082558091505060019003906000526020600020906007020160009091909190915060008201518160000160006101000a81548173ffffffffffffffffffffffffffffffffffffffff021916908373ffffffffffffffffffffffffffffffffffffffff1602179055506020820151816001015560408201518160020155606082015181600301556080820151816004015560a08201518160050160006101000a81548160ff02191690831515021790555060c08201518160060155505080600960008673ffffffffffffffffffffffffffffffffffffffff1673ffffffffffffffffffffffffffffffffffffffff16815260200190815260200160002081905550611941828583611e48565b5050505050565b600060078381548110611984577f4e487b7100000000000000000000000000000000000000000000000000000000600052603260045260246000fd5b90600052602060002090600702019050818160010160008282546119a89190612c5a565b92505081905550818160020160008282546119c39190612c5a565b925050819055508060050160009054906101000a900460ff16611a625760007f00000000000000000000000000000000000000000000000000000000000000008260010154101590508015611a605760018260050160006101000a81548160ff021916908315150217905550611a5e818360000160009054906101000a900473ffffffffffffffffffffffffffffffffffffffff1686611e48565b505b505b505050565b600073ffffffffffffffffffffffffffffffffffffffff168273ffffffffffffffffffffffffffffffffffffffff161415611ad7576040517f08c379a0000000000000000000000000000000000000000000000000000000008152600401611ace90612ac1565b60405180910390fd5b611ae382600083611e3e565b60008060008473ffffffffffffffffffffffffffffffffffffffff1673ffffffffffffffffffffffffffffffffffffffff16815260200190815260200160002054905081811015611b69576040517f08c379a0000000000000000000000000000000000000000000000000000000008152600401611b6090612981565b60405180910390fd5b8181036000808573ffffffffffffffffffffffffffffffffffffffff1673ffffffffffffffffffffffffffffffffffffffff168152602001908152602001600020819055508160026000828254611bc09190612ce1565b92505081905550600073ffffffffffffffffffffffffffffffffffffffff168373ffffffffffffffffffffffffffffffffffffffff167fddf252ad1be2c89b69c2b068fc378daa952ba7f163c4a11628f55a4df523b3ef84604051611c259190612b7c565b60405180910390a3611c3983600084611e43565b505050565b611c46611f0f565b600b6040518060a0016040529081600082015481526020016001820154815260200160028201548152602001600382015481526020016004820160009054906101000a900473ffffffffffffffffffffffffffffffffffffffff1673ffffffffffffffffffffffffffffffffffffffff1673ffffffffffffffffffffffffffffffffffffffff1681525050905090565b6000600283611ce59190612cb0565b90506000600960008473ffffffffffffffffffffffffffffffffffffffff1673ffffffffffffffffffffffffffffffffffffffff168152602001908152602001600020549050600060078281548110611d67577f4e487b7100000000000000000000000000000000000000000000000000000000600052603260045260246000fd5b90600052602060002090600702019050600073ffffffffffffffffffffffffffffffffffffffff168160000160009054906101000a900473ffffffffffffffffffffffffffffffffffffffff1673ffffffffffffffffffffffffffffffffffffffff161415611e0b576040517f08c379a0000000000000000000000000000000000000000000000000000000008152600401611e02906129a1565b60405180910390fd5b82816006016000828254611e1f9190612c5a565b9250508190555060008386611e349190612ce1565b9050505050505050565b505050565b505050565b600083611e585760009050611f08565b6000600860008573ffffffffffffffffffffffffffffffffffffffff1673ffffffffffffffffffffffffffffffffffffffff1681526020019081526020016000205490506000811415611f025782600860008673ffffffffffffffffffffffffffffffffffffffff1673ffffffffffffffffffffffffffffffffffffffff1681526020019081526020016000208190555060056000815480929190611efc90612e03565b91905055505b60019150505b9392505050565b6040518060a0016040528060008019168152602001600081526020016000815260200160008152602001600073ffffffffffffffffffffffffffffffffffffffff1681525090565b600081359050611f6681612eea565b92915050565b600081359050611f7b81612f01565b92915050565b600081519050611f9081612f01565b92915050565b600060208284031215611fa857600080fd5b6000611fb684828501611f57565b91505092915050565b60008060408385031215611fd257600080fd5b6000611fe085828601611f57565b9250506020611ff185828601611f57565b9150509250929050565b60008060006060848603121561201057600080fd5b600061201e86828701611f57565b935050602061202f86828701611f57565b925050604061204086828701611f6c565b9150509250925092565b6000806040838503121561205d57600080fd5b600061206b85828601611f57565b925050602061207c85828601611f6c565b9150509250929050565b60006020828403121561209857600080fd5b60006120a684828501611f6c565b91505092915050565b6000602082840312156120c157600080fd5b60006120cf84828501611f81565b91505092915050565b60006120e48383612811565b60e08301905092915050565b6120f981612d15565b82525050565b61210881612d15565b82525050565b600061211982612c15565b6121238185612c38565b935061212e83612c05565b8060005b8381101561215f57815161214688826120d8565b975061215183612c2b565b925050600181019050612132565b5085935050505092915050565b61217581612d27565b82525050565b61218481612d27565b82525050565b61219381612d33565b82525050565b6121a281612d33565b82525050565b60006121b382612c20565b6121bd8185612c49565b93506121cd818560208601612d74565b6121d681612ed9565b840191505092915050565b60006121ee602383612c49565b91507f45524332303a207472616e7366657220746f20746865207a65726f206164647260008301527f65737300000000000000000000000000000000000000000000000000000000006020830152604082019050919050565b6000612254602283612c49565b91507f45524332303a206275726e20616d6f756e7420657863656564732062616c616e60008301527f63650000000000000000000000000000000000000000000000000000000000006020830152604082019050919050565b60006122ba601f83612c49565b91507f43686169726d616e206164647265737320646f6573206e6f74206578697374006000830152602082019050919050565b60006122fa602283612c49565b91507f45524332303a20617070726f766520746f20746865207a65726f20616464726560008301527f73730000000000000000000000000000000000000000000000000000000000006020830152604082019050919050565b6000612360601d83612c49565b91507f45524332303a20696e73756666696369656e7420616c6c6f77616e63650000006000830152602082019050919050565b60006123a0602283612c49565b91507f496e73756666696369656e742062616c616e636520666f7220756e7374616b6960008301527f6e670000000000000000000000000000000000000000000000000000000000006020830152604082019050919050565b6000612406602683612c49565b91507f45524332303a207472616e7366657220616d6f756e742065786365656473206260008301527f616c616e636500000000000000000000000000000000000000000000000000006020830152604082019050919050565b600061246c602083612c49565b91507f496e73756666696369656e742062616c616e636520666f72207374616b696e676000830152602082019050919050565b60006124ac602583612c49565b91507f41646472657373206e6f74206c696e6b656420746f20616e79207374616b656860008301527f6f6c6465720000000000000000000000000000000000000000000000000000006020830152604082019050919050565b6000612512602183612c49565b91507f4f6e6c792063686169726d616e2063616e20656e642063757272656e7420657260008301527f61000000000000000000000000000000000000000000000000000000000000006020830152604082019050919050565b6000612578602983612c49565b91507f496e76616c696420696e64657820666f72207374616b65686f6c64657273206360008301527f6f6c6c656374696f6e00000000000000000000000000000000000000000000006020830152604082019050919050565b60006125de602183612c49565b91507f45524332303a206275726e2066726f6d20746865207a65726f2061646472657360008301527f73000000000000000000000000000000000000000000000000000000000000006020830152604082019050919050565b6000612644602583612c49565b91507f45524332303a207472616e736665722066726f6d20746865207a65726f20616460008301527f64726573730000000000000000000000000000000000000000000000000000006020830152604082019050919050565b60006126aa602483612c49565b91507f45524332303a20617070726f76652066726f6d20746865207a65726f2061646460008301527f72657373000000000000000000000000000000000000000000000000000000006020830152604082019050919050565b6000612710602583612c49565b91507f45524332303a2064656372656173656420616c6c6f77616e63652062656c6f7760008301527f207a65726f0000000000000000000000000000000000000000000000000000006020830152604082019050919050565b6000612776601f83612c49565b91507f45524332303a206d696e7420746f20746865207a65726f2061646472657373006000830152602082019050919050565b60a0820160008201516127bf600085018261218a565b5060208201516127d2602085018261289f565b5060408201516127e5604085018261289f565b5060608201516127f8606085018261289f565b50608082015161280b60808501826120f0565b50505050565b60e08201600082015161282760008501826120f0565b50602082015161283a602085018261289f565b50604082015161284d604085018261289f565b506060820151612860606085018261289f565b506080820151612873608085018261289f565b5060a082015161288660a085018261216c565b5060c082015161289960c085018261289f565b50505050565b6128a881612d5d565b82525050565b6128b781612d5d565b82525050565b6128c681612d67565b82525050565b60006020820190506128e160008301846120ff565b92915050565b60006020820190508181036000830152612901818461210e565b905092915050565b600060208201905061291e600083018461217b565b92915050565b60006020820190506129396000830184612199565b92915050565b6000602082019050818103600083015261295981846121a8565b905092915050565b6000602082019050818103600083015261297a816121e1565b9050919050565b6000602082019050818103600083015261299a81612247565b9050919050565b600060208201905081810360008301526129ba816122ad565b9050919050565b600060208201905081810360008301526129da816122ed565b9050919050565b600060208201905081810360008301526129fa81612353565b9050919050565b60006020820190508181036000830152612a1a81612393565b9050919050565b60006020820190508181036000830152612a3a816123f9565b9050919050565b60006020820190508181036000830152612a5a8161245f565b9050919050565b60006020820190508181036000830152612a7a8161249f565b9050919050565b60006020820190508181036000830152612a9a81612505565b9050919050565b60006020820190508181036000830152612aba8161256b565b9050919050565b60006020820190508181036000830152612ada816125d1565b9050919050565b60006020820190508181036000830152612afa81612637565b9050919050565b60006020820190508181036000830152612b1a8161269d565b9050919050565b60006020820190508181036000830152612b3a81612703565b9050919050565b60006020820190508181036000830152612b5a81612769565b9050919050565b600060a082019050612b7660008301846127a9565b92915050565b6000602082019050612b9160008301846128ae565b92915050565b600060a082019050612bac60008301886128ae565b612bb960208301876128ae565b612bc660408301866128ae565b612bd360608301856128ae565b612be0608083018461217b565b9695505050505050565b6000602082019050612bff60008301846128bd565b92915050565b6000819050602082019050919050565b600081519050919050565b600081519050919050565b6000602082019050919050565b600082825260208201905092915050565b600082825260208201905092915050565b6000612c6582612d5d565b9150612c7083612d5d565b9250827fffffffffffffffffffffffffffffffffffffffffffffffffffffffffffffffff03821115612ca557612ca4612e4c565b5b828201905092915050565b6000612cbb82612d5d565b9150612cc683612d5d565b925082612cd657612cd5612e7b565b5b828204905092915050565b6000612cec82612d5d565b9150612cf783612d5d565b925082821015612d0a57612d09612e4c565b5b828203905092915050565b6000612d2082612d3d565b9050919050565b60008115159050919050565b6000819050919050565b600073ffffffffffffffffffffffffffffffffffffffff82169050919050565b6000819050919050565b600060ff82169050919050565b60005b83811015612d92578082015181840152602081019050612d77565b83811115612da1576000848401525b50505050565b6000612db282612d5d565b91506000821415612dc657612dc5612e4c565b5b600182039050919050565b60006002820490506001821680612de957607f821691505b60208210811415612dfd57612dfc612eaa565b5b50919050565b6000612e0e82612d5d565b91507fffffffffffffffffffffffffffffffffffffffffffffffffffffffffffffffff821415612e4157612e40612e4c565b5b600182019050919050565b7f4e487b7100000000000000000000000000000000000000000000000000000000600052601160045260246000fd5b7f4e487b7100000000000000000000000000000000000000000000000000000000600052601260045260246000fd5b7f4e487b7100000000000000000000000000000000000000000000000000000000600052602260045260246000fd5b6000601f19601f8301169050919050565b612ef381612d15565b8114612efe57600080fd5b50565b612f0a81612d5d565b8114612f1557600080fd5b5056fea2646970667358221220bb32b54c0512fd89d04e16d946454414eaee1df9ae0fdd74863ede356e65d72c64736f6c63430008000033",
  "immutableReferences": {
    "1850": [
      {
        "length": 32,
        "start": 3312
      }
    ],
    "1852": [
      {
        "length": 32,
        "start": 1890
      },
      {
        "length": 32,
        "start": 5760
      },
      {
        "length": 32,
        "start": 6628
      }
    ]
  },
  "source": "pragma solidity ^0.8.0;\r\n\r\nimport \"@openzeppelin/contracts/token/ERC20/ERC20.sol\";\r\nimport \"../Interfaces/IStakable.sol\";\r\nimport \"../utils/NominatingStakeholders.sol\";\r\nimport \"../utils/Eras.sol\";\r\nimport \"../Interfaces/IProofOfStake.sol\";\r\nimport \"../Interfaces/IErasMonitor.sol\";\r\n\r\ncontract ERC20Stakable is IErasMonitor, IProofOfStake, IStakable, ERC20 {\r\n    uint256 immutable _rewardForValidatorsAfterEachEra;\r\n    uint256 immutable _minStakedAmountForValidation;\r\n    uint256 private _validatorsCount;\r\n    uint256 private _erasCount;\r\n    Stakeholders.Stakeholder[] private _stakeholders;\r\n    mapping(address => uint256) private _validatorsStakeholderIndexes;\r\n    mapping(address => uint256) private _stakeholdersIndexes;\r\n    mapping(bytes32 => Eras.Era) private _eras;\r\n    Eras.Era private _currentErra;\r\n\r\n    constructor(\r\n        string memory name_,\r\n        string memory symbol_,\r\n        uint256 minStakedAmountForValidation_,\r\n        uint256 rewardForValidatorsAfterEachEra_\r\n    ) ERC20(name_, symbol_) {\r\n        _minStakedAmountForValidation = minStakedAmountForValidation_;\r\n        _validatorsCount = 0;\r\n        _erasCount = 0;\r\n        _rewardForValidatorsAfterEachEra = rewardForValidatorsAfterEachEra_;\r\n    }\r\n\r\n    modifier notNullAddress(address address_) {\r\n        require(address_ != address(0));\r\n        _;\r\n    }\r\n\r\n    function getStakedAmount(address address_)\r\n        external\r\n        view\r\n        override\r\n        notNullAddress(address_)\r\n        returns (uint256)\r\n    {\r\n        uint256 stakeholderIndex = _getStakeholderIndex(address_);\r\n        if (stakeholderIndex == 0) {\r\n            //no stakeholder registered\r\n            return 0;\r\n        }\r\n        Stakeholders.Stakeholder storage stakeholder = _stakeholders[\r\n            stakeholderIndex\r\n        ];\r\n        return stakeholder.totalAmount;\r\n    }\r\n\r\n    function getStakeholderInformation(address address_)\r\n        external\r\n        view\r\n        override\r\n        returns (\r\n            uint256,\r\n            uint256,\r\n            uint256,\r\n            uint256,\r\n            bool\r\n        )\r\n    {\r\n        uint256 stakeholderIndex = _getStakeholderIndex(address_);\r\n\r\n        require(stakeholderIndex > 0, \"Address not linked to any stakeholder\");\r\n\r\n        Stakeholders.Stakeholder storage stakeholder = _stakeholders[\r\n            stakeholderIndex\r\n        ];\r\n\r\n        return (\r\n            stakeholder.totalAmount,\r\n            stakeholder.ownedAmount,\r\n            stakeholder.nominatedAmount,\r\n            stakeholder.nominatorsCount,\r\n            stakeholder.canValidate\r\n        );\r\n    }\r\n\r\n    function stake(uint256 amount_) external override {\r\n        address stakeholderAddress = msg.sender;\r\n\r\n        //fisrst check if the caller has at least amount_ tokens\r\n        uint256 balance = this.balanceOf(stakeholderAddress);\r\n\r\n        require(balance >= amount_, \"Insufficient balance for staking\");\r\n        //second check if stakeholder exist\r\n        uint256 stakeholderIndex = _getStakeholderIndex(stakeholderAddress);\r\n        if (stakeholderIndex == 0) {\r\n            //stakeholder does not exists. Create new one and stake the amout\r\n            _createNewStakeholder(stakeholderAddress, amount_);\r\n        } else {\r\n            _stakeholderUpdateOwnStakedAmount(stakeholderIndex, amount_);\r\n        }\r\n\r\n        //burn tokens from balance\r\n        _burn(stakeholderAddress, amount_);\r\n    }\r\n\r\n    function unstake(uint256 amount_) external override {\r\n        address stakeholderAddress = msg.sender;\r\n        uint256 stakeholderIndex = _stakeholdersIndexes[stakeholderAddress];\r\n        if (stakeholderIndex == 0) {\r\n            // this user no longer have any staked ammount\r\n            return;\r\n        }\r\n\r\n        Stakeholders.Stakeholder storage stakeholder = _stakeholders[\r\n            stakeholderIndex\r\n        ];\r\n        require(\r\n            stakeholder.totalAmount >= amount_,\r\n            \"Insufficient balance for unstaking\"\r\n        );\r\n\r\n        uint256 newAmount = stakeholder.totalAmount -= amount_;\r\n\r\n        stakeholder.totalAmount = newAmount;\r\n        stakeholder.ownedAmount = newAmount;\r\n\r\n        if (newAmount >= _minStakedAmountForValidation) {\r\n            stakeholder.canValidate = true;\r\n        } else {\r\n            stakeholder.canValidate = false;\r\n            _validatorsCount--;\r\n        }\r\n\r\n        //mint amount_ tokes to address\r\n        _mint(stakeholderAddress, amount_);\r\n    }\r\n\r\n    function getStakeholders()\r\n        external\r\n        view\r\n        override\r\n        returns (Stakeholders.Stakeholder[] memory stakeholders)\r\n    {\r\n        return _stakeholders;\r\n    }\r\n\r\n    function _getStakeholderIndex(address address_)\r\n        internal\r\n        view\r\n        virtual\r\n        notNullAddress(address_)\r\n        returns (uint256)\r\n    {\r\n        uint256 stakeholderIndex = _stakeholdersIndexes[address_];\r\n        if (stakeholderIndex == 0) return 0;\r\n        require(\r\n            stakeholderIndex <= _stakeholders.length - 1,\r\n            \"Invalid index for stakeholders collection\"\r\n        );\r\n\r\n        return stakeholderIndex;\r\n    }\r\n\r\n    function _createNewStakeholder(address address_, uint256 amount_)\r\n        internal\r\n        virtual\r\n    {\r\n        bool canValidate = amount_ >= _minStakedAmountForValidation;\r\n        uint256 newStakeholderIndex = _stakeholders.length;\r\n\r\n        if (newStakeholderIndex == 0) {\r\n            newStakeholderIndex++;\r\n            // this is very first stakeholder. Create a fake one at index 0.\r\n            _stakeholders.push(\r\n                Stakeholders.Stakeholder({\r\n                    user: address(0),\r\n                    totalAmount: 0,\r\n                    ownedAmount: 0,\r\n                    nominatedAmount: 0,\r\n                    nominatorsCount: 0,\r\n                    canValidate: false,\r\n                    notCollectedTokenRewards: 0\r\n                })\r\n            );\r\n        }\r\n\r\n        _stakeholders.push(\r\n            Stakeholders.Stakeholder({\r\n                user: address_,\r\n                totalAmount: amount_,\r\n                ownedAmount: amount_,\r\n                nominatedAmount: 0,\r\n                nominatorsCount: 0,\r\n                canValidate: canValidate,\r\n                notCollectedTokenRewards: 0\r\n            })\r\n        );\r\n\r\n        _stakeholdersIndexes[address_] = newStakeholderIndex;\r\n        _tryRecordStakeholderAsNewValidator(\r\n            canValidate,\r\n            address_,\r\n            newStakeholderIndex\r\n        );\r\n    }\r\n\r\n    function _stakeholderUpdateOwnStakedAmount(\r\n        uint256 stakeholderIndex_,\r\n        uint256 amount_\r\n    ) internal virtual {\r\n        Stakeholders.Stakeholder storage stakeHolder = _stakeholders[\r\n            stakeholderIndex_\r\n        ];\r\n\r\n        stakeHolder.totalAmount += amount_;\r\n        stakeHolder.ownedAmount += amount_;\r\n\r\n        if (!stakeHolder.canValidate) {\r\n            //check if he can now\r\n            bool canValidate = stakeHolder.totalAmount >=\r\n                _minStakedAmountForValidation;\r\n\r\n            if (canValidate) {\r\n                stakeHolder.canValidate = true;\r\n\r\n                _tryRecordStakeholderAsNewValidator(\r\n                    canValidate,\r\n                    stakeHolder.user,\r\n                    stakeholderIndex_\r\n                );\r\n            }\r\n        }\r\n    }\r\n\r\n    function _tryRecordStakeholderAsNewValidator(\r\n        bool canValidate_,\r\n        address address_,\r\n        uint256 validatorIndex_\r\n    ) internal returns (bool) {\r\n        if (!canValidate_) {\r\n            return false;\r\n        }\r\n        uint256 validatorIndex = _validatorsStakeholderIndexes[address_];\r\n        if (validatorIndex == 0) {\r\n            //we don't have any valid validator\r\n            _validatorsStakeholderIndexes[address_] = validatorIndex_;\r\n            _validatorsCount++;\r\n        }\r\n        //else validator already exist in records\r\n        return true;\r\n    }\r\n\r\n    //** for INTERFACE !!! */\r\n    function getValidatorsCount() external view override returns (uint256) {\r\n        return _validatorsCount;\r\n    }\r\n\r\n    function getCurrentEra()\r\n        external\r\n        view\r\n        override\r\n        returns (Eras.Era memory currentEra)\r\n    {\r\n        return _currentErra;\r\n    }\r\n\r\n    function getErasCount() external view override returns (uint256) {\r\n        return _erasCount;\r\n    }\r\n\r\n    function endCurrentEra() external {\r\n        address caller = msg.sender;\r\n        Eras.Era memory lastEra = _getCurrentEraInternal();\r\n        //TODO: validation for time elapsed\r\n        require(\r\n            caller == lastEra.chairman,\r\n            \"Only chairman can end current era\"\r\n        );\r\n        _payReward(\r\n            lastEra.colectedFeesAmount + _rewardForValidatorsAfterEachEra,\r\n            caller\r\n        );\r\n    }\r\n\r\n    function electNewChairman() external returns (address) {}\r\n\r\n    function startNewEra() external returns (bytes32) {}\r\n\r\n    function _getCurrentEraInternal()\r\n        internal\r\n        view\r\n        returns (Eras.Era memory era)\r\n    {\r\n        return _currentErra;\r\n    }\r\n\r\n    function _payReward(uint256 tokenAmountForDistribution_, address chainman_)\r\n        internal\r\n        virtual\r\n    {\r\n        //simple scheme withoud nominators\r\n        //this reward scheme can be ovveriden for much complex one\r\n        //for simple reward distribution\r\n        //chainrman gets 50% of all fees\r\n        uint256 chairmainsReward = tokenAmountForDistribution_ / 2;\r\n        uint256 stakeholderIndex = _stakeholdersIndexes[chainman_];\r\n        Stakeholders.Stakeholder storage chairman = _stakeholders[\r\n            stakeholderIndex\r\n        ];\r\n\r\n        require(chairman.user != address(0), \"Chairman address does not exist\");\r\n\r\n        chairman.notCollectedTokenRewards += chairmainsReward;\r\n\r\n        uint256 remainingAmountForDistribution = tokenAmountForDistribution_ -\r\n            chairmainsReward;\r\n\r\n        //TODO: calculate remaining rewards for the rest of the voting council for this era\r\n    }\r\n}\r\n",
  "sourcePath": "D:\\Documents\\Dev\\Repositories\\gold-price-oracle\\gold-price-oracle\\on-chain\\contracts\\token\\base\\ERC20Stakable.sol",
  "compiler": {
    "name": "solc",
    "version": "0.8.0+commit.c7dfd78e.Emscripten.clang"
  },
  "schemaVersion": "3.4.3",
  "updatedAt": "2022-03-04T14:10:37.809Z",
  "devdoc": {
    "kind": "dev",
    "methods": {
      "allowance(address,address)": {
        "details": "See {IERC20-allowance}."
      },
      "approve(address,uint256)": {
        "details": "See {IERC20-approve}. NOTE: If `amount` is the maximum `uint256`, the allowance is not updated on `transferFrom`. This is semantically equivalent to an infinite approval. Requirements: - `spender` cannot be the zero address."
      },
      "balanceOf(address)": {
        "details": "See {IERC20-balanceOf}."
      },
      "decimals()": {
        "details": "Returns the number of decimals used to get its user representation. For example, if `decimals` equals `2`, a balance of `505` tokens should be displayed to a user as `5.05` (`505 / 10 ** 2`). Tokens usually opt for a value of 18, imitating the relationship between Ether and Wei. This is the value {ERC20} uses, unless this function is overridden; NOTE: This information is only used for _display_ purposes: it in no way affects any of the arithmetic of the contract, including {IERC20-balanceOf} and {IERC20-transfer}."
      },
      "decreaseAllowance(address,uint256)": {
        "details": "Atomically decreases the allowance granted to `spender` by the caller. This is an alternative to {approve} that can be used as a mitigation for problems described in {IERC20-approve}. Emits an {Approval} event indicating the updated allowance. Requirements: - `spender` cannot be the zero address. - `spender` must have allowance for the caller of at least `subtractedValue`."
      },
      "increaseAllowance(address,uint256)": {
        "details": "Atomically increases the allowance granted to `spender` by the caller. This is an alternative to {approve} that can be used as a mitigation for problems described in {IERC20-approve}. Emits an {Approval} event indicating the updated allowance. Requirements: - `spender` cannot be the zero address."
      },
      "name()": {
        "details": "Returns the name of the token."
      },
      "symbol()": {
        "details": "Returns the symbol of the token, usually a shorter version of the name."
      },
      "totalSupply()": {
        "details": "See {IERC20-totalSupply}."
      },
      "transfer(address,uint256)": {
        "details": "See {IERC20-transfer}. Requirements: - `to` cannot be the zero address. - the caller must have a balance of at least `amount`."
      },
      "transferFrom(address,address,uint256)": {
        "details": "See {IERC20-transferFrom}. Emits an {Approval} event indicating the updated allowance. This is not required by the EIP. See the note at the beginning of {ERC20}. NOTE: Does not update the allowance if the current allowance is the maximum `uint256`. Requirements: - `from` and `to` cannot be the zero address. - `from` must have a balance of at least `amount`. - the caller must have allowance for ``from``'s tokens of at least `amount`."
      }
    },
    "version": 1
  },
  "userdoc": {
    "kind": "user",
    "methods": {},
    "version": 1
  }
}