{
  "contractName": "GoldPriceResolver",
  "abi": [
    {
      "inputs": [],
      "stateMutability": "nonpayable",
      "type": "constructor"
    },
    {
      "anonymous": false,
      "inputs": [
        {
          "indexed": false,
          "internalType": "string",
          "name": "assetSymbol",
          "type": "string"
        },
        {
          "indexed": false,
          "internalType": "string",
          "name": "currencySymbol",
          "type": "string"
        },
        {
          "indexed": false,
          "internalType": "bytes32",
          "name": "roundId",
          "type": "bytes32"
        },
        {
          "indexed": false,
          "internalType": "address",
          "name": "proposalEmiterAddress",
          "type": "address"
        },
        {
          "indexed": false,
          "internalType": "uint256",
          "name": "price",
          "type": "uint256"
        }
      ],
      "name": "NewPriceVote",
      "type": "event"
    },
    {
      "inputs": [],
      "name": "getLatestValidData",
      "outputs": [
        {
          "components": [
            {
              "internalType": "bytes32",
              "name": "roundId",
              "type": "bytes32"
            },
            {
              "internalType": "uint256",
              "name": "nonce",
              "type": "uint256"
            },
            {
              "internalType": "address",
              "name": "node",
              "type": "address"
            },
            {
              "internalType": "uint256",
              "name": "price",
              "type": "uint256"
            },
            {
              "internalType": "string",
              "name": "assetCode",
              "type": "string"
            },
            {
              "internalType": "string",
              "name": "currencyCode",
              "type": "string"
            },
            {
              "internalType": "uint256",
              "name": "requiredQuorum",
              "type": "uint256"
            },
            {
              "internalType": "bool",
              "name": "isQuorumReached",
              "type": "bool"
            },
            {
              "internalType": "uint256",
              "name": "acceptVotes",
              "type": "uint256"
            },
            {
              "internalType": "uint256",
              "name": "refuseVotes",
              "type": "uint256"
            }
          ],
          "internalType": "struct Rounds.Round",
          "name": "round",
          "type": "tuple"
        }
      ],
      "stateMutability": "view",
      "type": "function"
    },
    {
      "inputs": [
        {
          "internalType": "address",
          "name": "nodeAddress_",
          "type": "address"
        },
        {
          "internalType": "uint256",
          "name": "price_",
          "type": "uint256"
        }
      ],
      "name": "startNewPriceRound",
      "outputs": [],
      "stateMutability": "nonpayable",
      "type": "function"
    },
    {
      "inputs": [
        {
          "internalType": "bytes32",
          "name": "roundId_",
          "type": "bytes32"
        },
        {
          "internalType": "uint256",
          "name": "price_",
          "type": "uint256"
        }
      ],
      "name": "votePriceForRound",
      "outputs": [],
      "stateMutability": "nonpayable",
      "type": "function"
    }
  ],
  "bytecode": "0x60a06040526004600555735b38da6a701c568545dcfcb03fcb875f56beddc4600660006101000a81548173ffffffffffffffffffffffffffffffffffffffff021916908373ffffffffffffffffffffffffffffffffffffffff1602179055503480156200006b57600080fd5b506040518060400160405280600381526020017f58554100000000000000000000000000000000000000000000000000000000008152506040518060400160405280600481526020017f5553445400000000000000000000000000000000000000000000000000000000815250600380608081815250508260009080519060200190620000fa929190620003f6565b50816001908051906020019062000113929190620003f6565b50620001246200012d60201b60201c565b50505062000613565b60008060405160200162000142919062000503565b604051602081830303815290604052805190602001209050600260405180610140016040528083815260200160008152602001600073ffffffffffffffffffffffffffffffffffffffff1681526020016000815260200160008054620001a89062000579565b80601f0160208091040260200160405190810160405280929190818152602001828054620001d69062000579565b8015620002275780601f10620001fb5761010080835404028352916020019162000227565b820191906000526020600020905b8154815290600101906020018083116200020957829003601f168201915b5050505050815260200160018054620002409062000579565b80601f01602080910402602001604051908101604052809291908181526020018280546200026e9062000579565b8015620002bf5780601f106200029357610100808354040283529160200191620002bf565b820191906000526020600020905b815481529060010190602001808311620002a157829003601f168201915b505050505081526020016000815260200160001515815260200160008152602001600081525090806001815401808255809150506001900390600052602060002090600a0201600090919091909150600082015181600001556020820151816001015560408201518160020160006101000a81548173ffffffffffffffffffffffffffffffffffffffff021916908373ffffffffffffffffffffffffffffffffffffffff16021790555060608201518160030155608082015181600401908051906020019062000391929190620003f6565b5060a0820151816005019080519060200190620003b0929190620003f6565b5060c0820151816006015560e08201518160070160006101000a81548160ff02191690831515021790555061010082015181600801556101208201518160090155505050565b828054620004049062000579565b90600052602060002090601f01602090048101928262000428576000855562000474565b82601f106200044357805160ff191683800117855562000474565b8280016001018555821562000474579182015b828111156200047357825182559160200191906001019062000456565b5b50905062000483919062000487565b5090565b5b80821115620004a257600081600090555060010162000488565b5090565b620004bb620004b58262000545565b620005af565b82525050565b6000620004d06001836200053a565b91507f30000000000000000000000000000000000000000000000000000000000000006000830152600182019050919050565b6000620005118284620004a6565b6014820191506200052282620004c1565b91506200052f82620004c1565b915081905092915050565b600081905092915050565b6000620005528262000559565b9050919050565b600073ffffffffffffffffffffffffffffffffffffffff82169050919050565b600060028204905060018216806200059257607f821691505b60208210811415620005a957620005a8620005d7565b5b50919050565b6000620005bc82620005c3565b9050919050565b6000620005d08262000606565b9050919050565b7f4e487b7100000000000000000000000000000000000000000000000000000000600052602260045260246000fd5b60008160601b9050919050565b608051611ff66200062f60003960006102150152611ff66000f3fe608060405234801561001057600080fd5b50600436106100415760003560e01c806387db480a14610046578063888a9fba14610062578063edf1aa7b14610080575b600080fd5b610060600480360381019061005b91906115eb565b61009c565b005b61006a610379565b6040516100779190611c4b565b60405180910390f35b61009a600480360381019061009591906115af565b6108a8565b005b600033905060006100ac84610df7565b90506000600282815481106100ea577f4e487b7100000000000000000000000000000000000000000000000000000000600052603260045260246000fd5b90600052602060002090600a0201905060006101068685611125565b90508160070160009054906101000a900460ff161561015a576040517f08c379a000000000000000000000000000000000000000000000000000000000815260040161015190611beb565b60405180910390fd5b600073ffffffffffffffffffffffffffffffffffffffff166004600083815260200190815260200160002060000160009054906101000a900473ffffffffffffffffffffffffffffffffffffffff1673ffffffffffffffffffffffffffffffffffffffff16146101ff576040517f08c379a00000000000000000000000000000000000000000000000000000000081526004016101f690611bcb565b60405180910390fd5b600061020f83600301548761115d565b905060007f000000000000000000000000000000000000000000000000000000000000000082109050801561025d5783600801600081548092919061025390611e4f565b9190505550610278565b83600901600081548092919061027290611e4f565b91905055505b60405180608001604052808773ffffffffffffffffffffffffffffffffffffffff1681526020018881526020018215158152602001838152506004600085815260200190815260200160002060008201518160000160006101000a81548173ffffffffffffffffffffffffffffffffffffffff021916908373ffffffffffffffffffffffffffffffffffffffff1602179055506020820151816001015560408201518160020160006101000a81548160ff02191690831515021790555060608201518160030155905050836006015484600801541061036f5760018460070160006101000a81548160ff0219169083151502179055505b5050505050505050565b61038161145f565b6000600280549050905060018111156108a35760006001826103a39190611d3a565b90506000600282815481106103e1577f4e487b7100000000000000000000000000000000000000000000000000000000600052603260045260246000fd5b90600052602060002090600a02016040518061014001604052908160008201548152602001600182015481526020016002820160009054906101000a900473ffffffffffffffffffffffffffffffffffffffff1673ffffffffffffffffffffffffffffffffffffffff1673ffffffffffffffffffffffffffffffffffffffff1681526020016003820154815260200160048201805461047f90611e1d565b80601f01602080910402602001604051908101604052809291908181526020018280546104ab90611e1d565b80156104f85780601f106104cd576101008083540402835291602001916104f8565b820191906000526020600020905b8154815290600101906020018083116104db57829003601f168201915b5050505050815260200160058201805461051190611e1d565b80601f016020809104026020016040519081016040528092919081815260200182805461053d90611e1d565b801561058a5780601f1061055f5761010080835404028352916020019161058a565b820191906000526020600020905b81548152906001019060200180831161056d57829003601f168201915b50505050508152602001600682015481526020016007820160009054906101000a900460ff161515151581526020016008820154815260200160098201548152505090508060e00151156105e3578093505050506108a5565b60006001836105f29190611d3a565b90505b600081101561089f5760028181548110610638577f4e487b7100000000000000000000000000000000000000000000000000000000600052603260045260246000fd5b90600052602060002090600a020160070160009054906101000a900460ff161561088c5760028181548110610696577f4e487b7100000000000000000000000000000000000000000000000000000000600052603260045260246000fd5b90600052602060002090600a02016040518061014001604052908160008201548152602001600182015481526020016002820160009054906101000a900473ffffffffffffffffffffffffffffffffffffffff1673ffffffffffffffffffffffffffffffffffffffff1673ffffffffffffffffffffffffffffffffffffffff1681526020016003820154815260200160048201805461073490611e1d565b80601f016020809104026020016040519081016040528092919081815260200182805461076090611e1d565b80156107ad5780601f10610782576101008083540402835291602001916107ad565b820191906000526020600020905b81548152906001019060200180831161079057829003601f168201915b505050505081526020016005820180546107c690611e1d565b80601f01602080910402602001604051908101604052809291908181526020018280546107f290611e1d565b801561083f5780601f106108145761010080835404028352916020019161083f565b820191906000526020600020905b81548152906001019060200180831161082257829003601f168201915b50505050508152602001600682015481526020016007820160009054906101000a900460ff16151515158152602001600882015481526020016009820154815250509450505050506108a5565b808061089790611df3565b9150506105f5565b5050505b505b90565b600073ffffffffffffffffffffffffffffffffffffffff168273ffffffffffffffffffffffffffffffffffffffff161415610918576040517f08c379a000000000000000000000000000000000000000000000000000000000815260040161090f90611bab565b60405180910390fd5b600660009054906101000a900473ffffffffffffffffffffffffffffffffffffffff1673ffffffffffffffffffffffffffffffffffffffff168273ffffffffffffffffffffffffffffffffffffffff16146109a8576040517f08c379a000000000000000000000000000000000000000000000000000000000815260040161099f90611c0b565b60405180910390fd5b6000806109b36111c9565b905060008160200151146109c957806020015191505b81806109d490611e4f565b92505060006109e1611422565b90506000604051806101400160405280878688604051602001610a0693929190611aa1565b6040516020818303038152906040528051906020012081526020018581526020018773ffffffffffffffffffffffffffffffffffffffff16815260200186815260200160008054610a5690611e1d565b80601f0160208091040260200160405190810160405280929190818152602001828054610a8290611e1d565b8015610acf5780601f10610aa457610100808354040283529160200191610acf565b820191906000526020600020905b815481529060010190602001808311610ab257829003601f168201915b5050505050815260200160018054610ae690611e1d565b80601f0160208091040260200160405190810160405280929190818152602001828054610b1290611e1d565b8015610b5f5780601f10610b3457610100808354040283529160200191610b5f565b820191906000526020600020905b815481529060010190602001808311610b4257829003601f168201915b50505050508152602001838152602001836001101515158152602001600181526020016000815250905060028190806001815401808255809150506001900390600052602060002090600a0201600090919091909150600082015181600001556020820151816001015560408201518160020160006101000a81548173ffffffffffffffffffffffffffffffffffffffff021916908373ffffffffffffffffffffffffffffffffffffffff160217905550606082015181600301556080820151816004019080519060200190610c369291906114cd565b5060a0820151816005019080519060200190610c539291906114cd565b5060c0820151816006015560e08201518160070160006101000a81548160ff0219169083151502179055506101008201518160080155610120820151816009015550506001600280549050610ca89190611d3a565b6003600083600001518152602001908152602001600020819055507f78f6908c0a8d2c9158f488b36cdaca399ee238cd3cfc479e8db761f1aa90765160006001836000015184604001518560600151604051610d08959493929190611b0a565b60405180910390a16000610d20826000015188611125565b905060405180608001604052808873ffffffffffffffffffffffffffffffffffffffff16815260200187815260200160011515815260200160008152506004600083815260200190815260200160002060008201518160000160006101000a81548173ffffffffffffffffffffffffffffffffffffffff021916908373ffffffffffffffffffffffffffffffffffffffff1602179055506020820151816001015560408201518160020160006101000a81548160ff0219169083151502179055506060820151816003015590505050505050505050565b600080600360008481526020019081526020016000205490506000811415610e54576040517f08c379a0000000000000000000000000000000000000000000000000000000008152600401610e4b90611c2b565b60405180910390fd5b600060028281548110610e90577f4e487b7100000000000000000000000000000000000000000000000000000000600052603260045260246000fd5b90600052602060002090600a02016040518061014001604052908160008201548152602001600182015481526020016002820160009054906101000a900473ffffffffffffffffffffffffffffffffffffffff1673ffffffffffffffffffffffffffffffffffffffff1673ffffffffffffffffffffffffffffffffffffffff16815260200160038201548152602001600482018054610f2e90611e1d565b80601f0160208091040260200160405190810160405280929190818152602001828054610f5a90611e1d565b8015610fa75780601f10610f7c57610100808354040283529160200191610fa7565b820191906000526020600020905b815481529060010190602001808311610f8a57829003601f168201915b50505050508152602001600582018054610fc090611e1d565b80601f0160208091040260200160405190810160405280929190818152602001828054610fec90611e1d565b80156110395780601f1061100e57610100808354040283529160200191611039565b820191906000526020600020905b81548152906001019060200180831161101c57829003601f168201915b50505050508152602001600682015481526020016007820160009054906101000a900460ff1615151515815260200160088201548152602001600982015481525050905060006110876111c9565b905080600001518260000151146110d3576040517f08c379a00000000000000000000000000000000000000000000000000000000081526004016110ca90611b6b565b60405180910390fd5b600081602001511161111a576040517f08c379a000000000000000000000000000000000000000000000000000000000815260040161111190611b8b565b60405180910390fd5b829350505050919050565b600080838360405160200161113b929190611ade565b6040516020818303038152906040528051906020012090508091505092915050565b600080600090508284111561117f5782846111789190611d3a565b905061118e565b838361118b9190611d3a565b90505b60008114156111a15760009150506111c3565b6000846064836111b19190611ce0565b6111bb9190611caf565b905080925050505b92915050565b6111d161145f565b60006002805490509050600181111561141d5760026001826111f39190611d3a565b8154811061122a577f4e487b7100000000000000000000000000000000000000000000000000000000600052603260045260246000fd5b90600052602060002090600a02016040518061014001604052908160008201548152602001600182015481526020016002820160009054906101000a900473ffffffffffffffffffffffffffffffffffffffff1673ffffffffffffffffffffffffffffffffffffffff1673ffffffffffffffffffffffffffffffffffffffff168152602001600382015481526020016004820180546112c890611e1d565b80601f01602080910402602001604051908101604052809291908181526020018280546112f490611e1d565b80156113415780601f1061131657610100808354040283529160200191611341565b820191906000526020600020905b81548152906001019060200180831161132457829003601f168201915b5050505050815260200160058201805461135a90611e1d565b80601f016020809104026020016040519081016040528092919081815260200182805461138690611e1d565b80156113d35780601f106113a8576101008083540402835291602001916113d3565b820191906000526020600020905b8154815290600101906020018083116113b657829003601f168201915b50505050508152602001600682015481526020016007820160009054906101000a900460ff161515151581526020016008820154815260200160098201548152505091505061141f565b505b90565b600060016005541415611438576001905061145c565b60006064603360055461144b9190611ce0565b6114559190611caf565b9050809150505b90565b6040518061014001604052806000801916815260200160008152602001600073ffffffffffffffffffffffffffffffffffffffff1681526020016000815260200160608152602001606081526020016000815260200160001515815260200160008152602001600081525090565b8280546114d990611e1d565b90600052602060002090601f0160209004810192826114fb5760008555611542565b82601f1061151457805160ff1916838001178555611542565b82800160010185558215611542579182015b82811115611541578251825591602001919060010190611526565b5b50905061154f9190611553565b5090565b5b8082111561156c576000816000905550600101611554565b5090565b60008135905061157f81611f7b565b92915050565b60008135905061159481611f92565b92915050565b6000813590506115a981611fa9565b92915050565b600080604083850312156115c257600080fd5b60006115d085828601611570565b92505060206115e18582860161159a565b9150509250929050565b600080604083850312156115fe57600080fd5b600061160c85828601611585565b925050602061161d8582860161159a565b9150509250929050565b61163081611d6e565b82525050565b61163f81611d6e565b82525050565b61165661165182611d6e565b611e98565b82525050565b61166581611d80565b82525050565b61167481611d8c565b82525050565b61168381611d8c565b82525050565b61169a61169582611d8c565b611eaa565b82525050565b60006116ab82611c82565b6116b58185611c8d565b93506116c5818560208601611dc0565b6116ce81611f5d565b840191505092915050565b600081546116e681611e1d565b6116f08186611c9e565b9450600182166000811461170b576001811461171d57611750565b60ff1983168652602086019350611750565b61172685611c6d565b60005b8381101561174857815481890152600182019150602081019050611729565b808801955050505b50505092915050565b6000611766603b83611c9e565b91507f566f74696e6720666f72206f6c6420726f756e642e2054686520726f756e644960008301527f642062656c6f6e677320746f2070726576696f757320726f756e6400000000006020830152604082019050919050565b60006117cc602e83611c9e565b91507f43616e6e6f742076616c696461746520726f756e642e204e6f20726f756e647360008301527f206172652070726573656e7465640000000000000000000000000000000000006020830152604082019050919050565b6000611832601783611c9e565b91507f4e756c6c206164647265737320697320696e76616c69640000000000000000006000830152602082019050919050565b6000611872601583611c9e565b91507f43616c6c657220616c726561647920766f7465642100000000000000000000006000830152602082019050919050565b60006118b2601d83611c9e565b91507f51756f72756d207265616368656420666f72207468617420726f756e640000006000830152602082019050919050565b60006118f2602883611c9e565b91507f476976656e2061646472657373206e6f7420656c656374656420666f7220766160008301527f6c69646174696f6e0000000000000000000000000000000000000000000000006020830152604082019050919050565b6000611958601183611c9e565b91507f496e76616c696420726f756e64206964200000000000000000000000000000006000830152602082019050919050565b6000610140830160008301516119a4600086018261166b565b5060208301516119b76020860182611a6c565b5060408301516119ca6040860182611627565b5060608301516119dd6060860182611a6c565b50608083015184820360808601526119f582826116a0565b91505060a083015184820360a0860152611a0f82826116a0565b91505060c0830151611a2460c0860182611a6c565b5060e0830151611a3760e086018261165c565b50610100830151611a4c610100860182611a6c565b50610120830151611a61610120860182611a6c565b508091505092915050565b611a7581611db6565b82525050565b611a8481611db6565b82525050565b611a9b611a9682611db6565b611ec6565b82525050565b6000611aad8286611645565b601482019150611abd8285611a8a565b602082019150611acd8284611a8a565b602082019150819050949350505050565b6000611aea8285611689565b602082019150611afa8284611645565b6014820191508190509392505050565b600060a0820190508181036000830152611b2481886116d9565b90508181036020830152611b3881876116d9565b9050611b47604083018661167a565b611b546060830185611636565b611b616080830184611a7b565b9695505050505050565b60006020820190508181036000830152611b8481611759565b9050919050565b60006020820190508181036000830152611ba4816117bf565b9050919050565b60006020820190508181036000830152611bc481611825565b9050919050565b60006020820190508181036000830152611be481611865565b9050919050565b60006020820190508181036000830152611c04816118a5565b9050919050565b60006020820190508181036000830152611c24816118e5565b9050919050565b60006020820190508181036000830152611c448161194b565b9050919050565b60006020820190508181036000830152611c65818461198b565b905092915050565b60008190508160005260206000209050919050565b600081519050919050565b600082825260208201905092915050565b600082825260208201905092915050565b6000611cba82611db6565b9150611cc583611db6565b925082611cd557611cd4611eff565b5b828204905092915050565b6000611ceb82611db6565b9150611cf683611db6565b9250817fffffffffffffffffffffffffffffffffffffffffffffffffffffffffffffffff0483118215151615611d2f57611d2e611ed0565b5b828202905092915050565b6000611d4582611db6565b9150611d5083611db6565b925082821015611d6357611d62611ed0565b5b828203905092915050565b6000611d7982611d96565b9050919050565b60008115159050919050565b6000819050919050565b600073ffffffffffffffffffffffffffffffffffffffff82169050919050565b6000819050919050565b60005b83811015611dde578082015181840152602081019050611dc3565b83811115611ded576000848401525b50505050565b6000611dfe82611db6565b91506000821415611e1257611e11611ed0565b5b600182039050919050565b60006002820490506001821680611e3557607f821691505b60208210811415611e4957611e48611f2e565b5b50919050565b6000611e5a82611db6565b91507fffffffffffffffffffffffffffffffffffffffffffffffffffffffffffffffff821415611e8d57611e8c611ed0565b5b600182019050919050565b6000611ea382611eb4565b9050919050565b6000819050919050565b6000611ebf82611f6e565b9050919050565b6000819050919050565b7f4e487b7100000000000000000000000000000000000000000000000000000000600052601160045260246000fd5b7f4e487b7100000000000000000000000000000000000000000000000000000000600052601260045260246000fd5b7f4e487b7100000000000000000000000000000000000000000000000000000000600052602260045260246000fd5b6000601f19601f8301169050919050565b60008160601b9050919050565b611f8481611d6e565b8114611f8f57600080fd5b50565b611f9b81611d8c565b8114611fa657600080fd5b50565b611fb281611db6565b8114611fbd57600080fd5b5056fea264697066735822122071888ad1baa6d93533876ca2bb2e91abb35c191442e641dc40434b042c7b0a8564736f6c63430008000033",
  "immutableReferences": {
    "891": [
      {
        "length": 32,
        "start": 533
      }
    ]
  },
  "source": "pragma solidity ^0.8.0;\r\n\r\nimport \"../utils/Rounds.sol\";\r\nimport \"../utils/Votes.sol\";\r\nimport \"./base/BasePriceResolver.sol\";\r\n\r\n//PoC. Big Refactoring will happened!\r\ncontract GoldPriceResolver is BasePriceResolver {\r\n    uint256 constant MAXIMUM_ALLOWED_PRICE_DEVIATION_IN_PERCENTS = 3;\r\n    string constant GOLD_SYMBOL = \"XUA\"; //TODO; move to separate contract when refactor\r\n    string constant USDT_SYMBOL = \"USDT\";\r\n\r\n    constructor()\r\n        BasePriceResolver(\r\n            GOLD_SYMBOL,\r\n            USDT_SYMBOL,\r\n            MAXIMUM_ALLOWED_PRICE_DEVIATION_IN_PERCENTS\r\n        )\r\n    {}\r\n}\r\n",
  "sourcePath": "D:\\Documents\\Dev\\Repositories\\gold-price-oracle\\gold-price-oracle\\on-chain\\contracts\\oracle\\resolvers\\GoldPriceResolver.sol",
  "compiler": {
    "name": "solc",
    "version": "0.8.0+commit.c7dfd78e.Emscripten.clang"
  },
  "schemaVersion": "3.4.3",
  "updatedAt": "2022-02-25T14:27:01.238Z",
  "devdoc": {
    "kind": "dev",
    "methods": {},
    "version": 1
  },
  "userdoc": {
    "kind": "user",
    "methods": {},
    "version": 1
  }
}