{
  "contractName": "GoldPriceResolver",
  "abi": [
    {
      "inputs": [],
      "stateMutability": "nonpayable",
      "type": "constructor"
    },
    {
      "anonymous": false,
      "inputs": [
        {
          "indexed": false,
          "internalType": "string",
          "name": "assetSymbol",
          "type": "string"
        },
        {
          "indexed": false,
          "internalType": "string",
          "name": "currencySymbol",
          "type": "string"
        },
        {
          "indexed": false,
          "internalType": "bytes32",
          "name": "roundId",
          "type": "bytes32"
        },
        {
          "indexed": false,
          "internalType": "address",
          "name": "proposalEmiterAddress",
          "type": "address"
        },
        {
          "indexed": false,
          "internalType": "uint256",
          "name": "price",
          "type": "uint256"
        }
      ],
      "name": "NewPriceVote",
      "type": "event"
    },
    {
      "inputs": [],
      "name": "getLatestValidData",
      "outputs": [
        {
          "components": [
            {
              "internalType": "bytes32",
              "name": "roundId",
              "type": "bytes32"
            },
            {
              "internalType": "uint256",
              "name": "nonce",
              "type": "uint256"
            },
            {
              "internalType": "address",
              "name": "node",
              "type": "address"
            },
            {
              "internalType": "uint256",
              "name": "price",
              "type": "uint256"
            },
            {
              "internalType": "string",
              "name": "assetCode",
              "type": "string"
            },
            {
              "internalType": "string",
              "name": "currencyCode",
              "type": "string"
            },
            {
              "internalType": "uint256",
              "name": "requiredQuorum",
              "type": "uint256"
            },
            {
              "internalType": "bool",
              "name": "isQuorumReached",
              "type": "bool"
            },
            {
              "internalType": "uint256",
              "name": "acceptVotes",
              "type": "uint256"
            },
            {
              "internalType": "uint256",
              "name": "refuseVotes",
              "type": "uint256"
            }
          ],
          "internalType": "struct Rounds.Round",
          "name": "round",
          "type": "tuple"
        }
      ],
      "stateMutability": "view",
      "type": "function"
    },
    {
      "inputs": [],
      "name": "getRoundCount",
      "outputs": [
        {
          "internalType": "uint256",
          "name": "",
          "type": "uint256"
        }
      ],
      "stateMutability": "view",
      "type": "function"
    },
    {
      "inputs": [
        {
          "internalType": "address",
          "name": "nodeAddress_",
          "type": "address"
        },
        {
          "internalType": "uint256",
          "name": "price_",
          "type": "uint256"
        }
      ],
      "name": "startNewPriceRound",
      "outputs": [],
      "stateMutability": "nonpayable",
      "type": "function"
    },
    {
      "inputs": [
        {
          "internalType": "bytes32",
          "name": "roundId_",
          "type": "bytes32"
        },
        {
          "internalType": "uint256",
          "name": "price_",
          "type": "uint256"
        }
      ],
      "name": "votePriceForRound",
      "outputs": [],
      "stateMutability": "nonpayable",
      "type": "function"
    }
  ],
  "bytecode": "0x60a06040526004600555735b38da6a701c568545dcfcb03fcb875f56beddc4600660006101000a81548173ffffffffffffffffffffffffffffffffffffffff021916908373ffffffffffffffffffffffffffffffffffffffff1602179055503480156200006b57600080fd5b506040518060400160405280600381526020017f58554100000000000000000000000000000000000000000000000000000000008152506040518060400160405280600481526020017f5553445400000000000000000000000000000000000000000000000000000000815250600380608081815250508260009080519060200190620000fa929190620003f6565b50816001908051906020019062000113929190620003f6565b50620001246200012d60201b60201c565b50505062000613565b60008060405160200162000142919062000503565b604051602081830303815290604052805190602001209050600260405180610140016040528083815260200160008152602001600073ffffffffffffffffffffffffffffffffffffffff1681526020016000815260200160008054620001a89062000579565b80601f0160208091040260200160405190810160405280929190818152602001828054620001d69062000579565b8015620002275780601f10620001fb5761010080835404028352916020019162000227565b820191906000526020600020905b8154815290600101906020018083116200020957829003601f168201915b5050505050815260200160018054620002409062000579565b80601f01602080910402602001604051908101604052809291908181526020018280546200026e9062000579565b8015620002bf5780601f106200029357610100808354040283529160200191620002bf565b820191906000526020600020905b815481529060010190602001808311620002a157829003601f168201915b505050505081526020016000815260200160001515815260200160008152602001600081525090806001815401808255809150506001900390600052602060002090600a0201600090919091909150600082015181600001556020820151816001015560408201518160020160006101000a81548173ffffffffffffffffffffffffffffffffffffffff021916908373ffffffffffffffffffffffffffffffffffffffff16021790555060608201518160030155608082015181600401908051906020019062000391929190620003f6565b5060a0820151816005019080519060200190620003b0929190620003f6565b5060c0820151816006015560e08201518160070160006101000a81548160ff02191690831515021790555061010082015181600801556101208201518160090155505050565b828054620004049062000579565b90600052602060002090601f01602090048101928262000428576000855562000474565b82601f106200044357805160ff191683800117855562000474565b8280016001018555821562000474579182015b828111156200047357825182559160200191906001019062000456565b5b50905062000483919062000487565b5090565b5b80821115620004a257600081600090555060010162000488565b5090565b620004bb620004b58262000545565b620005af565b82525050565b6000620004d06001836200053a565b91507f30000000000000000000000000000000000000000000000000000000000000006000830152600182019050919050565b6000620005118284620004a6565b6014820191506200052282620004c1565b91506200052f82620004c1565b915081905092915050565b600081905092915050565b6000620005528262000559565b9050919050565b600073ffffffffffffffffffffffffffffffffffffffff82169050919050565b600060028204905060018216806200059257607f821691505b60208210811415620005a957620005a8620005d7565b5b50919050565b6000620005bc82620005c3565b9050919050565b6000620005d08262000606565b9050919050565b7f4e487b7100000000000000000000000000000000000000000000000000000000600052602260045260246000fd5b60008160601b9050919050565b60805161209b6200062f600039600061024b015261209b6000f3fe608060405234801561001057600080fd5b506004361061004c5760003560e01c80636de7da781461005157806387db480a1461006f578063888a9fba1461008b578063edf1aa7b146100a9575b600080fd5b6100596100c5565b6040516100669190611ca1565b60405180910390f35b6100896004803603810190610084919061161f565b6100d2565b005b6100936103ad565b6040516100a09190611c7f565b60405180910390f35b6100c360048036038101906100be91906115e3565b6108dc565b005b6000600280549050905090565b600033905060006100e284610e2b565b9050600060028281548110610120577f4e487b7100000000000000000000000000000000000000000000000000000000600052603260045260246000fd5b90600052602060002090600a02019050600061013c8685611159565b90508160070160009054906101000a900460ff1615610190576040517f08c379a000000000000000000000000000000000000000000000000000000000815260040161018790611c1f565b60405180910390fd5b600073ffffffffffffffffffffffffffffffffffffffff166004600083815260200190815260200160002060000160009054906101000a900473ffffffffffffffffffffffffffffffffffffffff1673ffffffffffffffffffffffffffffffffffffffff1614610235576040517f08c379a000000000000000000000000000000000000000000000000000000000815260040161022c90611bff565b60405180910390fd5b6000610245836003015487611191565b905060007f000000000000000000000000000000000000000000000000000000000000000082109050801561029257600184600801546102859190611cfe565b84600801819055506102ac565b600184600901546102a39190611cfe565b84600901819055505b60405180608001604052808773ffffffffffffffffffffffffffffffffffffffff1681526020018881526020018215158152602001838152506004600085815260200190815260200160002060008201518160000160006101000a81548173ffffffffffffffffffffffffffffffffffffffff021916908373ffffffffffffffffffffffffffffffffffffffff1602179055506020820151816001015560408201518160020160006101000a81548160ff0219169083151502179055506060820151816003015590505083600601548460080154106103a35760018460070160006101000a81548160ff0219169083151502179055505b5050505050505050565b6103b5611493565b6000600280549050905060018111156108d75760006001826103d79190611ddf565b9050600060028281548110610415577f4e487b7100000000000000000000000000000000000000000000000000000000600052603260045260246000fd5b90600052602060002090600a02016040518061014001604052908160008201548152602001600182015481526020016002820160009054906101000a900473ffffffffffffffffffffffffffffffffffffffff1673ffffffffffffffffffffffffffffffffffffffff1673ffffffffffffffffffffffffffffffffffffffff168152602001600382015481526020016004820180546104b390611ec2565b80601f01602080910402602001604051908101604052809291908181526020018280546104df90611ec2565b801561052c5780601f106105015761010080835404028352916020019161052c565b820191906000526020600020905b81548152906001019060200180831161050f57829003601f168201915b5050505050815260200160058201805461054590611ec2565b80601f016020809104026020016040519081016040528092919081815260200182805461057190611ec2565b80156105be5780601f10610593576101008083540402835291602001916105be565b820191906000526020600020905b8154815290600101906020018083116105a157829003601f168201915b50505050508152602001600682015481526020016007820160009054906101000a900460ff161515151581526020016008820154815260200160098201548152505090508060e0015115610617578093505050506108d9565b60006001836106269190611ddf565b90505b60008110156108d3576002818154811061066c577f4e487b7100000000000000000000000000000000000000000000000000000000600052603260045260246000fd5b90600052602060002090600a020160070160009054906101000a900460ff16156108c057600281815481106106ca577f4e487b7100000000000000000000000000000000000000000000000000000000600052603260045260246000fd5b90600052602060002090600a02016040518061014001604052908160008201548152602001600182015481526020016002820160009054906101000a900473ffffffffffffffffffffffffffffffffffffffff1673ffffffffffffffffffffffffffffffffffffffff1673ffffffffffffffffffffffffffffffffffffffff1681526020016003820154815260200160048201805461076890611ec2565b80601f016020809104026020016040519081016040528092919081815260200182805461079490611ec2565b80156107e15780601f106107b6576101008083540402835291602001916107e1565b820191906000526020600020905b8154815290600101906020018083116107c457829003601f168201915b505050505081526020016005820180546107fa90611ec2565b80601f016020809104026020016040519081016040528092919081815260200182805461082690611ec2565b80156108735780601f1061084857610100808354040283529160200191610873565b820191906000526020600020905b81548152906001019060200180831161085657829003601f168201915b50505050508152602001600682015481526020016007820160009054906101000a900460ff16151515158152602001600882015481526020016009820154815250509450505050506108d9565b80806108cb90611e98565b915050610629565b5050505b505b90565b600073ffffffffffffffffffffffffffffffffffffffff168273ffffffffffffffffffffffffffffffffffffffff16141561094c576040517f08c379a000000000000000000000000000000000000000000000000000000000815260040161094390611bdf565b60405180910390fd5b600660009054906101000a900473ffffffffffffffffffffffffffffffffffffffff1673ffffffffffffffffffffffffffffffffffffffff168273ffffffffffffffffffffffffffffffffffffffff16146109dc576040517f08c379a00000000000000000000000000000000000000000000000000000000081526004016109d390611c3f565b60405180910390fd5b6000806109e76111fd565b905060008160200151146109fd57806020015191505b8180610a0890611ef4565b9250506000610a15611456565b90506000604051806101400160405280878688604051602001610a3a93929190611ad5565b6040516020818303038152906040528051906020012081526020018581526020018773ffffffffffffffffffffffffffffffffffffffff16815260200186815260200160008054610a8a90611ec2565b80601f0160208091040260200160405190810160405280929190818152602001828054610ab690611ec2565b8015610b035780601f10610ad857610100808354040283529160200191610b03565b820191906000526020600020905b815481529060010190602001808311610ae657829003601f168201915b5050505050815260200160018054610b1a90611ec2565b80601f0160208091040260200160405190810160405280929190818152602001828054610b4690611ec2565b8015610b935780601f10610b6857610100808354040283529160200191610b93565b820191906000526020600020905b815481529060010190602001808311610b7657829003601f168201915b50505050508152602001838152602001836001101515158152602001600181526020016000815250905060028190806001815401808255809150506001900390600052602060002090600a0201600090919091909150600082015181600001556020820151816001015560408201518160020160006101000a81548173ffffffffffffffffffffffffffffffffffffffff021916908373ffffffffffffffffffffffffffffffffffffffff160217905550606082015181600301556080820151816004019080519060200190610c6a929190611501565b5060a0820151816005019080519060200190610c87929190611501565b5060c0820151816006015560e08201518160070160006101000a81548160ff0219169083151502179055506101008201518160080155610120820151816009015550506001600280549050610cdc9190611ddf565b6003600083600001518152602001908152602001600020819055507f78f6908c0a8d2c9158f488b36cdaca399ee238cd3cfc479e8db761f1aa90765160006001836000015184604001518560600151604051610d3c959493929190611b3e565b60405180910390a16000610d54826000015188611159565b905060405180608001604052808873ffffffffffffffffffffffffffffffffffffffff16815260200187815260200160011515815260200160008152506004600083815260200190815260200160002060008201518160000160006101000a81548173ffffffffffffffffffffffffffffffffffffffff021916908373ffffffffffffffffffffffffffffffffffffffff1602179055506020820151816001015560408201518160020160006101000a81548160ff0219169083151502179055506060820151816003015590505050505050505050565b600080600360008481526020019081526020016000205490506000811415610e88576040517f08c379a0000000000000000000000000000000000000000000000000000000008152600401610e7f90611c5f565b60405180910390fd5b600060028281548110610ec4577f4e487b7100000000000000000000000000000000000000000000000000000000600052603260045260246000fd5b90600052602060002090600a02016040518061014001604052908160008201548152602001600182015481526020016002820160009054906101000a900473ffffffffffffffffffffffffffffffffffffffff1673ffffffffffffffffffffffffffffffffffffffff1673ffffffffffffffffffffffffffffffffffffffff16815260200160038201548152602001600482018054610f6290611ec2565b80601f0160208091040260200160405190810160405280929190818152602001828054610f8e90611ec2565b8015610fdb5780601f10610fb057610100808354040283529160200191610fdb565b820191906000526020600020905b815481529060010190602001808311610fbe57829003601f168201915b50505050508152602001600582018054610ff490611ec2565b80601f016020809104026020016040519081016040528092919081815260200182805461102090611ec2565b801561106d5780601f106110425761010080835404028352916020019161106d565b820191906000526020600020905b81548152906001019060200180831161105057829003601f168201915b50505050508152602001600682015481526020016007820160009054906101000a900460ff1615151515815260200160088201548152602001600982015481525050905060006110bb6111fd565b90508060000151826000015114611107576040517f08c379a00000000000000000000000000000000000000000000000000000000081526004016110fe90611b9f565b60405180910390fd5b600081602001511161114e576040517f08c379a000000000000000000000000000000000000000000000000000000000815260040161114590611bbf565b60405180910390fd5b829350505050919050565b600080838360405160200161116f929190611b12565b6040516020818303038152906040528051906020012090508091505092915050565b60008060009050828411156111b35782846111ac9190611ddf565b90506111c2565b83836111bf9190611ddf565b90505b60008114156111d55760009150506111f7565b6000846064836111e59190611d85565b6111ef9190611d54565b905080925050505b92915050565b611205611493565b6000600280549050905060018111156114515760026001826112279190611ddf565b8154811061125e577f4e487b7100000000000000000000000000000000000000000000000000000000600052603260045260246000fd5b90600052602060002090600a02016040518061014001604052908160008201548152602001600182015481526020016002820160009054906101000a900473ffffffffffffffffffffffffffffffffffffffff1673ffffffffffffffffffffffffffffffffffffffff1673ffffffffffffffffffffffffffffffffffffffff168152602001600382015481526020016004820180546112fc90611ec2565b80601f016020809104026020016040519081016040528092919081815260200182805461132890611ec2565b80156113755780601f1061134a57610100808354040283529160200191611375565b820191906000526020600020905b81548152906001019060200180831161135857829003601f168201915b5050505050815260200160058201805461138e90611ec2565b80601f01602080910402602001604051908101604052809291908181526020018280546113ba90611ec2565b80156114075780601f106113dc57610100808354040283529160200191611407565b820191906000526020600020905b8154815290600101906020018083116113ea57829003601f168201915b50505050508152602001600682015481526020016007820160009054906101000a900460ff1615151515815260200160088201548152602001600982015481525050915050611453565b505b90565b60006001600554141561146c5760019050611490565b60006064603360055461147f9190611d85565b6114899190611d54565b9050809150505b90565b6040518061014001604052806000801916815260200160008152602001600073ffffffffffffffffffffffffffffffffffffffff1681526020016000815260200160608152602001606081526020016000815260200160001515815260200160008152602001600081525090565b82805461150d90611ec2565b90600052602060002090601f01602090048101928261152f5760008555611576565b82601f1061154857805160ff1916838001178555611576565b82800160010185558215611576579182015b8281111561157557825182559160200191906001019061155a565b5b5090506115839190611587565b5090565b5b808211156115a0576000816000905550600101611588565b5090565b6000813590506115b381612020565b92915050565b6000813590506115c881612037565b92915050565b6000813590506115dd8161204e565b92915050565b600080604083850312156115f657600080fd5b6000611604858286016115a4565b9250506020611615858286016115ce565b9150509250929050565b6000806040838503121561163257600080fd5b6000611640858286016115b9565b9250506020611651858286016115ce565b9150509250929050565b61166481611e13565b82525050565b61167381611e13565b82525050565b61168a61168582611e13565b611f3d565b82525050565b61169981611e25565b82525050565b6116a881611e31565b82525050565b6116b781611e31565b82525050565b6116ce6116c982611e31565b611f4f565b82525050565b60006116df82611cd1565b6116e98185611cdc565b93506116f9818560208601611e65565b61170281612002565b840191505092915050565b6000815461171a81611ec2565b6117248186611ced565b9450600182166000811461173f576001811461175157611784565b60ff1983168652602086019350611784565b61175a85611cbc565b60005b8381101561177c5781548189015260018201915060208101905061175d565b808801955050505b50505092915050565b600061179a603b83611ced565b91507f566f74696e6720666f72206f6c6420726f756e642e2054686520726f756e644960008301527f642062656c6f6e677320746f2070726576696f757320726f756e6400000000006020830152604082019050919050565b6000611800602e83611ced565b91507f43616e6e6f742076616c696461746520726f756e642e204e6f20726f756e647360008301527f206172652070726573656e7465640000000000000000000000000000000000006020830152604082019050919050565b6000611866601783611ced565b91507f4e756c6c206164647265737320697320696e76616c69640000000000000000006000830152602082019050919050565b60006118a6601583611ced565b91507f43616c6c657220616c726561647920766f7465642100000000000000000000006000830152602082019050919050565b60006118e6601d83611ced565b91507f51756f72756d207265616368656420666f72207468617420726f756e640000006000830152602082019050919050565b6000611926602883611ced565b91507f476976656e2061646472657373206e6f7420656c656374656420666f7220766160008301527f6c69646174696f6e0000000000000000000000000000000000000000000000006020830152604082019050919050565b600061198c601183611ced565b91507f496e76616c696420726f756e64206964200000000000000000000000000000006000830152602082019050919050565b6000610140830160008301516119d8600086018261169f565b5060208301516119eb6020860182611aa0565b5060408301516119fe604086018261165b565b506060830151611a116060860182611aa0565b5060808301518482036080860152611a2982826116d4565b91505060a083015184820360a0860152611a4382826116d4565b91505060c0830151611a5860c0860182611aa0565b5060e0830151611a6b60e0860182611690565b50610100830151611a80610100860182611aa0565b50610120830151611a95610120860182611aa0565b508091505092915050565b611aa981611e5b565b82525050565b611ab881611e5b565b82525050565b611acf611aca82611e5b565b611f6b565b82525050565b6000611ae18286611679565b601482019150611af18285611abe565b602082019150611b018284611abe565b602082019150819050949350505050565b6000611b1e82856116bd565b602082019150611b2e8284611679565b6014820191508190509392505050565b600060a0820190508181036000830152611b58818861170d565b90508181036020830152611b6c818761170d565b9050611b7b60408301866116ae565b611b88606083018561166a565b611b956080830184611aaf565b9695505050505050565b60006020820190508181036000830152611bb88161178d565b9050919050565b60006020820190508181036000830152611bd8816117f3565b9050919050565b60006020820190508181036000830152611bf881611859565b9050919050565b60006020820190508181036000830152611c1881611899565b9050919050565b60006020820190508181036000830152611c38816118d9565b9050919050565b60006020820190508181036000830152611c5881611919565b9050919050565b60006020820190508181036000830152611c788161197f565b9050919050565b60006020820190508181036000830152611c9981846119bf565b905092915050565b6000602082019050611cb66000830184611aaf565b92915050565b60008190508160005260206000209050919050565b600081519050919050565b600082825260208201905092915050565b600082825260208201905092915050565b6000611d0982611e5b565b9150611d1483611e5b565b9250827fffffffffffffffffffffffffffffffffffffffffffffffffffffffffffffffff03821115611d4957611d48611f75565b5b828201905092915050565b6000611d5f82611e5b565b9150611d6a83611e5b565b925082611d7a57611d79611fa4565b5b828204905092915050565b6000611d9082611e5b565b9150611d9b83611e5b565b9250817fffffffffffffffffffffffffffffffffffffffffffffffffffffffffffffffff0483118215151615611dd457611dd3611f75565b5b828202905092915050565b6000611dea82611e5b565b9150611df583611e5b565b925082821015611e0857611e07611f75565b5b828203905092915050565b6000611e1e82611e3b565b9050919050565b60008115159050919050565b6000819050919050565b600073ffffffffffffffffffffffffffffffffffffffff82169050919050565b6000819050919050565b60005b83811015611e83578082015181840152602081019050611e68565b83811115611e92576000848401525b50505050565b6000611ea382611e5b565b91506000821415611eb757611eb6611f75565b5b600182039050919050565b60006002820490506001821680611eda57607f821691505b60208210811415611eee57611eed611fd3565b5b50919050565b6000611eff82611e5b565b91507fffffffffffffffffffffffffffffffffffffffffffffffffffffffffffffffff821415611f3257611f31611f75565b5b600182019050919050565b6000611f4882611f59565b9050919050565b6000819050919050565b6000611f6482612013565b9050919050565b6000819050919050565b7f4e487b7100000000000000000000000000000000000000000000000000000000600052601160045260246000fd5b7f4e487b7100000000000000000000000000000000000000000000000000000000600052601260045260246000fd5b7f4e487b7100000000000000000000000000000000000000000000000000000000600052602260045260246000fd5b6000601f19601f8301169050919050565b60008160601b9050919050565b61202981611e13565b811461203457600080fd5b50565b61204081611e31565b811461204b57600080fd5b50565b61205781611e5b565b811461206257600080fd5b5056fea264697066735822122075d6d4276f0aa1c7607ea845c5355b37f1a8703643ecd7ce0862670745a3fb1e64736f6c63430008000033",
  "immutableReferences": {
    "1042": [
      {
        "length": 32,
        "start": 587
      }
    ]
  },
  "source": "pragma solidity ^0.8.0;\r\n\r\nimport \"../utils/Rounds.sol\";\r\nimport \"../utils/Votes.sol\";\r\nimport \"./base/BasePriceResolver.sol\";\r\n\r\n//PoC. Big Refactoring will happened!\r\ncontract GoldPriceResolver is BasePriceResolver {\r\n    uint256 constant MAXIMUM_ALLOWED_PRICE_DEVIATION_IN_PERCENTS = 3;\r\n    string constant GOLD_SYMBOL = \"XUA\"; //TODO; move to separate contract when refactor\r\n    string constant USDT_SYMBOL = \"USDT\";\r\n\r\n    constructor()\r\n        BasePriceResolver(\r\n            GOLD_SYMBOL,\r\n            USDT_SYMBOL,\r\n            MAXIMUM_ALLOWED_PRICE_DEVIATION_IN_PERCENTS\r\n        )\r\n    {}\r\n}\r\n",
  "sourcePath": "D:\\Documents\\Dev\\Repositories\\gold-price-oracle\\gold-price-oracle\\on-chain\\contracts\\oracle\\resolvers\\GoldPriceResolver.sol",
  "compiler": {
    "name": "solc",
    "version": "0.8.0+commit.c7dfd78e.Emscripten.clang"
  },
  "schemaVersion": "3.4.3",
  "updatedAt": "2022-03-16T10:10:24.103Z",
  "devdoc": {
    "kind": "dev",
    "methods": {},
    "version": 1
  },
  "userdoc": {
    "kind": "user",
    "methods": {},
    "version": 1
  }
}