{
  "contractName": "GoldOracleToken",
  "abi": [
    {
      "inputs": [],
      "stateMutability": "nonpayable",
      "type": "constructor"
    },
    {
      "anonymous": false,
      "inputs": [
        {
          "indexed": true,
          "internalType": "address",
          "name": "owner",
          "type": "address"
        },
        {
          "indexed": true,
          "internalType": "address",
          "name": "spender",
          "type": "address"
        },
        {
          "indexed": false,
          "internalType": "uint256",
          "name": "value",
          "type": "uint256"
        }
      ],
      "name": "Approval",
      "type": "event"
    },
    {
      "anonymous": false,
      "inputs": [
        {
          "indexed": false,
          "internalType": "bytes32",
          "name": "eraId",
          "type": "bytes32"
        },
        {
          "indexed": false,
          "internalType": "address",
          "name": "chairman",
          "type": "address"
        },
        {
          "indexed": false,
          "internalType": "uint256",
          "name": "timestap",
          "type": "uint256"
        }
      ],
      "name": "EndEraByNewElectedChairman",
      "type": "event"
    },
    {
      "anonymous": false,
      "inputs": [
        {
          "indexed": false,
          "internalType": "bytes32",
          "name": "eraId",
          "type": "bytes32"
        },
        {
          "indexed": false,
          "internalType": "address",
          "name": "chairman",
          "type": "address"
        },
        {
          "indexed": false,
          "internalType": "address[]",
          "name": "council",
          "type": "address[]"
        },
        {
          "indexed": false,
          "internalType": "uint256",
          "name": "validatorsCount",
          "type": "uint256"
        },
        {
          "indexed": false,
          "internalType": "uint256",
          "name": "calculatedSeed",
          "type": "uint256"
        }
      ],
      "name": "NewEraElecationProposal",
      "type": "event"
    },
    {
      "anonymous": false,
      "inputs": [
        {
          "components": [
            {
              "internalType": "bytes32",
              "name": "id",
              "type": "bytes32"
            },
            {
              "internalType": "bytes32",
              "name": "previousEraId",
              "type": "bytes32"
            },
            {
              "internalType": "uint256",
              "name": "colectedFeesAmount",
              "type": "uint256"
            },
            {
              "internalType": "uint256",
              "name": "startDate",
              "type": "uint256"
            },
            {
              "internalType": "uint256",
              "name": "endDate",
              "type": "uint256"
            },
            {
              "internalType": "address",
              "name": "chairman",
              "type": "address"
            },
            {
              "internalType": "uint256",
              "name": "requiredQuorum",
              "type": "uint256"
            },
            {
              "internalType": "bool",
              "name": "isQuorumReached",
              "type": "bool"
            },
            {
              "internalType": "uint256",
              "name": "possitiveVotes",
              "type": "uint256"
            },
            {
              "internalType": "uint256",
              "name": "negativeVotes",
              "type": "uint256"
            },
            {
              "internalType": "bool",
              "name": "accepted",
              "type": "bool"
            },
            {
              "internalType": "bool",
              "name": "ended",
              "type": "bool"
            },
            {
              "internalType": "uint256",
              "name": "totalWeightOfVotingCoucil",
              "type": "uint256"
            }
          ],
          "indexed": false,
          "internalType": "struct Eras.Era",
          "name": "era",
          "type": "tuple"
        }
      ],
      "name": "NewEraElectionComplited",
      "type": "event"
    },
    {
      "anonymous": false,
      "inputs": [
        {
          "indexed": true,
          "internalType": "address",
          "name": "from",
          "type": "address"
        },
        {
          "indexed": true,
          "internalType": "address",
          "name": "to",
          "type": "address"
        },
        {
          "indexed": false,
          "internalType": "uint256",
          "name": "value",
          "type": "uint256"
        }
      ],
      "name": "Transfer",
      "type": "event"
    },
    {
      "inputs": [
        {
          "internalType": "address",
          "name": "owner",
          "type": "address"
        },
        {
          "internalType": "address",
          "name": "spender",
          "type": "address"
        }
      ],
      "name": "allowance",
      "outputs": [
        {
          "internalType": "uint256",
          "name": "",
          "type": "uint256"
        }
      ],
      "stateMutability": "view",
      "type": "function"
    },
    {
      "inputs": [
        {
          "internalType": "address",
          "name": "spender",
          "type": "address"
        },
        {
          "internalType": "uint256",
          "name": "amount",
          "type": "uint256"
        }
      ],
      "name": "approve",
      "outputs": [
        {
          "internalType": "bool",
          "name": "",
          "type": "bool"
        }
      ],
      "stateMutability": "nonpayable",
      "type": "function"
    },
    {
      "inputs": [
        {
          "internalType": "address",
          "name": "account",
          "type": "address"
        }
      ],
      "name": "balanceOf",
      "outputs": [
        {
          "internalType": "uint256",
          "name": "",
          "type": "uint256"
        }
      ],
      "stateMutability": "view",
      "type": "function"
    },
    {
      "inputs": [],
      "name": "callEndEraBackDoor",
      "outputs": [],
      "stateMutability": "nonpayable",
      "type": "function"
    },
    {
      "inputs": [],
      "name": "decimals",
      "outputs": [
        {
          "internalType": "uint8",
          "name": "",
          "type": "uint8"
        }
      ],
      "stateMutability": "view",
      "type": "function"
    },
    {
      "inputs": [
        {
          "internalType": "address",
          "name": "spender",
          "type": "address"
        },
        {
          "internalType": "uint256",
          "name": "subtractedValue",
          "type": "uint256"
        }
      ],
      "name": "decreaseAllowance",
      "outputs": [
        {
          "internalType": "bool",
          "name": "",
          "type": "bool"
        }
      ],
      "stateMutability": "nonpayable",
      "type": "function"
    },
    {
      "inputs": [
        {
          "internalType": "uint256",
          "name": "timestamp",
          "type": "uint256"
        }
      ],
      "name": "endEra",
      "outputs": [],
      "stateMutability": "nonpayable",
      "type": "function"
    },
    {
      "inputs": [
        {
          "internalType": "uint256",
          "name": "timestamp",
          "type": "uint256"
        }
      ],
      "name": "endEraBackDoor",
      "outputs": [],
      "stateMutability": "nonpayable",
      "type": "function"
    },
    {
      "inputs": [],
      "name": "getCurrentEra",
      "outputs": [
        {
          "components": [
            {
              "internalType": "bytes32",
              "name": "id",
              "type": "bytes32"
            },
            {
              "internalType": "bytes32",
              "name": "previousEraId",
              "type": "bytes32"
            },
            {
              "internalType": "uint256",
              "name": "colectedFeesAmount",
              "type": "uint256"
            },
            {
              "internalType": "uint256",
              "name": "startDate",
              "type": "uint256"
            },
            {
              "internalType": "uint256",
              "name": "endDate",
              "type": "uint256"
            },
            {
              "internalType": "address",
              "name": "chairman",
              "type": "address"
            },
            {
              "internalType": "uint256",
              "name": "requiredQuorum",
              "type": "uint256"
            },
            {
              "internalType": "bool",
              "name": "isQuorumReached",
              "type": "bool"
            },
            {
              "internalType": "uint256",
              "name": "possitiveVotes",
              "type": "uint256"
            },
            {
              "internalType": "uint256",
              "name": "negativeVotes",
              "type": "uint256"
            },
            {
              "internalType": "bool",
              "name": "accepted",
              "type": "bool"
            },
            {
              "internalType": "bool",
              "name": "ended",
              "type": "bool"
            },
            {
              "internalType": "uint256",
              "name": "totalWeightOfVotingCoucil",
              "type": "uint256"
            }
          ],
          "internalType": "struct Eras.Era",
          "name": "currentEra",
          "type": "tuple"
        }
      ],
      "stateMutability": "view",
      "type": "function"
    },
    {
      "inputs": [
        {
          "internalType": "bytes32",
          "name": "eraId_",
          "type": "bytes32"
        }
      ],
      "name": "getEraById",
      "outputs": [
        {
          "components": [
            {
              "internalType": "bytes32",
              "name": "id",
              "type": "bytes32"
            },
            {
              "internalType": "bytes32",
              "name": "previousEraId",
              "type": "bytes32"
            },
            {
              "internalType": "uint256",
              "name": "colectedFeesAmount",
              "type": "uint256"
            },
            {
              "internalType": "uint256",
              "name": "startDate",
              "type": "uint256"
            },
            {
              "internalType": "uint256",
              "name": "endDate",
              "type": "uint256"
            },
            {
              "internalType": "address",
              "name": "chairman",
              "type": "address"
            },
            {
              "internalType": "uint256",
              "name": "requiredQuorum",
              "type": "uint256"
            },
            {
              "internalType": "bool",
              "name": "isQuorumReached",
              "type": "bool"
            },
            {
              "internalType": "uint256",
              "name": "possitiveVotes",
              "type": "uint256"
            },
            {
              "internalType": "uint256",
              "name": "negativeVotes",
              "type": "uint256"
            },
            {
              "internalType": "bool",
              "name": "accepted",
              "type": "bool"
            },
            {
              "internalType": "bool",
              "name": "ended",
              "type": "bool"
            },
            {
              "internalType": "uint256",
              "name": "totalWeightOfVotingCoucil",
              "type": "uint256"
            }
          ],
          "internalType": "struct Eras.Era",
          "name": "era",
          "type": "tuple"
        }
      ],
      "stateMutability": "view",
      "type": "function"
    },
    {
      "inputs": [],
      "name": "getErasCount",
      "outputs": [
        {
          "internalType": "uint256",
          "name": "",
          "type": "uint256"
        }
      ],
      "stateMutability": "view",
      "type": "function"
    },
    {
      "inputs": [],
      "name": "getLastApprovedEraId",
      "outputs": [
        {
          "internalType": "bytes32",
          "name": "",
          "type": "bytes32"
        }
      ],
      "stateMutability": "view",
      "type": "function"
    },
    {
      "inputs": [
        {
          "internalType": "address",
          "name": "address_",
          "type": "address"
        }
      ],
      "name": "getStakedAmount",
      "outputs": [
        {
          "internalType": "uint256",
          "name": "",
          "type": "uint256"
        }
      ],
      "stateMutability": "view",
      "type": "function"
    },
    {
      "inputs": [
        {
          "internalType": "address",
          "name": "address_",
          "type": "address"
        }
      ],
      "name": "getStakeholderInformation",
      "outputs": [
        {
          "internalType": "uint256",
          "name": "",
          "type": "uint256"
        },
        {
          "internalType": "uint256",
          "name": "",
          "type": "uint256"
        },
        {
          "internalType": "uint256",
          "name": "",
          "type": "uint256"
        },
        {
          "internalType": "uint256",
          "name": "",
          "type": "uint256"
        },
        {
          "internalType": "bool",
          "name": "",
          "type": "bool"
        },
        {
          "internalType": "uint256",
          "name": "",
          "type": "uint256"
        }
      ],
      "stateMutability": "view",
      "type": "function"
    },
    {
      "inputs": [],
      "name": "getStakeholders",
      "outputs": [
        {
          "components": [
            {
              "internalType": "address",
              "name": "user",
              "type": "address"
            },
            {
              "internalType": "uint256",
              "name": "totalAmount",
              "type": "uint256"
            },
            {
              "internalType": "uint256",
              "name": "ownedAmount",
              "type": "uint256"
            },
            {
              "internalType": "uint256",
              "name": "nominatedAmount",
              "type": "uint256"
            },
            {
              "internalType": "uint256",
              "name": "nominatorsCount",
              "type": "uint256"
            },
            {
              "internalType": "bool",
              "name": "canValidate",
              "type": "bool"
            },
            {
              "internalType": "uint256",
              "name": "notCollectedTokenRewards",
              "type": "uint256"
            }
          ],
          "internalType": "struct Stakeholders.Stakeholder[]",
          "name": "stakeholders",
          "type": "tuple[]"
        }
      ],
      "stateMutability": "view",
      "type": "function"
    },
    {
      "inputs": [],
      "name": "getValidatorsCoundForActiveEra",
      "outputs": [
        {
          "internalType": "uint256",
          "name": "",
          "type": "uint256"
        }
      ],
      "stateMutability": "view",
      "type": "function"
    },
    {
      "inputs": [],
      "name": "getValidatorsCount",
      "outputs": [
        {
          "internalType": "uint256",
          "name": "",
          "type": "uint256"
        }
      ],
      "stateMutability": "view",
      "type": "function"
    },
    {
      "inputs": [
        {
          "internalType": "address",
          "name": "spender",
          "type": "address"
        },
        {
          "internalType": "uint256",
          "name": "addedValue",
          "type": "uint256"
        }
      ],
      "name": "increaseAllowance",
      "outputs": [
        {
          "internalType": "bool",
          "name": "",
          "type": "bool"
        }
      ],
      "stateMutability": "nonpayable",
      "type": "function"
    },
    {
      "inputs": [
        {
          "internalType": "address",
          "name": "address_",
          "type": "address"
        }
      ],
      "name": "isAddressElectedForValidation",
      "outputs": [
        {
          "internalType": "bool",
          "name": "",
          "type": "bool"
        }
      ],
      "stateMutability": "view",
      "type": "function"
    },
    {
      "inputs": [],
      "name": "name",
      "outputs": [
        {
          "internalType": "string",
          "name": "",
          "type": "string"
        }
      ],
      "stateMutability": "view",
      "type": "function"
    },
    {
      "inputs": [
        {
          "internalType": "bytes32",
          "name": "eraId_",
          "type": "bytes32"
        },
        {
          "internalType": "address",
          "name": "chairman_",
          "type": "address"
        },
        {
          "internalType": "address[]",
          "name": "coucil_",
          "type": "address[]"
        },
        {
          "internalType": "uint256",
          "name": "utcTimeStamp_",
          "type": "uint256"
        },
        {
          "internalType": "uint256",
          "name": "calculatedSeed_",
          "type": "uint256"
        }
      ],
      "name": "proposeNewEra",
      "outputs": [],
      "stateMutability": "nonpayable",
      "type": "function"
    },
    {
      "inputs": [
        {
          "internalType": "uint256",
          "name": "amount_",
          "type": "uint256"
        }
      ],
      "name": "stake",
      "outputs": [],
      "stateMutability": "nonpayable",
      "type": "function"
    },
    {
      "inputs": [],
      "name": "symbol",
      "outputs": [
        {
          "internalType": "string",
          "name": "",
          "type": "string"
        }
      ],
      "stateMutability": "view",
      "type": "function"
    },
    {
      "inputs": [],
      "name": "totalSupply",
      "outputs": [
        {
          "internalType": "uint256",
          "name": "",
          "type": "uint256"
        }
      ],
      "stateMutability": "view",
      "type": "function"
    },
    {
      "inputs": [
        {
          "internalType": "address",
          "name": "to",
          "type": "address"
        },
        {
          "internalType": "uint256",
          "name": "amount",
          "type": "uint256"
        }
      ],
      "name": "transfer",
      "outputs": [
        {
          "internalType": "bool",
          "name": "",
          "type": "bool"
        }
      ],
      "stateMutability": "nonpayable",
      "type": "function"
    },
    {
      "inputs": [
        {
          "internalType": "address",
          "name": "from",
          "type": "address"
        },
        {
          "internalType": "address",
          "name": "to",
          "type": "address"
        },
        {
          "internalType": "uint256",
          "name": "amount",
          "type": "uint256"
        }
      ],
      "name": "transferFrom",
      "outputs": [
        {
          "internalType": "bool",
          "name": "",
          "type": "bool"
        }
      ],
      "stateMutability": "nonpayable",
      "type": "function"
    },
    {
      "inputs": [
        {
          "internalType": "uint256",
          "name": "amount_",
          "type": "uint256"
        }
      ],
      "name": "unstake",
      "outputs": [],
      "stateMutability": "nonpayable",
      "type": "function"
    },
    {
      "inputs": [
        {
          "internalType": "bytes32",
          "name": "eraId",
          "type": "bytes32"
        },
        {
          "internalType": "bool",
          "name": "approves",
          "type": "bool"
        }
      ],
      "name": "voteForProposedEra",
      "outputs": [],
      "stateMutability": "nonpayable",
      "type": "function"
    },
    {
      "inputs": [],
      "name": "getOwnerAddress",
      "outputs": [
        {
          "internalType": "address",
          "name": "",
          "type": "address"
        }
      ],
      "stateMutability": "view",
      "type": "function"
    }
  ],
  "bytecode": "0x60c06040523480156200001157600080fd5b506040518060400160405280600f81526020017f476f6c644f7261636c65546f6b656e00000000000000000000000000000000008152506040518060400160405280600381526020017f474f54000000000000000000000000000000000000000000000000000000000081525069043c33c1937564800000683635c9adc5dea0000083838382828160039080519060200190620000b0929190620002df565b508060049080519060200190620000c9929190620002df565b505050806080818152505060006005819055505050508060a081815250505050505033601060006101000a81548173ffffffffffffffffffffffffffffffffffffffff021916908373ffffffffffffffffffffffffffffffffffffffff1602179055506200015633600a69043c33c19375648000006200014a91906200048f565b6200015c60201b60201c565b6200058e565b600073ffffffffffffffffffffffffffffffffffffffff168273ffffffffffffffffffffffffffffffffffffffff161415620001cf576040517f08c379a0000000000000000000000000000000000000000000000000000000008152600401620001c690620003e2565b60405180910390fd5b620001e360008383620002d560201b60201c565b8060026000828254620001f7919062000432565b92505081905550806000808473ffffffffffffffffffffffffffffffffffffffff1673ffffffffffffffffffffffffffffffffffffffff16815260200190815260200160002060008282546200024e919062000432565b925050819055508173ffffffffffffffffffffffffffffffffffffffff16600073ffffffffffffffffffffffffffffffffffffffff167fddf252ad1be2c89b69c2b068fc378daa952ba7f163c4a11628f55a4df523b3ef83604051620002b5919062000404565b60405180910390a3620002d160008383620002da60201b60201c565b5050565b505050565b505050565b828054620002ed90620004fa565b90600052602060002090601f0160209004810192826200031157600085556200035d565b82601f106200032c57805160ff19168380011785556200035d565b828001600101855582156200035d579182015b828111156200035c5782518255916020019190600101906200033f565b5b5090506200036c919062000370565b5090565b5b808211156200038b57600081600090555060010162000371565b5090565b60006200039e601f8362000421565b91507f45524332303a206d696e7420746f20746865207a65726f2061646472657373006000830152602082019050919050565b620003dc81620004f0565b82525050565b60006020820190508181036000830152620003fd816200038f565b9050919050565b60006020820190506200041b6000830184620003d1565b92915050565b600082825260208201905092915050565b60006200043f82620004f0565b91506200044c83620004f0565b9250827fffffffffffffffffffffffffffffffffffffffffffffffffffffffffffffffff0382111562000484576200048362000530565b5b828201905092915050565b60006200049c82620004f0565b9150620004a983620004f0565b9250817fffffffffffffffffffffffffffffffffffffffffffffffffffffffffffffffff0483118215151615620004e557620004e462000530565b5b828202905092915050565b6000819050919050565b600060028204905060018216806200051357607f821691505b602082108114156200052a57620005296200055f565b5b50919050565b7f4e487b7100000000000000000000000000000000000000000000000000000000600052601160045260246000fd5b7f4e487b7100000000000000000000000000000000000000000000000000000000600052602260045260246000fd5b60805160a051615288620005c96000396000818161176c015261206d015260008181610a6c01528181612c660152612fca01526152886000f3fe608060405234801561001057600080fd5b50600436106101cf5760003560e01c8063517efd8911610104578063a694fc3a116100a2578063d250b6cb11610071578063d250b6cb1461054b578063dd62ed3e14610569578063e4ae026f14610599578063e6037852146105b5576101cf565b8063a694fc3a146104b1578063a9059cbb146104cd578063b6992247146104fd578063d100896d1461051b576101cf565b806370a08231116100de57806370a08231146104175780637bfb57971461044757806395d89b4114610463578063a457c2d714610481576101cf565b8063517efd89146103bd578063533aa7b8146103db5780636c3811ae146103f9576101cf565b80632bf9262c11610171578063395093511161014b578063395093511461032557806340c86f1a146103555780634c5962cc146103715780634da6a5561461038d576101cf565b80632bf9262c146102b65780632e17de78146102eb578063313ce56714610307576101cf565b806318160ddd116101ad57806318160ddd1461024057806323b872dd1461025e578063274982401461028e57806327fc2774146102ac576101cf565b806306fdde03146101d4578063095ea7b3146101f25780630c4f65bd14610222575b600080fd5b6101dc6105e5565b6040516101e99190614904565b60405180910390f35b61020c60048036038101906102079190613909565b610677565b604051610219919061483d565b60405180910390f35b61022a61069a565b6040516102379190614800565b60405180910390f35b6102486106c4565b6040516102559190614c7e565b60405180910390f35b610278600480360381019061027391906138ba565b6106ce565b604051610285919061483d565b60405180910390f35b6102966106fd565b6040516102a39190614c7e565b60405180910390f35b6102b4610707565b005b6102d060048036038101906102cb9190613855565b610867565b6040516102e296959493929190614c99565b60405180910390f35b61030560048036038101906103009190613a39565b61094e565b005b61030f610afb565b60405161031c9190614cfa565b60405180910390f35b61033f600480360381019061033a9190613909565b610b04565b60405161034c919061483d565b60405180910390f35b61036f600480360381019061036a91906139fd565b610bae565b005b61038b6004803603810190610386919061396e565b611052565b005b6103a760048036038101906103a29190613855565b611478565b6040516103b49190614c7e565b60405180910390f35b6103c5611531565b6040516103d29190614858565b60405180910390f35b6103e361153b565b6040516103f09190614c7e565b60405180910390f35b610401611545565b60405161040e9190614c7e565b60405180910390f35b610431600480360381019061042c9190613855565b6115c9565b60405161043e9190614c7e565b60405180910390f35b610461600480360381019061045c9190613a39565b611611565b005b61046b6117f8565b6040516104789190614904565b60405180910390f35b61049b60048036038101906104969190613909565b61188a565b6040516104a8919061483d565b60405180910390f35b6104cb60048036038101906104c69190613a39565b611974565b005b6104e760048036038101906104e29190613909565b611a89565b6040516104f4919061483d565b60405180910390f35b610505611aac565b604051610512919061481b565b60405180910390f35b61053560048036038101906105309190613855565b611bae565b604051610542919061483d565b60405180910390f35b610553611cea565b6040516105609190614c46565b60405180910390f35b610583600480360381019061057e919061387e565b611e19565b6040516105909190614c7e565b60405180910390f35b6105b360048036038101906105ae9190613a39565b611ea0565b005b6105cf60048036038101906105ca9190613945565b61210b565b6040516105dc9190614c46565b60405180910390f35b6060600380546105f490615012565b80601f016020809104026020016040519081016040528092919081815260200182805461062090615012565b801561066d5780601f106106425761010080835404028352916020019161066d565b820191906000526020600020905b81548152906001019060200180831161065057829003601f168201915b5050505050905090565b60008061068261223a565b905061068f818585612242565b600191505092915050565b6000601060009054906101000a900473ffffffffffffffffffffffffffffffffffffffff16905090565b6000600254905090565b6000806106d961223a565b90506106e685828561240d565b6106f1858585612499565b60019150509392505050565b6000600554905090565b6000600a6000600f548152602001908152602001600020604051806101a001604052908160008201548152602001600182015481526020016002820154815260200160038201548152602001600482015481526020016005820160009054906101000a900473ffffffffffffffffffffffffffffffffffffffff1673ffffffffffffffffffffffffffffffffffffffff1673ffffffffffffffffffffffffffffffffffffffff168152602001600682015481526020016007820160009054906101000a900460ff161515151581526020016008820154815260200160098201548152602001600a820160009054906101000a900460ff16151515158152602001600a820160019054906101000a900460ff16151515158152602001600b8201548152505090507f52efb45347e749d77f44c740574e54b8d92ef207c7e60967d24a7a96cfd084f28160405161085c9190614c46565b60405180910390a150565b600080600080600080600061087b8861271a565b9050600081116108c0576040517f08c379a00000000000000000000000000000000000000000000000000000000081526004016108b790614ae6565b60405180910390fd5b6000600782815481106108fc577f4e487b7100000000000000000000000000000000000000000000000000000000600052603260045260246000fd5b9060005260206000209060070201905080600101548160020154826003015483600401548460050160009054906101000a900460ff168560060154975097509750975097509750505091939550919395565b60003390506000600960008373ffffffffffffffffffffffffffffffffffffffff1673ffffffffffffffffffffffffffffffffffffffff16815260200190815260200160002054905060008114156109a7575050610af8565b6000600782815481106109e3577f4e487b7100000000000000000000000000000000000000000000000000000000600052603260045260246000fd5b906000526020600020906007020190508381600101541015610a3a576040517f08c379a0000000000000000000000000000000000000000000000000000000008152600401610a3190614a06565b60405180910390fd5b600084826001016000828254610a509190614ee1565b92505081905590508082600101819055508082600201819055507f00000000000000000000000000000000000000000000000000000000000000008110610ab35760018260050160006101000a81548160ff021916908315150217905550610ae9565b60008260050160006101000a81548160ff02191690831515021790555060056000815480929190610ae390614fe8565b91905055505b610af3848661280d565b505050505b50565b60006012905090565b600080610b0f61223a565b9050610ba3818585600160008673ffffffffffffffffffffffffffffffffffffffff1673ffffffffffffffffffffffffffffffffffffffff16815260200190815260200160002060008973ffffffffffffffffffffffffffffffffffffffff1673ffffffffffffffffffffffffffffffffffffffff16815260200190815260200160002054610b9e9190614e00565b612242565b600191505092915050565b6000600860003373ffffffffffffffffffffffffffffffffffffffff1673ffffffffffffffffffffffffffffffffffffffff1681526020019081526020016000205490506000811415610c36576040517f08c379a0000000000000000000000000000000000000000000000000000000008152600401610c2d90614b46565b60405180910390fd5b6000600a60008581526020019081526020016000209050600073ffffffffffffffffffffffffffffffffffffffff168160050160009054906101000a900473ffffffffffffffffffffffffffffffffffffffff1673ffffffffffffffffffffffffffffffffffffffff161415610ce1576040517f08c379a0000000000000000000000000000000000000000000000000000000008152600401610cd8906149c6565b60405180910390fd5b600015158160070160009054906101000a900460ff16151514610d39576040517f08c379a0000000000000000000000000000000000000000000000000000000008152600401610d3090614be6565b60405180910390fd5b60003390506000600b600087815260200190815260200160002060008373ffffffffffffffffffffffffffffffffffffffff1673ffffffffffffffffffffffffffffffffffffffff1681526020019081526020016000209050600073ffffffffffffffffffffffffffffffffffffffff168160000160009054906101000a900473ffffffffffffffffffffffffffffffffffffffff1673ffffffffffffffffffffffffffffffffffffffff1614610e25576040517f08c379a0000000000000000000000000000000000000000000000000000000008152600401610e1c90614a66565b60405180910390fd5b60405180604001604052808373ffffffffffffffffffffffffffffffffffffffff168152602001861515815250600b600088815260200190815260200160002060008473ffffffffffffffffffffffffffffffffffffffff1673ffffffffffffffffffffffffffffffffffffffff16815260200190815260200160002060008201518160000160006101000a81548173ffffffffffffffffffffffffffffffffffffffff021916908373ffffffffffffffffffffffffffffffffffffffff16021790555060208201518160000160146101000a81548160ff021916908315150217905550905050600115158515151415610f8c576001836008016000828254610f2e9190614e00565b92505081905550826006015483600801541415610f875760018360070160006101000a81548160ff021916908315150217905550600183600a0160006101000a81548160ff02191690831515021790555085600f819055505b610ff4565b6001836009016000828254610fa19190614e00565b92505081905550826006015483600901541415610ff35760018360070160006101000a81548160ff021916908315150217905550600083600a0160006101000a81548160ff0219169083151502179055505b5b600115158360070160009054906101000a900460ff161515141561104a577f52efb45347e749d77f44c740574e54b8d92ef207c7e60967d24a7a96cfd084f2836040516110419190614c62565b60405180910390a15b505050505050565b6000339050600061106161296d565b9050600073ffffffffffffffffffffffffffffffffffffffff168160a0015173ffffffffffffffffffffffffffffffffffffffff161461110e578060a0015173ffffffffffffffffffffffffffffffffffffffff168273ffffffffffffffffffffffffffffffffffffffff161461110d576040517f08c379a000000000000000000000000000000000000000000000000000000000815260040161110490614ac6565b60405180910390fd5b5b6000600a60008981526020019081526020016000209050600073ffffffffffffffffffffffffffffffffffffffff168160050160009054906101000a900473ffffffffffffffffffffffffffffffffffffffff1673ffffffffffffffffffffffffffffffffffffffff16146111b8576040517f08c379a00000000000000000000000000000000000000000000000000000000081526004016111af90614aa6565b60405180910390fd5b6000805b875181101561128b576000888281518110611200577f4e487b7100000000000000000000000000000000000000000000000000000000600052603260045260246000fd5b6020026020010151905060006112158261271a565b9050600060078281548110611253577f4e487b7100000000000000000000000000000000000000000000000000000000600052603260045260246000fd5b906000526020600020906007020190508060010154856112739190614e00565b94505050508080611283906150c6565b9150506111bc565b50604051806101a001604052808a8152602001600e54815260200160008152602001878152602001600081526020018973ffffffffffffffffffffffffffffffffffffffff1681526020016112de612a9c565b8152602001600015158152602001600081526020016000815260200160001515815260200160001515815260200182815250600a60008b8152602001908152602001600020600082015181600001556020820151816001015560408201518160020155606082015181600301556080820151816004015560a08201518160050160006101000a81548173ffffffffffffffffffffffffffffffffffffffff021916908373ffffffffffffffffffffffffffffffffffffffff16021790555060c0820151816006015560e08201518160070160006101000a81548160ff0219169083151502179055506101008201518160080155610120820151816009015561014082015181600a0160006101000a81548160ff02191690831515021790555061016082015181600a0160016101000a81548160ff02191690831515021790555061018082015181600b01559050507f6d4aad47cb7bcb13b25ae71b45f2c76944033a9b2e76c78a342b7863412504e689898960055489604051611465959493929190614873565b60405180910390a1505050505050505050565b600081600073ffffffffffffffffffffffffffffffffffffffff168173ffffffffffffffffffffffffffffffffffffffff1614156114b557600080fd5b60006114c08461271a565b905060008114156114d557600092505061152b565b600060078281548110611511577f4e487b7100000000000000000000000000000000000000000000000000000000600052603260045260246000fd5b906000526020600020906007020190508060010154935050505b50919050565b6000600f54905090565b6000600654905090565b60008061155061296d565b9050600073ffffffffffffffffffffffffffffffffffffffff168160a0015173ffffffffffffffffffffffffffffffffffffffff1614611595576005549150506115c6565b6000600c6000836000015181526020019081526020016000209050600181805490506115c19190614e00565b925050505b90565b60008060008373ffffffffffffffffffffffffffffffffffffffff1673ffffffffffffffffffffffffffffffffffffffff168152602001908152602001600020549050919050565b60003390506000600a6000600d548152602001908152602001600020604051806101a001604052908160008201548152602001600182015481526020016002820154815260200160038201548152602001600482015481526020016005820160009054906101000a900473ffffffffffffffffffffffffffffffffffffffff1673ffffffffffffffffffffffffffffffffffffffff1673ffffffffffffffffffffffffffffffffffffffff168152602001600682015481526020016007820160009054906101000a900460ff161515151581526020016008820154815260200160098201548152602001600a820160009054906101000a900460ff16151515158152602001600a820160019054906101000a900460ff16151515158152602001600b8201548152505090506000801b600e5414801561175457506000801b600d54145b1561176757600d54600e819055506117ad565b6117a37f0000000000000000000000000000000000000000000000000000000000000000826040015161179a9190614e00565b83600e54612ad3565b600d54600e819055505b600f54600d819055507f722e3d4179a09427e9445cc06f5ccd49fe7a5cb5f568f00324d780aca56e341c600d5483856040516117eb939291906148cd565b60405180910390a1505050565b60606004805461180790615012565b80601f016020809104026020016040519081016040528092919081815260200182805461183390615012565b80156118805780601f1061185557610100808354040283529160200191611880565b820191906000526020600020905b81548152906001019060200180831161186357829003601f168201915b5050505050905090565b60008061189561223a565b90506000600160008373ffffffffffffffffffffffffffffffffffffffff1673ffffffffffffffffffffffffffffffffffffffff16815260200190815260200160002060008673ffffffffffffffffffffffffffffffffffffffff1673ffffffffffffffffffffffffffffffffffffffff1681526020019081526020016000205490508381101561195b576040517f08c379a000000000000000000000000000000000000000000000000000000000815260040161195290614c06565b60405180910390fd5b6119688286868403612242565b60019250505092915050565b600033905060003073ffffffffffffffffffffffffffffffffffffffff166370a08231836040518263ffffffff1660e01b81526004016119b49190614800565b60206040518083038186803b1580156119cc57600080fd5b505afa1580156119e0573d6000803e3d6000fd5b505050506040513d601f19601f82011682018060405250810190611a049190613a62565b905082811015611a49576040517f08c379a0000000000000000000000000000000000000000000000000000000008152600401611a4090614a86565b60405180910390fd5b6000611a548361271a565b90506000811415611a6e57611a698385612c62565b611a79565b611a788185612f2e565b5b611a83838561304d565b50505050565b600080611a9461223a565b9050611aa1818585612499565b600191505092915050565b60606007805480602002602001604051908101604052809291908181526020016000905b82821015611ba557838290600052602060002090600702016040518060e00160405290816000820160009054906101000a900473ffffffffffffffffffffffffffffffffffffffff1673ffffffffffffffffffffffffffffffffffffffff1673ffffffffffffffffffffffffffffffffffffffff168152602001600182015481526020016002820154815260200160038201548152602001600482015481526020016005820160009054906101000a900460ff1615151515815260200160068201548152505081526020019060010190611ad0565b50505050905090565b600080611bb961296d565b9050600073ffffffffffffffffffffffffffffffffffffffff168160a0015173ffffffffffffffffffffffffffffffffffffffff1614611bfd576001915050611ce5565b6000600c600083600001518152602001908152602001600020905060005b8180549050811015611cdd57818181548110611c60577f4e487b7100000000000000000000000000000000000000000000000000000000600052603260045260246000fd5b9060005260206000200160009054906101000a900473ffffffffffffffffffffffffffffffffffffffff1673ffffffffffffffffffffffffffffffffffffffff168573ffffffffffffffffffffffffffffffffffffffff161415611cca5760019350505050611ce5565b8080611cd5906150c6565b915050611c1b565b506000925050505b919050565b611cf26136cc565b600a6000600d548152602001908152602001600020604051806101a001604052908160008201548152602001600182015481526020016002820154815260200160038201548152602001600482015481526020016005820160009054906101000a900473ffffffffffffffffffffffffffffffffffffffff1673ffffffffffffffffffffffffffffffffffffffff1673ffffffffffffffffffffffffffffffffffffffff168152602001600682015481526020016007820160009054906101000a900460ff161515151581526020016008820154815260200160098201548152602001600a820160009054906101000a900460ff16151515158152602001600a820160019054906101000a900460ff16151515158152602001600b82015481525050905090565b6000600160008473ffffffffffffffffffffffffffffffffffffffff1673ffffffffffffffffffffffffffffffffffffffff16815260200190815260200160002060008373ffffffffffffffffffffffffffffffffffffffff1673ffffffffffffffffffffffffffffffffffffffff16815260200190815260200160002054905092915050565b60003390506000600a6000600d548152602001908152602001600020604051806101a001604052908160008201548152602001600182015481526020016002820154815260200160038201548152602001600482015481526020016005820160009054906101000a900473ffffffffffffffffffffffffffffffffffffffff1673ffffffffffffffffffffffffffffffffffffffff1673ffffffffffffffffffffffffffffffffffffffff168152602001600682015481526020016007820160009054906101000a900460ff161515151581526020016008820154815260200160098201548152602001600a820160009054906101000a900460ff16151515158152602001600a820160019054906101000a900460ff16151515158152602001600b8201548152505090508060a0015173ffffffffffffffffffffffffffffffffffffffff168273ffffffffffffffffffffffffffffffffffffffff161461203d576040517f08c379a000000000000000000000000000000000000000000000000000000000815260040161203490614b06565b60405180910390fd5b6000801b600e5414801561205557506000801b600d54145b1561206857600d54600e819055506120ae565b6120a47f0000000000000000000000000000000000000000000000000000000000000000826040015161209b9190614e00565b83600e54612ad3565b600d54600e819055505b600f54600d819055506001816101600190151590811515815250507f722e3d4179a09427e9445cc06f5ccd49fe7a5cb5f568f00324d780aca56e341c600d5483856040516120fe939291906148cd565b60405180910390a1505050565b6121136136cc565b600a6000838152602001908152602001600020604051806101a001604052908160008201548152602001600182015481526020016002820154815260200160038201548152602001600482015481526020016005820160009054906101000a900473ffffffffffffffffffffffffffffffffffffffff1673ffffffffffffffffffffffffffffffffffffffff1673ffffffffffffffffffffffffffffffffffffffff168152602001600682015481526020016007820160009054906101000a900460ff161515151581526020016008820154815260200160098201548152602001600a820160009054906101000a900460ff16151515158152602001600a820160019054906101000a900460ff16151515158152602001600b820154815250509050919050565b600033905090565b600073ffffffffffffffffffffffffffffffffffffffff168373ffffffffffffffffffffffffffffffffffffffff1614156122b2576040517f08c379a00000000000000000000000000000000000000000000000000000000081526004016122a990614bc6565b60405180910390fd5b600073ffffffffffffffffffffffffffffffffffffffff168273ffffffffffffffffffffffffffffffffffffffff161415612322576040517f08c379a0000000000000000000000000000000000000000000000000000000008152600401612319906149a6565b60405180910390fd5b80600160008573ffffffffffffffffffffffffffffffffffffffff1673ffffffffffffffffffffffffffffffffffffffff16815260200190815260200160002060008473ffffffffffffffffffffffffffffffffffffffff1673ffffffffffffffffffffffffffffffffffffffff168152602001908152602001600020819055508173ffffffffffffffffffffffffffffffffffffffff168373ffffffffffffffffffffffffffffffffffffffff167f8c5be1e5ebec7d5bd14f71427d1e84f3dd0314c0f7b2291e5b200ac8c7c3b925836040516124009190614c7e565b60405180910390a3505050565b60006124198484611e19565b90507fffffffffffffffffffffffffffffffffffffffffffffffffffffffffffffffff81146124935781811015612485576040517f08c379a000000000000000000000000000000000000000000000000000000000815260040161247c906149e6565b60405180910390fd5b6124928484848403612242565b5b50505050565b600073ffffffffffffffffffffffffffffffffffffffff168373ffffffffffffffffffffffffffffffffffffffff161415612509576040517f08c379a000000000000000000000000000000000000000000000000000000000815260040161250090614ba6565b60405180910390fd5b600073ffffffffffffffffffffffffffffffffffffffff168273ffffffffffffffffffffffffffffffffffffffff161415612579576040517f08c379a000000000000000000000000000000000000000000000000000000000815260040161257090614926565b60405180910390fd5b612584838383613224565b60008060008573ffffffffffffffffffffffffffffffffffffffff1673ffffffffffffffffffffffffffffffffffffffff1681526020019081526020016000205490508181101561260a576040517f08c379a000000000000000000000000000000000000000000000000000000000815260040161260190614a46565b60405180910390fd5b8181036000808673ffffffffffffffffffffffffffffffffffffffff1673ffffffffffffffffffffffffffffffffffffffff16815260200190815260200160002081905550816000808573ffffffffffffffffffffffffffffffffffffffff1673ffffffffffffffffffffffffffffffffffffffff168152602001908152602001600020600082825461269d9190614e00565b925050819055508273ffffffffffffffffffffffffffffffffffffffff168473ffffffffffffffffffffffffffffffffffffffff167fddf252ad1be2c89b69c2b068fc378daa952ba7f163c4a11628f55a4df523b3ef846040516127019190614c7e565b60405180910390a3612714848484613229565b50505050565b600081600073ffffffffffffffffffffffffffffffffffffffff168173ffffffffffffffffffffffffffffffffffffffff16141561275757600080fd5b6000600960008573ffffffffffffffffffffffffffffffffffffffff1673ffffffffffffffffffffffffffffffffffffffff16815260200190815260200160002054905060008114156127ae576000925050612807565b60016007805490506127c09190614ee1565b811115612802576040517f08c379a00000000000000000000000000000000000000000000000000000000081526004016127f990614b66565b60405180910390fd5b809250505b50919050565b600073ffffffffffffffffffffffffffffffffffffffff168273ffffffffffffffffffffffffffffffffffffffff16141561287d576040517f08c379a000000000000000000000000000000000000000000000000000000000815260040161287490614c26565b60405180910390fd5b61288960008383613224565b806002600082825461289b9190614e00565b92505081905550806000808473ffffffffffffffffffffffffffffffffffffffff1673ffffffffffffffffffffffffffffffffffffffff16815260200190815260200160002060008282546128f09190614e00565b925050819055508173ffffffffffffffffffffffffffffffffffffffff16600073ffffffffffffffffffffffffffffffffffffffff167fddf252ad1be2c89b69c2b068fc378daa952ba7f163c4a11628f55a4df523b3ef836040516129559190614c7e565b60405180910390a361296960008383613229565b5050565b6129756136cc565b600a6000600d548152602001908152602001600020604051806101a001604052908160008201548152602001600182015481526020016002820154815260200160038201548152602001600482015481526020016005820160009054906101000a900473ffffffffffffffffffffffffffffffffffffffff1673ffffffffffffffffffffffffffffffffffffffff1673ffffffffffffffffffffffffffffffffffffffff168152602001600682015481526020016007820160009054906101000a900460ff161515151581526020016008820154815260200160098201548152602001600a820160009054906101000a900460ff16151515158152602001600a820160019054906101000a900460ff16151515158152602001600b82015481525050905090565b600060016005541415612ab25760019050612ad0565b60646033600554612ac39190614e87565b612acd9190614e56565b90505b90565b6000600284612ae29190614e56565b90506000600960008573ffffffffffffffffffffffffffffffffffffffff1673ffffffffffffffffffffffffffffffffffffffff168152602001908152602001600020549050600060078281548110612b64577f4e487b7100000000000000000000000000000000000000000000000000000000600052603260045260246000fd5b90600052602060002090600702019050600073ffffffffffffffffffffffffffffffffffffffff168160000160009054906101000a900473ffffffffffffffffffffffffffffffffffffffff1673ffffffffffffffffffffffffffffffffffffffff161415612c08576040517f08c379a0000000000000000000000000000000000000000000000000000000008152600401612bff90614966565b60405180910390fd5b82816006016000828254612c1c9190614e00565b9250508190555082816001016000828254612c379190614e00565b9250508190555060008387612c4c9190614ee1565b9050612c5985828861322e565b50505050505050565b60007f00000000000000000000000000000000000000000000000000000000000000008210159050600060078054905090506000811415612dc4578080612ca8906150c6565b91505060076040518060e00160405280600073ffffffffffffffffffffffffffffffffffffffff168152602001600081526020016000815260200160008152602001600081526020016000151581526020016000815250908060018154018082558091505060019003906000526020600020906007020160009091909190915060008201518160000160006101000a81548173ffffffffffffffffffffffffffffffffffffffff021916908373ffffffffffffffffffffffffffffffffffffffff1602179055506020820151816001015560408201518160020155606082015181600301556080820151816004015560a08201518160050160006101000a81548160ff02191690831515021790555060c0820151816006015550505b60076040518060e001604052808673ffffffffffffffffffffffffffffffffffffffff168152602001858152602001858152602001600081526020016000815260200184151581526020016000815250908060018154018082558091505060019003906000526020600020906007020160009091909190915060008201518160000160006101000a81548173ffffffffffffffffffffffffffffffffffffffff021916908373ffffffffffffffffffffffffffffffffffffffff1602179055506020820151816001015560408201518160020155606082015181600301556080820151816004015560a08201518160050160006101000a81548160ff02191690831515021790555060c08201518160060155505080600960008673ffffffffffffffffffffffffffffffffffffffff1673ffffffffffffffffffffffffffffffffffffffff16815260200190815260200160002081905550612f278285836135e4565b5050505050565b600060078381548110612f6a577f4e487b7100000000000000000000000000000000000000000000000000000000600052603260045260246000fd5b9060005260206000209060070201905081816001016000828254612f8e9190614e00565b9250508190555081816002016000828254612fa99190614e00565b925050819055508060050160009054906101000a900460ff166130485760007f000000000000000000000000000000000000000000000000000000000000000082600101541015905080156130465760018260050160006101000a81548160ff021916908315150217905550613044818360000160009054906101000a900473ffffffffffffffffffffffffffffffffffffffff16866135e4565b505b505b505050565b600073ffffffffffffffffffffffffffffffffffffffff168273ffffffffffffffffffffffffffffffffffffffff1614156130bd576040517f08c379a00000000000000000000000000000000000000000000000000000000081526004016130b490614b86565b60405180910390fd5b6130c982600083613224565b60008060008473ffffffffffffffffffffffffffffffffffffffff1673ffffffffffffffffffffffffffffffffffffffff1681526020019081526020016000205490508181101561314f576040517f08c379a000000000000000000000000000000000000000000000000000000000815260040161314690614946565b60405180910390fd5b8181036000808573ffffffffffffffffffffffffffffffffffffffff1673ffffffffffffffffffffffffffffffffffffffff1681526020019081526020016000208190555081600260008282546131a69190614ee1565b92505081905550600073ffffffffffffffffffffffffffffffffffffffff168373ffffffffffffffffffffffffffffffffffffffff167fddf252ad1be2c89b69c2b068fc378daa952ba7f163c4a11628f55a4df523b3ef8460405161320b9190614c7e565b60405180910390a361321f83600084613229565b505050565b505050565b505050565b6000600c6000858152602001908152602001600020905060008180549050141561332d57600061325d8361271a565b905060008114156132a3576040517f08c379a000000000000000000000000000000000000000000000000000000000815260040161329a90614b26565b60405180910390fd5b6000600782815481106132df577f4e487b7100000000000000000000000000000000000000000000000000000000600052603260045260246000fd5b90600052602060002090600702019050848160010160008282546133039190614e00565b925050819055508481600601600082825461331e9190614e00565b925050819055505050506135df565b6000600a60008681526020019081526020016000209050600073ffffffffffffffffffffffffffffffffffffffff168160050160009054906101000a900473ffffffffffffffffffffffffffffffffffffffff1673ffffffffffffffffffffffffffffffffffffffff1614156133d8576040517f08c379a00000000000000000000000000000000000000000000000000000000081526004016133cf90614986565b60405180910390fd5b60005b82805490508110156135db576000613455848381548110613425577f4e487b7100000000000000000000000000000000000000000000000000000000600052603260045260246000fd5b9060005260206000200160009054906101000a900473ffffffffffffffffffffffffffffffffffffffff1661271a565b9050600081141561349b576040517f08c379a000000000000000000000000000000000000000000000000000000000815260040161349290614a26565b60405180910390fd5b6000600782815481106134d7577f4e487b7100000000000000000000000000000000000000000000000000000000600052603260045260246000fd5b90600052602060002090600702019050600073ffffffffffffffffffffffffffffffffffffffff168160000160009054906101000a900473ffffffffffffffffffffffffffffffffffffffff1673ffffffffffffffffffffffffffffffffffffffff16146135c657600084600b0154606483600101546135579190614e87565b6135619190614e56565b905060006064828a6135739190614e87565b61357d9190614e56565b9050808961358b9190614ee1565b9850808360010160008282546135a19190614e00565b92505081905550808360060160008282546135bc9190614e00565b9250508190555050505b505080806135d3906150c6565b9150506133db565b5050505b505050565b6000836135f457600090506136c5565b6000600860008573ffffffffffffffffffffffffffffffffffffffff1673ffffffffffffffffffffffffffffffffffffffff16815260200190815260200160002054905060008114156136a75782600860008673ffffffffffffffffffffffffffffffffffffffff1673ffffffffffffffffffffffffffffffffffffffff1681526020019081526020016000208190555060056000815480929190613698906150c6565b919050555060019150506136c5565b600560008154809291906136ba906150c6565b919050555060019150505b9392505050565b604051806101a001604052806000801916815260200160008019168152602001600081526020016000815260200160008152602001600073ffffffffffffffffffffffffffffffffffffffff168152602001600081526020016000151581526020016000815260200160008152602001600015158152602001600015158152602001600081525090565b600061376961376484614d46565b614d15565b9050808382526020820190508285602086028201111561378857600080fd5b60005b858110156137b8578161379e88826137c2565b84526020840193506020830192505060018101905061378b565b5050509392505050565b6000813590506137d1816151f6565b92915050565b600082601f8301126137e857600080fd5b81356137f8848260208601613756565b91505092915050565b6000813590506138108161520d565b92915050565b60008135905061382581615224565b92915050565b60008135905061383a8161523b565b92915050565b60008151905061384f8161523b565b92915050565b60006020828403121561386757600080fd5b6000613875848285016137c2565b91505092915050565b6000806040838503121561389157600080fd5b600061389f858286016137c2565b92505060206138b0858286016137c2565b9150509250929050565b6000806000606084860312156138cf57600080fd5b60006138dd868287016137c2565b93505060206138ee868287016137c2565b92505060406138ff8682870161382b565b9150509250925092565b6000806040838503121561391c57600080fd5b600061392a858286016137c2565b925050602061393b8582860161382b565b9150509250929050565b60006020828403121561395757600080fd5b600061396584828501613816565b91505092915050565b600080600080600060a0868803121561398657600080fd5b600061399488828901613816565b95505060206139a5888289016137c2565b945050604086013567ffffffffffffffff8111156139c257600080fd5b6139ce888289016137d7565b93505060606139df8882890161382b565b92505060806139f08882890161382b565b9150509295509295909350565b60008060408385031215613a1057600080fd5b6000613a1e85828601613816565b9250506020613a2f85828601613801565b9150509250929050565b600060208284031215613a4b57600080fd5b6000613a598482850161382b565b91505092915050565b600060208284031215613a7457600080fd5b6000613a8284828501613840565b91505092915050565b6000613a978383613abb565b60208301905092915050565b6000613aaf8383614745565b60e08301905092915050565b613ac481614f56565b82525050565b613ad381614f56565b82525050565b6000613ae482614d92565b613aee8185614dcd565b9350613af983614d72565b8060005b83811015613b2a578151613b118882613a8b565b9750613b1c83614db3565b925050600181019050613afd565b5085935050505092915050565b6000613b4282614d9d565b613b4c8185614dde565b9350613b5783614d82565b8060005b83811015613b88578151613b6f8882613aa3565b9750613b7a83614dc0565b925050600181019050613b5b565b5085935050505092915050565b613b9e81614f68565b82525050565b613bad81614f68565b82525050565b613bbc81614f74565b82525050565b613bcb81614f74565b82525050565b6000613bdc82614da8565b613be68185614def565b9350613bf6818560208601614fb5565b613bff816151cb565b840191505092915050565b6000613c17602383614def565b91507f45524332303a207472616e7366657220746f20746865207a65726f206164647260008301527f65737300000000000000000000000000000000000000000000000000000000006020830152604082019050919050565b6000613c7d602283614def565b91507f45524332303a206275726e20616d6f756e7420657863656564732062616c616e60008301527f63650000000000000000000000000000000000000000000000000000000000006020830152604082019050919050565b6000613ce3601f83614def565b91507f43686169726d616e206164647265737320646f6573206e6f74206578697374006000830152602082019050919050565b6000613d23600e83614def565b91507f496e76616c6964204572612049640000000000000000000000000000000000006000830152602082019050919050565b6000613d63602283614def565b91507f45524332303a20617070726f766520746f20746865207a65726f20616464726560008301527f73730000000000000000000000000000000000000000000000000000000000006020830152604082019050919050565b6000613dc9602183614def565b91507f45726120776974682070617373656420496420646f6573206e6f74206578697360008301527f74000000000000000000000000000000000000000000000000000000000000006020830152604082019050919050565b6000613e2f601d83614def565b91507f45524332303a20696e73756666696369656e7420616c6c6f77616e63650000006000830152602082019050919050565b6000613e6f602283614def565b91507f496e73756666696369656e742062616c616e636520666f7220756e7374616b6960008301527f6e670000000000000000000000000000000000000000000000000000000000006020830152604082019050919050565b6000613ed5601883614def565b91507f496e76616c69642063686169726d616e206164647265737300000000000000006000830152602082019050919050565b6000613f15602683614def565b91507f45524332303a207472616e7366657220616d6f756e742065786365656473206260008301527f616c616e636500000000000000000000000000000000000000000000000000006020830152604082019050919050565b6000613f7b601783614def565b91507f56616c696461746f7220616c726561647920766f7465640000000000000000006000830152602082019050919050565b6000613fbb602083614def565b91507f496e73756666696369656e742062616c616e636520666f72207374616b696e676000830152602082019050919050565b6000613ffb602583614def565b91507f4572612077697468207468652073616d6520494420616c72656164792070726f60008301527f706f7365640000000000000000000000000000000000000000000000000000006020830152604082019050919050565b6000614061602f83614def565b91507f43616c6c6572206e6f742070726576696f7573206572612063686169726d616e60008301527f2e204163636573732064656e69656400000000000000000000000000000000006020830152604082019050919050565b60006140c7602583614def565b91507f41646472657373206e6f74206c696e6b656420746f20616e79207374616b656860008301527f6f6c6465720000000000000000000000000000000000000000000000000000006020830152604082019050919050565b600061412d602183614def565b91507f4f6e6c792063686169726d616e2063616e20656e642063757272656e7420657260008301527f61000000000000000000000000000000000000000000000000000000000000006020830152604082019050919050565b6000614193601883614def565b91507f496e76616c69642063686172696d616e206164647265737300000000000000006000830152602082019050919050565b60006141d3602383614def565b91507f566f74696e6720666f7262696464656e20666f72206e6f6e2d76616c6964617460008301527f6f727300000000000000000000000000000000000000000000000000000000006020830152604082019050919050565b6000614239602983614def565b91507f496e76616c696420696e64657820666f72207374616b65686f6c64657273206360008301527f6f6c6c656374696f6e00000000000000000000000000000000000000000000006020830152604082019050919050565b600061429f602183614def565b91507f45524332303a206275726e2066726f6d20746865207a65726f2061646472657360008301527f73000000000000000000000000000000000000000000000000000000000000006020830152604082019050919050565b6000614305602583614def565b91507f45524332303a207472616e736665722066726f6d20746865207a65726f20616460008301527f64726573730000000000000000000000000000000000000000000000000000006020830152604082019050919050565b600061436b602483614def565b91507f45524332303a20617070726f76652066726f6d20746865207a65726f2061646460008301527f72657373000000000000000000000000000000000000000000000000000000006020830152604082019050919050565b60006143d1601f83614def565b91507f566f746520616c726561647920656e64656420666f72207468617420657261006000830152602082019050919050565b6000614411602583614def565b91507f45524332303a2064656372656173656420616c6c6f77616e63652062656c6f7760008301527f207a65726f0000000000000000000000000000000000000000000000000000006020830152604082019050919050565b6000614477601f83614def565b91507f45524332303a206d696e7420746f20746865207a65726f2061646472657373006000830152602082019050919050565b6101a0820160008201516144c16000850182613bb3565b5060208201516144d46020850182613bb3565b5060408201516144e760408501826147d3565b5060608201516144fa60608501826147d3565b50608082015161450d60808501826147d3565b5060a082015161452060a0850182613abb565b5060c082015161453360c08501826147d3565b5060e082015161454660e0850182613b95565b5061010082015161455b6101008501826147d3565b506101208201516145706101208501826147d3565b50610140820151614585610140850182613b95565b5061016082015161459a610160850182613b95565b506101808201516145af6101808501826147d3565b50505050565b6101a0820160008083015490506145cb81615078565b6145d86000860182613bb3565b50600183015490506145e981615078565b6145f66020860182613bb3565b506002830154905061460781615092565b61461460408601826147d3565b506003830154905061462581615092565b61463260608601826147d3565b506004830154905061464381615092565b61465060808601826147d3565b506005830154905061466181615044565b61466e60a0860182613abb565b506006830154905061467f81615092565b61468c60c08601826147d3565b506007830154905061469d8161505e565b6146aa60e0860182613b95565b50600883015490506146bb81615092565b6146c96101008601826147d3565b50600983015490506146da81615092565b6146e86101208601826147d3565b50600a83015490506146f98161505e565b614707610140860182613b95565b50614711816150ac565b61471f610160860182613b95565b50600b830154905061473081615092565b61473e6101808601826147d3565b5050505050565b60e08201600082015161475b6000850182613abb565b50602082015161476e60208501826147d3565b50604082015161478160408501826147d3565b50606082015161479460608501826147d3565b5060808201516147a760808501826147d3565b5060a08201516147ba60a0850182613b95565b5060c08201516147cd60c08501826147d3565b50505050565b6147dc81614f9e565b82525050565b6147eb81614f9e565b82525050565b6147fa81614fa8565b82525050565b60006020820190506148156000830184613aca565b92915050565b600060208201905081810360008301526148358184613b37565b905092915050565b60006020820190506148526000830184613ba4565b92915050565b600060208201905061486d6000830184613bc2565b92915050565b600060a0820190506148886000830188613bc2565b6148956020830187613aca565b81810360408301526148a78186613ad9565b90506148b660608301856147e2565b6148c360808301846147e2565b9695505050505050565b60006060820190506148e26000830186613bc2565b6148ef6020830185613aca565b6148fc60408301846147e2565b949350505050565b6000602082019050818103600083015261491e8184613bd1565b905092915050565b6000602082019050818103600083015261493f81613c0a565b9050919050565b6000602082019050818103600083015261495f81613c70565b9050919050565b6000602082019050818103600083015261497f81613cd6565b9050919050565b6000602082019050818103600083015261499f81613d16565b9050919050565b600060208201905081810360008301526149bf81613d56565b9050919050565b600060208201905081810360008301526149df81613dbc565b9050919050565b600060208201905081810360008301526149ff81613e22565b9050919050565b60006020820190508181036000830152614a1f81613e62565b9050919050565b60006020820190508181036000830152614a3f81613ec8565b9050919050565b60006020820190508181036000830152614a5f81613f08565b9050919050565b60006020820190508181036000830152614a7f81613f6e565b9050919050565b60006020820190508181036000830152614a9f81613fae565b9050919050565b60006020820190508181036000830152614abf81613fee565b9050919050565b60006020820190508181036000830152614adf81614054565b9050919050565b60006020820190508181036000830152614aff816140ba565b9050919050565b60006020820190508181036000830152614b1f81614120565b9050919050565b60006020820190508181036000830152614b3f81614186565b9050919050565b60006020820190508181036000830152614b5f816141c6565b9050919050565b60006020820190508181036000830152614b7f8161422c565b9050919050565b60006020820190508181036000830152614b9f81614292565b9050919050565b60006020820190508181036000830152614bbf816142f8565b9050919050565b60006020820190508181036000830152614bdf8161435e565b9050919050565b60006020820190508181036000830152614bff816143c4565b9050919050565b60006020820190508181036000830152614c1f81614404565b9050919050565b60006020820190508181036000830152614c3f8161446a565b9050919050565b60006101a082019050614c5c60008301846144aa565b92915050565b60006101a082019050614c7860008301846145b5565b92915050565b6000602082019050614c9360008301846147e2565b92915050565b600060c082019050614cae60008301896147e2565b614cbb60208301886147e2565b614cc860408301876147e2565b614cd560608301866147e2565b614ce26080830185613ba4565b614cef60a08301846147e2565b979650505050505050565b6000602082019050614d0f60008301846147f1565b92915050565b6000604051905081810181811067ffffffffffffffff82111715614d3c57614d3b61519c565b5b8060405250919050565b600067ffffffffffffffff821115614d6157614d6061519c565b5b602082029050602081019050919050565b6000819050602082019050919050565b6000819050602082019050919050565b600081519050919050565b600081519050919050565b600081519050919050565b6000602082019050919050565b6000602082019050919050565b600082825260208201905092915050565b600082825260208201905092915050565b600082825260208201905092915050565b6000614e0b82614f9e565b9150614e1683614f9e565b9250827fffffffffffffffffffffffffffffffffffffffffffffffffffffffffffffffff03821115614e4b57614e4a61510f565b5b828201905092915050565b6000614e6182614f9e565b9150614e6c83614f9e565b925082614e7c57614e7b61513e565b5b828204905092915050565b6000614e9282614f9e565b9150614e9d83614f9e565b9250817fffffffffffffffffffffffffffffffffffffffffffffffffffffffffffffffff0483118215151615614ed657614ed561510f565b5b828202905092915050565b6000614eec82614f9e565b9150614ef783614f9e565b925082821015614f0a57614f0961510f565b5b828203905092915050565b600073ffffffffffffffffffffffffffffffffffffffff82169050919050565b600060ff82169050919050565b6000819050919050565b6000819050919050565b6000614f6182614f7e565b9050919050565b60008115159050919050565b6000819050919050565b600073ffffffffffffffffffffffffffffffffffffffff82169050919050565b6000819050919050565b600060ff82169050919050565b60005b83811015614fd3578082015181840152602081019050614fb8565b83811115614fe2576000848401525b50505050565b6000614ff382614f9e565b915060008214156150075761500661510f565b5b600182039050919050565b6000600282049050600182168061502a57607f821691505b6020821081141561503e5761503d61516d565b5b50919050565b6000615057615052836151dc565b614f15565b9050919050565b600061507161506c836151dc565b614f35565b9050919050565b600061508b615086836151dc565b614f42565b9050919050565b60006150a56150a0836151dc565b614f4c565b9050919050565b60006150bf6150ba836151e9565b614f35565b9050919050565b60006150d182614f9e565b91507fffffffffffffffffffffffffffffffffffffffffffffffffffffffffffffffff8214156151045761510361510f565b5b600182019050919050565b7f4e487b7100000000000000000000000000000000000000000000000000000000600052601160045260246000fd5b7f4e487b7100000000000000000000000000000000000000000000000000000000600052601260045260246000fd5b7f4e487b7100000000000000000000000000000000000000000000000000000000600052602260045260246000fd5b7f4e487b7100000000000000000000000000000000000000000000000000000000600052604160045260246000fd5b6000601f19601f8301169050919050565b60008160001c9050919050565b60008160081c9050919050565b6151ff81614f56565b811461520a57600080fd5b50565b61521681614f68565b811461522157600080fd5b50565b61522d81614f74565b811461523857600080fd5b50565b61524481614f9e565b811461524f57600080fd5b5056fea264697066735822122019839897f58b447dbbea35404156b2b0c9f4f9edd4d89aa8de9df90113c5c63464736f6c63430008000033",
  "immutableReferences": {
    "2008": [
      {
        "length": 32,
        "start": 5996
      },
      {
        "length": 32,
        "start": 8301
      }
    ],
    "2962": [
      {
        "length": 32,
        "start": 2668
      },
      {
        "length": 32,
        "start": 11366
      },
      {
        "length": 32,
        "start": 12234
      }
    ]
  },
  "source": "pragma solidity ^0.8.0;\r\n\r\nimport \"./base/ERC20ProofOfStake.sol\";\r\n\r\ncontract GoldOracleToken is ERC20ProofOfStake {\r\n    uint256 private constant MIN_STAKED_AMOUNT_REQUIRED_FOR_VALIDATION =\r\n        20000 * 10**18;\r\n    uint256 private constant REWARD_AMOUNT_IN_TOKENS_AFTER_EACH_ERA =\r\n        1000 * 10**18;\r\n    address private _owner;\r\n\r\n    constructor()\r\n        ERC20ProofOfStake(\r\n            \"GoldOracleToken\",\r\n            \"GOT\",\r\n            MIN_STAKED_AMOUNT_REQUIRED_FOR_VALIDATION,\r\n            REWARD_AMOUNT_IN_TOKENS_AFTER_EACH_ERA\r\n        )\r\n    {\r\n        _owner = msg.sender;\r\n        _mint(msg.sender, MIN_STAKED_AMOUNT_REQUIRED_FOR_VALIDATION * 10); // for testing\r\n    }\r\n\r\n    function getOwnerAddress() public view returns (address) {\r\n        return _owner;\r\n    }\r\n}\r\n",
  "sourcePath": "D:\\Documents\\Dev\\Repositories\\gold-price-oracle\\gold-price-oracle\\on-chain\\contracts\\token\\GoldOracleToken.sol",
  "compiler": {
    "name": "solc",
    "version": "0.8.0+commit.c7dfd78e.Emscripten.clang"
  },
  "schemaVersion": "3.4.3",
  "updatedAt": "2022-05-23T23:43:41.218Z",
  "devdoc": {
    "kind": "dev",
    "methods": {
      "allowance(address,address)": {
        "details": "See {IERC20-allowance}."
      },
      "approve(address,uint256)": {
        "details": "See {IERC20-approve}. NOTE: If `amount` is the maximum `uint256`, the allowance is not updated on `transferFrom`. This is semantically equivalent to an infinite approval. Requirements: - `spender` cannot be the zero address."
      },
      "balanceOf(address)": {
        "details": "See {IERC20-balanceOf}."
      },
      "decimals()": {
        "details": "Returns the number of decimals used to get its user representation. For example, if `decimals` equals `2`, a balance of `505` tokens should be displayed to a user as `5.05` (`505 / 10 ** 2`). Tokens usually opt for a value of 18, imitating the relationship between Ether and Wei. This is the value {ERC20} uses, unless this function is overridden; NOTE: This information is only used for _display_ purposes: it in no way affects any of the arithmetic of the contract, including {IERC20-balanceOf} and {IERC20-transfer}."
      },
      "decreaseAllowance(address,uint256)": {
        "details": "Atomically decreases the allowance granted to `spender` by the caller. This is an alternative to {approve} that can be used as a mitigation for problems described in {IERC20-approve}. Emits an {Approval} event indicating the updated allowance. Requirements: - `spender` cannot be the zero address. - `spender` must have allowance for the caller of at least `subtractedValue`."
      },
      "increaseAllowance(address,uint256)": {
        "details": "Atomically increases the allowance granted to `spender` by the caller. This is an alternative to {approve} that can be used as a mitigation for problems described in {IERC20-approve}. Emits an {Approval} event indicating the updated allowance. Requirements: - `spender` cannot be the zero address."
      },
      "name()": {
        "details": "Returns the name of the token."
      },
      "symbol()": {
        "details": "Returns the symbol of the token, usually a shorter version of the name."
      },
      "totalSupply()": {
        "details": "See {IERC20-totalSupply}."
      },
      "transfer(address,uint256)": {
        "details": "See {IERC20-transfer}. Requirements: - `to` cannot be the zero address. - the caller must have a balance of at least `amount`."
      },
      "transferFrom(address,address,uint256)": {
        "details": "See {IERC20-transferFrom}. Emits an {Approval} event indicating the updated allowance. This is not required by the EIP. See the note at the beginning of {ERC20}. NOTE: Does not update the allowance if the current allowance is the maximum `uint256`. Requirements: - `from` and `to` cannot be the zero address. - `from` must have a balance of at least `amount`. - the caller must have allowance for ``from``'s tokens of at least `amount`."
      }
    },
    "version": 1
  },
  "userdoc": {
    "kind": "user",
    "methods": {},
    "version": 1
  }
}