{
  "contractName": "GoldPriceAggregator",
  "abi": [
    {
      "inputs": [
        {
          "internalType": "string",
          "name": "assetCode",
          "type": "string"
        },
        {
          "internalType": "string",
          "name": "currencyCode",
          "type": "string"
        }
      ],
      "stateMutability": "nonpayable",
      "type": "constructor"
    },
    {
      "inputs": [],
      "name": "getPrice",
      "outputs": [
        {
          "internalType": "uint256",
          "name": "price",
          "type": "uint256"
        },
        {
          "internalType": "bytes",
          "name": "assetCode",
          "type": "bytes"
        },
        {
          "internalType": "bytes",
          "name": "currencyCode",
          "type": "bytes"
        }
      ],
      "stateMutability": "nonpayable",
      "type": "function"
    }
  ],
  "bytecode": "0x608060405234801561001057600080fd5b506040516103e23803806103e2833981810160405281019061003291906100a1565b50506101d0565b600061004c6100478461013e565b61010d565b90508281526020810184848401111561006457600080fd5b61006f84828561016e565b509392505050565b600082601f83011261008857600080fd5b8151610098848260208601610039565b91505092915050565b600080604083850312156100b457600080fd5b600083015167ffffffffffffffff8111156100ce57600080fd5b6100da85828601610077565b925050602083015167ffffffffffffffff8111156100f757600080fd5b61010385828601610077565b9150509250929050565b6000604051905081810181811067ffffffffffffffff82111715610134576101336101a1565b5b8060405250919050565b600067ffffffffffffffff821115610159576101586101a1565b5b601f19601f8301169050602081019050919050565b60005b8381101561018c578082015181840152602081019050610171565b8381111561019b576000848401525b50505050565b7f4e487b7100000000000000000000000000000000000000000000000000000000600052604160045260246000fd5b610203806101df6000396000f3fe608060405234801561001057600080fd5b506004361061002b5760003560e01c806398d5fdca14610030575b600080fd5b610038610050565b6040516100479392919061011e565b60405180910390f35b6000606080686194049f30f72000006040518060400160405280600381526020017f58415500000000000000000000000000000000000000000000000000000000008152506040518060400160405280600481526020017f5553445400000000000000000000000000000000000000000000000000000000815250925092509250909192565b60006100e182610163565b6100eb818561016e565b93506100fb818560208601610189565b610104816101bc565b840191505092915050565b6101188161017f565b82525050565b6000606082019050610133600083018661010f565b818103602083015261014581856100d6565b9050818103604083015261015981846100d6565b9050949350505050565b600081519050919050565b600082825260208201905092915050565b6000819050919050565b60005b838110156101a757808201518184015260208101905061018c565b838111156101b6576000848401525b50505050565b6000601f19601f830116905091905056fea2646970667358221220a34cca50278bbf25ff1659546749c025862f9dfc0627199e1fa11bc3e9d3c13664736f6c63430008000033",
  "immutableReferences": {},
  "source": "pragma solidity ^0.8.0;\r\n\r\nimport \"../Interfaces/IAggregator.sol\";\r\n\r\ncontract GoldPriceAggregator is IAggregator {\r\n    constructor(string memory assetCode, string memory currencyCode) {}\r\n\r\n    function getPrice()\r\n        external\r\n        override\r\n        returns (\r\n            uint256 price,\r\n            bytes memory assetCode,\r\n            bytes memory currencyCode\r\n        )\r\n    {\r\n        //TODO:\r\n        return (1800 * 10**18, \"XAU\", \"USDT\");\r\n    }\r\n}\r\n",
  "sourcePath": "D:\\Documents\\Dev\\Repositories\\gold-price-oracle\\gold-price-oracle\\on-chain\\contracts\\oracle\\aggregators\\GoldPriceAggregator.sol",
  "compiler": {
    "name": "solc",
    "version": "0.8.0+commit.c7dfd78e.Emscripten.clang"
  },
  "schemaVersion": "3.4.3",
  "updatedAt": "2022-02-23T11:35:43.978Z",
  "devdoc": {
    "kind": "dev",
    "methods": {},
    "version": 1
  },
  "userdoc": {
    "kind": "user",
    "methods": {},
    "version": 1
  }
}