{
  "contractName": "GoldPriceResolver",
  "abi": [
    {
      "inputs": [
        {
          "internalType": "address",
          "name": "erasMonitorAddress_",
          "type": "address"
        }
      ],
      "stateMutability": "nonpayable",
      "type": "constructor"
    },
    {
      "anonymous": false,
      "inputs": [
        {
          "indexed": false,
          "internalType": "string",
          "name": "assetSymbol",
          "type": "string"
        },
        {
          "indexed": false,
          "internalType": "string",
          "name": "currencySymbol",
          "type": "string"
        },
        {
          "indexed": false,
          "internalType": "bytes32",
          "name": "roundId",
          "type": "bytes32"
        },
        {
          "indexed": false,
          "internalType": "address",
          "name": "proposalEmiterAddress",
          "type": "address"
        },
        {
          "indexed": false,
          "internalType": "uint256",
          "name": "price",
          "type": "uint256"
        }
      ],
      "name": "NewPriceVote",
      "type": "event"
    },
    {
      "inputs": [],
      "name": "getLatestValidData",
      "outputs": [
        {
          "components": [
            {
              "internalType": "bytes32",
              "name": "roundId",
              "type": "bytes32"
            },
            {
              "internalType": "uint256",
              "name": "nonce",
              "type": "uint256"
            },
            {
              "internalType": "address",
              "name": "node",
              "type": "address"
            },
            {
              "internalType": "uint256",
              "name": "price",
              "type": "uint256"
            },
            {
              "internalType": "string",
              "name": "assetCode",
              "type": "string"
            },
            {
              "internalType": "string",
              "name": "currencyCode",
              "type": "string"
            },
            {
              "internalType": "uint256",
              "name": "requiredQuorum",
              "type": "uint256"
            },
            {
              "internalType": "bool",
              "name": "isQuorumReached",
              "type": "bool"
            },
            {
              "internalType": "uint256",
              "name": "acceptVotes",
              "type": "uint256"
            },
            {
              "internalType": "uint256",
              "name": "refuseVotes",
              "type": "uint256"
            }
          ],
          "internalType": "struct Rounds.Round",
          "name": "round",
          "type": "tuple"
        }
      ],
      "stateMutability": "view",
      "type": "function"
    },
    {
      "inputs": [],
      "name": "getRoundCount",
      "outputs": [
        {
          "internalType": "uint256",
          "name": "",
          "type": "uint256"
        }
      ],
      "stateMutability": "view",
      "type": "function"
    },
    {
      "inputs": [
        {
          "internalType": "uint256",
          "name": "price_",
          "type": "uint256"
        }
      ],
      "name": "startNewPriceRound",
      "outputs": [],
      "stateMutability": "nonpayable",
      "type": "function"
    },
    {
      "inputs": [
        {
          "internalType": "bytes32",
          "name": "roundId_",
          "type": "bytes32"
        },
        {
          "internalType": "uint256",
          "name": "price_",
          "type": "uint256"
        }
      ],
      "name": "votePriceForRound",
      "outputs": [],
      "stateMutability": "nonpayable",
      "type": "function"
    }
  ],
  "bytecode": "0x60a06040523480156200001157600080fd5b5060405162002db238038062002db28339818101604052810190620000379190620004cc565b6040518060400160405280600381526020017f58554100000000000000000000000000000000000000000000000000000000008152506040518060400160405280600481526020017f555344540000000000000000000000000000000000000000000000000000000081525060038381608081815250508360009080519060200190620000c692919062000405565b508260019080519060200190620000df92919062000405565b5080600560006101000a81548173ffffffffffffffffffffffffffffffffffffffff021916908373ffffffffffffffffffffffffffffffffffffffff160217905550620001316200013c60201b60201c565b50505050506200067f565b60008060405160200162000151919062000555565b604051602081830303815290604052805190602001209050600260405180610140016040528083815260200160008152602001600073ffffffffffffffffffffffffffffffffffffffff1681526020016000815260200160008054620001b790620005cb565b80601f0160208091040260200160405190810160405280929190818152602001828054620001e590620005cb565b8015620002365780601f106200020a5761010080835404028352916020019162000236565b820191906000526020600020905b8154815290600101906020018083116200021857829003601f168201915b50505050508152602001600180546200024f90620005cb565b80601f01602080910402602001604051908101604052809291908181526020018280546200027d90620005cb565b8015620002ce5780601f10620002a257610100808354040283529160200191620002ce565b820191906000526020600020905b815481529060010190602001808311620002b057829003601f168201915b505050505081526020016000815260200160001515815260200160008152602001600081525090806001815401808255809150506001900390600052602060002090600a0201600090919091909150600082015181600001556020820151816001015560408201518160020160006101000a81548173ffffffffffffffffffffffffffffffffffffffff021916908373ffffffffffffffffffffffffffffffffffffffff160217905550606082015181600301556080820151816004019080519060200190620003a092919062000405565b5060a0820151816005019080519060200190620003bf92919062000405565b5060c0820151816006015560e08201518160070160006101000a81548160ff02191690831515021790555061010082015181600801556101208201518160090155505050565b8280546200041390620005cb565b90600052602060002090601f01602090048101928262000437576000855562000483565b82601f106200045257805160ff191683800117855562000483565b8280016001018555821562000483579182015b828111156200048257825182559160200191906001019062000465565b5b50905062000492919062000496565b5090565b5b80821115620004b157600081600090555060010162000497565b5090565b600081519050620004c68162000665565b92915050565b600060208284031215620004df57600080fd5b6000620004ef84828501620004b5565b91505092915050565b6200050d620005078262000597565b62000601565b82525050565b6000620005226001836200058c565b91507f30000000000000000000000000000000000000000000000000000000000000006000830152600182019050919050565b6000620005638284620004f8565b601482019150620005748262000513565b9150620005818262000513565b915081905092915050565b600081905092915050565b6000620005a482620005ab565b9050919050565b600073ffffffffffffffffffffffffffffffffffffffff82169050919050565b60006002820490506001821680620005e457607f821691505b60208210811415620005fb57620005fa62000629565b5b50919050565b60006200060e8262000615565b9050919050565b6000620006228262000658565b9050919050565b7f4e487b7100000000000000000000000000000000000000000000000000000000600052602260045260246000fd5b60008160601b9050919050565b620006708162000597565b81146200067c57600080fd5b50565b6080516127176200069b600039600061098a01526127176000f3fe608060405234801561001057600080fd5b506004361061004c5760003560e01c80636de7da78146100515780637cdf62741461006f57806387db480a1461008b578063888a9fba146100a7575b600080fd5b6100596100c5565b60405161006691906122a6565b60405180910390f35b61008960048036038101906100849190611ae7565b6100d2565b005b6100a560048036038101906100a09190611a81565b610722565b005b6100af610aed565b6040516100bc9190612284565b60405180910390f35b6000600280549050905090565b600073ffffffffffffffffffffffffffffffffffffffff163373ffffffffffffffffffffffffffffffffffffffff161415610142576040517f08c379a0000000000000000000000000000000000000000000000000000000008152600401610139906121e4565b60405180910390fd5b60003390506000600560009054906101000a900473ffffffffffffffffffffffffffffffffffffffff1673ffffffffffffffffffffffffffffffffffffffff1663d250b6cb6040518163ffffffff1660e01b81526004016101a06040518083038186803b1580156101b257600080fd5b505afa1580156101c6573d6000803e3d6000fd5b505050506040513d601f19601f820116820180604052508101906101ea9190611abd565b9050600073ffffffffffffffffffffffffffffffffffffffff168160a0015173ffffffffffffffffffffffffffffffffffffffff161415610260576040517f08c379a000000000000000000000000000000000000000000000000000000000815260040161025790612184565b60405180910390fd5b8173ffffffffffffffffffffffffffffffffffffffff168160a0015173ffffffffffffffffffffffffffffffffffffffff16146102d2576040517f08c379a00000000000000000000000000000000000000000000000000000000081526004016102c990612264565b60405180910390fd5b6000806102dd61108c565b905060008160200151146102f357806020015191505b81806102fe9061252a565b925050600061030b6112e5565b9050600060405180610140016040528087868a6040516020016103309392919061207f565b6040516020818303038152906040528051906020012081526020018581526020018773ffffffffffffffffffffffffffffffffffffffff16815260200188815260200160008054610380906124f8565b80601f01602080910402602001604051908101604052809291908181526020018280546103ac906124f8565b80156103f95780601f106103ce576101008083540402835291602001916103f9565b820191906000526020600020905b8154815290600101906020018083116103dc57829003601f168201915b5050505050815260200160018054610410906124f8565b80601f016020809104026020016040519081016040528092919081815260200182805461043c906124f8565b80156104895780601f1061045e57610100808354040283529160200191610489565b820191906000526020600020905b81548152906001019060200180831161046c57829003601f168201915b50505050508152602001838152602001836001101515158152602001600181526020016000815250905060028190806001815401808255809150506001900390600052602060002090600a0201600090919091909150600082015181600001556020820151816001015560408201518160020160006101000a81548173ffffffffffffffffffffffffffffffffffffffff021916908373ffffffffffffffffffffffffffffffffffffffff160217905550606082015181600301556080820151816004019080519060200190610560929190611795565b5060a082015181600501908051906020019061057d929190611795565b5060c0820151816006015560e08201518160070160006101000a81548160ff02191690831515021790555061010082015181600801556101208201518160090155505060016002805490506105d29190612415565b6003600083600001518152602001908152602001600020819055507f78f6908c0a8d2c9158f488b36cdaca399ee238cd3cfc479e8db761f1aa90765160006001836000015184604001518560600151604051610632959493929190612103565b60405180910390a1600061064a8260000151886113c3565b905060405180608001604052808873ffffffffffffffffffffffffffffffffffffffff16815260200189815260200160011515815260200160008152506004600083815260200190815260200160002060008201518160000160006101000a81548173ffffffffffffffffffffffffffffffffffffffff021916908373ffffffffffffffffffffffffffffffffffffffff1602179055506020820151816001015560408201518160020160006101000a81548160ff021916908315150217905550606082015181600301559050505050505050505050565b60003390506000600560009054906101000a900473ffffffffffffffffffffffffffffffffffffffff1673ffffffffffffffffffffffffffffffffffffffff1663d100896d836040518263ffffffff1660e01b815260040161078491906120e8565b60206040518083038186803b15801561079c57600080fd5b505afa1580156107b0573d6000803e3d6000fd5b505050506040513d601f19601f820116820180604052508101906107d49190611a58565b905080610816576040517f08c379a000000000000000000000000000000000000000000000000000000000815260040161080d906121a4565b60405180910390fd5b6000610821856113fb565b905060006002828154811061085f577f4e487b7100000000000000000000000000000000000000000000000000000000600052603260045260246000fd5b90600052602060002090600a02019050600061087b87866113c3565b90508160070160009054906101000a900460ff16156108cf576040517f08c379a00000000000000000000000000000000000000000000000000000000081526004016108c690612224565b60405180910390fd5b600073ffffffffffffffffffffffffffffffffffffffff166004600083815260200190815260200160002060000160009054906101000a900473ffffffffffffffffffffffffffffffffffffffff1673ffffffffffffffffffffffffffffffffffffffff1614610974576040517f08c379a000000000000000000000000000000000000000000000000000000000815260040161096b90612204565b60405180910390fd5b6000610984836003015488611729565b905060007f00000000000000000000000000000000000000000000000000000000000000008210905080156109d157600184600801546109c49190612334565b84600801819055506109eb565b600184600901546109e29190612334565b84600901819055505b60405180608001604052808873ffffffffffffffffffffffffffffffffffffffff1681526020018981526020018215158152602001838152506004600085815260200190815260200160002060008201518160000160006101000a81548173ffffffffffffffffffffffffffffffffffffffff021916908373ffffffffffffffffffffffffffffffffffffffff1602179055506020820151816001015560408201518160020160006101000a81548160ff021916908315150217905550606082015181600301559050508360060154846008015410610ae25760018460070160006101000a81548160ff0219169083151502179055505b505050505050505050565b610af561181b565b600073ffffffffffffffffffffffffffffffffffffffff163373ffffffffffffffffffffffffffffffffffffffff161415610b65576040517f08c379a0000000000000000000000000000000000000000000000000000000008152600401610b5c906121e4565b60405180910390fd5b600060028054905090506001811115611087576000600182610b879190612415565b9050600060028281548110610bc5577f4e487b7100000000000000000000000000000000000000000000000000000000600052603260045260246000fd5b90600052602060002090600a02016040518061014001604052908160008201548152602001600182015481526020016002820160009054906101000a900473ffffffffffffffffffffffffffffffffffffffff1673ffffffffffffffffffffffffffffffffffffffff1673ffffffffffffffffffffffffffffffffffffffff16815260200160038201548152602001600482018054610c63906124f8565b80601f0160208091040260200160405190810160405280929190818152602001828054610c8f906124f8565b8015610cdc5780601f10610cb157610100808354040283529160200191610cdc565b820191906000526020600020905b815481529060010190602001808311610cbf57829003601f168201915b50505050508152602001600582018054610cf5906124f8565b80601f0160208091040260200160405190810160405280929190818152602001828054610d21906124f8565b8015610d6e5780601f10610d4357610100808354040283529160200191610d6e565b820191906000526020600020905b815481529060010190602001808311610d5157829003601f168201915b50505050508152602001600682015481526020016007820160009054906101000a900460ff161515151581526020016008820154815260200160098201548152505090508060e0015115610dc757809350505050611089565b6000600183610dd69190612415565b90505b60008110156110835760028181548110610e1c577f4e487b7100000000000000000000000000000000000000000000000000000000600052603260045260246000fd5b90600052602060002090600a020160070160009054906101000a900460ff16156110705760028181548110610e7a577f4e487b7100000000000000000000000000000000000000000000000000000000600052603260045260246000fd5b90600052602060002090600a02016040518061014001604052908160008201548152602001600182015481526020016002820160009054906101000a900473ffffffffffffffffffffffffffffffffffffffff1673ffffffffffffffffffffffffffffffffffffffff1673ffffffffffffffffffffffffffffffffffffffff16815260200160038201548152602001600482018054610f18906124f8565b80601f0160208091040260200160405190810160405280929190818152602001828054610f44906124f8565b8015610f915780601f10610f6657610100808354040283529160200191610f91565b820191906000526020600020905b815481529060010190602001808311610f7457829003601f168201915b50505050508152602001600582018054610faa906124f8565b80601f0160208091040260200160405190810160405280929190818152602001828054610fd6906124f8565b80156110235780601f10610ff857610100808354040283529160200191611023565b820191906000526020600020905b81548152906001019060200180831161100657829003601f168201915b50505050508152602001600682015481526020016007820160009054906101000a900460ff1615151515815260200160088201548152602001600982015481525050945050505050611089565b808061107b906124ce565b915050610dd9565b5050505b505b90565b61109461181b565b6000600280549050905060018111156112e05760026001826110b69190612415565b815481106110ed577f4e487b7100000000000000000000000000000000000000000000000000000000600052603260045260246000fd5b90600052602060002090600a02016040518061014001604052908160008201548152602001600182015481526020016002820160009054906101000a900473ffffffffffffffffffffffffffffffffffffffff1673ffffffffffffffffffffffffffffffffffffffff1673ffffffffffffffffffffffffffffffffffffffff1681526020016003820154815260200160048201805461118b906124f8565b80601f01602080910402602001604051908101604052809291908181526020018280546111b7906124f8565b80156112045780601f106111d957610100808354040283529160200191611204565b820191906000526020600020905b8154815290600101906020018083116111e757829003601f168201915b5050505050815260200160058201805461121d906124f8565b80601f0160208091040260200160405190810160405280929190818152602001828054611249906124f8565b80156112965780601f1061126b57610100808354040283529160200191611296565b820191906000526020600020905b81548152906001019060200180831161127957829003601f168201915b50505050508152602001600682015481526020016007820160009054906101000a900460ff16151515158152602001600882015481526020016009820154815250509150506112e2565b505b90565b600080600560009054906101000a900473ffffffffffffffffffffffffffffffffffffffff1673ffffffffffffffffffffffffffffffffffffffff16636c3811ae6040518163ffffffff1660e01b815260040160206040518083038186803b15801561135057600080fd5b505afa158015611364573d6000803e3d6000fd5b505050506040513d601f19601f820116820180604052508101906113889190611b10565b9050600181141561139d5760019150506113c0565b600060646033836113ae91906123bb565b6113b8919061238a565b905080925050505b90565b60008083836040516020016113d99291906120bc565b6040516020818303038152906040528051906020012090508091505092915050565b600080600360008481526020019081526020016000205490506000811415611458576040517f08c379a000000000000000000000000000000000000000000000000000000000815260040161144f90612244565b60405180910390fd5b600060028281548110611494577f4e487b7100000000000000000000000000000000000000000000000000000000600052603260045260246000fd5b90600052602060002090600a02016040518061014001604052908160008201548152602001600182015481526020016002820160009054906101000a900473ffffffffffffffffffffffffffffffffffffffff1673ffffffffffffffffffffffffffffffffffffffff1673ffffffffffffffffffffffffffffffffffffffff16815260200160038201548152602001600482018054611532906124f8565b80601f016020809104026020016040519081016040528092919081815260200182805461155e906124f8565b80156115ab5780601f10611580576101008083540402835291602001916115ab565b820191906000526020600020905b81548152906001019060200180831161158e57829003601f168201915b505050505081526020016005820180546115c4906124f8565b80601f01602080910402602001604051908101604052809291908181526020018280546115f0906124f8565b801561163d5780601f106116125761010080835404028352916020019161163d565b820191906000526020600020905b81548152906001019060200180831161162057829003601f168201915b50505050508152602001600682015481526020016007820160009054906101000a900460ff16151515158152602001600882015481526020016009820154815250509050600061168b61108c565b905080600001518260000151146116d7576040517f08c379a00000000000000000000000000000000000000000000000000000000081526004016116ce90612164565b60405180910390fd5b600081602001511161171e576040517f08c379a0000000000000000000000000000000000000000000000000000000008152600401611715906121c4565b60405180910390fd5b829350505050919050565b600080600090508284111561174b5782846117449190612415565b905061175a565b83836117579190612415565b90505b600081141561176d57600091505061178f565b60008460648361177d91906123bb565b611787919061238a565b905080925050505b92915050565b8280546117a1906124f8565b90600052602060002090601f0160209004810192826117c3576000855561180a565b82601f106117dc57805160ff191683800117855561180a565b8280016001018555821561180a579182015b828111156118095782518255916020019190600101906117ee565b5b5090506118179190611889565b5090565b6040518061014001604052806000801916815260200160008152602001600073ffffffffffffffffffffffffffffffffffffffff1681526020016000815260200160608152602001606081526020016000815260200160001515815260200160008152602001600081525090565b5b808211156118a257600081600090555060010161188a565b5090565b6000815190506118b581612685565b92915050565b6000815190506118ca8161269c565b92915050565b6000813590506118df816126b3565b92915050565b6000815190506118f4816126b3565b92915050565b60006101a0828403121561190d57600080fd5b6119186101a06122c1565b90506000611928848285016118e5565b600083015250602061193c848285016118e5565b602083015250604061195084828501611a43565b604083015250606061196484828501611a43565b606083015250608061197884828501611a43565b60808301525060a061198c848285016118a6565b60a08301525060c06119a084828501611a43565b60c08301525060e06119b4848285016118bb565b60e0830152506101006119c984828501611a43565b610100830152506101206119df84828501611a43565b610120830152506101406119f5848285016118bb565b61014083015250610160611a0b848285016118bb565b61016083015250610180611a2184828501611a43565b6101808301525092915050565b600081359050611a3d816126ca565b92915050565b600081519050611a52816126ca565b92915050565b600060208284031215611a6a57600080fd5b6000611a78848285016118bb565b91505092915050565b60008060408385031215611a9457600080fd5b6000611aa2858286016118d0565b9250506020611ab385828601611a2e565b9150509250929050565b60006101a08284031215611ad057600080fd5b6000611ade848285016118fa565b91505092915050565b600060208284031215611af957600080fd5b6000611b0784828501611a2e565b91505092915050565b600060208284031215611b2257600080fd5b6000611b3084828501611a43565b91505092915050565b611b4281612449565b82525050565b611b5181612449565b82525050565b611b68611b6382612449565b612573565b82525050565b611b778161245b565b82525050565b611b8681612467565b82525050565b611b9581612467565b82525050565b611bac611ba782612467565b612585565b82525050565b6000611bbd82612307565b611bc78185612312565b9350611bd781856020860161249b565b611be081612667565b840191505092915050565b60008154611bf8816124f8565b611c028186612323565b94506001821660008114611c1d5760018114611c2f57611c62565b60ff1983168652602086019350611c62565b611c38856122f2565b60005b83811015611c5a57815481890152600182019150602081019050611c3b565b808801955050505b50505092915050565b6000611c78603b83612323565b91507f566f74696e6720666f72206f6c6420726f756e642e2054686520726f756e644960008301527f642062656c6f6e677320746f2070726576696f757320726f756e6400000000006020830152604082019050919050565b6000611cde602d83612323565b91507f43616e6e6f7420737461727420707269636520726f756e6420776974686f757460008301527f2065726120656c656374696f6e000000000000000000000000000000000000006020830152604082019050919050565b6000611d44604083612323565b91507f4163636573732044656e6965642e20596f7520617265206e6f7420706172742060008301527f6f662074686520636f7563696c206f66207468652063757272656e74206572616020830152604082019050919050565b6000611daa602e83612323565b91507f43616e6e6f742076616c696461746520726f756e642e204e6f20726f756e647360008301527f206172652070726573656e7465640000000000000000000000000000000000006020830152604082019050919050565b6000611e10601983612323565b91507f4e756c6c2061646472657373206973206e6f742076616c6964000000000000006000830152602082019050919050565b6000611e50601583612323565b91507f43616c6c657220616c726561647920766f7465642100000000000000000000006000830152602082019050919050565b6000611e90601d83612323565b91507f51756f72756d207265616368656420666f72207468617420726f756e640000006000830152602082019050919050565b6000611ed0601183612323565b91507f496e76616c696420726f756e64206964200000000000000000000000000000006000830152602082019050919050565b6000611f10602f83612323565b91507f4f6e6c7920656c65637465642063686169726d616e2063616e2073746172742060008301527f6e657720707269636520726f756e6400000000000000000000000000000000006020830152604082019050919050565b600061014083016000830151611f826000860182611b7d565b506020830151611f95602086018261204a565b506040830151611fa86040860182611b39565b506060830151611fbb606086018261204a565b5060808301518482036080860152611fd38282611bb2565b91505060a083015184820360a0860152611fed8282611bb2565b91505060c083015161200260c086018261204a565b5060e083015161201560e0860182611b6e565b5061010083015161202a61010086018261204a565b5061012083015161203f61012086018261204a565b508091505092915050565b61205381612491565b82525050565b61206281612491565b82525050565b61207961207482612491565b6125a1565b82525050565b600061208b8286611b57565b60148201915061209b8285612068565b6020820191506120ab8284612068565b602082019150819050949350505050565b60006120c88285611b9b565b6020820191506120d88284611b57565b6014820191508190509392505050565b60006020820190506120fd6000830184611b48565b92915050565b600060a082019050818103600083015261211d8188611beb565b905081810360208301526121318187611beb565b90506121406040830186611b8c565b61214d6060830185611b48565b61215a6080830184612059565b9695505050505050565b6000602082019050818103600083015261217d81611c6b565b9050919050565b6000602082019050818103600083015261219d81611cd1565b9050919050565b600060208201905081810360008301526121bd81611d37565b9050919050565b600060208201905081810360008301526121dd81611d9d565b9050919050565b600060208201905081810360008301526121fd81611e03565b9050919050565b6000602082019050818103600083015261221d81611e43565b9050919050565b6000602082019050818103600083015261223d81611e83565b9050919050565b6000602082019050818103600083015261225d81611ec3565b9050919050565b6000602082019050818103600083015261227d81611f03565b9050919050565b6000602082019050818103600083015261229e8184611f69565b905092915050565b60006020820190506122bb6000830184612059565b92915050565b6000604051905081810181811067ffffffffffffffff821117156122e8576122e7612638565b5b8060405250919050565b60008190508160005260206000209050919050565b600081519050919050565b600082825260208201905092915050565b600082825260208201905092915050565b600061233f82612491565b915061234a83612491565b9250827fffffffffffffffffffffffffffffffffffffffffffffffffffffffffffffffff0382111561237f5761237e6125ab565b5b828201905092915050565b600061239582612491565b91506123a083612491565b9250826123b0576123af6125da565b5b828204905092915050565b60006123c682612491565b91506123d183612491565b9250817fffffffffffffffffffffffffffffffffffffffffffffffffffffffffffffffff048311821515161561240a576124096125ab565b5b828202905092915050565b600061242082612491565b915061242b83612491565b92508282101561243e5761243d6125ab565b5b828203905092915050565b600061245482612471565b9050919050565b60008115159050919050565b6000819050919050565b600073ffffffffffffffffffffffffffffffffffffffff82169050919050565b6000819050919050565b60005b838110156124b957808201518184015260208101905061249e565b838111156124c8576000848401525b50505050565b60006124d982612491565b915060008214156124ed576124ec6125ab565b5b600182039050919050565b6000600282049050600182168061251057607f821691505b6020821081141561252457612523612609565b5b50919050565b600061253582612491565b91507fffffffffffffffffffffffffffffffffffffffffffffffffffffffffffffffff821415612568576125676125ab565b5b600182019050919050565b600061257e8261258f565b9050919050565b6000819050919050565b600061259a82612678565b9050919050565b6000819050919050565b7f4e487b7100000000000000000000000000000000000000000000000000000000600052601160045260246000fd5b7f4e487b7100000000000000000000000000000000000000000000000000000000600052601260045260246000fd5b7f4e487b7100000000000000000000000000000000000000000000000000000000600052602260045260246000fd5b7f4e487b7100000000000000000000000000000000000000000000000000000000600052604160045260246000fd5b6000601f19601f8301169050919050565b60008160601b9050919050565b61268e81612449565b811461269957600080fd5b50565b6126a58161245b565b81146126b057600080fd5b50565b6126bc81612467565b81146126c757600080fd5b50565b6126d381612491565b81146126de57600080fd5b5056fea264697066735822122075550a8a7fc924ec6b2f50f2f18f0002700bdd0d83a93f62ed41392af689358d64736f6c63430008000033",
  "immutableReferences": {
    "1093": [
      {
        "length": 32,
        "start": 2442
      }
    ]
  },
  "source": "pragma solidity ^0.8.0;\r\n\r\nimport \"../utils/Rounds.sol\";\r\nimport \"../utils/Votes.sol\";\r\nimport \"./base/BasePriceResolver.sol\";\r\n\r\n//PoC. Big Refactoring will happened!\r\ncontract GoldPriceResolver is BasePriceResolver {\r\n    uint256 constant MAXIMUM_ALLOWED_PRICE_DEVIATION_IN_PERCENTS = 3;\r\n    string constant GOLD_SYMBOL = \"XUA\"; //TODO; move to separate contract when refactor\r\n    string constant USDT_SYMBOL = \"USDT\";\r\n\r\n    constructor(address erasMonitorAddress_)\r\n        BasePriceResolver(\r\n            GOLD_SYMBOL,\r\n            USDT_SYMBOL,\r\n            MAXIMUM_ALLOWED_PRICE_DEVIATION_IN_PERCENTS,\r\n            erasMonitorAddress_\r\n        )\r\n    {}\r\n}\r\n",
  "sourcePath": "D:\\Documents\\Dev\\Repositories\\gold-price-oracle\\gold-price-oracle\\on-chain\\contracts\\oracle\\resolvers\\GoldPriceResolver.sol",
  "compiler": {
    "name": "solc",
    "version": "0.8.0+commit.c7dfd78e.Emscripten.clang"
  },
  "schemaVersion": "3.4.3",
  "updatedAt": "2022-05-23T23:43:41.189Z",
  "devdoc": {
    "kind": "dev",
    "methods": {},
    "version": 1
  },
  "userdoc": {
    "kind": "user",
    "methods": {},
    "version": 1
  }
}