{
  "contractName": "GoldOracleToken",
  "abi": [
    {
      "inputs": [],
      "stateMutability": "nonpayable",
      "type": "constructor"
    },
    {
      "anonymous": false,
      "inputs": [
        {
          "indexed": true,
          "internalType": "address",
          "name": "owner",
          "type": "address"
        },
        {
          "indexed": true,
          "internalType": "address",
          "name": "spender",
          "type": "address"
        },
        {
          "indexed": false,
          "internalType": "uint256",
          "name": "value",
          "type": "uint256"
        }
      ],
      "name": "Approval",
      "type": "event"
    },
    {
      "anonymous": false,
      "inputs": [
        {
          "indexed": true,
          "internalType": "address",
          "name": "from",
          "type": "address"
        },
        {
          "indexed": true,
          "internalType": "address",
          "name": "to",
          "type": "address"
        },
        {
          "indexed": false,
          "internalType": "uint256",
          "name": "value",
          "type": "uint256"
        }
      ],
      "name": "Transfer",
      "type": "event"
    },
    {
      "inputs": [
        {
          "internalType": "address",
          "name": "owner",
          "type": "address"
        },
        {
          "internalType": "address",
          "name": "spender",
          "type": "address"
        }
      ],
      "name": "allowance",
      "outputs": [
        {
          "internalType": "uint256",
          "name": "",
          "type": "uint256"
        }
      ],
      "stateMutability": "view",
      "type": "function"
    },
    {
      "inputs": [
        {
          "internalType": "address",
          "name": "spender",
          "type": "address"
        },
        {
          "internalType": "uint256",
          "name": "amount",
          "type": "uint256"
        }
      ],
      "name": "approve",
      "outputs": [
        {
          "internalType": "bool",
          "name": "",
          "type": "bool"
        }
      ],
      "stateMutability": "nonpayable",
      "type": "function"
    },
    {
      "inputs": [
        {
          "internalType": "address",
          "name": "account",
          "type": "address"
        }
      ],
      "name": "balanceOf",
      "outputs": [
        {
          "internalType": "uint256",
          "name": "",
          "type": "uint256"
        }
      ],
      "stateMutability": "view",
      "type": "function"
    },
    {
      "inputs": [],
      "name": "decimals",
      "outputs": [
        {
          "internalType": "uint8",
          "name": "",
          "type": "uint8"
        }
      ],
      "stateMutability": "view",
      "type": "function"
    },
    {
      "inputs": [
        {
          "internalType": "address",
          "name": "spender",
          "type": "address"
        },
        {
          "internalType": "uint256",
          "name": "subtractedValue",
          "type": "uint256"
        }
      ],
      "name": "decreaseAllowance",
      "outputs": [
        {
          "internalType": "bool",
          "name": "",
          "type": "bool"
        }
      ],
      "stateMutability": "nonpayable",
      "type": "function"
    },
    {
      "inputs": [],
      "name": "electNewChairman",
      "outputs": [
        {
          "internalType": "address",
          "name": "",
          "type": "address"
        }
      ],
      "stateMutability": "nonpayable",
      "type": "function"
    },
    {
      "inputs": [],
      "name": "getCurrentEra",
      "outputs": [
        {
          "components": [
            {
              "internalType": "bytes32",
              "name": "id",
              "type": "bytes32"
            },
            {
              "internalType": "uint256",
              "name": "colectedFeesAmount",
              "type": "uint256"
            },
            {
              "internalType": "uint256",
              "name": "startDate",
              "type": "uint256"
            },
            {
              "internalType": "uint256",
              "name": "endDate",
              "type": "uint256"
            },
            {
              "internalType": "address",
              "name": "chairman",
              "type": "address"
            }
          ],
          "internalType": "struct Eras.Era",
          "name": "currentEra",
          "type": "tuple"
        }
      ],
      "stateMutability": "view",
      "type": "function"
    },
    {
      "inputs": [],
      "name": "getErasCount",
      "outputs": [
        {
          "internalType": "uint256",
          "name": "",
          "type": "uint256"
        }
      ],
      "stateMutability": "view",
      "type": "function"
    },
    {
      "inputs": [
        {
          "internalType": "address",
          "name": "address_",
          "type": "address"
        }
      ],
      "name": "getStakedAmount",
      "outputs": [
        {
          "internalType": "uint256",
          "name": "",
          "type": "uint256"
        }
      ],
      "stateMutability": "view",
      "type": "function"
    },
    {
      "inputs": [
        {
          "internalType": "address",
          "name": "address_",
          "type": "address"
        }
      ],
      "name": "getStakeholderInformation",
      "outputs": [
        {
          "internalType": "uint256",
          "name": "",
          "type": "uint256"
        },
        {
          "internalType": "uint256",
          "name": "",
          "type": "uint256"
        },
        {
          "internalType": "uint256",
          "name": "",
          "type": "uint256"
        },
        {
          "internalType": "uint256",
          "name": "",
          "type": "uint256"
        },
        {
          "internalType": "bool",
          "name": "",
          "type": "bool"
        }
      ],
      "stateMutability": "view",
      "type": "function"
    },
    {
      "inputs": [],
      "name": "getValidatorsCount",
      "outputs": [
        {
          "internalType": "uint256",
          "name": "",
          "type": "uint256"
        }
      ],
      "stateMutability": "view",
      "type": "function"
    },
    {
      "inputs": [
        {
          "internalType": "address",
          "name": "spender",
          "type": "address"
        },
        {
          "internalType": "uint256",
          "name": "addedValue",
          "type": "uint256"
        }
      ],
      "name": "increaseAllowance",
      "outputs": [
        {
          "internalType": "bool",
          "name": "",
          "type": "bool"
        }
      ],
      "stateMutability": "nonpayable",
      "type": "function"
    },
    {
      "inputs": [],
      "name": "name",
      "outputs": [
        {
          "internalType": "string",
          "name": "",
          "type": "string"
        }
      ],
      "stateMutability": "view",
      "type": "function"
    },
    {
      "inputs": [
        {
          "internalType": "uint256",
          "name": "amount_",
          "type": "uint256"
        }
      ],
      "name": "stake",
      "outputs": [],
      "stateMutability": "nonpayable",
      "type": "function"
    },
    {
      "inputs": [],
      "name": "startNewEra",
      "outputs": [
        {
          "internalType": "bytes32",
          "name": "",
          "type": "bytes32"
        }
      ],
      "stateMutability": "nonpayable",
      "type": "function"
    },
    {
      "inputs": [],
      "name": "symbol",
      "outputs": [
        {
          "internalType": "string",
          "name": "",
          "type": "string"
        }
      ],
      "stateMutability": "view",
      "type": "function"
    },
    {
      "inputs": [],
      "name": "totalSupply",
      "outputs": [
        {
          "internalType": "uint256",
          "name": "",
          "type": "uint256"
        }
      ],
      "stateMutability": "view",
      "type": "function"
    },
    {
      "inputs": [
        {
          "internalType": "address",
          "name": "to",
          "type": "address"
        },
        {
          "internalType": "uint256",
          "name": "amount",
          "type": "uint256"
        }
      ],
      "name": "transfer",
      "outputs": [
        {
          "internalType": "bool",
          "name": "",
          "type": "bool"
        }
      ],
      "stateMutability": "nonpayable",
      "type": "function"
    },
    {
      "inputs": [
        {
          "internalType": "address",
          "name": "from",
          "type": "address"
        },
        {
          "internalType": "address",
          "name": "to",
          "type": "address"
        },
        {
          "internalType": "uint256",
          "name": "amount",
          "type": "uint256"
        }
      ],
      "name": "transferFrom",
      "outputs": [
        {
          "internalType": "bool",
          "name": "",
          "type": "bool"
        }
      ],
      "stateMutability": "nonpayable",
      "type": "function"
    },
    {
      "inputs": [
        {
          "internalType": "uint256",
          "name": "amount_",
          "type": "uint256"
        }
      ],
      "name": "unstake",
      "outputs": [],
      "stateMutability": "nonpayable",
      "type": "function"
    },
    {
      "inputs": [],
      "name": "getOwnerAddress",
      "outputs": [
        {
          "internalType": "address",
          "name": "",
          "type": "address"
        }
      ],
      "stateMutability": "view",
      "type": "function"
    }
  ],
  "bytecode": "0x60a06040523480156200001157600080fd5b506040518060400160405280600f81526020017f476f6c644f7261636c65546f6b656e00000000000000000000000000000000008152506040518060400160405280600381526020017f474f54000000000000000000000000000000000000000000000000000000000081525069043c33c193756480000082828160039080519060200190620000a3929190620002ce565b508060049080519060200190620000bc929190620002ce565b50505080608081815250506000600581905550600060068190555050505033601060006101000a81548173ffffffffffffffffffffffffffffffffffffffff021916908373ffffffffffffffffffffffffffffffffffffffff1602179055506200014533600a69043c33c19375648000006200013991906200047e565b6200014b60201b60201c565b6200057d565b600073ffffffffffffffffffffffffffffffffffffffff168273ffffffffffffffffffffffffffffffffffffffff161415620001be576040517f08c379a0000000000000000000000000000000000000000000000000000000008152600401620001b590620003d1565b60405180910390fd5b620001d260008383620002c460201b60201c565b8060026000828254620001e6919062000421565b92505081905550806000808473ffffffffffffffffffffffffffffffffffffffff1673ffffffffffffffffffffffffffffffffffffffff16815260200190815260200160002060008282546200023d919062000421565b925050819055508173ffffffffffffffffffffffffffffffffffffffff16600073ffffffffffffffffffffffffffffffffffffffff167fddf252ad1be2c89b69c2b068fc378daa952ba7f163c4a11628f55a4df523b3ef83604051620002a49190620003f3565b60405180910390a3620002c060008383620002c960201b60201c565b5050565b505050565b505050565b828054620002dc90620004e9565b90600052602060002090601f0160209004810192826200030057600085556200034c565b82601f106200031b57805160ff19168380011785556200034c565b828001600101855582156200034c579182015b828111156200034b5782518255916020019190600101906200032e565b5b5090506200035b91906200035f565b5090565b5b808211156200037a57600081600090555060010162000360565b5090565b60006200038d601f8362000410565b91507f45524332303a206d696e7420746f20746865207a65726f2061646472657373006000830152602082019050919050565b620003cb81620004df565b82525050565b60006020820190508181036000830152620003ec816200037e565b9050919050565b60006020820190506200040a6000830184620003c0565b92915050565b600082825260208201905092915050565b60006200042e82620004df565b91506200043b83620004df565b9250827fffffffffffffffffffffffffffffffffffffffffffffffffffffffffffffffff038211156200047357620004726200051f565b5b828201905092915050565b60006200048b82620004df565b91506200049883620004df565b9250817fffffffffffffffffffffffffffffffffffffffffffffffffffffffffffffffff0483118215151615620004d457620004d36200051f565b5b828202905092915050565b6000819050919050565b600060028204905060018216806200050257607f821691505b602082108114156200051957620005186200054e565b5b50919050565b7f4e487b7100000000000000000000000000000000000000000000000000000000600052601160045260246000fd5b7f4e487b7100000000000000000000000000000000000000000000000000000000600052602260045260246000fd5b6080516128cb620005a760003960008181610777015281816114d3015261181501526128cb6000f3fe608060405234801561001057600080fd5b50600436106101375760003560e01c806339509351116100b8578063a2709eb41161007c578063a2709eb41461036c578063a457c2d71461038a578063a694fc3a146103ba578063a9059cbb146103d6578063d250b6cb14610406578063dd62ed3e1461042457610137565b806339509351146102a05780634da6a556146102d0578063533aa7b81461030057806370a082311461031e57806395d89b411461034e57610137565b806323b872dd116100ff57806323b872dd146101e457806327498240146102145780632bf9262c146102325780632e17de7814610266578063313ce5671461028257610137565b806306fdde031461013c578063095ea7b31461015a5780630c4f65bd1461018a57806318160ddd146101a85780631e70953e146101c6575b600080fd5b610144610454565b6040516101519190612395565b60405180910390f35b610174600480360381019061016f9190611c7b565b6104e6565b604051610181919061235f565b60405180910390f35b610192610509565b60405161019f9190612344565b60405180910390f35b6101b0610533565b6040516101bd9190612592565b60405180910390f35b6101ce61053d565b6040516101db919061237a565b60405180910390f35b6101fe60048036038101906101f99190611c2c565b610542565b60405161020b919061235f565b60405180910390f35b61021c610571565b6040516102299190612592565b60405180910390f35b61024c60048036038101906102479190611bc7565b61057b565b60405161025d9594939291906125ad565b60405180910390f35b610280600480360381019061027b9190611cb7565b610659565b005b61028a610806565b6040516102979190612600565b60405180910390f35b6102ba60048036038101906102b59190611c7b565b61080f565b6040516102c7919061235f565b60405180910390f35b6102ea60048036038101906102e59190611bc7565b6108b9565b6040516102f79190612592565b60405180910390f35b610308610972565b6040516103159190612592565b60405180910390f35b61033860048036038101906103339190611bc7565b61097c565b6040516103459190612592565b60405180910390f35b6103566109c4565b6040516103639190612395565b60405180910390f35b610374610a56565b6040516103819190612344565b60405180910390f35b6103a4600480360381019061039f9190611c7b565b610a5b565b6040516103b1919061235f565b60405180910390f35b6103d460048036038101906103cf9190611cb7565b610b45565b005b6103f060048036038101906103eb9190611c7b565b610c5a565b6040516103fd919061235f565b60405180910390f35b61040e610c7d565b60405161041b9190612577565b60405180910390f35b61043e60048036038101906104399190611bf0565b610d15565b60405161044b9190612592565b60405180910390f35b6060600380546104639061277d565b80601f016020809104026020016040519081016040528092919081815260200182805461048f9061277d565b80156104dc5780601f106104b1576101008083540402835291602001916104dc565b820191906000526020600020905b8154815290600101906020018083116104bf57829003601f168201915b5050505050905090565b6000806104f1610d9c565b90506104fe818585610da4565b600191505092915050565b6000601060009054906101000a900473ffffffffffffffffffffffffffffffffffffffff16905090565b6000600254905090565b600090565b60008061054d610d9c565b905061055a858285610f6f565b610565858585610ffb565b60019150509392505050565b6000600554905090565b60008060008060008061058d8761127c565b9050600081116105d2576040517f08c379a00000000000000000000000000000000000000000000000000000000081526004016105c990612497565b60405180910390fd5b60006007828154811061060e577f4e487b7100000000000000000000000000000000000000000000000000000000600052603260045260246000fd5b9060005260206000209060060201905080600101548160020154826003015483600401548460050160009054906101000a900460ff1696509650965096509650505091939590929450565b60003390506000600960008373ffffffffffffffffffffffffffffffffffffffff1673ffffffffffffffffffffffffffffffffffffffff16815260200190815260200160002054905060008114156106b2575050610803565b6000600782815481106106ee577f4e487b7100000000000000000000000000000000000000000000000000000000600052603260045260246000fd5b906000526020600020906006020190508381600101541015610745576040517f08c379a000000000000000000000000000000000000000000000000000000000815260040161073c90612437565b60405180910390fd5b60008482600101600082825461075b919061268d565b92505081905590508082600101819055508082600201819055507f000000000000000000000000000000000000000000000000000000000000000081106107be5760018260050160006101000a81548160ff0219169083151502179055506107f4565b60008260050160006101000a81548160ff021916908315150217905550600560008154809291906107ee90612753565b91905055505b6107fe848661136f565b505050505b50565b60006012905090565b60008061081a610d9c565b90506108ae818585600160008673ffffffffffffffffffffffffffffffffffffffff1673ffffffffffffffffffffffffffffffffffffffff16815260200190815260200160002060008973ffffffffffffffffffffffffffffffffffffffff1673ffffffffffffffffffffffffffffffffffffffff168152602001908152602001600020546108a99190612637565b610da4565b600191505092915050565b600081600073ffffffffffffffffffffffffffffffffffffffff168173ffffffffffffffffffffffffffffffffffffffff1614156108f657600080fd5b60006109018461127c565b9050600081141561091657600092505061096c565b600060078281548110610952577f4e487b7100000000000000000000000000000000000000000000000000000000600052603260045260246000fd5b906000526020600020906006020190508060010154935050505b50919050565b6000600654905090565b60008060008373ffffffffffffffffffffffffffffffffffffffff1673ffffffffffffffffffffffffffffffffffffffff168152602001908152602001600020549050919050565b6060600480546109d39061277d565b80601f01602080910402602001604051908101604052809291908181526020018280546109ff9061277d565b8015610a4c5780601f10610a2157610100808354040283529160200191610a4c565b820191906000526020600020905b815481529060010190602001808311610a2f57829003601f168201915b5050505050905090565b600090565b600080610a66610d9c565b90506000600160008373ffffffffffffffffffffffffffffffffffffffff1673ffffffffffffffffffffffffffffffffffffffff16815260200190815260200160002060008673ffffffffffffffffffffffffffffffffffffffff1673ffffffffffffffffffffffffffffffffffffffff16815260200190815260200160002054905083811015610b2c576040517f08c379a0000000000000000000000000000000000000000000000000000000008152600401610b2390612537565b60405180910390fd5b610b398286868403610da4565b60019250505092915050565b600033905060003073ffffffffffffffffffffffffffffffffffffffff166370a08231836040518263ffffffff1660e01b8152600401610b859190612344565b60206040518083038186803b158015610b9d57600080fd5b505afa158015610bb1573d6000803e3d6000fd5b505050506040513d601f19601f82011682018060405250810190610bd59190611ce0565b905082811015610c1a576040517f08c379a0000000000000000000000000000000000000000000000000000000008152600401610c1190612477565b60405180910390fd5b6000610c258361127c565b90506000811415610c3f57610c3a83856114cf565b610c4a565b610c498185611779565b5b610c548385611898565b50505050565b600080610c65610d9c565b9050610c72818585610ffb565b600191505092915050565b610c85611b40565b600b6040518060a0016040529081600082015481526020016001820154815260200160028201548152602001600382015481526020016004820160009054906101000a900473ffffffffffffffffffffffffffffffffffffffff1673ffffffffffffffffffffffffffffffffffffffff1673ffffffffffffffffffffffffffffffffffffffff1681525050905090565b6000600160008473ffffffffffffffffffffffffffffffffffffffff1673ffffffffffffffffffffffffffffffffffffffff16815260200190815260200160002060008373ffffffffffffffffffffffffffffffffffffffff1673ffffffffffffffffffffffffffffffffffffffff16815260200190815260200160002054905092915050565b600033905090565b600073ffffffffffffffffffffffffffffffffffffffff168373ffffffffffffffffffffffffffffffffffffffff161415610e14576040517f08c379a0000000000000000000000000000000000000000000000000000000008152600401610e0b90612517565b60405180910390fd5b600073ffffffffffffffffffffffffffffffffffffffff168273ffffffffffffffffffffffffffffffffffffffff161415610e84576040517f08c379a0000000000000000000000000000000000000000000000000000000008152600401610e7b906123f7565b60405180910390fd5b80600160008573ffffffffffffffffffffffffffffffffffffffff1673ffffffffffffffffffffffffffffffffffffffff16815260200190815260200160002060008473ffffffffffffffffffffffffffffffffffffffff1673ffffffffffffffffffffffffffffffffffffffff168152602001908152602001600020819055508173ffffffffffffffffffffffffffffffffffffffff168373ffffffffffffffffffffffffffffffffffffffff167f8c5be1e5ebec7d5bd14f71427d1e84f3dd0314c0f7b2291e5b200ac8c7c3b92583604051610f629190612592565b60405180910390a3505050565b6000610f7b8484610d15565b90507fffffffffffffffffffffffffffffffffffffffffffffffffffffffffffffffff8114610ff55781811015610fe7576040517f08c379a0000000000000000000000000000000000000000000000000000000008152600401610fde90612417565b60405180910390fd5b610ff48484848403610da4565b5b50505050565b600073ffffffffffffffffffffffffffffffffffffffff168373ffffffffffffffffffffffffffffffffffffffff16141561106b576040517f08c379a0000000000000000000000000000000000000000000000000000000008152600401611062906124f7565b60405180910390fd5b600073ffffffffffffffffffffffffffffffffffffffff168273ffffffffffffffffffffffffffffffffffffffff1614156110db576040517f08c379a00000000000000000000000000000000000000000000000000000000081526004016110d2906123b7565b60405180910390fd5b6110e6838383611a6f565b60008060008573ffffffffffffffffffffffffffffffffffffffff1673ffffffffffffffffffffffffffffffffffffffff1681526020019081526020016000205490508181101561116c576040517f08c379a000000000000000000000000000000000000000000000000000000000815260040161116390612457565b60405180910390fd5b8181036000808673ffffffffffffffffffffffffffffffffffffffff1673ffffffffffffffffffffffffffffffffffffffff16815260200190815260200160002081905550816000808573ffffffffffffffffffffffffffffffffffffffff1673ffffffffffffffffffffffffffffffffffffffff16815260200190815260200160002060008282546111ff9190612637565b925050819055508273ffffffffffffffffffffffffffffffffffffffff168473ffffffffffffffffffffffffffffffffffffffff167fddf252ad1be2c89b69c2b068fc378daa952ba7f163c4a11628f55a4df523b3ef846040516112639190612592565b60405180910390a3611276848484611a74565b50505050565b600081600073ffffffffffffffffffffffffffffffffffffffff168173ffffffffffffffffffffffffffffffffffffffff1614156112b957600080fd5b6000600960008573ffffffffffffffffffffffffffffffffffffffff1673ffffffffffffffffffffffffffffffffffffffff1681526020019081526020016000205490506000811415611310576000925050611369565b6001600780549050611322919061268d565b811115611364576040517f08c379a000000000000000000000000000000000000000000000000000000000815260040161135b906124b7565b60405180910390fd5b809250505b50919050565b600073ffffffffffffffffffffffffffffffffffffffff168273ffffffffffffffffffffffffffffffffffffffff1614156113df576040517f08c379a00000000000000000000000000000000000000000000000000000000081526004016113d690612557565b60405180910390fd5b6113eb60008383611a6f565b80600260008282546113fd9190612637565b92505081905550806000808473ffffffffffffffffffffffffffffffffffffffff1673ffffffffffffffffffffffffffffffffffffffff16815260200190815260200160002060008282546114529190612637565b925050819055508173ffffffffffffffffffffffffffffffffffffffff16600073ffffffffffffffffffffffffffffffffffffffff167fddf252ad1be2c89b69c2b068fc378daa952ba7f163c4a11628f55a4df523b3ef836040516114b79190612592565b60405180910390a36114cb60008383611a74565b5050565b60007f00000000000000000000000000000000000000000000000000000000000000008210159050600060078054905090506000811415611620578080611515906127af565b91505060076040518060c00160405280600073ffffffffffffffffffffffffffffffffffffffff1681526020016000815260200160008152602001600081526020016000815260200160001515815250908060018154018082558091505060019003906000526020600020906006020160009091909190915060008201518160000160006101000a81548173ffffffffffffffffffffffffffffffffffffffff021916908373ffffffffffffffffffffffffffffffffffffffff1602179055506020820151816001015560408201518160020155606082015181600301556080820151816004015560a08201518160050160006101000a81548160ff02191690831515021790555050505b60076040518060c001604052808673ffffffffffffffffffffffffffffffffffffffff1681526020018581526020018581526020016000815260200160008152602001841515815250908060018154018082558091505060019003906000526020600020906006020160009091909190915060008201518160000160006101000a81548173ffffffffffffffffffffffffffffffffffffffff021916908373ffffffffffffffffffffffffffffffffffffffff1602179055506020820151816001015560408201518160020155606082015181600301556080820151816004015560a08201518160050160006101000a81548160ff021916908315150217905550505080600960008673ffffffffffffffffffffffffffffffffffffffff1673ffffffffffffffffffffffffffffffffffffffff16815260200190815260200160002081905550611772828583611a79565b5050505050565b6000600783815481106117b5577f4e487b7100000000000000000000000000000000000000000000000000000000600052603260045260246000fd5b90600052602060002090600602019050818160010160008282546117d99190612637565b92505081905550818160020160008282546117f49190612637565b925050819055508060050160009054906101000a900460ff166118935760007f000000000000000000000000000000000000000000000000000000000000000082600101541015905080156118915760018260050160006101000a81548160ff02191690831515021790555061188f818360000160009054906101000a900473ffffffffffffffffffffffffffffffffffffffff1686611a79565b505b505b505050565b600073ffffffffffffffffffffffffffffffffffffffff168273ffffffffffffffffffffffffffffffffffffffff161415611908576040517f08c379a00000000000000000000000000000000000000000000000000000000081526004016118ff906124d7565b60405180910390fd5b61191482600083611a6f565b60008060008473ffffffffffffffffffffffffffffffffffffffff1673ffffffffffffffffffffffffffffffffffffffff1681526020019081526020016000205490508181101561199a576040517f08c379a0000000000000000000000000000000000000000000000000000000008152600401611991906123d7565b60405180910390fd5b8181036000808573ffffffffffffffffffffffffffffffffffffffff1673ffffffffffffffffffffffffffffffffffffffff1681526020019081526020016000208190555081600260008282546119f1919061268d565b92505081905550600073ffffffffffffffffffffffffffffffffffffffff168373ffffffffffffffffffffffffffffffffffffffff167fddf252ad1be2c89b69c2b068fc378daa952ba7f163c4a11628f55a4df523b3ef84604051611a569190612592565b60405180910390a3611a6a83600084611a74565b505050565b505050565b505050565b600083611a895760009050611b39565b6000600860008573ffffffffffffffffffffffffffffffffffffffff1673ffffffffffffffffffffffffffffffffffffffff1681526020019081526020016000205490506000811415611b335782600860008673ffffffffffffffffffffffffffffffffffffffff1673ffffffffffffffffffffffffffffffffffffffff1681526020019081526020016000208190555060056000815480929190611b2d906127af565b91905055505b60019150505b9392505050565b6040518060a0016040528060008019168152602001600081526020016000815260200160008152602001600073ffffffffffffffffffffffffffffffffffffffff1681525090565b600081359050611b9781612867565b92915050565b600081359050611bac8161287e565b92915050565b600081519050611bc18161287e565b92915050565b600060208284031215611bd957600080fd5b6000611be784828501611b88565b91505092915050565b60008060408385031215611c0357600080fd5b6000611c1185828601611b88565b9250506020611c2285828601611b88565b9150509250929050565b600080600060608486031215611c4157600080fd5b6000611c4f86828701611b88565b9350506020611c6086828701611b88565b9250506040611c7186828701611b9d565b9150509250925092565b60008060408385031215611c8e57600080fd5b6000611c9c85828601611b88565b9250506020611cad85828601611b9d565b9150509250929050565b600060208284031215611cc957600080fd5b6000611cd784828501611b9d565b91505092915050565b600060208284031215611cf257600080fd5b6000611d0084828501611bb2565b91505092915050565b611d12816126c1565b82525050565b611d21816126c1565b82525050565b611d30816126d3565b82525050565b611d3f816126df565b82525050565b611d4e816126df565b82525050565b6000611d5f8261261b565b611d698185612626565b9350611d79818560208601612720565b611d8281612856565b840191505092915050565b6000611d9a602383612626565b91507f45524332303a207472616e7366657220746f20746865207a65726f206164647260008301527f65737300000000000000000000000000000000000000000000000000000000006020830152604082019050919050565b6000611e00602283612626565b91507f45524332303a206275726e20616d6f756e7420657863656564732062616c616e60008301527f63650000000000000000000000000000000000000000000000000000000000006020830152604082019050919050565b6000611e66602283612626565b91507f45524332303a20617070726f766520746f20746865207a65726f20616464726560008301527f73730000000000000000000000000000000000000000000000000000000000006020830152604082019050919050565b6000611ecc601d83612626565b91507f45524332303a20696e73756666696369656e7420616c6c6f77616e63650000006000830152602082019050919050565b6000611f0c602283612626565b91507f496e73756666696369656e742062616c616e636520666f7220756e7374616b6960008301527f6e670000000000000000000000000000000000000000000000000000000000006020830152604082019050919050565b6000611f72602683612626565b91507f45524332303a207472616e7366657220616d6f756e742065786365656473206260008301527f616c616e636500000000000000000000000000000000000000000000000000006020830152604082019050919050565b6000611fd8602083612626565b91507f496e73756666696369656e742062616c616e636520666f72207374616b696e676000830152602082019050919050565b6000612018602583612626565b91507f41646472657373206e6f74206c696e6b656420746f20616e79207374616b656860008301527f6f6c6465720000000000000000000000000000000000000000000000000000006020830152604082019050919050565b600061207e602983612626565b91507f496e76616c696420696e64657820666f72207374616b65686f6c64657273206360008301527f6f6c6c656374696f6e00000000000000000000000000000000000000000000006020830152604082019050919050565b60006120e4602183612626565b91507f45524332303a206275726e2066726f6d20746865207a65726f2061646472657360008301527f73000000000000000000000000000000000000000000000000000000000000006020830152604082019050919050565b600061214a602583612626565b91507f45524332303a207472616e736665722066726f6d20746865207a65726f20616460008301527f64726573730000000000000000000000000000000000000000000000000000006020830152604082019050919050565b60006121b0602483612626565b91507f45524332303a20617070726f76652066726f6d20746865207a65726f2061646460008301527f72657373000000000000000000000000000000000000000000000000000000006020830152604082019050919050565b6000612216602583612626565b91507f45524332303a2064656372656173656420616c6c6f77616e63652062656c6f7760008301527f207a65726f0000000000000000000000000000000000000000000000000000006020830152604082019050919050565b600061227c601f83612626565b91507f45524332303a206d696e7420746f20746865207a65726f2061646472657373006000830152602082019050919050565b60a0820160008201516122c56000850182611d36565b5060208201516122d86020850182612317565b5060408201516122eb6040850182612317565b5060608201516122fe6060850182612317565b5060808201516123116080850182611d09565b50505050565b61232081612709565b82525050565b61232f81612709565b82525050565b61233e81612713565b82525050565b60006020820190506123596000830184611d18565b92915050565b60006020820190506123746000830184611d27565b92915050565b600060208201905061238f6000830184611d45565b92915050565b600060208201905081810360008301526123af8184611d54565b905092915050565b600060208201905081810360008301526123d081611d8d565b9050919050565b600060208201905081810360008301526123f081611df3565b9050919050565b6000602082019050818103600083015261241081611e59565b9050919050565b6000602082019050818103600083015261243081611ebf565b9050919050565b6000602082019050818103600083015261245081611eff565b9050919050565b6000602082019050818103600083015261247081611f65565b9050919050565b6000602082019050818103600083015261249081611fcb565b9050919050565b600060208201905081810360008301526124b08161200b565b9050919050565b600060208201905081810360008301526124d081612071565b9050919050565b600060208201905081810360008301526124f0816120d7565b9050919050565b600060208201905081810360008301526125108161213d565b9050919050565b60006020820190508181036000830152612530816121a3565b9050919050565b6000602082019050818103600083015261255081612209565b9050919050565b600060208201905081810360008301526125708161226f565b9050919050565b600060a08201905061258c60008301846122af565b92915050565b60006020820190506125a76000830184612326565b92915050565b600060a0820190506125c26000830188612326565b6125cf6020830187612326565b6125dc6040830186612326565b6125e96060830185612326565b6125f66080830184611d27565b9695505050505050565b60006020820190506126156000830184612335565b92915050565b600081519050919050565b600082825260208201905092915050565b600061264282612709565b915061264d83612709565b9250827fffffffffffffffffffffffffffffffffffffffffffffffffffffffffffffffff03821115612682576126816127f8565b5b828201905092915050565b600061269882612709565b91506126a383612709565b9250828210156126b6576126b56127f8565b5b828203905092915050565b60006126cc826126e9565b9050919050565b60008115159050919050565b6000819050919050565b600073ffffffffffffffffffffffffffffffffffffffff82169050919050565b6000819050919050565b600060ff82169050919050565b60005b8381101561273e578082015181840152602081019050612723565b8381111561274d576000848401525b50505050565b600061275e82612709565b91506000821415612772576127716127f8565b5b600182039050919050565b6000600282049050600182168061279557607f821691505b602082108114156127a9576127a8612827565b5b50919050565b60006127ba82612709565b91507fffffffffffffffffffffffffffffffffffffffffffffffffffffffffffffffff8214156127ed576127ec6127f8565b5b600182019050919050565b7f4e487b7100000000000000000000000000000000000000000000000000000000600052601160045260246000fd5b7f4e487b7100000000000000000000000000000000000000000000000000000000600052602260045260246000fd5b6000601f19601f8301169050919050565b612870816126c1565b811461287b57600080fd5b50565b61288781612709565b811461289257600080fd5b5056fea2646970667358221220ba77f680ffe02aede939ac05938d40f388bea35cd99bf5b3d7e41fb36670230b64736f6c63430008000033",
  "immutableReferences": {
    "1748": [
      {
        "length": 32,
        "start": 1911
      },
      {
        "length": 32,
        "start": 5331
      },
      {
        "length": 32,
        "start": 6165
      }
    ]
  },
  "source": "pragma solidity ^0.8.0;\r\n\r\nimport \"./base/ERC20Stakable.sol\";\r\n\r\ncontract GoldOracleToken is ERC20Stakable {\r\n    uint256 private constant _minAmountStakedForValidation = 20000 * 10**18;\r\n    address private _owner;\r\n\r\n    constructor()\r\n        ERC20Stakable(\"GoldOracleToken\", \"GOT\", _minAmountStakedForValidation)\r\n    {\r\n        _owner = msg.sender;\r\n        _mint(msg.sender, _minAmountStakedForValidation * 10); // for testing\r\n    }\r\n\r\n    function getOwnerAddress() public view returns (address) {\r\n        return _owner;\r\n    }\r\n}\r\n",
  "sourcePath": "D:\\Documents\\Dev\\Repositories\\gold-price-oracle\\gold-price-oracle\\on-chain\\contracts\\token\\GoldOracleToken.sol",
  "compiler": {
    "name": "solc",
    "version": "0.8.0+commit.c7dfd78e.Emscripten.clang"
  },
  "schemaVersion": "3.4.3",
  "updatedAt": "2022-03-04T09:26:18.999Z",
  "devdoc": {
    "kind": "dev",
    "methods": {
      "allowance(address,address)": {
        "details": "See {IERC20-allowance}."
      },
      "approve(address,uint256)": {
        "details": "See {IERC20-approve}. NOTE: If `amount` is the maximum `uint256`, the allowance is not updated on `transferFrom`. This is semantically equivalent to an infinite approval. Requirements: - `spender` cannot be the zero address."
      },
      "balanceOf(address)": {
        "details": "See {IERC20-balanceOf}."
      },
      "decimals()": {
        "details": "Returns the number of decimals used to get its user representation. For example, if `decimals` equals `2`, a balance of `505` tokens should be displayed to a user as `5.05` (`505 / 10 ** 2`). Tokens usually opt for a value of 18, imitating the relationship between Ether and Wei. This is the value {ERC20} uses, unless this function is overridden; NOTE: This information is only used for _display_ purposes: it in no way affects any of the arithmetic of the contract, including {IERC20-balanceOf} and {IERC20-transfer}."
      },
      "decreaseAllowance(address,uint256)": {
        "details": "Atomically decreases the allowance granted to `spender` by the caller. This is an alternative to {approve} that can be used as a mitigation for problems described in {IERC20-approve}. Emits an {Approval} event indicating the updated allowance. Requirements: - `spender` cannot be the zero address. - `spender` must have allowance for the caller of at least `subtractedValue`."
      },
      "increaseAllowance(address,uint256)": {
        "details": "Atomically increases the allowance granted to `spender` by the caller. This is an alternative to {approve} that can be used as a mitigation for problems described in {IERC20-approve}. Emits an {Approval} event indicating the updated allowance. Requirements: - `spender` cannot be the zero address."
      },
      "name()": {
        "details": "Returns the name of the token."
      },
      "symbol()": {
        "details": "Returns the symbol of the token, usually a shorter version of the name."
      },
      "totalSupply()": {
        "details": "See {IERC20-totalSupply}."
      },
      "transfer(address,uint256)": {
        "details": "See {IERC20-transfer}. Requirements: - `to` cannot be the zero address. - the caller must have a balance of at least `amount`."
      },
      "transferFrom(address,address,uint256)": {
        "details": "See {IERC20-transferFrom}. Emits an {Approval} event indicating the updated allowance. This is not required by the EIP. See the note at the beginning of {ERC20}. NOTE: Does not update the allowance if the current allowance is the maximum `uint256`. Requirements: - `from` and `to` cannot be the zero address. - `from` must have a balance of at least `amount`. - the caller must have allowance for ``from``'s tokens of at least `amount`."
      }
    },
    "version": 1
  },
  "userdoc": {
    "kind": "user",
    "methods": {},
    "version": 1
  }
}