{
  "contractName": "GoldPriceResolver",
  "abi": [
    {
      "inputs": [
        {
          "internalType": "address",
          "name": "erasMonitorAddress_",
          "type": "address"
        }
      ],
      "stateMutability": "nonpayable",
      "type": "constructor"
    },
    {
      "anonymous": false,
      "inputs": [
        {
          "indexed": false,
          "internalType": "string",
          "name": "assetSymbol",
          "type": "string"
        },
        {
          "indexed": false,
          "internalType": "string",
          "name": "currencySymbol",
          "type": "string"
        },
        {
          "indexed": false,
          "internalType": "bytes32",
          "name": "roundId",
          "type": "bytes32"
        },
        {
          "indexed": false,
          "internalType": "address",
          "name": "proposalEmiterAddress",
          "type": "address"
        },
        {
          "indexed": false,
          "internalType": "uint256",
          "name": "price",
          "type": "uint256"
        }
      ],
      "name": "NewPriceVote",
      "type": "event"
    },
    {
      "inputs": [],
      "name": "getLatestValidData",
      "outputs": [
        {
          "components": [
            {
              "internalType": "bytes32",
              "name": "roundId",
              "type": "bytes32"
            },
            {
              "internalType": "uint256",
              "name": "nonce",
              "type": "uint256"
            },
            {
              "internalType": "address",
              "name": "node",
              "type": "address"
            },
            {
              "internalType": "uint256",
              "name": "price",
              "type": "uint256"
            },
            {
              "internalType": "string",
              "name": "assetCode",
              "type": "string"
            },
            {
              "internalType": "string",
              "name": "currencyCode",
              "type": "string"
            },
            {
              "internalType": "uint256",
              "name": "requiredQuorum",
              "type": "uint256"
            },
            {
              "internalType": "bool",
              "name": "isQuorumReached",
              "type": "bool"
            },
            {
              "internalType": "uint256",
              "name": "acceptVotes",
              "type": "uint256"
            },
            {
              "internalType": "uint256",
              "name": "refuseVotes",
              "type": "uint256"
            }
          ],
          "internalType": "struct Rounds.Round",
          "name": "round",
          "type": "tuple"
        }
      ],
      "stateMutability": "view",
      "type": "function"
    },
    {
      "inputs": [],
      "name": "getRoundCount",
      "outputs": [
        {
          "internalType": "uint256",
          "name": "",
          "type": "uint256"
        }
      ],
      "stateMutability": "view",
      "type": "function"
    },
    {
      "inputs": [
        {
          "internalType": "uint256",
          "name": "price_",
          "type": "uint256"
        }
      ],
      "name": "startNewPriceRound",
      "outputs": [],
      "stateMutability": "nonpayable",
      "type": "function"
    },
    {
      "inputs": [
        {
          "internalType": "bytes32",
          "name": "roundId_",
          "type": "bytes32"
        },
        {
          "internalType": "uint256",
          "name": "price_",
          "type": "uint256"
        }
      ],
      "name": "votePriceForRound",
      "outputs": [],
      "stateMutability": "nonpayable",
      "type": "function"
    }
  ],
  "bytecode": "0x60a06040523480156200001157600080fd5b5060405162002d9c38038062002d9c8339818101604052810190620000379190620004cc565b6040518060400160405280600381526020017f58554100000000000000000000000000000000000000000000000000000000008152506040518060400160405280600481526020017f555344540000000000000000000000000000000000000000000000000000000081525060038381608081815250508360009080519060200190620000c692919062000405565b508260019080519060200190620000df92919062000405565b5080600560006101000a81548173ffffffffffffffffffffffffffffffffffffffff021916908373ffffffffffffffffffffffffffffffffffffffff160217905550620001316200013c60201b60201c565b50505050506200067f565b60008060405160200162000151919062000555565b604051602081830303815290604052805190602001209050600260405180610140016040528083815260200160008152602001600073ffffffffffffffffffffffffffffffffffffffff1681526020016000815260200160008054620001b790620005cb565b80601f0160208091040260200160405190810160405280929190818152602001828054620001e590620005cb565b8015620002365780601f106200020a5761010080835404028352916020019162000236565b820191906000526020600020905b8154815290600101906020018083116200021857829003601f168201915b50505050508152602001600180546200024f90620005cb565b80601f01602080910402602001604051908101604052809291908181526020018280546200027d90620005cb565b8015620002ce5780601f10620002a257610100808354040283529160200191620002ce565b820191906000526020600020905b815481529060010190602001808311620002b057829003601f168201915b505050505081526020016000815260200160001515815260200160008152602001600081525090806001815401808255809150506001900390600052602060002090600a0201600090919091909150600082015181600001556020820151816001015560408201518160020160006101000a81548173ffffffffffffffffffffffffffffffffffffffff021916908373ffffffffffffffffffffffffffffffffffffffff160217905550606082015181600301556080820151816004019080519060200190620003a092919062000405565b5060a0820151816005019080519060200190620003bf92919062000405565b5060c0820151816006015560e08201518160070160006101000a81548160ff02191690831515021790555061010082015181600801556101208201518160090155505050565b8280546200041390620005cb565b90600052602060002090601f01602090048101928262000437576000855562000483565b82601f106200045257805160ff191683800117855562000483565b8280016001018555821562000483579182015b828111156200048257825182559160200191906001019062000465565b5b50905062000492919062000496565b5090565b5b80821115620004b157600081600090555060010162000497565b5090565b600081519050620004c68162000665565b92915050565b600060208284031215620004df57600080fd5b6000620004ef84828501620004b5565b91505092915050565b6200050d620005078262000597565b62000601565b82525050565b6000620005226001836200058c565b91507f30000000000000000000000000000000000000000000000000000000000000006000830152600182019050919050565b6000620005638284620004f8565b601482019150620005748262000513565b9150620005818262000513565b915081905092915050565b600081905092915050565b6000620005a482620005ab565b9050919050565b600073ffffffffffffffffffffffffffffffffffffffff82169050919050565b60006002820490506001821680620005e457607f821691505b60208210811415620005fb57620005fa62000629565b5b50919050565b60006200060e8262000615565b9050919050565b6000620006228262000658565b9050919050565b7f4e487b7100000000000000000000000000000000000000000000000000000000600052602260045260246000fd5b60008160601b9050919050565b620006708162000597565b81146200067c57600080fd5b50565b6080516127016200069b600039600061098a01526127016000f3fe608060405234801561001057600080fd5b506004361061004c5760003560e01c80636de7da78146100515780637cdf62741461006f57806387db480a1461008b578063888a9fba146100a7575b600080fd5b6100596100c5565b6040516100669190612290565b60405180910390f35b61008960048036038101906100849190611ad1565b6100d2565b005b6100a560048036038101906100a09190611a6b565b610722565b005b6100af610aed565b6040516100bc919061226e565b60405180910390f35b6000600280549050905090565b600073ffffffffffffffffffffffffffffffffffffffff163373ffffffffffffffffffffffffffffffffffffffff161415610142576040517f08c379a0000000000000000000000000000000000000000000000000000000008152600401610139906121ce565b60405180910390fd5b60003390506000600560009054906101000a900473ffffffffffffffffffffffffffffffffffffffff1673ffffffffffffffffffffffffffffffffffffffff1663d250b6cb6040518163ffffffff1660e01b81526004016101806040518083038186803b1580156101b257600080fd5b505afa1580156101c6573d6000803e3d6000fd5b505050506040513d601f19601f820116820180604052508101906101ea9190611aa7565b9050600073ffffffffffffffffffffffffffffffffffffffff168160a0015173ffffffffffffffffffffffffffffffffffffffff161415610260576040517f08c379a00000000000000000000000000000000000000000000000000000000081526004016102579061216e565b60405180910390fd5b8173ffffffffffffffffffffffffffffffffffffffff168160a0015173ffffffffffffffffffffffffffffffffffffffff16146102d2576040517f08c379a00000000000000000000000000000000000000000000000000000000081526004016102c99061224e565b60405180910390fd5b6000806102dd61108c565b905060008160200151146102f357806020015191505b81806102fe90612514565b925050600061030b6112e5565b9050600060405180610140016040528087868a60405160200161033093929190612069565b6040516020818303038152906040528051906020012081526020018581526020018773ffffffffffffffffffffffffffffffffffffffff16815260200188815260200160008054610380906124e2565b80601f01602080910402602001604051908101604052809291908181526020018280546103ac906124e2565b80156103f95780601f106103ce576101008083540402835291602001916103f9565b820191906000526020600020905b8154815290600101906020018083116103dc57829003601f168201915b5050505050815260200160018054610410906124e2565b80601f016020809104026020016040519081016040528092919081815260200182805461043c906124e2565b80156104895780601f1061045e57610100808354040283529160200191610489565b820191906000526020600020905b81548152906001019060200180831161046c57829003601f168201915b50505050508152602001838152602001836001101515158152602001600181526020016000815250905060028190806001815401808255809150506001900390600052602060002090600a0201600090919091909150600082015181600001556020820151816001015560408201518160020160006101000a81548173ffffffffffffffffffffffffffffffffffffffff021916908373ffffffffffffffffffffffffffffffffffffffff160217905550606082015181600301556080820151816004019080519060200190610560929190611795565b5060a082015181600501908051906020019061057d929190611795565b5060c0820151816006015560e08201518160070160006101000a81548160ff02191690831515021790555061010082015181600801556101208201518160090155505060016002805490506105d291906123ff565b6003600083600001518152602001908152602001600020819055507f78f6908c0a8d2c9158f488b36cdaca399ee238cd3cfc479e8db761f1aa907651600060018360000151846040015185606001516040516106329594939291906120ed565b60405180910390a1600061064a8260000151886113c3565b905060405180608001604052808873ffffffffffffffffffffffffffffffffffffffff16815260200189815260200160011515815260200160008152506004600083815260200190815260200160002060008201518160000160006101000a81548173ffffffffffffffffffffffffffffffffffffffff021916908373ffffffffffffffffffffffffffffffffffffffff1602179055506020820151816001015560408201518160020160006101000a81548160ff021916908315150217905550606082015181600301559050505050505050505050565b60003390506000600560009054906101000a900473ffffffffffffffffffffffffffffffffffffffff1673ffffffffffffffffffffffffffffffffffffffff1663d100896d836040518263ffffffff1660e01b815260040161078491906120d2565b60206040518083038186803b15801561079c57600080fd5b505afa1580156107b0573d6000803e3d6000fd5b505050506040513d601f19601f820116820180604052508101906107d49190611a42565b905080610816576040517f08c379a000000000000000000000000000000000000000000000000000000000815260040161080d9061218e565b60405180910390fd5b6000610821856113fb565b905060006002828154811061085f577f4e487b7100000000000000000000000000000000000000000000000000000000600052603260045260246000fd5b90600052602060002090600a02019050600061087b87866113c3565b90508160070160009054906101000a900460ff16156108cf576040517f08c379a00000000000000000000000000000000000000000000000000000000081526004016108c69061220e565b60405180910390fd5b600073ffffffffffffffffffffffffffffffffffffffff166004600083815260200190815260200160002060000160009054906101000a900473ffffffffffffffffffffffffffffffffffffffff1673ffffffffffffffffffffffffffffffffffffffff1614610974576040517f08c379a000000000000000000000000000000000000000000000000000000000815260040161096b906121ee565b60405180910390fd5b6000610984836003015488611729565b905060007f00000000000000000000000000000000000000000000000000000000000000008210905080156109d157600184600801546109c4919061231e565b84600801819055506109eb565b600184600901546109e2919061231e565b84600901819055505b60405180608001604052808873ffffffffffffffffffffffffffffffffffffffff1681526020018981526020018215158152602001838152506004600085815260200190815260200160002060008201518160000160006101000a81548173ffffffffffffffffffffffffffffffffffffffff021916908373ffffffffffffffffffffffffffffffffffffffff1602179055506020820151816001015560408201518160020160006101000a81548160ff021916908315150217905550606082015181600301559050508360060154846008015410610ae25760018460070160006101000a81548160ff0219169083151502179055505b505050505050505050565b610af561181b565b600073ffffffffffffffffffffffffffffffffffffffff163373ffffffffffffffffffffffffffffffffffffffff161415610b65576040517f08c379a0000000000000000000000000000000000000000000000000000000008152600401610b5c906121ce565b60405180910390fd5b600060028054905090506001811115611087576000600182610b8791906123ff565b9050600060028281548110610bc5577f4e487b7100000000000000000000000000000000000000000000000000000000600052603260045260246000fd5b90600052602060002090600a02016040518061014001604052908160008201548152602001600182015481526020016002820160009054906101000a900473ffffffffffffffffffffffffffffffffffffffff1673ffffffffffffffffffffffffffffffffffffffff1673ffffffffffffffffffffffffffffffffffffffff16815260200160038201548152602001600482018054610c63906124e2565b80601f0160208091040260200160405190810160405280929190818152602001828054610c8f906124e2565b8015610cdc5780601f10610cb157610100808354040283529160200191610cdc565b820191906000526020600020905b815481529060010190602001808311610cbf57829003601f168201915b50505050508152602001600582018054610cf5906124e2565b80601f0160208091040260200160405190810160405280929190818152602001828054610d21906124e2565b8015610d6e5780601f10610d4357610100808354040283529160200191610d6e565b820191906000526020600020905b815481529060010190602001808311610d5157829003601f168201915b50505050508152602001600682015481526020016007820160009054906101000a900460ff161515151581526020016008820154815260200160098201548152505090508060e0015115610dc757809350505050611089565b6000600183610dd691906123ff565b90505b60008110156110835760028181548110610e1c577f4e487b7100000000000000000000000000000000000000000000000000000000600052603260045260246000fd5b90600052602060002090600a020160070160009054906101000a900460ff16156110705760028181548110610e7a577f4e487b7100000000000000000000000000000000000000000000000000000000600052603260045260246000fd5b90600052602060002090600a02016040518061014001604052908160008201548152602001600182015481526020016002820160009054906101000a900473ffffffffffffffffffffffffffffffffffffffff1673ffffffffffffffffffffffffffffffffffffffff1673ffffffffffffffffffffffffffffffffffffffff16815260200160038201548152602001600482018054610f18906124e2565b80601f0160208091040260200160405190810160405280929190818152602001828054610f44906124e2565b8015610f915780601f10610f6657610100808354040283529160200191610f91565b820191906000526020600020905b815481529060010190602001808311610f7457829003601f168201915b50505050508152602001600582018054610faa906124e2565b80601f0160208091040260200160405190810160405280929190818152602001828054610fd6906124e2565b80156110235780601f10610ff857610100808354040283529160200191611023565b820191906000526020600020905b81548152906001019060200180831161100657829003601f168201915b50505050508152602001600682015481526020016007820160009054906101000a900460ff1615151515815260200160088201548152602001600982015481525050945050505050611089565b808061107b906124b8565b915050610dd9565b5050505b505b90565b61109461181b565b6000600280549050905060018111156112e05760026001826110b691906123ff565b815481106110ed577f4e487b7100000000000000000000000000000000000000000000000000000000600052603260045260246000fd5b90600052602060002090600a02016040518061014001604052908160008201548152602001600182015481526020016002820160009054906101000a900473ffffffffffffffffffffffffffffffffffffffff1673ffffffffffffffffffffffffffffffffffffffff1673ffffffffffffffffffffffffffffffffffffffff1681526020016003820154815260200160048201805461118b906124e2565b80601f01602080910402602001604051908101604052809291908181526020018280546111b7906124e2565b80156112045780601f106111d957610100808354040283529160200191611204565b820191906000526020600020905b8154815290600101906020018083116111e757829003601f168201915b5050505050815260200160058201805461121d906124e2565b80601f0160208091040260200160405190810160405280929190818152602001828054611249906124e2565b80156112965780601f1061126b57610100808354040283529160200191611296565b820191906000526020600020905b81548152906001019060200180831161127957829003601f168201915b50505050508152602001600682015481526020016007820160009054906101000a900460ff16151515158152602001600882015481526020016009820154815250509150506112e2565b505b90565b600080600560009054906101000a900473ffffffffffffffffffffffffffffffffffffffff1673ffffffffffffffffffffffffffffffffffffffff16636c3811ae6040518163ffffffff1660e01b815260040160206040518083038186803b15801561135057600080fd5b505afa158015611364573d6000803e3d6000fd5b505050506040513d601f19601f820116820180604052508101906113889190611afa565b9050600181141561139d5760019150506113c0565b600060646033836113ae91906123a5565b6113b89190612374565b905080925050505b90565b60008083836040516020016113d99291906120a6565b6040516020818303038152906040528051906020012090508091505092915050565b600080600360008481526020019081526020016000205490506000811415611458576040517f08c379a000000000000000000000000000000000000000000000000000000000815260040161144f9061222e565b60405180910390fd5b600060028281548110611494577f4e487b7100000000000000000000000000000000000000000000000000000000600052603260045260246000fd5b90600052602060002090600a02016040518061014001604052908160008201548152602001600182015481526020016002820160009054906101000a900473ffffffffffffffffffffffffffffffffffffffff1673ffffffffffffffffffffffffffffffffffffffff1673ffffffffffffffffffffffffffffffffffffffff16815260200160038201548152602001600482018054611532906124e2565b80601f016020809104026020016040519081016040528092919081815260200182805461155e906124e2565b80156115ab5780601f10611580576101008083540402835291602001916115ab565b820191906000526020600020905b81548152906001019060200180831161158e57829003601f168201915b505050505081526020016005820180546115c4906124e2565b80601f01602080910402602001604051908101604052809291908181526020018280546115f0906124e2565b801561163d5780601f106116125761010080835404028352916020019161163d565b820191906000526020600020905b81548152906001019060200180831161162057829003601f168201915b50505050508152602001600682015481526020016007820160009054906101000a900460ff16151515158152602001600882015481526020016009820154815250509050600061168b61108c565b905080600001518260000151146116d7576040517f08c379a00000000000000000000000000000000000000000000000000000000081526004016116ce9061214e565b60405180910390fd5b600081602001511161171e576040517f08c379a0000000000000000000000000000000000000000000000000000000008152600401611715906121ae565b60405180910390fd5b829350505050919050565b600080600090508284111561174b57828461174491906123ff565b905061175a565b838361175791906123ff565b90505b600081141561176d57600091505061178f565b60008460648361177d91906123a5565b6117879190612374565b905080925050505b92915050565b8280546117a1906124e2565b90600052602060002090601f0160209004810192826117c3576000855561180a565b82601f106117dc57805160ff191683800117855561180a565b8280016001018555821561180a579182015b828111156118095782518255916020019190600101906117ee565b5b5090506118179190611889565b5090565b6040518061014001604052806000801916815260200160008152602001600073ffffffffffffffffffffffffffffffffffffffff1681526020016000815260200160608152602001606081526020016000815260200160001515815260200160008152602001600081525090565b5b808211156118a257600081600090555060010161188a565b5090565b6000815190506118b58161266f565b92915050565b6000815190506118ca81612686565b92915050565b6000813590506118df8161269d565b92915050565b6000815190506118f48161269d565b92915050565b6000610180828403121561190d57600080fd5b6119186101806122ab565b90506000611928848285016118e5565b600083015250602061193c848285016118e5565b602083015250604061195084828501611a2d565b604083015250606061196484828501611a2d565b606083015250608061197884828501611a2d565b60808301525060a061198c848285016118a6565b60a08301525060c06119a084828501611a2d565b60c08301525060e06119b4848285016118bb565b60e0830152506101006119c984828501611a2d565b610100830152506101206119df84828501611a2d565b610120830152506101406119f5848285016118bb565b61014083015250610160611a0b848285016118bb565b6101608301525092915050565b600081359050611a27816126b4565b92915050565b600081519050611a3c816126b4565b92915050565b600060208284031215611a5457600080fd5b6000611a62848285016118bb565b91505092915050565b60008060408385031215611a7e57600080fd5b6000611a8c858286016118d0565b9250506020611a9d85828601611a18565b9150509250929050565b60006101808284031215611aba57600080fd5b6000611ac8848285016118fa565b91505092915050565b600060208284031215611ae357600080fd5b6000611af184828501611a18565b91505092915050565b600060208284031215611b0c57600080fd5b6000611b1a84828501611a2d565b91505092915050565b611b2c81612433565b82525050565b611b3b81612433565b82525050565b611b52611b4d82612433565b61255d565b82525050565b611b6181612445565b82525050565b611b7081612451565b82525050565b611b7f81612451565b82525050565b611b96611b9182612451565b61256f565b82525050565b6000611ba7826122f1565b611bb181856122fc565b9350611bc1818560208601612485565b611bca81612651565b840191505092915050565b60008154611be2816124e2565b611bec818661230d565b94506001821660008114611c075760018114611c1957611c4c565b60ff1983168652602086019350611c4c565b611c22856122dc565b60005b83811015611c4457815481890152600182019150602081019050611c25565b808801955050505b50505092915050565b6000611c62603b8361230d565b91507f566f74696e6720666f72206f6c6420726f756e642e2054686520726f756e644960008301527f642062656c6f6e677320746f2070726576696f757320726f756e6400000000006020830152604082019050919050565b6000611cc8602d8361230d565b91507f43616e6e6f7420737461727420707269636520726f756e6420776974686f757460008301527f2065726120656c656374696f6e000000000000000000000000000000000000006020830152604082019050919050565b6000611d2e60408361230d565b91507f4163636573732044656e6965642e20596f7520617265206e6f7420706172742060008301527f6f662074686520636f7563696c206f66207468652063757272656e74206572616020830152604082019050919050565b6000611d94602e8361230d565b91507f43616e6e6f742076616c696461746520726f756e642e204e6f20726f756e647360008301527f206172652070726573656e7465640000000000000000000000000000000000006020830152604082019050919050565b6000611dfa60198361230d565b91507f4e756c6c2061646472657373206973206e6f742076616c6964000000000000006000830152602082019050919050565b6000611e3a60158361230d565b91507f43616c6c657220616c726561647920766f7465642100000000000000000000006000830152602082019050919050565b6000611e7a601d8361230d565b91507f51756f72756d207265616368656420666f72207468617420726f756e640000006000830152602082019050919050565b6000611eba60118361230d565b91507f496e76616c696420726f756e64206964200000000000000000000000000000006000830152602082019050919050565b6000611efa602f8361230d565b91507f4f6e6c7920656c65637465642063686169726d616e2063616e2073746172742060008301527f6e657720707269636520726f756e6400000000000000000000000000000000006020830152604082019050919050565b600061014083016000830151611f6c6000860182611b67565b506020830151611f7f6020860182612034565b506040830151611f926040860182611b23565b506060830151611fa56060860182612034565b5060808301518482036080860152611fbd8282611b9c565b91505060a083015184820360a0860152611fd78282611b9c565b91505060c0830151611fec60c0860182612034565b5060e0830151611fff60e0860182611b58565b50610100830151612014610100860182612034565b50610120830151612029610120860182612034565b508091505092915050565b61203d8161247b565b82525050565b61204c8161247b565b82525050565b61206361205e8261247b565b61258b565b82525050565b60006120758286611b41565b6014820191506120858285612052565b6020820191506120958284612052565b602082019150819050949350505050565b60006120b28285611b85565b6020820191506120c28284611b41565b6014820191508190509392505050565b60006020820190506120e76000830184611b32565b92915050565b600060a08201905081810360008301526121078188611bd5565b9050818103602083015261211b8187611bd5565b905061212a6040830186611b76565b6121376060830185611b32565b6121446080830184612043565b9695505050505050565b6000602082019050818103600083015261216781611c55565b9050919050565b6000602082019050818103600083015261218781611cbb565b9050919050565b600060208201905081810360008301526121a781611d21565b9050919050565b600060208201905081810360008301526121c781611d87565b9050919050565b600060208201905081810360008301526121e781611ded565b9050919050565b6000602082019050818103600083015261220781611e2d565b9050919050565b6000602082019050818103600083015261222781611e6d565b9050919050565b6000602082019050818103600083015261224781611ead565b9050919050565b6000602082019050818103600083015261226781611eed565b9050919050565b600060208201905081810360008301526122888184611f53565b905092915050565b60006020820190506122a56000830184612043565b92915050565b6000604051905081810181811067ffffffffffffffff821117156122d2576122d1612622565b5b8060405250919050565b60008190508160005260206000209050919050565b600081519050919050565b600082825260208201905092915050565b600082825260208201905092915050565b60006123298261247b565b91506123348361247b565b9250827fffffffffffffffffffffffffffffffffffffffffffffffffffffffffffffffff0382111561236957612368612595565b5b828201905092915050565b600061237f8261247b565b915061238a8361247b565b92508261239a576123996125c4565b5b828204905092915050565b60006123b08261247b565b91506123bb8361247b565b9250817fffffffffffffffffffffffffffffffffffffffffffffffffffffffffffffffff04831182151516156123f4576123f3612595565b5b828202905092915050565b600061240a8261247b565b91506124158361247b565b92508282101561242857612427612595565b5b828203905092915050565b600061243e8261245b565b9050919050565b60008115159050919050565b6000819050919050565b600073ffffffffffffffffffffffffffffffffffffffff82169050919050565b6000819050919050565b60005b838110156124a3578082015181840152602081019050612488565b838111156124b2576000848401525b50505050565b60006124c38261247b565b915060008214156124d7576124d6612595565b5b600182039050919050565b600060028204905060018216806124fa57607f821691505b6020821081141561250e5761250d6125f3565b5b50919050565b600061251f8261247b565b91507fffffffffffffffffffffffffffffffffffffffffffffffffffffffffffffffff82141561255257612551612595565b5b600182019050919050565b600061256882612579565b9050919050565b6000819050919050565b600061258482612662565b9050919050565b6000819050919050565b7f4e487b7100000000000000000000000000000000000000000000000000000000600052601160045260246000fd5b7f4e487b7100000000000000000000000000000000000000000000000000000000600052601260045260246000fd5b7f4e487b7100000000000000000000000000000000000000000000000000000000600052602260045260246000fd5b7f4e487b7100000000000000000000000000000000000000000000000000000000600052604160045260246000fd5b6000601f19601f8301169050919050565b60008160601b9050919050565b61267881612433565b811461268357600080fd5b50565b61268f81612445565b811461269a57600080fd5b50565b6126a681612451565b81146126b157600080fd5b50565b6126bd8161247b565b81146126c857600080fd5b5056fea264697066735822122069a86ef95251c9674e82959b67e3f350fa4796516552fadb66b7712a99a328f764736f6c63430008000033",
  "immutableReferences": {
    "1047": [
      {
        "length": 32,
        "start": 2442
      }
    ]
  },
  "source": "pragma solidity ^0.8.0;\r\n\r\nimport \"../utils/Rounds.sol\";\r\nimport \"../utils/Votes.sol\";\r\nimport \"./base/BasePriceResolver.sol\";\r\n\r\n//PoC. Big Refactoring will happened!\r\ncontract GoldPriceResolver is BasePriceResolver {\r\n    uint256 constant MAXIMUM_ALLOWED_PRICE_DEVIATION_IN_PERCENTS = 3;\r\n    string constant GOLD_SYMBOL = \"XUA\"; //TODO; move to separate contract when refactor\r\n    string constant USDT_SYMBOL = \"USDT\";\r\n\r\n    constructor(address erasMonitorAddress_)\r\n        BasePriceResolver(\r\n            GOLD_SYMBOL,\r\n            USDT_SYMBOL,\r\n            MAXIMUM_ALLOWED_PRICE_DEVIATION_IN_PERCENTS,\r\n            erasMonitorAddress_\r\n        )\r\n    {}\r\n}\r\n",
  "sourcePath": "D:\\Documents\\Dev\\Repositories\\gold-price-oracle\\gold-price-oracle\\on-chain\\contracts\\oracle\\resolvers\\GoldPriceResolver.sol",
  "compiler": {
    "name": "solc",
    "version": "0.8.0+commit.c7dfd78e.Emscripten.clang"
  },
  "schemaVersion": "3.4.3",
  "updatedAt": "2022-03-17T11:47:38.133Z",
  "devdoc": {
    "kind": "dev",
    "methods": {},
    "version": 1
  },
  "userdoc": {
    "kind": "user",
    "methods": {},
    "version": 1
  }
}