{
  "contractName": "GoldPriceResolver",
  "abi": [
    {
      "inputs": [],
      "stateMutability": "nonpayable",
      "type": "constructor"
    },
    {
      "anonymous": false,
      "inputs": [
        {
          "indexed": false,
          "internalType": "string",
          "name": "assetSymbol",
          "type": "string"
        },
        {
          "indexed": false,
          "internalType": "string",
          "name": "currencySymbol",
          "type": "string"
        },
        {
          "indexed": false,
          "internalType": "bytes32",
          "name": "roundId",
          "type": "bytes32"
        },
        {
          "indexed": false,
          "internalType": "address",
          "name": "proposalEmiterAddress",
          "type": "address"
        },
        {
          "indexed": false,
          "internalType": "uint256",
          "name": "price",
          "type": "uint256"
        }
      ],
      "name": "NewPriceVote",
      "type": "event"
    },
    {
      "inputs": [],
      "name": "getLatestValidData",
      "outputs": [
        {
          "components": [
            {
              "internalType": "bytes32",
              "name": "roundId",
              "type": "bytes32"
            },
            {
              "internalType": "uint256",
              "name": "nonce",
              "type": "uint256"
            },
            {
              "internalType": "address",
              "name": "node",
              "type": "address"
            },
            {
              "internalType": "uint256",
              "name": "price",
              "type": "uint256"
            },
            {
              "internalType": "string",
              "name": "assetCode",
              "type": "string"
            },
            {
              "internalType": "string",
              "name": "currencyCode",
              "type": "string"
            },
            {
              "internalType": "uint256",
              "name": "requiredQuorum",
              "type": "uint256"
            },
            {
              "internalType": "bool",
              "name": "isQuorumReached",
              "type": "bool"
            },
            {
              "internalType": "uint256",
              "name": "acceptVotes",
              "type": "uint256"
            },
            {
              "internalType": "uint256",
              "name": "refuseVotes",
              "type": "uint256"
            }
          ],
          "internalType": "struct Rounds.Round",
          "name": "round",
          "type": "tuple"
        }
      ],
      "stateMutability": "view",
      "type": "function"
    },
    {
      "inputs": [],
      "name": "getRoundCount",
      "outputs": [
        {
          "internalType": "uint256",
          "name": "",
          "type": "uint256"
        }
      ],
      "stateMutability": "view",
      "type": "function"
    },
    {
      "inputs": [
        {
          "internalType": "address",
          "name": "nodeAddress_",
          "type": "address"
        },
        {
          "internalType": "uint256",
          "name": "price_",
          "type": "uint256"
        }
      ],
      "name": "startNewPriceRound",
      "outputs": [],
      "stateMutability": "nonpayable",
      "type": "function"
    },
    {
      "inputs": [
        {
          "internalType": "bytes32",
          "name": "roundId_",
          "type": "bytes32"
        },
        {
          "internalType": "uint256",
          "name": "price_",
          "type": "uint256"
        }
      ],
      "name": "votePriceForRound",
      "outputs": [],
      "stateMutability": "nonpayable",
      "type": "function"
    }
  ],
  "bytecode": "0x60a06040526004600555735b38da6a701c568545dcfcb03fcb875f56beddc4600660006101000a81548173ffffffffffffffffffffffffffffffffffffffff021916908373ffffffffffffffffffffffffffffffffffffffff1602179055503480156200006b57600080fd5b506040518060400160405280600381526020017f58554100000000000000000000000000000000000000000000000000000000008152506040518060400160405280600481526020017f5553445400000000000000000000000000000000000000000000000000000000815250600380608081815250508260009080519060200190620000fa929190620003f6565b50816001908051906020019062000113929190620003f6565b50620001246200012d60201b60201c565b50505062000613565b60008060405160200162000142919062000503565b604051602081830303815290604052805190602001209050600260405180610140016040528083815260200160008152602001600073ffffffffffffffffffffffffffffffffffffffff1681526020016000815260200160008054620001a89062000579565b80601f0160208091040260200160405190810160405280929190818152602001828054620001d69062000579565b8015620002275780601f10620001fb5761010080835404028352916020019162000227565b820191906000526020600020905b8154815290600101906020018083116200020957829003601f168201915b5050505050815260200160018054620002409062000579565b80601f01602080910402602001604051908101604052809291908181526020018280546200026e9062000579565b8015620002bf5780601f106200029357610100808354040283529160200191620002bf565b820191906000526020600020905b815481529060010190602001808311620002a157829003601f168201915b505050505081526020016000815260200160001515815260200160008152602001600081525090806001815401808255809150506001900390600052602060002090600a0201600090919091909150600082015181600001556020820151816001015560408201518160020160006101000a81548173ffffffffffffffffffffffffffffffffffffffff021916908373ffffffffffffffffffffffffffffffffffffffff16021790555060608201518160030155608082015181600401908051906020019062000391929190620003f6565b5060a0820151816005019080519060200190620003b0929190620003f6565b5060c0820151816006015560e08201518160070160006101000a81548160ff02191690831515021790555061010082015181600801556101208201518160090155505050565b828054620004049062000579565b90600052602060002090601f01602090048101928262000428576000855562000474565b82601f106200044357805160ff191683800117855562000474565b8280016001018555821562000474579182015b828111156200047357825182559160200191906001019062000456565b5b50905062000483919062000487565b5090565b5b80821115620004a257600081600090555060010162000488565b5090565b620004bb620004b58262000545565b620005af565b82525050565b6000620004d06001836200053a565b91507f30000000000000000000000000000000000000000000000000000000000000006000830152600182019050919050565b6000620005118284620004a6565b6014820191506200052282620004c1565b91506200052f82620004c1565b915081905092915050565b600081905092915050565b6000620005528262000559565b9050919050565b600073ffffffffffffffffffffffffffffffffffffffff82169050919050565b600060028204905060018216806200059257607f821691505b60208210811415620005a957620005a8620005d7565b5b50919050565b6000620005bc82620005c3565b9050919050565b6000620005d08262000606565b9050919050565b7f4e487b7100000000000000000000000000000000000000000000000000000000600052602260045260246000fd5b60008160601b9050919050565b6080516120476200062f600039600061024b01526120476000f3fe608060405234801561001057600080fd5b506004361061004c5760003560e01c80636de7da781461005157806387db480a1461006f578063888a9fba1461008b578063edf1aa7b146100a9575b600080fd5b6100596100c5565b6040516100669190611ca3565b60405180910390f35b61008960048036038101906100849190611621565b6100d2565b005b6100936103af565b6040516100a09190611c81565b60405180910390f35b6100c360048036038101906100be91906115e5565b6108de565b005b6000600280549050905090565b600033905060006100e284610e2d565b9050600060028281548110610120577f4e487b7100000000000000000000000000000000000000000000000000000000600052603260045260246000fd5b90600052602060002090600a02019050600061013c868561115b565b90508160070160009054906101000a900460ff1615610190576040517f08c379a000000000000000000000000000000000000000000000000000000000815260040161018790611c21565b60405180910390fd5b600073ffffffffffffffffffffffffffffffffffffffff166004600083815260200190815260200160002060000160009054906101000a900473ffffffffffffffffffffffffffffffffffffffff1673ffffffffffffffffffffffffffffffffffffffff1614610235576040517f08c379a000000000000000000000000000000000000000000000000000000000815260040161022c90611c01565b60405180910390fd5b6000610245836003015487611193565b905060007f00000000000000000000000000000000000000000000000000000000000000008210905080156102935783600801600081548092919061028990611ea0565b91905055506102ae565b8360090160008154809291906102a890611ea0565b91905055505b60405180608001604052808773ffffffffffffffffffffffffffffffffffffffff1681526020018881526020018215158152602001838152506004600085815260200190815260200160002060008201518160000160006101000a81548173ffffffffffffffffffffffffffffffffffffffff021916908373ffffffffffffffffffffffffffffffffffffffff1602179055506020820151816001015560408201518160020160006101000a81548160ff0219169083151502179055506060820151816003015590505083600601548460080154106103a55760018460070160006101000a81548160ff0219169083151502179055505b5050505050505050565b6103b7611495565b6000600280549050905060018111156108d95760006001826103d99190611d8b565b9050600060028281548110610417577f4e487b7100000000000000000000000000000000000000000000000000000000600052603260045260246000fd5b90600052602060002090600a02016040518061014001604052908160008201548152602001600182015481526020016002820160009054906101000a900473ffffffffffffffffffffffffffffffffffffffff1673ffffffffffffffffffffffffffffffffffffffff1673ffffffffffffffffffffffffffffffffffffffff168152602001600382015481526020016004820180546104b590611e6e565b80601f01602080910402602001604051908101604052809291908181526020018280546104e190611e6e565b801561052e5780601f106105035761010080835404028352916020019161052e565b820191906000526020600020905b81548152906001019060200180831161051157829003601f168201915b5050505050815260200160058201805461054790611e6e565b80601f016020809104026020016040519081016040528092919081815260200182805461057390611e6e565b80156105c05780601f10610595576101008083540402835291602001916105c0565b820191906000526020600020905b8154815290600101906020018083116105a357829003601f168201915b50505050508152602001600682015481526020016007820160009054906101000a900460ff161515151581526020016008820154815260200160098201548152505090508060e0015115610619578093505050506108db565b60006001836106289190611d8b565b90505b60008110156108d5576002818154811061066e577f4e487b7100000000000000000000000000000000000000000000000000000000600052603260045260246000fd5b90600052602060002090600a020160070160009054906101000a900460ff16156108c257600281815481106106cc577f4e487b7100000000000000000000000000000000000000000000000000000000600052603260045260246000fd5b90600052602060002090600a02016040518061014001604052908160008201548152602001600182015481526020016002820160009054906101000a900473ffffffffffffffffffffffffffffffffffffffff1673ffffffffffffffffffffffffffffffffffffffff1673ffffffffffffffffffffffffffffffffffffffff1681526020016003820154815260200160048201805461076a90611e6e565b80601f016020809104026020016040519081016040528092919081815260200182805461079690611e6e565b80156107e35780601f106107b8576101008083540402835291602001916107e3565b820191906000526020600020905b8154815290600101906020018083116107c657829003601f168201915b505050505081526020016005820180546107fc90611e6e565b80601f016020809104026020016040519081016040528092919081815260200182805461082890611e6e565b80156108755780601f1061084a57610100808354040283529160200191610875565b820191906000526020600020905b81548152906001019060200180831161085857829003601f168201915b50505050508152602001600682015481526020016007820160009054906101000a900460ff16151515158152602001600882015481526020016009820154815250509450505050506108db565b80806108cd90611e44565b91505061062b565b5050505b505b90565b600073ffffffffffffffffffffffffffffffffffffffff168273ffffffffffffffffffffffffffffffffffffffff16141561094e576040517f08c379a000000000000000000000000000000000000000000000000000000000815260040161094590611be1565b60405180910390fd5b600660009054906101000a900473ffffffffffffffffffffffffffffffffffffffff1673ffffffffffffffffffffffffffffffffffffffff168273ffffffffffffffffffffffffffffffffffffffff16146109de576040517f08c379a00000000000000000000000000000000000000000000000000000000081526004016109d590611c41565b60405180910390fd5b6000806109e96111ff565b905060008160200151146109ff57806020015191505b8180610a0a90611ea0565b9250506000610a17611458565b90506000604051806101400160405280878688604051602001610a3c93929190611ad7565b6040516020818303038152906040528051906020012081526020018581526020018773ffffffffffffffffffffffffffffffffffffffff16815260200186815260200160008054610a8c90611e6e565b80601f0160208091040260200160405190810160405280929190818152602001828054610ab890611e6e565b8015610b055780601f10610ada57610100808354040283529160200191610b05565b820191906000526020600020905b815481529060010190602001808311610ae857829003601f168201915b5050505050815260200160018054610b1c90611e6e565b80601f0160208091040260200160405190810160405280929190818152602001828054610b4890611e6e565b8015610b955780601f10610b6a57610100808354040283529160200191610b95565b820191906000526020600020905b815481529060010190602001808311610b7857829003601f168201915b50505050508152602001838152602001836001101515158152602001600181526020016000815250905060028190806001815401808255809150506001900390600052602060002090600a0201600090919091909150600082015181600001556020820151816001015560408201518160020160006101000a81548173ffffffffffffffffffffffffffffffffffffffff021916908373ffffffffffffffffffffffffffffffffffffffff160217905550606082015181600301556080820151816004019080519060200190610c6c929190611503565b5060a0820151816005019080519060200190610c89929190611503565b5060c0820151816006015560e08201518160070160006101000a81548160ff0219169083151502179055506101008201518160080155610120820151816009015550506001600280549050610cde9190611d8b565b6003600083600001518152602001908152602001600020819055507f78f6908c0a8d2c9158f488b36cdaca399ee238cd3cfc479e8db761f1aa90765160006001836000015184604001518560600151604051610d3e959493929190611b40565b60405180910390a16000610d5682600001518861115b565b905060405180608001604052808873ffffffffffffffffffffffffffffffffffffffff16815260200187815260200160011515815260200160008152506004600083815260200190815260200160002060008201518160000160006101000a81548173ffffffffffffffffffffffffffffffffffffffff021916908373ffffffffffffffffffffffffffffffffffffffff1602179055506020820151816001015560408201518160020160006101000a81548160ff0219169083151502179055506060820151816003015590505050505050505050565b600080600360008481526020019081526020016000205490506000811415610e8a576040517f08c379a0000000000000000000000000000000000000000000000000000000008152600401610e8190611c61565b60405180910390fd5b600060028281548110610ec6577f4e487b7100000000000000000000000000000000000000000000000000000000600052603260045260246000fd5b90600052602060002090600a02016040518061014001604052908160008201548152602001600182015481526020016002820160009054906101000a900473ffffffffffffffffffffffffffffffffffffffff1673ffffffffffffffffffffffffffffffffffffffff1673ffffffffffffffffffffffffffffffffffffffff16815260200160038201548152602001600482018054610f6490611e6e565b80601f0160208091040260200160405190810160405280929190818152602001828054610f9090611e6e565b8015610fdd5780601f10610fb257610100808354040283529160200191610fdd565b820191906000526020600020905b815481529060010190602001808311610fc057829003601f168201915b50505050508152602001600582018054610ff690611e6e565b80601f016020809104026020016040519081016040528092919081815260200182805461102290611e6e565b801561106f5780601f106110445761010080835404028352916020019161106f565b820191906000526020600020905b81548152906001019060200180831161105257829003601f168201915b50505050508152602001600682015481526020016007820160009054906101000a900460ff1615151515815260200160088201548152602001600982015481525050905060006110bd6111ff565b90508060000151826000015114611109576040517f08c379a000000000000000000000000000000000000000000000000000000000815260040161110090611ba1565b60405180910390fd5b6000816020015111611150576040517f08c379a000000000000000000000000000000000000000000000000000000000815260040161114790611bc1565b60405180910390fd5b829350505050919050565b6000808383604051602001611171929190611b14565b6040516020818303038152906040528051906020012090508091505092915050565b60008060009050828411156111b55782846111ae9190611d8b565b90506111c4565b83836111c19190611d8b565b90505b60008114156111d75760009150506111f9565b6000846064836111e79190611d31565b6111f19190611d00565b905080925050505b92915050565b611207611495565b6000600280549050905060018111156114535760026001826112299190611d8b565b81548110611260577f4e487b7100000000000000000000000000000000000000000000000000000000600052603260045260246000fd5b90600052602060002090600a02016040518061014001604052908160008201548152602001600182015481526020016002820160009054906101000a900473ffffffffffffffffffffffffffffffffffffffff1673ffffffffffffffffffffffffffffffffffffffff1673ffffffffffffffffffffffffffffffffffffffff168152602001600382015481526020016004820180546112fe90611e6e565b80601f016020809104026020016040519081016040528092919081815260200182805461132a90611e6e565b80156113775780601f1061134c57610100808354040283529160200191611377565b820191906000526020600020905b81548152906001019060200180831161135a57829003601f168201915b5050505050815260200160058201805461139090611e6e565b80601f01602080910402602001604051908101604052809291908181526020018280546113bc90611e6e565b80156114095780601f106113de57610100808354040283529160200191611409565b820191906000526020600020905b8154815290600101906020018083116113ec57829003601f168201915b50505050508152602001600682015481526020016007820160009054906101000a900460ff1615151515815260200160088201548152602001600982015481525050915050611455565b505b90565b60006001600554141561146e5760019050611492565b6000606460336005546114819190611d31565b61148b9190611d00565b9050809150505b90565b6040518061014001604052806000801916815260200160008152602001600073ffffffffffffffffffffffffffffffffffffffff1681526020016000815260200160608152602001606081526020016000815260200160001515815260200160008152602001600081525090565b82805461150f90611e6e565b90600052602060002090601f0160209004810192826115315760008555611578565b82601f1061154a57805160ff1916838001178555611578565b82800160010185558215611578579182015b8281111561157757825182559160200191906001019061155c565b5b5090506115859190611589565b5090565b5b808211156115a257600081600090555060010161158a565b5090565b6000813590506115b581611fcc565b92915050565b6000813590506115ca81611fe3565b92915050565b6000813590506115df81611ffa565b92915050565b600080604083850312156115f857600080fd5b6000611606858286016115a6565b9250506020611617858286016115d0565b9150509250929050565b6000806040838503121561163457600080fd5b6000611642858286016115bb565b9250506020611653858286016115d0565b9150509250929050565b61166681611dbf565b82525050565b61167581611dbf565b82525050565b61168c61168782611dbf565b611ee9565b82525050565b61169b81611dd1565b82525050565b6116aa81611ddd565b82525050565b6116b981611ddd565b82525050565b6116d06116cb82611ddd565b611efb565b82525050565b60006116e182611cd3565b6116eb8185611cde565b93506116fb818560208601611e11565b61170481611fae565b840191505092915050565b6000815461171c81611e6e565b6117268186611cef565b94506001821660008114611741576001811461175357611786565b60ff1983168652602086019350611786565b61175c85611cbe565b60005b8381101561177e5781548189015260018201915060208101905061175f565b808801955050505b50505092915050565b600061179c603b83611cef565b91507f566f74696e6720666f72206f6c6420726f756e642e2054686520726f756e644960008301527f642062656c6f6e677320746f2070726576696f757320726f756e6400000000006020830152604082019050919050565b6000611802602e83611cef565b91507f43616e6e6f742076616c696461746520726f756e642e204e6f20726f756e647360008301527f206172652070726573656e7465640000000000000000000000000000000000006020830152604082019050919050565b6000611868601783611cef565b91507f4e756c6c206164647265737320697320696e76616c69640000000000000000006000830152602082019050919050565b60006118a8601583611cef565b91507f43616c6c657220616c726561647920766f7465642100000000000000000000006000830152602082019050919050565b60006118e8601d83611cef565b91507f51756f72756d207265616368656420666f72207468617420726f756e640000006000830152602082019050919050565b6000611928602883611cef565b91507f476976656e2061646472657373206e6f7420656c656374656420666f7220766160008301527f6c69646174696f6e0000000000000000000000000000000000000000000000006020830152604082019050919050565b600061198e601183611cef565b91507f496e76616c696420726f756e64206964200000000000000000000000000000006000830152602082019050919050565b6000610140830160008301516119da60008601826116a1565b5060208301516119ed6020860182611aa2565b506040830151611a00604086018261165d565b506060830151611a136060860182611aa2565b5060808301518482036080860152611a2b82826116d6565b91505060a083015184820360a0860152611a4582826116d6565b91505060c0830151611a5a60c0860182611aa2565b5060e0830151611a6d60e0860182611692565b50610100830151611a82610100860182611aa2565b50610120830151611a97610120860182611aa2565b508091505092915050565b611aab81611e07565b82525050565b611aba81611e07565b82525050565b611ad1611acc82611e07565b611f17565b82525050565b6000611ae3828661167b565b601482019150611af38285611ac0565b602082019150611b038284611ac0565b602082019150819050949350505050565b6000611b2082856116bf565b602082019150611b30828461167b565b6014820191508190509392505050565b600060a0820190508181036000830152611b5a818861170f565b90508181036020830152611b6e818761170f565b9050611b7d60408301866116b0565b611b8a606083018561166c565b611b976080830184611ab1565b9695505050505050565b60006020820190508181036000830152611bba8161178f565b9050919050565b60006020820190508181036000830152611bda816117f5565b9050919050565b60006020820190508181036000830152611bfa8161185b565b9050919050565b60006020820190508181036000830152611c1a8161189b565b9050919050565b60006020820190508181036000830152611c3a816118db565b9050919050565b60006020820190508181036000830152611c5a8161191b565b9050919050565b60006020820190508181036000830152611c7a81611981565b9050919050565b60006020820190508181036000830152611c9b81846119c1565b905092915050565b6000602082019050611cb86000830184611ab1565b92915050565b60008190508160005260206000209050919050565b600081519050919050565b600082825260208201905092915050565b600082825260208201905092915050565b6000611d0b82611e07565b9150611d1683611e07565b925082611d2657611d25611f50565b5b828204905092915050565b6000611d3c82611e07565b9150611d4783611e07565b9250817fffffffffffffffffffffffffffffffffffffffffffffffffffffffffffffffff0483118215151615611d8057611d7f611f21565b5b828202905092915050565b6000611d9682611e07565b9150611da183611e07565b925082821015611db457611db3611f21565b5b828203905092915050565b6000611dca82611de7565b9050919050565b60008115159050919050565b6000819050919050565b600073ffffffffffffffffffffffffffffffffffffffff82169050919050565b6000819050919050565b60005b83811015611e2f578082015181840152602081019050611e14565b83811115611e3e576000848401525b50505050565b6000611e4f82611e07565b91506000821415611e6357611e62611f21565b5b600182039050919050565b60006002820490506001821680611e8657607f821691505b60208210811415611e9a57611e99611f7f565b5b50919050565b6000611eab82611e07565b91507fffffffffffffffffffffffffffffffffffffffffffffffffffffffffffffffff821415611ede57611edd611f21565b5b600182019050919050565b6000611ef482611f05565b9050919050565b6000819050919050565b6000611f1082611fbf565b9050919050565b6000819050919050565b7f4e487b7100000000000000000000000000000000000000000000000000000000600052601160045260246000fd5b7f4e487b7100000000000000000000000000000000000000000000000000000000600052601260045260246000fd5b7f4e487b7100000000000000000000000000000000000000000000000000000000600052602260045260246000fd5b6000601f19601f8301169050919050565b60008160601b9050919050565b611fd581611dbf565b8114611fe057600080fd5b50565b611fec81611ddd565b8114611ff757600080fd5b50565b61200381611e07565b811461200e57600080fd5b5056fea2646970667358221220e2b63502587c02d24634f14717b455a0c1ff16ffc0d5f1c4fbb4c2f2b8a1a21364736f6c63430008000033",
  "immutableReferences": {
    "1047": [
      {
        "length": 32,
        "start": 587
      }
    ]
  },
  "source": "pragma solidity ^0.8.0;\r\n\r\nimport \"../utils/Rounds.sol\";\r\nimport \"../utils/Votes.sol\";\r\nimport \"./base/BasePriceResolver.sol\";\r\n\r\n//PoC. Big Refactoring will happened!\r\ncontract GoldPriceResolver is BasePriceResolver {\r\n    uint256 constant MAXIMUM_ALLOWED_PRICE_DEVIATION_IN_PERCENTS = 3;\r\n    string constant GOLD_SYMBOL = \"XUA\"; //TODO; move to separate contract when refactor\r\n    string constant USDT_SYMBOL = \"USDT\";\r\n\r\n    constructor()\r\n        BasePriceResolver(\r\n            GOLD_SYMBOL,\r\n            USDT_SYMBOL,\r\n            MAXIMUM_ALLOWED_PRICE_DEVIATION_IN_PERCENTS\r\n        )\r\n    {}\r\n}\r\n",
  "sourcePath": "D:\\Documents\\Dev\\Repositories\\gold-price-oracle\\gold-price-oracle\\on-chain\\contracts\\oracle\\resolvers\\GoldPriceResolver.sol",
  "compiler": {
    "name": "solc",
    "version": "0.8.0+commit.c7dfd78e.Emscripten.clang"
  },
  "schemaVersion": "3.4.3",
  "updatedAt": "2022-03-04T14:10:37.763Z",
  "devdoc": {
    "kind": "dev",
    "methods": {},
    "version": 1
  },
  "userdoc": {
    "kind": "user",
    "methods": {},
    "version": 1
  }
}