{
  "contractName": "GoldOracleToken",
  "abi": [
    {
      "inputs": [],
      "stateMutability": "nonpayable",
      "type": "constructor"
    },
    {
      "anonymous": false,
      "inputs": [
        {
          "indexed": true,
          "internalType": "address",
          "name": "owner",
          "type": "address"
        },
        {
          "indexed": true,
          "internalType": "address",
          "name": "spender",
          "type": "address"
        },
        {
          "indexed": false,
          "internalType": "uint256",
          "name": "value",
          "type": "uint256"
        }
      ],
      "name": "Approval",
      "type": "event"
    },
    {
      "anonymous": false,
      "inputs": [
        {
          "indexed": false,
          "internalType": "bytes32",
          "name": "eraId",
          "type": "bytes32"
        },
        {
          "indexed": false,
          "internalType": "address",
          "name": "chairman",
          "type": "address"
        },
        {
          "indexed": false,
          "internalType": "uint256",
          "name": "timestap",
          "type": "uint256"
        }
      ],
      "name": "EndEraByNewElectedChairman",
      "type": "event"
    },
    {
      "anonymous": false,
      "inputs": [
        {
          "indexed": false,
          "internalType": "bytes32",
          "name": "eraId",
          "type": "bytes32"
        },
        {
          "indexed": false,
          "internalType": "address",
          "name": "chairman",
          "type": "address"
        },
        {
          "indexed": false,
          "internalType": "address[]",
          "name": "council",
          "type": "address[]"
        },
        {
          "indexed": false,
          "internalType": "uint256",
          "name": "validatorsCount",
          "type": "uint256"
        },
        {
          "indexed": false,
          "internalType": "uint256",
          "name": "calculatedSeed",
          "type": "uint256"
        }
      ],
      "name": "NewEraElecationProposal",
      "type": "event"
    },
    {
      "anonymous": false,
      "inputs": [
        {
          "components": [
            {
              "internalType": "bytes32",
              "name": "id",
              "type": "bytes32"
            },
            {
              "internalType": "uint256",
              "name": "colectedFeesAmount",
              "type": "uint256"
            },
            {
              "internalType": "uint256",
              "name": "startDate",
              "type": "uint256"
            },
            {
              "internalType": "uint256",
              "name": "endDate",
              "type": "uint256"
            },
            {
              "internalType": "address",
              "name": "chairman",
              "type": "address"
            },
            {
              "internalType": "uint256",
              "name": "requiredQuorum",
              "type": "uint256"
            },
            {
              "internalType": "bool",
              "name": "isQuorumReached",
              "type": "bool"
            },
            {
              "internalType": "uint256",
              "name": "possitiveVotes",
              "type": "uint256"
            },
            {
              "internalType": "uint256",
              "name": "negativeVotes",
              "type": "uint256"
            },
            {
              "internalType": "bool",
              "name": "accepted",
              "type": "bool"
            },
            {
              "internalType": "bool",
              "name": "ended",
              "type": "bool"
            }
          ],
          "indexed": false,
          "internalType": "struct Eras.Era",
          "name": "era",
          "type": "tuple"
        }
      ],
      "name": "NewEraElectionComplited",
      "type": "event"
    },
    {
      "anonymous": false,
      "inputs": [
        {
          "indexed": true,
          "internalType": "address",
          "name": "from",
          "type": "address"
        },
        {
          "indexed": true,
          "internalType": "address",
          "name": "to",
          "type": "address"
        },
        {
          "indexed": false,
          "internalType": "uint256",
          "name": "value",
          "type": "uint256"
        }
      ],
      "name": "Transfer",
      "type": "event"
    },
    {
      "inputs": [
        {
          "internalType": "address",
          "name": "owner",
          "type": "address"
        },
        {
          "internalType": "address",
          "name": "spender",
          "type": "address"
        }
      ],
      "name": "allowance",
      "outputs": [
        {
          "internalType": "uint256",
          "name": "",
          "type": "uint256"
        }
      ],
      "stateMutability": "view",
      "type": "function"
    },
    {
      "inputs": [
        {
          "internalType": "address",
          "name": "spender",
          "type": "address"
        },
        {
          "internalType": "uint256",
          "name": "amount",
          "type": "uint256"
        }
      ],
      "name": "approve",
      "outputs": [
        {
          "internalType": "bool",
          "name": "",
          "type": "bool"
        }
      ],
      "stateMutability": "nonpayable",
      "type": "function"
    },
    {
      "inputs": [
        {
          "internalType": "address",
          "name": "account",
          "type": "address"
        }
      ],
      "name": "balanceOf",
      "outputs": [
        {
          "internalType": "uint256",
          "name": "",
          "type": "uint256"
        }
      ],
      "stateMutability": "view",
      "type": "function"
    },
    {
      "inputs": [],
      "name": "decimals",
      "outputs": [
        {
          "internalType": "uint8",
          "name": "",
          "type": "uint8"
        }
      ],
      "stateMutability": "view",
      "type": "function"
    },
    {
      "inputs": [
        {
          "internalType": "address",
          "name": "spender",
          "type": "address"
        },
        {
          "internalType": "uint256",
          "name": "subtractedValue",
          "type": "uint256"
        }
      ],
      "name": "decreaseAllowance",
      "outputs": [
        {
          "internalType": "bool",
          "name": "",
          "type": "bool"
        }
      ],
      "stateMutability": "nonpayable",
      "type": "function"
    },
    {
      "inputs": [
        {
          "internalType": "uint256",
          "name": "timestamp",
          "type": "uint256"
        }
      ],
      "name": "endEra",
      "outputs": [],
      "stateMutability": "nonpayable",
      "type": "function"
    },
    {
      "inputs": [],
      "name": "getCurrentEra",
      "outputs": [
        {
          "components": [
            {
              "internalType": "bytes32",
              "name": "id",
              "type": "bytes32"
            },
            {
              "internalType": "uint256",
              "name": "colectedFeesAmount",
              "type": "uint256"
            },
            {
              "internalType": "uint256",
              "name": "startDate",
              "type": "uint256"
            },
            {
              "internalType": "uint256",
              "name": "endDate",
              "type": "uint256"
            },
            {
              "internalType": "address",
              "name": "chairman",
              "type": "address"
            },
            {
              "internalType": "uint256",
              "name": "requiredQuorum",
              "type": "uint256"
            },
            {
              "internalType": "bool",
              "name": "isQuorumReached",
              "type": "bool"
            },
            {
              "internalType": "uint256",
              "name": "possitiveVotes",
              "type": "uint256"
            },
            {
              "internalType": "uint256",
              "name": "negativeVotes",
              "type": "uint256"
            },
            {
              "internalType": "bool",
              "name": "accepted",
              "type": "bool"
            },
            {
              "internalType": "bool",
              "name": "ended",
              "type": "bool"
            }
          ],
          "internalType": "struct Eras.Era",
          "name": "currentEra",
          "type": "tuple"
        }
      ],
      "stateMutability": "view",
      "type": "function"
    },
    {
      "inputs": [],
      "name": "getErasCount",
      "outputs": [
        {
          "internalType": "uint256",
          "name": "",
          "type": "uint256"
        }
      ],
      "stateMutability": "view",
      "type": "function"
    },
    {
      "inputs": [
        {
          "internalType": "address",
          "name": "address_",
          "type": "address"
        }
      ],
      "name": "getStakedAmount",
      "outputs": [
        {
          "internalType": "uint256",
          "name": "",
          "type": "uint256"
        }
      ],
      "stateMutability": "view",
      "type": "function"
    },
    {
      "inputs": [
        {
          "internalType": "address",
          "name": "address_",
          "type": "address"
        }
      ],
      "name": "getStakeholderInformation",
      "outputs": [
        {
          "internalType": "uint256",
          "name": "",
          "type": "uint256"
        },
        {
          "internalType": "uint256",
          "name": "",
          "type": "uint256"
        },
        {
          "internalType": "uint256",
          "name": "",
          "type": "uint256"
        },
        {
          "internalType": "uint256",
          "name": "",
          "type": "uint256"
        },
        {
          "internalType": "bool",
          "name": "",
          "type": "bool"
        }
      ],
      "stateMutability": "view",
      "type": "function"
    },
    {
      "inputs": [],
      "name": "getStakeholders",
      "outputs": [
        {
          "components": [
            {
              "internalType": "address",
              "name": "user",
              "type": "address"
            },
            {
              "internalType": "uint256",
              "name": "totalAmount",
              "type": "uint256"
            },
            {
              "internalType": "uint256",
              "name": "ownedAmount",
              "type": "uint256"
            },
            {
              "internalType": "uint256",
              "name": "nominatedAmount",
              "type": "uint256"
            },
            {
              "internalType": "uint256",
              "name": "nominatorsCount",
              "type": "uint256"
            },
            {
              "internalType": "bool",
              "name": "canValidate",
              "type": "bool"
            },
            {
              "internalType": "uint256",
              "name": "notCollectedTokenRewards",
              "type": "uint256"
            }
          ],
          "internalType": "struct Stakeholders.Stakeholder[]",
          "name": "stakeholders",
          "type": "tuple[]"
        }
      ],
      "stateMutability": "view",
      "type": "function"
    },
    {
      "inputs": [],
      "name": "getValidatorsCount",
      "outputs": [
        {
          "internalType": "uint256",
          "name": "",
          "type": "uint256"
        }
      ],
      "stateMutability": "view",
      "type": "function"
    },
    {
      "inputs": [
        {
          "internalType": "address",
          "name": "spender",
          "type": "address"
        },
        {
          "internalType": "uint256",
          "name": "addedValue",
          "type": "uint256"
        }
      ],
      "name": "increaseAllowance",
      "outputs": [
        {
          "internalType": "bool",
          "name": "",
          "type": "bool"
        }
      ],
      "stateMutability": "nonpayable",
      "type": "function"
    },
    {
      "inputs": [],
      "name": "name",
      "outputs": [
        {
          "internalType": "string",
          "name": "",
          "type": "string"
        }
      ],
      "stateMutability": "view",
      "type": "function"
    },
    {
      "inputs": [
        {
          "internalType": "bytes32",
          "name": "eraId_",
          "type": "bytes32"
        },
        {
          "internalType": "address",
          "name": "chairman_",
          "type": "address"
        },
        {
          "internalType": "address[]",
          "name": "coucil_",
          "type": "address[]"
        },
        {
          "internalType": "uint256",
          "name": "utcTimeStamp_",
          "type": "uint256"
        },
        {
          "internalType": "uint256",
          "name": "calculatedSeed_",
          "type": "uint256"
        }
      ],
      "name": "proposeNewEra",
      "outputs": [],
      "stateMutability": "nonpayable",
      "type": "function"
    },
    {
      "inputs": [
        {
          "internalType": "uint256",
          "name": "amount_",
          "type": "uint256"
        }
      ],
      "name": "stake",
      "outputs": [],
      "stateMutability": "nonpayable",
      "type": "function"
    },
    {
      "inputs": [],
      "name": "symbol",
      "outputs": [
        {
          "internalType": "string",
          "name": "",
          "type": "string"
        }
      ],
      "stateMutability": "view",
      "type": "function"
    },
    {
      "inputs": [],
      "name": "totalSupply",
      "outputs": [
        {
          "internalType": "uint256",
          "name": "",
          "type": "uint256"
        }
      ],
      "stateMutability": "view",
      "type": "function"
    },
    {
      "inputs": [
        {
          "internalType": "address",
          "name": "to",
          "type": "address"
        },
        {
          "internalType": "uint256",
          "name": "amount",
          "type": "uint256"
        }
      ],
      "name": "transfer",
      "outputs": [
        {
          "internalType": "bool",
          "name": "",
          "type": "bool"
        }
      ],
      "stateMutability": "nonpayable",
      "type": "function"
    },
    {
      "inputs": [
        {
          "internalType": "address",
          "name": "from",
          "type": "address"
        },
        {
          "internalType": "address",
          "name": "to",
          "type": "address"
        },
        {
          "internalType": "uint256",
          "name": "amount",
          "type": "uint256"
        }
      ],
      "name": "transferFrom",
      "outputs": [
        {
          "internalType": "bool",
          "name": "",
          "type": "bool"
        }
      ],
      "stateMutability": "nonpayable",
      "type": "function"
    },
    {
      "inputs": [
        {
          "internalType": "uint256",
          "name": "amount_",
          "type": "uint256"
        }
      ],
      "name": "unstake",
      "outputs": [],
      "stateMutability": "nonpayable",
      "type": "function"
    },
    {
      "inputs": [
        {
          "internalType": "bytes32",
          "name": "eraId",
          "type": "bytes32"
        },
        {
          "internalType": "bool",
          "name": "approves",
          "type": "bool"
        }
      ],
      "name": "voteForProposedEra",
      "outputs": [],
      "stateMutability": "nonpayable",
      "type": "function"
    },
    {
      "inputs": [],
      "name": "getOwnerAddress",
      "outputs": [
        {
          "internalType": "address",
          "name": "",
          "type": "address"
        }
      ],
      "stateMutability": "view",
      "type": "function"
    }
  ],
  "bytecode": "0x60c06040523480156200001157600080fd5b506040518060400160405280600f81526020017f476f6c644f7261636c65546f6b656e00000000000000000000000000000000008152506040518060400160405280600381526020017f474f54000000000000000000000000000000000000000000000000000000000081525069043c33c1937564800000683635c9adc5dea0000083838382828160039080519060200190620000b0929190620002df565b508060049080519060200190620000c9929190620002df565b505050806080818152505060006005819055505050508060a081815250505050505033601060006101000a81548173ffffffffffffffffffffffffffffffffffffffff021916908373ffffffffffffffffffffffffffffffffffffffff1602179055506200015633600a69043c33c19375648000006200014a91906200048f565b6200015c60201b60201c565b6200058e565b600073ffffffffffffffffffffffffffffffffffffffff168273ffffffffffffffffffffffffffffffffffffffff161415620001cf576040517f08c379a0000000000000000000000000000000000000000000000000000000008152600401620001c690620003e2565b60405180910390fd5b620001e360008383620002d560201b60201c565b8060026000828254620001f7919062000432565b92505081905550806000808473ffffffffffffffffffffffffffffffffffffffff1673ffffffffffffffffffffffffffffffffffffffff16815260200190815260200160002060008282546200024e919062000432565b925050819055508173ffffffffffffffffffffffffffffffffffffffff16600073ffffffffffffffffffffffffffffffffffffffff167fddf252ad1be2c89b69c2b068fc378daa952ba7f163c4a11628f55a4df523b3ef83604051620002b5919062000404565b60405180910390a3620002d160008383620002da60201b60201c565b5050565b505050565b505050565b828054620002ed90620004fa565b90600052602060002090601f0160209004810192826200031157600085556200035d565b82601f106200032c57805160ff19168380011785556200035d565b828001600101855582156200035d579182015b828111156200035c5782518255916020019190600101906200033f565b5b5090506200036c919062000370565b5090565b5b808211156200038b57600081600090555060010162000371565b5090565b60006200039e601f8362000421565b91507f45524332303a206d696e7420746f20746865207a65726f2061646472657373006000830152602082019050919050565b620003dc81620004f0565b82525050565b60006020820190508181036000830152620003fd816200038f565b9050919050565b60006020820190506200041b6000830184620003d1565b92915050565b600082825260208201905092915050565b60006200043f82620004f0565b91506200044c83620004f0565b9250827fffffffffffffffffffffffffffffffffffffffffffffffffffffffffffffffff0382111562000484576200048362000530565b5b828201905092915050565b60006200049c82620004f0565b9150620004a983620004f0565b9250817fffffffffffffffffffffffffffffffffffffffffffffffffffffffffffffffff0483118215151615620004e557620004e462000530565b5b828202905092915050565b6000819050919050565b600060028204905060018216806200051357607f821691505b602082108114156200052a57620005296200055f565b5b50919050565b7f4e487b7100000000000000000000000000000000000000000000000000000000600052601160045260246000fd5b7f4e487b7100000000000000000000000000000000000000000000000000000000600052602260045260246000fd5b60805160a0516143da620005c260003960006118d90152600081816107be015281816121f1015261255501526143da6000f3fe608060405234801561001057600080fd5b506004361061014d5760003560e01c80634c5962cc116100c3578063a694fc3a1161007c578063a694fc3a146103cc578063a9059cbb146103e8578063b699224714610418578063d250b6cb14610436578063dd62ed3e14610454578063e4ae026f146104845761014d565b80634c5962cc146102e45780634da6a55614610300578063533aa7b81461033057806370a082311461034e57806395d89b411461037e578063a457c2d71461039c5761014d565b80632749824011610115578063274982401461020c5780632bf9262c1461022a5780632e17de781461025e578063313ce5671461027a578063395093511461029857806340c86f1a146102c85761014d565b806306fdde0314610152578063095ea7b3146101705780630c4f65bd146101a057806318160ddd146101be57806323b872dd146101dc575b600080fd5b61015a6104a0565b6040516101679190613ac4565b60405180910390f35b61018a60048036038101906101859190612c35565b610532565b6040516101979190613a18565b60405180910390f35b6101a8610555565b6040516101b591906139db565b60405180910390f35b6101c661057f565b6040516101d39190613dde565b60405180910390f35b6101f660048036038101906101f19190612be6565b610589565b6040516102039190613a18565b60405180910390f35b6102146105b8565b6040516102219190613dde565b60405180910390f35b610244600480360381019061023f9190612b81565b6105c2565b604051610255959493929190613df9565b60405180910390f35b61027860048036038101906102739190612d3c565b6106a0565b005b61028261084d565b60405161028f9190613e4c565b60405180910390f35b6102b260048036038101906102ad9190612c35565b610856565b6040516102bf9190613a18565b60405180910390f35b6102e260048036038101906102dd9190612d00565b610900565b005b6102fe60048036038101906102f99190612c71565b610d90565b005b61031a60048036038101906103159190612b81565b6110bd565b6040516103279190613dde565b60405180910390f35b610338611176565b6040516103459190613dde565b60405180910390f35b61036860048036038101906103639190612b81565b611180565b6040516103759190613dde565b60405180910390f35b6103866111c8565b6040516103939190613ac4565b60405180910390f35b6103b660048036038101906103b19190612c35565b61125a565b6040516103c39190613a18565b60405180910390f35b6103e660048036038101906103e19190612d3c565b611344565b005b61040260048036038101906103fd9190612c35565b611459565b60405161040f9190613a18565b60405180910390f35b61042061147c565b60405161042d91906139f6565b60405180910390f35b61043e61157e565b60405161044b9190613da6565b60405180910390f35b61046e60048036038101906104699190612baa565b611699565b60405161047b9190613dde565b60405180910390f35b61049e60048036038101906104999190612d3c565b611720565b005b6060600380546104af90614164565b80601f01602080910402602001604051908101604052809291908181526020018280546104db90614164565b80156105285780601f106104fd57610100808354040283529160200191610528565b820191906000526020600020905b81548152906001019060200180831161050b57829003601f168201915b5050505050905090565b60008061053d611962565b905061054a81858561196a565b600191505092915050565b6000601060009054906101000a900473ffffffffffffffffffffffffffffffffffffffff16905090565b6000600254905090565b600080610594611962565b90506105a1858285611b35565b6105ac858585611bc1565b60019150509392505050565b6000600554905090565b6000806000806000806105d487611e42565b905060008111610619576040517f08c379a000000000000000000000000000000000000000000000000000000000815260040161061090613c66565b60405180910390fd5b600060078281548110610655577f4e487b7100000000000000000000000000000000000000000000000000000000600052603260045260246000fd5b9060005260206000209060070201905080600101548160020154826003015483600401548460050160009054906101000a900460ff1696509650965096509650505091939590929450565b60003390506000600960008373ffffffffffffffffffffffffffffffffffffffff1673ffffffffffffffffffffffffffffffffffffffff16815260200190815260200160002054905060008114156106f957505061084a565b600060078281548110610735577f4e487b7100000000000000000000000000000000000000000000000000000000600052603260045260246000fd5b90600052602060002090600702019050838160010154101561078c576040517f08c379a000000000000000000000000000000000000000000000000000000000815260040161078390613ba6565b60405180910390fd5b6000848260010160008282546107a29190614033565b92505081905590508082600101819055508082600201819055507f000000000000000000000000000000000000000000000000000000000000000081106108055760018260050160006101000a81548160ff02191690831515021790555061083b565b60008260050160006101000a81548160ff021916908315150217905550600560008154809291906108359061413a565b91905055505b6108458486611f35565b505050505b50565b60006012905090565b600080610861611962565b90506108f5818585600160008673ffffffffffffffffffffffffffffffffffffffff1673ffffffffffffffffffffffffffffffffffffffff16815260200190815260200160002060008973ffffffffffffffffffffffffffffffffffffffff1673ffffffffffffffffffffffffffffffffffffffff168152602001908152602001600020546108f09190613f52565b61196a565b600191505092915050565b6000600860003373ffffffffffffffffffffffffffffffffffffffff1673ffffffffffffffffffffffffffffffffffffffff1681526020019081526020016000205490506000811415610988576040517f08c379a000000000000000000000000000000000000000000000000000000000815260040161097f90613ca6565b60405180910390fd5b6000600a60008581526020019081526020016000209050600073ffffffffffffffffffffffffffffffffffffffff168160040160009054906101000a900473ffffffffffffffffffffffffffffffffffffffff1673ffffffffffffffffffffffffffffffffffffffff161415610a33576040517f08c379a0000000000000000000000000000000000000000000000000000000008152600401610a2a90613b66565b60405180910390fd5b600015158160060160009054906101000a900460ff16151514610a8b576040517f08c379a0000000000000000000000000000000000000000000000000000000008152600401610a8290613d46565b60405180910390fd5b60003390506000600b600087815260200190815260200160002060008373ffffffffffffffffffffffffffffffffffffffff1673ffffffffffffffffffffffffffffffffffffffff1681526020019081526020016000209050600073ffffffffffffffffffffffffffffffffffffffff168160000160009054906101000a900473ffffffffffffffffffffffffffffffffffffffff1673ffffffffffffffffffffffffffffffffffffffff1614610b77576040517f08c379a0000000000000000000000000000000000000000000000000000000008152600401610b6e90613be6565b60405180910390fd5b60405180604001604052808373ffffffffffffffffffffffffffffffffffffffff168152602001861515815250600b600088815260200190815260200160002060008473ffffffffffffffffffffffffffffffffffffffff1673ffffffffffffffffffffffffffffffffffffffff16815260200190815260200160002060008201518160000160006101000a81548173ffffffffffffffffffffffffffffffffffffffff021916908373ffffffffffffffffffffffffffffffffffffffff16021790555060208201518160000160146101000a81548160ff0219169083151502179055509050508415610cd457826007016000815480929190610c7990614218565b91905055508260050154836007015410610ccf5760018360060160006101000a81548160ff02191690831515021790555060018360090160006101000a81548160ff02191690831515021790555085600f819055505b610d39565b826008016000815480929190610ce990614218565b91905055508260050154836008015410610d385760018360060160006101000a81548160ff02191690831515021790555060008360090160006101000a81548160ff0219169083151502179055505b5b8260060160009054906101000a900460ff1615610d88577ff8fc26765c3e6892820e259afcf2966297e8970183df3a7bdb1be186e80208cd83604051610d7f9190613dc2565b60405180910390a15b505050505050565b60003390506000610d9f612095565b9050600073ffffffffffffffffffffffffffffffffffffffff16816080015173ffffffffffffffffffffffffffffffffffffffff1614610e4c57806080015173ffffffffffffffffffffffffffffffffffffffff168273ffffffffffffffffffffffffffffffffffffffff1614610e4b576040517f08c379a0000000000000000000000000000000000000000000000000000000008152600401610e4290613c46565b60405180910390fd5b5b6000600a60008981526020019081526020016000209050600073ffffffffffffffffffffffffffffffffffffffff168160040160009054906101000a900473ffffffffffffffffffffffffffffffffffffffff1673ffffffffffffffffffffffffffffffffffffffff1614610ef6576040517f08c379a0000000000000000000000000000000000000000000000000000000008152600401610eed90613c26565b60405180910390fd5b60405180610160016040528089815260200160008152602001868152602001600081526020018873ffffffffffffffffffffffffffffffffffffffff168152602001610f406121b0565b8152602001600015158152602001600081526020016000815260200160001515815260200160001515815250600a60008a81526020019081526020016000206000820151816000015560208201518160010155604082015181600201556060820151816003015560808201518160040160006101000a81548173ffffffffffffffffffffffffffffffffffffffff021916908373ffffffffffffffffffffffffffffffffffffffff16021790555060a0820151816005015560c08201518160060160006101000a81548160ff02191690831515021790555060e0820151816007015561010082015181600801556101208201518160090160006101000a81548160ff0219169083151502179055506101408201518160090160016101000a81548160ff0219169083151502179055509050507f6d4aad47cb7bcb13b25ae71b45f2c76944033a9b2e76c78a342b7863412504e6888888600554886040516110ab959493929190613a33565b60405180910390a15050505050505050565b600081600073ffffffffffffffffffffffffffffffffffffffff168173ffffffffffffffffffffffffffffffffffffffff1614156110fa57600080fd5b600061110584611e42565b9050600081141561111a576000925050611170565b600060078281548110611156577f4e487b7100000000000000000000000000000000000000000000000000000000600052603260045260246000fd5b906000526020600020906007020190508060010154935050505b50919050565b6000600654905090565b60008060008373ffffffffffffffffffffffffffffffffffffffff1673ffffffffffffffffffffffffffffffffffffffff168152602001908152602001600020549050919050565b6060600480546111d790614164565b80601f016020809104026020016040519081016040528092919081815260200182805461120390614164565b80156112505780601f1061122557610100808354040283529160200191611250565b820191906000526020600020905b81548152906001019060200180831161123357829003601f168201915b5050505050905090565b600080611265611962565b90506000600160008373ffffffffffffffffffffffffffffffffffffffff1673ffffffffffffffffffffffffffffffffffffffff16815260200190815260200160002060008673ffffffffffffffffffffffffffffffffffffffff1673ffffffffffffffffffffffffffffffffffffffff1681526020019081526020016000205490508381101561132b576040517f08c379a000000000000000000000000000000000000000000000000000000000815260040161132290613d66565b60405180910390fd5b611338828686840361196a565b60019250505092915050565b600033905060003073ffffffffffffffffffffffffffffffffffffffff166370a08231836040518263ffffffff1660e01b815260040161138491906139db565b60206040518083038186803b15801561139c57600080fd5b505afa1580156113b0573d6000803e3d6000fd5b505050506040513d601f19601f820116820180604052508101906113d49190612d65565b905082811015611419576040517f08c379a000000000000000000000000000000000000000000000000000000000815260040161141090613c06565b60405180910390fd5b600061142483611e42565b9050600081141561143e5761143983856121ed565b611449565b61144881856124b9565b5b61145383856125d8565b50505050565b600080611464611962565b9050611471818585611bc1565b600191505092915050565b60606007805480602002602001604051908101604052809291908181526020016000905b8282101561157557838290600052602060002090600702016040518060e00160405290816000820160009054906101000a900473ffffffffffffffffffffffffffffffffffffffff1673ffffffffffffffffffffffffffffffffffffffff1673ffffffffffffffffffffffffffffffffffffffff168152602001600182015481526020016002820154815260200160038201548152602001600482015481526020016005820160009054906101000a900460ff16151515158152602001600682015481525050815260200190600101906114a0565b50505050905090565b611586612a09565b600a6000600d54815260200190815260200160002060405180610160016040529081600082015481526020016001820154815260200160028201548152602001600382015481526020016004820160009054906101000a900473ffffffffffffffffffffffffffffffffffffffff1673ffffffffffffffffffffffffffffffffffffffff1673ffffffffffffffffffffffffffffffffffffffff168152602001600582015481526020016006820160009054906101000a900460ff1615151515815260200160078201548152602001600882015481526020016009820160009054906101000a900460ff161515151581526020016009820160019054906101000a900460ff161515151581525050905090565b6000600160008473ffffffffffffffffffffffffffffffffffffffff1673ffffffffffffffffffffffffffffffffffffffff16815260200190815260200160002060008373ffffffffffffffffffffffffffffffffffffffff1673ffffffffffffffffffffffffffffffffffffffff16815260200190815260200160002054905092915050565b60003390506000600a6000600f54815260200190815260200160002060405180610160016040529081600082015481526020016001820154815260200160028201548152602001600382015481526020016004820160009054906101000a900473ffffffffffffffffffffffffffffffffffffffff1673ffffffffffffffffffffffffffffffffffffffff1673ffffffffffffffffffffffffffffffffffffffff168152602001600582015481526020016006820160009054906101000a900460ff1615151515815260200160078201548152602001600882015481526020016009820160009054906101000a900460ff161515151581526020016009820160019054906101000a900460ff1615151515815250509050806080015173ffffffffffffffffffffffffffffffffffffffff168273ffffffffffffffffffffffffffffffffffffffff16146118a9576040517f08c379a00000000000000000000000000000000000000000000000000000000081526004016118a090613c86565b60405180910390fd5b6000801b600e541480156118c157506000801b600d54145b156118d457600f54600e81905550611917565b61190d7f000000000000000000000000000000000000000000000000000000000000000082602001516119079190613f52565b836127af565b600d54600e819055505b600f54600d819055507f722e3d4179a09427e9445cc06f5ccd49fe7a5cb5f568f00324d780aca56e341c600d54838560405161195593929190613a8d565b60405180910390a1505050565b600033905090565b600073ffffffffffffffffffffffffffffffffffffffff168373ffffffffffffffffffffffffffffffffffffffff1614156119da576040517f08c379a00000000000000000000000000000000000000000000000000000000081526004016119d190613d26565b60405180910390fd5b600073ffffffffffffffffffffffffffffffffffffffff168273ffffffffffffffffffffffffffffffffffffffff161415611a4a576040517f08c379a0000000000000000000000000000000000000000000000000000000008152600401611a4190613b46565b60405180910390fd5b80600160008573ffffffffffffffffffffffffffffffffffffffff1673ffffffffffffffffffffffffffffffffffffffff16815260200190815260200160002060008473ffffffffffffffffffffffffffffffffffffffff1673ffffffffffffffffffffffffffffffffffffffff168152602001908152602001600020819055508173ffffffffffffffffffffffffffffffffffffffff168373ffffffffffffffffffffffffffffffffffffffff167f8c5be1e5ebec7d5bd14f71427d1e84f3dd0314c0f7b2291e5b200ac8c7c3b92583604051611b289190613dde565b60405180910390a3505050565b6000611b418484611699565b90507fffffffffffffffffffffffffffffffffffffffffffffffffffffffffffffffff8114611bbb5781811015611bad576040517f08c379a0000000000000000000000000000000000000000000000000000000008152600401611ba490613b86565b60405180910390fd5b611bba848484840361196a565b5b50505050565b600073ffffffffffffffffffffffffffffffffffffffff168373ffffffffffffffffffffffffffffffffffffffff161415611c31576040517f08c379a0000000000000000000000000000000000000000000000000000000008152600401611c2890613d06565b60405180910390fd5b600073ffffffffffffffffffffffffffffffffffffffff168273ffffffffffffffffffffffffffffffffffffffff161415611ca1576040517f08c379a0000000000000000000000000000000000000000000000000000000008152600401611c9890613ae6565b60405180910390fd5b611cac838383612917565b60008060008573ffffffffffffffffffffffffffffffffffffffff1673ffffffffffffffffffffffffffffffffffffffff16815260200190815260200160002054905081811015611d32576040517f08c379a0000000000000000000000000000000000000000000000000000000008152600401611d2990613bc6565b60405180910390fd5b8181036000808673ffffffffffffffffffffffffffffffffffffffff1673ffffffffffffffffffffffffffffffffffffffff16815260200190815260200160002081905550816000808573ffffffffffffffffffffffffffffffffffffffff1673ffffffffffffffffffffffffffffffffffffffff1681526020019081526020016000206000828254611dc59190613f52565b925050819055508273ffffffffffffffffffffffffffffffffffffffff168473ffffffffffffffffffffffffffffffffffffffff167fddf252ad1be2c89b69c2b068fc378daa952ba7f163c4a11628f55a4df523b3ef84604051611e299190613dde565b60405180910390a3611e3c84848461291c565b50505050565b600081600073ffffffffffffffffffffffffffffffffffffffff168173ffffffffffffffffffffffffffffffffffffffff161415611e7f57600080fd5b6000600960008573ffffffffffffffffffffffffffffffffffffffff1673ffffffffffffffffffffffffffffffffffffffff1681526020019081526020016000205490506000811415611ed6576000925050611f2f565b6001600780549050611ee89190614033565b811115611f2a576040517f08c379a0000000000000000000000000000000000000000000000000000000008152600401611f2190613cc6565b60405180910390fd5b809250505b50919050565b600073ffffffffffffffffffffffffffffffffffffffff168273ffffffffffffffffffffffffffffffffffffffff161415611fa5576040517f08c379a0000000000000000000000000000000000000000000000000000000008152600401611f9c90613d86565b60405180910390fd5b611fb160008383612917565b8060026000828254611fc39190613f52565b92505081905550806000808473ffffffffffffffffffffffffffffffffffffffff1673ffffffffffffffffffffffffffffffffffffffff16815260200190815260200160002060008282546120189190613f52565b925050819055508173ffffffffffffffffffffffffffffffffffffffff16600073ffffffffffffffffffffffffffffffffffffffff167fddf252ad1be2c89b69c2b068fc378daa952ba7f163c4a11628f55a4df523b3ef8360405161207d9190613dde565b60405180910390a36120916000838361291c565b5050565b61209d612a09565b600a6000600d54815260200190815260200160002060405180610160016040529081600082015481526020016001820154815260200160028201548152602001600382015481526020016004820160009054906101000a900473ffffffffffffffffffffffffffffffffffffffff1673ffffffffffffffffffffffffffffffffffffffff1673ffffffffffffffffffffffffffffffffffffffff168152602001600582015481526020016006820160009054906101000a900460ff1615151515815260200160078201548152602001600882015481526020016009820160009054906101000a900460ff161515151581526020016009820160019054906101000a900460ff161515151581525050905090565b6000600160055414156121c657600190506121ea565b6000606460336005546121d99190613fd9565b6121e39190613fa8565b9050809150505b90565b60007f0000000000000000000000000000000000000000000000000000000000000000821015905060006007805490509050600081141561234f57808061223390614218565b91505060076040518060e00160405280600073ffffffffffffffffffffffffffffffffffffffff168152602001600081526020016000815260200160008152602001600081526020016000151581526020016000815250908060018154018082558091505060019003906000526020600020906007020160009091909190915060008201518160000160006101000a81548173ffffffffffffffffffffffffffffffffffffffff021916908373ffffffffffffffffffffffffffffffffffffffff1602179055506020820151816001015560408201518160020155606082015181600301556080820151816004015560a08201518160050160006101000a81548160ff02191690831515021790555060c0820151816006015550505b60076040518060e001604052808673ffffffffffffffffffffffffffffffffffffffff168152602001858152602001858152602001600081526020016000815260200184151581526020016000815250908060018154018082558091505060019003906000526020600020906007020160009091909190915060008201518160000160006101000a81548173ffffffffffffffffffffffffffffffffffffffff021916908373ffffffffffffffffffffffffffffffffffffffff1602179055506020820151816001015560408201518160020155606082015181600301556080820151816004015560a08201518160050160006101000a81548160ff02191690831515021790555060c08201518160060155505080600960008673ffffffffffffffffffffffffffffffffffffffff1673ffffffffffffffffffffffffffffffffffffffff168152602001908152602001600020819055506124b2828583612921565b5050505050565b6000600783815481106124f5577f4e487b7100000000000000000000000000000000000000000000000000000000600052603260045260246000fd5b90600052602060002090600702019050818160010160008282546125199190613f52565b92505081905550818160020160008282546125349190613f52565b925050819055508060050160009054906101000a900460ff166125d35760007f000000000000000000000000000000000000000000000000000000000000000082600101541015905080156125d15760018260050160006101000a81548160ff0219169083151502179055506125cf818360000160009054906101000a900473ffffffffffffffffffffffffffffffffffffffff1686612921565b505b505b505050565b600073ffffffffffffffffffffffffffffffffffffffff168273ffffffffffffffffffffffffffffffffffffffff161415612648576040517f08c379a000000000000000000000000000000000000000000000000000000000815260040161263f90613ce6565b60405180910390fd5b61265482600083612917565b60008060008473ffffffffffffffffffffffffffffffffffffffff1673ffffffffffffffffffffffffffffffffffffffff168152602001908152602001600020549050818110156126da576040517f08c379a00000000000000000000000000000000000000000000000000000000081526004016126d190613b06565b60405180910390fd5b8181036000808573ffffffffffffffffffffffffffffffffffffffff1673ffffffffffffffffffffffffffffffffffffffff1681526020019081526020016000208190555081600260008282546127319190614033565b92505081905550600073ffffffffffffffffffffffffffffffffffffffff168373ffffffffffffffffffffffffffffffffffffffff167fddf252ad1be2c89b69c2b068fc378daa952ba7f163c4a11628f55a4df523b3ef846040516127969190613dde565b60405180910390a36127aa8360008461291c565b505050565b60006002836127be9190613fa8565b90506000600960008473ffffffffffffffffffffffffffffffffffffffff1673ffffffffffffffffffffffffffffffffffffffff168152602001908152602001600020549050600060078281548110612840577f4e487b7100000000000000000000000000000000000000000000000000000000600052603260045260246000fd5b90600052602060002090600702019050600073ffffffffffffffffffffffffffffffffffffffff168160000160009054906101000a900473ffffffffffffffffffffffffffffffffffffffff1673ffffffffffffffffffffffffffffffffffffffff1614156128e4576040517f08c379a00000000000000000000000000000000000000000000000000000000081526004016128db90613b26565b60405180910390fd5b828160060160008282546128f89190613f52565b925050819055506000838661290d9190614033565b9050505050505050565b505050565b505050565b6000836129315760009050612a02565b6000600860008573ffffffffffffffffffffffffffffffffffffffff1673ffffffffffffffffffffffffffffffffffffffff16815260200190815260200160002054905060008114156129e45782600860008673ffffffffffffffffffffffffffffffffffffffff1673ffffffffffffffffffffffffffffffffffffffff16815260200190815260200160002081905550600560008154809291906129d590614218565b91905055506001915050612a02565b600560008154809291906129f790614218565b919050555060019150505b9392505050565b60405180610160016040528060008019168152602001600081526020016000815260200160008152602001600073ffffffffffffffffffffffffffffffffffffffff1681526020016000815260200160001515815260200160008152602001600081526020016000151581526020016000151581525090565b6000612a95612a9084613e98565b613e67565b90508083825260208201905082856020860282011115612ab457600080fd5b60005b85811015612ae45781612aca8882612aee565b845260208401935060208301925050600181019050612ab7565b5050509392505050565b600081359050612afd81614348565b92915050565b600082601f830112612b1457600080fd5b8135612b24848260208601612a82565b91505092915050565b600081359050612b3c8161435f565b92915050565b600081359050612b5181614376565b92915050565b600081359050612b668161438d565b92915050565b600081519050612b7b8161438d565b92915050565b600060208284031215612b9357600080fd5b6000612ba184828501612aee565b91505092915050565b60008060408385031215612bbd57600080fd5b6000612bcb85828601612aee565b9250506020612bdc85828601612aee565b9150509250929050565b600080600060608486031215612bfb57600080fd5b6000612c0986828701612aee565b9350506020612c1a86828701612aee565b9250506040612c2b86828701612b57565b9150509250925092565b60008060408385031215612c4857600080fd5b6000612c5685828601612aee565b9250506020612c6785828601612b57565b9150509250929050565b600080600080600060a08688031215612c8957600080fd5b6000612c9788828901612b42565b9550506020612ca888828901612aee565b945050604086013567ffffffffffffffff811115612cc557600080fd5b612cd188828901612b03565b9350506060612ce288828901612b57565b9250506080612cf388828901612b57565b9150509295509295909350565b60008060408385031215612d1357600080fd5b6000612d2185828601612b42565b9250506020612d3285828601612b2d565b9150509250929050565b600060208284031215612d4e57600080fd5b6000612d5c84828501612b57565b91505092915050565b600060208284031215612d7757600080fd5b6000612d8584828501612b6c565b91505092915050565b6000612d9a8383612dbe565b60208301905092915050565b6000612db28383613920565b60e08301905092915050565b612dc7816140a8565b82525050565b612dd6816140a8565b82525050565b6000612de782613ee4565b612df18185613f1f565b9350612dfc83613ec4565b8060005b83811015612e2d578151612e148882612d8e565b9750612e1f83613f05565b925050600181019050612e00565b5085935050505092915050565b6000612e4582613eef565b612e4f8185613f30565b9350612e5a83613ed4565b8060005b83811015612e8b578151612e728882612da6565b9750612e7d83613f12565b925050600181019050612e5e565b5085935050505092915050565b612ea1816140ba565b82525050565b612eb0816140ba565b82525050565b612ebf816140c6565b82525050565b612ece816140c6565b82525050565b6000612edf82613efa565b612ee98185613f41565b9350612ef9818560208601614107565b612f028161431d565b840191505092915050565b6000612f1a602383613f41565b91507f45524332303a207472616e7366657220746f20746865207a65726f206164647260008301527f65737300000000000000000000000000000000000000000000000000000000006020830152604082019050919050565b6000612f80602283613f41565b91507f45524332303a206275726e20616d6f756e7420657863656564732062616c616e60008301527f63650000000000000000000000000000000000000000000000000000000000006020830152604082019050919050565b6000612fe6601f83613f41565b91507f43686169726d616e206164647265737320646f6573206e6f74206578697374006000830152602082019050919050565b6000613026602283613f41565b91507f45524332303a20617070726f766520746f20746865207a65726f20616464726560008301527f73730000000000000000000000000000000000000000000000000000000000006020830152604082019050919050565b600061308c602183613f41565b91507f45726120776974682070617373656420496420646f6573206e6f74206578697360008301527f74000000000000000000000000000000000000000000000000000000000000006020830152604082019050919050565b60006130f2601d83613f41565b91507f45524332303a20696e73756666696369656e7420616c6c6f77616e63650000006000830152602082019050919050565b6000613132602283613f41565b91507f496e73756666696369656e742062616c616e636520666f7220756e7374616b6960008301527f6e670000000000000000000000000000000000000000000000000000000000006020830152604082019050919050565b6000613198602683613f41565b91507f45524332303a207472616e7366657220616d6f756e742065786365656473206260008301527f616c616e636500000000000000000000000000000000000000000000000000006020830152604082019050919050565b60006131fe601783613f41565b91507f56616c696461746f7220616c726561647920766f7465640000000000000000006000830152602082019050919050565b600061323e602083613f41565b91507f496e73756666696369656e742062616c616e636520666f72207374616b696e676000830152602082019050919050565b600061327e602583613f41565b91507f4572612077697468207468652073616d6520494420616c72656164792070726f60008301527f706f7365640000000000000000000000000000000000000000000000000000006020830152604082019050919050565b60006132e4602f83613f41565b91507f43616c6c6572206e6f742070726576696f7573206572612063686169726d616e60008301527f2e204163636573732064656e69656400000000000000000000000000000000006020830152604082019050919050565b600061334a602583613f41565b91507f41646472657373206e6f74206c696e6b656420746f20616e79207374616b656860008301527f6f6c6465720000000000000000000000000000000000000000000000000000006020830152604082019050919050565b60006133b0602183613f41565b91507f4f6e6c792063686169726d616e2063616e20656e642063757272656e7420657260008301527f61000000000000000000000000000000000000000000000000000000000000006020830152604082019050919050565b6000613416602383613f41565b91507f566f74696e6720666f7262696464656e20666f72206e6f6e2d76616c6964617460008301527f6f727300000000000000000000000000000000000000000000000000000000006020830152604082019050919050565b600061347c602983613f41565b91507f496e76616c696420696e64657820666f72207374616b65686f6c64657273206360008301527f6f6c6c656374696f6e00000000000000000000000000000000000000000000006020830152604082019050919050565b60006134e2602183613f41565b91507f45524332303a206275726e2066726f6d20746865207a65726f2061646472657360008301527f73000000000000000000000000000000000000000000000000000000000000006020830152604082019050919050565b6000613548602583613f41565b91507f45524332303a207472616e736665722066726f6d20746865207a65726f20616460008301527f64726573730000000000000000000000000000000000000000000000000000006020830152604082019050919050565b60006135ae602483613f41565b91507f45524332303a20617070726f76652066726f6d20746865207a65726f2061646460008301527f72657373000000000000000000000000000000000000000000000000000000006020830152604082019050919050565b6000613614601f83613f41565b91507f566f746520616c726561647920656e64656420666f72207468617420657261006000830152602082019050919050565b6000613654602583613f41565b91507f45524332303a2064656372656173656420616c6c6f77616e63652062656c6f7760008301527f207a65726f0000000000000000000000000000000000000000000000000000006020830152604082019050919050565b60006136ba601f83613f41565b91507f45524332303a206d696e7420746f20746865207a65726f2061646472657373006000830152602082019050919050565b610160820160008201516137046000850182612eb6565b50602082015161371760208501826139ae565b50604082015161372a60408501826139ae565b50606082015161373d60608501826139ae565b5060808201516137506080850182612dbe565b5060a082015161376360a08501826139ae565b5060c082015161377660c0850182612e98565b5060e082015161378960e08501826139ae565b5061010082015161379e6101008501826139ae565b506101208201516137b3610120850182612e98565b506101408201516137c8610140850182612e98565b50505050565b610160820160008083015490506137e4816141ca565b6137f16000860182612eb6565b5060018301549050613802816141e4565b61380f60208601826139ae565b5060028301549050613820816141e4565b61382d60408601826139ae565b506003830154905061383e816141e4565b61384b60608601826139ae565b506004830154905061385c81614196565b6138696080860182612dbe565b506005830154905061387a816141e4565b61388760a08601826139ae565b5060068301549050613898816141b0565b6138a560c0860182612e98565b50600783015490506138b6816141e4565b6138c360e08601826139ae565b50600883015490506138d4816141e4565b6138e26101008601826139ae565b50600983015490506138f3816141b0565b613901610120860182612e98565b5061390b816141fe565b613919610140860182612e98565b5050505050565b60e0820160008201516139366000850182612dbe565b50602082015161394960208501826139ae565b50604082015161395c60408501826139ae565b50606082015161396f60608501826139ae565b50608082015161398260808501826139ae565b5060a082015161399560a0850182612e98565b5060c08201516139a860c08501826139ae565b50505050565b6139b7816140f0565b82525050565b6139c6816140f0565b82525050565b6139d5816140fa565b82525050565b60006020820190506139f06000830184612dcd565b92915050565b60006020820190508181036000830152613a108184612e3a565b905092915050565b6000602082019050613a2d6000830184612ea7565b92915050565b600060a082019050613a486000830188612ec5565b613a556020830187612dcd565b8181036040830152613a678186612ddc565b9050613a7660608301856139bd565b613a8360808301846139bd565b9695505050505050565b6000606082019050613aa26000830186612ec5565b613aaf6020830185612dcd565b613abc60408301846139bd565b949350505050565b60006020820190508181036000830152613ade8184612ed4565b905092915050565b60006020820190508181036000830152613aff81612f0d565b9050919050565b60006020820190508181036000830152613b1f81612f73565b9050919050565b60006020820190508181036000830152613b3f81612fd9565b9050919050565b60006020820190508181036000830152613b5f81613019565b9050919050565b60006020820190508181036000830152613b7f8161307f565b9050919050565b60006020820190508181036000830152613b9f816130e5565b9050919050565b60006020820190508181036000830152613bbf81613125565b9050919050565b60006020820190508181036000830152613bdf8161318b565b9050919050565b60006020820190508181036000830152613bff816131f1565b9050919050565b60006020820190508181036000830152613c1f81613231565b9050919050565b60006020820190508181036000830152613c3f81613271565b9050919050565b60006020820190508181036000830152613c5f816132d7565b9050919050565b60006020820190508181036000830152613c7f8161333d565b9050919050565b60006020820190508181036000830152613c9f816133a3565b9050919050565b60006020820190508181036000830152613cbf81613409565b9050919050565b60006020820190508181036000830152613cdf8161346f565b9050919050565b60006020820190508181036000830152613cff816134d5565b9050919050565b60006020820190508181036000830152613d1f8161353b565b9050919050565b60006020820190508181036000830152613d3f816135a1565b9050919050565b60006020820190508181036000830152613d5f81613607565b9050919050565b60006020820190508181036000830152613d7f81613647565b9050919050565b60006020820190508181036000830152613d9f816136ad565b9050919050565b600061016082019050613dbc60008301846136ed565b92915050565b600061016082019050613dd860008301846137ce565b92915050565b6000602082019050613df360008301846139bd565b92915050565b600060a082019050613e0e60008301886139bd565b613e1b60208301876139bd565b613e2860408301866139bd565b613e3560608301856139bd565b613e426080830184612ea7565b9695505050505050565b6000602082019050613e6160008301846139cc565b92915050565b6000604051905081810181811067ffffffffffffffff82111715613e8e57613e8d6142ee565b5b8060405250919050565b600067ffffffffffffffff821115613eb357613eb26142ee565b5b602082029050602081019050919050565b6000819050602082019050919050565b6000819050602082019050919050565b600081519050919050565b600081519050919050565b600081519050919050565b6000602082019050919050565b6000602082019050919050565b600082825260208201905092915050565b600082825260208201905092915050565b600082825260208201905092915050565b6000613f5d826140f0565b9150613f68836140f0565b9250827fffffffffffffffffffffffffffffffffffffffffffffffffffffffffffffffff03821115613f9d57613f9c614261565b5b828201905092915050565b6000613fb3826140f0565b9150613fbe836140f0565b925082613fce57613fcd614290565b5b828204905092915050565b6000613fe4826140f0565b9150613fef836140f0565b9250817fffffffffffffffffffffffffffffffffffffffffffffffffffffffffffffffff048311821515161561402857614027614261565b5b828202905092915050565b600061403e826140f0565b9150614049836140f0565b92508282101561405c5761405b614261565b5b828203905092915050565b600073ffffffffffffffffffffffffffffffffffffffff82169050919050565b600060ff82169050919050565b6000819050919050565b6000819050919050565b60006140b3826140d0565b9050919050565b60008115159050919050565b6000819050919050565b600073ffffffffffffffffffffffffffffffffffffffff82169050919050565b6000819050919050565b600060ff82169050919050565b60005b8381101561412557808201518184015260208101905061410a565b83811115614134576000848401525b50505050565b6000614145826140f0565b9150600082141561415957614158614261565b5b600182039050919050565b6000600282049050600182168061417c57607f821691505b602082108114156141905761418f6142bf565b5b50919050565b60006141a96141a48361432e565b614067565b9050919050565b60006141c36141be8361432e565b614087565b9050919050565b60006141dd6141d88361432e565b614094565b9050919050565b60006141f76141f28361432e565b61409e565b9050919050565b600061421161420c8361433b565b614087565b9050919050565b6000614223826140f0565b91507fffffffffffffffffffffffffffffffffffffffffffffffffffffffffffffffff82141561425657614255614261565b5b600182019050919050565b7f4e487b7100000000000000000000000000000000000000000000000000000000600052601160045260246000fd5b7f4e487b7100000000000000000000000000000000000000000000000000000000600052601260045260246000fd5b7f4e487b7100000000000000000000000000000000000000000000000000000000600052602260045260246000fd5b7f4e487b7100000000000000000000000000000000000000000000000000000000600052604160045260246000fd5b6000601f19601f8301169050919050565b60008160001c9050919050565b60008160081c9050919050565b614351816140a8565b811461435c57600080fd5b50565b614368816140ba565b811461437357600080fd5b50565b61437f816140c6565b811461438a57600080fd5b50565b614396816140f0565b81146143a157600080fd5b5056fea26469706673582212206c6dfe2e9ea691a1aa6f0e99e56c1959e3674fc9a424d1c6f4f1fe170283501464736f6c63430008000033",
  "immutableReferences": {
    "1876": [
      {
        "length": 32,
        "start": 6361
      }
    ],
    "2395": [
      {
        "length": 32,
        "start": 1982
      },
      {
        "length": 32,
        "start": 8689
      },
      {
        "length": 32,
        "start": 9557
      }
    ]
  },
  "source": "pragma solidity ^0.8.0;\r\n\r\nimport \"./base/ERC20ProofOfStake.sol\";\r\n\r\ncontract GoldOracleToken is ERC20ProofOfStake {\r\n    uint256 private constant MIN_STAKED_AMOUNT_REQUIRED_FOR_VALIDATION =\r\n        20000 * 10**18;\r\n    uint256 private constant REWARD_AMOUNT_IN_TOKENS_AFTER_EACH_ERA =\r\n        1000 * 10**18;\r\n    address private _owner;\r\n\r\n    constructor()\r\n        ERC20ProofOfStake(\r\n            \"GoldOracleToken\",\r\n            \"GOT\",\r\n            MIN_STAKED_AMOUNT_REQUIRED_FOR_VALIDATION,\r\n            REWARD_AMOUNT_IN_TOKENS_AFTER_EACH_ERA\r\n        )\r\n    {\r\n        _owner = msg.sender;\r\n        _mint(msg.sender, MIN_STAKED_AMOUNT_REQUIRED_FOR_VALIDATION * 10); // for testing\r\n    }\r\n\r\n    function getOwnerAddress() public view returns (address) {\r\n        return _owner;\r\n    }\r\n}\r\n",
  "sourcePath": "D:\\Documents\\Dev\\Repositories\\gold-price-oracle\\gold-price-oracle\\on-chain\\contracts\\token\\GoldOracleToken.sol",
  "compiler": {
    "name": "solc",
    "version": "0.8.0+commit.c7dfd78e.Emscripten.clang"
  },
  "schemaVersion": "3.4.3",
  "updatedAt": "2022-03-11T08:33:35.889Z",
  "devdoc": {
    "kind": "dev",
    "methods": {
      "allowance(address,address)": {
        "details": "See {IERC20-allowance}."
      },
      "approve(address,uint256)": {
        "details": "See {IERC20-approve}. NOTE: If `amount` is the maximum `uint256`, the allowance is not updated on `transferFrom`. This is semantically equivalent to an infinite approval. Requirements: - `spender` cannot be the zero address."
      },
      "balanceOf(address)": {
        "details": "See {IERC20-balanceOf}."
      },
      "decimals()": {
        "details": "Returns the number of decimals used to get its user representation. For example, if `decimals` equals `2`, a balance of `505` tokens should be displayed to a user as `5.05` (`505 / 10 ** 2`). Tokens usually opt for a value of 18, imitating the relationship between Ether and Wei. This is the value {ERC20} uses, unless this function is overridden; NOTE: This information is only used for _display_ purposes: it in no way affects any of the arithmetic of the contract, including {IERC20-balanceOf} and {IERC20-transfer}."
      },
      "decreaseAllowance(address,uint256)": {
        "details": "Atomically decreases the allowance granted to `spender` by the caller. This is an alternative to {approve} that can be used as a mitigation for problems described in {IERC20-approve}. Emits an {Approval} event indicating the updated allowance. Requirements: - `spender` cannot be the zero address. - `spender` must have allowance for the caller of at least `subtractedValue`."
      },
      "increaseAllowance(address,uint256)": {
        "details": "Atomically increases the allowance granted to `spender` by the caller. This is an alternative to {approve} that can be used as a mitigation for problems described in {IERC20-approve}. Emits an {Approval} event indicating the updated allowance. Requirements: - `spender` cannot be the zero address."
      },
      "name()": {
        "details": "Returns the name of the token."
      },
      "symbol()": {
        "details": "Returns the symbol of the token, usually a shorter version of the name."
      },
      "totalSupply()": {
        "details": "See {IERC20-totalSupply}."
      },
      "transfer(address,uint256)": {
        "details": "See {IERC20-transfer}. Requirements: - `to` cannot be the zero address. - the caller must have a balance of at least `amount`."
      },
      "transferFrom(address,address,uint256)": {
        "details": "See {IERC20-transferFrom}. Emits an {Approval} event indicating the updated allowance. This is not required by the EIP. See the note at the beginning of {ERC20}. NOTE: Does not update the allowance if the current allowance is the maximum `uint256`. Requirements: - `from` and `to` cannot be the zero address. - `from` must have a balance of at least `amount`. - the caller must have allowance for ``from``'s tokens of at least `amount`."
      }
    },
    "version": 1
  },
  "userdoc": {
    "kind": "user",
    "methods": {},
    "version": 1
  }
}