{
  "contractName": "GoldPriceAggregator",
  "abi": [
    {
      "inputs": [
        {
          "internalType": "address",
          "name": "baseResolverAddress",
          "type": "address"
        }
      ],
      "stateMutability": "nonpayable",
      "type": "constructor"
    },
    {
      "inputs": [],
      "name": "getPrice",
      "outputs": [
        {
          "internalType": "uint256",
          "name": "price",
          "type": "uint256"
        },
        {
          "internalType": "string",
          "name": "assetCode",
          "type": "string"
        },
        {
          "internalType": "string",
          "name": "currencyCode",
          "type": "string"
        }
      ],
      "stateMutability": "view",
      "type": "function"
    }
  ],
  "bytecode": "0x608060405234801561001057600080fd5b506040516106a63803806106a68339818101604052810190610032919061008d565b806000806101000a81548173ffffffffffffffffffffffffffffffffffffffff021916908373ffffffffffffffffffffffffffffffffffffffff160217905550506100ff565b600081519050610087816100e8565b92915050565b60006020828403121561009f57600080fd5b60006100ad84828501610078565b91505092915050565b60006100c1826100c8565b9050919050565b600073ffffffffffffffffffffffffffffffffffffffff82169050919050565b6100f1816100b6565b81146100fc57600080fd5b50565b6105988061010e6000396000f3fe608060405234801561001057600080fd5b506004361061002b5760003560e01c806398d5fdca14610030575b600080fd5b610038610050565b6040516100479392919061037f565b60405180910390f35b600060608060008060009054906101000a900473ffffffffffffffffffffffffffffffffffffffff1673ffffffffffffffffffffffffffffffffffffffff1663888a9fba6040518163ffffffff1660e01b815260040160006040518083038186803b1580156100be57600080fd5b505afa1580156100d2573d6000803e3d6000fd5b505050506040513d6000823e3d601f19601f820116820180604052508101906100fb91906102f6565b9050806060015181608001518260a0015193509350935050909192565b600061012b610126846103f5565b6103c4565b90508281526020810184848401111561014357600080fd5b61014e848285610493565b509392505050565b60008151905061016581610506565b92915050565b60008151905061017a8161051d565b92915050565b60008151905061018f81610534565b92915050565b600082601f8301126101a657600080fd5b81516101b6848260208601610118565b91505092915050565b600061014082840312156101d257600080fd5b6101dd6101406103c4565b905060006101ed84828501610180565b6000830152506020610201848285016102e1565b602083015250604061021584828501610156565b6040830152506060610229848285016102e1565b606083015250608082015167ffffffffffffffff81111561024957600080fd5b61025584828501610195565b60808301525060a082015167ffffffffffffffff81111561027557600080fd5b61028184828501610195565b60a08301525060c0610295848285016102e1565b60c08301525060e06102a98482850161016b565b60e0830152506101006102be848285016102e1565b610100830152506101206102d4848285016102e1565b6101208301525092915050565b6000815190506102f08161054b565b92915050565b60006020828403121561030857600080fd5b600082015167ffffffffffffffff81111561032257600080fd5b61032e848285016101bf565b91505092915050565b600061034282610425565b61034c8185610430565b935061035c818560208601610493565b610365816104f5565b840191505092915050565b61037981610489565b82525050565b60006060820190506103946000830186610370565b81810360208301526103a68185610337565b905081810360408301526103ba8184610337565b9050949350505050565b6000604051905081810181811067ffffffffffffffff821117156103eb576103ea6104c6565b5b8060405250919050565b600067ffffffffffffffff8211156104105761040f6104c6565b5b601f19601f8301169050602081019050919050565b600081519050919050565b600082825260208201905092915050565b600061044c82610469565b9050919050565b60008115159050919050565b6000819050919050565b600073ffffffffffffffffffffffffffffffffffffffff82169050919050565b6000819050919050565b60005b838110156104b1578082015181840152602081019050610496565b838111156104c0576000848401525b50505050565b7f4e487b7100000000000000000000000000000000000000000000000000000000600052604160045260246000fd5b6000601f19601f8301169050919050565b61050f81610441565b811461051a57600080fd5b50565b61052681610453565b811461053157600080fd5b50565b61053d8161045f565b811461054857600080fd5b50565b61055481610489565b811461055f57600080fd5b5056fea2646970667358221220c004bb7125d199f86fb34cfb403fa62fa253a8bdc3128d82112f1d9dd1398c7364736f6c63430008000033",
  "immutableReferences": {},
  "source": "pragma solidity ^0.8.0;\r\n\r\nimport \"../Interfaces/IAggregator.sol\";\r\nimport \"../resolvers/interfaces/IBaseResolver.sol\";\r\nimport \"../utils/Rounds.sol\";\r\n\r\ncontract GoldPriceAggregator is IAggregator {\r\n    IBaseResolver _baseResolver;\r\n\r\n    //address must be the address of GoldPriceResolver\r\n\r\n    constructor(address baseResolverAddress) {\r\n        _baseResolver = IBaseResolver(baseResolverAddress);\r\n    }\r\n\r\n    function getPrice()\r\n        external\r\n        view\r\n        override\r\n        returns (\r\n            uint256 price,\r\n            string memory assetCode,\r\n            string memory currencyCode\r\n        )\r\n    {\r\n        Rounds.Round memory lastRound = _baseResolver.getLatestValidData();\r\n        return (lastRound.price, lastRound.assetCode, lastRound.currencyCode);\r\n    }\r\n}\r\n",
  "sourcePath": "D:\\Documents\\Dev\\Repositories\\gold-price-oracle\\gold-price-oracle\\on-chain\\contracts\\oracle\\aggregators\\GoldPriceAggregator.sol",
  "compiler": {
    "name": "solc",
    "version": "0.8.0+commit.c7dfd78e.Emscripten.clang"
  },
  "schemaVersion": "3.4.3",
  "updatedAt": "2022-05-23T23:43:41.182Z",
  "devdoc": {
    "kind": "dev",
    "methods": {},
    "version": 1
  },
  "userdoc": {
    "kind": "user",
    "methods": {},
    "version": 1
  }
}