{
  "contractName": "GoldPriceResolver",
  "abi": [
    {
      "inputs": [],
      "stateMutability": "nonpayable",
      "type": "constructor"
    },
    {
      "anonymous": false,
      "inputs": [
        {
          "indexed": false,
          "internalType": "string",
          "name": "assetSymbol",
          "type": "string"
        },
        {
          "indexed": false,
          "internalType": "string",
          "name": "currencySymbol",
          "type": "string"
        },
        {
          "indexed": false,
          "internalType": "bytes32",
          "name": "roundId",
          "type": "bytes32"
        },
        {
          "indexed": false,
          "internalType": "address",
          "name": "proposalEmiterAddress",
          "type": "address"
        },
        {
          "indexed": false,
          "internalType": "uint256",
          "name": "price",
          "type": "uint256"
        }
      ],
      "name": "NewPriceVote",
      "type": "event"
    },
    {
      "inputs": [
        {
          "internalType": "address",
          "name": "nodeAddress_",
          "type": "address"
        },
        {
          "internalType": "uint256",
          "name": "price_",
          "type": "uint256"
        }
      ],
      "name": "startNewPriceRound",
      "outputs": [],
      "stateMutability": "nonpayable",
      "type": "function"
    },
    {
      "inputs": [
        {
          "internalType": "bytes32",
          "name": "roundId_",
          "type": "bytes32"
        },
        {
          "internalType": "uint256",
          "name": "price_",
          "type": "uint256"
        }
      ],
      "name": "votePriceForRound",
      "outputs": [],
      "stateMutability": "nonpayable",
      "type": "function"
    },
    {
      "inputs": [],
      "name": "getLatestValidData",
      "outputs": [
        {
          "components": [
            {
              "internalType": "bytes32",
              "name": "roundId",
              "type": "bytes32"
            },
            {
              "internalType": "uint256",
              "name": "nonce",
              "type": "uint256"
            },
            {
              "internalType": "address",
              "name": "node",
              "type": "address"
            },
            {
              "internalType": "uint256",
              "name": "price",
              "type": "uint256"
            },
            {
              "internalType": "string",
              "name": "assetCode",
              "type": "string"
            },
            {
              "internalType": "string",
              "name": "currencyCode",
              "type": "string"
            },
            {
              "internalType": "uint256",
              "name": "requiredQuorum",
              "type": "uint256"
            },
            {
              "internalType": "bool",
              "name": "isQuorumReached",
              "type": "bool"
            },
            {
              "internalType": "uint256",
              "name": "acceptVotes",
              "type": "uint256"
            },
            {
              "internalType": "uint256",
              "name": "refuseVotes",
              "type": "uint256"
            }
          ],
          "internalType": "struct Rounds.Round",
          "name": "round",
          "type": "tuple"
        }
      ],
      "stateMutability": "view",
      "type": "function"
    }
  ],
  "bytecode": "0x60806040526004600355735b38da6a701c568545dcfcb03fcb875f56beddc4600460006101000a81548173ffffffffffffffffffffffffffffffffffffffff021916908373ffffffffffffffffffffffffffffffffffffffff1602179055503480156200006b57600080fd5b506000806040516020016200008191906200038c565b604051602081830303815290604052805190602001209050600060405180610140016040528083815260200160008152602001600073ffffffffffffffffffffffffffffffffffffffff168152602001600081526020016040518060400160405280600381526020017f585541000000000000000000000000000000000000000000000000000000000081525081526020016040518060400160405280600481526020017f555344540000000000000000000000000000000000000000000000000000000081525081526020016000815260200160001515815260200160008152602001600081525090806001815401808255809150506001900390600052602060002090600a0201600090919091909150600082015181600001556020820151816001015560408201518160020160006101000a81548173ffffffffffffffffffffffffffffffffffffffff021916908373ffffffffffffffffffffffffffffffffffffffff160217905550606082015181600301556080820151816004019080519060200190620002169291906200027f565b5060a0820151816005019080519060200190620002359291906200027f565b5060c0820151816006015560e08201518160070160006101000a81548160ff021916908315150217905550610100820151816008015561012082015181600901555050506200049c565b8280546200028d9062000402565b90600052602060002090601f016020900481019282620002b15760008555620002fd565b82601f10620002cc57805160ff1916838001178555620002fd565b82800160010185558215620002fd579182015b82811115620002fc578251825591602001919060010190620002df565b5b5090506200030c919062000310565b5090565b5b808211156200032b57600081600090555060010162000311565b5090565b620003446200033e82620003ce565b62000438565b82525050565b600062000359600183620003c3565b91507f30000000000000000000000000000000000000000000000000000000000000006000830152600182019050919050565b60006200039a82846200032f565b601482019150620003ab826200034a565b9150620003b8826200034a565b915081905092915050565b600081905092915050565b6000620003db82620003e2565b9050919050565b600073ffffffffffffffffffffffffffffffffffffffff82169050919050565b600060028204905060018216806200041b57607f821691505b6020821081141562000432576200043162000460565b5b50919050565b600062000445826200044c565b9050919050565b600062000459826200048f565b9050919050565b7f4e487b7100000000000000000000000000000000000000000000000000000000600052602260045260246000fd5b60008160601b9050919050565b611f3480620004ac6000396000f3fe608060405234801561001057600080fd5b50600436106100415760003560e01c806387db480a14610046578063888a9fba14610062578063edf1aa7b14610080575b600080fd5b610060600480360381019061005b9190611585565b61009c565b005b61006a610359565b6040516100779190611b9e565b60405180910390f35b61009a60048036038101906100959190611549565b610886565b005b600033905060006100ac84610d93565b905060008082815481106100e9577f4e487b7100000000000000000000000000000000000000000000000000000000600052603260045260246000fd5b90600052602060002090600a02019050600061010586856110c0565b90508160070160009054906101000a900460ff1615610159576040517f08c379a000000000000000000000000000000000000000000000000000000000815260040161015090611b3e565b60405180910390fd5b600073ffffffffffffffffffffffffffffffffffffffff166002600083815260200190815260200160002060000160009054906101000a900473ffffffffffffffffffffffffffffffffffffffff1673ffffffffffffffffffffffffffffffffffffffff16146101fe576040517f08c379a00000000000000000000000000000000000000000000000000000000081526004016101f590611b1e565b60405180910390fd5b600061020e8360030154876110f8565b90506000600382109050801561023d5783600801600081548092919061023390611d8d565b9190505550610258565b83600901600081548092919061025290611d8d565b91905055505b60405180608001604052808773ffffffffffffffffffffffffffffffffffffffff1681526020018881526020018215158152602001838152506002600085815260200190815260200160002060008201518160000160006101000a81548173ffffffffffffffffffffffffffffffffffffffff021916908373ffffffffffffffffffffffffffffffffffffffff1602179055506020820151816001015560408201518160020160006101000a81548160ff02191690831515021790555060608201518160030155905050836006015484600801541061034f5760018460070160006101000a81548160ff0219169083151502179055505b5050505050505050565b6103616113f9565b60008080549050905060018111156108815760006001826103829190611c78565b905060008082815481106103bf577f4e487b7100000000000000000000000000000000000000000000000000000000600052603260045260246000fd5b90600052602060002090600a02016040518061014001604052908160008201548152602001600182015481526020016002820160009054906101000a900473ffffffffffffffffffffffffffffffffffffffff1673ffffffffffffffffffffffffffffffffffffffff1673ffffffffffffffffffffffffffffffffffffffff1681526020016003820154815260200160048201805461045d90611d5b565b80601f016020809104026020016040519081016040528092919081815260200182805461048990611d5b565b80156104d65780601f106104ab576101008083540402835291602001916104d6565b820191906000526020600020905b8154815290600101906020018083116104b957829003601f168201915b505050505081526020016005820180546104ef90611d5b565b80601f016020809104026020016040519081016040528092919081815260200182805461051b90611d5b565b80156105685780601f1061053d57610100808354040283529160200191610568565b820191906000526020600020905b81548152906001019060200180831161054b57829003601f168201915b50505050508152602001600682015481526020016007820160009054906101000a900460ff161515151581526020016008820154815260200160098201548152505090508060e00151156105c157809350505050610883565b60006001836105d09190611c78565b90505b600081101561087d5760008181548110610616577f4e487b7100000000000000000000000000000000000000000000000000000000600052603260045260246000fd5b90600052602060002090600a020160070160009054906101000a900460ff161561086a5760008181548110610674577f4e487b7100000000000000000000000000000000000000000000000000000000600052603260045260246000fd5b90600052602060002090600a02016040518061014001604052908160008201548152602001600182015481526020016002820160009054906101000a900473ffffffffffffffffffffffffffffffffffffffff1673ffffffffffffffffffffffffffffffffffffffff1673ffffffffffffffffffffffffffffffffffffffff1681526020016003820154815260200160048201805461071290611d5b565b80601f016020809104026020016040519081016040528092919081815260200182805461073e90611d5b565b801561078b5780601f106107605761010080835404028352916020019161078b565b820191906000526020600020905b81548152906001019060200180831161076e57829003601f168201915b505050505081526020016005820180546107a490611d5b565b80601f01602080910402602001604051908101604052809291908181526020018280546107d090611d5b565b801561081d5780601f106107f25761010080835404028352916020019161081d565b820191906000526020600020905b81548152906001019060200180831161080057829003601f168201915b50505050508152602001600682015481526020016007820160009054906101000a900460ff1615151515815260200160088201548152602001600982015481525050945050505050610883565b808061087590611d31565b9150506105d3565b5050505b505b90565b600073ffffffffffffffffffffffffffffffffffffffff168273ffffffffffffffffffffffffffffffffffffffff1614156108f6576040517f08c379a00000000000000000000000000000000000000000000000000000000081526004016108ed90611afe565b60405180910390fd5b600460009054906101000a900473ffffffffffffffffffffffffffffffffffffffff1673ffffffffffffffffffffffffffffffffffffffff168273ffffffffffffffffffffffffffffffffffffffff1614610986576040517f08c379a000000000000000000000000000000000000000000000000000000000815260040161097d90611b5e565b60405180910390fd5b600080610991611164565b905060008160200151146109a757806020015191505b81806109b290611d8d565b92505060006109bf6113bc565b905060006040518061014001604052808786886040516020016109e4939291906119f4565b6040516020818303038152906040528051906020012081526020018581526020018773ffffffffffffffffffffffffffffffffffffffff1681526020018681526020016040518060400160405280600381526020017f585541000000000000000000000000000000000000000000000000000000000081525081526020016040518060400160405280600481526020017f55534454000000000000000000000000000000000000000000000000000000008152508152602001838152602001836001101515158152602001600181526020016000815250905060008190806001815401808255809150506001900390600052602060002090600a0201600090919091909150600082015181600001556020820151816001015560408201518160020160006101000a81548173ffffffffffffffffffffffffffffffffffffffff021916908373ffffffffffffffffffffffffffffffffffffffff160217905550606082015181600301556080820151816004019080519060200190610b6a929190611467565b5060a0820151816005019080519060200190610b87929190611467565b5060c0820151816006015560e08201518160070160006101000a81548160ff0219169083151502179055506101008201518160080155610120820151816009015550506001600080549050610bdc9190611c78565b6001600083600001518152602001908152602001600020819055507f78f6908c0a8d2c9158f488b36cdaca399ee238cd3cfc479e8db761f1aa9076516040518060400160405280600381526020017f58554100000000000000000000000000000000000000000000000000000000008152506040518060400160405280600481526020017f5553445400000000000000000000000000000000000000000000000000000000815250836000015184604001518560600151604051610ca4959493929190611a5d565b60405180910390a16000610cbc8260000151886110c0565b905060405180608001604052808873ffffffffffffffffffffffffffffffffffffffff16815260200187815260200160011515815260200160008152506002600083815260200190815260200160002060008201518160000160006101000a81548173ffffffffffffffffffffffffffffffffffffffff021916908373ffffffffffffffffffffffffffffffffffffffff1602179055506020820151816001015560408201518160020160006101000a81548160ff0219169083151502179055506060820151816003015590505050505050505050565b600080600160008481526020019081526020016000205490506000811415610df0576040517f08c379a0000000000000000000000000000000000000000000000000000000008152600401610de790611b7e565b60405180910390fd5b6000808281548110610e2b577f4e487b7100000000000000000000000000000000000000000000000000000000600052603260045260246000fd5b90600052602060002090600a02016040518061014001604052908160008201548152602001600182015481526020016002820160009054906101000a900473ffffffffffffffffffffffffffffffffffffffff1673ffffffffffffffffffffffffffffffffffffffff1673ffffffffffffffffffffffffffffffffffffffff16815260200160038201548152602001600482018054610ec990611d5b565b80601f0160208091040260200160405190810160405280929190818152602001828054610ef590611d5b565b8015610f425780601f10610f1757610100808354040283529160200191610f42565b820191906000526020600020905b815481529060010190602001808311610f2557829003601f168201915b50505050508152602001600582018054610f5b90611d5b565b80601f0160208091040260200160405190810160405280929190818152602001828054610f8790611d5b565b8015610fd45780601f10610fa957610100808354040283529160200191610fd4565b820191906000526020600020905b815481529060010190602001808311610fb757829003601f168201915b50505050508152602001600682015481526020016007820160009054906101000a900460ff161515151581526020016008820154815260200160098201548152505090506000611022611164565b9050806000015182600001511461106e576040517f08c379a000000000000000000000000000000000000000000000000000000000815260040161106590611abe565b60405180910390fd5b60008160200151116110b5576040517f08c379a00000000000000000000000000000000000000000000000000000000081526004016110ac90611ade565b60405180910390fd5b829350505050919050565b60008083836040516020016110d6929190611a31565b6040516020818303038152906040528051906020012090508091505092915050565b600080600090508284111561111a5782846111139190611c78565b9050611129565b83836111269190611c78565b90505b600081141561113c57600091505061115e565b60008460648361114c9190611c1e565b6111569190611bed565b905080925050505b92915050565b61116c6113f9565b60008080549050905060018111156113b757600060018261118d9190611c78565b815481106111c4577f4e487b7100000000000000000000000000000000000000000000000000000000600052603260045260246000fd5b90600052602060002090600a02016040518061014001604052908160008201548152602001600182015481526020016002820160009054906101000a900473ffffffffffffffffffffffffffffffffffffffff1673ffffffffffffffffffffffffffffffffffffffff1673ffffffffffffffffffffffffffffffffffffffff1681526020016003820154815260200160048201805461126290611d5b565b80601f016020809104026020016040519081016040528092919081815260200182805461128e90611d5b565b80156112db5780601f106112b0576101008083540402835291602001916112db565b820191906000526020600020905b8154815290600101906020018083116112be57829003601f168201915b505050505081526020016005820180546112f490611d5b565b80601f016020809104026020016040519081016040528092919081815260200182805461132090611d5b565b801561136d5780601f106113425761010080835404028352916020019161136d565b820191906000526020600020905b81548152906001019060200180831161135057829003601f168201915b50505050508152602001600682015481526020016007820160009054906101000a900460ff16151515158152602001600882015481526020016009820154815250509150506113b9565b505b90565b6000600160035414156113d257600190506113f6565b6000606460336003546113e59190611c1e565b6113ef9190611bed565b9050809150505b90565b6040518061014001604052806000801916815260200160008152602001600073ffffffffffffffffffffffffffffffffffffffff1681526020016000815260200160608152602001606081526020016000815260200160001515815260200160008152602001600081525090565b82805461147390611d5b565b90600052602060002090601f01602090048101928261149557600085556114dc565b82601f106114ae57805160ff19168380011785556114dc565b828001600101855582156114dc579182015b828111156114db5782518255916020019190600101906114c0565b5b5090506114e991906114ed565b5090565b5b808211156115065760008160009055506001016114ee565b5090565b60008135905061151981611eb9565b92915050565b60008135905061152e81611ed0565b92915050565b60008135905061154381611ee7565b92915050565b6000806040838503121561155c57600080fd5b600061156a8582860161150a565b925050602061157b85828601611534565b9150509250929050565b6000806040838503121561159857600080fd5b60006115a68582860161151f565b92505060206115b785828601611534565b9150509250929050565b6115ca81611cac565b82525050565b6115d981611cac565b82525050565b6115f06115eb82611cac565b611dd6565b82525050565b6115ff81611cbe565b82525050565b61160e81611cca565b82525050565b61161d81611cca565b82525050565b61163461162f82611cca565b611de8565b82525050565b600061164582611bc0565b61164f8185611bcb565b935061165f818560208601611cfe565b61166881611e9b565b840191505092915050565b600061167e82611bc0565b6116888185611bdc565b9350611698818560208601611cfe565b6116a181611e9b565b840191505092915050565b60006116b9603b83611bdc565b91507f566f74696e6720666f72206f6c6420726f756e642e2054686520726f756e644960008301527f642062656c6f6e677320746f2070726576696f757320726f756e6400000000006020830152604082019050919050565b600061171f602e83611bdc565b91507f43616e6e6f742076616c696461746520726f756e642e204e6f20726f756e647360008301527f206172652070726573656e7465640000000000000000000000000000000000006020830152604082019050919050565b6000611785601783611bdc565b91507f4e756c6c206164647265737320697320696e76616c69640000000000000000006000830152602082019050919050565b60006117c5601583611bdc565b91507f43616c6c657220616c726561647920766f7465642100000000000000000000006000830152602082019050919050565b6000611805601d83611bdc565b91507f51756f72756d207265616368656420666f72207468617420726f756e640000006000830152602082019050919050565b6000611845602883611bdc565b91507f476976656e2061646472657373206e6f7420656c656374656420666f7220766160008301527f6c69646174696f6e0000000000000000000000000000000000000000000000006020830152604082019050919050565b60006118ab601183611bdc565b91507f496e76616c696420726f756e64206964200000000000000000000000000000006000830152602082019050919050565b6000610140830160008301516118f76000860182611605565b50602083015161190a60208601826119bf565b50604083015161191d60408601826115c1565b50606083015161193060608601826119bf565b5060808301518482036080860152611948828261163a565b91505060a083015184820360a0860152611962828261163a565b91505060c083015161197760c08601826119bf565b5060e083015161198a60e08601826115f6565b5061010083015161199f6101008601826119bf565b506101208301516119b46101208601826119bf565b508091505092915050565b6119c881611cf4565b82525050565b6119d781611cf4565b82525050565b6119ee6119e982611cf4565b611e04565b82525050565b6000611a0082866115df565b601482019150611a1082856119dd565b602082019150611a2082846119dd565b602082019150819050949350505050565b6000611a3d8285611623565b602082019150611a4d82846115df565b6014820191508190509392505050565b600060a0820190508181036000830152611a778188611673565b90508181036020830152611a8b8187611673565b9050611a9a6040830186611614565b611aa760608301856115d0565b611ab460808301846119ce565b9695505050505050565b60006020820190508181036000830152611ad7816116ac565b9050919050565b60006020820190508181036000830152611af781611712565b9050919050565b60006020820190508181036000830152611b1781611778565b9050919050565b60006020820190508181036000830152611b37816117b8565b9050919050565b60006020820190508181036000830152611b57816117f8565b9050919050565b60006020820190508181036000830152611b7781611838565b9050919050565b60006020820190508181036000830152611b978161189e565b9050919050565b60006020820190508181036000830152611bb881846118de565b905092915050565b600081519050919050565b600082825260208201905092915050565b600082825260208201905092915050565b6000611bf882611cf4565b9150611c0383611cf4565b925082611c1357611c12611e3d565b5b828204905092915050565b6000611c2982611cf4565b9150611c3483611cf4565b9250817fffffffffffffffffffffffffffffffffffffffffffffffffffffffffffffffff0483118215151615611c6d57611c6c611e0e565b5b828202905092915050565b6000611c8382611cf4565b9150611c8e83611cf4565b925082821015611ca157611ca0611e0e565b5b828203905092915050565b6000611cb782611cd4565b9050919050565b60008115159050919050565b6000819050919050565b600073ffffffffffffffffffffffffffffffffffffffff82169050919050565b6000819050919050565b60005b83811015611d1c578082015181840152602081019050611d01565b83811115611d2b576000848401525b50505050565b6000611d3c82611cf4565b91506000821415611d5057611d4f611e0e565b5b600182039050919050565b60006002820490506001821680611d7357607f821691505b60208210811415611d8757611d86611e6c565b5b50919050565b6000611d9882611cf4565b91507fffffffffffffffffffffffffffffffffffffffffffffffffffffffffffffffff821415611dcb57611dca611e0e565b5b600182019050919050565b6000611de182611df2565b9050919050565b6000819050919050565b6000611dfd82611eac565b9050919050565b6000819050919050565b7f4e487b7100000000000000000000000000000000000000000000000000000000600052601160045260246000fd5b7f4e487b7100000000000000000000000000000000000000000000000000000000600052601260045260246000fd5b7f4e487b7100000000000000000000000000000000000000000000000000000000600052602260045260246000fd5b6000601f19601f8301169050919050565b60008160601b9050919050565b611ec281611cac565b8114611ecd57600080fd5b50565b611ed981611cca565b8114611ee457600080fd5b50565b611ef081611cf4565b8114611efb57600080fd5b5056fea264697066735822122049d58ff754e894894a323cddf7dc5c5e4d02e818f3512c5c67505c2ba8699f2b64736f6c63430008000033",
  "immutableReferences": {},
  "source": "pragma solidity ^0.8.0;\r\n\r\nimport \"../utils/Rounds.sol\";\r\nimport \"../utils/Votes.sol\";\r\n\r\n//PoC. Big Refactoring will happened!\r\ncontract GoldPriceResolver {\r\n    uint256 constant MINIMUM_QUORUM_REQUURED_FOR_VALIDATION_IN_PERCENTS = 51;\r\n    uint256 constant MAXIMUM_ALLOWED_PRICE_DEVIATION_IN_PERCENTS = 3;\r\n    string constant GOLD_SYMBOL = \"XUA\"; //TODO; move to separate contract when refactor\r\n    string constant USDT_SYMBOL = \"USDT\";\r\n    Rounds.Round[] private _rounds;\r\n    mapping(bytes32 => uint256) private _roundIndexs;\r\n    mapping(bytes32 => Votes.Vote) _votes;\r\n\r\n    constructor() {\r\n        //iniatial round to take 0 index;\r\n        bytes32 defaultNullAddressRoundId = keccak256(\r\n            abi.encodePacked(address(0), \"0\", \"0\")\r\n        );\r\n        _rounds.push(\r\n            Rounds.Round({\r\n                roundId: defaultNullAddressRoundId,\r\n                nonce: 0,\r\n                node: address(0),\r\n                price: 0,\r\n                assetCode: GOLD_SYMBOL,\r\n                currencyCode: USDT_SYMBOL,\r\n                requiredQuorum: 0,\r\n                isQuorumReached: false,\r\n                acceptVotes: 0,\r\n                refuseVotes: 0\r\n            })\r\n        );\r\n    }\r\n\r\n    //TODO: this all will come form PoS. For now they are hardcoded\r\n    uint256 validatorNodesCount = 4;\r\n    address electedNodeAddress =\r\n        address(0x5B38Da6a701c568545dCfcB03FcB875f56beddC4); //TODO: this will come as a result of PoS. Hardcoded for now\r\n\r\n    event NewPriceVote(\r\n        string assetSymbol,\r\n        string currencySymbol,\r\n        bytes32 roundId,\r\n        address proposalEmiterAddress,\r\n        uint256 price\r\n    );\r\n\r\n    function startNewPriceRound(address nodeAddress_, uint256 price_) public {\r\n        //call from elected node. If not revert.\r\n        //Only elected node should be able to start new round of price change\r\n        //after the price is set need to be validated - at least 51% of active nodes must approve the value\r\n        //after the quorum is reached the value is finaly set and become valid price\r\n        //only valid (validated) prices should be return to aggregator\r\n        require(nodeAddress_ != address(0), \"Null address is invalid\");\r\n        //if check and then slash - we can perform a penalty for trying to update without permission;\r\n        //for now it will be required check\r\n        require(\r\n            nodeAddress_ == electedNodeAddress,\r\n            \"Given address not elected for validation\"\r\n        );\r\n\r\n        //default nonce is 0;\r\n        uint256 nonce = 0;\r\n\r\n        //get last valid round;\r\n\r\n        Rounds.Round memory lastRound = _getLatestRoundData();\r\n\r\n        //if there is already las\r\n        if (lastRound.nonce != 0) {\r\n            nonce = lastRound.nonce;\r\n        } // this is the initalRound;\r\n\r\n        nonce++;\r\n\r\n        uint256 requiredMinimumQuorum = _calculateMinimumNodesCountForReachingQuorum();\r\n        Rounds.Round memory round = Rounds.Round({\r\n            roundId: keccak256(abi.encodePacked(nodeAddress_, nonce, price_)),\r\n            nonce: nonce,\r\n            node: nodeAddress_,\r\n            price: price_,\r\n            assetCode: GOLD_SYMBOL,\r\n            currencyCode: USDT_SYMBOL,\r\n            requiredQuorum: requiredMinimumQuorum,\r\n            isQuorumReached: 1 >= requiredMinimumQuorum, //only in case that there is only one node!\r\n            acceptVotes: 1,\r\n            refuseVotes: 0\r\n        });\r\n\r\n        //the elected node kick off the new round\r\n        _rounds.push(round);\r\n\r\n        //add mapping for roundId and nonce for easy search on callback\r\n        _roundIndexs[round.roundId] = _rounds.length - 1;\r\n\r\n        emit NewPriceVote(\r\n            GOLD_SYMBOL,\r\n            USDT_SYMBOL,\r\n            round.roundId,\r\n            round.node,\r\n            round.price\r\n        );\r\n\r\n        bytes32 voterIdentity = _createVoterId(round.roundId, nodeAddress_);\r\n\r\n        _votes[voterIdentity] = Votes.Vote({\r\n            voter: nodeAddress_,\r\n            price: price_,\r\n            approves: true,\r\n            percentageDiff: 0\r\n        });\r\n    }\r\n\r\n    function votePriceForRound(bytes32 roundId_, uint256 price_) public {\r\n        address callerAddress = msg.sender;\r\n        //check if caller is an elected member for current era\r\n        //TODO:\r\n        //required check\r\n        //find correct round record by roundId\r\n        uint256 validRoundIndex = _tryGetValidRoundIndexByRequestedRoundId(\r\n            roundId_\r\n        );\r\n        Rounds.Round storage round = _rounds[validRoundIndex];\r\n        //unique identifier of the vode - composition key of round id and voter address\r\n        bytes32 voteIdentity = _createVoterId(roundId_, callerAddress);\r\n\r\n        require(!round.isQuorumReached, \"Quorum reached for that round\");\r\n        //if voter address != 0 then this voter already voted\r\n        require(\r\n            _votes[voteIdentity].voter == address(0),\r\n            \"Caller already voted!\"\r\n        );\r\n\r\n        //validate the presented data\r\n        uint256 percentageDiffBetweenPrices = _calculatePriceDeviation(\r\n            round.price,\r\n            price_\r\n        );\r\n\r\n        bool isApproved = percentageDiffBetweenPrices <\r\n            MAXIMUM_ALLOWED_PRICE_DEVIATION_IN_PERCENTS;\r\n        //if the difference between proposed price and the validator price is more than 3%\r\n        //the validation is not passed\r\n        if (isApproved) {\r\n            round.acceptVotes++;\r\n        } else {\r\n            //validation is passed\r\n            round.refuseVotes++;\r\n        }\r\n\r\n        //add new unique vote record\r\n        _votes[voteIdentity] = Votes.Vote({\r\n            voter: callerAddress,\r\n            price: price_,\r\n            approves: isApproved,\r\n            percentageDiff: percentageDiffBetweenPrices\r\n        });\r\n\r\n        if (round.acceptVotes >= round.requiredQuorum) {\r\n            round.isQuorumReached = true;\r\n            //finaly consensus is reached!\r\n            //this round becames the latest valid round\r\n        }\r\n        if (round.refuseVotes >= round.requiredQuorum) {\r\n            //TODO: the proposition is refuced byt 51%.\r\n            //new round should be created with new proposal node!\r\n            //the proposal node that proposed refuced by 51% value should be punished\r\n            //\r\n        }\r\n    }\r\n\r\n    //valid round is considered every round with reached Quorum\r\n    function getLatestValidData()\r\n        public\r\n        view\r\n        returns (Rounds.Round memory round)\r\n    {\r\n        uint256 roundsLenght = _rounds.length;\r\n        if (roundsLenght > 1) {\r\n            uint256 lastRoundIndex = roundsLenght - 1;\r\n            Rounds.Round memory lastRound = _rounds[lastRoundIndex];\r\n            if (lastRound.isQuorumReached) {\r\n                return lastRound;\r\n            }\r\n\r\n            for (uint256 i = lastRoundIndex - 1; i < 0; i--) {\r\n                if (_rounds[i].isQuorumReached) {\r\n                    return _rounds[i];\r\n                }\r\n            }\r\n        }\r\n    }\r\n\r\n    function _calculateMinimumNodesCountForReachingQuorum()\r\n        private\r\n        view\r\n        returns (uint256)\r\n    {\r\n        //TODO get from PoSS\r\n        if (validatorNodesCount == 1) {\r\n            return 1;\r\n        }\r\n\r\n        uint256 nodesRequiredForQuorum = (validatorNodesCount *\r\n            MINIMUM_QUORUM_REQUURED_FOR_VALIDATION_IN_PERCENTS) / 100;\r\n\r\n        return nodesRequiredForQuorum;\r\n    }\r\n\r\n    //valid round is considered every round\r\n\r\n    //performing calculation to find the absolute difference between sugested node and the other validators nodes prices\r\n    //if deviation bigger than 3% is found the proposition is declined by caller validator\r\n    //if deviation is less than 3% the proposition is accepted\r\n    function _calculatePriceDeviation(\r\n        uint256 suggestedPrice_,\r\n        uint256 referentPrice_\r\n    ) internal pure returns (uint256) {\r\n        uint256 priceDifferenceAbs = 0;\r\n\r\n        if (suggestedPrice_ > referentPrice_) {\r\n            priceDifferenceAbs = suggestedPrice_ - referentPrice_;\r\n        } else {\r\n            priceDifferenceAbs = referentPrice_ - suggestedPrice_;\r\n        }\r\n        if (priceDifferenceAbs == 0) {\r\n            return 0;\r\n        }\r\n\r\n        uint256 percentageDiff = (priceDifferenceAbs * 100) / suggestedPrice_;\r\n\r\n        return percentageDiff;\r\n    }\r\n\r\n    function _tryGetValidRoundIndexByRequestedRoundId(bytes32 roundId_)\r\n        internal\r\n        view\r\n        returns (uint256 index)\r\n    {\r\n        //get round index by roundId\r\n        uint256 roundIndex = _roundIndexs[roundId_];\r\n        //if no roundId exist revert\r\n        require(roundIndex != 0, \"Invalid round id \");\r\n        //get round to validate by round Index\r\n        Rounds.Round memory roundByIndex = _rounds[roundIndex];\r\n        //get last round that should be the current that needs to be validated\r\n        Rounds.Round memory lastRound = _getLatestRoundData();\r\n        //check if requested round is actially the last one that needs to be validated\r\n        require(\r\n            roundByIndex.roundId == lastRound.roundId,\r\n            \"Voting for old round. The roundId belongs to previous round\"\r\n        );\r\n        require(\r\n            lastRound.nonce > 0,\r\n            \"Cannot validate round. No rounds are presented\"\r\n        );\r\n        //return pointer to the last round\r\n        return roundIndex;\r\n    }\r\n\r\n    function _getLatestRoundData()\r\n        internal\r\n        view\r\n        returns (Rounds.Round memory round)\r\n    {\r\n        uint256 roundsLenght = _rounds.length;\r\n        if (roundsLenght > 1) {\r\n            return _rounds[roundsLenght - 1];\r\n        }\r\n    }\r\n\r\n    function _createVoterId(bytes32 roundId_, address callerAddress)\r\n        private\r\n        pure\r\n        returns (bytes32)\r\n    {\r\n        bytes32 voteIdentity = keccak256(\r\n            abi.encodePacked(roundId_, callerAddress)\r\n        );\r\n        return voteIdentity;\r\n    }\r\n}\r\n",
  "sourcePath": "D:\\Documents\\Dev\\Repositories\\gold-price-oracle\\gold-price-oracle\\on-chain\\contracts\\oracle\\resolvers\\GoldPriceResolver.sol",
  "compiler": {
    "name": "solc",
    "version": "0.8.0+commit.c7dfd78e.Emscripten.clang"
  },
  "schemaVersion": "3.4.3",
  "updatedAt": "2022-02-25T13:47:17.980Z",
  "devdoc": {
    "kind": "dev",
    "methods": {},
    "version": 1
  },
  "userdoc": {
    "kind": "user",
    "methods": {},
    "version": 1
  }
}