{
  "contractName": "GoldPriceResolver",
  "abi": [
    {
      "inputs": [],
      "stateMutability": "nonpayable",
      "type": "constructor"
    },
    {
      "anonymous": false,
      "inputs": [
        {
          "indexed": false,
          "internalType": "string",
          "name": "assetSymbol",
          "type": "string"
        },
        {
          "indexed": false,
          "internalType": "string",
          "name": "currencySymbol",
          "type": "string"
        },
        {
          "indexed": false,
          "internalType": "bytes32",
          "name": "roundId",
          "type": "bytes32"
        },
        {
          "indexed": false,
          "internalType": "address",
          "name": "proposalEmiterAddress",
          "type": "address"
        },
        {
          "indexed": false,
          "internalType": "uint256",
          "name": "price",
          "type": "uint256"
        }
      ],
      "name": "NewPriceVote",
      "type": "event"
    },
    {
      "inputs": [
        {
          "internalType": "address",
          "name": "nodeAddress_",
          "type": "address"
        },
        {
          "internalType": "uint256",
          "name": "price_",
          "type": "uint256"
        }
      ],
      "name": "startNewPriceRound",
      "outputs": [],
      "stateMutability": "nonpayable",
      "type": "function"
    },
    {
      "inputs": [
        {
          "internalType": "bytes32",
          "name": "roundId_",
          "type": "bytes32"
        },
        {
          "internalType": "uint256",
          "name": "price_",
          "type": "uint256"
        }
      ],
      "name": "votePriceForRound",
      "outputs": [],
      "stateMutability": "nonpayable",
      "type": "function"
    },
    {
      "inputs": [],
      "name": "getLatestRoundData",
      "outputs": [
        {
          "components": [
            {
              "internalType": "bytes32",
              "name": "roundId",
              "type": "bytes32"
            },
            {
              "internalType": "uint256",
              "name": "nonce",
              "type": "uint256"
            },
            {
              "internalType": "address",
              "name": "node",
              "type": "address"
            },
            {
              "internalType": "uint256",
              "name": "price",
              "type": "uint256"
            },
            {
              "internalType": "string",
              "name": "assetCode",
              "type": "string"
            },
            {
              "internalType": "string",
              "name": "currencyCode",
              "type": "string"
            },
            {
              "internalType": "uint256",
              "name": "requiredQuorum",
              "type": "uint256"
            },
            {
              "internalType": "bool",
              "name": "isQuorumReached",
              "type": "bool"
            }
          ],
          "internalType": "struct Rounds.Round",
          "name": "round",
          "type": "tuple"
        }
      ],
      "stateMutability": "view",
      "type": "function"
    },
    {
      "inputs": [],
      "name": "getLatestValidData",
      "outputs": [
        {
          "components": [
            {
              "internalType": "bytes32",
              "name": "roundId",
              "type": "bytes32"
            },
            {
              "internalType": "uint256",
              "name": "nonce",
              "type": "uint256"
            },
            {
              "internalType": "address",
              "name": "node",
              "type": "address"
            },
            {
              "internalType": "uint256",
              "name": "price",
              "type": "uint256"
            },
            {
              "internalType": "string",
              "name": "assetCode",
              "type": "string"
            },
            {
              "internalType": "string",
              "name": "currencyCode",
              "type": "string"
            },
            {
              "internalType": "uint256",
              "name": "requiredQuorum",
              "type": "uint256"
            },
            {
              "internalType": "bool",
              "name": "isQuorumReached",
              "type": "bool"
            }
          ],
          "internalType": "struct Rounds.Round",
          "name": "round",
          "type": "tuple"
        }
      ],
      "stateMutability": "view",
      "type": "function"
    },
    {
      "inputs": [
        {
          "internalType": "uint256",
          "name": "suggestedPrice_",
          "type": "uint256"
        },
        {
          "internalType": "uint256",
          "name": "referentPrice_",
          "type": "uint256"
        }
      ],
      "name": "calculatePriceDeviation",
      "outputs": [
        {
          "internalType": "uint256",
          "name": "",
          "type": "uint256"
        }
      ],
      "stateMutability": "pure",
      "type": "function"
    }
  ],
  "bytecode": "0x60806040526001600255735b38da6a701c568545dcfcb03fcb875f56beddc4600360006101000a81548173ffffffffffffffffffffffffffffffffffffffff021916908373ffffffffffffffffffffffffffffffffffffffff16021790555034801561006a57600080fd5b506118c28061007a6000396000f3fe608060405234801561001057600080fd5b50600436106100575760003560e01c80632daae2f31461005c57806387db480a1461007a578063888a9fba14610096578063edf1aa7b146100b4578063fb540f24146100d0575b600080fd5b610064610100565b604051610071919061151b565b60405180910390f35b610094600480360381019061008f9190610ff3565b610343565b005b61009e61037d565b6040516100ab919061151b565b60405180910390f35b6100ce60048036038101906100c99190610fb7565b610881565b005b6100ea60048036038101906100e5919061102f565b610c7d565b6040516100f7919061153d565b60405180910390f35b610108610e75565b6000808054905090506000811461033e5760006001826101289190611610565b8154811061015f577f4e487b7100000000000000000000000000000000000000000000000000000000600052603260045260246000fd5b90600052602060002090600802016040518061010001604052908160008201548152602001600182015481526020016002820160009054906101000a900473ffffffffffffffffffffffffffffffffffffffff1673ffffffffffffffffffffffffffffffffffffffff1673ffffffffffffffffffffffffffffffffffffffff168152602001600382015481526020016004820180546101fd906116f3565b80601f0160208091040260200160405190810160405280929190818152602001828054610229906116f3565b80156102765780601f1061024b57610100808354040283529160200191610276565b820191906000526020600020905b81548152906001019060200180831161025957829003601f168201915b5050505050815260200160058201805461028f906116f3565b80601f01602080910402602001604051908101604052809291908181526020018280546102bb906116f3565b80156103085780601f106102dd57610100808354040283529160200191610308565b820191906000526020600020905b8154815290600101906020018083116102eb57829003601f168201915b50505050508152602001600682015481526020016007820160009054906101000a900460ff161515151581525050915050610340565b505b90565b6000339050600061035384610ce9565b90506000610365826003015485610c7d565b9050600381111561037557610376565b5b5050505050565b610385610e75565b6000808054905090506000811461087c5760006001826103a59190611610565b905060008082815481106103e2577f4e487b7100000000000000000000000000000000000000000000000000000000600052603260045260246000fd5b90600052602060002090600802016040518061010001604052908160008201548152602001600182015481526020016002820160009054906101000a900473ffffffffffffffffffffffffffffffffffffffff1673ffffffffffffffffffffffffffffffffffffffff1673ffffffffffffffffffffffffffffffffffffffff16815260200160038201548152602001600482018054610480906116f3565b80601f01602080910402602001604051908101604052809291908181526020018280546104ac906116f3565b80156104f95780601f106104ce576101008083540402835291602001916104f9565b820191906000526020600020905b8154815290600101906020018083116104dc57829003601f168201915b50505050508152602001600582018054610512906116f3565b80601f016020809104026020016040519081016040528092919081815260200182805461053e906116f3565b801561058b5780601f106105605761010080835404028352916020019161058b565b820191906000526020600020905b81548152906001019060200180831161056e57829003601f168201915b50505050508152602001600682015481526020016007820160009054906101000a900460ff16151515158152505090508360e00151156105d05780935050505061087e565b60006001836105df9190611610565b90505b60008110156108785760008181548110610625577f4e487b7100000000000000000000000000000000000000000000000000000000600052603260045260246000fd5b906000526020600020906008020160070160009054906101000a900460ff16156108655760008181548110610683577f4e487b7100000000000000000000000000000000000000000000000000000000600052603260045260246000fd5b90600052602060002090600802016040518061010001604052908160008201548152602001600182015481526020016002820160009054906101000a900473ffffffffffffffffffffffffffffffffffffffff1673ffffffffffffffffffffffffffffffffffffffff1673ffffffffffffffffffffffffffffffffffffffff16815260200160038201548152602001600482018054610721906116f3565b80601f016020809104026020016040519081016040528092919081815260200182805461074d906116f3565b801561079a5780601f1061076f5761010080835404028352916020019161079a565b820191906000526020600020905b81548152906001019060200180831161077d57829003601f168201915b505050505081526020016005820180546107b3906116f3565b80601f01602080910402602001604051908101604052809291908181526020018280546107df906116f3565b801561082c5780601f106108015761010080835404028352916020019161082c565b820191906000526020600020905b81548152906001019060200180831161080f57829003601f168201915b50505050508152602001600682015481526020016007820160009054906101000a900460ff16151515158152505094505050505061087e565b8080610870906116c9565b9150506105e2565b5050505b505b90565b600073ffffffffffffffffffffffffffffffffffffffff168273ffffffffffffffffffffffffffffffffffffffff1614156108f1576040517f08c379a00000000000000000000000000000000000000000000000000000000081526004016108e8906114bb565b60405180910390fd5b600360009054906101000a900473ffffffffffffffffffffffffffffffffffffffff1673ffffffffffffffffffffffffffffffffffffffff168273ffffffffffffffffffffffffffffffffffffffff1614610981576040517f08c379a0000000000000000000000000000000000000000000000000000000008152600401610978906114db565b60405180910390fd5b60008061098c610100565b905060008160200151146109a257806020015191505b81806109ad90611725565b92505060006040518061010001604052808685876040516020016109d3939291906113dd565b6040516020818303038152906040528051906020012081526020018481526020018673ffffffffffffffffffffffffffffffffffffffff1681526020018581526020016040518060400160405280600381526020017f585541000000000000000000000000000000000000000000000000000000000081525081526020016040518060400160405280600481526020017f55534454000000000000000000000000000000000000000000000000000000008152508152602001610a94610e38565b81526020016000151581525090506000819080600181540180825580915050600190039060005260206000209060080201600090919091909150600082015181600001556020820151816001015560408201518160020160006101000a81548173ffffffffffffffffffffffffffffffffffffffff021916908373ffffffffffffffffffffffffffffffffffffffff160217905550606082015181600301556080820151816004019080519060200190610b4f929190610ed5565b5060a0820151816005019080519060200190610b6c929190610ed5565b5060c0820151816006015560e08201518160070160006101000a81548160ff0219169083151502179055505050600183610ba69190611610565b6001600083600001518152602001908152602001600020819055507f78f6908c0a8d2c9158f488b36cdaca399ee238cd3cfc479e8db761f1aa9076516040518060400160405280600381526020017f58554100000000000000000000000000000000000000000000000000000000008152506040518060400160405280600481526020017f5553445400000000000000000000000000000000000000000000000000000000815250836000015184604001518560600151604051610c6e95949392919061141a565b60405180910390a15050505050565b6000806000905082841115610c9f578284610c989190611610565b9050610cae565b8383610cab9190611610565b90505b6000811415610cc1576000915050610ce3565b600084606483610cd191906115b6565b610cdb9190611585565b905080925050505b92915050565b6000806001600084815260200190815260200160002054905060008111610d45576040517f08c379a0000000000000000000000000000000000000000000000000000000008152600401610d3c906114fb565b60405180910390fd5b6000808281548110610d80577f4e487b7100000000000000000000000000000000000000000000000000000000600052603260045260246000fd5b906000526020600020906008020190506000610d9a610100565b90508060000151826000015414610de6576040517f08c379a0000000000000000000000000000000000000000000000000000000008152600401610ddd9061147b565b60405180910390fd5b6000816020015111610e2d576040517f08c379a0000000000000000000000000000000000000000000000000000000008152600401610e249061149b565b60405180910390fd5b819350505050919050565b600060016002541415610e4e5760019050610e72565b600060646033600254610e6191906115b6565b610e6b9190611585565b9050809150505b90565b6040518061010001604052806000801916815260200160008152602001600073ffffffffffffffffffffffffffffffffffffffff168152602001600081526020016060815260200160608152602001600081526020016000151581525090565b828054610ee1906116f3565b90600052602060002090601f016020900481019282610f035760008555610f4a565b82601f10610f1c57805160ff1916838001178555610f4a565b82800160010185558215610f4a579182015b82811115610f49578251825591602001919060010190610f2e565b5b509050610f579190610f5b565b5090565b5b80821115610f74576000816000905550600101610f5c565b5090565b600081359050610f8781611847565b92915050565b600081359050610f9c8161185e565b92915050565b600081359050610fb181611875565b92915050565b60008060408385031215610fca57600080fd5b6000610fd885828601610f78565b9250506020610fe985828601610fa2565b9150509250929050565b6000806040838503121561100657600080fd5b600061101485828601610f8d565b925050602061102585828601610fa2565b9150509250929050565b6000806040838503121561104257600080fd5b600061105085828601610fa2565b925050602061106185828601610fa2565b9150509250929050565b61107481611644565b82525050565b61108381611644565b82525050565b61109a61109582611644565b61176e565b82525050565b6110a981611656565b82525050565b6110b881611662565b82525050565b6110c781611662565b82525050565b60006110d882611558565b6110e28185611563565b93506110f2818560208601611696565b6110fb81611829565b840191505092915050565b600061111182611558565b61111b8185611574565b935061112b818560208601611696565b61113481611829565b840191505092915050565b600061114c603b83611574565b91507f566f74696e6720666f72206f6c6420726f756e642e2054686520726f756e644960008301527f642062656c6f6e677320746f2070726576696f757320726f756e6400000000006020830152604082019050919050565b60006111b2602e83611574565b91507f43616e6e6f742076616c696461746520726f756e642e204e6f20726f756e647360008301527f206172652070726573656e7465640000000000000000000000000000000000006020830152604082019050919050565b6000611218601783611574565b91507f4e756c6c206164647265737320697320696e76616c69640000000000000000006000830152602082019050919050565b6000611258602883611574565b91507f476976656e2061646472657373206e6f7420656c656374656420666f7220766160008301527f6c69646174696f6e0000000000000000000000000000000000000000000000006020830152604082019050919050565b60006112be601183611574565b91507f496e76616c696420726f756e64206964200000000000000000000000000000006000830152602082019050919050565b60006101008301600083015161130a60008601826110af565b50602083015161131d60208601826113a8565b506040830151611330604086018261106b565b50606083015161134360608601826113a8565b506080830151848203608086015261135b82826110cd565b91505060a083015184820360a086015261137582826110cd565b91505060c083015161138a60c08601826113a8565b5060e083015161139d60e08601826110a0565b508091505092915050565b6113b18161168c565b82525050565b6113c08161168c565b82525050565b6113d76113d28261168c565b611792565b82525050565b60006113e98286611089565b6014820191506113f982856113c6565b60208201915061140982846113c6565b602082019150819050949350505050565b600060a08201905081810360008301526114348188611106565b905081810360208301526114488187611106565b905061145760408301866110be565b611464606083018561107a565b61147160808301846113b7565b9695505050505050565b600060208201905081810360008301526114948161113f565b9050919050565b600060208201905081810360008301526114b4816111a5565b9050919050565b600060208201905081810360008301526114d48161120b565b9050919050565b600060208201905081810360008301526114f48161124b565b9050919050565b60006020820190508181036000830152611514816112b1565b9050919050565b6000602082019050818103600083015261153581846112f1565b905092915050565b600060208201905061155260008301846113b7565b92915050565b600081519050919050565b600082825260208201905092915050565b600082825260208201905092915050565b60006115908261168c565b915061159b8361168c565b9250826115ab576115aa6117cb565b5b828204905092915050565b60006115c18261168c565b91506115cc8361168c565b9250817fffffffffffffffffffffffffffffffffffffffffffffffffffffffffffffffff04831182151516156116055761160461179c565b5b828202905092915050565b600061161b8261168c565b91506116268361168c565b9250828210156116395761163861179c565b5b828203905092915050565b600061164f8261166c565b9050919050565b60008115159050919050565b6000819050919050565b600073ffffffffffffffffffffffffffffffffffffffff82169050919050565b6000819050919050565b60005b838110156116b4578082015181840152602081019050611699565b838111156116c3576000848401525b50505050565b60006116d48261168c565b915060008214156116e8576116e761179c565b5b600182039050919050565b6000600282049050600182168061170b57607f821691505b6020821081141561171f5761171e6117fa565b5b50919050565b60006117308261168c565b91507fffffffffffffffffffffffffffffffffffffffffffffffffffffffffffffffff8214156117635761176261179c565b5b600182019050919050565b600061177982611780565b9050919050565b600061178b8261183a565b9050919050565b6000819050919050565b7f4e487b7100000000000000000000000000000000000000000000000000000000600052601160045260246000fd5b7f4e487b7100000000000000000000000000000000000000000000000000000000600052601260045260246000fd5b7f4e487b7100000000000000000000000000000000000000000000000000000000600052602260045260246000fd5b6000601f19601f8301169050919050565b60008160601b9050919050565b61185081611644565b811461185b57600080fd5b50565b61186781611662565b811461187257600080fd5b50565b61187e8161168c565b811461188957600080fd5b5056fea26469706673582212202302a8ff90502b2070b9f3ea3ebe59750fb8bdfb55461c64d3cfcb31e77f611264736f6c63430008000033",
  "immutableReferences": {},
  "source": "pragma solidity ^0.8.0;\r\n\r\nimport \"../utils/Rounds.sol\";\r\n\r\n//PoC. Big Refactoring will happened!\r\ncontract GoldPriceResolver {\r\n    uint256 constant MINIMUM_QUORUM_REQUURED_FOR_VALIDATION_IN_PERCENTS = 51;\r\n    uint256 constant MAXIMUM_ALLOWED_PRICE_DEVIATION_IN_PERCENTS = 3;\r\n    string constant GOLD_SYMBOL = \"XUA\"; //TODO; move to separate contract when refactor\r\n    string constant USDT_SYMBOL = \"USDT\";\r\n    Rounds.Round[] private _rounds;\r\n    mapping(bytes32 => uint256) private _roundIndexs;\r\n\r\n    constructor() {}\r\n\r\n    //TODO: this all will come form PoS. For now they are hardcoded\r\n    uint256 validatorNodesCount = 1;\r\n    address electedNodeAddress =\r\n        address(0x5B38Da6a701c568545dCfcB03FcB875f56beddC4); //TODO: this will come as a result of PoS. Hardcoded for now\r\n\r\n    event NewPriceVote(\r\n        string assetSymbol,\r\n        string currencySymbol,\r\n        bytes32 roundId,\r\n        address proposalEmiterAddress,\r\n        uint256 price\r\n    );\r\n\r\n    function startNewPriceRound(address nodeAddress_, uint256 price_) public {\r\n        //call from elected node. If not revert.\r\n        //Only elected node should be able to start new round of price change\r\n        //after the price is set need to be validated - at least 51% of active nodes must approve the value\r\n        //after the quorum is reached the value is finaly set and become valid price\r\n        //only valid (validated) prices should be return to aggregator\r\n        require(nodeAddress_ != address(0), \"Null address is invalid\");\r\n        //if check and then slash - we can perform a penalty for trying to update without permission;\r\n        //for now it will be required check\r\n        require(\r\n            nodeAddress_ == electedNodeAddress,\r\n            \"Given address not elected for validation\"\r\n        );\r\n\r\n        //default nonce is 0;\r\n        uint256 nonce = 0;\r\n\r\n        //get last valid round;\r\n\r\n        Rounds.Round memory lastRound = getLatestRoundData();\r\n\r\n        //if there is already las\r\n        if (lastRound.nonce != 0) {\r\n            nonce = lastRound.nonce;\r\n        } // this is the initalRound;\r\n\r\n        nonce++;\r\n\r\n        Rounds.Round memory round = Rounds.Round({\r\n            roundId: keccak256(abi.encodePacked(nodeAddress_, nonce, price_)),\r\n            nonce: nonce,\r\n            node: nodeAddress_,\r\n            price: price_,\r\n            assetCode: GOLD_SYMBOL,\r\n            currencyCode: USDT_SYMBOL,\r\n            requiredQuorum: calculateMinimumNodesCountForReachingQuorum(),\r\n            isQuorumReached: false\r\n        });\r\n\r\n        //the elected node kick off the new round\r\n        _rounds.push(round);\r\n\r\n        //add mapping for roundId and nonce for easy search on callback\r\n        _roundIndexs[round.roundId] = nonce - 1;\r\n\r\n        emit NewPriceVote(\r\n            GOLD_SYMBOL,\r\n            USDT_SYMBOL,\r\n            round.roundId,\r\n            round.node,\r\n            round.price\r\n        );\r\n    }\r\n\r\n    function votePriceForRound(bytes32 roundId_, uint256 price_) public {\r\n        address callerAddress = msg.sender;\r\n        //check if caller is an elected member for current era\r\n        //TODO:\r\n        //required check\r\n        //find correct round record by roundId\r\n        Rounds.Round storage round = tryGetRoundForValidationByRequestedRoundId(\r\n            roundId_\r\n        );\r\n\r\n        //validate the presented data\r\n        uint256 percentageDiffBetweenPrices = calculatePriceDeviation(\r\n            round.price,\r\n            price_\r\n        );\r\n\r\n        //if the difference between proposed price and the validator price is more than 3%\r\n        //the validation is not passed\r\n        if (\r\n            percentageDiffBetweenPrices >\r\n            MAXIMUM_ALLOWED_PRICE_DEVIATION_IN_PERCENTS\r\n        ) {} else {\r\n            //validation is passed\r\n        }\r\n    }\r\n\r\n    function calculateMinimumNodesCountForReachingQuorum()\r\n        internal\r\n        view\r\n        returns (uint256)\r\n    {\r\n        if (validatorNodesCount == 1) {\r\n            return 1;\r\n        }\r\n\r\n        uint256 nodesRequiredForQuorum = (validatorNodesCount *\r\n            MINIMUM_QUORUM_REQUURED_FOR_VALIDATION_IN_PERCENTS) / 100;\r\n\r\n        return nodesRequiredForQuorum;\r\n    }\r\n\r\n    //valid round is considered every round\r\n    function getLatestRoundData()\r\n        public\r\n        view\r\n        returns (Rounds.Round memory round)\r\n    {\r\n        uint256 roundsLenght = _rounds.length;\r\n        if (roundsLenght != 0) return _rounds[roundsLenght - 1];\r\n    }\r\n\r\n    //valid round is considered every round with reached Quorum\r\n    function getLatestValidData()\r\n        public\r\n        view\r\n        returns (Rounds.Round memory round)\r\n    {\r\n        uint256 roundsCount = _rounds.length;\r\n        if (roundsCount != 0) {\r\n            uint256 lastRoundIndex = roundsCount - 1;\r\n            Rounds.Round memory lastRound = _rounds[lastRoundIndex];\r\n            if (round.isQuorumReached) {\r\n                return lastRound;\r\n            }\r\n\r\n            for (uint256 i = lastRoundIndex - 1; i < 0; i--) {\r\n                if (_rounds[i].isQuorumReached) {\r\n                    return _rounds[i];\r\n                }\r\n            }\r\n        }\r\n    }\r\n\r\n    //performing calculation to find the absolute difference between sugested node and the other validators nodes prices\r\n    //if deviation bigger than 3% is found the proposition is declined by caller validator\r\n    //if deviation is less than 1% the proposition is accepted\r\n    function calculatePriceDeviation(\r\n        uint256 suggestedPrice_,\r\n        uint256 referentPrice_\r\n    ) public pure returns (uint256) {\r\n        uint256 priceDifferenceAbs = 0;\r\n\r\n        if (suggestedPrice_ > referentPrice_) {\r\n            priceDifferenceAbs = suggestedPrice_ - referentPrice_;\r\n        } else {\r\n            priceDifferenceAbs = referentPrice_ - suggestedPrice_;\r\n        }\r\n        if (priceDifferenceAbs == 0) {\r\n            return 0;\r\n        }\r\n\r\n        uint256 percentageDiff = (priceDifferenceAbs * 100) / suggestedPrice_;\r\n\r\n        return percentageDiff;\r\n    }\r\n\r\n    function tryGetRoundForValidationByRequestedRoundId(bytes32 roundId_)\r\n        internal\r\n        view\r\n        returns (Rounds.Round storage roundToValidate)\r\n    {\r\n        //get round index by roundId\r\n        uint256 roundIndex = _roundIndexs[roundId_];\r\n        //if no roundId exist revert\r\n        require(roundIndex > 0, \"Invalid round id \");\r\n        //get round to validate by round Index\r\n        Rounds.Round storage roundByIndex = _rounds[roundIndex];\r\n        //get last round that should be the current that needs to be validated\r\n        Rounds.Round memory lastRound = getLatestRoundData();\r\n        //check if requested round is actially the last one that needs to be validated\r\n        require(\r\n            roundByIndex.roundId == lastRound.roundId,\r\n            \"Voting for old round. The roundId belongs to previous round\"\r\n        );\r\n        require(\r\n            lastRound.nonce > 0,\r\n            \"Cannot validate round. No rounds are presented\"\r\n        );\r\n\r\n        //return pointer to the last round\r\n        return roundByIndex;\r\n    }\r\n}\r\n",
  "sourcePath": "D:\\Documents\\Dev\\Repositories\\gold-price-oracle\\gold-price-oracle\\on-chain\\contracts\\oracle\\resolvers\\GoldPriceResolver.sol",
  "compiler": {
    "name": "solc",
    "version": "0.8.0+commit.c7dfd78e.Emscripten.clang"
  },
  "schemaVersion": "3.4.3",
  "updatedAt": "2022-02-23T19:58:59.405Z",
  "devdoc": {
    "kind": "dev",
    "methods": {},
    "version": 1
  },
  "userdoc": {
    "kind": "user",
    "methods": {},
    "version": 1
  }
}