{
  "contractName": "GoldOracleToken",
  "abi": [
    {
      "inputs": [],
      "stateMutability": "nonpayable",
      "type": "constructor"
    },
    {
      "anonymous": false,
      "inputs": [
        {
          "indexed": true,
          "internalType": "address",
          "name": "owner",
          "type": "address"
        },
        {
          "indexed": true,
          "internalType": "address",
          "name": "spender",
          "type": "address"
        },
        {
          "indexed": false,
          "internalType": "uint256",
          "name": "value",
          "type": "uint256"
        }
      ],
      "name": "Approval",
      "type": "event"
    },
    {
      "anonymous": false,
      "inputs": [
        {
          "indexed": false,
          "internalType": "bytes32",
          "name": "eraId",
          "type": "bytes32"
        },
        {
          "indexed": false,
          "internalType": "address",
          "name": "chairman",
          "type": "address"
        },
        {
          "indexed": false,
          "internalType": "uint256",
          "name": "timestap",
          "type": "uint256"
        }
      ],
      "name": "EndEraByNewElectedChairman",
      "type": "event"
    },
    {
      "anonymous": false,
      "inputs": [
        {
          "indexed": false,
          "internalType": "bytes32",
          "name": "eraId",
          "type": "bytes32"
        },
        {
          "indexed": false,
          "internalType": "address",
          "name": "chairman",
          "type": "address"
        },
        {
          "indexed": false,
          "internalType": "address[]",
          "name": "council",
          "type": "address[]"
        },
        {
          "indexed": false,
          "internalType": "uint256",
          "name": "validatorsCount",
          "type": "uint256"
        },
        {
          "indexed": false,
          "internalType": "uint256",
          "name": "calculatedSeed",
          "type": "uint256"
        }
      ],
      "name": "NewEraElecationProposal",
      "type": "event"
    },
    {
      "anonymous": false,
      "inputs": [
        {
          "components": [
            {
              "internalType": "bytes32",
              "name": "id",
              "type": "bytes32"
            },
            {
              "internalType": "bytes32",
              "name": "previousEraId",
              "type": "bytes32"
            },
            {
              "internalType": "uint256",
              "name": "colectedFeesAmount",
              "type": "uint256"
            },
            {
              "internalType": "uint256",
              "name": "startDate",
              "type": "uint256"
            },
            {
              "internalType": "uint256",
              "name": "endDate",
              "type": "uint256"
            },
            {
              "internalType": "address",
              "name": "chairman",
              "type": "address"
            },
            {
              "internalType": "uint256",
              "name": "requiredQuorum",
              "type": "uint256"
            },
            {
              "internalType": "bool",
              "name": "isQuorumReached",
              "type": "bool"
            },
            {
              "internalType": "uint256",
              "name": "possitiveVotes",
              "type": "uint256"
            },
            {
              "internalType": "uint256",
              "name": "negativeVotes",
              "type": "uint256"
            },
            {
              "internalType": "bool",
              "name": "accepted",
              "type": "bool"
            },
            {
              "internalType": "bool",
              "name": "ended",
              "type": "bool"
            }
          ],
          "indexed": false,
          "internalType": "struct Eras.Era",
          "name": "era",
          "type": "tuple"
        }
      ],
      "name": "NewEraElectionComplited",
      "type": "event"
    },
    {
      "anonymous": false,
      "inputs": [
        {
          "indexed": true,
          "internalType": "address",
          "name": "from",
          "type": "address"
        },
        {
          "indexed": true,
          "internalType": "address",
          "name": "to",
          "type": "address"
        },
        {
          "indexed": false,
          "internalType": "uint256",
          "name": "value",
          "type": "uint256"
        }
      ],
      "name": "Transfer",
      "type": "event"
    },
    {
      "inputs": [
        {
          "internalType": "address",
          "name": "owner",
          "type": "address"
        },
        {
          "internalType": "address",
          "name": "spender",
          "type": "address"
        }
      ],
      "name": "allowance",
      "outputs": [
        {
          "internalType": "uint256",
          "name": "",
          "type": "uint256"
        }
      ],
      "stateMutability": "view",
      "type": "function"
    },
    {
      "inputs": [
        {
          "internalType": "address",
          "name": "spender",
          "type": "address"
        },
        {
          "internalType": "uint256",
          "name": "amount",
          "type": "uint256"
        }
      ],
      "name": "approve",
      "outputs": [
        {
          "internalType": "bool",
          "name": "",
          "type": "bool"
        }
      ],
      "stateMutability": "nonpayable",
      "type": "function"
    },
    {
      "inputs": [
        {
          "internalType": "address",
          "name": "account",
          "type": "address"
        }
      ],
      "name": "balanceOf",
      "outputs": [
        {
          "internalType": "uint256",
          "name": "",
          "type": "uint256"
        }
      ],
      "stateMutability": "view",
      "type": "function"
    },
    {
      "inputs": [],
      "name": "decimals",
      "outputs": [
        {
          "internalType": "uint8",
          "name": "",
          "type": "uint8"
        }
      ],
      "stateMutability": "view",
      "type": "function"
    },
    {
      "inputs": [
        {
          "internalType": "address",
          "name": "spender",
          "type": "address"
        },
        {
          "internalType": "uint256",
          "name": "subtractedValue",
          "type": "uint256"
        }
      ],
      "name": "decreaseAllowance",
      "outputs": [
        {
          "internalType": "bool",
          "name": "",
          "type": "bool"
        }
      ],
      "stateMutability": "nonpayable",
      "type": "function"
    },
    {
      "inputs": [
        {
          "internalType": "uint256",
          "name": "timestamp",
          "type": "uint256"
        }
      ],
      "name": "endEra",
      "outputs": [],
      "stateMutability": "nonpayable",
      "type": "function"
    },
    {
      "inputs": [],
      "name": "getCurrentEra",
      "outputs": [
        {
          "components": [
            {
              "internalType": "bytes32",
              "name": "id",
              "type": "bytes32"
            },
            {
              "internalType": "bytes32",
              "name": "previousEraId",
              "type": "bytes32"
            },
            {
              "internalType": "uint256",
              "name": "colectedFeesAmount",
              "type": "uint256"
            },
            {
              "internalType": "uint256",
              "name": "startDate",
              "type": "uint256"
            },
            {
              "internalType": "uint256",
              "name": "endDate",
              "type": "uint256"
            },
            {
              "internalType": "address",
              "name": "chairman",
              "type": "address"
            },
            {
              "internalType": "uint256",
              "name": "requiredQuorum",
              "type": "uint256"
            },
            {
              "internalType": "bool",
              "name": "isQuorumReached",
              "type": "bool"
            },
            {
              "internalType": "uint256",
              "name": "possitiveVotes",
              "type": "uint256"
            },
            {
              "internalType": "uint256",
              "name": "negativeVotes",
              "type": "uint256"
            },
            {
              "internalType": "bool",
              "name": "accepted",
              "type": "bool"
            },
            {
              "internalType": "bool",
              "name": "ended",
              "type": "bool"
            }
          ],
          "internalType": "struct Eras.Era",
          "name": "currentEra",
          "type": "tuple"
        }
      ],
      "stateMutability": "view",
      "type": "function"
    },
    {
      "inputs": [
        {
          "internalType": "bytes32",
          "name": "eraId_",
          "type": "bytes32"
        }
      ],
      "name": "getEraById",
      "outputs": [
        {
          "components": [
            {
              "internalType": "bytes32",
              "name": "id",
              "type": "bytes32"
            },
            {
              "internalType": "bytes32",
              "name": "previousEraId",
              "type": "bytes32"
            },
            {
              "internalType": "uint256",
              "name": "colectedFeesAmount",
              "type": "uint256"
            },
            {
              "internalType": "uint256",
              "name": "startDate",
              "type": "uint256"
            },
            {
              "internalType": "uint256",
              "name": "endDate",
              "type": "uint256"
            },
            {
              "internalType": "address",
              "name": "chairman",
              "type": "address"
            },
            {
              "internalType": "uint256",
              "name": "requiredQuorum",
              "type": "uint256"
            },
            {
              "internalType": "bool",
              "name": "isQuorumReached",
              "type": "bool"
            },
            {
              "internalType": "uint256",
              "name": "possitiveVotes",
              "type": "uint256"
            },
            {
              "internalType": "uint256",
              "name": "negativeVotes",
              "type": "uint256"
            },
            {
              "internalType": "bool",
              "name": "accepted",
              "type": "bool"
            },
            {
              "internalType": "bool",
              "name": "ended",
              "type": "bool"
            }
          ],
          "internalType": "struct Eras.Era",
          "name": "era",
          "type": "tuple"
        }
      ],
      "stateMutability": "view",
      "type": "function"
    },
    {
      "inputs": [],
      "name": "getErasCount",
      "outputs": [
        {
          "internalType": "uint256",
          "name": "",
          "type": "uint256"
        }
      ],
      "stateMutability": "view",
      "type": "function"
    },
    {
      "inputs": [
        {
          "internalType": "address",
          "name": "address_",
          "type": "address"
        }
      ],
      "name": "getStakedAmount",
      "outputs": [
        {
          "internalType": "uint256",
          "name": "",
          "type": "uint256"
        }
      ],
      "stateMutability": "view",
      "type": "function"
    },
    {
      "inputs": [
        {
          "internalType": "address",
          "name": "address_",
          "type": "address"
        }
      ],
      "name": "getStakeholderInformation",
      "outputs": [
        {
          "internalType": "uint256",
          "name": "",
          "type": "uint256"
        },
        {
          "internalType": "uint256",
          "name": "",
          "type": "uint256"
        },
        {
          "internalType": "uint256",
          "name": "",
          "type": "uint256"
        },
        {
          "internalType": "uint256",
          "name": "",
          "type": "uint256"
        },
        {
          "internalType": "bool",
          "name": "",
          "type": "bool"
        }
      ],
      "stateMutability": "view",
      "type": "function"
    },
    {
      "inputs": [],
      "name": "getStakeholders",
      "outputs": [
        {
          "components": [
            {
              "internalType": "address",
              "name": "user",
              "type": "address"
            },
            {
              "internalType": "uint256",
              "name": "totalAmount",
              "type": "uint256"
            },
            {
              "internalType": "uint256",
              "name": "ownedAmount",
              "type": "uint256"
            },
            {
              "internalType": "uint256",
              "name": "nominatedAmount",
              "type": "uint256"
            },
            {
              "internalType": "uint256",
              "name": "nominatorsCount",
              "type": "uint256"
            },
            {
              "internalType": "bool",
              "name": "canValidate",
              "type": "bool"
            },
            {
              "internalType": "uint256",
              "name": "notCollectedTokenRewards",
              "type": "uint256"
            }
          ],
          "internalType": "struct Stakeholders.Stakeholder[]",
          "name": "stakeholders",
          "type": "tuple[]"
        }
      ],
      "stateMutability": "view",
      "type": "function"
    },
    {
      "inputs": [],
      "name": "getValidatorsCoundForActiveEra",
      "outputs": [
        {
          "internalType": "uint256",
          "name": "",
          "type": "uint256"
        }
      ],
      "stateMutability": "view",
      "type": "function"
    },
    {
      "inputs": [],
      "name": "getValidatorsCount",
      "outputs": [
        {
          "internalType": "uint256",
          "name": "",
          "type": "uint256"
        }
      ],
      "stateMutability": "view",
      "type": "function"
    },
    {
      "inputs": [
        {
          "internalType": "address",
          "name": "spender",
          "type": "address"
        },
        {
          "internalType": "uint256",
          "name": "addedValue",
          "type": "uint256"
        }
      ],
      "name": "increaseAllowance",
      "outputs": [
        {
          "internalType": "bool",
          "name": "",
          "type": "bool"
        }
      ],
      "stateMutability": "nonpayable",
      "type": "function"
    },
    {
      "inputs": [
        {
          "internalType": "address",
          "name": "address_",
          "type": "address"
        }
      ],
      "name": "isAddressElectedForValidation",
      "outputs": [
        {
          "internalType": "bool",
          "name": "",
          "type": "bool"
        }
      ],
      "stateMutability": "view",
      "type": "function"
    },
    {
      "inputs": [],
      "name": "name",
      "outputs": [
        {
          "internalType": "string",
          "name": "",
          "type": "string"
        }
      ],
      "stateMutability": "view",
      "type": "function"
    },
    {
      "inputs": [
        {
          "internalType": "bytes32",
          "name": "eraId_",
          "type": "bytes32"
        },
        {
          "internalType": "address",
          "name": "chairman_",
          "type": "address"
        },
        {
          "internalType": "address[]",
          "name": "coucil_",
          "type": "address[]"
        },
        {
          "internalType": "uint256",
          "name": "utcTimeStamp_",
          "type": "uint256"
        },
        {
          "internalType": "uint256",
          "name": "calculatedSeed_",
          "type": "uint256"
        }
      ],
      "name": "proposeNewEra",
      "outputs": [],
      "stateMutability": "nonpayable",
      "type": "function"
    },
    {
      "inputs": [
        {
          "internalType": "uint256",
          "name": "amount_",
          "type": "uint256"
        }
      ],
      "name": "stake",
      "outputs": [],
      "stateMutability": "nonpayable",
      "type": "function"
    },
    {
      "inputs": [],
      "name": "symbol",
      "outputs": [
        {
          "internalType": "string",
          "name": "",
          "type": "string"
        }
      ],
      "stateMutability": "view",
      "type": "function"
    },
    {
      "inputs": [],
      "name": "totalSupply",
      "outputs": [
        {
          "internalType": "uint256",
          "name": "",
          "type": "uint256"
        }
      ],
      "stateMutability": "view",
      "type": "function"
    },
    {
      "inputs": [
        {
          "internalType": "address",
          "name": "to",
          "type": "address"
        },
        {
          "internalType": "uint256",
          "name": "amount",
          "type": "uint256"
        }
      ],
      "name": "transfer",
      "outputs": [
        {
          "internalType": "bool",
          "name": "",
          "type": "bool"
        }
      ],
      "stateMutability": "nonpayable",
      "type": "function"
    },
    {
      "inputs": [
        {
          "internalType": "address",
          "name": "from",
          "type": "address"
        },
        {
          "internalType": "address",
          "name": "to",
          "type": "address"
        },
        {
          "internalType": "uint256",
          "name": "amount",
          "type": "uint256"
        }
      ],
      "name": "transferFrom",
      "outputs": [
        {
          "internalType": "bool",
          "name": "",
          "type": "bool"
        }
      ],
      "stateMutability": "nonpayable",
      "type": "function"
    },
    {
      "inputs": [
        {
          "internalType": "uint256",
          "name": "amount_",
          "type": "uint256"
        }
      ],
      "name": "unstake",
      "outputs": [],
      "stateMutability": "nonpayable",
      "type": "function"
    },
    {
      "inputs": [
        {
          "internalType": "bytes32",
          "name": "eraId",
          "type": "bytes32"
        },
        {
          "internalType": "bool",
          "name": "approves",
          "type": "bool"
        }
      ],
      "name": "voteForProposedEra",
      "outputs": [],
      "stateMutability": "nonpayable",
      "type": "function"
    },
    {
      "inputs": [],
      "name": "getOwnerAddress",
      "outputs": [
        {
          "internalType": "address",
          "name": "",
          "type": "address"
        }
      ],
      "stateMutability": "view",
      "type": "function"
    }
  ],
  "bytecode": "0x60c06040523480156200001157600080fd5b506040518060400160405280600f81526020017f476f6c644f7261636c65546f6b656e00000000000000000000000000000000008152506040518060400160405280600381526020017f474f54000000000000000000000000000000000000000000000000000000000081525069043c33c1937564800000683635c9adc5dea0000083838382828160039080519060200190620000b0929190620002df565b508060049080519060200190620000c9929190620002df565b505050806080818152505060006005819055505050508060a081815250505050505033601060006101000a81548173ffffffffffffffffffffffffffffffffffffffff021916908373ffffffffffffffffffffffffffffffffffffffff1602179055506200015633600a69043c33c19375648000006200014a91906200048f565b6200015c60201b60201c565b6200058e565b600073ffffffffffffffffffffffffffffffffffffffff168273ffffffffffffffffffffffffffffffffffffffff161415620001cf576040517f08c379a0000000000000000000000000000000000000000000000000000000008152600401620001c690620003e2565b60405180910390fd5b620001e360008383620002d560201b60201c565b8060026000828254620001f7919062000432565b92505081905550806000808473ffffffffffffffffffffffffffffffffffffffff1673ffffffffffffffffffffffffffffffffffffffff16815260200190815260200160002060008282546200024e919062000432565b925050819055508173ffffffffffffffffffffffffffffffffffffffff16600073ffffffffffffffffffffffffffffffffffffffff167fddf252ad1be2c89b69c2b068fc378daa952ba7f163c4a11628f55a4df523b3ef83604051620002b5919062000404565b60405180910390a3620002d160008383620002da60201b60201c565b5050565b505050565b505050565b828054620002ed90620004fa565b90600052602060002090601f0160209004810192826200031157600085556200035d565b82601f106200032c57805160ff19168380011785556200035d565b828001600101855582156200035d579182015b828111156200035c5782518255916020019190600101906200033f565b5b5090506200036c919062000370565b5090565b5b808211156200038b57600081600090555060010162000371565b5090565b60006200039e601f8362000421565b91507f45524332303a206d696e7420746f20746865207a65726f2061646472657373006000830152602082019050919050565b620003dc81620004f0565b82525050565b60006020820190508181036000830152620003fd816200038f565b9050919050565b60006020820190506200041b6000830184620003d1565b92915050565b600082825260208201905092915050565b60006200043f82620004f0565b91506200044c83620004f0565b9250827fffffffffffffffffffffffffffffffffffffffffffffffffffffffffffffffff0382111562000484576200048362000530565b5b828201905092915050565b60006200049c82620004f0565b9150620004a983620004f0565b9250817fffffffffffffffffffffffffffffffffffffffffffffffffffffffffffffffff0483118215151615620004e557620004e462000530565b5b828202905092915050565b6000819050919050565b600060028204905060018216806200051357607f821691505b602082108114156200052a57620005296200055f565b5b50919050565b7f4e487b7100000000000000000000000000000000000000000000000000000000600052601160045260246000fd5b7f4e487b7100000000000000000000000000000000000000000000000000000000600052602260045260246000fd5b60805160a051614824620005c26000396000611b9301526000818161087d015281816125d4015261293801526148246000f3fe608060405234801561001057600080fd5b506004361061018e5760003560e01c8063533aa7b8116100de578063a9059cbb11610097578063d250b6cb11610071578063d250b6cb146104c5578063dd62ed3e146104e3578063e4ae026f14610513578063e60378521461052f5761018e565b8063a9059cbb14610447578063b699224714610477578063d100896d146104955761018e565b8063533aa7b8146103715780636c3811ae1461038f57806370a08231146103ad57806395d89b41146103dd578063a457c2d7146103fb578063a694fc3a1461042b5761018e565b80632bf9262c1161014b578063395093511161012557806339509351146102d957806340c86f1a146103095780634c5962cc146103255780634da6a556146103415761018e565b80632bf9262c1461026b5780632e17de781461029f578063313ce567146102bb5761018e565b806306fdde0314610193578063095ea7b3146101b15780630c4f65bd146101e157806318160ddd146101ff57806323b872dd1461021d578063274982401461024d575b600080fd5b61019b61055f565b6040516101a89190613f0e565b60405180910390f35b6101cb60048036038101906101c69190613022565b6105f1565b6040516101d89190613e62565b60405180910390f35b6101e9610614565b6040516101f69190613e25565b60405180910390f35b61020761063e565b6040516102149190614228565b60405180910390f35b61023760048036038101906102329190612fd3565b610648565b6040516102449190613e62565b60405180910390f35b610255610677565b6040516102629190614228565b60405180910390f35b61028560048036038101906102809190612f6e565b610681565b604051610296959493929190614243565b60405180910390f35b6102b960048036038101906102b49190613152565b61075f565b005b6102c361090c565b6040516102d09190614296565b60405180910390f35b6102f360048036038101906102ee9190613022565b610915565b6040516103009190613e62565b60405180910390f35b610323600480360381019061031e9190613116565b6109bf565b005b61033f600480360381019061033a9190613087565b610e63565b005b61035b60048036038101906103569190612f6e565b6111a3565b6040516103689190614228565b60405180910390f35b61037961125c565b6040516103869190614228565b60405180910390f35b610397611266565b6040516103a49190614228565b60405180910390f35b6103c760048036038101906103c29190612f6e565b6112ea565b6040516103d49190614228565b60405180910390f35b6103e5611332565b6040516103f29190613f0e565b60405180910390f35b61041560048036038101906104109190613022565b6113c4565b6040516104229190613e62565b60405180910390f35b61044560048036038101906104409190613152565b6114ae565b005b610461600480360381019061045c9190613022565b6115c3565b60405161046e9190613e62565b60405180910390f35b61047f6115e6565b60405161048c9190613e40565b60405180910390f35b6104af60048036038101906104aa9190612f6e565b6116e8565b6040516104bc9190613e62565b60405180910390f35b6104cd611824565b6040516104da91906141f0565b60405180910390f35b6104fd60048036038101906104f89190612f97565b611949565b60405161050a9190614228565b60405180910390f35b61052d60048036038101906105289190613152565b6119d0565b005b6105496004803603810190610544919061305e565b611c1c565b60405161055691906141f0565b60405180910390f35b60606003805461056e906145ae565b80601f016020809104026020016040519081016040528092919081815260200182805461059a906145ae565b80156105e75780601f106105bc576101008083540402835291602001916105e7565b820191906000526020600020905b8154815290600101906020018083116105ca57829003601f168201915b5050505050905090565b6000806105fc611d41565b9050610609818585611d49565b600191505092915050565b6000601060009054906101000a900473ffffffffffffffffffffffffffffffffffffffff16905090565b6000600254905090565b600080610653611d41565b9050610660858285611f14565b61066b858585611fa0565b60019150509392505050565b6000600554905090565b60008060008060008061069387612221565b9050600081116106d8576040517f08c379a00000000000000000000000000000000000000000000000000000000081526004016106cf906140b0565b60405180910390fd5b600060078281548110610714577f4e487b7100000000000000000000000000000000000000000000000000000000600052603260045260246000fd5b9060005260206000209060070201905080600101548160020154826003015483600401548460050160009054906101000a900460ff1696509650965096509650505091939590929450565b60003390506000600960008373ffffffffffffffffffffffffffffffffffffffff1673ffffffffffffffffffffffffffffffffffffffff16815260200190815260200160002054905060008114156107b8575050610909565b6000600782815481106107f4577f4e487b7100000000000000000000000000000000000000000000000000000000600052603260045260246000fd5b90600052602060002090600702019050838160010154101561084b576040517f08c379a000000000000000000000000000000000000000000000000000000000815260040161084290613ff0565b60405180910390fd5b600084826001016000828254610861919061447d565b92505081905590508082600101819055508082600201819055507f000000000000000000000000000000000000000000000000000000000000000081106108c45760018260050160006101000a81548160ff0219169083151502179055506108fa565b60008260050160006101000a81548160ff021916908315150217905550600560008154809291906108f490614584565b91905055505b6109048486612314565b505050505b50565b60006012905090565b600080610920611d41565b90506109b4818585600160008673ffffffffffffffffffffffffffffffffffffffff1673ffffffffffffffffffffffffffffffffffffffff16815260200190815260200160002060008973ffffffffffffffffffffffffffffffffffffffff1673ffffffffffffffffffffffffffffffffffffffff168152602001908152602001600020546109af919061439c565b611d49565b600191505092915050565b6000600860003373ffffffffffffffffffffffffffffffffffffffff1673ffffffffffffffffffffffffffffffffffffffff1681526020019081526020016000205490506000811415610a47576040517f08c379a0000000000000000000000000000000000000000000000000000000008152600401610a3e906140f0565b60405180910390fd5b6000600a60008581526020019081526020016000209050600073ffffffffffffffffffffffffffffffffffffffff168160050160009054906101000a900473ffffffffffffffffffffffffffffffffffffffff1673ffffffffffffffffffffffffffffffffffffffff161415610af2576040517f08c379a0000000000000000000000000000000000000000000000000000000008152600401610ae990613fb0565b60405180910390fd5b600015158160070160009054906101000a900460ff16151514610b4a576040517f08c379a0000000000000000000000000000000000000000000000000000000008152600401610b4190614190565b60405180910390fd5b60003390506000600b600087815260200190815260200160002060008373ffffffffffffffffffffffffffffffffffffffff1673ffffffffffffffffffffffffffffffffffffffff1681526020019081526020016000209050600073ffffffffffffffffffffffffffffffffffffffff168160000160009054906101000a900473ffffffffffffffffffffffffffffffffffffffff1673ffffffffffffffffffffffffffffffffffffffff1614610c36576040517f08c379a0000000000000000000000000000000000000000000000000000000008152600401610c2d90614030565b60405180910390fd5b60405180604001604052808373ffffffffffffffffffffffffffffffffffffffff168152602001861515815250600b600088815260200190815260200160002060008473ffffffffffffffffffffffffffffffffffffffff1673ffffffffffffffffffffffffffffffffffffffff16815260200190815260200160002060008201518160000160006101000a81548173ffffffffffffffffffffffffffffffffffffffff021916908373ffffffffffffffffffffffffffffffffffffffff16021790555060208201518160000160146101000a81548160ff021916908315150217905550905050600115158515151415610d9d576001836008016000828254610d3f919061439c565b92505081905550826006015483600801541415610d985760018360070160006101000a81548160ff021916908315150217905550600183600a0160006101000a81548160ff02191690831515021790555085600f819055505b610e05565b6001836009016000828254610db2919061439c565b92505081905550826006015483600901541415610e045760018360070160006101000a81548160ff021916908315150217905550600083600a0160006101000a81548160ff0219169083151502179055505b5b600115158360070160009054906101000a900460ff1615151415610e5b577fc530d95366d42af87ddcda2ccf19bd66e01c0dd2d770da3ef6c6c42e72369c4983604051610e52919061420c565b60405180910390a15b505050505050565b60003390506000610e72612474565b9050600073ffffffffffffffffffffffffffffffffffffffff168160a0015173ffffffffffffffffffffffffffffffffffffffff1614610f1f578060a0015173ffffffffffffffffffffffffffffffffffffffff168273ffffffffffffffffffffffffffffffffffffffff1614610f1e576040517f08c379a0000000000000000000000000000000000000000000000000000000008152600401610f1590614090565b60405180910390fd5b5b6000600a60008981526020019081526020016000209050600073ffffffffffffffffffffffffffffffffffffffff168160050160009054906101000a900473ffffffffffffffffffffffffffffffffffffffff1673ffffffffffffffffffffffffffffffffffffffff1614610fc9576040517f08c379a0000000000000000000000000000000000000000000000000000000008152600401610fc090614070565b60405180910390fd5b604051806101800160405280898152602001600e54815260200160008152602001868152602001600081526020018873ffffffffffffffffffffffffffffffffffffffff16815260200161101b612599565b8152602001600015158152602001600081526020016000815260200160001515815260200160001515815250600a60008a8152602001908152602001600020600082015181600001556020820151816001015560408201518160020155606082015181600301556080820151816004015560a08201518160050160006101000a81548173ffffffffffffffffffffffffffffffffffffffff021916908373ffffffffffffffffffffffffffffffffffffffff16021790555060c0820151816006015560e08201518160070160006101000a81548160ff0219169083151502179055506101008201518160080155610120820151816009015561014082015181600a0160006101000a81548160ff02191690831515021790555061016082015181600a0160016101000a81548160ff0219169083151502179055509050507f6d4aad47cb7bcb13b25ae71b45f2c76944033a9b2e76c78a342b7863412504e688888860055488604051611191959493929190613e7d565b60405180910390a15050505050505050565b600081600073ffffffffffffffffffffffffffffffffffffffff168173ffffffffffffffffffffffffffffffffffffffff1614156111e057600080fd5b60006111eb84612221565b90506000811415611200576000925050611256565b60006007828154811061123c577f4e487b7100000000000000000000000000000000000000000000000000000000600052603260045260246000fd5b906000526020600020906007020190508060010154935050505b50919050565b6000600654905090565b600080611271612474565b9050600073ffffffffffffffffffffffffffffffffffffffff168160a0015173ffffffffffffffffffffffffffffffffffffffff16146112b6576005549150506112e7565b6000600c6000836000015181526020019081526020016000209050600181805490506112e2919061439c565b925050505b90565b60008060008373ffffffffffffffffffffffffffffffffffffffff1673ffffffffffffffffffffffffffffffffffffffff168152602001908152602001600020549050919050565b606060048054611341906145ae565b80601f016020809104026020016040519081016040528092919081815260200182805461136d906145ae565b80156113ba5780601f1061138f576101008083540402835291602001916113ba565b820191906000526020600020905b81548152906001019060200180831161139d57829003601f168201915b5050505050905090565b6000806113cf611d41565b90506000600160008373ffffffffffffffffffffffffffffffffffffffff1673ffffffffffffffffffffffffffffffffffffffff16815260200190815260200160002060008673ffffffffffffffffffffffffffffffffffffffff1673ffffffffffffffffffffffffffffffffffffffff16815260200190815260200160002054905083811015611495576040517f08c379a000000000000000000000000000000000000000000000000000000000815260040161148c906141b0565b60405180910390fd5b6114a28286868403611d49565b60019250505092915050565b600033905060003073ffffffffffffffffffffffffffffffffffffffff166370a08231836040518263ffffffff1660e01b81526004016114ee9190613e25565b60206040518083038186803b15801561150657600080fd5b505afa15801561151a573d6000803e3d6000fd5b505050506040513d601f19601f8201168201806040525081019061153e919061317b565b905082811015611583576040517f08c379a000000000000000000000000000000000000000000000000000000000815260040161157a90614050565b60405180910390fd5b600061158e83612221565b905060008114156115a8576115a383856125d0565b6115b3565b6115b2818561289c565b5b6115bd83856129bb565b50505050565b6000806115ce611d41565b90506115db818585611fa0565b600191505092915050565b60606007805480602002602001604051908101604052809291908181526020016000905b828210156116df57838290600052602060002090600702016040518060e00160405290816000820160009054906101000a900473ffffffffffffffffffffffffffffffffffffffff1673ffffffffffffffffffffffffffffffffffffffff1673ffffffffffffffffffffffffffffffffffffffff168152602001600182015481526020016002820154815260200160038201548152602001600482015481526020016005820160009054906101000a900460ff161515151581526020016006820154815250508152602001906001019061160a565b50505050905090565b6000806116f3612474565b9050600073ffffffffffffffffffffffffffffffffffffffff168160a0015173ffffffffffffffffffffffffffffffffffffffff161461173757600191505061181f565b6000600c600083600001518152602001908152602001600020905060005b81805490508110156118175781818154811061179a577f4e487b7100000000000000000000000000000000000000000000000000000000600052603260045260246000fd5b9060005260206000200160009054906101000a900473ffffffffffffffffffffffffffffffffffffffff1673ffffffffffffffffffffffffffffffffffffffff168573ffffffffffffffffffffffffffffffffffffffff161415611804576001935050505061181f565b808061180f90614662565b915050611755565b506000925050505b919050565b61182c612dec565b600a6000600d5481526020019081526020016000206040518061018001604052908160008201548152602001600182015481526020016002820154815260200160038201548152602001600482015481526020016005820160009054906101000a900473ffffffffffffffffffffffffffffffffffffffff1673ffffffffffffffffffffffffffffffffffffffff1673ffffffffffffffffffffffffffffffffffffffff168152602001600682015481526020016007820160009054906101000a900460ff161515151581526020016008820154815260200160098201548152602001600a820160009054906101000a900460ff16151515158152602001600a820160019054906101000a900460ff161515151581525050905090565b6000600160008473ffffffffffffffffffffffffffffffffffffffff1673ffffffffffffffffffffffffffffffffffffffff16815260200190815260200160002060008373ffffffffffffffffffffffffffffffffffffffff1673ffffffffffffffffffffffffffffffffffffffff16815260200190815260200160002054905092915050565b60003390506000600a6000600d5481526020019081526020016000206040518061018001604052908160008201548152602001600182015481526020016002820154815260200160038201548152602001600482015481526020016005820160009054906101000a900473ffffffffffffffffffffffffffffffffffffffff1673ffffffffffffffffffffffffffffffffffffffff1673ffffffffffffffffffffffffffffffffffffffff168152602001600682015481526020016007820160009054906101000a900460ff161515151581526020016008820154815260200160098201548152602001600a820160009054906101000a900460ff16151515158152602001600a820160019054906101000a900460ff16151515158152505090508060a0015173ffffffffffffffffffffffffffffffffffffffff168273ffffffffffffffffffffffffffffffffffffffff1614611b63576040517f08c379a0000000000000000000000000000000000000000000000000000000008152600401611b5a906140d0565b60405180910390fd5b6000801b600e54148015611b7b57506000801b600d54145b15611b8e57600d54600e81905550611bd1565b611bc77f00000000000000000000000000000000000000000000000000000000000000008260400151611bc1919061439c565b83612b92565b600d54600e819055505b600f54600d819055507f722e3d4179a09427e9445cc06f5ccd49fe7a5cb5f568f00324d780aca56e341c600d548385604051611c0f93929190613ed7565b60405180910390a1505050565b611c24612dec565b600a60008381526020019081526020016000206040518061018001604052908160008201548152602001600182015481526020016002820154815260200160038201548152602001600482015481526020016005820160009054906101000a900473ffffffffffffffffffffffffffffffffffffffff1673ffffffffffffffffffffffffffffffffffffffff1673ffffffffffffffffffffffffffffffffffffffff168152602001600682015481526020016007820160009054906101000a900460ff161515151581526020016008820154815260200160098201548152602001600a820160009054906101000a900460ff16151515158152602001600a820160019054906101000a900460ff1615151515815250509050919050565b600033905090565b600073ffffffffffffffffffffffffffffffffffffffff168373ffffffffffffffffffffffffffffffffffffffff161415611db9576040517f08c379a0000000000000000000000000000000000000000000000000000000008152600401611db090614170565b60405180910390fd5b600073ffffffffffffffffffffffffffffffffffffffff168273ffffffffffffffffffffffffffffffffffffffff161415611e29576040517f08c379a0000000000000000000000000000000000000000000000000000000008152600401611e2090613f90565b60405180910390fd5b80600160008573ffffffffffffffffffffffffffffffffffffffff1673ffffffffffffffffffffffffffffffffffffffff16815260200190815260200160002060008473ffffffffffffffffffffffffffffffffffffffff1673ffffffffffffffffffffffffffffffffffffffff168152602001908152602001600020819055508173ffffffffffffffffffffffffffffffffffffffff168373ffffffffffffffffffffffffffffffffffffffff167f8c5be1e5ebec7d5bd14f71427d1e84f3dd0314c0f7b2291e5b200ac8c7c3b92583604051611f079190614228565b60405180910390a3505050565b6000611f208484611949565b90507fffffffffffffffffffffffffffffffffffffffffffffffffffffffffffffffff8114611f9a5781811015611f8c576040517f08c379a0000000000000000000000000000000000000000000000000000000008152600401611f8390613fd0565b60405180910390fd5b611f998484848403611d49565b5b50505050565b600073ffffffffffffffffffffffffffffffffffffffff168373ffffffffffffffffffffffffffffffffffffffff161415612010576040517f08c379a000000000000000000000000000000000000000000000000000000000815260040161200790614150565b60405180910390fd5b600073ffffffffffffffffffffffffffffffffffffffff168273ffffffffffffffffffffffffffffffffffffffff161415612080576040517f08c379a000000000000000000000000000000000000000000000000000000000815260040161207790613f30565b60405180910390fd5b61208b838383612cfa565b60008060008573ffffffffffffffffffffffffffffffffffffffff1673ffffffffffffffffffffffffffffffffffffffff16815260200190815260200160002054905081811015612111576040517f08c379a000000000000000000000000000000000000000000000000000000000815260040161210890614010565b60405180910390fd5b8181036000808673ffffffffffffffffffffffffffffffffffffffff1673ffffffffffffffffffffffffffffffffffffffff16815260200190815260200160002081905550816000808573ffffffffffffffffffffffffffffffffffffffff1673ffffffffffffffffffffffffffffffffffffffff16815260200190815260200160002060008282546121a4919061439c565b925050819055508273ffffffffffffffffffffffffffffffffffffffff168473ffffffffffffffffffffffffffffffffffffffff167fddf252ad1be2c89b69c2b068fc378daa952ba7f163c4a11628f55a4df523b3ef846040516122089190614228565b60405180910390a361221b848484612cff565b50505050565b600081600073ffffffffffffffffffffffffffffffffffffffff168173ffffffffffffffffffffffffffffffffffffffff16141561225e57600080fd5b6000600960008573ffffffffffffffffffffffffffffffffffffffff1673ffffffffffffffffffffffffffffffffffffffff16815260200190815260200160002054905060008114156122b557600092505061230e565b60016007805490506122c7919061447d565b811115612309576040517f08c379a000000000000000000000000000000000000000000000000000000000815260040161230090614110565b60405180910390fd5b809250505b50919050565b600073ffffffffffffffffffffffffffffffffffffffff168273ffffffffffffffffffffffffffffffffffffffff161415612384576040517f08c379a000000000000000000000000000000000000000000000000000000000815260040161237b906141d0565b60405180910390fd5b61239060008383612cfa565b80600260008282546123a2919061439c565b92505081905550806000808473ffffffffffffffffffffffffffffffffffffffff1673ffffffffffffffffffffffffffffffffffffffff16815260200190815260200160002060008282546123f7919061439c565b925050819055508173ffffffffffffffffffffffffffffffffffffffff16600073ffffffffffffffffffffffffffffffffffffffff167fddf252ad1be2c89b69c2b068fc378daa952ba7f163c4a11628f55a4df523b3ef8360405161245c9190614228565b60405180910390a361247060008383612cff565b5050565b61247c612dec565b600a6000600d5481526020019081526020016000206040518061018001604052908160008201548152602001600182015481526020016002820154815260200160038201548152602001600482015481526020016005820160009054906101000a900473ffffffffffffffffffffffffffffffffffffffff1673ffffffffffffffffffffffffffffffffffffffff1673ffffffffffffffffffffffffffffffffffffffff168152602001600682015481526020016007820160009054906101000a900460ff161515151581526020016008820154815260200160098201548152602001600a820160009054906101000a900460ff16151515158152602001600a820160019054906101000a900460ff161515151581525050905090565b6000600160055414156125af57600190506125cd565b606460336005546125c09190614423565b6125ca91906143f2565b90505b90565b60007f0000000000000000000000000000000000000000000000000000000000000000821015905060006007805490509050600081141561273257808061261690614662565b91505060076040518060e00160405280600073ffffffffffffffffffffffffffffffffffffffff168152602001600081526020016000815260200160008152602001600081526020016000151581526020016000815250908060018154018082558091505060019003906000526020600020906007020160009091909190915060008201518160000160006101000a81548173ffffffffffffffffffffffffffffffffffffffff021916908373ffffffffffffffffffffffffffffffffffffffff1602179055506020820151816001015560408201518160020155606082015181600301556080820151816004015560a08201518160050160006101000a81548160ff02191690831515021790555060c0820151816006015550505b60076040518060e001604052808673ffffffffffffffffffffffffffffffffffffffff168152602001858152602001858152602001600081526020016000815260200184151581526020016000815250908060018154018082558091505060019003906000526020600020906007020160009091909190915060008201518160000160006101000a81548173ffffffffffffffffffffffffffffffffffffffff021916908373ffffffffffffffffffffffffffffffffffffffff1602179055506020820151816001015560408201518160020155606082015181600301556080820151816004015560a08201518160050160006101000a81548160ff02191690831515021790555060c08201518160060155505080600960008673ffffffffffffffffffffffffffffffffffffffff1673ffffffffffffffffffffffffffffffffffffffff16815260200190815260200160002081905550612895828583612d04565b5050505050565b6000600783815481106128d8577f4e487b7100000000000000000000000000000000000000000000000000000000600052603260045260246000fd5b90600052602060002090600702019050818160010160008282546128fc919061439c565b9250508190555081816002016000828254612917919061439c565b925050819055508060050160009054906101000a900460ff166129b65760007f000000000000000000000000000000000000000000000000000000000000000082600101541015905080156129b45760018260050160006101000a81548160ff0219169083151502179055506129b2818360000160009054906101000a900473ffffffffffffffffffffffffffffffffffffffff1686612d04565b505b505b505050565b600073ffffffffffffffffffffffffffffffffffffffff168273ffffffffffffffffffffffffffffffffffffffff161415612a2b576040517f08c379a0000000000000000000000000000000000000000000000000000000008152600401612a2290614130565b60405180910390fd5b612a3782600083612cfa565b60008060008473ffffffffffffffffffffffffffffffffffffffff1673ffffffffffffffffffffffffffffffffffffffff16815260200190815260200160002054905081811015612abd576040517f08c379a0000000000000000000000000000000000000000000000000000000008152600401612ab490613f50565b60405180910390fd5b8181036000808573ffffffffffffffffffffffffffffffffffffffff1673ffffffffffffffffffffffffffffffffffffffff168152602001908152602001600020819055508160026000828254612b14919061447d565b92505081905550600073ffffffffffffffffffffffffffffffffffffffff168373ffffffffffffffffffffffffffffffffffffffff167fddf252ad1be2c89b69c2b068fc378daa952ba7f163c4a11628f55a4df523b3ef84604051612b799190614228565b60405180910390a3612b8d83600084612cff565b505050565b6000600283612ba191906143f2565b90506000600960008473ffffffffffffffffffffffffffffffffffffffff1673ffffffffffffffffffffffffffffffffffffffff168152602001908152602001600020549050600060078281548110612c23577f4e487b7100000000000000000000000000000000000000000000000000000000600052603260045260246000fd5b90600052602060002090600702019050600073ffffffffffffffffffffffffffffffffffffffff168160000160009054906101000a900473ffffffffffffffffffffffffffffffffffffffff1673ffffffffffffffffffffffffffffffffffffffff161415612cc7576040517f08c379a0000000000000000000000000000000000000000000000000000000008152600401612cbe90613f70565b60405180910390fd5b82816006016000828254612cdb919061439c565b9250508190555060008386612cf0919061447d565b9050505050505050565b505050565b505050565b600083612d145760009050612de5565b6000600860008573ffffffffffffffffffffffffffffffffffffffff1673ffffffffffffffffffffffffffffffffffffffff1681526020019081526020016000205490506000811415612dc75782600860008673ffffffffffffffffffffffffffffffffffffffff1673ffffffffffffffffffffffffffffffffffffffff1681526020019081526020016000208190555060056000815480929190612db890614662565b91905055506001915050612de5565b60056000815480929190612dda90614662565b919050555060019150505b9392505050565b6040518061018001604052806000801916815260200160008019168152602001600081526020016000815260200160008152602001600073ffffffffffffffffffffffffffffffffffffffff1681526020016000815260200160001515815260200160008152602001600081526020016000151581526020016000151581525090565b6000612e82612e7d846142e2565b6142b1565b90508083825260208201905082856020860282011115612ea157600080fd5b60005b85811015612ed15781612eb78882612edb565b845260208401935060208301925050600181019050612ea4565b5050509392505050565b600081359050612eea81614792565b92915050565b600082601f830112612f0157600080fd5b8135612f11848260208601612e6f565b91505092915050565b600081359050612f29816147a9565b92915050565b600081359050612f3e816147c0565b92915050565b600081359050612f53816147d7565b92915050565b600081519050612f68816147d7565b92915050565b600060208284031215612f8057600080fd5b6000612f8e84828501612edb565b91505092915050565b60008060408385031215612faa57600080fd5b6000612fb885828601612edb565b9250506020612fc985828601612edb565b9150509250929050565b600080600060608486031215612fe857600080fd5b6000612ff686828701612edb565b935050602061300786828701612edb565b925050604061301886828701612f44565b9150509250925092565b6000806040838503121561303557600080fd5b600061304385828601612edb565b925050602061305485828601612f44565b9150509250929050565b60006020828403121561307057600080fd5b600061307e84828501612f2f565b91505092915050565b600080600080600060a0868803121561309f57600080fd5b60006130ad88828901612f2f565b95505060206130be88828901612edb565b945050604086013567ffffffffffffffff8111156130db57600080fd5b6130e788828901612ef0565b93505060606130f888828901612f44565b925050608061310988828901612f44565b9150509295509295909350565b6000806040838503121561312957600080fd5b600061313785828601612f2f565b925050602061314885828601612f1a565b9150509250929050565b60006020828403121561316457600080fd5b600061317284828501612f44565b91505092915050565b60006020828403121561318d57600080fd5b600061319b84828501612f59565b91505092915050565b60006131b083836131d4565b60208301905092915050565b60006131c88383613d6a565b60e08301905092915050565b6131dd816144f2565b82525050565b6131ec816144f2565b82525050565b60006131fd8261432e565b6132078185614369565b93506132128361430e565b8060005b8381101561324357815161322a88826131a4565b97506132358361434f565b925050600181019050613216565b5085935050505092915050565b600061325b82614339565b613265818561437a565b93506132708361431e565b8060005b838110156132a157815161328888826131bc565b97506132938361435c565b925050600181019050613274565b5085935050505092915050565b6132b781614504565b82525050565b6132c681614504565b82525050565b6132d581614510565b82525050565b6132e481614510565b82525050565b60006132f582614344565b6132ff818561438b565b935061330f818560208601614551565b61331881614767565b840191505092915050565b600061333060238361438b565b91507f45524332303a207472616e7366657220746f20746865207a65726f206164647260008301527f65737300000000000000000000000000000000000000000000000000000000006020830152604082019050919050565b600061339660228361438b565b91507f45524332303a206275726e20616d6f756e7420657863656564732062616c616e60008301527f63650000000000000000000000000000000000000000000000000000000000006020830152604082019050919050565b60006133fc601f8361438b565b91507f43686169726d616e206164647265737320646f6573206e6f74206578697374006000830152602082019050919050565b600061343c60228361438b565b91507f45524332303a20617070726f766520746f20746865207a65726f20616464726560008301527f73730000000000000000000000000000000000000000000000000000000000006020830152604082019050919050565b60006134a260218361438b565b91507f45726120776974682070617373656420496420646f6573206e6f74206578697360008301527f74000000000000000000000000000000000000000000000000000000000000006020830152604082019050919050565b6000613508601d8361438b565b91507f45524332303a20696e73756666696369656e7420616c6c6f77616e63650000006000830152602082019050919050565b600061354860228361438b565b91507f496e73756666696369656e742062616c616e636520666f7220756e7374616b6960008301527f6e670000000000000000000000000000000000000000000000000000000000006020830152604082019050919050565b60006135ae60268361438b565b91507f45524332303a207472616e7366657220616d6f756e742065786365656473206260008301527f616c616e636500000000000000000000000000000000000000000000000000006020830152604082019050919050565b600061361460178361438b565b91507f56616c696461746f7220616c726561647920766f7465640000000000000000006000830152602082019050919050565b600061365460208361438b565b91507f496e73756666696369656e742062616c616e636520666f72207374616b696e676000830152602082019050919050565b600061369460258361438b565b91507f4572612077697468207468652073616d6520494420616c72656164792070726f60008301527f706f7365640000000000000000000000000000000000000000000000000000006020830152604082019050919050565b60006136fa602f8361438b565b91507f43616c6c6572206e6f742070726576696f7573206572612063686169726d616e60008301527f2e204163636573732064656e69656400000000000000000000000000000000006020830152604082019050919050565b600061376060258361438b565b91507f41646472657373206e6f74206c696e6b656420746f20616e79207374616b656860008301527f6f6c6465720000000000000000000000000000000000000000000000000000006020830152604082019050919050565b60006137c660218361438b565b91507f4f6e6c792063686169726d616e2063616e20656e642063757272656e7420657260008301527f61000000000000000000000000000000000000000000000000000000000000006020830152604082019050919050565b600061382c60238361438b565b91507f566f74696e6720666f7262696464656e20666f72206e6f6e2d76616c6964617460008301527f6f727300000000000000000000000000000000000000000000000000000000006020830152604082019050919050565b600061389260298361438b565b91507f496e76616c696420696e64657820666f72207374616b65686f6c64657273206360008301527f6f6c6c656374696f6e00000000000000000000000000000000000000000000006020830152604082019050919050565b60006138f860218361438b565b91507f45524332303a206275726e2066726f6d20746865207a65726f2061646472657360008301527f73000000000000000000000000000000000000000000000000000000000000006020830152604082019050919050565b600061395e60258361438b565b91507f45524332303a207472616e736665722066726f6d20746865207a65726f20616460008301527f64726573730000000000000000000000000000000000000000000000000000006020830152604082019050919050565b60006139c460248361438b565b91507f45524332303a20617070726f76652066726f6d20746865207a65726f2061646460008301527f72657373000000000000000000000000000000000000000000000000000000006020830152604082019050919050565b6000613a2a601f8361438b565b91507f566f746520616c726561647920656e64656420666f72207468617420657261006000830152602082019050919050565b6000613a6a60258361438b565b91507f45524332303a2064656372656173656420616c6c6f77616e63652062656c6f7760008301527f207a65726f0000000000000000000000000000000000000000000000000000006020830152604082019050919050565b6000613ad0601f8361438b565b91507f45524332303a206d696e7420746f20746865207a65726f2061646472657373006000830152602082019050919050565b61018082016000820151613b1a60008501826132cc565b506020820151613b2d60208501826132cc565b506040820151613b406040850182613df8565b506060820151613b536060850182613df8565b506080820151613b666080850182613df8565b5060a0820151613b7960a08501826131d4565b5060c0820151613b8c60c0850182613df8565b5060e0820151613b9f60e08501826132ae565b50610100820151613bb4610100850182613df8565b50610120820151613bc9610120850182613df8565b50610140820151613bde6101408501826132ae565b50610160820151613bf36101608501826132ae565b50505050565b61018082016000808301549050613c0f81614614565b613c1c60008601826132cc565b5060018301549050613c2d81614614565b613c3a60208601826132cc565b5060028301549050613c4b8161462e565b613c586040860182613df8565b5060038301549050613c698161462e565b613c766060860182613df8565b5060048301549050613c878161462e565b613c946080860182613df8565b5060058301549050613ca5816145e0565b613cb260a08601826131d4565b5060068301549050613cc38161462e565b613cd060c0860182613df8565b5060078301549050613ce1816145fa565b613cee60e08601826132ae565b5060088301549050613cff8161462e565b613d0d610100860182613df8565b5060098301549050613d1e8161462e565b613d2c610120860182613df8565b50600a8301549050613d3d816145fa565b613d4b6101408601826132ae565b50613d5581614648565b613d636101608601826132ae565b5050505050565b60e082016000820151613d8060008501826131d4565b506020820151613d936020850182613df8565b506040820151613da66040850182613df8565b506060820151613db96060850182613df8565b506080820151613dcc6080850182613df8565b5060a0820151613ddf60a08501826132ae565b5060c0820151613df260c0850182613df8565b50505050565b613e018161453a565b82525050565b613e108161453a565b82525050565b613e1f81614544565b82525050565b6000602082019050613e3a60008301846131e3565b92915050565b60006020820190508181036000830152613e5a8184613250565b905092915050565b6000602082019050613e7760008301846132bd565b92915050565b600060a082019050613e9260008301886132db565b613e9f60208301876131e3565b8181036040830152613eb181866131f2565b9050613ec06060830185613e07565b613ecd6080830184613e07565b9695505050505050565b6000606082019050613eec60008301866132db565b613ef960208301856131e3565b613f066040830184613e07565b949350505050565b60006020820190508181036000830152613f2881846132ea565b905092915050565b60006020820190508181036000830152613f4981613323565b9050919050565b60006020820190508181036000830152613f6981613389565b9050919050565b60006020820190508181036000830152613f89816133ef565b9050919050565b60006020820190508181036000830152613fa98161342f565b9050919050565b60006020820190508181036000830152613fc981613495565b9050919050565b60006020820190508181036000830152613fe9816134fb565b9050919050565b600060208201905081810360008301526140098161353b565b9050919050565b60006020820190508181036000830152614029816135a1565b9050919050565b6000602082019050818103600083015261404981613607565b9050919050565b6000602082019050818103600083015261406981613647565b9050919050565b6000602082019050818103600083015261408981613687565b9050919050565b600060208201905081810360008301526140a9816136ed565b9050919050565b600060208201905081810360008301526140c981613753565b9050919050565b600060208201905081810360008301526140e9816137b9565b9050919050565b600060208201905081810360008301526141098161381f565b9050919050565b6000602082019050818103600083015261412981613885565b9050919050565b60006020820190508181036000830152614149816138eb565b9050919050565b6000602082019050818103600083015261416981613951565b9050919050565b60006020820190508181036000830152614189816139b7565b9050919050565b600060208201905081810360008301526141a981613a1d565b9050919050565b600060208201905081810360008301526141c981613a5d565b9050919050565b600060208201905081810360008301526141e981613ac3565b9050919050565b6000610180820190506142066000830184613b03565b92915050565b6000610180820190506142226000830184613bf9565b92915050565b600060208201905061423d6000830184613e07565b92915050565b600060a0820190506142586000830188613e07565b6142656020830187613e07565b6142726040830186613e07565b61427f6060830185613e07565b61428c60808301846132bd565b9695505050505050565b60006020820190506142ab6000830184613e16565b92915050565b6000604051905081810181811067ffffffffffffffff821117156142d8576142d7614738565b5b8060405250919050565b600067ffffffffffffffff8211156142fd576142fc614738565b5b602082029050602081019050919050565b6000819050602082019050919050565b6000819050602082019050919050565b600081519050919050565b600081519050919050565b600081519050919050565b6000602082019050919050565b6000602082019050919050565b600082825260208201905092915050565b600082825260208201905092915050565b600082825260208201905092915050565b60006143a78261453a565b91506143b28361453a565b9250827fffffffffffffffffffffffffffffffffffffffffffffffffffffffffffffffff038211156143e7576143e66146ab565b5b828201905092915050565b60006143fd8261453a565b91506144088361453a565b925082614418576144176146da565b5b828204905092915050565b600061442e8261453a565b91506144398361453a565b9250817fffffffffffffffffffffffffffffffffffffffffffffffffffffffffffffffff0483118215151615614472576144716146ab565b5b828202905092915050565b60006144888261453a565b91506144938361453a565b9250828210156144a6576144a56146ab565b5b828203905092915050565b600073ffffffffffffffffffffffffffffffffffffffff82169050919050565b600060ff82169050919050565b6000819050919050565b6000819050919050565b60006144fd8261451a565b9050919050565b60008115159050919050565b6000819050919050565b600073ffffffffffffffffffffffffffffffffffffffff82169050919050565b6000819050919050565b600060ff82169050919050565b60005b8381101561456f578082015181840152602081019050614554565b8381111561457e576000848401525b50505050565b600061458f8261453a565b915060008214156145a3576145a26146ab565b5b600182039050919050565b600060028204905060018216806145c657607f821691505b602082108114156145da576145d9614709565b5b50919050565b60006145f36145ee83614778565b6144b1565b9050919050565b600061460d61460883614778565b6144d1565b9050919050565b600061462761462283614778565b6144de565b9050919050565b600061464161463c83614778565b6144e8565b9050919050565b600061465b61465683614785565b6144d1565b9050919050565b600061466d8261453a565b91507fffffffffffffffffffffffffffffffffffffffffffffffffffffffffffffffff8214156146a05761469f6146ab565b5b600182019050919050565b7f4e487b7100000000000000000000000000000000000000000000000000000000600052601160045260246000fd5b7f4e487b7100000000000000000000000000000000000000000000000000000000600052601260045260246000fd5b7f4e487b7100000000000000000000000000000000000000000000000000000000600052602260045260246000fd5b7f4e487b7100000000000000000000000000000000000000000000000000000000600052604160045260246000fd5b6000601f19601f8301169050919050565b60008160001c9050919050565b60008160081c9050919050565b61479b816144f2565b81146147a657600080fd5b50565b6147b281614504565b81146147bd57600080fd5b50565b6147c981614510565b81146147d457600080fd5b50565b6147e08161453a565b81146147eb57600080fd5b5056fea26469706673582212204a59d864c51e210f46c9f485436fafcad582db43a53c5ed66cb53e6ec39f61cd64736f6c63430008000033",
  "immutableReferences": {
    "1960": [
      {
        "length": 32,
        "start": 7059
      }
    ],
    "2605": [
      {
        "length": 32,
        "start": 2173
      },
      {
        "length": 32,
        "start": 9684
      },
      {
        "length": 32,
        "start": 10552
      }
    ]
  },
  "source": "pragma solidity ^0.8.0;\r\n\r\nimport \"./base/ERC20ProofOfStake.sol\";\r\n\r\ncontract GoldOracleToken is ERC20ProofOfStake {\r\n    uint256 private constant MIN_STAKED_AMOUNT_REQUIRED_FOR_VALIDATION =\r\n        20000 * 10**18;\r\n    uint256 private constant REWARD_AMOUNT_IN_TOKENS_AFTER_EACH_ERA =\r\n        1000 * 10**18;\r\n    address private _owner;\r\n\r\n    constructor()\r\n        ERC20ProofOfStake(\r\n            \"GoldOracleToken\",\r\n            \"GOT\",\r\n            MIN_STAKED_AMOUNT_REQUIRED_FOR_VALIDATION,\r\n            REWARD_AMOUNT_IN_TOKENS_AFTER_EACH_ERA\r\n        )\r\n    {\r\n        _owner = msg.sender;\r\n        _mint(msg.sender, MIN_STAKED_AMOUNT_REQUIRED_FOR_VALIDATION * 10); // for testing\r\n    }\r\n\r\n    function getOwnerAddress() public view returns (address) {\r\n        return _owner;\r\n    }\r\n}\r\n",
  "sourcePath": "D:\\Documents\\Dev\\Repositories\\gold-price-oracle\\gold-price-oracle\\on-chain\\contracts\\token\\GoldOracleToken.sol",
  "compiler": {
    "name": "solc",
    "version": "0.8.0+commit.c7dfd78e.Emscripten.clang"
  },
  "schemaVersion": "3.4.3",
  "updatedAt": "2022-03-17T11:47:38.170Z",
  "devdoc": {
    "kind": "dev",
    "methods": {
      "allowance(address,address)": {
        "details": "See {IERC20-allowance}."
      },
      "approve(address,uint256)": {
        "details": "See {IERC20-approve}. NOTE: If `amount` is the maximum `uint256`, the allowance is not updated on `transferFrom`. This is semantically equivalent to an infinite approval. Requirements: - `spender` cannot be the zero address."
      },
      "balanceOf(address)": {
        "details": "See {IERC20-balanceOf}."
      },
      "decimals()": {
        "details": "Returns the number of decimals used to get its user representation. For example, if `decimals` equals `2`, a balance of `505` tokens should be displayed to a user as `5.05` (`505 / 10 ** 2`). Tokens usually opt for a value of 18, imitating the relationship between Ether and Wei. This is the value {ERC20} uses, unless this function is overridden; NOTE: This information is only used for _display_ purposes: it in no way affects any of the arithmetic of the contract, including {IERC20-balanceOf} and {IERC20-transfer}."
      },
      "decreaseAllowance(address,uint256)": {
        "details": "Atomically decreases the allowance granted to `spender` by the caller. This is an alternative to {approve} that can be used as a mitigation for problems described in {IERC20-approve}. Emits an {Approval} event indicating the updated allowance. Requirements: - `spender` cannot be the zero address. - `spender` must have allowance for the caller of at least `subtractedValue`."
      },
      "increaseAllowance(address,uint256)": {
        "details": "Atomically increases the allowance granted to `spender` by the caller. This is an alternative to {approve} that can be used as a mitigation for problems described in {IERC20-approve}. Emits an {Approval} event indicating the updated allowance. Requirements: - `spender` cannot be the zero address."
      },
      "name()": {
        "details": "Returns the name of the token."
      },
      "symbol()": {
        "details": "Returns the symbol of the token, usually a shorter version of the name."
      },
      "totalSupply()": {
        "details": "See {IERC20-totalSupply}."
      },
      "transfer(address,uint256)": {
        "details": "See {IERC20-transfer}. Requirements: - `to` cannot be the zero address. - the caller must have a balance of at least `amount`."
      },
      "transferFrom(address,address,uint256)": {
        "details": "See {IERC20-transferFrom}. Emits an {Approval} event indicating the updated allowance. This is not required by the EIP. See the note at the beginning of {ERC20}. NOTE: Does not update the allowance if the current allowance is the maximum `uint256`. Requirements: - `from` and `to` cannot be the zero address. - `from` must have a balance of at least `amount`. - the caller must have allowance for ``from``'s tokens of at least `amount`."
      }
    },
    "version": 1
  },
  "userdoc": {
    "kind": "user",
    "methods": {},
    "version": 1
  }
}