{
  "contractName": "GoldPriceResolver",
  "abi": [
    {
      "inputs": [
        {
          "internalType": "address",
          "name": "nodeAddress_",
          "type": "address"
        },
        {
          "internalType": "uint256",
          "name": "price_",
          "type": "uint256"
        }
      ],
      "name": "resolvePrice",
      "outputs": [],
      "stateMutability": "nonpayable",
      "type": "function"
    },
    {
      "inputs": [],
      "name": "getLatestRoundData",
      "outputs": [
        {
          "components": [
            {
              "internalType": "bytes32",
              "name": "roundId",
              "type": "bytes32"
            },
            {
              "internalType": "uint256",
              "name": "nonce",
              "type": "uint256"
            },
            {
              "internalType": "address",
              "name": "node",
              "type": "address"
            },
            {
              "internalType": "uint256",
              "name": "price",
              "type": "uint256"
            },
            {
              "internalType": "string",
              "name": "assetCode",
              "type": "string"
            },
            {
              "internalType": "string",
              "name": "currencyCode",
              "type": "string"
            },
            {
              "internalType": "uint256",
              "name": "requiredQuorum",
              "type": "uint256"
            },
            {
              "internalType": "bool",
              "name": "isQuorumReached",
              "type": "bool"
            }
          ],
          "internalType": "struct Rounds.Round",
          "name": "round",
          "type": "tuple"
        }
      ],
      "stateMutability": "view",
      "type": "function"
    },
    {
      "inputs": [],
      "name": "getLatestValidData",
      "outputs": [
        {
          "components": [
            {
              "internalType": "bytes32",
              "name": "roundId",
              "type": "bytes32"
            },
            {
              "internalType": "uint256",
              "name": "nonce",
              "type": "uint256"
            },
            {
              "internalType": "address",
              "name": "node",
              "type": "address"
            },
            {
              "internalType": "uint256",
              "name": "price",
              "type": "uint256"
            },
            {
              "internalType": "string",
              "name": "assetCode",
              "type": "string"
            },
            {
              "internalType": "string",
              "name": "currencyCode",
              "type": "string"
            },
            {
              "internalType": "uint256",
              "name": "requiredQuorum",
              "type": "uint256"
            },
            {
              "internalType": "bool",
              "name": "isQuorumReached",
              "type": "bool"
            }
          ],
          "internalType": "struct Rounds.Round",
          "name": "round",
          "type": "tuple"
        }
      ],
      "stateMutability": "view",
      "type": "function"
    }
  ],
  "bytecode": "0x608060405260018055735b38da6a701c568545dcfcb03fcb875f56beddc4600260006101000a81548173ffffffffffffffffffffffffffffffffffffffff021916908373ffffffffffffffffffffffffffffffffffffffff16021790555034801561006957600080fd5b5061129b806100796000396000f3fe608060405234801561001057600080fd5b50600436106100415760003560e01c80632daae2f3146100465780635b9a6d9e14610064578063888a9fba14610080575b600080fd5b61004e61009e565b60405161005b9190610f26565b60405180910390f35b61007e60048036038101906100799190610c6d565b6102e1565b005b610088610600565b6040516100959190610f26565b60405180910390f35b6100a6610b40565b600080805490509050600081146102dc5760006001826100c69190611000565b815481106100fd577f4e487b7100000000000000000000000000000000000000000000000000000000600052603260045260246000fd5b90600052602060002090600802016040518061010001604052908160008201548152602001600182015481526020016002820160009054906101000a900473ffffffffffffffffffffffffffffffffffffffff1673ffffffffffffffffffffffffffffffffffffffff1673ffffffffffffffffffffffffffffffffffffffff1681526020016003820154815260200160048201805461019b906110e3565b80601f01602080910402602001604051908101604052809291908181526020018280546101c7906110e3565b80156102145780601f106101e957610100808354040283529160200191610214565b820191906000526020600020905b8154815290600101906020018083116101f757829003601f168201915b5050505050815260200160058201805461022d906110e3565b80601f0160208091040260200160405190810160405280929190818152602001828054610259906110e3565b80156102a65780601f1061027b576101008083540402835291602001916102a6565b820191906000526020600020905b81548152906001019060200180831161028957829003601f168201915b50505050508152602001600682015481526020016007820160009054906101000a900460ff1615151515815250509150506102de565b505b90565b600073ffffffffffffffffffffffffffffffffffffffff168273ffffffffffffffffffffffffffffffffffffffff161415610351576040517f08c379a000000000000000000000000000000000000000000000000000000000815260040161034890610ee6565b60405180910390fd5b600260009054906101000a900473ffffffffffffffffffffffffffffffffffffffff1673ffffffffffffffffffffffffffffffffffffffff168273ffffffffffffffffffffffffffffffffffffffff16146103e1576040517f08c379a00000000000000000000000000000000000000000000000000000000081526004016103d890610f06565b60405180910390fd5b6000806103ec61009e565b9050600081602001511461040257806020015191505b818061040d90611115565b925050600060405180610100016040528086858760405160200161043393929190610ea9565b6040516020818303038152906040528051906020012081526020018481526020018673ffffffffffffffffffffffffffffffffffffffff1681526020018581526020016040518060400160405280600381526020017f585541000000000000000000000000000000000000000000000000000000000081525081526020016040518060400160405280600481526020017f555344540000000000000000000000000000000000000000000000000000000081525081526020016104f4610b04565b81526020016000151581525090506000819080600181540180825580915050600190039060005260206000209060080201600090919091909150600082015181600001556020820151816001015560408201518160020160006101000a81548173ffffffffffffffffffffffffffffffffffffffff021916908373ffffffffffffffffffffffffffffffffffffffff1602179055506060820151816003015560808201518160040190805190602001906105af929190610ba0565b5060a08201518160050190805190602001906105cc929190610ba0565b5060c0820151816006015560e08201518160070160006101000a81548160ff02191690831515021790555050505050505050565b610608610b40565b60008080549050905060008114610aff5760006001826106289190611000565b90506000808281548110610665577f4e487b7100000000000000000000000000000000000000000000000000000000600052603260045260246000fd5b90600052602060002090600802016040518061010001604052908160008201548152602001600182015481526020016002820160009054906101000a900473ffffffffffffffffffffffffffffffffffffffff1673ffffffffffffffffffffffffffffffffffffffff1673ffffffffffffffffffffffffffffffffffffffff16815260200160038201548152602001600482018054610703906110e3565b80601f016020809104026020016040519081016040528092919081815260200182805461072f906110e3565b801561077c5780601f106107515761010080835404028352916020019161077c565b820191906000526020600020905b81548152906001019060200180831161075f57829003601f168201915b50505050508152602001600582018054610795906110e3565b80601f01602080910402602001604051908101604052809291908181526020018280546107c1906110e3565b801561080e5780601f106107e35761010080835404028352916020019161080e565b820191906000526020600020905b8154815290600101906020018083116107f157829003601f168201915b50505050508152602001600682015481526020016007820160009054906101000a900460ff16151515158152505090508360e001511561085357809350505050610b01565b60006001836108629190611000565b90505b6000811015610afb57600081815481106108a8577f4e487b7100000000000000000000000000000000000000000000000000000000600052603260045260246000fd5b906000526020600020906008020160070160009054906101000a900460ff1615610ae85760008181548110610906577f4e487b7100000000000000000000000000000000000000000000000000000000600052603260045260246000fd5b90600052602060002090600802016040518061010001604052908160008201548152602001600182015481526020016002820160009054906101000a900473ffffffffffffffffffffffffffffffffffffffff1673ffffffffffffffffffffffffffffffffffffffff1673ffffffffffffffffffffffffffffffffffffffff168152602001600382015481526020016004820180546109a4906110e3565b80601f01602080910402602001604051908101604052809291908181526020018280546109d0906110e3565b8015610a1d5780601f106109f257610100808354040283529160200191610a1d565b820191906000526020600020905b815481529060010190602001808311610a0057829003601f168201915b50505050508152602001600582018054610a36906110e3565b80601f0160208091040260200160405190810160405280929190818152602001828054610a62906110e3565b8015610aaf5780601f10610a8457610100808354040283529160200191610aaf565b820191906000526020600020905b815481529060010190602001808311610a9257829003601f168201915b50505050508152602001600682015481526020016007820160009054906101000a900460ff161515151581525050945050505050610b01565b8080610af3906110b9565b915050610865565b5050505b505b90565b6000600180541415610b195760019050610b3d565b600060646033600154610b2c9190610fa6565b610b369190610f75565b9050809150505b90565b6040518061010001604052806000801916815260200160008152602001600073ffffffffffffffffffffffffffffffffffffffff168152602001600081526020016060815260200160608152602001600081526020016000151581525090565b828054610bac906110e3565b90600052602060002090601f016020900481019282610bce5760008555610c15565b82601f10610be757805160ff1916838001178555610c15565b82800160010185558215610c15579182015b82811115610c14578251825591602001919060010190610bf9565b5b509050610c229190610c26565b5090565b5b80821115610c3f576000816000905550600101610c27565b5090565b600081359050610c5281611237565b92915050565b600081359050610c678161124e565b92915050565b60008060408385031215610c8057600080fd5b6000610c8e85828601610c43565b9250506020610c9f85828601610c58565b9150509250929050565b610cb281611034565b82525050565b610cc9610cc482611034565b61115e565b82525050565b610cd881611046565b82525050565b610ce781611052565b82525050565b6000610cf882610f48565b610d028185610f53565b9350610d12818560208601611086565b610d1b81611219565b840191505092915050565b6000610d33601783610f64565b91507f4e756c6c206164647265737320697320696e76616c69640000000000000000006000830152602082019050919050565b6000610d73602883610f64565b91507f476976656e2061646472657373206e6f7420656c656374656420666f7220766160008301527f6c69646174696f6e0000000000000000000000000000000000000000000000006020830152604082019050919050565b600061010083016000830151610de56000860182610cde565b506020830151610df86020860182610e83565b506040830151610e0b6040860182610ca9565b506060830151610e1e6060860182610e83565b5060808301518482036080860152610e368282610ced565b91505060a083015184820360a0860152610e508282610ced565b91505060c0830151610e6560c0860182610e83565b5060e0830151610e7860e0860182610ccf565b508091505092915050565b610e8c8161107c565b82525050565b610ea3610e9e8261107c565b611182565b82525050565b6000610eb58286610cb8565b601482019150610ec58285610e92565b602082019150610ed58284610e92565b602082019150819050949350505050565b60006020820190508181036000830152610eff81610d26565b9050919050565b60006020820190508181036000830152610f1f81610d66565b9050919050565b60006020820190508181036000830152610f408184610dcc565b905092915050565b600081519050919050565b600082825260208201905092915050565b600082825260208201905092915050565b6000610f808261107c565b9150610f8b8361107c565b925082610f9b57610f9a6111bb565b5b828204905092915050565b6000610fb18261107c565b9150610fbc8361107c565b9250817fffffffffffffffffffffffffffffffffffffffffffffffffffffffffffffffff0483118215151615610ff557610ff461118c565b5b828202905092915050565b600061100b8261107c565b91506110168361107c565b9250828210156110295761102861118c565b5b828203905092915050565b600061103f8261105c565b9050919050565b60008115159050919050565b6000819050919050565b600073ffffffffffffffffffffffffffffffffffffffff82169050919050565b6000819050919050565b60005b838110156110a4578082015181840152602081019050611089565b838111156110b3576000848401525b50505050565b60006110c48261107c565b915060008214156110d8576110d761118c565b5b600182039050919050565b600060028204905060018216806110fb57607f821691505b6020821081141561110f5761110e6111ea565b5b50919050565b60006111208261107c565b91507fffffffffffffffffffffffffffffffffffffffffffffffffffffffffffffffff8214156111535761115261118c565b5b600182019050919050565b600061116982611170565b9050919050565b600061117b8261122a565b9050919050565b6000819050919050565b7f4e487b7100000000000000000000000000000000000000000000000000000000600052601160045260246000fd5b7f4e487b7100000000000000000000000000000000000000000000000000000000600052601260045260246000fd5b7f4e487b7100000000000000000000000000000000000000000000000000000000600052602260045260246000fd5b6000601f19601f8301169050919050565b60008160601b9050919050565b61124081611034565b811461124b57600080fd5b50565b6112578161107c565b811461126257600080fd5b5056fea264697066735822122025bbbb7bdd49a2b8a52e96b594ed4ca10103ffc75b392d009ee26621ec4e1cc064736f6c63430008000033",
  "immutableReferences": {},
  "source": "pragma solidity ^0.8.0;\r\n\r\nimport \"../utils/Rounds.sol\";\r\n\r\n//PoC. Big Refactoring will happened!\r\ncontract GoldPriceResolver {\r\n    uint256 constant MINIMUM_QUORUM_REQUURED_FOR_VALIDATION_IN_PERCENTS = 51;\r\n    string constant GOLD_SYMBOL = \"XUA\"; //TODO; move to separate contract when refactor\r\n    string constant USDT_SYMBOL = \"USDT\";\r\n\r\n    Rounds.Round[] private _rounds;\r\n\r\n    //TODO: this all will come form PoS. For now they are hardcoded\r\n    uint256 validatorNodesCount = 1;\r\n    address electedNodeAddress =\r\n        address(0x5B38Da6a701c568545dCfcB03FcB875f56beddC4); //TODO: this will come as a result of PoS. Hardcoded for now\r\n\r\n    function resolvePrice(address nodeAddress_, uint256 price_) public {\r\n        //call from elected node. If not revert.\r\n        //Only elected node should be able to start new round of price change\r\n        //after the price is set need to be validated - at least 51% of active nodes must approve the value\r\n        //after the quorum is reached the value is finaly set and become valid price\r\n        //only valid (validated) prices should be return to aggregator\r\n        require(nodeAddress_ != address(0), \"Null address is invalid\");\r\n        //if check and then slash - we can perform a penalty for trying to update without permission;\r\n        //for now it will be required check\r\n        require(\r\n            nodeAddress_ == electedNodeAddress,\r\n            \"Given address not elected for validation\"\r\n        );\r\n\r\n        //default nonce is 0;\r\n        uint256 nonce = 0;\r\n\r\n        //get last valid round;\r\n\r\n        Rounds.Round memory lastRound = getLatestRoundData();\r\n\r\n        //if there is already las\r\n        if (lastRound.nonce != 0) {\r\n            nonce = lastRound.nonce;\r\n        } // this is the initalRound;\r\n\r\n        nonce++;\r\n\r\n        Rounds.Round memory round = Rounds.Round({\r\n            roundId: keccak256(abi.encodePacked(nodeAddress_, nonce, price_)),\r\n            nonce: nonce,\r\n            node: nodeAddress_,\r\n            price: price_,\r\n            assetCode: GOLD_SYMBOL,\r\n            currencyCode: USDT_SYMBOL,\r\n            requiredQuorum: calculateMinimumNodesCountForReachingQuorum(),\r\n            isQuorumReached: false\r\n        });\r\n\r\n        //the elected node kick off the new round. and\r\n        _rounds.push(round);\r\n    }\r\n\r\n    function calculateMinimumNodesCountForReachingQuorum()\r\n        internal\r\n        view\r\n        returns (uint256)\r\n    {\r\n        if (validatorNodesCount == 1) {\r\n            return 1;\r\n        }\r\n\r\n        uint256 nodesRequiredForQuorum = (validatorNodesCount *\r\n            MINIMUM_QUORUM_REQUURED_FOR_VALIDATION_IN_PERCENTS) / 100;\r\n\r\n        return nodesRequiredForQuorum;\r\n    }\r\n\r\n    //valid round is considered every round\r\n    function getLatestRoundData()\r\n        public\r\n        view\r\n        returns (Rounds.Round memory round)\r\n    {\r\n        uint256 roundsLenght = _rounds.length;\r\n        if (roundsLenght != 0) return _rounds[roundsLenght - 1];\r\n    }\r\n\r\n    //valid round is considered every round with reached Quorum\r\n    function getLatestValidData()\r\n        public\r\n        view\r\n        returns (Rounds.Round memory round)\r\n    {\r\n        uint256 roundsCount = _rounds.length;\r\n        if (roundsCount != 0) {\r\n            uint256 lastRoundIndex = roundsCount - 1;\r\n            Rounds.Round memory lastRound = _rounds[lastRoundIndex];\r\n            if (round.isQuorumReached) {\r\n                return lastRound;\r\n            }\r\n\r\n            for (uint256 i = lastRoundIndex - 1; i < 0; i--) {\r\n                if (_rounds[i].isQuorumReached) {\r\n                    return _rounds[i];\r\n                }\r\n            }\r\n        }\r\n    }\r\n}\r\n",
  "sourcePath": "D:\\Documents\\Dev\\Repositories\\gold-price-oracle\\gold-price-oracle\\on-chain\\contracts\\oracle\\resolvers\\GoldPriceResolver.sol",
  "compiler": {
    "name": "solc",
    "version": "0.8.0+commit.c7dfd78e.Emscripten.clang"
  },
  "schemaVersion": "3.4.3",
  "updatedAt": "2022-02-23T11:35:43.985Z",
  "devdoc": {
    "kind": "dev",
    "methods": {},
    "version": 1
  },
  "userdoc": {
    "kind": "user",
    "methods": {},
    "version": 1
  }
}