{
  "contractName": "GoldOracleToken",
  "abi": [
    {
      "inputs": [],
      "stateMutability": "nonpayable",
      "type": "constructor"
    },
    {
      "anonymous": false,
      "inputs": [
        {
          "indexed": true,
          "internalType": "address",
          "name": "owner",
          "type": "address"
        },
        {
          "indexed": true,
          "internalType": "address",
          "name": "spender",
          "type": "address"
        },
        {
          "indexed": false,
          "internalType": "uint256",
          "name": "value",
          "type": "uint256"
        }
      ],
      "name": "Approval",
      "type": "event"
    },
    {
      "anonymous": false,
      "inputs": [
        {
          "indexed": true,
          "internalType": "address",
          "name": "from",
          "type": "address"
        },
        {
          "indexed": true,
          "internalType": "address",
          "name": "to",
          "type": "address"
        },
        {
          "indexed": false,
          "internalType": "uint256",
          "name": "value",
          "type": "uint256"
        }
      ],
      "name": "Transfer",
      "type": "event"
    },
    {
      "inputs": [
        {
          "internalType": "address",
          "name": "owner",
          "type": "address"
        },
        {
          "internalType": "address",
          "name": "spender",
          "type": "address"
        }
      ],
      "name": "allowance",
      "outputs": [
        {
          "internalType": "uint256",
          "name": "",
          "type": "uint256"
        }
      ],
      "stateMutability": "view",
      "type": "function"
    },
    {
      "inputs": [
        {
          "internalType": "address",
          "name": "spender",
          "type": "address"
        },
        {
          "internalType": "uint256",
          "name": "amount",
          "type": "uint256"
        }
      ],
      "name": "approve",
      "outputs": [
        {
          "internalType": "bool",
          "name": "",
          "type": "bool"
        }
      ],
      "stateMutability": "nonpayable",
      "type": "function"
    },
    {
      "inputs": [
        {
          "internalType": "address",
          "name": "account",
          "type": "address"
        }
      ],
      "name": "balanceOf",
      "outputs": [
        {
          "internalType": "uint256",
          "name": "",
          "type": "uint256"
        }
      ],
      "stateMutability": "view",
      "type": "function"
    },
    {
      "inputs": [],
      "name": "decimals",
      "outputs": [
        {
          "internalType": "uint8",
          "name": "",
          "type": "uint8"
        }
      ],
      "stateMutability": "view",
      "type": "function"
    },
    {
      "inputs": [
        {
          "internalType": "address",
          "name": "spender",
          "type": "address"
        },
        {
          "internalType": "uint256",
          "name": "subtractedValue",
          "type": "uint256"
        }
      ],
      "name": "decreaseAllowance",
      "outputs": [
        {
          "internalType": "bool",
          "name": "",
          "type": "bool"
        }
      ],
      "stateMutability": "nonpayable",
      "type": "function"
    },
    {
      "inputs": [
        {
          "internalType": "address",
          "name": "address_",
          "type": "address"
        }
      ],
      "name": "getStakedAmount",
      "outputs": [
        {
          "internalType": "uint256",
          "name": "",
          "type": "uint256"
        }
      ],
      "stateMutability": "view",
      "type": "function"
    },
    {
      "inputs": [
        {
          "internalType": "address",
          "name": "address_",
          "type": "address"
        }
      ],
      "name": "getStakeholderInformation",
      "outputs": [
        {
          "internalType": "uint256",
          "name": "",
          "type": "uint256"
        },
        {
          "internalType": "uint256",
          "name": "",
          "type": "uint256"
        },
        {
          "internalType": "uint256",
          "name": "",
          "type": "uint256"
        },
        {
          "internalType": "uint256",
          "name": "",
          "type": "uint256"
        },
        {
          "internalType": "bool",
          "name": "",
          "type": "bool"
        }
      ],
      "stateMutability": "view",
      "type": "function"
    },
    {
      "inputs": [
        {
          "internalType": "address",
          "name": "spender",
          "type": "address"
        },
        {
          "internalType": "uint256",
          "name": "addedValue",
          "type": "uint256"
        }
      ],
      "name": "increaseAllowance",
      "outputs": [
        {
          "internalType": "bool",
          "name": "",
          "type": "bool"
        }
      ],
      "stateMutability": "nonpayable",
      "type": "function"
    },
    {
      "inputs": [],
      "name": "name",
      "outputs": [
        {
          "internalType": "string",
          "name": "",
          "type": "string"
        }
      ],
      "stateMutability": "view",
      "type": "function"
    },
    {
      "inputs": [
        {
          "internalType": "uint256",
          "name": "amount_",
          "type": "uint256"
        }
      ],
      "name": "stake",
      "outputs": [],
      "stateMutability": "nonpayable",
      "type": "function"
    },
    {
      "inputs": [],
      "name": "symbol",
      "outputs": [
        {
          "internalType": "string",
          "name": "",
          "type": "string"
        }
      ],
      "stateMutability": "view",
      "type": "function"
    },
    {
      "inputs": [],
      "name": "totalSupply",
      "outputs": [
        {
          "internalType": "uint256",
          "name": "",
          "type": "uint256"
        }
      ],
      "stateMutability": "view",
      "type": "function"
    },
    {
      "inputs": [
        {
          "internalType": "address",
          "name": "to",
          "type": "address"
        },
        {
          "internalType": "uint256",
          "name": "amount",
          "type": "uint256"
        }
      ],
      "name": "transfer",
      "outputs": [
        {
          "internalType": "bool",
          "name": "",
          "type": "bool"
        }
      ],
      "stateMutability": "nonpayable",
      "type": "function"
    },
    {
      "inputs": [
        {
          "internalType": "address",
          "name": "from",
          "type": "address"
        },
        {
          "internalType": "address",
          "name": "to",
          "type": "address"
        },
        {
          "internalType": "uint256",
          "name": "amount",
          "type": "uint256"
        }
      ],
      "name": "transferFrom",
      "outputs": [
        {
          "internalType": "bool",
          "name": "",
          "type": "bool"
        }
      ],
      "stateMutability": "nonpayable",
      "type": "function"
    },
    {
      "inputs": [
        {
          "internalType": "uint256",
          "name": "amount_",
          "type": "uint256"
        }
      ],
      "name": "unstake",
      "outputs": [],
      "stateMutability": "nonpayable",
      "type": "function"
    },
    {
      "inputs": [],
      "name": "getOwnerAddress",
      "outputs": [
        {
          "internalType": "address",
          "name": "",
          "type": "address"
        }
      ],
      "stateMutability": "view",
      "type": "function"
    }
  ],
  "bytecode": "0x60a06040523480156200001157600080fd5b506040518060400160405280600f81526020017f476f6c644f7261636c65546f6b656e00000000000000000000000000000000008152506040518060400160405280600381526020017f474f54000000000000000000000000000000000000000000000000000000000081525069043c33c193756480000082828160039080519060200190620000a3929190620002be565b508060049080519060200190620000bc929190620002be565b505050806080818152505050505033600860006101000a81548173ffffffffffffffffffffffffffffffffffffffff021916908373ffffffffffffffffffffffffffffffffffffffff1602179055506200013533600a69043c33c19375648000006200012991906200046e565b6200013b60201b60201c565b6200056d565b600073ffffffffffffffffffffffffffffffffffffffff168273ffffffffffffffffffffffffffffffffffffffff161415620001ae576040517f08c379a0000000000000000000000000000000000000000000000000000000008152600401620001a590620003c1565b60405180910390fd5b620001c260008383620002b460201b60201c565b8060026000828254620001d6919062000411565b92505081905550806000808473ffffffffffffffffffffffffffffffffffffffff1673ffffffffffffffffffffffffffffffffffffffff16815260200190815260200160002060008282546200022d919062000411565b925050819055508173ffffffffffffffffffffffffffffffffffffffff16600073ffffffffffffffffffffffffffffffffffffffff167fddf252ad1be2c89b69c2b068fc378daa952ba7f163c4a11628f55a4df523b3ef83604051620002949190620003e3565b60405180910390a3620002b060008383620002b960201b60201c565b5050565b505050565b505050565b828054620002cc90620004d9565b90600052602060002090601f016020900481019282620002f057600085556200033c565b82601f106200030b57805160ff19168380011785556200033c565b828001600101855582156200033c579182015b828111156200033b5782518255916020019190600101906200031e565b5b5090506200034b91906200034f565b5090565b5b808211156200036a57600081600090555060010162000350565b5090565b60006200037d601f8362000400565b91507f45524332303a206d696e7420746f20746865207a65726f2061646472657373006000830152602082019050919050565b620003bb81620004cf565b82525050565b60006020820190508181036000830152620003dc816200036e565b9050919050565b6000602082019050620003fa6000830184620003b0565b92915050565b600082825260208201905092915050565b60006200041e82620004cf565b91506200042b83620004cf565b9250827fffffffffffffffffffffffffffffffffffffffffffffffffffffffffffffffff038211156200046357620004626200050f565b5b828201905092915050565b60006200047b82620004cf565b91506200048883620004cf565b9250817fffffffffffffffffffffffffffffffffffffffffffffffffffffffffffffffff0483118215151615620004c457620004c36200050f565b5b828202905092915050565b6000819050919050565b60006002820490506001821680620004f257607f821691505b602082108114156200050957620005086200053e565b5b50919050565b7f4e487b7100000000000000000000000000000000000000000000000000000000600052601160045260246000fd5b7f4e487b7100000000000000000000000000000000000000000000000000000000600052602260045260246000fd5b6080516125c2620005976000396000818161069b01528181611338015261167a01526125c26000f3fe608060405234801561001057600080fd5b50600436106101005760003560e01c80633950935111610097578063a457c2d711610066578063a457c2d7146102db578063a694fc3a1461030b578063a9059cbb14610327578063dd62ed3e1461035757610100565b8063395093511461022d5780634da6a5561461025d57806370a082311461028d57806395d89b41146102bd57610100565b806323b872dd116100d357806323b872dd1461018f5780632bf9262c146101bf5780632e17de78146101f3578063313ce5671461020f57610100565b806306fdde0314610105578063095ea7b3146101235780630c4f65bd1461015357806318160ddd14610171575b600080fd5b61010d610387565b60405161011a91906120db565b60405180910390f35b61013d60048036038101906101389190611a80565b610419565b60405161014a91906120c0565b60405180910390f35b61015b61043c565b60405161016891906120a5565b60405180910390f35b610179610466565b60405161018691906122bd565b60405180910390f35b6101a960048036038101906101a49190611a31565b610470565b6040516101b691906120c0565b60405180910390f35b6101d960048036038101906101d491906119cc565b61049f565b6040516101ea9594939291906122d8565b60405180910390f35b61020d60048036038101906102089190611abc565b61057d565b005b610217610712565b604051610224919061232b565b60405180910390f35b61024760048036038101906102429190611a80565b61071b565b60405161025491906120c0565b60405180910390f35b610277600480360381019061027291906119cc565b6107c5565b60405161028491906122bd565b60405180910390f35b6102a760048036038101906102a291906119cc565b61087e565b6040516102b491906122bd565b60405180910390f35b6102c56108c6565b6040516102d291906120db565b60405180910390f35b6102f560048036038101906102f09190611a80565b610958565b60405161030291906120c0565b60405180910390f35b61032560048036038101906103209190611abc565b610a42565b005b610341600480360381019061033c9190611a80565b610b57565b60405161034e91906120c0565b60405180910390f35b610371600480360381019061036c91906119f5565b610b7a565b60405161037e91906122bd565b60405180910390f35b60606003805461039690612474565b80601f01602080910402602001604051908101604052809291908181526020018280546103c290612474565b801561040f5780601f106103e45761010080835404028352916020019161040f565b820191906000526020600020905b8154815290600101906020018083116103f257829003601f168201915b5050505050905090565b600080610424610c01565b9050610431818585610c09565b600191505092915050565b6000600860009054906101000a900473ffffffffffffffffffffffffffffffffffffffff16905090565b6000600254905090565b60008061047b610c01565b9050610488858285610dd4565b610493858585610e60565b60019150509392505050565b6000806000806000806104b1876110e1565b9050600081116104f6576040517f08c379a00000000000000000000000000000000000000000000000000000000081526004016104ed906121dd565b60405180910390fd5b600060058281548110610532577f4e487b7100000000000000000000000000000000000000000000000000000000600052603260045260246000fd5b9060005260206000209060060201905080600101548160020154826003015483600401548460050160009054906101000a900460ff1696509650965096509650505091939590929450565b60003390506000600760008373ffffffffffffffffffffffffffffffffffffffff1673ffffffffffffffffffffffffffffffffffffffff16815260200190815260200160002054905060008114156105d657505061070f565b600060058281548110610612577f4e487b7100000000000000000000000000000000000000000000000000000000600052603260045260246000fd5b906000526020600020906006020190508381600101541015610669576040517f08c379a00000000000000000000000000000000000000000000000000000000081526004016106609061217d565b60405180910390fd5b60008482600101600082825461067f91906123b8565b92505081905590508082600101819055508082600201819055507f000000000000000000000000000000000000000000000000000000000000000081106106e25760018260050160006101000a81548160ff021916908315150217905550610700565b60008260050160006101000a81548160ff0219169083151502179055505b61070a84866111d4565b505050505b50565b60006012905090565b600080610726610c01565b90506107ba818585600160008673ffffffffffffffffffffffffffffffffffffffff1673ffffffffffffffffffffffffffffffffffffffff16815260200190815260200160002060008973ffffffffffffffffffffffffffffffffffffffff1673ffffffffffffffffffffffffffffffffffffffff168152602001908152602001600020546107b59190612362565b610c09565b600191505092915050565b600081600073ffffffffffffffffffffffffffffffffffffffff168173ffffffffffffffffffffffffffffffffffffffff16141561080257600080fd5b600061080d846110e1565b90506000811415610822576000925050610878565b60006005828154811061085e577f4e487b7100000000000000000000000000000000000000000000000000000000600052603260045260246000fd5b906000526020600020906006020190508060010154935050505b50919050565b60008060008373ffffffffffffffffffffffffffffffffffffffff1673ffffffffffffffffffffffffffffffffffffffff168152602001908152602001600020549050919050565b6060600480546108d590612474565b80601f016020809104026020016040519081016040528092919081815260200182805461090190612474565b801561094e5780601f106109235761010080835404028352916020019161094e565b820191906000526020600020905b81548152906001019060200180831161093157829003601f168201915b5050505050905090565b600080610963610c01565b90506000600160008373ffffffffffffffffffffffffffffffffffffffff1673ffffffffffffffffffffffffffffffffffffffff16815260200190815260200160002060008673ffffffffffffffffffffffffffffffffffffffff1673ffffffffffffffffffffffffffffffffffffffff16815260200190815260200160002054905083811015610a29576040517f08c379a0000000000000000000000000000000000000000000000000000000008152600401610a209061227d565b60405180910390fd5b610a368286868403610c09565b60019250505092915050565b600033905060003073ffffffffffffffffffffffffffffffffffffffff166370a08231836040518263ffffffff1660e01b8152600401610a8291906120a5565b60206040518083038186803b158015610a9a57600080fd5b505afa158015610aae573d6000803e3d6000fd5b505050506040513d601f19601f82011682018060405250810190610ad29190611ae5565b905082811015610b17576040517f08c379a0000000000000000000000000000000000000000000000000000000008152600401610b0e906121bd565b60405180910390fd5b6000610b22836110e1565b90506000811415610b3c57610b378385611334565b610b47565b610b4681856115de565b5b610b5183856116fd565b50505050565b600080610b62610c01565b9050610b6f818585610e60565b600191505092915050565b6000600160008473ffffffffffffffffffffffffffffffffffffffff1673ffffffffffffffffffffffffffffffffffffffff16815260200190815260200160002060008373ffffffffffffffffffffffffffffffffffffffff1673ffffffffffffffffffffffffffffffffffffffff16815260200190815260200160002054905092915050565b600033905090565b600073ffffffffffffffffffffffffffffffffffffffff168373ffffffffffffffffffffffffffffffffffffffff161415610c79576040517f08c379a0000000000000000000000000000000000000000000000000000000008152600401610c709061225d565b60405180910390fd5b600073ffffffffffffffffffffffffffffffffffffffff168273ffffffffffffffffffffffffffffffffffffffff161415610ce9576040517f08c379a0000000000000000000000000000000000000000000000000000000008152600401610ce09061213d565b60405180910390fd5b80600160008573ffffffffffffffffffffffffffffffffffffffff1673ffffffffffffffffffffffffffffffffffffffff16815260200190815260200160002060008473ffffffffffffffffffffffffffffffffffffffff1673ffffffffffffffffffffffffffffffffffffffff168152602001908152602001600020819055508173ffffffffffffffffffffffffffffffffffffffff168373ffffffffffffffffffffffffffffffffffffffff167f8c5be1e5ebec7d5bd14f71427d1e84f3dd0314c0f7b2291e5b200ac8c7c3b92583604051610dc791906122bd565b60405180910390a3505050565b6000610de08484610b7a565b90507fffffffffffffffffffffffffffffffffffffffffffffffffffffffffffffffff8114610e5a5781811015610e4c576040517f08c379a0000000000000000000000000000000000000000000000000000000008152600401610e439061215d565b60405180910390fd5b610e598484848403610c09565b5b50505050565b600073ffffffffffffffffffffffffffffffffffffffff168373ffffffffffffffffffffffffffffffffffffffff161415610ed0576040517f08c379a0000000000000000000000000000000000000000000000000000000008152600401610ec79061223d565b60405180910390fd5b600073ffffffffffffffffffffffffffffffffffffffff168273ffffffffffffffffffffffffffffffffffffffff161415610f40576040517f08c379a0000000000000000000000000000000000000000000000000000000008152600401610f37906120fd565b60405180910390fd5b610f4b8383836118d4565b60008060008573ffffffffffffffffffffffffffffffffffffffff1673ffffffffffffffffffffffffffffffffffffffff16815260200190815260200160002054905081811015610fd1576040517f08c379a0000000000000000000000000000000000000000000000000000000008152600401610fc89061219d565b60405180910390fd5b8181036000808673ffffffffffffffffffffffffffffffffffffffff1673ffffffffffffffffffffffffffffffffffffffff16815260200190815260200160002081905550816000808573ffffffffffffffffffffffffffffffffffffffff1673ffffffffffffffffffffffffffffffffffffffff16815260200190815260200160002060008282546110649190612362565b925050819055508273ffffffffffffffffffffffffffffffffffffffff168473ffffffffffffffffffffffffffffffffffffffff167fddf252ad1be2c89b69c2b068fc378daa952ba7f163c4a11628f55a4df523b3ef846040516110c891906122bd565b60405180910390a36110db8484846118d9565b50505050565b600081600073ffffffffffffffffffffffffffffffffffffffff168173ffffffffffffffffffffffffffffffffffffffff16141561111e57600080fd5b6000600760008573ffffffffffffffffffffffffffffffffffffffff1673ffffffffffffffffffffffffffffffffffffffff16815260200190815260200160002054905060008114156111755760009250506111ce565b600160058054905061118791906123b8565b8111156111c9576040517f08c379a00000000000000000000000000000000000000000000000000000000081526004016111c0906121fd565b60405180910390fd5b809250505b50919050565b600073ffffffffffffffffffffffffffffffffffffffff168273ffffffffffffffffffffffffffffffffffffffff161415611244576040517f08c379a000000000000000000000000000000000000000000000000000000000815260040161123b9061229d565b60405180910390fd5b611250600083836118d4565b80600260008282546112629190612362565b92505081905550806000808473ffffffffffffffffffffffffffffffffffffffff1673ffffffffffffffffffffffffffffffffffffffff16815260200190815260200160002060008282546112b79190612362565b925050819055508173ffffffffffffffffffffffffffffffffffffffff16600073ffffffffffffffffffffffffffffffffffffffff167fddf252ad1be2c89b69c2b068fc378daa952ba7f163c4a11628f55a4df523b3ef8360405161131c91906122bd565b60405180910390a3611330600083836118d9565b5050565b60007f0000000000000000000000000000000000000000000000000000000000000000821015905060006005805490509050600081141561148557808061137a906124a6565b91505060056040518060c00160405280600073ffffffffffffffffffffffffffffffffffffffff1681526020016000815260200160008152602001600081526020016000815260200160001515815250908060018154018082558091505060019003906000526020600020906006020160009091909190915060008201518160000160006101000a81548173ffffffffffffffffffffffffffffffffffffffff021916908373ffffffffffffffffffffffffffffffffffffffff1602179055506020820151816001015560408201518160020155606082015181600301556080820151816004015560a08201518160050160006101000a81548160ff02191690831515021790555050505b60056040518060c001604052808673ffffffffffffffffffffffffffffffffffffffff1681526020018581526020018581526020016000815260200160008152602001841515815250908060018154018082558091505060019003906000526020600020906006020160009091909190915060008201518160000160006101000a81548173ffffffffffffffffffffffffffffffffffffffff021916908373ffffffffffffffffffffffffffffffffffffffff1602179055506020820151816001015560408201518160020155606082015181600301556080820151816004015560a08201518160050160006101000a81548160ff021916908315150217905550505080600760008673ffffffffffffffffffffffffffffffffffffffff1673ffffffffffffffffffffffffffffffffffffffff168152602001908152602001600020819055506115d78285836118de565b5050505050565b60006005838154811061161a577f4e487b7100000000000000000000000000000000000000000000000000000000600052603260045260246000fd5b906000526020600020906006020190508181600101600082825461163e9190612362565b92505081905550818160020160008282546116599190612362565b925050819055508060050160009054906101000a900460ff166116f85760007f000000000000000000000000000000000000000000000000000000000000000082600101541015905080156116f65760018260050160006101000a81548160ff0219169083151502179055506116f4818360000160009054906101000a900473ffffffffffffffffffffffffffffffffffffffff16866118de565b505b505b505050565b600073ffffffffffffffffffffffffffffffffffffffff168273ffffffffffffffffffffffffffffffffffffffff16141561176d576040517f08c379a00000000000000000000000000000000000000000000000000000000081526004016117649061221d565b60405180910390fd5b611779826000836118d4565b60008060008473ffffffffffffffffffffffffffffffffffffffff1673ffffffffffffffffffffffffffffffffffffffff168152602001908152602001600020549050818110156117ff576040517f08c379a00000000000000000000000000000000000000000000000000000000081526004016117f69061211d565b60405180910390fd5b8181036000808573ffffffffffffffffffffffffffffffffffffffff1673ffffffffffffffffffffffffffffffffffffffff16815260200190815260200160002081905550816002600082825461185691906123b8565b92505081905550600073ffffffffffffffffffffffffffffffffffffffff168373ffffffffffffffffffffffffffffffffffffffff167fddf252ad1be2c89b69c2b068fc378daa952ba7f163c4a11628f55a4df523b3ef846040516118bb91906122bd565b60405180910390a36118cf836000846118d9565b505050565b505050565b505050565b6000836118ee5760009050611986565b6000600660008573ffffffffffffffffffffffffffffffffffffffff1673ffffffffffffffffffffffffffffffffffffffff16815260200190815260200160002054905060008114156119805782600660008673ffffffffffffffffffffffffffffffffffffffff1673ffffffffffffffffffffffffffffffffffffffff168152602001908152602001600020819055505b60019150505b9392505050565b60008135905061199c8161255e565b92915050565b6000813590506119b181612575565b92915050565b6000815190506119c681612575565b92915050565b6000602082840312156119de57600080fd5b60006119ec8482850161198d565b91505092915050565b60008060408385031215611a0857600080fd5b6000611a168582860161198d565b9250506020611a278582860161198d565b9150509250929050565b600080600060608486031215611a4657600080fd5b6000611a548682870161198d565b9350506020611a658682870161198d565b9250506040611a76868287016119a2565b9150509250925092565b60008060408385031215611a9357600080fd5b6000611aa18582860161198d565b9250506020611ab2858286016119a2565b9150509250929050565b600060208284031215611ace57600080fd5b6000611adc848285016119a2565b91505092915050565b600060208284031215611af757600080fd5b6000611b05848285016119b7565b91505092915050565b611b17816123ec565b82525050565b611b26816123fe565b82525050565b6000611b3782612346565b611b418185612351565b9350611b51818560208601612441565b611b5a8161254d565b840191505092915050565b6000611b72602383612351565b91507f45524332303a207472616e7366657220746f20746865207a65726f206164647260008301527f65737300000000000000000000000000000000000000000000000000000000006020830152604082019050919050565b6000611bd8602283612351565b91507f45524332303a206275726e20616d6f756e7420657863656564732062616c616e60008301527f63650000000000000000000000000000000000000000000000000000000000006020830152604082019050919050565b6000611c3e602283612351565b91507f45524332303a20617070726f766520746f20746865207a65726f20616464726560008301527f73730000000000000000000000000000000000000000000000000000000000006020830152604082019050919050565b6000611ca4601d83612351565b91507f45524332303a20696e73756666696369656e7420616c6c6f77616e63650000006000830152602082019050919050565b6000611ce4602283612351565b91507f496e73756666696369656e742062616c616e636520666f7220756e7374616b6960008301527f6e670000000000000000000000000000000000000000000000000000000000006020830152604082019050919050565b6000611d4a602683612351565b91507f45524332303a207472616e7366657220616d6f756e742065786365656473206260008301527f616c616e636500000000000000000000000000000000000000000000000000006020830152604082019050919050565b6000611db0602083612351565b91507f496e73756666696369656e742062616c616e636520666f72207374616b696e676000830152602082019050919050565b6000611df0602583612351565b91507f41646472657373206e6f74206c696e6b656420746f20616e79207374616b656860008301527f6f6c6465720000000000000000000000000000000000000000000000000000006020830152604082019050919050565b6000611e56602983612351565b91507f496e76616c696420696e64657820666f72207374616b65686f6c64657273206360008301527f6f6c6c656374696f6e00000000000000000000000000000000000000000000006020830152604082019050919050565b6000611ebc602183612351565b91507f45524332303a206275726e2066726f6d20746865207a65726f2061646472657360008301527f73000000000000000000000000000000000000000000000000000000000000006020830152604082019050919050565b6000611f22602583612351565b91507f45524332303a207472616e736665722066726f6d20746865207a65726f20616460008301527f64726573730000000000000000000000000000000000000000000000000000006020830152604082019050919050565b6000611f88602483612351565b91507f45524332303a20617070726f76652066726f6d20746865207a65726f2061646460008301527f72657373000000000000000000000000000000000000000000000000000000006020830152604082019050919050565b6000611fee602583612351565b91507f45524332303a2064656372656173656420616c6c6f77616e63652062656c6f7760008301527f207a65726f0000000000000000000000000000000000000000000000000000006020830152604082019050919050565b6000612054601f83612351565b91507f45524332303a206d696e7420746f20746865207a65726f2061646472657373006000830152602082019050919050565b6120908161242a565b82525050565b61209f81612434565b82525050565b60006020820190506120ba6000830184611b0e565b92915050565b60006020820190506120d56000830184611b1d565b92915050565b600060208201905081810360008301526120f58184611b2c565b905092915050565b6000602082019050818103600083015261211681611b65565b9050919050565b6000602082019050818103600083015261213681611bcb565b9050919050565b6000602082019050818103600083015261215681611c31565b9050919050565b6000602082019050818103600083015261217681611c97565b9050919050565b6000602082019050818103600083015261219681611cd7565b9050919050565b600060208201905081810360008301526121b681611d3d565b9050919050565b600060208201905081810360008301526121d681611da3565b9050919050565b600060208201905081810360008301526121f681611de3565b9050919050565b6000602082019050818103600083015261221681611e49565b9050919050565b6000602082019050818103600083015261223681611eaf565b9050919050565b6000602082019050818103600083015261225681611f15565b9050919050565b6000602082019050818103600083015261227681611f7b565b9050919050565b6000602082019050818103600083015261229681611fe1565b9050919050565b600060208201905081810360008301526122b681612047565b9050919050565b60006020820190506122d26000830184612087565b92915050565b600060a0820190506122ed6000830188612087565b6122fa6020830187612087565b6123076040830186612087565b6123146060830185612087565b6123216080830184611b1d565b9695505050505050565b60006020820190506123406000830184612096565b92915050565b600081519050919050565b600082825260208201905092915050565b600061236d8261242a565b91506123788361242a565b9250827fffffffffffffffffffffffffffffffffffffffffffffffffffffffffffffffff038211156123ad576123ac6124ef565b5b828201905092915050565b60006123c38261242a565b91506123ce8361242a565b9250828210156123e1576123e06124ef565b5b828203905092915050565b60006123f78261240a565b9050919050565b60008115159050919050565b600073ffffffffffffffffffffffffffffffffffffffff82169050919050565b6000819050919050565b600060ff82169050919050565b60005b8381101561245f578082015181840152602081019050612444565b8381111561246e576000848401525b50505050565b6000600282049050600182168061248c57607f821691505b602082108114156124a05761249f61251e565b5b50919050565b60006124b18261242a565b91507fffffffffffffffffffffffffffffffffffffffffffffffffffffffffffffffff8214156124e4576124e36124ef565b5b600182019050919050565b7f4e487b7100000000000000000000000000000000000000000000000000000000600052601160045260246000fd5b7f4e487b7100000000000000000000000000000000000000000000000000000000600052602260045260246000fd5b6000601f19601f8301169050919050565b612567816123ec565b811461257257600080fd5b50565b61257e8161242a565b811461258957600080fd5b5056fea2646970667358221220cf5409263f20298bb149de2429d7e06b5a17dd47a2ed8ff4ba2f69bb738a403c64736f6c63430008000033",
  "immutableReferences": {
    "1163": [
      {
        "length": 32,
        "start": 1691
      },
      {
        "length": 32,
        "start": 4920
      },
      {
        "length": 32,
        "start": 5754
      }
    ]
  },
  "source": "pragma solidity ^0.8.0;\r\n\r\nimport \"./base/ERC20Stakable.sol\";\r\n\r\ncontract GoldOracleToken is ERC20Stakable {\r\n    uint256 private constant _minAmountStakedForValidation = 20000 * 10**18;\r\n    address private _owner;\r\n\r\n    constructor()\r\n        ERC20Stakable(\"GoldOracleToken\", \"GOT\", _minAmountStakedForValidation)\r\n    {\r\n        _owner = msg.sender;\r\n        _mint(msg.sender, _minAmountStakedForValidation * 10); // for testing\r\n    }\r\n\r\n    function getOwnerAddress() public view returns (address) {\r\n        return _owner;\r\n    }\r\n}\r\n",
  "sourcePath": "D:\\Documents\\Dev\\Repositories\\gold-price-oracle\\gold-price-oracle\\on-chain\\contracts\\token\\GoldOracleToken.sol",
  "compiler": {
    "name": "solc",
    "version": "0.8.0+commit.c7dfd78e.Emscripten.clang"
  },
  "schemaVersion": "3.4.3",
  "updatedAt": "2022-02-23T11:35:43.997Z",
  "devdoc": {
    "kind": "dev",
    "methods": {
      "allowance(address,address)": {
        "details": "See {IERC20-allowance}."
      },
      "approve(address,uint256)": {
        "details": "See {IERC20-approve}. NOTE: If `amount` is the maximum `uint256`, the allowance is not updated on `transferFrom`. This is semantically equivalent to an infinite approval. Requirements: - `spender` cannot be the zero address."
      },
      "balanceOf(address)": {
        "details": "See {IERC20-balanceOf}."
      },
      "decimals()": {
        "details": "Returns the number of decimals used to get its user representation. For example, if `decimals` equals `2`, a balance of `505` tokens should be displayed to a user as `5.05` (`505 / 10 ** 2`). Tokens usually opt for a value of 18, imitating the relationship between Ether and Wei. This is the value {ERC20} uses, unless this function is overridden; NOTE: This information is only used for _display_ purposes: it in no way affects any of the arithmetic of the contract, including {IERC20-balanceOf} and {IERC20-transfer}."
      },
      "decreaseAllowance(address,uint256)": {
        "details": "Atomically decreases the allowance granted to `spender` by the caller. This is an alternative to {approve} that can be used as a mitigation for problems described in {IERC20-approve}. Emits an {Approval} event indicating the updated allowance. Requirements: - `spender` cannot be the zero address. - `spender` must have allowance for the caller of at least `subtractedValue`."
      },
      "increaseAllowance(address,uint256)": {
        "details": "Atomically increases the allowance granted to `spender` by the caller. This is an alternative to {approve} that can be used as a mitigation for problems described in {IERC20-approve}. Emits an {Approval} event indicating the updated allowance. Requirements: - `spender` cannot be the zero address."
      },
      "name()": {
        "details": "Returns the name of the token."
      },
      "symbol()": {
        "details": "Returns the symbol of the token, usually a shorter version of the name."
      },
      "totalSupply()": {
        "details": "See {IERC20-totalSupply}."
      },
      "transfer(address,uint256)": {
        "details": "See {IERC20-transfer}. Requirements: - `to` cannot be the zero address. - the caller must have a balance of at least `amount`."
      },
      "transferFrom(address,address,uint256)": {
        "details": "See {IERC20-transferFrom}. Emits an {Approval} event indicating the updated allowance. This is not required by the EIP. See the note at the beginning of {ERC20}. NOTE: Does not update the allowance if the current allowance is the maximum `uint256`. Requirements: - `from` and `to` cannot be the zero address. - `from` must have a balance of at least `amount`. - the caller must have allowance for ``from``'s tokens of at least `amount`."
      }
    },
    "version": 1
  },
  "userdoc": {
    "kind": "user",
    "methods": {},
    "version": 1
  }
}