{
  "contractName": "GoldOracleToken",
  "abi": [
    {
      "inputs": [],
      "stateMutability": "nonpayable",
      "type": "constructor"
    },
    {
      "anonymous": false,
      "inputs": [
        {
          "indexed": true,
          "internalType": "address",
          "name": "owner",
          "type": "address"
        },
        {
          "indexed": true,
          "internalType": "address",
          "name": "spender",
          "type": "address"
        },
        {
          "indexed": false,
          "internalType": "uint256",
          "name": "value",
          "type": "uint256"
        }
      ],
      "name": "Approval",
      "type": "event"
    },
    {
      "anonymous": false,
      "inputs": [
        {
          "indexed": true,
          "internalType": "address",
          "name": "from",
          "type": "address"
        },
        {
          "indexed": true,
          "internalType": "address",
          "name": "to",
          "type": "address"
        },
        {
          "indexed": false,
          "internalType": "uint256",
          "name": "value",
          "type": "uint256"
        }
      ],
      "name": "Transfer",
      "type": "event"
    },
    {
      "inputs": [
        {
          "internalType": "address",
          "name": "owner",
          "type": "address"
        },
        {
          "internalType": "address",
          "name": "spender",
          "type": "address"
        }
      ],
      "name": "allowance",
      "outputs": [
        {
          "internalType": "uint256",
          "name": "",
          "type": "uint256"
        }
      ],
      "stateMutability": "view",
      "type": "function"
    },
    {
      "inputs": [
        {
          "internalType": "address",
          "name": "spender",
          "type": "address"
        },
        {
          "internalType": "uint256",
          "name": "amount",
          "type": "uint256"
        }
      ],
      "name": "approve",
      "outputs": [
        {
          "internalType": "bool",
          "name": "",
          "type": "bool"
        }
      ],
      "stateMutability": "nonpayable",
      "type": "function"
    },
    {
      "inputs": [
        {
          "internalType": "address",
          "name": "account",
          "type": "address"
        }
      ],
      "name": "balanceOf",
      "outputs": [
        {
          "internalType": "uint256",
          "name": "",
          "type": "uint256"
        }
      ],
      "stateMutability": "view",
      "type": "function"
    },
    {
      "inputs": [],
      "name": "decimals",
      "outputs": [
        {
          "internalType": "uint8",
          "name": "",
          "type": "uint8"
        }
      ],
      "stateMutability": "view",
      "type": "function"
    },
    {
      "inputs": [
        {
          "internalType": "address",
          "name": "spender",
          "type": "address"
        },
        {
          "internalType": "uint256",
          "name": "subtractedValue",
          "type": "uint256"
        }
      ],
      "name": "decreaseAllowance",
      "outputs": [
        {
          "internalType": "bool",
          "name": "",
          "type": "bool"
        }
      ],
      "stateMutability": "nonpayable",
      "type": "function"
    },
    {
      "inputs": [],
      "name": "electNewChairman",
      "outputs": [
        {
          "internalType": "address",
          "name": "",
          "type": "address"
        }
      ],
      "stateMutability": "nonpayable",
      "type": "function"
    },
    {
      "inputs": [],
      "name": "endCurrentEra",
      "outputs": [],
      "stateMutability": "nonpayable",
      "type": "function"
    },
    {
      "inputs": [],
      "name": "getCurrentEra",
      "outputs": [
        {
          "components": [
            {
              "internalType": "bytes32",
              "name": "id",
              "type": "bytes32"
            },
            {
              "internalType": "uint256",
              "name": "colectedFeesAmount",
              "type": "uint256"
            },
            {
              "internalType": "uint256",
              "name": "startDate",
              "type": "uint256"
            },
            {
              "internalType": "uint256",
              "name": "endDate",
              "type": "uint256"
            },
            {
              "internalType": "address",
              "name": "chairman",
              "type": "address"
            }
          ],
          "internalType": "struct Eras.Era",
          "name": "currentEra",
          "type": "tuple"
        }
      ],
      "stateMutability": "view",
      "type": "function"
    },
    {
      "inputs": [],
      "name": "getErasCount",
      "outputs": [
        {
          "internalType": "uint256",
          "name": "",
          "type": "uint256"
        }
      ],
      "stateMutability": "view",
      "type": "function"
    },
    {
      "inputs": [
        {
          "internalType": "address",
          "name": "address_",
          "type": "address"
        }
      ],
      "name": "getStakedAmount",
      "outputs": [
        {
          "internalType": "uint256",
          "name": "",
          "type": "uint256"
        }
      ],
      "stateMutability": "view",
      "type": "function"
    },
    {
      "inputs": [
        {
          "internalType": "address",
          "name": "address_",
          "type": "address"
        }
      ],
      "name": "getStakeholderInformation",
      "outputs": [
        {
          "internalType": "uint256",
          "name": "",
          "type": "uint256"
        },
        {
          "internalType": "uint256",
          "name": "",
          "type": "uint256"
        },
        {
          "internalType": "uint256",
          "name": "",
          "type": "uint256"
        },
        {
          "internalType": "uint256",
          "name": "",
          "type": "uint256"
        },
        {
          "internalType": "bool",
          "name": "",
          "type": "bool"
        }
      ],
      "stateMutability": "view",
      "type": "function"
    },
    {
      "inputs": [],
      "name": "getStakeholders",
      "outputs": [
        {
          "components": [
            {
              "internalType": "address",
              "name": "user",
              "type": "address"
            },
            {
              "internalType": "uint256",
              "name": "totalAmount",
              "type": "uint256"
            },
            {
              "internalType": "uint256",
              "name": "ownedAmount",
              "type": "uint256"
            },
            {
              "internalType": "uint256",
              "name": "nominatedAmount",
              "type": "uint256"
            },
            {
              "internalType": "uint256",
              "name": "nominatorsCount",
              "type": "uint256"
            },
            {
              "internalType": "bool",
              "name": "canValidate",
              "type": "bool"
            },
            {
              "internalType": "uint256",
              "name": "notCollectedTokenRewards",
              "type": "uint256"
            }
          ],
          "internalType": "struct Stakeholders.Stakeholder[]",
          "name": "stakeholders",
          "type": "tuple[]"
        }
      ],
      "stateMutability": "view",
      "type": "function"
    },
    {
      "inputs": [],
      "name": "getValidatorsCount",
      "outputs": [
        {
          "internalType": "uint256",
          "name": "",
          "type": "uint256"
        }
      ],
      "stateMutability": "view",
      "type": "function"
    },
    {
      "inputs": [
        {
          "internalType": "address",
          "name": "spender",
          "type": "address"
        },
        {
          "internalType": "uint256",
          "name": "addedValue",
          "type": "uint256"
        }
      ],
      "name": "increaseAllowance",
      "outputs": [
        {
          "internalType": "bool",
          "name": "",
          "type": "bool"
        }
      ],
      "stateMutability": "nonpayable",
      "type": "function"
    },
    {
      "inputs": [],
      "name": "name",
      "outputs": [
        {
          "internalType": "string",
          "name": "",
          "type": "string"
        }
      ],
      "stateMutability": "view",
      "type": "function"
    },
    {
      "inputs": [
        {
          "internalType": "uint256",
          "name": "amount_",
          "type": "uint256"
        }
      ],
      "name": "stake",
      "outputs": [],
      "stateMutability": "nonpayable",
      "type": "function"
    },
    {
      "inputs": [],
      "name": "startNewEra",
      "outputs": [
        {
          "internalType": "bytes32",
          "name": "",
          "type": "bytes32"
        }
      ],
      "stateMutability": "nonpayable",
      "type": "function"
    },
    {
      "inputs": [],
      "name": "symbol",
      "outputs": [
        {
          "internalType": "string",
          "name": "",
          "type": "string"
        }
      ],
      "stateMutability": "view",
      "type": "function"
    },
    {
      "inputs": [],
      "name": "totalSupply",
      "outputs": [
        {
          "internalType": "uint256",
          "name": "",
          "type": "uint256"
        }
      ],
      "stateMutability": "view",
      "type": "function"
    },
    {
      "inputs": [
        {
          "internalType": "address",
          "name": "to",
          "type": "address"
        },
        {
          "internalType": "uint256",
          "name": "amount",
          "type": "uint256"
        }
      ],
      "name": "transfer",
      "outputs": [
        {
          "internalType": "bool",
          "name": "",
          "type": "bool"
        }
      ],
      "stateMutability": "nonpayable",
      "type": "function"
    },
    {
      "inputs": [
        {
          "internalType": "address",
          "name": "from",
          "type": "address"
        },
        {
          "internalType": "address",
          "name": "to",
          "type": "address"
        },
        {
          "internalType": "uint256",
          "name": "amount",
          "type": "uint256"
        }
      ],
      "name": "transferFrom",
      "outputs": [
        {
          "internalType": "bool",
          "name": "",
          "type": "bool"
        }
      ],
      "stateMutability": "nonpayable",
      "type": "function"
    },
    {
      "inputs": [
        {
          "internalType": "uint256",
          "name": "amount_",
          "type": "uint256"
        }
      ],
      "name": "unstake",
      "outputs": [],
      "stateMutability": "nonpayable",
      "type": "function"
    },
    {
      "inputs": [],
      "name": "getOwnerAddress",
      "outputs": [
        {
          "internalType": "address",
          "name": "",
          "type": "address"
        }
      ],
      "stateMutability": "view",
      "type": "function"
    }
  ],
  "bytecode": "0x60c06040523480156200001157600080fd5b506040518060400160405280600f81526020017f476f6c644f7261636c65546f6b656e00000000000000000000000000000000008152506040518060400160405280600381526020017f474f54000000000000000000000000000000000000000000000000000000000081525069043c33c1937564800000683635c9adc5dea0000083838160039080519060200190620000ad929190620002e1565b508060049080519060200190620000c6929190620002e1565b5050508160a081815250506000600581905550600060068190555080608081815250505050505033601060006101000a81548173ffffffffffffffffffffffffffffffffffffffff021916908373ffffffffffffffffffffffffffffffffffffffff1602179055506200015833600a69043c33c19375648000006200014c919062000491565b6200015e60201b60201c565b62000590565b600073ffffffffffffffffffffffffffffffffffffffff168273ffffffffffffffffffffffffffffffffffffffff161415620001d1576040517f08c379a0000000000000000000000000000000000000000000000000000000008152600401620001c890620003e4565b60405180910390fd5b620001e560008383620002d760201b60201c565b8060026000828254620001f9919062000434565b92505081905550806000808473ffffffffffffffffffffffffffffffffffffffff1673ffffffffffffffffffffffffffffffffffffffff168152602001908152602001600020600082825462000250919062000434565b925050819055508173ffffffffffffffffffffffffffffffffffffffff16600073ffffffffffffffffffffffffffffffffffffffff167fddf252ad1be2c89b69c2b068fc378daa952ba7f163c4a11628f55a4df523b3ef83604051620002b7919062000406565b60405180910390a3620002d360008383620002dc60201b60201c565b5050565b505050565b505050565b828054620002ef90620004fc565b90600052602060002090601f0160209004810192826200031357600085556200035f565b82601f106200032e57805160ff19168380011785556200035f565b828001600101855582156200035f579182015b828111156200035e57825182559160200191906001019062000341565b5b5090506200036e919062000372565b5090565b5b808211156200038d57600081600090555060010162000373565b5090565b6000620003a0601f8362000423565b91507f45524332303a206d696e7420746f20746865207a65726f2061646472657373006000830152602082019050919050565b620003de81620004f2565b82525050565b60006020820190508181036000830152620003ff8162000391565b9050919050565b60006020820190506200041d6000830184620003d3565b92915050565b600082825260208201905092915050565b60006200044182620004f2565b91506200044e83620004f2565b9250827fffffffffffffffffffffffffffffffffffffffffffffffffffffffffffffffff0382111562000486576200048562000532565b5b828201905092915050565b60006200049e82620004f2565b9150620004ab83620004f2565b9250817fffffffffffffffffffffffffffffffffffffffffffffffffffffffffffffffff0483118215151615620004e757620004e662000532565b5b828202905092915050565b6000819050919050565b600060028204905060018216806200051557607f821691505b602082108114156200052c576200052b62000561565b5b50919050565b7f4e487b7100000000000000000000000000000000000000000000000000000000600052601160045260246000fd5b7f4e487b7100000000000000000000000000000000000000000000000000000000600052602260045260246000fd5b60805160a051612fa1620005c4600039600081816107b5015281816116d30152611a3701526000610d430152612fa16000f3fe608060405234801561001057600080fd5b506004361061014d5760003560e01c80634da6a556116100c3578063a694fc3a1161007c578063a694fc3a146103d0578063a9059cbb146103ec578063b64cd8ca1461041c578063b699224714610426578063d250b6cb14610444578063dd62ed3e146104625761014d565b80634da6a556146102e6578063533aa7b81461031657806370a082311461033457806395d89b4114610364578063a2709eb414610382578063a457c2d7146103a05761014d565b806323b872dd1161011557806323b872dd146101fa578063274982401461022a5780632bf9262c146102485780632e17de781461027c578063313ce5671461029857806339509351146102b65761014d565b806306fdde0314610152578063095ea7b3146101705780630c4f65bd146101a057806318160ddd146101be5780631e70953e146101dc575b600080fd5b61015a610492565b6040516101679190612992565b60405180910390f35b61018a6004803603810190610185919061209d565b610524565b604051610197919061295c565b60405180910390f35b6101a8610547565b6040516101b5919061291f565b60405180910390f35b6101c6610571565b6040516101d39190612bcf565b60405180910390f35b6101e461057b565b6040516101f19190612977565b60405180910390f35b610214600480360381019061020f919061204e565b610580565b604051610221919061295c565b60405180910390f35b6102326105af565b60405161023f9190612bcf565b60405180910390f35b610262600480360381019061025d9190611fe9565b6105b9565b604051610273959493929190612bea565b60405180910390f35b610296600480360381019061029191906120d9565b610697565b005b6102a0610844565b6040516102ad9190612c3d565b60405180910390f35b6102d060048036038101906102cb919061209d565b61084d565b6040516102dd919061295c565b60405180910390f35b61030060048036038101906102fb9190611fe9565b6108f7565b60405161030d9190612bcf565b60405180910390f35b61031e6109b0565b60405161032b9190612bcf565b60405180910390f35b61034e60048036038101906103499190611fe9565b6109ba565b60405161035b9190612bcf565b60405180910390f35b61036c610a02565b6040516103799190612992565b60405180910390f35b61038a610a94565b604051610397919061291f565b60405180910390f35b6103ba60048036038101906103b5919061209d565b610a99565b6040516103c7919061295c565b60405180910390f35b6103ea60048036038101906103e591906120d9565b610b83565b005b6104066004803603810190610401919061209d565b610c98565b604051610413919061295c565b60405180910390f35b610424610cbb565b005b61042e610d7b565b60405161043b919061293a565b60405180910390f35b61044c610e7d565b6040516104599190612bb4565b60405180910390f35b61047c60048036038101906104779190612012565b610f15565b6040516104899190612bcf565b60405180910390f35b6060600380546104a190612e24565b80601f01602080910402602001604051908101604052809291908181526020018280546104cd90612e24565b801561051a5780601f106104ef5761010080835404028352916020019161051a565b820191906000526020600020905b8154815290600101906020018083116104fd57829003601f168201915b5050505050905090565b60008061052f610f9c565b905061053c818585610fa4565b600191505092915050565b6000601060009054906101000a900473ffffffffffffffffffffffffffffffffffffffff16905090565b6000600254905090565b600090565b60008061058b610f9c565b905061059885828561116f565b6105a38585856111fb565b60019150509392505050565b6000600554905090565b6000806000806000806105cb8761147c565b905060008111610610576040517f08c379a000000000000000000000000000000000000000000000000000000000815260040161060790612ab4565b60405180910390fd5b60006007828154811061064c577f4e487b7100000000000000000000000000000000000000000000000000000000600052603260045260246000fd5b9060005260206000209060070201905080600101548160020154826003015483600401548460050160009054906101000a900460ff1696509650965096509650505091939590929450565b60003390506000600960008373ffffffffffffffffffffffffffffffffffffffff1673ffffffffffffffffffffffffffffffffffffffff16815260200190815260200160002054905060008114156106f0575050610841565b60006007828154811061072c577f4e487b7100000000000000000000000000000000000000000000000000000000600052603260045260246000fd5b906000526020600020906007020190508381600101541015610783576040517f08c379a000000000000000000000000000000000000000000000000000000000815260040161077a90612a54565b60405180910390fd5b6000848260010160008282546107999190612d34565b92505081905590508082600101819055508082600201819055507f000000000000000000000000000000000000000000000000000000000000000081106107fc5760018260050160006101000a81548160ff021916908315150217905550610832565b60008260050160006101000a81548160ff0219169083151502179055506005600081548092919061082c90612dfa565b91905055505b61083c848661156f565b505050505b50565b60006012905090565b600080610858610f9c565b90506108ec818585600160008673ffffffffffffffffffffffffffffffffffffffff1673ffffffffffffffffffffffffffffffffffffffff16815260200190815260200160002060008973ffffffffffffffffffffffffffffffffffffffff1673ffffffffffffffffffffffffffffffffffffffff168152602001908152602001600020546108e79190612cad565b610fa4565b600191505092915050565b600081600073ffffffffffffffffffffffffffffffffffffffff168173ffffffffffffffffffffffffffffffffffffffff16141561093457600080fd5b600061093f8461147c565b905060008114156109545760009250506109aa565b600060078281548110610990577f4e487b7100000000000000000000000000000000000000000000000000000000600052603260045260246000fd5b906000526020600020906007020190508060010154935050505b50919050565b6000600654905090565b60008060008373ffffffffffffffffffffffffffffffffffffffff1673ffffffffffffffffffffffffffffffffffffffff168152602001908152602001600020549050919050565b606060048054610a1190612e24565b80601f0160208091040260200160405190810160405280929190818152602001828054610a3d90612e24565b8015610a8a5780601f10610a5f57610100808354040283529160200191610a8a565b820191906000526020600020905b815481529060010190602001808311610a6d57829003601f168201915b5050505050905090565b600090565b600080610aa4610f9c565b90506000600160008373ffffffffffffffffffffffffffffffffffffffff1673ffffffffffffffffffffffffffffffffffffffff16815260200190815260200160002060008673ffffffffffffffffffffffffffffffffffffffff1673ffffffffffffffffffffffffffffffffffffffff16815260200190815260200160002054905083811015610b6a576040517f08c379a0000000000000000000000000000000000000000000000000000000008152600401610b6190612b74565b60405180910390fd5b610b778286868403610fa4565b60019250505092915050565b600033905060003073ffffffffffffffffffffffffffffffffffffffff166370a08231836040518263ffffffff1660e01b8152600401610bc3919061291f565b60206040518083038186803b158015610bdb57600080fd5b505afa158015610bef573d6000803e3d6000fd5b505050506040513d601f19601f82011682018060405250810190610c139190612102565b905082811015610c58576040517f08c379a0000000000000000000000000000000000000000000000000000000008152600401610c4f90612a94565b60405180910390fd5b6000610c638361147c565b90506000811415610c7d57610c7883856116cf565b610c88565b610c87818561199b565b5b610c928385611aba565b50505050565b600080610ca3610f9c565b9050610cb08185856111fb565b600191505092915050565b60003390506000610cca611c91565b9050806080015173ffffffffffffffffffffffffffffffffffffffff168273ffffffffffffffffffffffffffffffffffffffff1614610d3e576040517f08c379a0000000000000000000000000000000000000000000000000000000008152600401610d3590612ad4565b60405180910390fd5b610d777f00000000000000000000000000000000000000000000000000000000000000008260200151610d719190612cad565b83611d29565b5050565b60606007805480602002602001604051908101604052809291908181526020016000905b82821015610e7457838290600052602060002090600702016040518060e00160405290816000820160009054906101000a900473ffffffffffffffffffffffffffffffffffffffff1673ffffffffffffffffffffffffffffffffffffffff1673ffffffffffffffffffffffffffffffffffffffff168152602001600182015481526020016002820154815260200160038201548152602001600482015481526020016005820160009054906101000a900460ff1615151515815260200160068201548152505081526020019060010190610d9f565b50505050905090565b610e85611f62565b600b6040518060a0016040529081600082015481526020016001820154815260200160028201548152602001600382015481526020016004820160009054906101000a900473ffffffffffffffffffffffffffffffffffffffff1673ffffffffffffffffffffffffffffffffffffffff1673ffffffffffffffffffffffffffffffffffffffff1681525050905090565b6000600160008473ffffffffffffffffffffffffffffffffffffffff1673ffffffffffffffffffffffffffffffffffffffff16815260200190815260200160002060008373ffffffffffffffffffffffffffffffffffffffff1673ffffffffffffffffffffffffffffffffffffffff16815260200190815260200160002054905092915050565b600033905090565b600073ffffffffffffffffffffffffffffffffffffffff168373ffffffffffffffffffffffffffffffffffffffff161415611014576040517f08c379a000000000000000000000000000000000000000000000000000000000815260040161100b90612b54565b60405180910390fd5b600073ffffffffffffffffffffffffffffffffffffffff168273ffffffffffffffffffffffffffffffffffffffff161415611084576040517f08c379a000000000000000000000000000000000000000000000000000000000815260040161107b90612a14565b60405180910390fd5b80600160008573ffffffffffffffffffffffffffffffffffffffff1673ffffffffffffffffffffffffffffffffffffffff16815260200190815260200160002060008473ffffffffffffffffffffffffffffffffffffffff1673ffffffffffffffffffffffffffffffffffffffff168152602001908152602001600020819055508173ffffffffffffffffffffffffffffffffffffffff168373ffffffffffffffffffffffffffffffffffffffff167f8c5be1e5ebec7d5bd14f71427d1e84f3dd0314c0f7b2291e5b200ac8c7c3b925836040516111629190612bcf565b60405180910390a3505050565b600061117b8484610f15565b90507fffffffffffffffffffffffffffffffffffffffffffffffffffffffffffffffff81146111f557818110156111e7576040517f08c379a00000000000000000000000000000000000000000000000000000000081526004016111de90612a34565b60405180910390fd5b6111f48484848403610fa4565b5b50505050565b600073ffffffffffffffffffffffffffffffffffffffff168373ffffffffffffffffffffffffffffffffffffffff16141561126b576040517f08c379a000000000000000000000000000000000000000000000000000000000815260040161126290612b34565b60405180910390fd5b600073ffffffffffffffffffffffffffffffffffffffff168273ffffffffffffffffffffffffffffffffffffffff1614156112db576040517f08c379a00000000000000000000000000000000000000000000000000000000081526004016112d2906129b4565b60405180910390fd5b6112e6838383611e91565b60008060008573ffffffffffffffffffffffffffffffffffffffff1673ffffffffffffffffffffffffffffffffffffffff1681526020019081526020016000205490508181101561136c576040517f08c379a000000000000000000000000000000000000000000000000000000000815260040161136390612a74565b60405180910390fd5b8181036000808673ffffffffffffffffffffffffffffffffffffffff1673ffffffffffffffffffffffffffffffffffffffff16815260200190815260200160002081905550816000808573ffffffffffffffffffffffffffffffffffffffff1673ffffffffffffffffffffffffffffffffffffffff16815260200190815260200160002060008282546113ff9190612cad565b925050819055508273ffffffffffffffffffffffffffffffffffffffff168473ffffffffffffffffffffffffffffffffffffffff167fddf252ad1be2c89b69c2b068fc378daa952ba7f163c4a11628f55a4df523b3ef846040516114639190612bcf565b60405180910390a3611476848484611e96565b50505050565b600081600073ffffffffffffffffffffffffffffffffffffffff168173ffffffffffffffffffffffffffffffffffffffff1614156114b957600080fd5b6000600960008573ffffffffffffffffffffffffffffffffffffffff1673ffffffffffffffffffffffffffffffffffffffff1681526020019081526020016000205490506000811415611510576000925050611569565b60016007805490506115229190612d34565b811115611564576040517f08c379a000000000000000000000000000000000000000000000000000000000815260040161155b90612af4565b60405180910390fd5b809250505b50919050565b600073ffffffffffffffffffffffffffffffffffffffff168273ffffffffffffffffffffffffffffffffffffffff1614156115df576040517f08c379a00000000000000000000000000000000000000000000000000000000081526004016115d690612b94565b60405180910390fd5b6115eb60008383611e91565b80600260008282546115fd9190612cad565b92505081905550806000808473ffffffffffffffffffffffffffffffffffffffff1673ffffffffffffffffffffffffffffffffffffffff16815260200190815260200160002060008282546116529190612cad565b925050819055508173ffffffffffffffffffffffffffffffffffffffff16600073ffffffffffffffffffffffffffffffffffffffff167fddf252ad1be2c89b69c2b068fc378daa952ba7f163c4a11628f55a4df523b3ef836040516116b79190612bcf565b60405180910390a36116cb60008383611e96565b5050565b60007f0000000000000000000000000000000000000000000000000000000000000000821015905060006007805490509050600081141561183157808061171590612e56565b91505060076040518060e00160405280600073ffffffffffffffffffffffffffffffffffffffff168152602001600081526020016000815260200160008152602001600081526020016000151581526020016000815250908060018154018082558091505060019003906000526020600020906007020160009091909190915060008201518160000160006101000a81548173ffffffffffffffffffffffffffffffffffffffff021916908373ffffffffffffffffffffffffffffffffffffffff1602179055506020820151816001015560408201518160020155606082015181600301556080820151816004015560a08201518160050160006101000a81548160ff02191690831515021790555060c0820151816006015550505b60076040518060e001604052808673ffffffffffffffffffffffffffffffffffffffff168152602001858152602001858152602001600081526020016000815260200184151581526020016000815250908060018154018082558091505060019003906000526020600020906007020160009091909190915060008201518160000160006101000a81548173ffffffffffffffffffffffffffffffffffffffff021916908373ffffffffffffffffffffffffffffffffffffffff1602179055506020820151816001015560408201518160020155606082015181600301556080820151816004015560a08201518160050160006101000a81548160ff02191690831515021790555060c08201518160060155505080600960008673ffffffffffffffffffffffffffffffffffffffff1673ffffffffffffffffffffffffffffffffffffffff16815260200190815260200160002081905550611994828583611e9b565b5050505050565b6000600783815481106119d7577f4e487b7100000000000000000000000000000000000000000000000000000000600052603260045260246000fd5b90600052602060002090600702019050818160010160008282546119fb9190612cad565b9250508190555081816002016000828254611a169190612cad565b925050819055508060050160009054906101000a900460ff16611ab55760007f00000000000000000000000000000000000000000000000000000000000000008260010154101590508015611ab35760018260050160006101000a81548160ff021916908315150217905550611ab1818360000160009054906101000a900473ffffffffffffffffffffffffffffffffffffffff1686611e9b565b505b505b505050565b600073ffffffffffffffffffffffffffffffffffffffff168273ffffffffffffffffffffffffffffffffffffffff161415611b2a576040517f08c379a0000000000000000000000000000000000000000000000000000000008152600401611b2190612b14565b60405180910390fd5b611b3682600083611e91565b60008060008473ffffffffffffffffffffffffffffffffffffffff1673ffffffffffffffffffffffffffffffffffffffff16815260200190815260200160002054905081811015611bbc576040517f08c379a0000000000000000000000000000000000000000000000000000000008152600401611bb3906129d4565b60405180910390fd5b8181036000808573ffffffffffffffffffffffffffffffffffffffff1673ffffffffffffffffffffffffffffffffffffffff168152602001908152602001600020819055508160026000828254611c139190612d34565b92505081905550600073ffffffffffffffffffffffffffffffffffffffff168373ffffffffffffffffffffffffffffffffffffffff167fddf252ad1be2c89b69c2b068fc378daa952ba7f163c4a11628f55a4df523b3ef84604051611c789190612bcf565b60405180910390a3611c8c83600084611e96565b505050565b611c99611f62565b600b6040518060a0016040529081600082015481526020016001820154815260200160028201548152602001600382015481526020016004820160009054906101000a900473ffffffffffffffffffffffffffffffffffffffff1673ffffffffffffffffffffffffffffffffffffffff1673ffffffffffffffffffffffffffffffffffffffff1681525050905090565b6000600283611d389190612d03565b90506000600960008473ffffffffffffffffffffffffffffffffffffffff1673ffffffffffffffffffffffffffffffffffffffff168152602001908152602001600020549050600060078281548110611dba577f4e487b7100000000000000000000000000000000000000000000000000000000600052603260045260246000fd5b90600052602060002090600702019050600073ffffffffffffffffffffffffffffffffffffffff168160000160009054906101000a900473ffffffffffffffffffffffffffffffffffffffff1673ffffffffffffffffffffffffffffffffffffffff161415611e5e576040517f08c379a0000000000000000000000000000000000000000000000000000000008152600401611e55906129f4565b60405180910390fd5b82816006016000828254611e729190612cad565b9250508190555060008386611e879190612d34565b9050505050505050565b505050565b505050565b600083611eab5760009050611f5b565b6000600860008573ffffffffffffffffffffffffffffffffffffffff1673ffffffffffffffffffffffffffffffffffffffff1681526020019081526020016000205490506000811415611f555782600860008673ffffffffffffffffffffffffffffffffffffffff1673ffffffffffffffffffffffffffffffffffffffff1681526020019081526020016000208190555060056000815480929190611f4f90612e56565b91905055505b60019150505b9392505050565b6040518060a0016040528060008019168152602001600081526020016000815260200160008152602001600073ffffffffffffffffffffffffffffffffffffffff1681525090565b600081359050611fb981612f3d565b92915050565b600081359050611fce81612f54565b92915050565b600081519050611fe381612f54565b92915050565b600060208284031215611ffb57600080fd5b600061200984828501611faa565b91505092915050565b6000806040838503121561202557600080fd5b600061203385828601611faa565b925050602061204485828601611faa565b9150509250929050565b60008060006060848603121561206357600080fd5b600061207186828701611faa565b935050602061208286828701611faa565b925050604061209386828701611fbf565b9150509250925092565b600080604083850312156120b057600080fd5b60006120be85828601611faa565b92505060206120cf85828601611fbf565b9150509250929050565b6000602082840312156120eb57600080fd5b60006120f984828501611fbf565b91505092915050565b60006020828403121561211457600080fd5b600061212284828501611fd4565b91505092915050565b60006121378383612864565b60e08301905092915050565b61214c81612d68565b82525050565b61215b81612d68565b82525050565b600061216c82612c68565b6121768185612c8b565b935061218183612c58565b8060005b838110156121b2578151612199888261212b565b97506121a483612c7e565b925050600181019050612185565b5085935050505092915050565b6121c881612d7a565b82525050565b6121d781612d7a565b82525050565b6121e681612d86565b82525050565b6121f581612d86565b82525050565b600061220682612c73565b6122108185612c9c565b9350612220818560208601612dc7565b61222981612f2c565b840191505092915050565b6000612241602383612c9c565b91507f45524332303a207472616e7366657220746f20746865207a65726f206164647260008301527f65737300000000000000000000000000000000000000000000000000000000006020830152604082019050919050565b60006122a7602283612c9c565b91507f45524332303a206275726e20616d6f756e7420657863656564732062616c616e60008301527f63650000000000000000000000000000000000000000000000000000000000006020830152604082019050919050565b600061230d601f83612c9c565b91507f43686169726d616e206164647265737320646f6573206e6f74206578697374006000830152602082019050919050565b600061234d602283612c9c565b91507f45524332303a20617070726f766520746f20746865207a65726f20616464726560008301527f73730000000000000000000000000000000000000000000000000000000000006020830152604082019050919050565b60006123b3601d83612c9c565b91507f45524332303a20696e73756666696369656e7420616c6c6f77616e63650000006000830152602082019050919050565b60006123f3602283612c9c565b91507f496e73756666696369656e742062616c616e636520666f7220756e7374616b6960008301527f6e670000000000000000000000000000000000000000000000000000000000006020830152604082019050919050565b6000612459602683612c9c565b91507f45524332303a207472616e7366657220616d6f756e742065786365656473206260008301527f616c616e636500000000000000000000000000000000000000000000000000006020830152604082019050919050565b60006124bf602083612c9c565b91507f496e73756666696369656e742062616c616e636520666f72207374616b696e676000830152602082019050919050565b60006124ff602583612c9c565b91507f41646472657373206e6f74206c696e6b656420746f20616e79207374616b656860008301527f6f6c6465720000000000000000000000000000000000000000000000000000006020830152604082019050919050565b6000612565602183612c9c565b91507f4f6e6c792063686169726d616e2063616e20656e642063757272656e7420657260008301527f61000000000000000000000000000000000000000000000000000000000000006020830152604082019050919050565b60006125cb602983612c9c565b91507f496e76616c696420696e64657820666f72207374616b65686f6c64657273206360008301527f6f6c6c656374696f6e00000000000000000000000000000000000000000000006020830152604082019050919050565b6000612631602183612c9c565b91507f45524332303a206275726e2066726f6d20746865207a65726f2061646472657360008301527f73000000000000000000000000000000000000000000000000000000000000006020830152604082019050919050565b6000612697602583612c9c565b91507f45524332303a207472616e736665722066726f6d20746865207a65726f20616460008301527f64726573730000000000000000000000000000000000000000000000000000006020830152604082019050919050565b60006126fd602483612c9c565b91507f45524332303a20617070726f76652066726f6d20746865207a65726f2061646460008301527f72657373000000000000000000000000000000000000000000000000000000006020830152604082019050919050565b6000612763602583612c9c565b91507f45524332303a2064656372656173656420616c6c6f77616e63652062656c6f7760008301527f207a65726f0000000000000000000000000000000000000000000000000000006020830152604082019050919050565b60006127c9601f83612c9c565b91507f45524332303a206d696e7420746f20746865207a65726f2061646472657373006000830152602082019050919050565b60a08201600082015161281260008501826121dd565b50602082015161282560208501826128f2565b50604082015161283860408501826128f2565b50606082015161284b60608501826128f2565b50608082015161285e6080850182612143565b50505050565b60e08201600082015161287a6000850182612143565b50602082015161288d60208501826128f2565b5060408201516128a060408501826128f2565b5060608201516128b360608501826128f2565b5060808201516128c660808501826128f2565b5060a08201516128d960a08501826121bf565b5060c08201516128ec60c08501826128f2565b50505050565b6128fb81612db0565b82525050565b61290a81612db0565b82525050565b61291981612dba565b82525050565b60006020820190506129346000830184612152565b92915050565b600060208201905081810360008301526129548184612161565b905092915050565b600060208201905061297160008301846121ce565b92915050565b600060208201905061298c60008301846121ec565b92915050565b600060208201905081810360008301526129ac81846121fb565b905092915050565b600060208201905081810360008301526129cd81612234565b9050919050565b600060208201905081810360008301526129ed8161229a565b9050919050565b60006020820190508181036000830152612a0d81612300565b9050919050565b60006020820190508181036000830152612a2d81612340565b9050919050565b60006020820190508181036000830152612a4d816123a6565b9050919050565b60006020820190508181036000830152612a6d816123e6565b9050919050565b60006020820190508181036000830152612a8d8161244c565b9050919050565b60006020820190508181036000830152612aad816124b2565b9050919050565b60006020820190508181036000830152612acd816124f2565b9050919050565b60006020820190508181036000830152612aed81612558565b9050919050565b60006020820190508181036000830152612b0d816125be565b9050919050565b60006020820190508181036000830152612b2d81612624565b9050919050565b60006020820190508181036000830152612b4d8161268a565b9050919050565b60006020820190508181036000830152612b6d816126f0565b9050919050565b60006020820190508181036000830152612b8d81612756565b9050919050565b60006020820190508181036000830152612bad816127bc565b9050919050565b600060a082019050612bc960008301846127fc565b92915050565b6000602082019050612be46000830184612901565b92915050565b600060a082019050612bff6000830188612901565b612c0c6020830187612901565b612c196040830186612901565b612c266060830185612901565b612c3360808301846121ce565b9695505050505050565b6000602082019050612c526000830184612910565b92915050565b6000819050602082019050919050565b600081519050919050565b600081519050919050565b6000602082019050919050565b600082825260208201905092915050565b600082825260208201905092915050565b6000612cb882612db0565b9150612cc383612db0565b9250827fffffffffffffffffffffffffffffffffffffffffffffffffffffffffffffffff03821115612cf857612cf7612e9f565b5b828201905092915050565b6000612d0e82612db0565b9150612d1983612db0565b925082612d2957612d28612ece565b5b828204905092915050565b6000612d3f82612db0565b9150612d4a83612db0565b925082821015612d5d57612d5c612e9f565b5b828203905092915050565b6000612d7382612d90565b9050919050565b60008115159050919050565b6000819050919050565b600073ffffffffffffffffffffffffffffffffffffffff82169050919050565b6000819050919050565b600060ff82169050919050565b60005b83811015612de5578082015181840152602081019050612dca565b83811115612df4576000848401525b50505050565b6000612e0582612db0565b91506000821415612e1957612e18612e9f565b5b600182039050919050565b60006002820490506001821680612e3c57607f821691505b60208210811415612e5057612e4f612efd565b5b50919050565b6000612e6182612db0565b91507fffffffffffffffffffffffffffffffffffffffffffffffffffffffffffffffff821415612e9457612e93612e9f565b5b600182019050919050565b7f4e487b7100000000000000000000000000000000000000000000000000000000600052601160045260246000fd5b7f4e487b7100000000000000000000000000000000000000000000000000000000600052601260045260246000fd5b7f4e487b7100000000000000000000000000000000000000000000000000000000600052602260045260246000fd5b6000601f19601f8301169050919050565b612f4681612d68565b8114612f5157600080fd5b50565b612f5d81612db0565b8114612f6857600080fd5b5056fea2646970667358221220a2fea1a1b1491534af25ce852b8dd90a6628d40a7865977e298338ff29943ae064736f6c63430008000033",
  "immutableReferences": {
    "1850": [
      {
        "length": 32,
        "start": 3395
      }
    ],
    "1852": [
      {
        "length": 32,
        "start": 1973
      },
      {
        "length": 32,
        "start": 5843
      },
      {
        "length": 32,
        "start": 6711
      }
    ]
  },
  "source": "pragma solidity ^0.8.0;\r\n\r\nimport \"./base/ERC20Stakable.sol\";\r\n\r\ncontract GoldOracleToken is ERC20Stakable {\r\n    uint256 private constant MIN_STAKED_AMOUNT_REQUIRED_FOR_VALIDATION =\r\n        20000 * 10**18;\r\n    uint256 private constant REWARD_AMOUNT_IN_TOKENS_AFTER_EACH_ERA =\r\n        1000 * 10**18;\r\n    address private _owner;\r\n\r\n    constructor()\r\n        ERC20Stakable(\r\n            \"GoldOracleToken\",\r\n            \"GOT\",\r\n            MIN_STAKED_AMOUNT_REQUIRED_FOR_VALIDATION,\r\n            REWARD_AMOUNT_IN_TOKENS_AFTER_EACH_ERA\r\n        )\r\n    {\r\n        _owner = msg.sender;\r\n        _mint(msg.sender, MIN_STAKED_AMOUNT_REQUIRED_FOR_VALIDATION * 10); // for testing\r\n    }\r\n\r\n    function getOwnerAddress() public view returns (address) {\r\n        return _owner;\r\n    }\r\n}\r\n",
  "sourcePath": "D:\\Documents\\Dev\\Repositories\\gold-price-oracle\\gold-price-oracle\\on-chain\\contracts\\token\\GoldOracleToken.sol",
  "compiler": {
    "name": "solc",
    "version": "0.8.0+commit.c7dfd78e.Emscripten.clang"
  },
  "schemaVersion": "3.4.3",
  "updatedAt": "2022-03-04T14:10:37.791Z",
  "devdoc": {
    "kind": "dev",
    "methods": {
      "allowance(address,address)": {
        "details": "See {IERC20-allowance}."
      },
      "approve(address,uint256)": {
        "details": "See {IERC20-approve}. NOTE: If `amount` is the maximum `uint256`, the allowance is not updated on `transferFrom`. This is semantically equivalent to an infinite approval. Requirements: - `spender` cannot be the zero address."
      },
      "balanceOf(address)": {
        "details": "See {IERC20-balanceOf}."
      },
      "decimals()": {
        "details": "Returns the number of decimals used to get its user representation. For example, if `decimals` equals `2`, a balance of `505` tokens should be displayed to a user as `5.05` (`505 / 10 ** 2`). Tokens usually opt for a value of 18, imitating the relationship between Ether and Wei. This is the value {ERC20} uses, unless this function is overridden; NOTE: This information is only used for _display_ purposes: it in no way affects any of the arithmetic of the contract, including {IERC20-balanceOf} and {IERC20-transfer}."
      },
      "decreaseAllowance(address,uint256)": {
        "details": "Atomically decreases the allowance granted to `spender` by the caller. This is an alternative to {approve} that can be used as a mitigation for problems described in {IERC20-approve}. Emits an {Approval} event indicating the updated allowance. Requirements: - `spender` cannot be the zero address. - `spender` must have allowance for the caller of at least `subtractedValue`."
      },
      "increaseAllowance(address,uint256)": {
        "details": "Atomically increases the allowance granted to `spender` by the caller. This is an alternative to {approve} that can be used as a mitigation for problems described in {IERC20-approve}. Emits an {Approval} event indicating the updated allowance. Requirements: - `spender` cannot be the zero address."
      },
      "name()": {
        "details": "Returns the name of the token."
      },
      "symbol()": {
        "details": "Returns the symbol of the token, usually a shorter version of the name."
      },
      "totalSupply()": {
        "details": "See {IERC20-totalSupply}."
      },
      "transfer(address,uint256)": {
        "details": "See {IERC20-transfer}. Requirements: - `to` cannot be the zero address. - the caller must have a balance of at least `amount`."
      },
      "transferFrom(address,address,uint256)": {
        "details": "See {IERC20-transferFrom}. Emits an {Approval} event indicating the updated allowance. This is not required by the EIP. See the note at the beginning of {ERC20}. NOTE: Does not update the allowance if the current allowance is the maximum `uint256`. Requirements: - `from` and `to` cannot be the zero address. - `from` must have a balance of at least `amount`. - the caller must have allowance for ``from``'s tokens of at least `amount`."
      }
    },
    "version": 1
  },
  "userdoc": {
    "kind": "user",
    "methods": {},
    "version": 1
  }
}