{
  "contractName": "GoldPriceResolver",
  "abi": [
    {
      "inputs": [],
      "stateMutability": "nonpayable",
      "type": "constructor"
    },
    {
      "anonymous": false,
      "inputs": [
        {
          "indexed": false,
          "internalType": "string",
          "name": "assetSymbol",
          "type": "string"
        },
        {
          "indexed": false,
          "internalType": "string",
          "name": "currencySymbol",
          "type": "string"
        },
        {
          "indexed": false,
          "internalType": "bytes32",
          "name": "roundId",
          "type": "bytes32"
        },
        {
          "indexed": false,
          "internalType": "address",
          "name": "proposalEmiterAddress",
          "type": "address"
        },
        {
          "indexed": false,
          "internalType": "uint256",
          "name": "price",
          "type": "uint256"
        }
      ],
      "name": "NewPriceVote",
      "type": "event"
    },
    {
      "inputs": [
        {
          "internalType": "address",
          "name": "nodeAddress_",
          "type": "address"
        },
        {
          "internalType": "uint256",
          "name": "price_",
          "type": "uint256"
        }
      ],
      "name": "startNewPriceRound",
      "outputs": [],
      "stateMutability": "nonpayable",
      "type": "function"
    },
    {
      "inputs": [
        {
          "internalType": "bytes32",
          "name": "roundId_",
          "type": "bytes32"
        },
        {
          "internalType": "uint256",
          "name": "price_",
          "type": "uint256"
        }
      ],
      "name": "votePriceForRound",
      "outputs": [],
      "stateMutability": "nonpayable",
      "type": "function"
    },
    {
      "inputs": [],
      "name": "getLatestRoundData",
      "outputs": [
        {
          "components": [
            {
              "internalType": "bytes32",
              "name": "roundId",
              "type": "bytes32"
            },
            {
              "internalType": "uint256",
              "name": "nonce",
              "type": "uint256"
            },
            {
              "internalType": "address",
              "name": "node",
              "type": "address"
            },
            {
              "internalType": "uint256",
              "name": "price",
              "type": "uint256"
            },
            {
              "internalType": "string",
              "name": "assetCode",
              "type": "string"
            },
            {
              "internalType": "string",
              "name": "currencyCode",
              "type": "string"
            },
            {
              "internalType": "uint256",
              "name": "requiredQuorum",
              "type": "uint256"
            },
            {
              "internalType": "bool",
              "name": "isQuorumReached",
              "type": "bool"
            },
            {
              "internalType": "uint256",
              "name": "acceptVotes",
              "type": "uint256"
            },
            {
              "internalType": "uint256",
              "name": "refuceVotes",
              "type": "uint256"
            }
          ],
          "internalType": "struct Rounds.Round",
          "name": "round",
          "type": "tuple"
        }
      ],
      "stateMutability": "view",
      "type": "function"
    },
    {
      "inputs": [],
      "name": "getLatestValidData",
      "outputs": [
        {
          "components": [
            {
              "internalType": "bytes32",
              "name": "roundId",
              "type": "bytes32"
            },
            {
              "internalType": "uint256",
              "name": "nonce",
              "type": "uint256"
            },
            {
              "internalType": "address",
              "name": "node",
              "type": "address"
            },
            {
              "internalType": "uint256",
              "name": "price",
              "type": "uint256"
            },
            {
              "internalType": "string",
              "name": "assetCode",
              "type": "string"
            },
            {
              "internalType": "string",
              "name": "currencyCode",
              "type": "string"
            },
            {
              "internalType": "uint256",
              "name": "requiredQuorum",
              "type": "uint256"
            },
            {
              "internalType": "bool",
              "name": "isQuorumReached",
              "type": "bool"
            },
            {
              "internalType": "uint256",
              "name": "acceptVotes",
              "type": "uint256"
            },
            {
              "internalType": "uint256",
              "name": "refuceVotes",
              "type": "uint256"
            }
          ],
          "internalType": "struct Rounds.Round",
          "name": "round",
          "type": "tuple"
        }
      ],
      "stateMutability": "view",
      "type": "function"
    },
    {
      "inputs": [
        {
          "internalType": "uint256",
          "name": "suggestedPrice_",
          "type": "uint256"
        },
        {
          "internalType": "uint256",
          "name": "referentPrice_",
          "type": "uint256"
        }
      ],
      "name": "calculatePriceDeviation",
      "outputs": [
        {
          "internalType": "uint256",
          "name": "",
          "type": "uint256"
        }
      ],
      "stateMutability": "pure",
      "type": "function"
    }
  ],
  "bytecode": "0x60806040526001600355735b38da6a701c568545dcfcb03fcb875f56beddc4600460006101000a81548173ffffffffffffffffffffffffffffffffffffffff021916908373ffffffffffffffffffffffffffffffffffffffff16021790555034801561006a57600080fd5b50611cbd8061007a6000396000f3fe608060405234801561001057600080fd5b50600436106100575760003560e01c80632daae2f31461005c57806387db480a1461007a578063888a9fba14610096578063edf1aa7b146100b4578063fb540f24146100d0575b600080fd5b610064610100565b604051610071919061190c565b60405180910390f35b610094600480360381019061008f91906112b7565b610357565b005b61009e6105e7565b6040516100ab919061190c565b60405180910390f35b6100ce60048036038101906100c9919061127b565b610b13565b005b6100ea60048036038101906100e591906112f3565b610f33565b6040516100f7919061192e565b60405180910390f35b61010861112b565b600080805490509050600081146103525760006001826101289190611a01565b8154811061015f577f4e487b7100000000000000000000000000000000000000000000000000000000600052603260045260246000fd5b90600052602060002090600a02016040518061014001604052908160008201548152602001600182015481526020016002820160009054906101000a900473ffffffffffffffffffffffffffffffffffffffff1673ffffffffffffffffffffffffffffffffffffffff1673ffffffffffffffffffffffffffffffffffffffff168152602001600382015481526020016004820180546101fd90611ae4565b80601f016020809104026020016040519081016040528092919081815260200182805461022990611ae4565b80156102765780601f1061024b57610100808354040283529160200191610276565b820191906000526020600020905b81548152906001019060200180831161025957829003601f168201915b5050505050815260200160058201805461028f90611ae4565b80601f01602080910402602001604051908101604052809291908181526020018280546102bb90611ae4565b80156103085780601f106102dd57610100808354040283529160200191610308565b820191906000526020600020905b8154815290600101906020018083116102eb57829003601f168201915b50505050508152602001600682015481526020016007820160009054906101000a900460ff1615151515815260200160088201548152602001600982015481525050915050610354565b505b90565b6000339050600061036784610f9f565b90506000848360405160200161037e92919061179f565b6040516020818303038152906040528051906020012090508160070160009054906101000a900460ff16156103e8576040517f08c379a00000000000000000000000000000000000000000000000000000000081526004016103df906118ac565b60405180910390fd5b600073ffffffffffffffffffffffffffffffffffffffff166002600083815260200190815260200160002060000160009054906101000a900473ffffffffffffffffffffffffffffffffffffffff1673ffffffffffffffffffffffffffffffffffffffff161461048d576040517f08c379a00000000000000000000000000000000000000000000000000000000081526004016104849061188c565b60405180910390fd5b600061049d836003015486610f33565b9050600060038211905080156104cc578360080160008154809291906104c290611b16565b91905055506104e7565b8360090160008154809291906104e190611b16565b91905055505b60405180608001604052808673ffffffffffffffffffffffffffffffffffffffff1681526020018781526020018215158152602001838152506002600085815260200190815260200160002060008201518160000160006101000a81548173ffffffffffffffffffffffffffffffffffffffff021916908373ffffffffffffffffffffffffffffffffffffffff1602179055506020820151816001015560408201518160020160006101000a81548160ff0219169083151502179055506060820151816003015590505083600601548460080154106105de5760018460070160006101000a81548160ff0219169083151502179055505b50505050505050565b6105ef61112b565b60008080549050905060008114610b0e57600060018261060f9190611a01565b9050600080828154811061064c577f4e487b7100000000000000000000000000000000000000000000000000000000600052603260045260246000fd5b90600052602060002090600a02016040518061014001604052908160008201548152602001600182015481526020016002820160009054906101000a900473ffffffffffffffffffffffffffffffffffffffff1673ffffffffffffffffffffffffffffffffffffffff1673ffffffffffffffffffffffffffffffffffffffff168152602001600382015481526020016004820180546106ea90611ae4565b80601f016020809104026020016040519081016040528092919081815260200182805461071690611ae4565b80156107635780601f1061073857610100808354040283529160200191610763565b820191906000526020600020905b81548152906001019060200180831161074657829003601f168201915b5050505050815260200160058201805461077c90611ae4565b80601f01602080910402602001604051908101604052809291908181526020018280546107a890611ae4565b80156107f55780601f106107ca576101008083540402835291602001916107f5565b820191906000526020600020905b8154815290600101906020018083116107d857829003601f168201915b50505050508152602001600682015481526020016007820160009054906101000a900460ff161515151581526020016008820154815260200160098201548152505090508360e001511561084e57809350505050610b10565b600060018361085d9190611a01565b90505b6000811015610b0a57600081815481106108a3577f4e487b7100000000000000000000000000000000000000000000000000000000600052603260045260246000fd5b90600052602060002090600a020160070160009054906101000a900460ff1615610af75760008181548110610901577f4e487b7100000000000000000000000000000000000000000000000000000000600052603260045260246000fd5b90600052602060002090600a02016040518061014001604052908160008201548152602001600182015481526020016002820160009054906101000a900473ffffffffffffffffffffffffffffffffffffffff1673ffffffffffffffffffffffffffffffffffffffff1673ffffffffffffffffffffffffffffffffffffffff1681526020016003820154815260200160048201805461099f90611ae4565b80601f01602080910402602001604051908101604052809291908181526020018280546109cb90611ae4565b8015610a185780601f106109ed57610100808354040283529160200191610a18565b820191906000526020600020905b8154815290600101906020018083116109fb57829003601f168201915b50505050508152602001600582018054610a3190611ae4565b80601f0160208091040260200160405190810160405280929190818152602001828054610a5d90611ae4565b8015610aaa5780601f10610a7f57610100808354040283529160200191610aaa565b820191906000526020600020905b815481529060010190602001808311610a8d57829003601f168201915b50505050508152602001600682015481526020016007820160009054906101000a900460ff1615151515815260200160088201548152602001600982015481525050945050505050610b10565b8080610b0290611aba565b915050610860565b5050505b505b90565b600073ffffffffffffffffffffffffffffffffffffffff168273ffffffffffffffffffffffffffffffffffffffff161415610b83576040517f08c379a0000000000000000000000000000000000000000000000000000000008152600401610b7a9061186c565b60405180910390fd5b600460009054906101000a900473ffffffffffffffffffffffffffffffffffffffff1673ffffffffffffffffffffffffffffffffffffffff168273ffffffffffffffffffffffffffffffffffffffff1614610c13576040517f08c379a0000000000000000000000000000000000000000000000000000000008152600401610c0a906118cc565b60405180910390fd5b600080610c1e610100565b90506000816020015114610c3457806020015191505b8180610c3f90611b16565b9250506000604051806101400160405280868587604051602001610c6593929190611762565b6040516020818303038152906040528051906020012081526020018481526020018673ffffffffffffffffffffffffffffffffffffffff1681526020018581526020016040518060400160405280600381526020017f585541000000000000000000000000000000000000000000000000000000000081525081526020016040518060400160405280600481526020017f55534454000000000000000000000000000000000000000000000000000000008152508152602001610d266110ee565b8152602001600015158152602001600081526020016000815250905060008190806001815401808255809150506001900390600052602060002090600a0201600090919091909150600082015181600001556020820151816001015560408201518160020160006101000a81548173ffffffffffffffffffffffffffffffffffffffff021916908373ffffffffffffffffffffffffffffffffffffffff160217905550606082015181600301556080820151816004019080519060200190610def929190611199565b5060a0820151816005019080519060200190610e0c929190611199565b5060c0820151816006015560e08201518160070160006101000a81548160ff021916908315150217905550610100820151816008015561012082015181600901555050600183610e5c9190611a01565b6001600083600001518152602001908152602001600020819055507f78f6908c0a8d2c9158f488b36cdaca399ee238cd3cfc479e8db761f1aa9076516040518060400160405280600381526020017f58554100000000000000000000000000000000000000000000000000000000008152506040518060400160405280600481526020017f5553445400000000000000000000000000000000000000000000000000000000815250836000015184604001518560600151604051610f249594939291906117cb565b60405180910390a15050505050565b6000806000905082841115610f55578284610f4e9190611a01565b9050610f64565b8383610f619190611a01565b90505b6000811415610f77576000915050610f99565b600084606483610f8791906119a7565b610f919190611976565b905080925050505b92915050565b6000806001600084815260200190815260200160002054905060008111610ffb576040517f08c379a0000000000000000000000000000000000000000000000000000000008152600401610ff2906118ec565b60405180910390fd5b6000808281548110611036577f4e487b7100000000000000000000000000000000000000000000000000000000600052603260045260246000fd5b90600052602060002090600a020190506000611050610100565b9050806000015182600001541461109c576040517f08c379a00000000000000000000000000000000000000000000000000000000081526004016110939061182c565b60405180910390fd5b60008160200151116110e3576040517f08c379a00000000000000000000000000000000000000000000000000000000081526004016110da9061184c565b60405180910390fd5b819350505050919050565b6000600160035414156111045760019050611128565b60006064603360035461111791906119a7565b6111219190611976565b9050809150505b90565b6040518061014001604052806000801916815260200160008152602001600073ffffffffffffffffffffffffffffffffffffffff1681526020016000815260200160608152602001606081526020016000815260200160001515815260200160008152602001600081525090565b8280546111a590611ae4565b90600052602060002090601f0160209004810192826111c7576000855561120e565b82601f106111e057805160ff191683800117855561120e565b8280016001018555821561120e579182015b8281111561120d5782518255916020019190600101906111f2565b5b50905061121b919061121f565b5090565b5b80821115611238576000816000905550600101611220565b5090565b60008135905061124b81611c42565b92915050565b60008135905061126081611c59565b92915050565b60008135905061127581611c70565b92915050565b6000806040838503121561128e57600080fd5b600061129c8582860161123c565b92505060206112ad85828601611266565b9150509250929050565b600080604083850312156112ca57600080fd5b60006112d885828601611251565b92505060206112e985828601611266565b9150509250929050565b6000806040838503121561130657600080fd5b600061131485828601611266565b925050602061132585828601611266565b9150509250929050565b61133881611a35565b82525050565b61134781611a35565b82525050565b61135e61135982611a35565b611b5f565b82525050565b61136d81611a47565b82525050565b61137c81611a53565b82525050565b61138b81611a53565b82525050565b6113a261139d82611a53565b611b71565b82525050565b60006113b382611949565b6113bd8185611954565b93506113cd818560208601611a87565b6113d681611c24565b840191505092915050565b60006113ec82611949565b6113f68185611965565b9350611406818560208601611a87565b61140f81611c24565b840191505092915050565b6000611427603b83611965565b91507f566f74696e6720666f72206f6c6420726f756e642e2054686520726f756e644960008301527f642062656c6f6e677320746f2070726576696f757320726f756e6400000000006020830152604082019050919050565b600061148d602e83611965565b91507f43616e6e6f742076616c696461746520726f756e642e204e6f20726f756e647360008301527f206172652070726573656e7465640000000000000000000000000000000000006020830152604082019050919050565b60006114f3601783611965565b91507f4e756c6c206164647265737320697320696e76616c69640000000000000000006000830152602082019050919050565b6000611533601583611965565b91507f43616c6c657220616c726561647920766f7465642100000000000000000000006000830152602082019050919050565b6000611573601d83611965565b91507f51756f72756d207265616368656420666f72207468617420726f756e640000006000830152602082019050919050565b60006115b3602883611965565b91507f476976656e2061646472657373206e6f7420656c656374656420666f7220766160008301527f6c69646174696f6e0000000000000000000000000000000000000000000000006020830152604082019050919050565b6000611619601183611965565b91507f496e76616c696420726f756e64206964200000000000000000000000000000006000830152602082019050919050565b6000610140830160008301516116656000860182611373565b506020830151611678602086018261172d565b50604083015161168b604086018261132f565b50606083015161169e606086018261172d565b50608083015184820360808601526116b682826113a8565b91505060a083015184820360a08601526116d082826113a8565b91505060c08301516116e560c086018261172d565b5060e08301516116f860e0860182611364565b5061010083015161170d61010086018261172d565b5061012083015161172261012086018261172d565b508091505092915050565b61173681611a7d565b82525050565b61174581611a7d565b82525050565b61175c61175782611a7d565b611b8d565b82525050565b600061176e828661134d565b60148201915061177e828561174b565b60208201915061178e828461174b565b602082019150819050949350505050565b60006117ab8285611391565b6020820191506117bb828461134d565b6014820191508190509392505050565b600060a08201905081810360008301526117e581886113e1565b905081810360208301526117f981876113e1565b90506118086040830186611382565b611815606083018561133e565b611822608083018461173c565b9695505050505050565b600060208201905081810360008301526118458161141a565b9050919050565b6000602082019050818103600083015261186581611480565b9050919050565b60006020820190508181036000830152611885816114e6565b9050919050565b600060208201905081810360008301526118a581611526565b9050919050565b600060208201905081810360008301526118c581611566565b9050919050565b600060208201905081810360008301526118e5816115a6565b9050919050565b600060208201905081810360008301526119058161160c565b9050919050565b60006020820190508181036000830152611926818461164c565b905092915050565b6000602082019050611943600083018461173c565b92915050565b600081519050919050565b600082825260208201905092915050565b600082825260208201905092915050565b600061198182611a7d565b915061198c83611a7d565b92508261199c5761199b611bc6565b5b828204905092915050565b60006119b282611a7d565b91506119bd83611a7d565b9250817fffffffffffffffffffffffffffffffffffffffffffffffffffffffffffffffff04831182151516156119f6576119f5611b97565b5b828202905092915050565b6000611a0c82611a7d565b9150611a1783611a7d565b925082821015611a2a57611a29611b97565b5b828203905092915050565b6000611a4082611a5d565b9050919050565b60008115159050919050565b6000819050919050565b600073ffffffffffffffffffffffffffffffffffffffff82169050919050565b6000819050919050565b60005b83811015611aa5578082015181840152602081019050611a8a565b83811115611ab4576000848401525b50505050565b6000611ac582611a7d565b91506000821415611ad957611ad8611b97565b5b600182039050919050565b60006002820490506001821680611afc57607f821691505b60208210811415611b1057611b0f611bf5565b5b50919050565b6000611b2182611a7d565b91507fffffffffffffffffffffffffffffffffffffffffffffffffffffffffffffffff821415611b5457611b53611b97565b5b600182019050919050565b6000611b6a82611b7b565b9050919050565b6000819050919050565b6000611b8682611c35565b9050919050565b6000819050919050565b7f4e487b7100000000000000000000000000000000000000000000000000000000600052601160045260246000fd5b7f4e487b7100000000000000000000000000000000000000000000000000000000600052601260045260246000fd5b7f4e487b7100000000000000000000000000000000000000000000000000000000600052602260045260246000fd5b6000601f19601f8301169050919050565b60008160601b9050919050565b611c4b81611a35565b8114611c5657600080fd5b50565b611c6281611a53565b8114611c6d57600080fd5b50565b611c7981611a7d565b8114611c8457600080fd5b5056fea264697066735822122063243e4e2330fd2b5830f554ce90a7af0ccfb3f8cc96fe57da09172983b265d264736f6c63430008000033",
  "immutableReferences": {},
  "source": "pragma solidity ^0.8.0;\r\n\r\nimport \"../utils/Rounds.sol\";\r\nimport \"../utils/Votes.sol\";\r\n\r\n//PoC. Big Refactoring will happened!\r\ncontract GoldPriceResolver {\r\n    uint256 constant MINIMUM_QUORUM_REQUURED_FOR_VALIDATION_IN_PERCENTS = 51;\r\n    uint256 constant MAXIMUM_ALLOWED_PRICE_DEVIATION_IN_PERCENTS = 3;\r\n    string constant GOLD_SYMBOL = \"XUA\"; //TODO; move to separate contract when refactor\r\n    string constant USDT_SYMBOL = \"USDT\";\r\n    Rounds.Round[] private _rounds;\r\n    mapping(bytes32 => uint256) private _roundIndexs;\r\n    mapping(bytes32 => Votes.Vote) _votes;\r\n\r\n    constructor() {}\r\n\r\n    //TODO: this all will come form PoS. For now they are hardcoded\r\n    uint256 validatorNodesCount = 1;\r\n    address electedNodeAddress =\r\n        address(0x5B38Da6a701c568545dCfcB03FcB875f56beddC4); //TODO: this will come as a result of PoS. Hardcoded for now\r\n\r\n    event NewPriceVote(\r\n        string assetSymbol,\r\n        string currencySymbol,\r\n        bytes32 roundId,\r\n        address proposalEmiterAddress,\r\n        uint256 price\r\n    );\r\n\r\n    function startNewPriceRound(address nodeAddress_, uint256 price_) public {\r\n        //call from elected node. If not revert.\r\n        //Only elected node should be able to start new round of price change\r\n        //after the price is set need to be validated - at least 51% of active nodes must approve the value\r\n        //after the quorum is reached the value is finaly set and become valid price\r\n        //only valid (validated) prices should be return to aggregator\r\n        require(nodeAddress_ != address(0), \"Null address is invalid\");\r\n        //if check and then slash - we can perform a penalty for trying to update without permission;\r\n        //for now it will be required check\r\n        require(\r\n            nodeAddress_ == electedNodeAddress,\r\n            \"Given address not elected for validation\"\r\n        );\r\n\r\n        //default nonce is 0;\r\n        uint256 nonce = 0;\r\n\r\n        //get last valid round;\r\n\r\n        Rounds.Round memory lastRound = getLatestRoundData();\r\n\r\n        //if there is already las\r\n        if (lastRound.nonce != 0) {\r\n            nonce = lastRound.nonce;\r\n        } // this is the initalRound;\r\n\r\n        nonce++;\r\n\r\n        Rounds.Round memory round = Rounds.Round({\r\n            roundId: keccak256(abi.encodePacked(nodeAddress_, nonce, price_)),\r\n            nonce: nonce,\r\n            node: nodeAddress_,\r\n            price: price_,\r\n            assetCode: GOLD_SYMBOL,\r\n            currencyCode: USDT_SYMBOL,\r\n            requiredQuorum: calculateMinimumNodesCountForReachingQuorum(),\r\n            isQuorumReached: false,\r\n            acceptVotes: 0,\r\n            refuceVotes: 0\r\n        });\r\n\r\n        //the elected node kick off the new round\r\n        _rounds.push(round);\r\n\r\n        //add mapping for roundId and nonce for easy search on callback\r\n        _roundIndexs[round.roundId] = nonce - 1;\r\n\r\n        emit NewPriceVote(\r\n            GOLD_SYMBOL,\r\n            USDT_SYMBOL,\r\n            round.roundId,\r\n            round.node,\r\n            round.price\r\n        );\r\n    }\r\n\r\n    function votePriceForRound(bytes32 roundId_, uint256 price_) public {\r\n        address callerAddress = msg.sender;\r\n        //check if caller is an elected member for current era\r\n        //TODO:\r\n        //required check\r\n        //find correct round record by roundId\r\n        Rounds.Round storage round = tryGetRoundForValidationByRequestedRoundId(\r\n            roundId_\r\n        );\r\n        //unique identifier of the vode - cobination of round id and voter address\r\n        bytes32 voteIdentity = keccak256(\r\n            abi.encodePacked(roundId_, callerAddress)\r\n        );\r\n\r\n        require(!round.isQuorumReached, \"Quorum reached for that round\");\r\n        //if voter address != 0 then this voter already voted\r\n        require(\r\n            _votes[voteIdentity].voter == address(0),\r\n            \"Caller already voted!\"\r\n        );\r\n\r\n        //validate the presented data\r\n        uint256 percentageDiffBetweenPrices = calculatePriceDeviation(\r\n            round.price,\r\n            price_\r\n        );\r\n\r\n        bool isApproved = percentageDiffBetweenPrices >\r\n            MAXIMUM_ALLOWED_PRICE_DEVIATION_IN_PERCENTS;\r\n        //if the difference between proposed price and the validator price is more than 3%\r\n        //the validation is not passed\r\n        if (isApproved) {\r\n            round.acceptVotes++;\r\n        } else {\r\n            //validation is passed\r\n            round.refuceVotes++;\r\n        }\r\n\r\n        //add new unique vote record\r\n        _votes[voteIdentity] = Votes.Vote({\r\n            voter: callerAddress,\r\n            price: price_,\r\n            approves: isApproved,\r\n            percentageDiff: percentageDiffBetweenPrices\r\n        });\r\n\r\n        if (round.acceptVotes >= round.requiredQuorum) {\r\n            round.isQuorumReached = true;\r\n            //finaly consensus is reached!\r\n            //this round becames the latest valid round\r\n        }\r\n        if (round.refuceVotes >= round.requiredQuorum) {\r\n            //TODO: the proposition is refuced byt 51%.\r\n            //new round should be created with new proposal node!\r\n            //the proposal node that proposed refuced by 51% value should be punished\r\n            //\r\n        }\r\n    }\r\n\r\n    function calculateMinimumNodesCountForReachingQuorum()\r\n        internal\r\n        view\r\n        returns (uint256)\r\n    {\r\n        if (validatorNodesCount == 1) {\r\n            return 1;\r\n        }\r\n\r\n        uint256 nodesRequiredForQuorum = (validatorNodesCount *\r\n            MINIMUM_QUORUM_REQUURED_FOR_VALIDATION_IN_PERCENTS) / 100;\r\n\r\n        return nodesRequiredForQuorum;\r\n    }\r\n\r\n    //valid round is considered every round\r\n    function getLatestRoundData()\r\n        public\r\n        view\r\n        returns (Rounds.Round memory round)\r\n    {\r\n        uint256 roundsLenght = _rounds.length;\r\n        if (roundsLenght != 0) {\r\n            return _rounds[roundsLenght - 1];\r\n        }\r\n    }\r\n\r\n    //valid round is considered every round with reached Quorum\r\n    function getLatestValidData()\r\n        public\r\n        view\r\n        returns (Rounds.Round memory round)\r\n    {\r\n        uint256 roundsCount = _rounds.length;\r\n        if (roundsCount != 0) {\r\n            uint256 lastRoundIndex = roundsCount - 1;\r\n            Rounds.Round memory lastRound = _rounds[lastRoundIndex];\r\n            if (round.isQuorumReached) {\r\n                return lastRound;\r\n            }\r\n\r\n            for (uint256 i = lastRoundIndex - 1; i < 0; i--) {\r\n                if (_rounds[i].isQuorumReached) {\r\n                    return _rounds[i];\r\n                }\r\n            }\r\n        }\r\n    }\r\n\r\n    //performing calculation to find the absolute difference between sugested node and the other validators nodes prices\r\n    //if deviation bigger than 3% is found the proposition is declined by caller validator\r\n    //if deviation is less than 3% the proposition is accepted\r\n    function calculatePriceDeviation(\r\n        uint256 suggestedPrice_,\r\n        uint256 referentPrice_\r\n    ) public pure returns (uint256) {\r\n        uint256 priceDifferenceAbs = 0;\r\n\r\n        if (suggestedPrice_ > referentPrice_) {\r\n            priceDifferenceAbs = suggestedPrice_ - referentPrice_;\r\n        } else {\r\n            priceDifferenceAbs = referentPrice_ - suggestedPrice_;\r\n        }\r\n        if (priceDifferenceAbs == 0) {\r\n            return 0;\r\n        }\r\n\r\n        uint256 percentageDiff = (priceDifferenceAbs * 100) / suggestedPrice_;\r\n\r\n        return percentageDiff;\r\n    }\r\n\r\n    function tryGetRoundForValidationByRequestedRoundId(bytes32 roundId_)\r\n        internal\r\n        view\r\n        returns (Rounds.Round storage roundToValidate)\r\n    {\r\n        //get round index by roundId\r\n        uint256 roundIndex = _roundIndexs[roundId_];\r\n        //if no roundId exist revert\r\n        require(roundIndex > 0, \"Invalid round id \");\r\n        //get round to validate by round Index\r\n        Rounds.Round storage roundByIndex = _rounds[roundIndex];\r\n        //get last round that should be the current that needs to be validated\r\n        Rounds.Round memory lastRound = getLatestRoundData();\r\n        //check if requested round is actially the last one that needs to be validated\r\n        require(\r\n            roundByIndex.roundId == lastRound.roundId,\r\n            \"Voting for old round. The roundId belongs to previous round\"\r\n        );\r\n        require(\r\n            lastRound.nonce > 0,\r\n            \"Cannot validate round. No rounds are presented\"\r\n        );\r\n        //return pointer to the last round\r\n        return roundByIndex;\r\n    }\r\n}\r\n",
  "sourcePath": "D:\\Documents\\Dev\\Repositories\\gold-price-oracle\\gold-price-oracle\\on-chain\\contracts\\oracle\\resolvers\\GoldPriceResolver.sol",
  "compiler": {
    "name": "solc",
    "version": "0.8.0+commit.c7dfd78e.Emscripten.clang"
  },
  "schemaVersion": "3.4.3",
  "updatedAt": "2022-02-23T22:23:34.327Z",
  "devdoc": {
    "kind": "dev",
    "methods": {},
    "version": 1
  },
  "userdoc": {
    "kind": "user",
    "methods": {},
    "version": 1
  }
}