{
  "contractName": "GoldOracleToken",
  "abi": [
    {
      "inputs": [],
      "stateMutability": "nonpayable",
      "type": "constructor"
    },
    {
      "anonymous": false,
      "inputs": [
        {
          "indexed": true,
          "internalType": "address",
          "name": "owner",
          "type": "address"
        },
        {
          "indexed": true,
          "internalType": "address",
          "name": "spender",
          "type": "address"
        },
        {
          "indexed": false,
          "internalType": "uint256",
          "name": "value",
          "type": "uint256"
        }
      ],
      "name": "Approval",
      "type": "event"
    },
    {
      "anonymous": false,
      "inputs": [
        {
          "indexed": false,
          "internalType": "bytes32",
          "name": "eraId",
          "type": "bytes32"
        },
        {
          "indexed": false,
          "internalType": "address",
          "name": "chairman",
          "type": "address"
        },
        {
          "indexed": false,
          "internalType": "uint256",
          "name": "timestap",
          "type": "uint256"
        }
      ],
      "name": "EndEraByNewElectedChairman",
      "type": "event"
    },
    {
      "anonymous": false,
      "inputs": [
        {
          "indexed": false,
          "internalType": "bytes32",
          "name": "eraId",
          "type": "bytes32"
        },
        {
          "indexed": false,
          "internalType": "address",
          "name": "chairman",
          "type": "address"
        },
        {
          "indexed": false,
          "internalType": "address[]",
          "name": "council",
          "type": "address[]"
        },
        {
          "indexed": false,
          "internalType": "uint256",
          "name": "validatorsCount",
          "type": "uint256"
        },
        {
          "indexed": false,
          "internalType": "uint256",
          "name": "calculatedSeed",
          "type": "uint256"
        }
      ],
      "name": "NewEraElecationProposal",
      "type": "event"
    },
    {
      "anonymous": false,
      "inputs": [
        {
          "components": [
            {
              "internalType": "bytes32",
              "name": "id",
              "type": "bytes32"
            },
            {
              "internalType": "uint256",
              "name": "colectedFeesAmount",
              "type": "uint256"
            },
            {
              "internalType": "uint256",
              "name": "startDate",
              "type": "uint256"
            },
            {
              "internalType": "uint256",
              "name": "endDate",
              "type": "uint256"
            },
            {
              "internalType": "address",
              "name": "chairman",
              "type": "address"
            },
            {
              "internalType": "uint256",
              "name": "requiredQuorum",
              "type": "uint256"
            },
            {
              "internalType": "bool",
              "name": "isQuorumReached",
              "type": "bool"
            },
            {
              "internalType": "uint256",
              "name": "possitiveVotes",
              "type": "uint256"
            },
            {
              "internalType": "uint256",
              "name": "negativeVotes",
              "type": "uint256"
            },
            {
              "internalType": "bool",
              "name": "accepted",
              "type": "bool"
            },
            {
              "internalType": "bool",
              "name": "ended",
              "type": "bool"
            }
          ],
          "indexed": false,
          "internalType": "struct Eras.Era",
          "name": "era",
          "type": "tuple"
        }
      ],
      "name": "NewEraElectionComplited",
      "type": "event"
    },
    {
      "anonymous": false,
      "inputs": [
        {
          "indexed": true,
          "internalType": "address",
          "name": "from",
          "type": "address"
        },
        {
          "indexed": true,
          "internalType": "address",
          "name": "to",
          "type": "address"
        },
        {
          "indexed": false,
          "internalType": "uint256",
          "name": "value",
          "type": "uint256"
        }
      ],
      "name": "Transfer",
      "type": "event"
    },
    {
      "inputs": [
        {
          "internalType": "address",
          "name": "owner",
          "type": "address"
        },
        {
          "internalType": "address",
          "name": "spender",
          "type": "address"
        }
      ],
      "name": "allowance",
      "outputs": [
        {
          "internalType": "uint256",
          "name": "",
          "type": "uint256"
        }
      ],
      "stateMutability": "view",
      "type": "function"
    },
    {
      "inputs": [
        {
          "internalType": "address",
          "name": "spender",
          "type": "address"
        },
        {
          "internalType": "uint256",
          "name": "amount",
          "type": "uint256"
        }
      ],
      "name": "approve",
      "outputs": [
        {
          "internalType": "bool",
          "name": "",
          "type": "bool"
        }
      ],
      "stateMutability": "nonpayable",
      "type": "function"
    },
    {
      "inputs": [
        {
          "internalType": "address",
          "name": "account",
          "type": "address"
        }
      ],
      "name": "balanceOf",
      "outputs": [
        {
          "internalType": "uint256",
          "name": "",
          "type": "uint256"
        }
      ],
      "stateMutability": "view",
      "type": "function"
    },
    {
      "inputs": [],
      "name": "decimals",
      "outputs": [
        {
          "internalType": "uint8",
          "name": "",
          "type": "uint8"
        }
      ],
      "stateMutability": "view",
      "type": "function"
    },
    {
      "inputs": [
        {
          "internalType": "address",
          "name": "spender",
          "type": "address"
        },
        {
          "internalType": "uint256",
          "name": "subtractedValue",
          "type": "uint256"
        }
      ],
      "name": "decreaseAllowance",
      "outputs": [
        {
          "internalType": "bool",
          "name": "",
          "type": "bool"
        }
      ],
      "stateMutability": "nonpayable",
      "type": "function"
    },
    {
      "inputs": [
        {
          "internalType": "uint256",
          "name": "timestamp",
          "type": "uint256"
        }
      ],
      "name": "endEra",
      "outputs": [],
      "stateMutability": "nonpayable",
      "type": "function"
    },
    {
      "inputs": [],
      "name": "getCurrentEra",
      "outputs": [
        {
          "components": [
            {
              "internalType": "bytes32",
              "name": "id",
              "type": "bytes32"
            },
            {
              "internalType": "uint256",
              "name": "colectedFeesAmount",
              "type": "uint256"
            },
            {
              "internalType": "uint256",
              "name": "startDate",
              "type": "uint256"
            },
            {
              "internalType": "uint256",
              "name": "endDate",
              "type": "uint256"
            },
            {
              "internalType": "address",
              "name": "chairman",
              "type": "address"
            },
            {
              "internalType": "uint256",
              "name": "requiredQuorum",
              "type": "uint256"
            },
            {
              "internalType": "bool",
              "name": "isQuorumReached",
              "type": "bool"
            },
            {
              "internalType": "uint256",
              "name": "possitiveVotes",
              "type": "uint256"
            },
            {
              "internalType": "uint256",
              "name": "negativeVotes",
              "type": "uint256"
            },
            {
              "internalType": "bool",
              "name": "accepted",
              "type": "bool"
            },
            {
              "internalType": "bool",
              "name": "ended",
              "type": "bool"
            }
          ],
          "internalType": "struct Eras.Era",
          "name": "currentEra",
          "type": "tuple"
        }
      ],
      "stateMutability": "view",
      "type": "function"
    },
    {
      "inputs": [
        {
          "internalType": "bytes32",
          "name": "eraId_",
          "type": "bytes32"
        }
      ],
      "name": "getEraById",
      "outputs": [
        {
          "components": [
            {
              "internalType": "bytes32",
              "name": "id",
              "type": "bytes32"
            },
            {
              "internalType": "uint256",
              "name": "colectedFeesAmount",
              "type": "uint256"
            },
            {
              "internalType": "uint256",
              "name": "startDate",
              "type": "uint256"
            },
            {
              "internalType": "uint256",
              "name": "endDate",
              "type": "uint256"
            },
            {
              "internalType": "address",
              "name": "chairman",
              "type": "address"
            },
            {
              "internalType": "uint256",
              "name": "requiredQuorum",
              "type": "uint256"
            },
            {
              "internalType": "bool",
              "name": "isQuorumReached",
              "type": "bool"
            },
            {
              "internalType": "uint256",
              "name": "possitiveVotes",
              "type": "uint256"
            },
            {
              "internalType": "uint256",
              "name": "negativeVotes",
              "type": "uint256"
            },
            {
              "internalType": "bool",
              "name": "accepted",
              "type": "bool"
            },
            {
              "internalType": "bool",
              "name": "ended",
              "type": "bool"
            }
          ],
          "internalType": "struct Eras.Era",
          "name": "era",
          "type": "tuple"
        }
      ],
      "stateMutability": "view",
      "type": "function"
    },
    {
      "inputs": [],
      "name": "getErasCount",
      "outputs": [
        {
          "internalType": "uint256",
          "name": "",
          "type": "uint256"
        }
      ],
      "stateMutability": "view",
      "type": "function"
    },
    {
      "inputs": [
        {
          "internalType": "address",
          "name": "address_",
          "type": "address"
        }
      ],
      "name": "getStakedAmount",
      "outputs": [
        {
          "internalType": "uint256",
          "name": "",
          "type": "uint256"
        }
      ],
      "stateMutability": "view",
      "type": "function"
    },
    {
      "inputs": [
        {
          "internalType": "address",
          "name": "address_",
          "type": "address"
        }
      ],
      "name": "getStakeholderInformation",
      "outputs": [
        {
          "internalType": "uint256",
          "name": "",
          "type": "uint256"
        },
        {
          "internalType": "uint256",
          "name": "",
          "type": "uint256"
        },
        {
          "internalType": "uint256",
          "name": "",
          "type": "uint256"
        },
        {
          "internalType": "uint256",
          "name": "",
          "type": "uint256"
        },
        {
          "internalType": "bool",
          "name": "",
          "type": "bool"
        }
      ],
      "stateMutability": "view",
      "type": "function"
    },
    {
      "inputs": [],
      "name": "getStakeholders",
      "outputs": [
        {
          "components": [
            {
              "internalType": "address",
              "name": "user",
              "type": "address"
            },
            {
              "internalType": "uint256",
              "name": "totalAmount",
              "type": "uint256"
            },
            {
              "internalType": "uint256",
              "name": "ownedAmount",
              "type": "uint256"
            },
            {
              "internalType": "uint256",
              "name": "nominatedAmount",
              "type": "uint256"
            },
            {
              "internalType": "uint256",
              "name": "nominatorsCount",
              "type": "uint256"
            },
            {
              "internalType": "bool",
              "name": "canValidate",
              "type": "bool"
            },
            {
              "internalType": "uint256",
              "name": "notCollectedTokenRewards",
              "type": "uint256"
            }
          ],
          "internalType": "struct Stakeholders.Stakeholder[]",
          "name": "stakeholders",
          "type": "tuple[]"
        }
      ],
      "stateMutability": "view",
      "type": "function"
    },
    {
      "inputs": [],
      "name": "getValidatorsCount",
      "outputs": [
        {
          "internalType": "uint256",
          "name": "",
          "type": "uint256"
        }
      ],
      "stateMutability": "view",
      "type": "function"
    },
    {
      "inputs": [
        {
          "internalType": "address",
          "name": "spender",
          "type": "address"
        },
        {
          "internalType": "uint256",
          "name": "addedValue",
          "type": "uint256"
        }
      ],
      "name": "increaseAllowance",
      "outputs": [
        {
          "internalType": "bool",
          "name": "",
          "type": "bool"
        }
      ],
      "stateMutability": "nonpayable",
      "type": "function"
    },
    {
      "inputs": [],
      "name": "name",
      "outputs": [
        {
          "internalType": "string",
          "name": "",
          "type": "string"
        }
      ],
      "stateMutability": "view",
      "type": "function"
    },
    {
      "inputs": [
        {
          "internalType": "bytes32",
          "name": "eraId_",
          "type": "bytes32"
        },
        {
          "internalType": "address",
          "name": "chairman_",
          "type": "address"
        },
        {
          "internalType": "address[]",
          "name": "coucil_",
          "type": "address[]"
        },
        {
          "internalType": "uint256",
          "name": "utcTimeStamp_",
          "type": "uint256"
        },
        {
          "internalType": "uint256",
          "name": "calculatedSeed_",
          "type": "uint256"
        }
      ],
      "name": "proposeNewEra",
      "outputs": [],
      "stateMutability": "nonpayable",
      "type": "function"
    },
    {
      "inputs": [
        {
          "internalType": "uint256",
          "name": "amount_",
          "type": "uint256"
        }
      ],
      "name": "stake",
      "outputs": [],
      "stateMutability": "nonpayable",
      "type": "function"
    },
    {
      "inputs": [],
      "name": "symbol",
      "outputs": [
        {
          "internalType": "string",
          "name": "",
          "type": "string"
        }
      ],
      "stateMutability": "view",
      "type": "function"
    },
    {
      "inputs": [],
      "name": "totalSupply",
      "outputs": [
        {
          "internalType": "uint256",
          "name": "",
          "type": "uint256"
        }
      ],
      "stateMutability": "view",
      "type": "function"
    },
    {
      "inputs": [
        {
          "internalType": "address",
          "name": "to",
          "type": "address"
        },
        {
          "internalType": "uint256",
          "name": "amount",
          "type": "uint256"
        }
      ],
      "name": "transfer",
      "outputs": [
        {
          "internalType": "bool",
          "name": "",
          "type": "bool"
        }
      ],
      "stateMutability": "nonpayable",
      "type": "function"
    },
    {
      "inputs": [
        {
          "internalType": "address",
          "name": "from",
          "type": "address"
        },
        {
          "internalType": "address",
          "name": "to",
          "type": "address"
        },
        {
          "internalType": "uint256",
          "name": "amount",
          "type": "uint256"
        }
      ],
      "name": "transferFrom",
      "outputs": [
        {
          "internalType": "bool",
          "name": "",
          "type": "bool"
        }
      ],
      "stateMutability": "nonpayable",
      "type": "function"
    },
    {
      "inputs": [
        {
          "internalType": "uint256",
          "name": "amount_",
          "type": "uint256"
        }
      ],
      "name": "unstake",
      "outputs": [],
      "stateMutability": "nonpayable",
      "type": "function"
    },
    {
      "inputs": [
        {
          "internalType": "bytes32",
          "name": "eraId",
          "type": "bytes32"
        },
        {
          "internalType": "bool",
          "name": "approves",
          "type": "bool"
        }
      ],
      "name": "voteForProposedEra",
      "outputs": [],
      "stateMutability": "nonpayable",
      "type": "function"
    },
    {
      "inputs": [],
      "name": "getOwnerAddress",
      "outputs": [
        {
          "internalType": "address",
          "name": "",
          "type": "address"
        }
      ],
      "stateMutability": "view",
      "type": "function"
    }
  ],
  "bytecode": "0x60c06040523480156200001157600080fd5b506040518060400160405280600f81526020017f476f6c644f7261636c65546f6b656e00000000000000000000000000000000008152506040518060400160405280600381526020017f474f54000000000000000000000000000000000000000000000000000000000081525069043c33c1937564800000683635c9adc5dea0000083838382828160039080519060200190620000b0929190620002df565b508060049080519060200190620000c9929190620002df565b505050806080818152505060006005819055505050508060a081815250505050505033601160006101000a81548173ffffffffffffffffffffffffffffffffffffffff021916908373ffffffffffffffffffffffffffffffffffffffff1602179055506200015633600a69043c33c19375648000006200014a91906200048f565b6200015c60201b60201c565b6200058e565b600073ffffffffffffffffffffffffffffffffffffffff168273ffffffffffffffffffffffffffffffffffffffff161415620001cf576040517f08c379a0000000000000000000000000000000000000000000000000000000008152600401620001c690620003e2565b60405180910390fd5b620001e360008383620002d560201b60201c565b8060026000828254620001f7919062000432565b92505081905550806000808473ffffffffffffffffffffffffffffffffffffffff1673ffffffffffffffffffffffffffffffffffffffff16815260200190815260200160002060008282546200024e919062000432565b925050819055508173ffffffffffffffffffffffffffffffffffffffff16600073ffffffffffffffffffffffffffffffffffffffff167fddf252ad1be2c89b69c2b068fc378daa952ba7f163c4a11628f55a4df523b3ef83604051620002b5919062000404565b60405180910390a3620002d160008383620002da60201b60201c565b5050565b505050565b505050565b828054620002ed90620004fa565b90600052602060002090601f0160209004810192826200031157600085556200035d565b82601f106200032c57805160ff19168380011785556200035d565b828001600101855582156200035d579182015b828111156200035c5782518255916020019190600101906200033f565b5b5090506200036c919062000370565b5090565b5b808211156200038b57600081600090555060010162000371565b5090565b60006200039e601f8362000421565b91507f45524332303a206d696e7420746f20746865207a65726f2061646472657373006000830152602082019050919050565b620003dc81620004f0565b82525050565b60006020820190508181036000830152620003fd816200038f565b9050919050565b60006020820190506200041b6000830184620003d1565b92915050565b600082825260208201905092915050565b60006200043f82620004f0565b91506200044c83620004f0565b9250827fffffffffffffffffffffffffffffffffffffffffffffffffffffffffffffffff0382111562000484576200048362000530565b5b828201905092915050565b60006200049c82620004f0565b9150620004a983620004f0565b9250817fffffffffffffffffffffffffffffffffffffffffffffffffffffffffffffffff0483118215151615620004e557620004e462000530565b5b828202905092915050565b6000819050919050565b600060028204905060018216806200051357607f821691505b602082108114156200052a57620005296200055f565b5b50919050565b7f4e487b7100000000000000000000000000000000000000000000000000000000600052601160045260246000fd5b7f4e487b7100000000000000000000000000000000000000000000000000000000600052602260045260246000fd5b60805160a051614960620005c26000396000611ad60152600081816107f90152818161262e015261299201526149606000f3fe608060405234801561001057600080fd5b50600436106101585760003560e01c80634da6a556116100c3578063a9059cbb1161007c578063a9059cbb146103f3578063b699224714610423578063d250b6cb14610441578063dd62ed3e1461045f578063e4ae026f1461048f578063e6037852146104ab57610158565b80634da6a5561461030b578063533aa7b81461033b57806370a082311461035957806395d89b4114610389578063a457c2d7146103a7578063a694fc3a146103d757610158565b80632bf9262c116101155780632bf9262c146102355780632e17de7814610269578063313ce5671461028557806339509351146102a357806340c86f1a146102d35780634c5962cc146102ef57610158565b806306fdde031461015d578063095ea7b31461017b5780630c4f65bd146101ab57806318160ddd146101c957806323b872dd146101e75780632749824014610217575b600080fd5b6101656104db565b6040516101729190613fea565b60405180910390f35b61019560048036038101906101909190613072565b61056d565b6040516101a29190613f3e565b60405180910390f35b6101b3610590565b6040516101c09190613f01565b60405180910390f35b6101d16105ba565b6040516101de9190614364565b60405180910390f35b61020160048036038101906101fc9190613023565b6105c4565b60405161020e9190613f3e565b60405180910390f35b61021f6105f3565b60405161022c9190614364565b60405180910390f35b61024f600480360381019061024a9190612fbe565b6105fd565b60405161026095949392919061437f565b60405180910390f35b610283600480360381019061027e91906131a2565b6106db565b005b61028d610888565b60405161029a91906143d2565b60405180910390f35b6102bd60048036038101906102b89190613072565b610891565b6040516102ca9190613f3e565b60405180910390f35b6102ed60048036038101906102e89190613166565b61093b565b005b610309600480360381019061030491906130d7565b610f06565b005b61032560048036038101906103209190612fbe565b61121f565b6040516103329190614364565b60405180910390f35b6103436112d8565b6040516103509190614364565b60405180910390f35b610373600480360381019061036e9190612fbe565b6112e2565b6040516103809190614364565b60405180910390f35b61039161132a565b60405161039e9190613fea565b60405180910390f35b6103c160048036038101906103bc9190613072565b6113bc565b6040516103ce9190613f3e565b60405180910390f35b6103f160048036038101906103ec91906131a2565b6114a6565b005b61040d60048036038101906104089190613072565b6115bb565b60405161041a9190613f3e565b60405180910390f35b61042b6115de565b6040516104389190613f1c565b60405180910390f35b6104496116e0565b604051610456919061432c565b60405180910390f35b61047960048036038101906104749190612fe7565b611849565b6040516104869190614364565b60405180910390f35b6104a960048036038101906104a491906131a2565b6118d0565b005b6104c560048036038101906104c091906130ae565b611b60565b6040516104d2919061432c565b60405180910390f35b6060600380546104ea906146ea565b80601f0160208091040260200160405190810160405280929190818152602001828054610516906146ea565b80156105635780601f1061053857610100808354040283529160200191610563565b820191906000526020600020905b81548152906001019060200180831161054657829003601f168201915b5050505050905090565b600080610578611d0d565b9050610585818585611d15565b600191505092915050565b6000601160009054906101000a900473ffffffffffffffffffffffffffffffffffffffff16905090565b6000600254905090565b6000806105cf611d0d565b90506105dc858285611ee0565b6105e7858585611f6c565b60019150509392505050565b6000600554905090565b60008060008060008061060f876121ed565b905060008111610654576040517f08c379a000000000000000000000000000000000000000000000000000000000815260040161064b906141cc565b60405180910390fd5b600060078281548110610690577f4e487b7100000000000000000000000000000000000000000000000000000000600052603260045260246000fd5b9060005260206000209060070201905080600101548160020154826003015483600401548460050160009054906101000a900460ff1696509650965096509650505091939590929450565b60003390506000600960008373ffffffffffffffffffffffffffffffffffffffff1673ffffffffffffffffffffffffffffffffffffffff1681526020019081526020016000205490506000811415610734575050610885565b600060078281548110610770577f4e487b7100000000000000000000000000000000000000000000000000000000600052603260045260246000fd5b9060005260206000209060070201905083816001015410156107c7576040517f08c379a00000000000000000000000000000000000000000000000000000000081526004016107be9061410c565b60405180910390fd5b6000848260010160008282546107dd91906145b9565b92505081905590508082600101819055508082600201819055507f000000000000000000000000000000000000000000000000000000000000000081106108405760018260050160006101000a81548160ff021916908315150217905550610876565b60008260050160006101000a81548160ff02191690831515021790555060056000815480929190610870906146c0565b91905055505b61088084866122e0565b505050505b50565b60006012905090565b60008061089c611d0d565b9050610930818585600160008673ffffffffffffffffffffffffffffffffffffffff1673ffffffffffffffffffffffffffffffffffffffff16815260200190815260200160002060008973ffffffffffffffffffffffffffffffffffffffff1673ffffffffffffffffffffffffffffffffffffffff1681526020019081526020016000205461092b91906144d8565b611d15565b600191505092915050565b6000600860003373ffffffffffffffffffffffffffffffffffffffff1673ffffffffffffffffffffffffffffffffffffffff16815260200190815260200160002054905060008114156109c3576040517f08c379a00000000000000000000000000000000000000000000000000000000081526004016109ba9061420c565b60405180910390fd5b6000600b60008581526020019081526020016000205490506000811415610a1f576040517f08c379a0000000000000000000000000000000000000000000000000000000008152600401610a169061422c565b60405180910390fd5b6001600a80549050610a3191906145b9565b8114610a72576040517f08c379a0000000000000000000000000000000000000000000000000000000008152600401610a69906140ac565b60405180910390fd5b6000600a8281548110610aae577f4e487b7100000000000000000000000000000000000000000000000000000000600052603260045260246000fd5b90600052602060002090600a020190506000801b81600001541415610b08576040517f08c379a0000000000000000000000000000000000000000000000000000000008152600401610aff9061406c565b60405180910390fd5b600073ffffffffffffffffffffffffffffffffffffffff168160040160009054906101000a900473ffffffffffffffffffffffffffffffffffffffff1673ffffffffffffffffffffffffffffffffffffffff161415610b9c576040517f08c379a0000000000000000000000000000000000000000000000000000000008152600401610b93906140cc565b60405180910390fd5b600015158160060160009054906101000a900460ff16151514610bf4576040517f08c379a0000000000000000000000000000000000000000000000000000000008152600401610beb906142cc565b60405180910390fd5b60003390506000600c600088815260200190815260200160002060008373ffffffffffffffffffffffffffffffffffffffff1673ffffffffffffffffffffffffffffffffffffffff1681526020019081526020016000209050600073ffffffffffffffffffffffffffffffffffffffff168160000160009054906101000a900473ffffffffffffffffffffffffffffffffffffffff1673ffffffffffffffffffffffffffffffffffffffff1614610ce0576040517f08c379a0000000000000000000000000000000000000000000000000000000008152600401610cd79061414c565b60405180910390fd5b600115158615151415610d5c5760018360070154610cfe91906144d8565b83600701819055508260050154836007015410610d575760018360060160006101000a81548160ff02191690831515021790555060018360090160006101000a81548160ff021916908315150217905550866010819055505b610dc0565b60018360080154610d6d91906144d8565b83600801819055508260050154836008015410610dbf5760018360060160006101000a81548160ff02191690831515021790555060008360090160006101000a81548160ff0219169083151502179055505b5b600115158360060160009054906101000a900460ff1615151415610e16577ff8fc26765c3e6892820e259afcf2966297e8970183df3a7bdb1be186e80208cd83604051610e0d9190614348565b60405180910390a15b60405180604001604052808373ffffffffffffffffffffffffffffffffffffffff168152602001871515815250600c600089815260200190815260200160002060008473ffffffffffffffffffffffffffffffffffffffff1673ffffffffffffffffffffffffffffffffffffffff16815260200190815260200160002060008201518160000160006101000a81548173ffffffffffffffffffffffffffffffffffffffff021916908373ffffffffffffffffffffffffffffffffffffffff16021790555060208201518160000160146101000a81548160ff02191690831515021790555090505050505050505050565b60003390506000610f15612440565b9050600073ffffffffffffffffffffffffffffffffffffffff16816080015173ffffffffffffffffffffffffffffffffffffffff1614610fc257806080015173ffffffffffffffffffffffffffffffffffffffff168273ffffffffffffffffffffffffffffffffffffffff1614610fc1576040517f08c379a0000000000000000000000000000000000000000000000000000000008152600401610fb8906141ac565b60405180910390fd5b5b6000600b6000898152602001908152602001600020549050600081141561101e576040517f08c379a00000000000000000000000000000000000000000000000000000000081526004016110159061418c565b60405180910390fd5b6000600a805490509050600a6040518061016001604052808b815260200160008152602001888152602001600081526020018a73ffffffffffffffffffffffffffffffffffffffff1681526020016110746125ed565b815260200160001515815260200160008152602001600081526020016000151581526020016000151581525090806001815401808255809150506001900390600052602060002090600a02016000909190919091506000820151816000015560208201518160010155604082015181600201556060820151816003015560808201518160040160006101000a81548173ffffffffffffffffffffffffffffffffffffffff021916908373ffffffffffffffffffffffffffffffffffffffff16021790555060a0820151816005015560c08201518160060160006101000a81548160ff02191690831515021790555060e0820151816007015561010082015181600801556101208201518160090160006101000a81548160ff0219169083151502179055506101408201518160090160016101000a81548160ff021916908315150217905550505080600b60008b8152602001908152602001600020819055507f6d4aad47cb7bcb13b25ae71b45f2c76944033a9b2e76c78a342b7863412504e68989896005548960405161120c959493929190613f59565b60405180910390a1505050505050505050565b600081600073ffffffffffffffffffffffffffffffffffffffff168173ffffffffffffffffffffffffffffffffffffffff16141561125c57600080fd5b6000611267846121ed565b9050600081141561127c5760009250506112d2565b6000600782815481106112b8577f4e487b7100000000000000000000000000000000000000000000000000000000600052603260045260246000fd5b906000526020600020906007020190508060010154935050505b50919050565b6000600654905090565b60008060008373ffffffffffffffffffffffffffffffffffffffff1673ffffffffffffffffffffffffffffffffffffffff168152602001908152602001600020549050919050565b606060048054611339906146ea565b80601f0160208091040260200160405190810160405280929190818152602001828054611365906146ea565b80156113b25780601f10611387576101008083540402835291602001916113b2565b820191906000526020600020905b81548152906001019060200180831161139557829003601f168201915b5050505050905090565b6000806113c7611d0d565b90506000600160008373ffffffffffffffffffffffffffffffffffffffff1673ffffffffffffffffffffffffffffffffffffffff16815260200190815260200160002060008673ffffffffffffffffffffffffffffffffffffffff1673ffffffffffffffffffffffffffffffffffffffff1681526020019081526020016000205490508381101561148d576040517f08c379a0000000000000000000000000000000000000000000000000000000008152600401611484906142ec565b60405180910390fd5b61149a8286868403611d15565b60019250505092915050565b600033905060003073ffffffffffffffffffffffffffffffffffffffff166370a08231836040518263ffffffff1660e01b81526004016114e69190613f01565b60206040518083038186803b1580156114fe57600080fd5b505afa158015611512573d6000803e3d6000fd5b505050506040513d601f19601f8201168201806040525081019061153691906131cb565b90508281101561157b576040517f08c379a00000000000000000000000000000000000000000000000000000000081526004016115729061416c565b60405180910390fd5b6000611586836121ed565b905060008114156115a05761159b838561262a565b6115ab565b6115aa81856128f6565b5b6115b58385612a15565b50505050565b6000806115c6611d0d565b90506115d3818585611f6c565b600191505092915050565b60606007805480602002602001604051908101604052809291908181526020016000905b828210156116d757838290600052602060002090600702016040518060e00160405290816000820160009054906101000a900473ffffffffffffffffffffffffffffffffffffffff1673ffffffffffffffffffffffffffffffffffffffff1673ffffffffffffffffffffffffffffffffffffffff168152602001600182015481526020016002820154815260200160038201548152602001600482015481526020016005820160009054906101000a900460ff1615151515815260200160068201548152505081526020019060010190611602565b50505050905090565b6116e8612e46565b6000600b6000600e548152602001908152602001600020549050600a818154811061173c577f4e487b7100000000000000000000000000000000000000000000000000000000600052603260045260246000fd5b90600052602060002090600a020160405180610160016040529081600082015481526020016001820154815260200160028201548152602001600382015481526020016004820160009054906101000a900473ffffffffffffffffffffffffffffffffffffffff1673ffffffffffffffffffffffffffffffffffffffff1673ffffffffffffffffffffffffffffffffffffffff168152602001600582015481526020016006820160009054906101000a900460ff1615151515815260200160078201548152602001600882015481526020016009820160009054906101000a900460ff161515151581526020016009820160019054906101000a900460ff16151515158152505091505090565b6000600160008473ffffffffffffffffffffffffffffffffffffffff1673ffffffffffffffffffffffffffffffffffffffff16815260200190815260200160002060008373ffffffffffffffffffffffffffffffffffffffff1673ffffffffffffffffffffffffffffffffffffffff16815260200190815260200160002054905092915050565b60003390506000600b600060105481526020019081526020016000205490506000600a828154811061192b577f4e487b7100000000000000000000000000000000000000000000000000000000600052603260045260246000fd5b90600052602060002090600a020160405180610160016040529081600082015481526020016001820154815260200160028201548152602001600382015481526020016004820160009054906101000a900473ffffffffffffffffffffffffffffffffffffffff1673ffffffffffffffffffffffffffffffffffffffff1673ffffffffffffffffffffffffffffffffffffffff168152602001600582015481526020016006820160009054906101000a900460ff1615151515815260200160078201548152602001600882015481526020016009820160009054906101000a900460ff161515151581526020016009820160019054906101000a900460ff1615151515815250509050806080015173ffffffffffffffffffffffffffffffffffffffff168373ffffffffffffffffffffffffffffffffffffffff1614611aa6576040517f08c379a0000000000000000000000000000000000000000000000000000000008152600401611a9d906141ec565b60405180910390fd5b6000801b600f54148015611abe57506000801b600e54145b15611ad157601054600f81905550611b14565b611b0a7f00000000000000000000000000000000000000000000000000000000000000008260200151611b0491906144d8565b84612bec565b600e54600f819055505b601054600e819055507f722e3d4179a09427e9445cc06f5ccd49fe7a5cb5f568f00324d780aca56e341c600e548486604051611b5293929190613fb3565b60405180910390a150505050565b611b68612e46565b6000600b60008481526020019081526020016000205490506000811415611bc4576040517f08c379a0000000000000000000000000000000000000000000000000000000008152600401611bbb9061406c565b60405180910390fd5b600a8181548110611bfe577f4e487b7100000000000000000000000000000000000000000000000000000000600052603260045260246000fd5b90600052602060002090600a020160405180610160016040529081600082015481526020016001820154815260200160028201548152602001600382015481526020016004820160009054906101000a900473ffffffffffffffffffffffffffffffffffffffff1673ffffffffffffffffffffffffffffffffffffffff1673ffffffffffffffffffffffffffffffffffffffff168152602001600582015481526020016006820160009054906101000a900460ff1615151515815260200160078201548152602001600882015481526020016009820160009054906101000a900460ff161515151581526020016009820160019054906101000a900460ff161515151581525050915050919050565b600033905090565b600073ffffffffffffffffffffffffffffffffffffffff168373ffffffffffffffffffffffffffffffffffffffff161415611d85576040517f08c379a0000000000000000000000000000000000000000000000000000000008152600401611d7c906142ac565b60405180910390fd5b600073ffffffffffffffffffffffffffffffffffffffff168273ffffffffffffffffffffffffffffffffffffffff161415611df5576040517f08c379a0000000000000000000000000000000000000000000000000000000008152600401611dec9061408c565b60405180910390fd5b80600160008573ffffffffffffffffffffffffffffffffffffffff1673ffffffffffffffffffffffffffffffffffffffff16815260200190815260200160002060008473ffffffffffffffffffffffffffffffffffffffff1673ffffffffffffffffffffffffffffffffffffffff168152602001908152602001600020819055508173ffffffffffffffffffffffffffffffffffffffff168373ffffffffffffffffffffffffffffffffffffffff167f8c5be1e5ebec7d5bd14f71427d1e84f3dd0314c0f7b2291e5b200ac8c7c3b92583604051611ed39190614364565b60405180910390a3505050565b6000611eec8484611849565b90507fffffffffffffffffffffffffffffffffffffffffffffffffffffffffffffffff8114611f665781811015611f58576040517f08c379a0000000000000000000000000000000000000000000000000000000008152600401611f4f906140ec565b60405180910390fd5b611f658484848403611d15565b5b50505050565b600073ffffffffffffffffffffffffffffffffffffffff168373ffffffffffffffffffffffffffffffffffffffff161415611fdc576040517f08c379a0000000000000000000000000000000000000000000000000000000008152600401611fd39061428c565b60405180910390fd5b600073ffffffffffffffffffffffffffffffffffffffff168273ffffffffffffffffffffffffffffffffffffffff16141561204c576040517f08c379a00000000000000000000000000000000000000000000000000000000081526004016120439061400c565b60405180910390fd5b612057838383612d54565b60008060008573ffffffffffffffffffffffffffffffffffffffff1673ffffffffffffffffffffffffffffffffffffffff168152602001908152602001600020549050818110156120dd576040517f08c379a00000000000000000000000000000000000000000000000000000000081526004016120d49061412c565b60405180910390fd5b8181036000808673ffffffffffffffffffffffffffffffffffffffff1673ffffffffffffffffffffffffffffffffffffffff16815260200190815260200160002081905550816000808573ffffffffffffffffffffffffffffffffffffffff1673ffffffffffffffffffffffffffffffffffffffff168152602001908152602001600020600082825461217091906144d8565b925050819055508273ffffffffffffffffffffffffffffffffffffffff168473ffffffffffffffffffffffffffffffffffffffff167fddf252ad1be2c89b69c2b068fc378daa952ba7f163c4a11628f55a4df523b3ef846040516121d49190614364565b60405180910390a36121e7848484612d59565b50505050565b600081600073ffffffffffffffffffffffffffffffffffffffff168173ffffffffffffffffffffffffffffffffffffffff16141561222a57600080fd5b6000600960008573ffffffffffffffffffffffffffffffffffffffff1673ffffffffffffffffffffffffffffffffffffffff16815260200190815260200160002054905060008114156122815760009250506122da565b600160078054905061229391906145b9565b8111156122d5576040517f08c379a00000000000000000000000000000000000000000000000000000000081526004016122cc9061424c565b60405180910390fd5b809250505b50919050565b600073ffffffffffffffffffffffffffffffffffffffff168273ffffffffffffffffffffffffffffffffffffffff161415612350576040517f08c379a00000000000000000000000000000000000000000000000000000000081526004016123479061430c565b60405180910390fd5b61235c60008383612d54565b806002600082825461236e91906144d8565b92505081905550806000808473ffffffffffffffffffffffffffffffffffffffff1673ffffffffffffffffffffffffffffffffffffffff16815260200190815260200160002060008282546123c391906144d8565b925050819055508173ffffffffffffffffffffffffffffffffffffffff16600073ffffffffffffffffffffffffffffffffffffffff167fddf252ad1be2c89b69c2b068fc378daa952ba7f163c4a11628f55a4df523b3ef836040516124289190614364565b60405180910390a361243c60008383612d59565b5050565b612448612e46565b6000600b6000600e54815260200190815260200160002054905060008114156124a6576040517f08c379a000000000000000000000000000000000000000000000000000000000815260040161249d9061406c565b60405180910390fd5b600a81815481106124e0577f4e487b7100000000000000000000000000000000000000000000000000000000600052603260045260246000fd5b90600052602060002090600a020160405180610160016040529081600082015481526020016001820154815260200160028201548152602001600382015481526020016004820160009054906101000a900473ffffffffffffffffffffffffffffffffffffffff1673ffffffffffffffffffffffffffffffffffffffff1673ffffffffffffffffffffffffffffffffffffffff168152602001600582015481526020016006820160009054906101000a900460ff1615151515815260200160078201548152602001600882015481526020016009820160009054906101000a900460ff161515151581526020016009820160019054906101000a900460ff16151515158152505091505090565b6000600160055414156126035760019050612627565b600060646033600554612616919061455f565b612620919061452e565b9050809150505b90565b60007f0000000000000000000000000000000000000000000000000000000000000000821015905060006007805490509050600081141561278c5780806126709061479e565b91505060076040518060e00160405280600073ffffffffffffffffffffffffffffffffffffffff168152602001600081526020016000815260200160008152602001600081526020016000151581526020016000815250908060018154018082558091505060019003906000526020600020906007020160009091909190915060008201518160000160006101000a81548173ffffffffffffffffffffffffffffffffffffffff021916908373ffffffffffffffffffffffffffffffffffffffff1602179055506020820151816001015560408201518160020155606082015181600301556080820151816004015560a08201518160050160006101000a81548160ff02191690831515021790555060c0820151816006015550505b60076040518060e001604052808673ffffffffffffffffffffffffffffffffffffffff168152602001858152602001858152602001600081526020016000815260200184151581526020016000815250908060018154018082558091505060019003906000526020600020906007020160009091909190915060008201518160000160006101000a81548173ffffffffffffffffffffffffffffffffffffffff021916908373ffffffffffffffffffffffffffffffffffffffff1602179055506020820151816001015560408201518160020155606082015181600301556080820151816004015560a08201518160050160006101000a81548160ff02191690831515021790555060c08201518160060155505080600960008673ffffffffffffffffffffffffffffffffffffffff1673ffffffffffffffffffffffffffffffffffffffff168152602001908152602001600020819055506128ef828583612d5e565b5050505050565b600060078381548110612932577f4e487b7100000000000000000000000000000000000000000000000000000000600052603260045260246000fd5b906000526020600020906007020190508181600101600082825461295691906144d8565b925050819055508181600201600082825461297191906144d8565b925050819055508060050160009054906101000a900460ff16612a105760007f00000000000000000000000000000000000000000000000000000000000000008260010154101590508015612a0e5760018260050160006101000a81548160ff021916908315150217905550612a0c818360000160009054906101000a900473ffffffffffffffffffffffffffffffffffffffff1686612d5e565b505b505b505050565b600073ffffffffffffffffffffffffffffffffffffffff168273ffffffffffffffffffffffffffffffffffffffff161415612a85576040517f08c379a0000000000000000000000000000000000000000000000000000000008152600401612a7c9061426c565b60405180910390fd5b612a9182600083612d54565b60008060008473ffffffffffffffffffffffffffffffffffffffff1673ffffffffffffffffffffffffffffffffffffffff16815260200190815260200160002054905081811015612b17576040517f08c379a0000000000000000000000000000000000000000000000000000000008152600401612b0e9061402c565b60405180910390fd5b8181036000808573ffffffffffffffffffffffffffffffffffffffff1673ffffffffffffffffffffffffffffffffffffffff168152602001908152602001600020819055508160026000828254612b6e91906145b9565b92505081905550600073ffffffffffffffffffffffffffffffffffffffff168373ffffffffffffffffffffffffffffffffffffffff167fddf252ad1be2c89b69c2b068fc378daa952ba7f163c4a11628f55a4df523b3ef84604051612bd39190614364565b60405180910390a3612be783600084612d59565b505050565b6000600283612bfb919061452e565b90506000600960008473ffffffffffffffffffffffffffffffffffffffff1673ffffffffffffffffffffffffffffffffffffffff168152602001908152602001600020549050600060078281548110612c7d577f4e487b7100000000000000000000000000000000000000000000000000000000600052603260045260246000fd5b90600052602060002090600702019050600073ffffffffffffffffffffffffffffffffffffffff168160000160009054906101000a900473ffffffffffffffffffffffffffffffffffffffff1673ffffffffffffffffffffffffffffffffffffffff161415612d21576040517f08c379a0000000000000000000000000000000000000000000000000000000008152600401612d189061404c565b60405180910390fd5b82816006016000828254612d3591906144d8565b9250508190555060008386612d4a91906145b9565b9050505050505050565b505050565b505050565b600083612d6e5760009050612e3f565b6000600860008573ffffffffffffffffffffffffffffffffffffffff1673ffffffffffffffffffffffffffffffffffffffff1681526020019081526020016000205490506000811415612e215782600860008673ffffffffffffffffffffffffffffffffffffffff1673ffffffffffffffffffffffffffffffffffffffff1681526020019081526020016000208190555060056000815480929190612e129061479e565b91905055506001915050612e3f565b60056000815480929190612e349061479e565b919050555060019150505b9392505050565b60405180610160016040528060008019168152602001600081526020016000815260200160008152602001600073ffffffffffffffffffffffffffffffffffffffff1681526020016000815260200160001515815260200160008152602001600081526020016000151581526020016000151581525090565b6000612ed2612ecd8461441e565b6143ed565b90508083825260208201905082856020860282011115612ef157600080fd5b60005b85811015612f215781612f078882612f2b565b845260208401935060208301925050600181019050612ef4565b5050509392505050565b600081359050612f3a816148ce565b92915050565b600082601f830112612f5157600080fd5b8135612f61848260208601612ebf565b91505092915050565b600081359050612f79816148e5565b92915050565b600081359050612f8e816148fc565b92915050565b600081359050612fa381614913565b92915050565b600081519050612fb881614913565b92915050565b600060208284031215612fd057600080fd5b6000612fde84828501612f2b565b91505092915050565b60008060408385031215612ffa57600080fd5b600061300885828601612f2b565b925050602061301985828601612f2b565b9150509250929050565b60008060006060848603121561303857600080fd5b600061304686828701612f2b565b935050602061305786828701612f2b565b925050604061306886828701612f94565b9150509250925092565b6000806040838503121561308557600080fd5b600061309385828601612f2b565b92505060206130a485828601612f94565b9150509250929050565b6000602082840312156130c057600080fd5b60006130ce84828501612f7f565b91505092915050565b600080600080600060a086880312156130ef57600080fd5b60006130fd88828901612f7f565b955050602061310e88828901612f2b565b945050604086013567ffffffffffffffff81111561312b57600080fd5b61313788828901612f40565b935050606061314888828901612f94565b925050608061315988828901612f94565b9150509295509295909350565b6000806040838503121561317957600080fd5b600061318785828601612f7f565b925050602061319885828601612f6a565b9150509250929050565b6000602082840312156131b457600080fd5b60006131c284828501612f94565b91505092915050565b6000602082840312156131dd57600080fd5b60006131eb84828501612fa9565b91505092915050565b60006132008383613224565b60208301905092915050565b60006132188383613e46565b60e08301905092915050565b61322d8161462e565b82525050565b61323c8161462e565b82525050565b600061324d8261446a565b61325781856144a5565b93506132628361444a565b8060005b8381101561329357815161327a88826131f4565b97506132858361448b565b925050600181019050613266565b5085935050505092915050565b60006132ab82614475565b6132b581856144b6565b93506132c08361445a565b8060005b838110156132f15781516132d8888261320c565b97506132e383614498565b9250506001810190506132c4565b5085935050505092915050565b61330781614640565b82525050565b61331681614640565b82525050565b6133258161464c565b82525050565b6133348161464c565b82525050565b600061334582614480565b61334f81856144c7565b935061335f81856020860161468d565b613368816148a3565b840191505092915050565b60006133806023836144c7565b91507f45524332303a207472616e7366657220746f20746865207a65726f206164647260008301527f65737300000000000000000000000000000000000000000000000000000000006020830152604082019050919050565b60006133e66022836144c7565b91507f45524332303a206275726e20616d6f756e7420657863656564732062616c616e60008301527f63650000000000000000000000000000000000000000000000000000000000006020830152604082019050919050565b600061344c601f836144c7565b91507f43686169726d616e206164647265737320646f6573206e6f74206578697374006000830152602082019050919050565b600061348c600e836144c7565b91507f496e76616c6964204572612049640000000000000000000000000000000000006000830152602082019050919050565b60006134cc6022836144c7565b91507f45524332303a20617070726f766520746f20746865207a65726f20616464726560008301527f73730000000000000000000000000000000000000000000000000000000000006020830152604082019050919050565b60006135326019836144c7565b91507f4572614964206973206e6f7420746865206c61737420657261000000000000006000830152602082019050919050565b60006135726021836144c7565b91507f45726120776974682070617373656420496420646f6573206e6f74206578697360008301527f74000000000000000000000000000000000000000000000000000000000000006020830152604082019050919050565b60006135d8601d836144c7565b91507f45524332303a20696e73756666696369656e7420616c6c6f77616e63650000006000830152602082019050919050565b60006136186022836144c7565b91507f496e73756666696369656e742062616c616e636520666f7220756e7374616b6960008301527f6e670000000000000000000000000000000000000000000000000000000000006020830152604082019050919050565b600061367e6026836144c7565b91507f45524332303a207472616e7366657220616d6f756e742065786365656473206260008301527f616c616e636500000000000000000000000000000000000000000000000000006020830152604082019050919050565b60006136e46017836144c7565b91507f56616c696461746f7220616c726561647920766f7465640000000000000000006000830152602082019050919050565b60006137246020836144c7565b91507f496e73756666696369656e742062616c616e636520666f72207374616b696e676000830152602082019050919050565b60006137646025836144c7565b91507f4572612077697468207468652073616d6520494420616c72656164792070726f60008301527f706f7365640000000000000000000000000000000000000000000000000000006020830152604082019050919050565b60006137ca602f836144c7565b91507f43616c6c6572206e6f742070726576696f7573206572612063686169726d616e60008301527f2e204163636573732064656e69656400000000000000000000000000000000006020830152604082019050919050565b60006138306025836144c7565b91507f41646472657373206e6f74206c696e6b656420746f20616e79207374616b656860008301527f6f6c6465720000000000000000000000000000000000000000000000000000006020830152604082019050919050565b60006138966021836144c7565b91507f4f6e6c792063686169726d616e2063616e20656e642063757272656e7420657260008301527f61000000000000000000000000000000000000000000000000000000000000006020830152604082019050919050565b60006138fc6023836144c7565b91507f566f74696e6720666f7262696464656e20666f72206e6f6e2d76616c6964617460008301527f6f727300000000000000000000000000000000000000000000000000000000006020830152604082019050919050565b6000613962600e836144c7565b91507f496e76616c6964206572612069640000000000000000000000000000000000006000830152602082019050919050565b60006139a26029836144c7565b91507f496e76616c696420696e64657820666f72207374616b65686f6c64657273206360008301527f6f6c6c656374696f6e00000000000000000000000000000000000000000000006020830152604082019050919050565b6000613a086021836144c7565b91507f45524332303a206275726e2066726f6d20746865207a65726f2061646472657360008301527f73000000000000000000000000000000000000000000000000000000000000006020830152604082019050919050565b6000613a6e6025836144c7565b91507f45524332303a207472616e736665722066726f6d20746865207a65726f20616460008301527f64726573730000000000000000000000000000000000000000000000000000006020830152604082019050919050565b6000613ad46024836144c7565b91507f45524332303a20617070726f76652066726f6d20746865207a65726f2061646460008301527f72657373000000000000000000000000000000000000000000000000000000006020830152604082019050919050565b6000613b3a601f836144c7565b91507f566f746520616c726561647920656e64656420666f72207468617420657261006000830152602082019050919050565b6000613b7a6025836144c7565b91507f45524332303a2064656372656173656420616c6c6f77616e63652062656c6f7760008301527f207a65726f0000000000000000000000000000000000000000000000000000006020830152604082019050919050565b6000613be0601f836144c7565b91507f45524332303a206d696e7420746f20746865207a65726f2061646472657373006000830152602082019050919050565b61016082016000820151613c2a600085018261331c565b506020820151613c3d6020850182613ed4565b506040820151613c506040850182613ed4565b506060820151613c636060850182613ed4565b506080820151613c766080850182613224565b5060a0820151613c8960a0850182613ed4565b5060c0820151613c9c60c08501826132fe565b5060e0820151613caf60e0850182613ed4565b50610100820151613cc4610100850182613ed4565b50610120820151613cd96101208501826132fe565b50610140820151613cee6101408501826132fe565b50505050565b61016082016000808301549050613d0a81614750565b613d17600086018261331c565b5060018301549050613d288161476a565b613d356020860182613ed4565b5060028301549050613d468161476a565b613d536040860182613ed4565b5060038301549050613d648161476a565b613d716060860182613ed4565b5060048301549050613d828161471c565b613d8f6080860182613224565b5060058301549050613da08161476a565b613dad60a0860182613ed4565b5060068301549050613dbe81614736565b613dcb60c08601826132fe565b5060078301549050613ddc8161476a565b613de960e0860182613ed4565b5060088301549050613dfa8161476a565b613e08610100860182613ed4565b5060098301549050613e1981614736565b613e276101208601826132fe565b50613e3181614784565b613e3f6101408601826132fe565b5050505050565b60e082016000820151613e5c6000850182613224565b506020820151613e6f6020850182613ed4565b506040820151613e826040850182613ed4565b506060820151613e956060850182613ed4565b506080820151613ea86080850182613ed4565b5060a0820151613ebb60a08501826132fe565b5060c0820151613ece60c0850182613ed4565b50505050565b613edd81614676565b82525050565b613eec81614676565b82525050565b613efb81614680565b82525050565b6000602082019050613f166000830184613233565b92915050565b60006020820190508181036000830152613f3681846132a0565b905092915050565b6000602082019050613f53600083018461330d565b92915050565b600060a082019050613f6e600083018861332b565b613f7b6020830187613233565b8181036040830152613f8d8186613242565b9050613f9c6060830185613ee3565b613fa96080830184613ee3565b9695505050505050565b6000606082019050613fc8600083018661332b565b613fd56020830185613233565b613fe26040830184613ee3565b949350505050565b60006020820190508181036000830152614004818461333a565b905092915050565b6000602082019050818103600083015261402581613373565b9050919050565b60006020820190508181036000830152614045816133d9565b9050919050565b600060208201905081810360008301526140658161343f565b9050919050565b600060208201905081810360008301526140858161347f565b9050919050565b600060208201905081810360008301526140a5816134bf565b9050919050565b600060208201905081810360008301526140c581613525565b9050919050565b600060208201905081810360008301526140e581613565565b9050919050565b60006020820190508181036000830152614105816135cb565b9050919050565b600060208201905081810360008301526141258161360b565b9050919050565b6000602082019050818103600083015261414581613671565b9050919050565b60006020820190508181036000830152614165816136d7565b9050919050565b6000602082019050818103600083015261418581613717565b9050919050565b600060208201905081810360008301526141a581613757565b9050919050565b600060208201905081810360008301526141c5816137bd565b9050919050565b600060208201905081810360008301526141e581613823565b9050919050565b6000602082019050818103600083015261420581613889565b9050919050565b60006020820190508181036000830152614225816138ef565b9050919050565b6000602082019050818103600083015261424581613955565b9050919050565b6000602082019050818103600083015261426581613995565b9050919050565b60006020820190508181036000830152614285816139fb565b9050919050565b600060208201905081810360008301526142a581613a61565b9050919050565b600060208201905081810360008301526142c581613ac7565b9050919050565b600060208201905081810360008301526142e581613b2d565b9050919050565b6000602082019050818103600083015261430581613b6d565b9050919050565b6000602082019050818103600083015261432581613bd3565b9050919050565b6000610160820190506143426000830184613c13565b92915050565b60006101608201905061435e6000830184613cf4565b92915050565b60006020820190506143796000830184613ee3565b92915050565b600060a0820190506143946000830188613ee3565b6143a16020830187613ee3565b6143ae6040830186613ee3565b6143bb6060830185613ee3565b6143c8608083018461330d565b9695505050505050565b60006020820190506143e76000830184613ef2565b92915050565b6000604051905081810181811067ffffffffffffffff8211171561441457614413614874565b5b8060405250919050565b600067ffffffffffffffff82111561443957614438614874565b5b602082029050602081019050919050565b6000819050602082019050919050565b6000819050602082019050919050565b600081519050919050565b600081519050919050565b600081519050919050565b6000602082019050919050565b6000602082019050919050565b600082825260208201905092915050565b600082825260208201905092915050565b600082825260208201905092915050565b60006144e382614676565b91506144ee83614676565b9250827fffffffffffffffffffffffffffffffffffffffffffffffffffffffffffffffff03821115614523576145226147e7565b5b828201905092915050565b600061453982614676565b915061454483614676565b92508261455457614553614816565b5b828204905092915050565b600061456a82614676565b915061457583614676565b9250817fffffffffffffffffffffffffffffffffffffffffffffffffffffffffffffffff04831182151516156145ae576145ad6147e7565b5b828202905092915050565b60006145c482614676565b91506145cf83614676565b9250828210156145e2576145e16147e7565b5b828203905092915050565b600073ffffffffffffffffffffffffffffffffffffffff82169050919050565b600060ff82169050919050565b6000819050919050565b6000819050919050565b600061463982614656565b9050919050565b60008115159050919050565b6000819050919050565b600073ffffffffffffffffffffffffffffffffffffffff82169050919050565b6000819050919050565b600060ff82169050919050565b60005b838110156146ab578082015181840152602081019050614690565b838111156146ba576000848401525b50505050565b60006146cb82614676565b915060008214156146df576146de6147e7565b5b600182039050919050565b6000600282049050600182168061470257607f821691505b6020821081141561471657614715614845565b5b50919050565b600061472f61472a836148b4565b6145ed565b9050919050565b6000614749614744836148b4565b61460d565b9050919050565b600061476361475e836148b4565b61461a565b9050919050565b600061477d614778836148b4565b614624565b9050919050565b6000614797614792836148c1565b61460d565b9050919050565b60006147a982614676565b91507fffffffffffffffffffffffffffffffffffffffffffffffffffffffffffffffff8214156147dc576147db6147e7565b5b600182019050919050565b7f4e487b7100000000000000000000000000000000000000000000000000000000600052601160045260246000fd5b7f4e487b7100000000000000000000000000000000000000000000000000000000600052601260045260246000fd5b7f4e487b7100000000000000000000000000000000000000000000000000000000600052602260045260246000fd5b7f4e487b7100000000000000000000000000000000000000000000000000000000600052604160045260246000fd5b6000601f19601f8301169050919050565b60008160001c9050919050565b60008160081c9050919050565b6148d78161462e565b81146148e257600080fd5b50565b6148ee81614640565b81146148f957600080fd5b50565b6149058161464c565b811461491057600080fd5b50565b61491c81614676565b811461492757600080fd5b5056fea2646970667358221220f039e24c28bd68aa0456cc03bfa5958b7eed5e25d51b991bfcaf36662bcb740364736f6c63430008000033",
  "immutableReferences": {
    "1892": [
      {
        "length": 32,
        "start": 6870
      }
    ],
    "2513": [
      {
        "length": 32,
        "start": 2041
      },
      {
        "length": 32,
        "start": 9774
      },
      {
        "length": 32,
        "start": 10642
      }
    ]
  },
  "source": "pragma solidity ^0.8.0;\r\n\r\nimport \"./base/ERC20ProofOfStake.sol\";\r\n\r\ncontract GoldOracleToken is ERC20ProofOfStake {\r\n    uint256 private constant MIN_STAKED_AMOUNT_REQUIRED_FOR_VALIDATION =\r\n        20000 * 10**18;\r\n    uint256 private constant REWARD_AMOUNT_IN_TOKENS_AFTER_EACH_ERA =\r\n        1000 * 10**18;\r\n    address private _owner;\r\n\r\n    constructor()\r\n        ERC20ProofOfStake(\r\n            \"GoldOracleToken\",\r\n            \"GOT\",\r\n            MIN_STAKED_AMOUNT_REQUIRED_FOR_VALIDATION,\r\n            REWARD_AMOUNT_IN_TOKENS_AFTER_EACH_ERA\r\n        )\r\n    {\r\n        _owner = msg.sender;\r\n        _mint(msg.sender, MIN_STAKED_AMOUNT_REQUIRED_FOR_VALIDATION * 10); // for testing\r\n    }\r\n\r\n    function getOwnerAddress() public view returns (address) {\r\n        return _owner;\r\n    }\r\n}\r\n",
  "sourcePath": "D:\\Documents\\Dev\\Repositories\\gold-price-oracle\\gold-price-oracle\\on-chain\\contracts\\token\\GoldOracleToken.sol",
  "compiler": {
    "name": "solc",
    "version": "0.8.0+commit.c7dfd78e.Emscripten.clang"
  },
  "schemaVersion": "3.4.3",
  "updatedAt": "2022-03-16T10:10:24.138Z",
  "devdoc": {
    "kind": "dev",
    "methods": {
      "allowance(address,address)": {
        "details": "See {IERC20-allowance}."
      },
      "approve(address,uint256)": {
        "details": "See {IERC20-approve}. NOTE: If `amount` is the maximum `uint256`, the allowance is not updated on `transferFrom`. This is semantically equivalent to an infinite approval. Requirements: - `spender` cannot be the zero address."
      },
      "balanceOf(address)": {
        "details": "See {IERC20-balanceOf}."
      },
      "decimals()": {
        "details": "Returns the number of decimals used to get its user representation. For example, if `decimals` equals `2`, a balance of `505` tokens should be displayed to a user as `5.05` (`505 / 10 ** 2`). Tokens usually opt for a value of 18, imitating the relationship between Ether and Wei. This is the value {ERC20} uses, unless this function is overridden; NOTE: This information is only used for _display_ purposes: it in no way affects any of the arithmetic of the contract, including {IERC20-balanceOf} and {IERC20-transfer}."
      },
      "decreaseAllowance(address,uint256)": {
        "details": "Atomically decreases the allowance granted to `spender` by the caller. This is an alternative to {approve} that can be used as a mitigation for problems described in {IERC20-approve}. Emits an {Approval} event indicating the updated allowance. Requirements: - `spender` cannot be the zero address. - `spender` must have allowance for the caller of at least `subtractedValue`."
      },
      "increaseAllowance(address,uint256)": {
        "details": "Atomically increases the allowance granted to `spender` by the caller. This is an alternative to {approve} that can be used as a mitigation for problems described in {IERC20-approve}. Emits an {Approval} event indicating the updated allowance. Requirements: - `spender` cannot be the zero address."
      },
      "name()": {
        "details": "Returns the name of the token."
      },
      "symbol()": {
        "details": "Returns the symbol of the token, usually a shorter version of the name."
      },
      "totalSupply()": {
        "details": "See {IERC20-totalSupply}."
      },
      "transfer(address,uint256)": {
        "details": "See {IERC20-transfer}. Requirements: - `to` cannot be the zero address. - the caller must have a balance of at least `amount`."
      },
      "transferFrom(address,address,uint256)": {
        "details": "See {IERC20-transferFrom}. Emits an {Approval} event indicating the updated allowance. This is not required by the EIP. See the note at the beginning of {ERC20}. NOTE: Does not update the allowance if the current allowance is the maximum `uint256`. Requirements: - `from` and `to` cannot be the zero address. - `from` must have a balance of at least `amount`. - the caller must have allowance for ``from``'s tokens of at least `amount`."
      }
    },
    "version": 1
  },
  "userdoc": {
    "kind": "user",
    "methods": {},
    "version": 1
  }
}