{
  "contractName": "GoldOracleToken",
  "abi": [
    {
      "inputs": [],
      "stateMutability": "nonpayable",
      "type": "constructor"
    },
    {
      "anonymous": false,
      "inputs": [
        {
          "indexed": true,
          "internalType": "address",
          "name": "owner",
          "type": "address"
        },
        {
          "indexed": true,
          "internalType": "address",
          "name": "spender",
          "type": "address"
        },
        {
          "indexed": false,
          "internalType": "uint256",
          "name": "value",
          "type": "uint256"
        }
      ],
      "name": "Approval",
      "type": "event"
    },
    {
      "anonymous": false,
      "inputs": [
        {
          "indexed": true,
          "internalType": "address",
          "name": "from",
          "type": "address"
        },
        {
          "indexed": true,
          "internalType": "address",
          "name": "to",
          "type": "address"
        },
        {
          "indexed": false,
          "internalType": "uint256",
          "name": "value",
          "type": "uint256"
        }
      ],
      "name": "Transfer",
      "type": "event"
    },
    {
      "inputs": [
        {
          "internalType": "address",
          "name": "owner",
          "type": "address"
        },
        {
          "internalType": "address",
          "name": "spender",
          "type": "address"
        }
      ],
      "name": "allowance",
      "outputs": [
        {
          "internalType": "uint256",
          "name": "",
          "type": "uint256"
        }
      ],
      "stateMutability": "view",
      "type": "function"
    },
    {
      "inputs": [
        {
          "internalType": "address",
          "name": "spender",
          "type": "address"
        },
        {
          "internalType": "uint256",
          "name": "amount",
          "type": "uint256"
        }
      ],
      "name": "approve",
      "outputs": [
        {
          "internalType": "bool",
          "name": "",
          "type": "bool"
        }
      ],
      "stateMutability": "nonpayable",
      "type": "function"
    },
    {
      "inputs": [
        {
          "internalType": "address",
          "name": "account",
          "type": "address"
        }
      ],
      "name": "balanceOf",
      "outputs": [
        {
          "internalType": "uint256",
          "name": "",
          "type": "uint256"
        }
      ],
      "stateMutability": "view",
      "type": "function"
    },
    {
      "inputs": [],
      "name": "decimals",
      "outputs": [
        {
          "internalType": "uint8",
          "name": "",
          "type": "uint8"
        }
      ],
      "stateMutability": "view",
      "type": "function"
    },
    {
      "inputs": [
        {
          "internalType": "address",
          "name": "spender",
          "type": "address"
        },
        {
          "internalType": "uint256",
          "name": "subtractedValue",
          "type": "uint256"
        }
      ],
      "name": "decreaseAllowance",
      "outputs": [
        {
          "internalType": "bool",
          "name": "",
          "type": "bool"
        }
      ],
      "stateMutability": "nonpayable",
      "type": "function"
    },
    {
      "inputs": [],
      "name": "electNewChairman",
      "outputs": [
        {
          "internalType": "address",
          "name": "",
          "type": "address"
        }
      ],
      "stateMutability": "nonpayable",
      "type": "function"
    },
    {
      "inputs": [],
      "name": "endCurrentEra",
      "outputs": [],
      "stateMutability": "nonpayable",
      "type": "function"
    },
    {
      "inputs": [],
      "name": "getCurrentEra",
      "outputs": [
        {
          "components": [
            {
              "internalType": "bytes32",
              "name": "id",
              "type": "bytes32"
            },
            {
              "internalType": "uint256",
              "name": "colectedFeesAmount",
              "type": "uint256"
            },
            {
              "internalType": "uint256",
              "name": "startDate",
              "type": "uint256"
            },
            {
              "internalType": "uint256",
              "name": "endDate",
              "type": "uint256"
            },
            {
              "internalType": "address",
              "name": "chairman",
              "type": "address"
            }
          ],
          "internalType": "struct Eras.Era",
          "name": "currentEra",
          "type": "tuple"
        }
      ],
      "stateMutability": "view",
      "type": "function"
    },
    {
      "inputs": [],
      "name": "getErasCount",
      "outputs": [
        {
          "internalType": "uint256",
          "name": "",
          "type": "uint256"
        }
      ],
      "stateMutability": "view",
      "type": "function"
    },
    {
      "inputs": [
        {
          "internalType": "address",
          "name": "address_",
          "type": "address"
        }
      ],
      "name": "getStakedAmount",
      "outputs": [
        {
          "internalType": "uint256",
          "name": "",
          "type": "uint256"
        }
      ],
      "stateMutability": "view",
      "type": "function"
    },
    {
      "inputs": [
        {
          "internalType": "address",
          "name": "address_",
          "type": "address"
        }
      ],
      "name": "getStakeholderInformation",
      "outputs": [
        {
          "internalType": "uint256",
          "name": "",
          "type": "uint256"
        },
        {
          "internalType": "uint256",
          "name": "",
          "type": "uint256"
        },
        {
          "internalType": "uint256",
          "name": "",
          "type": "uint256"
        },
        {
          "internalType": "uint256",
          "name": "",
          "type": "uint256"
        },
        {
          "internalType": "bool",
          "name": "",
          "type": "bool"
        }
      ],
      "stateMutability": "view",
      "type": "function"
    },
    {
      "inputs": [],
      "name": "getValidatorsCount",
      "outputs": [
        {
          "internalType": "uint256",
          "name": "",
          "type": "uint256"
        }
      ],
      "stateMutability": "view",
      "type": "function"
    },
    {
      "inputs": [
        {
          "internalType": "address",
          "name": "spender",
          "type": "address"
        },
        {
          "internalType": "uint256",
          "name": "addedValue",
          "type": "uint256"
        }
      ],
      "name": "increaseAllowance",
      "outputs": [
        {
          "internalType": "bool",
          "name": "",
          "type": "bool"
        }
      ],
      "stateMutability": "nonpayable",
      "type": "function"
    },
    {
      "inputs": [],
      "name": "name",
      "outputs": [
        {
          "internalType": "string",
          "name": "",
          "type": "string"
        }
      ],
      "stateMutability": "view",
      "type": "function"
    },
    {
      "inputs": [
        {
          "internalType": "uint256",
          "name": "amount_",
          "type": "uint256"
        }
      ],
      "name": "stake",
      "outputs": [],
      "stateMutability": "nonpayable",
      "type": "function"
    },
    {
      "inputs": [],
      "name": "startNewEra",
      "outputs": [
        {
          "internalType": "bytes32",
          "name": "",
          "type": "bytes32"
        }
      ],
      "stateMutability": "nonpayable",
      "type": "function"
    },
    {
      "inputs": [],
      "name": "symbol",
      "outputs": [
        {
          "internalType": "string",
          "name": "",
          "type": "string"
        }
      ],
      "stateMutability": "view",
      "type": "function"
    },
    {
      "inputs": [],
      "name": "totalSupply",
      "outputs": [
        {
          "internalType": "uint256",
          "name": "",
          "type": "uint256"
        }
      ],
      "stateMutability": "view",
      "type": "function"
    },
    {
      "inputs": [
        {
          "internalType": "address",
          "name": "to",
          "type": "address"
        },
        {
          "internalType": "uint256",
          "name": "amount",
          "type": "uint256"
        }
      ],
      "name": "transfer",
      "outputs": [
        {
          "internalType": "bool",
          "name": "",
          "type": "bool"
        }
      ],
      "stateMutability": "nonpayable",
      "type": "function"
    },
    {
      "inputs": [
        {
          "internalType": "address",
          "name": "from",
          "type": "address"
        },
        {
          "internalType": "address",
          "name": "to",
          "type": "address"
        },
        {
          "internalType": "uint256",
          "name": "amount",
          "type": "uint256"
        }
      ],
      "name": "transferFrom",
      "outputs": [
        {
          "internalType": "bool",
          "name": "",
          "type": "bool"
        }
      ],
      "stateMutability": "nonpayable",
      "type": "function"
    },
    {
      "inputs": [
        {
          "internalType": "uint256",
          "name": "amount_",
          "type": "uint256"
        }
      ],
      "name": "unstake",
      "outputs": [],
      "stateMutability": "nonpayable",
      "type": "function"
    },
    {
      "inputs": [],
      "name": "getOwnerAddress",
      "outputs": [
        {
          "internalType": "address",
          "name": "",
          "type": "address"
        }
      ],
      "stateMutability": "view",
      "type": "function"
    }
  ],
  "bytecode": "0x60c06040523480156200001157600080fd5b506040518060400160405280600f81526020017f476f6c644f7261636c65546f6b656e00000000000000000000000000000000008152506040518060400160405280600381526020017f474f54000000000000000000000000000000000000000000000000000000000081525069043c33c1937564800000683635c9adc5dea0000083838160039080519060200190620000ad929190620002e1565b508060049080519060200190620000c6929190620002e1565b5050508160a081815250506000600581905550600060068190555080608081815250505050505033601060006101000a81548173ffffffffffffffffffffffffffffffffffffffff021916908373ffffffffffffffffffffffffffffffffffffffff1602179055506200015833600a69043c33c19375648000006200014c919062000491565b6200015e60201b60201c565b62000590565b600073ffffffffffffffffffffffffffffffffffffffff168273ffffffffffffffffffffffffffffffffffffffff161415620001d1576040517f08c379a0000000000000000000000000000000000000000000000000000000008152600401620001c890620003e4565b60405180910390fd5b620001e560008383620002d760201b60201c565b8060026000828254620001f9919062000434565b92505081905550806000808473ffffffffffffffffffffffffffffffffffffffff1673ffffffffffffffffffffffffffffffffffffffff168152602001908152602001600020600082825462000250919062000434565b925050819055508173ffffffffffffffffffffffffffffffffffffffff16600073ffffffffffffffffffffffffffffffffffffffff167fddf252ad1be2c89b69c2b068fc378daa952ba7f163c4a11628f55a4df523b3ef83604051620002b7919062000406565b60405180910390a3620002d360008383620002dc60201b60201c565b5050565b505050565b505050565b828054620002ef90620004fc565b90600052602060002090601f0160209004810192826200031357600085556200035f565b82601f106200032e57805160ff19168380011785556200035f565b828001600101855582156200035f579182015b828111156200035e57825182559160200191906001019062000341565b5b5090506200036e919062000372565b5090565b5b808211156200038d57600081600090555060010162000373565b5090565b6000620003a0601f8362000423565b91507f45524332303a206d696e7420746f20746865207a65726f2061646472657373006000830152602082019050919050565b620003de81620004f2565b82525050565b60006020820190508181036000830152620003ff8162000391565b9050919050565b60006020820190506200041d6000830184620003d3565b92915050565b600082825260208201905092915050565b60006200044182620004f2565b91506200044e83620004f2565b9250827fffffffffffffffffffffffffffffffffffffffffffffffffffffffffffffffff0382111562000486576200048562000532565b5b828201905092915050565b60006200049e82620004f2565b9150620004ab83620004f2565b9250817fffffffffffffffffffffffffffffffffffffffffffffffffffffffffffffffff0483118215151615620004e757620004e662000532565b5b828202905092915050565b6000819050919050565b600060028204905060018216806200051557607f821691505b602082108114156200052c576200052b62000561565b5b50919050565b7f4e487b7100000000000000000000000000000000000000000000000000000000600052601160045260246000fd5b7f4e487b7100000000000000000000000000000000000000000000000000000000600052602260045260246000fd5b60805160a051612d08620005c46000396000818161078c015281816115a8015261190c01526000610d1a0152612d086000f3fe608060405234801561001057600080fd5b50600436106101425760003560e01c80634da6a556116100b8578063a457c2d71161007c578063a457c2d714610395578063a694fc3a146103c5578063a9059cbb146103e1578063b64cd8ca14610411578063d250b6cb1461041b578063dd62ed3e1461043957610142565b80634da6a556146102db578063533aa7b81461030b57806370a082311461032957806395d89b4114610359578063a2709eb41461037757610142565b806323b872dd1161010a57806323b872dd146101ef578063274982401461021f5780632bf9262c1461023d5780632e17de7814610271578063313ce5671461028d57806339509351146102ab57610142565b806306fdde0314610147578063095ea7b3146101655780630c4f65bd1461019557806318160ddd146101b35780631e70953e146101d1575b600080fd5b61014f610469565b60405161015c9190612732565b60405180910390f35b61017f600480360381019061017a9190611f72565b6104fb565b60405161018c91906126fc565b60405180910390f35b61019d61051e565b6040516101aa91906126e1565b60405180910390f35b6101bb610548565b6040516101c8919061296f565b60405180910390f35b6101d9610552565b6040516101e69190612717565b60405180910390f35b61020960048036038101906102049190611f23565b610557565b60405161021691906126fc565b60405180910390f35b610227610586565b604051610234919061296f565b60405180910390f35b61025760048036038101906102529190611ebe565b610590565b60405161026895949392919061298a565b60405180910390f35b61028b60048036038101906102869190611fae565b61066e565b005b61029561081b565b6040516102a291906129dd565b60405180910390f35b6102c560048036038101906102c09190611f72565b610824565b6040516102d291906126fc565b60405180910390f35b6102f560048036038101906102f09190611ebe565b6108ce565b604051610302919061296f565b60405180910390f35b610313610987565b604051610320919061296f565b60405180910390f35b610343600480360381019061033e9190611ebe565b610991565b604051610350919061296f565b60405180910390f35b6103616109d9565b60405161036e9190612732565b60405180910390f35b61037f610a6b565b60405161038c91906126e1565b60405180910390f35b6103af60048036038101906103aa9190611f72565b610a70565b6040516103bc91906126fc565b60405180910390f35b6103df60048036038101906103da9190611fae565b610b5a565b005b6103fb60048036038101906103f69190611f72565b610c6f565b60405161040891906126fc565b60405180910390f35b610419610c92565b005b610423610d52565b6040516104309190612954565b60405180910390f35b610453600480360381019061044e9190611ee7565b610dea565b604051610460919061296f565b60405180910390f35b60606003805461047890612b8b565b80601f01602080910402602001604051908101604052809291908181526020018280546104a490612b8b565b80156104f15780601f106104c6576101008083540402835291602001916104f1565b820191906000526020600020905b8154815290600101906020018083116104d457829003601f168201915b5050505050905090565b600080610506610e71565b9050610513818585610e79565b600191505092915050565b6000601060009054906101000a900473ffffffffffffffffffffffffffffffffffffffff16905090565b6000600254905090565b600090565b600080610562610e71565b905061056f858285611044565b61057a8585856110d0565b60019150509392505050565b6000600554905090565b6000806000806000806105a287611351565b9050600081116105e7576040517f08c379a00000000000000000000000000000000000000000000000000000000081526004016105de90612854565b60405180910390fd5b600060078281548110610623577f4e487b7100000000000000000000000000000000000000000000000000000000600052603260045260246000fd5b9060005260206000209060070201905080600101548160020154826003015483600401548460050160009054906101000a900460ff1696509650965096509650505091939590929450565b60003390506000600960008373ffffffffffffffffffffffffffffffffffffffff1673ffffffffffffffffffffffffffffffffffffffff16815260200190815260200160002054905060008114156106c7575050610818565b600060078281548110610703577f4e487b7100000000000000000000000000000000000000000000000000000000600052603260045260246000fd5b90600052602060002090600702019050838160010154101561075a576040517f08c379a0000000000000000000000000000000000000000000000000000000008152600401610751906127f4565b60405180910390fd5b6000848260010160008282546107709190612a9b565b92505081905590508082600101819055508082600201819055507f000000000000000000000000000000000000000000000000000000000000000081106107d35760018260050160006101000a81548160ff021916908315150217905550610809565b60008260050160006101000a81548160ff0219169083151502179055506005600081548092919061080390612b61565b91905055505b6108138486611444565b505050505b50565b60006012905090565b60008061082f610e71565b90506108c3818585600160008673ffffffffffffffffffffffffffffffffffffffff1673ffffffffffffffffffffffffffffffffffffffff16815260200190815260200160002060008973ffffffffffffffffffffffffffffffffffffffff1673ffffffffffffffffffffffffffffffffffffffff168152602001908152602001600020546108be9190612a14565b610e79565b600191505092915050565b600081600073ffffffffffffffffffffffffffffffffffffffff168173ffffffffffffffffffffffffffffffffffffffff16141561090b57600080fd5b600061091684611351565b9050600081141561092b576000925050610981565b600060078281548110610967577f4e487b7100000000000000000000000000000000000000000000000000000000600052603260045260246000fd5b906000526020600020906007020190508060010154935050505b50919050565b6000600654905090565b60008060008373ffffffffffffffffffffffffffffffffffffffff1673ffffffffffffffffffffffffffffffffffffffff168152602001908152602001600020549050919050565b6060600480546109e890612b8b565b80601f0160208091040260200160405190810160405280929190818152602001828054610a1490612b8b565b8015610a615780601f10610a3657610100808354040283529160200191610a61565b820191906000526020600020905b815481529060010190602001808311610a4457829003601f168201915b5050505050905090565b600090565b600080610a7b610e71565b90506000600160008373ffffffffffffffffffffffffffffffffffffffff1673ffffffffffffffffffffffffffffffffffffffff16815260200190815260200160002060008673ffffffffffffffffffffffffffffffffffffffff1673ffffffffffffffffffffffffffffffffffffffff16815260200190815260200160002054905083811015610b41576040517f08c379a0000000000000000000000000000000000000000000000000000000008152600401610b3890612914565b60405180910390fd5b610b4e8286868403610e79565b60019250505092915050565b600033905060003073ffffffffffffffffffffffffffffffffffffffff166370a08231836040518263ffffffff1660e01b8152600401610b9a91906126e1565b60206040518083038186803b158015610bb257600080fd5b505afa158015610bc6573d6000803e3d6000fd5b505050506040513d601f19601f82011682018060405250810190610bea9190611fd7565b905082811015610c2f576040517f08c379a0000000000000000000000000000000000000000000000000000000008152600401610c2690612834565b60405180910390fd5b6000610c3a83611351565b90506000811415610c5457610c4f83856115a4565b610c5f565b610c5e8185611870565b5b610c69838561198f565b50505050565b600080610c7a610e71565b9050610c878185856110d0565b600191505092915050565b60003390506000610ca1611b66565b9050806080015173ffffffffffffffffffffffffffffffffffffffff168273ffffffffffffffffffffffffffffffffffffffff1614610d15576040517f08c379a0000000000000000000000000000000000000000000000000000000008152600401610d0c90612874565b60405180910390fd5b610d4e7f00000000000000000000000000000000000000000000000000000000000000008260200151610d489190612a14565b83611bfe565b5050565b610d5a611e37565b600b6040518060a0016040529081600082015481526020016001820154815260200160028201548152602001600382015481526020016004820160009054906101000a900473ffffffffffffffffffffffffffffffffffffffff1673ffffffffffffffffffffffffffffffffffffffff1673ffffffffffffffffffffffffffffffffffffffff1681525050905090565b6000600160008473ffffffffffffffffffffffffffffffffffffffff1673ffffffffffffffffffffffffffffffffffffffff16815260200190815260200160002060008373ffffffffffffffffffffffffffffffffffffffff1673ffffffffffffffffffffffffffffffffffffffff16815260200190815260200160002054905092915050565b600033905090565b600073ffffffffffffffffffffffffffffffffffffffff168373ffffffffffffffffffffffffffffffffffffffff161415610ee9576040517f08c379a0000000000000000000000000000000000000000000000000000000008152600401610ee0906128f4565b60405180910390fd5b600073ffffffffffffffffffffffffffffffffffffffff168273ffffffffffffffffffffffffffffffffffffffff161415610f59576040517f08c379a0000000000000000000000000000000000000000000000000000000008152600401610f50906127b4565b60405180910390fd5b80600160008573ffffffffffffffffffffffffffffffffffffffff1673ffffffffffffffffffffffffffffffffffffffff16815260200190815260200160002060008473ffffffffffffffffffffffffffffffffffffffff1673ffffffffffffffffffffffffffffffffffffffff168152602001908152602001600020819055508173ffffffffffffffffffffffffffffffffffffffff168373ffffffffffffffffffffffffffffffffffffffff167f8c5be1e5ebec7d5bd14f71427d1e84f3dd0314c0f7b2291e5b200ac8c7c3b92583604051611037919061296f565b60405180910390a3505050565b60006110508484610dea565b90507fffffffffffffffffffffffffffffffffffffffffffffffffffffffffffffffff81146110ca57818110156110bc576040517f08c379a00000000000000000000000000000000000000000000000000000000081526004016110b3906127d4565b60405180910390fd5b6110c98484848403610e79565b5b50505050565b600073ffffffffffffffffffffffffffffffffffffffff168373ffffffffffffffffffffffffffffffffffffffff161415611140576040517f08c379a0000000000000000000000000000000000000000000000000000000008152600401611137906128d4565b60405180910390fd5b600073ffffffffffffffffffffffffffffffffffffffff168273ffffffffffffffffffffffffffffffffffffffff1614156111b0576040517f08c379a00000000000000000000000000000000000000000000000000000000081526004016111a790612754565b60405180910390fd5b6111bb838383611d66565b60008060008573ffffffffffffffffffffffffffffffffffffffff1673ffffffffffffffffffffffffffffffffffffffff16815260200190815260200160002054905081811015611241576040517f08c379a000000000000000000000000000000000000000000000000000000000815260040161123890612814565b60405180910390fd5b8181036000808673ffffffffffffffffffffffffffffffffffffffff1673ffffffffffffffffffffffffffffffffffffffff16815260200190815260200160002081905550816000808573ffffffffffffffffffffffffffffffffffffffff1673ffffffffffffffffffffffffffffffffffffffff16815260200190815260200160002060008282546112d49190612a14565b925050819055508273ffffffffffffffffffffffffffffffffffffffff168473ffffffffffffffffffffffffffffffffffffffff167fddf252ad1be2c89b69c2b068fc378daa952ba7f163c4a11628f55a4df523b3ef84604051611338919061296f565b60405180910390a361134b848484611d6b565b50505050565b600081600073ffffffffffffffffffffffffffffffffffffffff168173ffffffffffffffffffffffffffffffffffffffff16141561138e57600080fd5b6000600960008573ffffffffffffffffffffffffffffffffffffffff1673ffffffffffffffffffffffffffffffffffffffff16815260200190815260200160002054905060008114156113e557600092505061143e565b60016007805490506113f79190612a9b565b811115611439576040517f08c379a000000000000000000000000000000000000000000000000000000000815260040161143090612894565b60405180910390fd5b809250505b50919050565b600073ffffffffffffffffffffffffffffffffffffffff168273ffffffffffffffffffffffffffffffffffffffff1614156114b4576040517f08c379a00000000000000000000000000000000000000000000000000000000081526004016114ab90612934565b60405180910390fd5b6114c060008383611d66565b80600260008282546114d29190612a14565b92505081905550806000808473ffffffffffffffffffffffffffffffffffffffff1673ffffffffffffffffffffffffffffffffffffffff16815260200190815260200160002060008282546115279190612a14565b925050819055508173ffffffffffffffffffffffffffffffffffffffff16600073ffffffffffffffffffffffffffffffffffffffff167fddf252ad1be2c89b69c2b068fc378daa952ba7f163c4a11628f55a4df523b3ef8360405161158c919061296f565b60405180910390a36115a060008383611d6b565b5050565b60007f000000000000000000000000000000000000000000000000000000000000000082101590506000600780549050905060008114156117065780806115ea90612bbd565b91505060076040518060e00160405280600073ffffffffffffffffffffffffffffffffffffffff168152602001600081526020016000815260200160008152602001600081526020016000151581526020016000815250908060018154018082558091505060019003906000526020600020906007020160009091909190915060008201518160000160006101000a81548173ffffffffffffffffffffffffffffffffffffffff021916908373ffffffffffffffffffffffffffffffffffffffff1602179055506020820151816001015560408201518160020155606082015181600301556080820151816004015560a08201518160050160006101000a81548160ff02191690831515021790555060c0820151816006015550505b60076040518060e001604052808673ffffffffffffffffffffffffffffffffffffffff168152602001858152602001858152602001600081526020016000815260200184151581526020016000815250908060018154018082558091505060019003906000526020600020906007020160009091909190915060008201518160000160006101000a81548173ffffffffffffffffffffffffffffffffffffffff021916908373ffffffffffffffffffffffffffffffffffffffff1602179055506020820151816001015560408201518160020155606082015181600301556080820151816004015560a08201518160050160006101000a81548160ff02191690831515021790555060c08201518160060155505080600960008673ffffffffffffffffffffffffffffffffffffffff1673ffffffffffffffffffffffffffffffffffffffff16815260200190815260200160002081905550611869828583611d70565b5050505050565b6000600783815481106118ac577f4e487b7100000000000000000000000000000000000000000000000000000000600052603260045260246000fd5b90600052602060002090600702019050818160010160008282546118d09190612a14565b92505081905550818160020160008282546118eb9190612a14565b925050819055508060050160009054906101000a900460ff1661198a5760007f000000000000000000000000000000000000000000000000000000000000000082600101541015905080156119885760018260050160006101000a81548160ff021916908315150217905550611986818360000160009054906101000a900473ffffffffffffffffffffffffffffffffffffffff1686611d70565b505b505b505050565b600073ffffffffffffffffffffffffffffffffffffffff168273ffffffffffffffffffffffffffffffffffffffff1614156119ff576040517f08c379a00000000000000000000000000000000000000000000000000000000081526004016119f6906128b4565b60405180910390fd5b611a0b82600083611d66565b60008060008473ffffffffffffffffffffffffffffffffffffffff1673ffffffffffffffffffffffffffffffffffffffff16815260200190815260200160002054905081811015611a91576040517f08c379a0000000000000000000000000000000000000000000000000000000008152600401611a8890612774565b60405180910390fd5b8181036000808573ffffffffffffffffffffffffffffffffffffffff1673ffffffffffffffffffffffffffffffffffffffff168152602001908152602001600020819055508160026000828254611ae89190612a9b565b92505081905550600073ffffffffffffffffffffffffffffffffffffffff168373ffffffffffffffffffffffffffffffffffffffff167fddf252ad1be2c89b69c2b068fc378daa952ba7f163c4a11628f55a4df523b3ef84604051611b4d919061296f565b60405180910390a3611b6183600084611d6b565b505050565b611b6e611e37565b600b6040518060a0016040529081600082015481526020016001820154815260200160028201548152602001600382015481526020016004820160009054906101000a900473ffffffffffffffffffffffffffffffffffffffff1673ffffffffffffffffffffffffffffffffffffffff1673ffffffffffffffffffffffffffffffffffffffff1681525050905090565b6000600283611c0d9190612a6a565b90506000600960008473ffffffffffffffffffffffffffffffffffffffff1673ffffffffffffffffffffffffffffffffffffffff168152602001908152602001600020549050600060078281548110611c8f577f4e487b7100000000000000000000000000000000000000000000000000000000600052603260045260246000fd5b90600052602060002090600702019050600073ffffffffffffffffffffffffffffffffffffffff168160000160009054906101000a900473ffffffffffffffffffffffffffffffffffffffff1673ffffffffffffffffffffffffffffffffffffffff161415611d33576040517f08c379a0000000000000000000000000000000000000000000000000000000008152600401611d2a90612794565b60405180910390fd5b82816006016000828254611d479190612a14565b9250508190555060008386611d5c9190612a9b565b9050505050505050565b505050565b505050565b600083611d805760009050611e30565b6000600860008573ffffffffffffffffffffffffffffffffffffffff1673ffffffffffffffffffffffffffffffffffffffff1681526020019081526020016000205490506000811415611e2a5782600860008673ffffffffffffffffffffffffffffffffffffffff1673ffffffffffffffffffffffffffffffffffffffff1681526020019081526020016000208190555060056000815480929190611e2490612bbd565b91905055505b60019150505b9392505050565b6040518060a0016040528060008019168152602001600081526020016000815260200160008152602001600073ffffffffffffffffffffffffffffffffffffffff1681525090565b600081359050611e8e81612ca4565b92915050565b600081359050611ea381612cbb565b92915050565b600081519050611eb881612cbb565b92915050565b600060208284031215611ed057600080fd5b6000611ede84828501611e7f565b91505092915050565b60008060408385031215611efa57600080fd5b6000611f0885828601611e7f565b9250506020611f1985828601611e7f565b9150509250929050565b600080600060608486031215611f3857600080fd5b6000611f4686828701611e7f565b9350506020611f5786828701611e7f565b9250506040611f6886828701611e94565b9150509250925092565b60008060408385031215611f8557600080fd5b6000611f9385828601611e7f565b9250506020611fa485828601611e94565b9150509250929050565b600060208284031215611fc057600080fd5b6000611fce84828501611e94565b91505092915050565b600060208284031215611fe957600080fd5b6000611ff784828501611ea9565b91505092915050565b61200981612acf565b82525050565b61201881612acf565b82525050565b61202781612ae1565b82525050565b61203681612aed565b82525050565b61204581612aed565b82525050565b6000612056826129f8565b6120608185612a03565b9350612070818560208601612b2e565b61207981612c93565b840191505092915050565b6000612091602383612a03565b91507f45524332303a207472616e7366657220746f20746865207a65726f206164647260008301527f65737300000000000000000000000000000000000000000000000000000000006020830152604082019050919050565b60006120f7602283612a03565b91507f45524332303a206275726e20616d6f756e7420657863656564732062616c616e60008301527f63650000000000000000000000000000000000000000000000000000000000006020830152604082019050919050565b600061215d601f83612a03565b91507f43686169726d616e206164647265737320646f6573206e6f74206578697374006000830152602082019050919050565b600061219d602283612a03565b91507f45524332303a20617070726f766520746f20746865207a65726f20616464726560008301527f73730000000000000000000000000000000000000000000000000000000000006020830152604082019050919050565b6000612203601d83612a03565b91507f45524332303a20696e73756666696369656e7420616c6c6f77616e63650000006000830152602082019050919050565b6000612243602283612a03565b91507f496e73756666696369656e742062616c616e636520666f7220756e7374616b6960008301527f6e670000000000000000000000000000000000000000000000000000000000006020830152604082019050919050565b60006122a9602683612a03565b91507f45524332303a207472616e7366657220616d6f756e742065786365656473206260008301527f616c616e636500000000000000000000000000000000000000000000000000006020830152604082019050919050565b600061230f602083612a03565b91507f496e73756666696369656e742062616c616e636520666f72207374616b696e676000830152602082019050919050565b600061234f602583612a03565b91507f41646472657373206e6f74206c696e6b656420746f20616e79207374616b656860008301527f6f6c6465720000000000000000000000000000000000000000000000000000006020830152604082019050919050565b60006123b5602183612a03565b91507f4f6e6c792063686169726d616e2063616e20656e642063757272656e7420657260008301527f61000000000000000000000000000000000000000000000000000000000000006020830152604082019050919050565b600061241b602983612a03565b91507f496e76616c696420696e64657820666f72207374616b65686f6c64657273206360008301527f6f6c6c656374696f6e00000000000000000000000000000000000000000000006020830152604082019050919050565b6000612481602183612a03565b91507f45524332303a206275726e2066726f6d20746865207a65726f2061646472657360008301527f73000000000000000000000000000000000000000000000000000000000000006020830152604082019050919050565b60006124e7602583612a03565b91507f45524332303a207472616e736665722066726f6d20746865207a65726f20616460008301527f64726573730000000000000000000000000000000000000000000000000000006020830152604082019050919050565b600061254d602483612a03565b91507f45524332303a20617070726f76652066726f6d20746865207a65726f2061646460008301527f72657373000000000000000000000000000000000000000000000000000000006020830152604082019050919050565b60006125b3602583612a03565b91507f45524332303a2064656372656173656420616c6c6f77616e63652062656c6f7760008301527f207a65726f0000000000000000000000000000000000000000000000000000006020830152604082019050919050565b6000612619601f83612a03565b91507f45524332303a206d696e7420746f20746865207a65726f2061646472657373006000830152602082019050919050565b60a082016000820151612662600085018261202d565b50602082015161267560208501826126b4565b50604082015161268860408501826126b4565b50606082015161269b60608501826126b4565b5060808201516126ae6080850182612000565b50505050565b6126bd81612b17565b82525050565b6126cc81612b17565b82525050565b6126db81612b21565b82525050565b60006020820190506126f6600083018461200f565b92915050565b6000602082019050612711600083018461201e565b92915050565b600060208201905061272c600083018461203c565b92915050565b6000602082019050818103600083015261274c818461204b565b905092915050565b6000602082019050818103600083015261276d81612084565b9050919050565b6000602082019050818103600083015261278d816120ea565b9050919050565b600060208201905081810360008301526127ad81612150565b9050919050565b600060208201905081810360008301526127cd81612190565b9050919050565b600060208201905081810360008301526127ed816121f6565b9050919050565b6000602082019050818103600083015261280d81612236565b9050919050565b6000602082019050818103600083015261282d8161229c565b9050919050565b6000602082019050818103600083015261284d81612302565b9050919050565b6000602082019050818103600083015261286d81612342565b9050919050565b6000602082019050818103600083015261288d816123a8565b9050919050565b600060208201905081810360008301526128ad8161240e565b9050919050565b600060208201905081810360008301526128cd81612474565b9050919050565b600060208201905081810360008301526128ed816124da565b9050919050565b6000602082019050818103600083015261290d81612540565b9050919050565b6000602082019050818103600083015261292d816125a6565b9050919050565b6000602082019050818103600083015261294d8161260c565b9050919050565b600060a082019050612969600083018461264c565b92915050565b600060208201905061298460008301846126c3565b92915050565b600060a08201905061299f60008301886126c3565b6129ac60208301876126c3565b6129b960408301866126c3565b6129c660608301856126c3565b6129d3608083018461201e565b9695505050505050565b60006020820190506129f260008301846126d2565b92915050565b600081519050919050565b600082825260208201905092915050565b6000612a1f82612b17565b9150612a2a83612b17565b9250827fffffffffffffffffffffffffffffffffffffffffffffffffffffffffffffffff03821115612a5f57612a5e612c06565b5b828201905092915050565b6000612a7582612b17565b9150612a8083612b17565b925082612a9057612a8f612c35565b5b828204905092915050565b6000612aa682612b17565b9150612ab183612b17565b925082821015612ac457612ac3612c06565b5b828203905092915050565b6000612ada82612af7565b9050919050565b60008115159050919050565b6000819050919050565b600073ffffffffffffffffffffffffffffffffffffffff82169050919050565b6000819050919050565b600060ff82169050919050565b60005b83811015612b4c578082015181840152602081019050612b31565b83811115612b5b576000848401525b50505050565b6000612b6c82612b17565b91506000821415612b8057612b7f612c06565b5b600182039050919050565b60006002820490506001821680612ba357607f821691505b60208210811415612bb757612bb6612c64565b5b50919050565b6000612bc882612b17565b91507fffffffffffffffffffffffffffffffffffffffffffffffffffffffffffffffff821415612bfb57612bfa612c06565b5b600182019050919050565b7f4e487b7100000000000000000000000000000000000000000000000000000000600052601160045260246000fd5b7f4e487b7100000000000000000000000000000000000000000000000000000000600052601260045260246000fd5b7f4e487b7100000000000000000000000000000000000000000000000000000000600052602260045260246000fd5b6000601f19601f8301169050919050565b612cad81612acf565b8114612cb857600080fd5b50565b612cc481612b17565b8114612ccf57600080fd5b5056fea264697066735822122023160349b59b525bc0ad8224d15e2de65cd3aa0db567a8c576f729d620e2bc8364736f6c63430008000033",
  "immutableReferences": {
    "1762": [
      {
        "length": 32,
        "start": 3354
      }
    ],
    "1764": [
      {
        "length": 32,
        "start": 1932
      },
      {
        "length": 32,
        "start": 5544
      },
      {
        "length": 32,
        "start": 6412
      }
    ]
  },
  "source": "pragma solidity ^0.8.0;\r\n\r\nimport \"./base/ERC20Stakable.sol\";\r\n\r\ncontract GoldOracleToken is ERC20Stakable {\r\n    uint256 private constant MIN_STAKED_AMOUNT_REQUIRED_FOR_VALIDATION =\r\n        20000 * 10**18;\r\n    uint256 private constant REWARD_AMOUNT_IN_TOKENS_AFTER_EACH_ERA =\r\n        1000 * 10**18;\r\n    address private _owner;\r\n\r\n    constructor()\r\n        ERC20Stakable(\r\n            \"GoldOracleToken\",\r\n            \"GOT\",\r\n            MIN_STAKED_AMOUNT_REQUIRED_FOR_VALIDATION,\r\n            REWARD_AMOUNT_IN_TOKENS_AFTER_EACH_ERA\r\n        )\r\n    {\r\n        _owner = msg.sender;\r\n        _mint(msg.sender, MIN_STAKED_AMOUNT_REQUIRED_FOR_VALIDATION * 10); // for testing\r\n    }\r\n\r\n    function getOwnerAddress() public view returns (address) {\r\n        return _owner;\r\n    }\r\n}\r\n",
  "sourcePath": "D:\\Documents\\Dev\\Repositories\\gold-price-oracle\\gold-price-oracle\\on-chain\\contracts\\token\\GoldOracleToken.sol",
  "compiler": {
    "name": "solc",
    "version": "0.8.0+commit.c7dfd78e.Emscripten.clang"
  },
  "schemaVersion": "3.4.3",
  "updatedAt": "2022-03-04T10:24:27.953Z",
  "devdoc": {
    "kind": "dev",
    "methods": {
      "allowance(address,address)": {
        "details": "See {IERC20-allowance}."
      },
      "approve(address,uint256)": {
        "details": "See {IERC20-approve}. NOTE: If `amount` is the maximum `uint256`, the allowance is not updated on `transferFrom`. This is semantically equivalent to an infinite approval. Requirements: - `spender` cannot be the zero address."
      },
      "balanceOf(address)": {
        "details": "See {IERC20-balanceOf}."
      },
      "decimals()": {
        "details": "Returns the number of decimals used to get its user representation. For example, if `decimals` equals `2`, a balance of `505` tokens should be displayed to a user as `5.05` (`505 / 10 ** 2`). Tokens usually opt for a value of 18, imitating the relationship between Ether and Wei. This is the value {ERC20} uses, unless this function is overridden; NOTE: This information is only used for _display_ purposes: it in no way affects any of the arithmetic of the contract, including {IERC20-balanceOf} and {IERC20-transfer}."
      },
      "decreaseAllowance(address,uint256)": {
        "details": "Atomically decreases the allowance granted to `spender` by the caller. This is an alternative to {approve} that can be used as a mitigation for problems described in {IERC20-approve}. Emits an {Approval} event indicating the updated allowance. Requirements: - `spender` cannot be the zero address. - `spender` must have allowance for the caller of at least `subtractedValue`."
      },
      "increaseAllowance(address,uint256)": {
        "details": "Atomically increases the allowance granted to `spender` by the caller. This is an alternative to {approve} that can be used as a mitigation for problems described in {IERC20-approve}. Emits an {Approval} event indicating the updated allowance. Requirements: - `spender` cannot be the zero address."
      },
      "name()": {
        "details": "Returns the name of the token."
      },
      "symbol()": {
        "details": "Returns the symbol of the token, usually a shorter version of the name."
      },
      "totalSupply()": {
        "details": "See {IERC20-totalSupply}."
      },
      "transfer(address,uint256)": {
        "details": "See {IERC20-transfer}. Requirements: - `to` cannot be the zero address. - the caller must have a balance of at least `amount`."
      },
      "transferFrom(address,address,uint256)": {
        "details": "See {IERC20-transferFrom}. Emits an {Approval} event indicating the updated allowance. This is not required by the EIP. See the note at the beginning of {ERC20}. NOTE: Does not update the allowance if the current allowance is the maximum `uint256`. Requirements: - `from` and `to` cannot be the zero address. - `from` must have a balance of at least `amount`. - the caller must have allowance for ``from``'s tokens of at least `amount`."
      }
    },
    "version": 1
  },
  "userdoc": {
    "kind": "user",
    "methods": {},
    "version": 1
  }
}