{
  "contractName": "GoldOracleToken",
  "abi": [
    {
      "inputs": [],
      "stateMutability": "nonpayable",
      "type": "constructor"
    },
    {
      "anonymous": false,
      "inputs": [
        {
          "indexed": true,
          "internalType": "address",
          "name": "owner",
          "type": "address"
        },
        {
          "indexed": true,
          "internalType": "address",
          "name": "spender",
          "type": "address"
        },
        {
          "indexed": false,
          "internalType": "uint256",
          "name": "value",
          "type": "uint256"
        }
      ],
      "name": "Approval",
      "type": "event"
    },
    {
      "anonymous": false,
      "inputs": [
        {
          "indexed": false,
          "internalType": "bytes32",
          "name": "eraId",
          "type": "bytes32"
        },
        {
          "indexed": false,
          "internalType": "address",
          "name": "chairman",
          "type": "address"
        },
        {
          "indexed": false,
          "internalType": "address[]",
          "name": "council",
          "type": "address[]"
        },
        {
          "indexed": false,
          "internalType": "uint256",
          "name": "validatorsCount",
          "type": "uint256"
        }
      ],
      "name": "NewEraElecationProposal",
      "type": "event"
    },
    {
      "anonymous": false,
      "inputs": [
        {
          "components": [
            {
              "internalType": "bytes32",
              "name": "id",
              "type": "bytes32"
            },
            {
              "internalType": "uint256",
              "name": "colectedFeesAmount",
              "type": "uint256"
            },
            {
              "internalType": "uint256",
              "name": "startDate",
              "type": "uint256"
            },
            {
              "internalType": "uint256",
              "name": "endDate",
              "type": "uint256"
            },
            {
              "internalType": "address",
              "name": "chairman",
              "type": "address"
            },
            {
              "internalType": "uint256",
              "name": "requiredQuorum",
              "type": "uint256"
            },
            {
              "internalType": "bool",
              "name": "isQuorumReached",
              "type": "bool"
            },
            {
              "internalType": "uint256",
              "name": "possitiveVotes",
              "type": "uint256"
            },
            {
              "internalType": "uint256",
              "name": "negativeVotes",
              "type": "uint256"
            },
            {
              "internalType": "bool",
              "name": "accepted",
              "type": "bool"
            }
          ],
          "indexed": false,
          "internalType": "struct Eras.Era",
          "name": "era",
          "type": "tuple"
        }
      ],
      "name": "NewEraElectionComplited",
      "type": "event"
    },
    {
      "anonymous": false,
      "inputs": [
        {
          "indexed": true,
          "internalType": "address",
          "name": "from",
          "type": "address"
        },
        {
          "indexed": true,
          "internalType": "address",
          "name": "to",
          "type": "address"
        },
        {
          "indexed": false,
          "internalType": "uint256",
          "name": "value",
          "type": "uint256"
        }
      ],
      "name": "Transfer",
      "type": "event"
    },
    {
      "inputs": [
        {
          "internalType": "address",
          "name": "owner",
          "type": "address"
        },
        {
          "internalType": "address",
          "name": "spender",
          "type": "address"
        }
      ],
      "name": "allowance",
      "outputs": [
        {
          "internalType": "uint256",
          "name": "",
          "type": "uint256"
        }
      ],
      "stateMutability": "view",
      "type": "function"
    },
    {
      "inputs": [
        {
          "internalType": "address",
          "name": "spender",
          "type": "address"
        },
        {
          "internalType": "uint256",
          "name": "amount",
          "type": "uint256"
        }
      ],
      "name": "approve",
      "outputs": [
        {
          "internalType": "bool",
          "name": "",
          "type": "bool"
        }
      ],
      "stateMutability": "nonpayable",
      "type": "function"
    },
    {
      "inputs": [
        {
          "internalType": "address",
          "name": "account",
          "type": "address"
        }
      ],
      "name": "balanceOf",
      "outputs": [
        {
          "internalType": "uint256",
          "name": "",
          "type": "uint256"
        }
      ],
      "stateMutability": "view",
      "type": "function"
    },
    {
      "inputs": [],
      "name": "decimals",
      "outputs": [
        {
          "internalType": "uint8",
          "name": "",
          "type": "uint8"
        }
      ],
      "stateMutability": "view",
      "type": "function"
    },
    {
      "inputs": [
        {
          "internalType": "address",
          "name": "spender",
          "type": "address"
        },
        {
          "internalType": "uint256",
          "name": "subtractedValue",
          "type": "uint256"
        }
      ],
      "name": "decreaseAllowance",
      "outputs": [
        {
          "internalType": "bool",
          "name": "",
          "type": "bool"
        }
      ],
      "stateMutability": "nonpayable",
      "type": "function"
    },
    {
      "inputs": [],
      "name": "endCurrentEra",
      "outputs": [],
      "stateMutability": "nonpayable",
      "type": "function"
    },
    {
      "inputs": [],
      "name": "getCurrentEra",
      "outputs": [
        {
          "components": [
            {
              "internalType": "bytes32",
              "name": "id",
              "type": "bytes32"
            },
            {
              "internalType": "uint256",
              "name": "colectedFeesAmount",
              "type": "uint256"
            },
            {
              "internalType": "uint256",
              "name": "startDate",
              "type": "uint256"
            },
            {
              "internalType": "uint256",
              "name": "endDate",
              "type": "uint256"
            },
            {
              "internalType": "address",
              "name": "chairman",
              "type": "address"
            },
            {
              "internalType": "uint256",
              "name": "requiredQuorum",
              "type": "uint256"
            },
            {
              "internalType": "bool",
              "name": "isQuorumReached",
              "type": "bool"
            },
            {
              "internalType": "uint256",
              "name": "possitiveVotes",
              "type": "uint256"
            },
            {
              "internalType": "uint256",
              "name": "negativeVotes",
              "type": "uint256"
            },
            {
              "internalType": "bool",
              "name": "accepted",
              "type": "bool"
            }
          ],
          "internalType": "struct Eras.Era",
          "name": "currentEra",
          "type": "tuple"
        }
      ],
      "stateMutability": "view",
      "type": "function"
    },
    {
      "inputs": [],
      "name": "getErasCount",
      "outputs": [
        {
          "internalType": "uint256",
          "name": "",
          "type": "uint256"
        }
      ],
      "stateMutability": "view",
      "type": "function"
    },
    {
      "inputs": [
        {
          "internalType": "address",
          "name": "address_",
          "type": "address"
        }
      ],
      "name": "getStakedAmount",
      "outputs": [
        {
          "internalType": "uint256",
          "name": "",
          "type": "uint256"
        }
      ],
      "stateMutability": "view",
      "type": "function"
    },
    {
      "inputs": [
        {
          "internalType": "address",
          "name": "address_",
          "type": "address"
        }
      ],
      "name": "getStakeholderInformation",
      "outputs": [
        {
          "internalType": "uint256",
          "name": "",
          "type": "uint256"
        },
        {
          "internalType": "uint256",
          "name": "",
          "type": "uint256"
        },
        {
          "internalType": "uint256",
          "name": "",
          "type": "uint256"
        },
        {
          "internalType": "uint256",
          "name": "",
          "type": "uint256"
        },
        {
          "internalType": "bool",
          "name": "",
          "type": "bool"
        }
      ],
      "stateMutability": "view",
      "type": "function"
    },
    {
      "inputs": [],
      "name": "getStakeholders",
      "outputs": [
        {
          "components": [
            {
              "internalType": "address",
              "name": "user",
              "type": "address"
            },
            {
              "internalType": "uint256",
              "name": "totalAmount",
              "type": "uint256"
            },
            {
              "internalType": "uint256",
              "name": "ownedAmount",
              "type": "uint256"
            },
            {
              "internalType": "uint256",
              "name": "nominatedAmount",
              "type": "uint256"
            },
            {
              "internalType": "uint256",
              "name": "nominatorsCount",
              "type": "uint256"
            },
            {
              "internalType": "bool",
              "name": "canValidate",
              "type": "bool"
            },
            {
              "internalType": "uint256",
              "name": "notCollectedTokenRewards",
              "type": "uint256"
            }
          ],
          "internalType": "struct Stakeholders.Stakeholder[]",
          "name": "stakeholders",
          "type": "tuple[]"
        }
      ],
      "stateMutability": "view",
      "type": "function"
    },
    {
      "inputs": [],
      "name": "getValidatorsCount",
      "outputs": [
        {
          "internalType": "uint256",
          "name": "",
          "type": "uint256"
        }
      ],
      "stateMutability": "view",
      "type": "function"
    },
    {
      "inputs": [
        {
          "internalType": "address",
          "name": "spender",
          "type": "address"
        },
        {
          "internalType": "uint256",
          "name": "addedValue",
          "type": "uint256"
        }
      ],
      "name": "increaseAllowance",
      "outputs": [
        {
          "internalType": "bool",
          "name": "",
          "type": "bool"
        }
      ],
      "stateMutability": "nonpayable",
      "type": "function"
    },
    {
      "inputs": [],
      "name": "name",
      "outputs": [
        {
          "internalType": "string",
          "name": "",
          "type": "string"
        }
      ],
      "stateMutability": "view",
      "type": "function"
    },
    {
      "inputs": [
        {
          "internalType": "bytes32",
          "name": "eraId_",
          "type": "bytes32"
        },
        {
          "internalType": "address",
          "name": "chairman_",
          "type": "address"
        },
        {
          "internalType": "address[]",
          "name": "coucil_",
          "type": "address[]"
        },
        {
          "internalType": "uint256",
          "name": "utcTimeStamp_",
          "type": "uint256"
        }
      ],
      "name": "proposeNewEra",
      "outputs": [],
      "stateMutability": "nonpayable",
      "type": "function"
    },
    {
      "inputs": [
        {
          "internalType": "uint256",
          "name": "amount_",
          "type": "uint256"
        }
      ],
      "name": "stake",
      "outputs": [],
      "stateMutability": "nonpayable",
      "type": "function"
    },
    {
      "inputs": [],
      "name": "startNewEra",
      "outputs": [
        {
          "internalType": "bytes32",
          "name": "",
          "type": "bytes32"
        }
      ],
      "stateMutability": "nonpayable",
      "type": "function"
    },
    {
      "inputs": [],
      "name": "symbol",
      "outputs": [
        {
          "internalType": "string",
          "name": "",
          "type": "string"
        }
      ],
      "stateMutability": "view",
      "type": "function"
    },
    {
      "inputs": [],
      "name": "totalSupply",
      "outputs": [
        {
          "internalType": "uint256",
          "name": "",
          "type": "uint256"
        }
      ],
      "stateMutability": "view",
      "type": "function"
    },
    {
      "inputs": [
        {
          "internalType": "address",
          "name": "to",
          "type": "address"
        },
        {
          "internalType": "uint256",
          "name": "amount",
          "type": "uint256"
        }
      ],
      "name": "transfer",
      "outputs": [
        {
          "internalType": "bool",
          "name": "",
          "type": "bool"
        }
      ],
      "stateMutability": "nonpayable",
      "type": "function"
    },
    {
      "inputs": [
        {
          "internalType": "address",
          "name": "from",
          "type": "address"
        },
        {
          "internalType": "address",
          "name": "to",
          "type": "address"
        },
        {
          "internalType": "uint256",
          "name": "amount",
          "type": "uint256"
        }
      ],
      "name": "transferFrom",
      "outputs": [
        {
          "internalType": "bool",
          "name": "",
          "type": "bool"
        }
      ],
      "stateMutability": "nonpayable",
      "type": "function"
    },
    {
      "inputs": [
        {
          "internalType": "uint256",
          "name": "amount_",
          "type": "uint256"
        }
      ],
      "name": "unstake",
      "outputs": [],
      "stateMutability": "nonpayable",
      "type": "function"
    },
    {
      "inputs": [
        {
          "internalType": "bytes32",
          "name": "eraId",
          "type": "bytes32"
        },
        {
          "internalType": "bool",
          "name": "approves",
          "type": "bool"
        }
      ],
      "name": "voteForProposedEra",
      "outputs": [],
      "stateMutability": "nonpayable",
      "type": "function"
    },
    {
      "inputs": [],
      "name": "getOwnerAddress",
      "outputs": [
        {
          "internalType": "address",
          "name": "",
          "type": "address"
        }
      ],
      "stateMutability": "view",
      "type": "function"
    }
  ],
  "bytecode": "0x60c06040523480156200001157600080fd5b506040518060400160405280600f81526020017f476f6c644f7261636c65546f6b656e00000000000000000000000000000000008152506040518060400160405280600381526020017f474f54000000000000000000000000000000000000000000000000000000000081525069043c33c1937564800000683635c9adc5dea0000083838382828160039080519060200190620000b0929190620002df565b508060049080519060200190620000c9929190620002df565b505050806080818152505060006005819055505050508060a081815250505050505033601760006101000a81548173ffffffffffffffffffffffffffffffffffffffff021916908373ffffffffffffffffffffffffffffffffffffffff1602179055506200015633600a69043c33c19375648000006200014a91906200048f565b6200015c60201b60201c565b6200058e565b600073ffffffffffffffffffffffffffffffffffffffff168273ffffffffffffffffffffffffffffffffffffffff161415620001cf576040517f08c379a0000000000000000000000000000000000000000000000000000000008152600401620001c690620003e2565b60405180910390fd5b620001e360008383620002d560201b60201c565b8060026000828254620001f7919062000432565b92505081905550806000808473ffffffffffffffffffffffffffffffffffffffff1673ffffffffffffffffffffffffffffffffffffffff16815260200190815260200160002060008282546200024e919062000432565b925050819055508173ffffffffffffffffffffffffffffffffffffffff16600073ffffffffffffffffffffffffffffffffffffffff167fddf252ad1be2c89b69c2b068fc378daa952ba7f163c4a11628f55a4df523b3ef83604051620002b5919062000404565b60405180910390a3620002d160008383620002da60201b60201c565b5050565b505050565b505050565b828054620002ed90620004fa565b90600052602060002090601f0160209004810192826200031157600085556200035d565b82601f106200032c57805160ff19168380011785556200035d565b828001600101855582156200035d579182015b828111156200035c5782518255916020019190600101906200033f565b5b5090506200036c919062000370565b5090565b5b808211156200038b57600081600090555060010162000371565b5090565b60006200039e601f8362000421565b91507f45524332303a206d696e7420746f20746865207a65726f2061646472657373006000830152602082019050919050565b620003dc81620004f0565b82525050565b60006020820190508181036000830152620003fd816200038f565b9050919050565b60006020820190506200041b6000830184620003d1565b92915050565b600082825260208201905092915050565b60006200043f82620004f0565b91506200044c83620004f0565b9250827fffffffffffffffffffffffffffffffffffffffffffffffffffffffffffffffff0382111562000484576200048362000530565b5b828201905092915050565b60006200049c82620004f0565b9150620004a983620004f0565b9250817fffffffffffffffffffffffffffffffffffffffffffffffffffffffffffffffff0483118215151615620004e557620004e462000530565b5b828202905092915050565b6000819050919050565b600060028204905060018216806200051357607f821691505b602082108114156200052a57620005296200055f565b5b50919050565b7f4e487b7100000000000000000000000000000000000000000000000000000000600052601160045260246000fd5b7f4e487b7100000000000000000000000000000000000000000000000000000000600052602260045260246000fd5b60805160a0516140c0620005c2600039600061151b0152600081816107da01528181611f00015261226401526140c06000f3fe608060405234801561001057600080fd5b50600436106101585760003560e01c80634da6a556116100c3578063a694fc3a1161007c578063a694fc3a146103f5578063a9059cbb14610411578063b64cd8ca14610441578063b69922471461044b578063d250b6cb14610469578063dd62ed3e1461048757610158565b80634da6a5561461030d578063533aa7b81461033d57806370a082311461035b57806395d89b411461038b5780639c673c35146103a9578063a457c2d7146103c557610158565b8063274982401161011557806327498240146102355780632bf9262c146102535780632e17de7814610287578063313ce567146102a357806339509351146102c157806340c86f1a146102f157610158565b806306fdde031461015d578063095ea7b31461017b5780630c4f65bd146101ab57806318160ddd146101c95780631e70953e146101e757806323b872dd14610205575b600080fd5b6101656104b7565b604051610172919061382b565b60405180910390f35b61019560048036038101906101909190612a07565b610549565b6040516101a291906137a9565b60405180910390f35b6101b361056c565b6040516101c0919061376c565b60405180910390f35b6101d1610596565b6040516101de9190613b45565b60405180910390f35b6101ef6105a0565b6040516101fc91906137c4565b60405180910390f35b61021f600480360381019061021a91906129b8565b6105a5565b60405161022c91906137a9565b60405180910390f35b61023d6105d4565b60405161024a9190613b45565b60405180910390f35b61026d60048036038101906102689190612953565b6105de565b60405161027e959493929190613b60565b60405180910390f35b6102a1600480360381019061029c9190612afa565b6106bc565b005b6102ab610869565b6040516102b89190613bb3565b60405180910390f35b6102db60048036038101906102d69190612a07565b610872565b6040516102e891906137a9565b60405180910390f35b61030b60048036038101906103069190612abe565b61091c565b005b61032760048036038101906103229190612953565b610da5565b6040516103349190613b45565b60405180910390f35b610345610e5e565b6040516103529190613b45565b60405180910390f35b61037560048036038101906103709190612953565b610e68565b6040516103829190613b45565b60405180910390f35b610393610eb0565b6040516103a0919061382b565b60405180910390f35b6103c360048036038101906103be9190612a43565b610f42565b005b6103df60048036038101906103da9190612a07565b611271565b6040516103ec91906137a9565b60405180910390f35b61040f600480360381019061040a9190612afa565b61135b565b005b61042b60048036038101906104269190612a07565b611470565b60405161043891906137a9565b60405180910390f35b610449611493565b005b610453611553565b6040516104609190613787565b60405180910390f35b610471611655565b60405161047e9190613b0d565b60405180910390f35b6104a1600480360381019061049c919061297c565b611742565b6040516104ae9190613b45565b60405180910390f35b6060600380546104c690613e71565b80601f01602080910402602001604051908101604052809291908181526020018280546104f290613e71565b801561053f5780601f106105145761010080835404028352916020019161053f565b820191906000526020600020905b81548152906001019060200180831161052257829003601f168201915b5050505050905090565b6000806105546117c9565b90506105618185856117d1565b600191505092915050565b6000601760009054906101000a900473ffffffffffffffffffffffffffffffffffffffff16905090565b6000600254905090565b600090565b6000806105b06117c9565b90506105bd85828561199c565b6105c8858585611a28565b60019150509392505050565b6000600554905090565b6000806000806000806105f087611ca9565b905060008111610635576040517f08c379a000000000000000000000000000000000000000000000000000000000815260040161062c906139cd565b60405180910390fd5b600060078281548110610671577f4e487b7100000000000000000000000000000000000000000000000000000000600052603260045260246000fd5b9060005260206000209060070201905080600101548160020154826003015483600401548460050160009054906101000a900460ff1696509650965096509650505091939590929450565b60003390506000600960008373ffffffffffffffffffffffffffffffffffffffff1673ffffffffffffffffffffffffffffffffffffffff1681526020019081526020016000205490506000811415610715575050610866565b600060078281548110610751577f4e487b7100000000000000000000000000000000000000000000000000000000600052603260045260246000fd5b9060005260206000209060070201905083816001015410156107a8576040517f08c379a000000000000000000000000000000000000000000000000000000000815260040161079f9061390d565b60405180910390fd5b6000848260010160008282546107be9190613d40565b92505081905590508082600101819055508082600201819055507f000000000000000000000000000000000000000000000000000000000000000081106108215760018260050160006101000a81548160ff021916908315150217905550610857565b60008260050160006101000a81548160ff0219169083151502179055506005600081548092919061085190613e47565b91905055505b6108618486611d9c565b505050505b50565b60006012905090565b60008061087d6117c9565b9050610911818585600160008673ffffffffffffffffffffffffffffffffffffffff1673ffffffffffffffffffffffffffffffffffffffff16815260200190815260200160002060008973ffffffffffffffffffffffffffffffffffffffff1673ffffffffffffffffffffffffffffffffffffffff1681526020019081526020016000205461090c9190613cb9565b6117d1565b600191505092915050565b6000600860003373ffffffffffffffffffffffffffffffffffffffff1673ffffffffffffffffffffffffffffffffffffffff16815260200190815260200160002054905060008114156109a4576040517f08c379a000000000000000000000000000000000000000000000000000000000815260040161099b90613a0d565b60405180910390fd5b6000600a60008581526020019081526020016000209050600073ffffffffffffffffffffffffffffffffffffffff168160040160009054906101000a900473ffffffffffffffffffffffffffffffffffffffff1673ffffffffffffffffffffffffffffffffffffffff161415610a4f576040517f08c379a0000000000000000000000000000000000000000000000000000000008152600401610a46906138cd565b60405180910390fd5b600015158160060160009054906101000a900460ff16151514610aa7576040517f08c379a0000000000000000000000000000000000000000000000000000000008152600401610a9e90613aad565b60405180910390fd5b60003390506000600b600087815260200190815260200160002060008373ffffffffffffffffffffffffffffffffffffffff1673ffffffffffffffffffffffffffffffffffffffff1681526020019081526020016000209050600073ffffffffffffffffffffffffffffffffffffffff168160000160009054906101000a900473ffffffffffffffffffffffffffffffffffffffff1673ffffffffffffffffffffffffffffffffffffffff1614610b93576040517f08c379a0000000000000000000000000000000000000000000000000000000008152600401610b8a9061394d565b60405180910390fd5b60405180604001604052808373ffffffffffffffffffffffffffffffffffffffff168152602001861515815250600b600088815260200190815260200160002060008473ffffffffffffffffffffffffffffffffffffffff1673ffffffffffffffffffffffffffffffffffffffff16815260200190815260200160002060008201518160000160006101000a81548173ffffffffffffffffffffffffffffffffffffffff021916908373ffffffffffffffffffffffffffffffffffffffff16021790555060208201518160000160146101000a81548160ff0219169083151502179055509050508415610ce957826007016000815480929190610c9590613f0b565b91905055508260050154836007015410610ce45760018360060160006101000a81548160ff02191690831515021790555060018360090160006101000a81548160ff0219169083151502179055505b610d4e565b826008016000815480929190610cfe90613f0b565b91905055508260050154836008015410610d4d5760018360060160006101000a81548160ff02191690831515021790555060008360090160006101000a81548160ff0219169083151502179055505b5b8260060160009054906101000a900460ff1615610d9d577fb1fce463952697f280ac0b6031859014a194dec4e698102ad56f64b08c62e8f083604051610d949190613b29565b60405180910390a15b505050505050565b600081600073ffffffffffffffffffffffffffffffffffffffff168173ffffffffffffffffffffffffffffffffffffffff161415610de257600080fd5b6000610ded84611ca9565b90506000811415610e02576000925050610e58565b600060078281548110610e3e577f4e487b7100000000000000000000000000000000000000000000000000000000600052603260045260246000fd5b906000526020600020906007020190508060010154935050505b50919050565b6000600654905090565b60008060008373ffffffffffffffffffffffffffffffffffffffff1673ffffffffffffffffffffffffffffffffffffffff168152602001908152602001600020549050919050565b606060048054610ebf90613e71565b80601f0160208091040260200160405190810160405280929190818152602001828054610eeb90613e71565b8015610f385780601f10610f0d57610100808354040283529160200191610f38565b820191906000526020600020905b815481529060010190602001808311610f1b57829003601f168201915b5050505050905090565b6000339050600073ffffffffffffffffffffffffffffffffffffffff16600d60040160009054906101000a900473ffffffffffffffffffffffffffffffffffffffff1673ffffffffffffffffffffffffffffffffffffffff161461103457600d60040160009054906101000a900473ffffffffffffffffffffffffffffffffffffffff1673ffffffffffffffffffffffffffffffffffffffff168173ffffffffffffffffffffffffffffffffffffffff1614611033576040517f08c379a000000000000000000000000000000000000000000000000000000000815260040161102a906139ad565b60405180910390fd5b5b6000600a60008781526020019081526020016000209050600073ffffffffffffffffffffffffffffffffffffffff168160040160009054906101000a900473ffffffffffffffffffffffffffffffffffffffff1673ffffffffffffffffffffffffffffffffffffffff16146110de576040517f08c379a00000000000000000000000000000000000000000000000000000000081526004016110d59061398d565b60405180910390fd5b60405180610140016040528087815260200160008152602001848152602001600081526020018673ffffffffffffffffffffffffffffffffffffffff16815260200160008152602001600015158152602001600081526020016000815260200160001515815250600a60008881526020019081526020016000206000820151816000015560208201518160010155604082015181600201556060820151816003015560808201518160040160006101000a81548173ffffffffffffffffffffffffffffffffffffffff021916908373ffffffffffffffffffffffffffffffffffffffff16021790555060a0820151816005015560c08201518160060160006101000a81548160ff02191690831515021790555060e0820151816007015561010082015181600801556101208201518160090160006101000a81548160ff0219169083151502179055509050507fb822b250fdba4faa3c3716a21c74eb83232de44590b528cf663905730e8ebf9a86868660055460405161126194939291906137df565b60405180910390a1505050505050565b60008061127c6117c9565b90506000600160008373ffffffffffffffffffffffffffffffffffffffff1673ffffffffffffffffffffffffffffffffffffffff16815260200190815260200160002060008673ffffffffffffffffffffffffffffffffffffffff1673ffffffffffffffffffffffffffffffffffffffff16815260200190815260200160002054905083811015611342576040517f08c379a000000000000000000000000000000000000000000000000000000000815260040161133990613acd565b60405180910390fd5b61134f82868684036117d1565b60019250505092915050565b600033905060003073ffffffffffffffffffffffffffffffffffffffff166370a08231836040518263ffffffff1660e01b815260040161139b919061376c565b60206040518083038186803b1580156113b357600080fd5b505afa1580156113c7573d6000803e3d6000fd5b505050506040513d601f19601f820116820180604052508101906113eb9190612b23565b905082811015611430576040517f08c379a00000000000000000000000000000000000000000000000000000000081526004016114279061396d565b60405180910390fd5b600061143b83611ca9565b90506000811415611455576114508385611efc565b611460565b61145f81856121c8565b5b61146a83856122e7565b50505050565b60008061147b6117c9565b9050611488818585611a28565b600191505092915050565b600033905060006114a26124be565b9050806080015173ffffffffffffffffffffffffffffffffffffffff168273ffffffffffffffffffffffffffffffffffffffff1614611516576040517f08c379a000000000000000000000000000000000000000000000000000000000815260040161150d906139ed565b60405180910390fd5b61154f7f000000000000000000000000000000000000000000000000000000000000000082602001516115499190613cb9565b836125ab565b5050565b60606007805480602002602001604051908101604052809291908181526020016000905b8282101561164c57838290600052602060002090600702016040518060e00160405290816000820160009054906101000a900473ffffffffffffffffffffffffffffffffffffffff1673ffffffffffffffffffffffffffffffffffffffff1673ffffffffffffffffffffffffffffffffffffffff168152602001600182015481526020016002820154815260200160038201548152602001600482015481526020016005820160009054906101000a900460ff1615151515815260200160068201548152505081526020019060010190611577565b50505050905090565b61165d6127e4565b600d60405180610140016040529081600082015481526020016001820154815260200160028201548152602001600382015481526020016004820160009054906101000a900473ffffffffffffffffffffffffffffffffffffffff1673ffffffffffffffffffffffffffffffffffffffff1673ffffffffffffffffffffffffffffffffffffffff168152602001600582015481526020016006820160009054906101000a900460ff1615151515815260200160078201548152602001600882015481526020016009820160009054906101000a900460ff161515151581525050905090565b6000600160008473ffffffffffffffffffffffffffffffffffffffff1673ffffffffffffffffffffffffffffffffffffffff16815260200190815260200160002060008373ffffffffffffffffffffffffffffffffffffffff1673ffffffffffffffffffffffffffffffffffffffff16815260200190815260200160002054905092915050565b600033905090565b600073ffffffffffffffffffffffffffffffffffffffff168373ffffffffffffffffffffffffffffffffffffffff161415611841576040517f08c379a000000000000000000000000000000000000000000000000000000000815260040161183890613a8d565b60405180910390fd5b600073ffffffffffffffffffffffffffffffffffffffff168273ffffffffffffffffffffffffffffffffffffffff1614156118b1576040517f08c379a00000000000000000000000000000000000000000000000000000000081526004016118a8906138ad565b60405180910390fd5b80600160008573ffffffffffffffffffffffffffffffffffffffff1673ffffffffffffffffffffffffffffffffffffffff16815260200190815260200160002060008473ffffffffffffffffffffffffffffffffffffffff1673ffffffffffffffffffffffffffffffffffffffff168152602001908152602001600020819055508173ffffffffffffffffffffffffffffffffffffffff168373ffffffffffffffffffffffffffffffffffffffff167f8c5be1e5ebec7d5bd14f71427d1e84f3dd0314c0f7b2291e5b200ac8c7c3b9258360405161198f9190613b45565b60405180910390a3505050565b60006119a88484611742565b90507fffffffffffffffffffffffffffffffffffffffffffffffffffffffffffffffff8114611a225781811015611a14576040517f08c379a0000000000000000000000000000000000000000000000000000000008152600401611a0b906138ed565b60405180910390fd5b611a2184848484036117d1565b5b50505050565b600073ffffffffffffffffffffffffffffffffffffffff168373ffffffffffffffffffffffffffffffffffffffff161415611a98576040517f08c379a0000000000000000000000000000000000000000000000000000000008152600401611a8f90613a6d565b60405180910390fd5b600073ffffffffffffffffffffffffffffffffffffffff168273ffffffffffffffffffffffffffffffffffffffff161415611b08576040517f08c379a0000000000000000000000000000000000000000000000000000000008152600401611aff9061384d565b60405180910390fd5b611b13838383612713565b60008060008573ffffffffffffffffffffffffffffffffffffffff1673ffffffffffffffffffffffffffffffffffffffff16815260200190815260200160002054905081811015611b99576040517f08c379a0000000000000000000000000000000000000000000000000000000008152600401611b909061392d565b60405180910390fd5b8181036000808673ffffffffffffffffffffffffffffffffffffffff1673ffffffffffffffffffffffffffffffffffffffff16815260200190815260200160002081905550816000808573ffffffffffffffffffffffffffffffffffffffff1673ffffffffffffffffffffffffffffffffffffffff1681526020019081526020016000206000828254611c2c9190613cb9565b925050819055508273ffffffffffffffffffffffffffffffffffffffff168473ffffffffffffffffffffffffffffffffffffffff167fddf252ad1be2c89b69c2b068fc378daa952ba7f163c4a11628f55a4df523b3ef84604051611c909190613b45565b60405180910390a3611ca3848484612718565b50505050565b600081600073ffffffffffffffffffffffffffffffffffffffff168173ffffffffffffffffffffffffffffffffffffffff161415611ce657600080fd5b6000600960008573ffffffffffffffffffffffffffffffffffffffff1673ffffffffffffffffffffffffffffffffffffffff1681526020019081526020016000205490506000811415611d3d576000925050611d96565b6001600780549050611d4f9190613d40565b811115611d91576040517f08c379a0000000000000000000000000000000000000000000000000000000008152600401611d8890613a2d565b60405180910390fd5b809250505b50919050565b600073ffffffffffffffffffffffffffffffffffffffff168273ffffffffffffffffffffffffffffffffffffffff161415611e0c576040517f08c379a0000000000000000000000000000000000000000000000000000000008152600401611e0390613aed565b60405180910390fd5b611e1860008383612713565b8060026000828254611e2a9190613cb9565b92505081905550806000808473ffffffffffffffffffffffffffffffffffffffff1673ffffffffffffffffffffffffffffffffffffffff1681526020019081526020016000206000828254611e7f9190613cb9565b925050819055508173ffffffffffffffffffffffffffffffffffffffff16600073ffffffffffffffffffffffffffffffffffffffff167fddf252ad1be2c89b69c2b068fc378daa952ba7f163c4a11628f55a4df523b3ef83604051611ee49190613b45565b60405180910390a3611ef860008383612718565b5050565b60007f0000000000000000000000000000000000000000000000000000000000000000821015905060006007805490509050600081141561205e578080611f4290613f0b565b91505060076040518060e00160405280600073ffffffffffffffffffffffffffffffffffffffff168152602001600081526020016000815260200160008152602001600081526020016000151581526020016000815250908060018154018082558091505060019003906000526020600020906007020160009091909190915060008201518160000160006101000a81548173ffffffffffffffffffffffffffffffffffffffff021916908373ffffffffffffffffffffffffffffffffffffffff1602179055506020820151816001015560408201518160020155606082015181600301556080820151816004015560a08201518160050160006101000a81548160ff02191690831515021790555060c0820151816006015550505b60076040518060e001604052808673ffffffffffffffffffffffffffffffffffffffff168152602001858152602001858152602001600081526020016000815260200184151581526020016000815250908060018154018082558091505060019003906000526020600020906007020160009091909190915060008201518160000160006101000a81548173ffffffffffffffffffffffffffffffffffffffff021916908373ffffffffffffffffffffffffffffffffffffffff1602179055506020820151816001015560408201518160020155606082015181600301556080820151816004015560a08201518160050160006101000a81548160ff02191690831515021790555060c08201518160060155505080600960008673ffffffffffffffffffffffffffffffffffffffff1673ffffffffffffffffffffffffffffffffffffffff168152602001908152602001600020819055506121c182858361271d565b5050505050565b600060078381548110612204577f4e487b7100000000000000000000000000000000000000000000000000000000600052603260045260246000fd5b90600052602060002090600702019050818160010160008282546122289190613cb9565b92505081905550818160020160008282546122439190613cb9565b925050819055508060050160009054906101000a900460ff166122e25760007f000000000000000000000000000000000000000000000000000000000000000082600101541015905080156122e05760018260050160006101000a81548160ff0219169083151502179055506122de818360000160009054906101000a900473ffffffffffffffffffffffffffffffffffffffff168661271d565b505b505b505050565b600073ffffffffffffffffffffffffffffffffffffffff168273ffffffffffffffffffffffffffffffffffffffff161415612357576040517f08c379a000000000000000000000000000000000000000000000000000000000815260040161234e90613a4d565b60405180910390fd5b61236382600083612713565b60008060008473ffffffffffffffffffffffffffffffffffffffff1673ffffffffffffffffffffffffffffffffffffffff168152602001908152602001600020549050818110156123e9576040517f08c379a00000000000000000000000000000000000000000000000000000000081526004016123e09061386d565b60405180910390fd5b8181036000808573ffffffffffffffffffffffffffffffffffffffff1673ffffffffffffffffffffffffffffffffffffffff1681526020019081526020016000208190555081600260008282546124409190613d40565b92505081905550600073ffffffffffffffffffffffffffffffffffffffff168373ffffffffffffffffffffffffffffffffffffffff167fddf252ad1be2c89b69c2b068fc378daa952ba7f163c4a11628f55a4df523b3ef846040516124a59190613b45565b60405180910390a36124b983600084612718565b505050565b6124c66127e4565b600d60405180610140016040529081600082015481526020016001820154815260200160028201548152602001600382015481526020016004820160009054906101000a900473ffffffffffffffffffffffffffffffffffffffff1673ffffffffffffffffffffffffffffffffffffffff1673ffffffffffffffffffffffffffffffffffffffff168152602001600582015481526020016006820160009054906101000a900460ff1615151515815260200160078201548152602001600882015481526020016009820160009054906101000a900460ff161515151581525050905090565b60006002836125ba9190613d0f565b90506000600960008473ffffffffffffffffffffffffffffffffffffffff1673ffffffffffffffffffffffffffffffffffffffff16815260200190815260200160002054905060006007828154811061263c577f4e487b7100000000000000000000000000000000000000000000000000000000600052603260045260246000fd5b90600052602060002090600702019050600073ffffffffffffffffffffffffffffffffffffffff168160000160009054906101000a900473ffffffffffffffffffffffffffffffffffffffff1673ffffffffffffffffffffffffffffffffffffffff1614156126e0576040517f08c379a00000000000000000000000000000000000000000000000000000000081526004016126d79061388d565b60405180910390fd5b828160060160008282546126f49190613cb9565b92505081905550600083866127099190613d40565b9050505050505050565b505050565b505050565b60008361272d57600090506127dd565b6000600860008573ffffffffffffffffffffffffffffffffffffffff1673ffffffffffffffffffffffffffffffffffffffff16815260200190815260200160002054905060008114156127d75782600860008673ffffffffffffffffffffffffffffffffffffffff1673ffffffffffffffffffffffffffffffffffffffff16815260200190815260200160002081905550600560008154809291906127d190613f0b565b91905055505b60019150505b9392505050565b60405180610140016040528060008019168152602001600081526020016000815260200160008152602001600073ffffffffffffffffffffffffffffffffffffffff1681526020016000815260200160001515815260200160008152602001600081526020016000151581525090565b600061286761286284613bff565b613bce565b9050808382526020820190508285602086028201111561288657600080fd5b60005b858110156128b6578161289c88826128c0565b845260208401935060208301925050600181019050612889565b5050509392505050565b6000813590506128cf8161402e565b92915050565b600082601f8301126128e657600080fd5b81356128f6848260208601612854565b91505092915050565b60008135905061290e81614045565b92915050565b6000813590506129238161405c565b92915050565b60008135905061293881614073565b92915050565b60008151905061294d81614073565b92915050565b60006020828403121561296557600080fd5b6000612973848285016128c0565b91505092915050565b6000806040838503121561298f57600080fd5b600061299d858286016128c0565b92505060206129ae858286016128c0565b9150509250929050565b6000806000606084860312156129cd57600080fd5b60006129db868287016128c0565b93505060206129ec868287016128c0565b92505060406129fd86828701612929565b9150509250925092565b60008060408385031215612a1a57600080fd5b6000612a28858286016128c0565b9250506020612a3985828601612929565b9150509250929050565b60008060008060808587031215612a5957600080fd5b6000612a6787828801612914565b9450506020612a78878288016128c0565b935050604085013567ffffffffffffffff811115612a9557600080fd5b612aa1878288016128d5565b9250506060612ab287828801612929565b91505092959194509250565b60008060408385031215612ad157600080fd5b6000612adf85828601612914565b9250506020612af0858286016128ff565b9150509250929050565b600060208284031215612b0c57600080fd5b6000612b1a84828501612929565b91505092915050565b600060208284031215612b3557600080fd5b6000612b438482850161293e565b91505092915050565b6000612b588383612b7c565b60208301905092915050565b6000612b7083836136b1565b60e08301905092915050565b612b8581613db5565b82525050565b612b9481613db5565b82525050565b6000612ba582613c4b565b612baf8185613c86565b9350612bba83613c2b565b8060005b83811015612beb578151612bd28882612b4c565b9750612bdd83613c6c565b925050600181019050612bbe565b5085935050505092915050565b6000612c0382613c56565b612c0d8185613c97565b9350612c1883613c3b565b8060005b83811015612c49578151612c308882612b64565b9750612c3b83613c79565b925050600181019050612c1c565b5085935050505092915050565b612c5f81613dc7565b82525050565b612c6e81613dc7565b82525050565b612c7d81613dd3565b82525050565b612c8c81613dd3565b82525050565b6000612c9d82613c61565b612ca78185613ca8565b9350612cb7818560208601613e14565b612cc081614010565b840191505092915050565b6000612cd8602383613ca8565b91507f45524332303a207472616e7366657220746f20746865207a65726f206164647260008301527f65737300000000000000000000000000000000000000000000000000000000006020830152604082019050919050565b6000612d3e602283613ca8565b91507f45524332303a206275726e20616d6f756e7420657863656564732062616c616e60008301527f63650000000000000000000000000000000000000000000000000000000000006020830152604082019050919050565b6000612da4601f83613ca8565b91507f43686169726d616e206164647265737320646f6573206e6f74206578697374006000830152602082019050919050565b6000612de4602283613ca8565b91507f45524332303a20617070726f766520746f20746865207a65726f20616464726560008301527f73730000000000000000000000000000000000000000000000000000000000006020830152604082019050919050565b6000612e4a602183613ca8565b91507f45726120776974682070617373656420496420646f6573206e6f74206578697360008301527f74000000000000000000000000000000000000000000000000000000000000006020830152604082019050919050565b6000612eb0601d83613ca8565b91507f45524332303a20696e73756666696369656e7420616c6c6f77616e63650000006000830152602082019050919050565b6000612ef0602283613ca8565b91507f496e73756666696369656e742062616c616e636520666f7220756e7374616b6960008301527f6e670000000000000000000000000000000000000000000000000000000000006020830152604082019050919050565b6000612f56602683613ca8565b91507f45524332303a207472616e7366657220616d6f756e742065786365656473206260008301527f616c616e636500000000000000000000000000000000000000000000000000006020830152604082019050919050565b6000612fbc601783613ca8565b91507f56616c696461746f7220616c726561647920766f7465640000000000000000006000830152602082019050919050565b6000612ffc602083613ca8565b91507f496e73756666696369656e742062616c616e636520666f72207374616b696e676000830152602082019050919050565b600061303c602583613ca8565b91507f4572612077697468207468652073616d6520494420616c72656164792070726f60008301527f706f7365640000000000000000000000000000000000000000000000000000006020830152604082019050919050565b60006130a2602f83613ca8565b91507f43616c6c6572206e6f742070726576696f7573206572612063686169726d616e60008301527f2e204163636573732064656e69656400000000000000000000000000000000006020830152604082019050919050565b6000613108602583613ca8565b91507f41646472657373206e6f74206c696e6b656420746f20616e79207374616b656860008301527f6f6c6465720000000000000000000000000000000000000000000000000000006020830152604082019050919050565b600061316e602183613ca8565b91507f4f6e6c792063686169726d616e2063616e20656e642063757272656e7420657260008301527f61000000000000000000000000000000000000000000000000000000000000006020830152604082019050919050565b60006131d4602383613ca8565b91507f566f74696e6720666f7262696464656e20666f72206e6f6e2d76616c6964617460008301527f6f727300000000000000000000000000000000000000000000000000000000006020830152604082019050919050565b600061323a602983613ca8565b91507f496e76616c696420696e64657820666f72207374616b65686f6c64657273206360008301527f6f6c6c656374696f6e00000000000000000000000000000000000000000000006020830152604082019050919050565b60006132a0602183613ca8565b91507f45524332303a206275726e2066726f6d20746865207a65726f2061646472657360008301527f73000000000000000000000000000000000000000000000000000000000000006020830152604082019050919050565b6000613306602583613ca8565b91507f45524332303a207472616e736665722066726f6d20746865207a65726f20616460008301527f64726573730000000000000000000000000000000000000000000000000000006020830152604082019050919050565b600061336c602483613ca8565b91507f45524332303a20617070726f76652066726f6d20746865207a65726f2061646460008301527f72657373000000000000000000000000000000000000000000000000000000006020830152604082019050919050565b60006133d2601f83613ca8565b91507f566f746520616c726561647920656e64656420666f72207468617420657261006000830152602082019050919050565b6000613412602583613ca8565b91507f45524332303a2064656372656173656420616c6c6f77616e63652062656c6f7760008301527f207a65726f0000000000000000000000000000000000000000000000000000006020830152604082019050919050565b6000613478601f83613ca8565b91507f45524332303a206d696e7420746f20746865207a65726f2061646472657373006000830152602082019050919050565b610140820160008201516134c26000850182612c74565b5060208201516134d5602085018261373f565b5060408201516134e8604085018261373f565b5060608201516134fb606085018261373f565b50608082015161350e6080850182612b7c565b5060a082015161352160a085018261373f565b5060c082015161353460c0850182612c56565b5060e082015161354760e085018261373f565b5061010082015161355c61010085018261373f565b50610120820151613571610120850182612c56565b50505050565b6101408201600080830154905061358d81613ed7565b61359a6000860182612c74565b50600183015490506135ab81613ef1565b6135b8602086018261373f565b50600283015490506135c981613ef1565b6135d6604086018261373f565b50600383015490506135e781613ef1565b6135f4606086018261373f565b506004830154905061360581613ea3565b6136126080860182612b7c565b506005830154905061362381613ef1565b61363060a086018261373f565b506006830154905061364181613ebd565b61364e60c0860182612c56565b506007830154905061365f81613ef1565b61366c60e086018261373f565b506008830154905061367d81613ef1565b61368b61010086018261373f565b506009830154905061369c81613ebd565b6136aa610120860182612c56565b5050505050565b60e0820160008201516136c76000850182612b7c565b5060208201516136da602085018261373f565b5060408201516136ed604085018261373f565b506060820151613700606085018261373f565b506080820151613713608085018261373f565b5060a082015161372660a0850182612c56565b5060c082015161373960c085018261373f565b50505050565b61374881613dfd565b82525050565b61375781613dfd565b82525050565b61376681613e07565b82525050565b60006020820190506137816000830184612b8b565b92915050565b600060208201905081810360008301526137a18184612bf8565b905092915050565b60006020820190506137be6000830184612c65565b92915050565b60006020820190506137d96000830184612c83565b92915050565b60006080820190506137f46000830187612c83565b6138016020830186612b8b565b81810360408301526138138185612b9a565b9050613822606083018461374e565b95945050505050565b600060208201905081810360008301526138458184612c92565b905092915050565b6000602082019050818103600083015261386681612ccb565b9050919050565b6000602082019050818103600083015261388681612d31565b9050919050565b600060208201905081810360008301526138a681612d97565b9050919050565b600060208201905081810360008301526138c681612dd7565b9050919050565b600060208201905081810360008301526138e681612e3d565b9050919050565b6000602082019050818103600083015261390681612ea3565b9050919050565b6000602082019050818103600083015261392681612ee3565b9050919050565b6000602082019050818103600083015261394681612f49565b9050919050565b6000602082019050818103600083015261396681612faf565b9050919050565b6000602082019050818103600083015261398681612fef565b9050919050565b600060208201905081810360008301526139a68161302f565b9050919050565b600060208201905081810360008301526139c681613095565b9050919050565b600060208201905081810360008301526139e6816130fb565b9050919050565b60006020820190508181036000830152613a0681613161565b9050919050565b60006020820190508181036000830152613a26816131c7565b9050919050565b60006020820190508181036000830152613a468161322d565b9050919050565b60006020820190508181036000830152613a6681613293565b9050919050565b60006020820190508181036000830152613a86816132f9565b9050919050565b60006020820190508181036000830152613aa68161335f565b9050919050565b60006020820190508181036000830152613ac6816133c5565b9050919050565b60006020820190508181036000830152613ae681613405565b9050919050565b60006020820190508181036000830152613b068161346b565b9050919050565b600061014082019050613b2360008301846134ab565b92915050565b600061014082019050613b3f6000830184613577565b92915050565b6000602082019050613b5a600083018461374e565b92915050565b600060a082019050613b75600083018861374e565b613b82602083018761374e565b613b8f604083018661374e565b613b9c606083018561374e565b613ba96080830184612c65565b9695505050505050565b6000602082019050613bc8600083018461375d565b92915050565b6000604051905081810181811067ffffffffffffffff82111715613bf557613bf4613fe1565b5b8060405250919050565b600067ffffffffffffffff821115613c1a57613c19613fe1565b5b602082029050602081019050919050565b6000819050602082019050919050565b6000819050602082019050919050565b600081519050919050565b600081519050919050565b600081519050919050565b6000602082019050919050565b6000602082019050919050565b600082825260208201905092915050565b600082825260208201905092915050565b600082825260208201905092915050565b6000613cc482613dfd565b9150613ccf83613dfd565b9250827fffffffffffffffffffffffffffffffffffffffffffffffffffffffffffffffff03821115613d0457613d03613f54565b5b828201905092915050565b6000613d1a82613dfd565b9150613d2583613dfd565b925082613d3557613d34613f83565b5b828204905092915050565b6000613d4b82613dfd565b9150613d5683613dfd565b925082821015613d6957613d68613f54565b5b828203905092915050565b600073ffffffffffffffffffffffffffffffffffffffff82169050919050565b600060ff82169050919050565b6000819050919050565b6000819050919050565b6000613dc082613ddd565b9050919050565b60008115159050919050565b6000819050919050565b600073ffffffffffffffffffffffffffffffffffffffff82169050919050565b6000819050919050565b600060ff82169050919050565b60005b83811015613e32578082015181840152602081019050613e17565b83811115613e41576000848401525b50505050565b6000613e5282613dfd565b91506000821415613e6657613e65613f54565b5b600182039050919050565b60006002820490506001821680613e8957607f821691505b60208210811415613e9d57613e9c613fb2565b5b50919050565b6000613eb6613eb183614021565b613d74565b9050919050565b6000613ed0613ecb83614021565b613d94565b9050919050565b6000613eea613ee583614021565b613da1565b9050919050565b6000613f04613eff83614021565b613dab565b9050919050565b6000613f1682613dfd565b91507fffffffffffffffffffffffffffffffffffffffffffffffffffffffffffffffff821415613f4957613f48613f54565b5b600182019050919050565b7f4e487b7100000000000000000000000000000000000000000000000000000000600052601160045260246000fd5b7f4e487b7100000000000000000000000000000000000000000000000000000000600052601260045260246000fd5b7f4e487b7100000000000000000000000000000000000000000000000000000000600052602260045260246000fd5b7f4e487b7100000000000000000000000000000000000000000000000000000000600052604160045260246000fd5b6000601f19601f8301169050919050565b60008160001c9050919050565b61403781613db5565b811461404257600080fd5b50565b61404e81613dc7565b811461405957600080fd5b50565b61406581613dd3565b811461407057600080fd5b50565b61407c81613dfd565b811461408757600080fd5b5056fea2646970667358221220ade1fd2244d8c068457acba70e5abfd4c3a26da60706f13ed36f2ef441fa729364736f6c63430008000033",
  "immutableReferences": {
    "1846": [
      {
        "length": 32,
        "start": 5403
      }
    ],
    "2293": [
      {
        "length": 32,
        "start": 2010
      },
      {
        "length": 32,
        "start": 7936
      },
      {
        "length": 32,
        "start": 8804
      }
    ]
  },
  "source": "pragma solidity ^0.8.0;\r\n\r\nimport \"./base/ERC20ProofOfStake.sol\";\r\n\r\ncontract GoldOracleToken is ERC20ProofOfStake {\r\n    uint256 private constant MIN_STAKED_AMOUNT_REQUIRED_FOR_VALIDATION =\r\n        20000 * 10**18;\r\n    uint256 private constant REWARD_AMOUNT_IN_TOKENS_AFTER_EACH_ERA =\r\n        1000 * 10**18;\r\n    address private _owner;\r\n\r\n    constructor()\r\n        ERC20ProofOfStake(\r\n            \"GoldOracleToken\",\r\n            \"GOT\",\r\n            MIN_STAKED_AMOUNT_REQUIRED_FOR_VALIDATION,\r\n            REWARD_AMOUNT_IN_TOKENS_AFTER_EACH_ERA\r\n        )\r\n    {\r\n        _owner = msg.sender;\r\n        _mint(msg.sender, MIN_STAKED_AMOUNT_REQUIRED_FOR_VALIDATION * 10); // for testing\r\n    }\r\n\r\n    function getOwnerAddress() public view returns (address) {\r\n        return _owner;\r\n    }\r\n}\r\n",
  "sourcePath": "D:\\Documents\\Dev\\Repositories\\gold-price-oracle\\gold-price-oracle\\on-chain\\contracts\\token\\GoldOracleToken.sol",
  "compiler": {
    "name": "solc",
    "version": "0.8.0+commit.c7dfd78e.Emscripten.clang"
  },
  "schemaVersion": "3.4.3",
  "updatedAt": "2022-03-09T10:43:36.353Z",
  "devdoc": {
    "kind": "dev",
    "methods": {
      "allowance(address,address)": {
        "details": "See {IERC20-allowance}."
      },
      "approve(address,uint256)": {
        "details": "See {IERC20-approve}. NOTE: If `amount` is the maximum `uint256`, the allowance is not updated on `transferFrom`. This is semantically equivalent to an infinite approval. Requirements: - `spender` cannot be the zero address."
      },
      "balanceOf(address)": {
        "details": "See {IERC20-balanceOf}."
      },
      "decimals()": {
        "details": "Returns the number of decimals used to get its user representation. For example, if `decimals` equals `2`, a balance of `505` tokens should be displayed to a user as `5.05` (`505 / 10 ** 2`). Tokens usually opt for a value of 18, imitating the relationship between Ether and Wei. This is the value {ERC20} uses, unless this function is overridden; NOTE: This information is only used for _display_ purposes: it in no way affects any of the arithmetic of the contract, including {IERC20-balanceOf} and {IERC20-transfer}."
      },
      "decreaseAllowance(address,uint256)": {
        "details": "Atomically decreases the allowance granted to `spender` by the caller. This is an alternative to {approve} that can be used as a mitigation for problems described in {IERC20-approve}. Emits an {Approval} event indicating the updated allowance. Requirements: - `spender` cannot be the zero address. - `spender` must have allowance for the caller of at least `subtractedValue`."
      },
      "increaseAllowance(address,uint256)": {
        "details": "Atomically increases the allowance granted to `spender` by the caller. This is an alternative to {approve} that can be used as a mitigation for problems described in {IERC20-approve}. Emits an {Approval} event indicating the updated allowance. Requirements: - `spender` cannot be the zero address."
      },
      "name()": {
        "details": "Returns the name of the token."
      },
      "symbol()": {
        "details": "Returns the symbol of the token, usually a shorter version of the name."
      },
      "totalSupply()": {
        "details": "See {IERC20-totalSupply}."
      },
      "transfer(address,uint256)": {
        "details": "See {IERC20-transfer}. Requirements: - `to` cannot be the zero address. - the caller must have a balance of at least `amount`."
      },
      "transferFrom(address,address,uint256)": {
        "details": "See {IERC20-transferFrom}. Emits an {Approval} event indicating the updated allowance. This is not required by the EIP. See the note at the beginning of {ERC20}. NOTE: Does not update the allowance if the current allowance is the maximum `uint256`. Requirements: - `from` and `to` cannot be the zero address. - `from` must have a balance of at least `amount`. - the caller must have allowance for ``from``'s tokens of at least `amount`."
      }
    },
    "version": 1
  },
  "userdoc": {
    "kind": "user",
    "methods": {},
    "version": 1
  }
}