{
  "contractName": "GoldOracleToken",
  "abi": [
    {
      "inputs": [],
      "stateMutability": "nonpayable",
      "type": "constructor"
    },
    {
      "anonymous": false,
      "inputs": [
        {
          "indexed": true,
          "internalType": "address",
          "name": "owner",
          "type": "address"
        },
        {
          "indexed": true,
          "internalType": "address",
          "name": "spender",
          "type": "address"
        },
        {
          "indexed": false,
          "internalType": "uint256",
          "name": "value",
          "type": "uint256"
        }
      ],
      "name": "Approval",
      "type": "event"
    },
    {
      "anonymous": false,
      "inputs": [
        {
          "indexed": false,
          "internalType": "bytes32",
          "name": "eraId",
          "type": "bytes32"
        },
        {
          "indexed": false,
          "internalType": "address",
          "name": "chairman",
          "type": "address"
        },
        {
          "indexed": false,
          "internalType": "uint256",
          "name": "timestap",
          "type": "uint256"
        }
      ],
      "name": "EndEraByNewElectedChairman",
      "type": "event"
    },
    {
      "anonymous": false,
      "inputs": [
        {
          "indexed": false,
          "internalType": "bytes32",
          "name": "eraId",
          "type": "bytes32"
        },
        {
          "indexed": false,
          "internalType": "address",
          "name": "chairman",
          "type": "address"
        },
        {
          "indexed": false,
          "internalType": "address[]",
          "name": "council",
          "type": "address[]"
        },
        {
          "indexed": false,
          "internalType": "uint256",
          "name": "validatorsCount",
          "type": "uint256"
        },
        {
          "indexed": false,
          "internalType": "uint256",
          "name": "calculatedSeed",
          "type": "uint256"
        }
      ],
      "name": "NewEraElecationProposal",
      "type": "event"
    },
    {
      "anonymous": false,
      "inputs": [
        {
          "components": [
            {
              "internalType": "bytes32",
              "name": "id",
              "type": "bytes32"
            },
            {
              "internalType": "uint256",
              "name": "colectedFeesAmount",
              "type": "uint256"
            },
            {
              "internalType": "uint256",
              "name": "startDate",
              "type": "uint256"
            },
            {
              "internalType": "uint256",
              "name": "endDate",
              "type": "uint256"
            },
            {
              "internalType": "address",
              "name": "chairman",
              "type": "address"
            },
            {
              "internalType": "uint256",
              "name": "requiredQuorum",
              "type": "uint256"
            },
            {
              "internalType": "bool",
              "name": "isQuorumReached",
              "type": "bool"
            },
            {
              "internalType": "uint256",
              "name": "possitiveVotes",
              "type": "uint256"
            },
            {
              "internalType": "uint256",
              "name": "negativeVotes",
              "type": "uint256"
            },
            {
              "internalType": "bool",
              "name": "accepted",
              "type": "bool"
            },
            {
              "internalType": "bool",
              "name": "ended",
              "type": "bool"
            }
          ],
          "indexed": false,
          "internalType": "struct Eras.Era",
          "name": "era",
          "type": "tuple"
        }
      ],
      "name": "NewEraElectionComplited",
      "type": "event"
    },
    {
      "anonymous": false,
      "inputs": [
        {
          "indexed": true,
          "internalType": "address",
          "name": "from",
          "type": "address"
        },
        {
          "indexed": true,
          "internalType": "address",
          "name": "to",
          "type": "address"
        },
        {
          "indexed": false,
          "internalType": "uint256",
          "name": "value",
          "type": "uint256"
        }
      ],
      "name": "Transfer",
      "type": "event"
    },
    {
      "inputs": [
        {
          "internalType": "address",
          "name": "owner",
          "type": "address"
        },
        {
          "internalType": "address",
          "name": "spender",
          "type": "address"
        }
      ],
      "name": "allowance",
      "outputs": [
        {
          "internalType": "uint256",
          "name": "",
          "type": "uint256"
        }
      ],
      "stateMutability": "view",
      "type": "function",
      "constant": true
    },
    {
      "inputs": [
        {
          "internalType": "address",
          "name": "spender",
          "type": "address"
        },
        {
          "internalType": "uint256",
          "name": "amount",
          "type": "uint256"
        }
      ],
      "name": "approve",
      "outputs": [
        {
          "internalType": "bool",
          "name": "",
          "type": "bool"
        }
      ],
      "stateMutability": "nonpayable",
      "type": "function"
    },
    {
      "inputs": [
        {
          "internalType": "address",
          "name": "account",
          "type": "address"
        }
      ],
      "name": "balanceOf",
      "outputs": [
        {
          "internalType": "uint256",
          "name": "",
          "type": "uint256"
        }
      ],
      "stateMutability": "view",
      "type": "function",
      "constant": true
    },
    {
      "inputs": [],
      "name": "decimals",
      "outputs": [
        {
          "internalType": "uint8",
          "name": "",
          "type": "uint8"
        }
      ],
      "stateMutability": "view",
      "type": "function",
      "constant": true
    },
    {
      "inputs": [
        {
          "internalType": "address",
          "name": "spender",
          "type": "address"
        },
        {
          "internalType": "uint256",
          "name": "subtractedValue",
          "type": "uint256"
        }
      ],
      "name": "decreaseAllowance",
      "outputs": [
        {
          "internalType": "bool",
          "name": "",
          "type": "bool"
        }
      ],
      "stateMutability": "nonpayable",
      "type": "function"
    },
    {
      "inputs": [
        {
          "internalType": "uint256",
          "name": "timestamp",
          "type": "uint256"
        }
      ],
      "name": "endEra",
      "outputs": [],
      "stateMutability": "nonpayable",
      "type": "function"
    },
    {
      "inputs": [],
      "name": "getCurrentEra",
      "outputs": [
        {
          "components": [
            {
              "internalType": "bytes32",
              "name": "id",
              "type": "bytes32"
            },
            {
              "internalType": "uint256",
              "name": "colectedFeesAmount",
              "type": "uint256"
            },
            {
              "internalType": "uint256",
              "name": "startDate",
              "type": "uint256"
            },
            {
              "internalType": "uint256",
              "name": "endDate",
              "type": "uint256"
            },
            {
              "internalType": "address",
              "name": "chairman",
              "type": "address"
            },
            {
              "internalType": "uint256",
              "name": "requiredQuorum",
              "type": "uint256"
            },
            {
              "internalType": "bool",
              "name": "isQuorumReached",
              "type": "bool"
            },
            {
              "internalType": "uint256",
              "name": "possitiveVotes",
              "type": "uint256"
            },
            {
              "internalType": "uint256",
              "name": "negativeVotes",
              "type": "uint256"
            },
            {
              "internalType": "bool",
              "name": "accepted",
              "type": "bool"
            },
            {
              "internalType": "bool",
              "name": "ended",
              "type": "bool"
            }
          ],
          "internalType": "struct Eras.Era",
          "name": "currentEra",
          "type": "tuple"
        }
      ],
      "stateMutability": "view",
      "type": "function",
      "constant": true
    },
    {
      "inputs": [
        {
          "internalType": "bytes32",
          "name": "eraId_",
          "type": "bytes32"
        }
      ],
      "name": "getEraById",
      "outputs": [
        {
          "components": [
            {
              "internalType": "bytes32",
              "name": "id",
              "type": "bytes32"
            },
            {
              "internalType": "uint256",
              "name": "colectedFeesAmount",
              "type": "uint256"
            },
            {
              "internalType": "uint256",
              "name": "startDate",
              "type": "uint256"
            },
            {
              "internalType": "uint256",
              "name": "endDate",
              "type": "uint256"
            },
            {
              "internalType": "address",
              "name": "chairman",
              "type": "address"
            },
            {
              "internalType": "uint256",
              "name": "requiredQuorum",
              "type": "uint256"
            },
            {
              "internalType": "bool",
              "name": "isQuorumReached",
              "type": "bool"
            },
            {
              "internalType": "uint256",
              "name": "possitiveVotes",
              "type": "uint256"
            },
            {
              "internalType": "uint256",
              "name": "negativeVotes",
              "type": "uint256"
            },
            {
              "internalType": "bool",
              "name": "accepted",
              "type": "bool"
            },
            {
              "internalType": "bool",
              "name": "ended",
              "type": "bool"
            }
          ],
          "internalType": "struct Eras.Era",
          "name": "era",
          "type": "tuple"
        }
      ],
      "stateMutability": "view",
      "type": "function",
      "constant": true
    },
    {
      "inputs": [],
      "name": "getErasCount",
      "outputs": [
        {
          "internalType": "uint256",
          "name": "",
          "type": "uint256"
        }
      ],
      "stateMutability": "view",
      "type": "function",
      "constant": true
    },
    {
      "inputs": [
        {
          "internalType": "address",
          "name": "address_",
          "type": "address"
        }
      ],
      "name": "getStakedAmount",
      "outputs": [
        {
          "internalType": "uint256",
          "name": "",
          "type": "uint256"
        }
      ],
      "stateMutability": "view",
      "type": "function",
      "constant": true
    },
    {
      "inputs": [
        {
          "internalType": "address",
          "name": "address_",
          "type": "address"
        }
      ],
      "name": "getStakeholderInformation",
      "outputs": [
        {
          "internalType": "uint256",
          "name": "",
          "type": "uint256"
        },
        {
          "internalType": "uint256",
          "name": "",
          "type": "uint256"
        },
        {
          "internalType": "uint256",
          "name": "",
          "type": "uint256"
        },
        {
          "internalType": "uint256",
          "name": "",
          "type": "uint256"
        },
        {
          "internalType": "bool",
          "name": "",
          "type": "bool"
        }
      ],
      "stateMutability": "view",
      "type": "function",
      "constant": true
    },
    {
      "inputs": [],
      "name": "getStakeholders",
      "outputs": [
        {
          "components": [
            {
              "internalType": "address",
              "name": "user",
              "type": "address"
            },
            {
              "internalType": "uint256",
              "name": "totalAmount",
              "type": "uint256"
            },
            {
              "internalType": "uint256",
              "name": "ownedAmount",
              "type": "uint256"
            },
            {
              "internalType": "uint256",
              "name": "nominatedAmount",
              "type": "uint256"
            },
            {
              "internalType": "uint256",
              "name": "nominatorsCount",
              "type": "uint256"
            },
            {
              "internalType": "bool",
              "name": "canValidate",
              "type": "bool"
            },
            {
              "internalType": "uint256",
              "name": "notCollectedTokenRewards",
              "type": "uint256"
            }
          ],
          "internalType": "struct Stakeholders.Stakeholder[]",
          "name": "stakeholders",
          "type": "tuple[]"
        }
      ],
      "stateMutability": "view",
      "type": "function",
      "constant": true
    },
    {
      "inputs": [],
      "name": "getValidatorsCount",
      "outputs": [
        {
          "internalType": "uint256",
          "name": "",
          "type": "uint256"
        }
      ],
      "stateMutability": "view",
      "type": "function",
      "constant": true
    },
    {
      "inputs": [
        {
          "internalType": "address",
          "name": "spender",
          "type": "address"
        },
        {
          "internalType": "uint256",
          "name": "addedValue",
          "type": "uint256"
        }
      ],
      "name": "increaseAllowance",
      "outputs": [
        {
          "internalType": "bool",
          "name": "",
          "type": "bool"
        }
      ],
      "stateMutability": "nonpayable",
      "type": "function"
    },
    {
      "inputs": [],
      "name": "name",
      "outputs": [
        {
          "internalType": "string",
          "name": "",
          "type": "string"
        }
      ],
      "stateMutability": "view",
      "type": "function",
      "constant": true
    },
    {
      "inputs": [
        {
          "internalType": "bytes32",
          "name": "eraId_",
          "type": "bytes32"
        },
        {
          "internalType": "address",
          "name": "chairman_",
          "type": "address"
        },
        {
          "internalType": "address[]",
          "name": "coucil_",
          "type": "address[]"
        },
        {
          "internalType": "uint256",
          "name": "utcTimeStamp_",
          "type": "uint256"
        },
        {
          "internalType": "uint256",
          "name": "calculatedSeed_",
          "type": "uint256"
        }
      ],
      "name": "proposeNewEra",
      "outputs": [],
      "stateMutability": "nonpayable",
      "type": "function"
    },
    {
      "inputs": [
        {
          "internalType": "uint256",
          "name": "amount_",
          "type": "uint256"
        }
      ],
      "name": "stake",
      "outputs": [],
      "stateMutability": "nonpayable",
      "type": "function"
    },
    {
      "inputs": [],
      "name": "symbol",
      "outputs": [
        {
          "internalType": "string",
          "name": "",
          "type": "string"
        }
      ],
      "stateMutability": "view",
      "type": "function",
      "constant": true
    },
    {
      "inputs": [],
      "name": "totalSupply",
      "outputs": [
        {
          "internalType": "uint256",
          "name": "",
          "type": "uint256"
        }
      ],
      "stateMutability": "view",
      "type": "function",
      "constant": true
    },
    {
      "inputs": [
        {
          "internalType": "address",
          "name": "to",
          "type": "address"
        },
        {
          "internalType": "uint256",
          "name": "amount",
          "type": "uint256"
        }
      ],
      "name": "transfer",
      "outputs": [
        {
          "internalType": "bool",
          "name": "",
          "type": "bool"
        }
      ],
      "stateMutability": "nonpayable",
      "type": "function"
    },
    {
      "inputs": [
        {
          "internalType": "address",
          "name": "from",
          "type": "address"
        },
        {
          "internalType": "address",
          "name": "to",
          "type": "address"
        },
        {
          "internalType": "uint256",
          "name": "amount",
          "type": "uint256"
        }
      ],
      "name": "transferFrom",
      "outputs": [
        {
          "internalType": "bool",
          "name": "",
          "type": "bool"
        }
      ],
      "stateMutability": "nonpayable",
      "type": "function"
    },
    {
      "inputs": [
        {
          "internalType": "uint256",
          "name": "amount_",
          "type": "uint256"
        }
      ],
      "name": "unstake",
      "outputs": [],
      "stateMutability": "nonpayable",
      "type": "function"
    },
    {
      "inputs": [
        {
          "internalType": "bytes32",
          "name": "eraId",
          "type": "bytes32"
        },
        {
          "internalType": "bool",
          "name": "approves",
          "type": "bool"
        }
      ],
      "name": "voteForProposedEra",
      "outputs": [],
      "stateMutability": "nonpayable",
      "type": "function"
    },
    {
      "inputs": [],
      "name": "getOwnerAddress",
      "outputs": [
        {
          "internalType": "address",
          "name": "",
          "type": "address"
        }
      ],
      "stateMutability": "view",
      "type": "function",
      "constant": true
    }
  ],
  "bytecode": "0x60c06040523480156200001157600080fd5b506040518060400160405280600f81526020017f476f6c644f7261636c65546f6b656e00000000000000000000000000000000008152506040518060400160405280600381526020017f474f54000000000000000000000000000000000000000000000000000000000081525069043c33c1937564800000683635c9adc5dea0000083838382828160039080519060200190620000b0929190620002df565b508060049080519060200190620000c9929190620002df565b505050806080818152505060006005819055505050508060a081815250505050505033601060006101000a81548173ffffffffffffffffffffffffffffffffffffffff021916908373ffffffffffffffffffffffffffffffffffffffff1602179055506200015633600a69043c33c19375648000006200014a91906200048f565b6200015c60201b60201c565b6200058e565b600073ffffffffffffffffffffffffffffffffffffffff168273ffffffffffffffffffffffffffffffffffffffff161415620001cf576040517f08c379a0000000000000000000000000000000000000000000000000000000008152600401620001c690620003e2565b60405180910390fd5b620001e360008383620002d560201b60201c565b8060026000828254620001f7919062000432565b92505081905550806000808473ffffffffffffffffffffffffffffffffffffffff1673ffffffffffffffffffffffffffffffffffffffff16815260200190815260200160002060008282546200024e919062000432565b925050819055508173ffffffffffffffffffffffffffffffffffffffff16600073ffffffffffffffffffffffffffffffffffffffff167fddf252ad1be2c89b69c2b068fc378daa952ba7f163c4a11628f55a4df523b3ef83604051620002b5919062000404565b60405180910390a3620002d160008383620002da60201b60201c565b5050565b505050565b505050565b828054620002ed90620004fa565b90600052602060002090601f0160209004810192826200031157600085556200035d565b82601f106200032c57805160ff19168380011785556200035d565b828001600101855582156200035d579182015b828111156200035c5782518255916020019190600101906200033f565b5b5090506200036c919062000370565b5090565b5b808211156200038b57600081600090555060010162000371565b5090565b60006200039e601f8362000421565b91507f45524332303a206d696e7420746f20746865207a65726f2061646472657373006000830152602082019050919050565b620003dc81620004f0565b82525050565b60006020820190508181036000830152620003fd816200038f565b9050919050565b60006020820190506200041b6000830184620003d1565b92915050565b600082825260208201905092915050565b60006200043f82620004f0565b91506200044c83620004f0565b9250827fffffffffffffffffffffffffffffffffffffffffffffffffffffffffffffffff0382111562000484576200048362000530565b5b828201905092915050565b60006200049c82620004f0565b9150620004a983620004f0565b9250817fffffffffffffffffffffffffffffffffffffffffffffffffffffffffffffffff0483118215151615620004e557620004e462000530565b5b828202905092915050565b6000819050919050565b600060028204905060018216806200051357607f821691505b602082108114156200052a57620005296200055f565b5b50919050565b7f4e487b7100000000000000000000000000000000000000000000000000000000600052601160045260246000fd5b7f4e487b7100000000000000000000000000000000000000000000000000000000600052602260045260246000fd5b60805160a051614567620005c260003960006119280152600081816107f90152818161235501526126b901526145676000f3fe608060405234801561001057600080fd5b50600436106101585760003560e01c80634da6a556116100c3578063a9059cbb1161007c578063a9059cbb146103f3578063b699224714610423578063d250b6cb14610441578063dd62ed3e1461045f578063e4ae026f1461048f578063e6037852146104ab57610158565b80634da6a5561461030b578063533aa7b81461033b57806370a082311461035957806395d89b4114610389578063a457c2d7146103a7578063a694fc3a146103d757610158565b80632bf9262c116101155780632bf9262c146102355780632e17de7814610269578063313ce5671461028557806339509351146102a357806340c86f1a146102d35780634c5962cc146102ef57610158565b806306fdde031461015d578063095ea7b31461017b5780630c4f65bd146101ab57806318160ddd146101c957806323b872dd146101e75780632749824014610217575b600080fd5b6101656104db565b6040516101729190613c51565b60405180910390f35b61019560048036038101906101909190612d99565b61056d565b6040516101a29190613ba5565b60405180910390f35b6101b3610590565b6040516101c09190613b68565b60405180910390f35b6101d16105ba565b6040516101de9190613f6b565b60405180910390f35b61020160048036038101906101fc9190612d4a565b6105c4565b60405161020e9190613ba5565b60405180910390f35b61021f6105f3565b60405161022c9190613f6b565b60405180910390f35b61024f600480360381019061024a9190612ce5565b6105fd565b604051610260959493929190613f86565b60405180910390f35b610283600480360381019061027e9190612ec9565b6106db565b005b61028d610888565b60405161029a9190613fd9565b60405180910390f35b6102bd60048036038101906102b89190612d99565b610891565b6040516102ca9190613ba5565b60405180910390f35b6102ed60048036038101906102e89190612e8d565b61093b565b005b61030960048036038101906103049190612dfe565b610ddf565b005b61032560048036038101906103209190612ce5565b61110c565b6040516103329190613f6b565b60405180910390f35b6103436111c5565b6040516103509190613f6b565b60405180910390f35b610373600480360381019061036e9190612ce5565b6111cf565b6040516103809190613f6b565b60405180910390f35b610391611217565b60405161039e9190613c51565b60405180910390f35b6103c160048036038101906103bc9190612d99565b6112a9565b6040516103ce9190613ba5565b60405180910390f35b6103f160048036038101906103ec9190612ec9565b611393565b005b61040d60048036038101906104089190612d99565b6114a8565b60405161041a9190613ba5565b60405180910390f35b61042b6114cb565b6040516104389190613b83565b60405180910390f35b6104496115cd565b6040516104569190613f33565b60405180910390f35b61047960048036038101906104749190612d0e565b6116e8565b6040516104869190613f6b565b60405180910390f35b6104a960048036038101906104a49190612ec9565b61176f565b005b6104c560048036038101906104c09190612dd5565b6119b1565b6040516104d29190613f33565b60405180910390f35b6060600380546104ea906142f1565b80601f0160208091040260200160405190810160405280929190818152602001828054610516906142f1565b80156105635780601f1061053857610100808354040283529160200191610563565b820191906000526020600020905b81548152906001019060200180831161054657829003601f168201915b5050505050905090565b600080610578611acc565b9050610585818585611ad4565b600191505092915050565b6000601060009054906101000a900473ffffffffffffffffffffffffffffffffffffffff16905090565b6000600254905090565b6000806105cf611acc565b90506105dc858285611c9f565b6105e7858585611d2b565b60019150509392505050565b6000600554905090565b60008060008060008061060f87611fac565b905060008111610654576040517f08c379a000000000000000000000000000000000000000000000000000000000815260040161064b90613df3565b60405180910390fd5b600060078281548110610690577f4e487b7100000000000000000000000000000000000000000000000000000000600052603260045260246000fd5b9060005260206000209060070201905080600101548160020154826003015483600401548460050160009054906101000a900460ff1696509650965096509650505091939590929450565b60003390506000600960008373ffffffffffffffffffffffffffffffffffffffff1673ffffffffffffffffffffffffffffffffffffffff1681526020019081526020016000205490506000811415610734575050610885565b600060078281548110610770577f4e487b7100000000000000000000000000000000000000000000000000000000600052603260045260246000fd5b9060005260206000209060070201905083816001015410156107c7576040517f08c379a00000000000000000000000000000000000000000000000000000000081526004016107be90613d33565b60405180910390fd5b6000848260010160008282546107dd91906141c0565b92505081905590508082600101819055508082600201819055507f000000000000000000000000000000000000000000000000000000000000000081106108405760018260050160006101000a81548160ff021916908315150217905550610876565b60008260050160006101000a81548160ff02191690831515021790555060056000815480929190610870906142c7565b91905055505b610880848661209f565b505050505b50565b60006012905090565b60008061089c611acc565b9050610930818585600160008673ffffffffffffffffffffffffffffffffffffffff1673ffffffffffffffffffffffffffffffffffffffff16815260200190815260200160002060008973ffffffffffffffffffffffffffffffffffffffff1673ffffffffffffffffffffffffffffffffffffffff1681526020019081526020016000205461092b91906140df565b611ad4565b600191505092915050565b6000600860003373ffffffffffffffffffffffffffffffffffffffff1673ffffffffffffffffffffffffffffffffffffffff16815260200190815260200160002054905060008114156109c3576040517f08c379a00000000000000000000000000000000000000000000000000000000081526004016109ba90613e33565b60405180910390fd5b6000600a60008581526020019081526020016000209050600073ffffffffffffffffffffffffffffffffffffffff168160040160009054906101000a900473ffffffffffffffffffffffffffffffffffffffff1673ffffffffffffffffffffffffffffffffffffffff161415610a6e576040517f08c379a0000000000000000000000000000000000000000000000000000000008152600401610a6590613cf3565b60405180910390fd5b600015158160060160009054906101000a900460ff16151514610ac6576040517f08c379a0000000000000000000000000000000000000000000000000000000008152600401610abd90613ed3565b60405180910390fd5b60003390506000600b600087815260200190815260200160002060008373ffffffffffffffffffffffffffffffffffffffff1673ffffffffffffffffffffffffffffffffffffffff1681526020019081526020016000209050600073ffffffffffffffffffffffffffffffffffffffff168160000160009054906101000a900473ffffffffffffffffffffffffffffffffffffffff1673ffffffffffffffffffffffffffffffffffffffff1614610bb2576040517f08c379a0000000000000000000000000000000000000000000000000000000008152600401610ba990613d73565b60405180910390fd5b60405180604001604052808373ffffffffffffffffffffffffffffffffffffffff168152602001861515815250600b600088815260200190815260200160002060008473ffffffffffffffffffffffffffffffffffffffff1673ffffffffffffffffffffffffffffffffffffffff16815260200190815260200160002060008201518160000160006101000a81548173ffffffffffffffffffffffffffffffffffffffff021916908373ffffffffffffffffffffffffffffffffffffffff16021790555060208201518160000160146101000a81548160ff021916908315150217905550905050600115158515151415610d19576001836007016000828254610cbb91906140df565b92505081905550826005015483600701541415610d145760018360060160006101000a81548160ff02191690831515021790555060018360090160006101000a81548160ff02191690831515021790555085600f819055505b610d81565b6001836008016000828254610d2e91906140df565b92505081905550826005015483600801541415610d805760018360060160006101000a81548160ff02191690831515021790555060008360090160006101000a81548160ff0219169083151502179055505b5b600115158360060160009054906101000a900460ff1615151415610dd7577ff8fc26765c3e6892820e259afcf2966297e8970183df3a7bdb1be186e80208cd83604051610dce9190613f4f565b60405180910390a15b505050505050565b60003390506000610dee6121ff565b9050600073ffffffffffffffffffffffffffffffffffffffff16816080015173ffffffffffffffffffffffffffffffffffffffff1614610e9b57806080015173ffffffffffffffffffffffffffffffffffffffff168273ffffffffffffffffffffffffffffffffffffffff1614610e9a576040517f08c379a0000000000000000000000000000000000000000000000000000000008152600401610e9190613dd3565b60405180910390fd5b5b6000600a60008981526020019081526020016000209050600073ffffffffffffffffffffffffffffffffffffffff168160040160009054906101000a900473ffffffffffffffffffffffffffffffffffffffff1673ffffffffffffffffffffffffffffffffffffffff1614610f45576040517f08c379a0000000000000000000000000000000000000000000000000000000008152600401610f3c90613db3565b60405180910390fd5b60405180610160016040528089815260200160008152602001868152602001600081526020018873ffffffffffffffffffffffffffffffffffffffff168152602001610f8f61231a565b8152602001600015158152602001600081526020016000815260200160001515815260200160001515815250600a60008a81526020019081526020016000206000820151816000015560208201518160010155604082015181600201556060820151816003015560808201518160040160006101000a81548173ffffffffffffffffffffffffffffffffffffffff021916908373ffffffffffffffffffffffffffffffffffffffff16021790555060a0820151816005015560c08201518160060160006101000a81548160ff02191690831515021790555060e0820151816007015561010082015181600801556101208201518160090160006101000a81548160ff0219169083151502179055506101408201518160090160016101000a81548160ff0219169083151502179055509050507f6d4aad47cb7bcb13b25ae71b45f2c76944033a9b2e76c78a342b7863412504e6888888600554886040516110fa959493929190613bc0565b60405180910390a15050505050505050565b600081600073ffffffffffffffffffffffffffffffffffffffff168173ffffffffffffffffffffffffffffffffffffffff16141561114957600080fd5b600061115484611fac565b905060008114156111695760009250506111bf565b6000600782815481106111a5577f4e487b7100000000000000000000000000000000000000000000000000000000600052603260045260246000fd5b906000526020600020906007020190508060010154935050505b50919050565b6000600654905090565b60008060008373ffffffffffffffffffffffffffffffffffffffff1673ffffffffffffffffffffffffffffffffffffffff168152602001908152602001600020549050919050565b606060048054611226906142f1565b80601f0160208091040260200160405190810160405280929190818152602001828054611252906142f1565b801561129f5780601f106112745761010080835404028352916020019161129f565b820191906000526020600020905b81548152906001019060200180831161128257829003601f168201915b5050505050905090565b6000806112b4611acc565b90506000600160008373ffffffffffffffffffffffffffffffffffffffff1673ffffffffffffffffffffffffffffffffffffffff16815260200190815260200160002060008673ffffffffffffffffffffffffffffffffffffffff1673ffffffffffffffffffffffffffffffffffffffff1681526020019081526020016000205490508381101561137a576040517f08c379a000000000000000000000000000000000000000000000000000000000815260040161137190613ef3565b60405180910390fd5b6113878286868403611ad4565b60019250505092915050565b600033905060003073ffffffffffffffffffffffffffffffffffffffff166370a08231836040518263ffffffff1660e01b81526004016113d39190613b68565b60206040518083038186803b1580156113eb57600080fd5b505afa1580156113ff573d6000803e3d6000fd5b505050506040513d601f19601f820116820180604052508101906114239190612ef2565b905082811015611468576040517f08c379a000000000000000000000000000000000000000000000000000000000815260040161145f90613d93565b60405180910390fd5b600061147383611fac565b9050600081141561148d576114888385612351565b611498565b611497818561261d565b5b6114a2838561273c565b50505050565b6000806114b3611acc565b90506114c0818585611d2b565b600191505092915050565b60606007805480602002602001604051908101604052809291908181526020016000905b828210156115c457838290600052602060002090600702016040518060e00160405290816000820160009054906101000a900473ffffffffffffffffffffffffffffffffffffffff1673ffffffffffffffffffffffffffffffffffffffff1673ffffffffffffffffffffffffffffffffffffffff168152602001600182015481526020016002820154815260200160038201548152602001600482015481526020016005820160009054906101000a900460ff16151515158152602001600682015481525050815260200190600101906114ef565b50505050905090565b6115d5612b6d565b600a6000600d54815260200190815260200160002060405180610160016040529081600082015481526020016001820154815260200160028201548152602001600382015481526020016004820160009054906101000a900473ffffffffffffffffffffffffffffffffffffffff1673ffffffffffffffffffffffffffffffffffffffff1673ffffffffffffffffffffffffffffffffffffffff168152602001600582015481526020016006820160009054906101000a900460ff1615151515815260200160078201548152602001600882015481526020016009820160009054906101000a900460ff161515151581526020016009820160019054906101000a900460ff161515151581525050905090565b6000600160008473ffffffffffffffffffffffffffffffffffffffff1673ffffffffffffffffffffffffffffffffffffffff16815260200190815260200160002060008373ffffffffffffffffffffffffffffffffffffffff1673ffffffffffffffffffffffffffffffffffffffff16815260200190815260200160002054905092915050565b60003390506000600a6000600f54815260200190815260200160002060405180610160016040529081600082015481526020016001820154815260200160028201548152602001600382015481526020016004820160009054906101000a900473ffffffffffffffffffffffffffffffffffffffff1673ffffffffffffffffffffffffffffffffffffffff1673ffffffffffffffffffffffffffffffffffffffff168152602001600582015481526020016006820160009054906101000a900460ff1615151515815260200160078201548152602001600882015481526020016009820160009054906101000a900460ff161515151581526020016009820160019054906101000a900460ff1615151515815250509050806080015173ffffffffffffffffffffffffffffffffffffffff168273ffffffffffffffffffffffffffffffffffffffff16146118f8576040517f08c379a00000000000000000000000000000000000000000000000000000000081526004016118ef90613e13565b60405180910390fd5b6000801b600e5414801561191057506000801b600d54145b1561192357600f54600e81905550611966565b61195c7f0000000000000000000000000000000000000000000000000000000000000000826020015161195691906140df565b83612913565b600d54600e819055505b600f54600d819055507f722e3d4179a09427e9445cc06f5ccd49fe7a5cb5f568f00324d780aca56e341c600d5483856040516119a493929190613c1a565b60405180910390a1505050565b6119b9612b6d565b600a600083815260200190815260200160002060405180610160016040529081600082015481526020016001820154815260200160028201548152602001600382015481526020016004820160009054906101000a900473ffffffffffffffffffffffffffffffffffffffff1673ffffffffffffffffffffffffffffffffffffffff1673ffffffffffffffffffffffffffffffffffffffff168152602001600582015481526020016006820160009054906101000a900460ff1615151515815260200160078201548152602001600882015481526020016009820160009054906101000a900460ff161515151581526020016009820160019054906101000a900460ff1615151515815250509050919050565b600033905090565b600073ffffffffffffffffffffffffffffffffffffffff168373ffffffffffffffffffffffffffffffffffffffff161415611b44576040517f08c379a0000000000000000000000000000000000000000000000000000000008152600401611b3b90613eb3565b60405180910390fd5b600073ffffffffffffffffffffffffffffffffffffffff168273ffffffffffffffffffffffffffffffffffffffff161415611bb4576040517f08c379a0000000000000000000000000000000000000000000000000000000008152600401611bab90613cd3565b60405180910390fd5b80600160008573ffffffffffffffffffffffffffffffffffffffff1673ffffffffffffffffffffffffffffffffffffffff16815260200190815260200160002060008473ffffffffffffffffffffffffffffffffffffffff1673ffffffffffffffffffffffffffffffffffffffff168152602001908152602001600020819055508173ffffffffffffffffffffffffffffffffffffffff168373ffffffffffffffffffffffffffffffffffffffff167f8c5be1e5ebec7d5bd14f71427d1e84f3dd0314c0f7b2291e5b200ac8c7c3b92583604051611c929190613f6b565b60405180910390a3505050565b6000611cab84846116e8565b90507fffffffffffffffffffffffffffffffffffffffffffffffffffffffffffffffff8114611d255781811015611d17576040517f08c379a0000000000000000000000000000000000000000000000000000000008152600401611d0e90613d13565b60405180910390fd5b611d248484848403611ad4565b5b50505050565b600073ffffffffffffffffffffffffffffffffffffffff168373ffffffffffffffffffffffffffffffffffffffff161415611d9b576040517f08c379a0000000000000000000000000000000000000000000000000000000008152600401611d9290613e93565b60405180910390fd5b600073ffffffffffffffffffffffffffffffffffffffff168273ffffffffffffffffffffffffffffffffffffffff161415611e0b576040517f08c379a0000000000000000000000000000000000000000000000000000000008152600401611e0290613c73565b60405180910390fd5b611e16838383612a7b565b60008060008573ffffffffffffffffffffffffffffffffffffffff1673ffffffffffffffffffffffffffffffffffffffff16815260200190815260200160002054905081811015611e9c576040517f08c379a0000000000000000000000000000000000000000000000000000000008152600401611e9390613d53565b60405180910390fd5b8181036000808673ffffffffffffffffffffffffffffffffffffffff1673ffffffffffffffffffffffffffffffffffffffff16815260200190815260200160002081905550816000808573ffffffffffffffffffffffffffffffffffffffff1673ffffffffffffffffffffffffffffffffffffffff1681526020019081526020016000206000828254611f2f91906140df565b925050819055508273ffffffffffffffffffffffffffffffffffffffff168473ffffffffffffffffffffffffffffffffffffffff167fddf252ad1be2c89b69c2b068fc378daa952ba7f163c4a11628f55a4df523b3ef84604051611f939190613f6b565b60405180910390a3611fa6848484612a80565b50505050565b600081600073ffffffffffffffffffffffffffffffffffffffff168173ffffffffffffffffffffffffffffffffffffffff161415611fe957600080fd5b6000600960008573ffffffffffffffffffffffffffffffffffffffff1673ffffffffffffffffffffffffffffffffffffffff1681526020019081526020016000205490506000811415612040576000925050612099565b600160078054905061205291906141c0565b811115612094576040517f08c379a000000000000000000000000000000000000000000000000000000000815260040161208b90613e53565b60405180910390fd5b809250505b50919050565b600073ffffffffffffffffffffffffffffffffffffffff168273ffffffffffffffffffffffffffffffffffffffff16141561210f576040517f08c379a000000000000000000000000000000000000000000000000000000000815260040161210690613f13565b60405180910390fd5b61211b60008383612a7b565b806002600082825461212d91906140df565b92505081905550806000808473ffffffffffffffffffffffffffffffffffffffff1673ffffffffffffffffffffffffffffffffffffffff168152602001908152602001600020600082825461218291906140df565b925050819055508173ffffffffffffffffffffffffffffffffffffffff16600073ffffffffffffffffffffffffffffffffffffffff167fddf252ad1be2c89b69c2b068fc378daa952ba7f163c4a11628f55a4df523b3ef836040516121e79190613f6b565b60405180910390a36121fb60008383612a80565b5050565b612207612b6d565b600a6000600d54815260200190815260200160002060405180610160016040529081600082015481526020016001820154815260200160028201548152602001600382015481526020016004820160009054906101000a900473ffffffffffffffffffffffffffffffffffffffff1673ffffffffffffffffffffffffffffffffffffffff1673ffffffffffffffffffffffffffffffffffffffff168152602001600582015481526020016006820160009054906101000a900460ff1615151515815260200160078201548152602001600882015481526020016009820160009054906101000a900460ff161515151581526020016009820160019054906101000a900460ff161515151581525050905090565b600060016005541415612330576001905061234e565b606460336005546123419190614166565b61234b9190614135565b90505b90565b60007f000000000000000000000000000000000000000000000000000000000000000082101590506000600780549050905060008114156124b3578080612397906143a5565b91505060076040518060e00160405280600073ffffffffffffffffffffffffffffffffffffffff168152602001600081526020016000815260200160008152602001600081526020016000151581526020016000815250908060018154018082558091505060019003906000526020600020906007020160009091909190915060008201518160000160006101000a81548173ffffffffffffffffffffffffffffffffffffffff021916908373ffffffffffffffffffffffffffffffffffffffff1602179055506020820151816001015560408201518160020155606082015181600301556080820151816004015560a08201518160050160006101000a81548160ff02191690831515021790555060c0820151816006015550505b60076040518060e001604052808673ffffffffffffffffffffffffffffffffffffffff168152602001858152602001858152602001600081526020016000815260200184151581526020016000815250908060018154018082558091505060019003906000526020600020906007020160009091909190915060008201518160000160006101000a81548173ffffffffffffffffffffffffffffffffffffffff021916908373ffffffffffffffffffffffffffffffffffffffff1602179055506020820151816001015560408201518160020155606082015181600301556080820151816004015560a08201518160050160006101000a81548160ff02191690831515021790555060c08201518160060155505080600960008673ffffffffffffffffffffffffffffffffffffffff1673ffffffffffffffffffffffffffffffffffffffff16815260200190815260200160002081905550612616828583612a85565b5050505050565b600060078381548110612659577f4e487b7100000000000000000000000000000000000000000000000000000000600052603260045260246000fd5b906000526020600020906007020190508181600101600082825461267d91906140df565b925050819055508181600201600082825461269891906140df565b925050819055508060050160009054906101000a900460ff166127375760007f000000000000000000000000000000000000000000000000000000000000000082600101541015905080156127355760018260050160006101000a81548160ff021916908315150217905550612733818360000160009054906101000a900473ffffffffffffffffffffffffffffffffffffffff1686612a85565b505b505b505050565b600073ffffffffffffffffffffffffffffffffffffffff168273ffffffffffffffffffffffffffffffffffffffff1614156127ac576040517f08c379a00000000000000000000000000000000000000000000000000000000081526004016127a390613e73565b60405180910390fd5b6127b882600083612a7b565b60008060008473ffffffffffffffffffffffffffffffffffffffff1673ffffffffffffffffffffffffffffffffffffffff1681526020019081526020016000205490508181101561283e576040517f08c379a000000000000000000000000000000000000000000000000000000000815260040161283590613c93565b60405180910390fd5b8181036000808573ffffffffffffffffffffffffffffffffffffffff1673ffffffffffffffffffffffffffffffffffffffff16815260200190815260200160002081905550816002600082825461289591906141c0565b92505081905550600073ffffffffffffffffffffffffffffffffffffffff168373ffffffffffffffffffffffffffffffffffffffff167fddf252ad1be2c89b69c2b068fc378daa952ba7f163c4a11628f55a4df523b3ef846040516128fa9190613f6b565b60405180910390a361290e83600084612a80565b505050565b60006002836129229190614135565b90506000600960008473ffffffffffffffffffffffffffffffffffffffff1673ffffffffffffffffffffffffffffffffffffffff1681526020019081526020016000205490506000600782815481106129a4577f4e487b7100000000000000000000000000000000000000000000000000000000600052603260045260246000fd5b90600052602060002090600702019050600073ffffffffffffffffffffffffffffffffffffffff168160000160009054906101000a900473ffffffffffffffffffffffffffffffffffffffff1673ffffffffffffffffffffffffffffffffffffffff161415612a48576040517f08c379a0000000000000000000000000000000000000000000000000000000008152600401612a3f90613cb3565b60405180910390fd5b82816006016000828254612a5c91906140df565b9250508190555060008386612a7191906141c0565b9050505050505050565b505050565b505050565b600083612a955760009050612b66565b6000600860008573ffffffffffffffffffffffffffffffffffffffff1673ffffffffffffffffffffffffffffffffffffffff1681526020019081526020016000205490506000811415612b485782600860008673ffffffffffffffffffffffffffffffffffffffff1673ffffffffffffffffffffffffffffffffffffffff1681526020019081526020016000208190555060056000815480929190612b39906143a5565b91905055506001915050612b66565b60056000815480929190612b5b906143a5565b919050555060019150505b9392505050565b60405180610160016040528060008019168152602001600081526020016000815260200160008152602001600073ffffffffffffffffffffffffffffffffffffffff1681526020016000815260200160001515815260200160008152602001600081526020016000151581526020016000151581525090565b6000612bf9612bf484614025565b613ff4565b90508083825260208201905082856020860282011115612c1857600080fd5b60005b85811015612c485781612c2e8882612c52565b845260208401935060208301925050600181019050612c1b565b5050509392505050565b600081359050612c61816144d5565b92915050565b600082601f830112612c7857600080fd5b8135612c88848260208601612be6565b91505092915050565b600081359050612ca0816144ec565b92915050565b600081359050612cb581614503565b92915050565b600081359050612cca8161451a565b92915050565b600081519050612cdf8161451a565b92915050565b600060208284031215612cf757600080fd5b6000612d0584828501612c52565b91505092915050565b60008060408385031215612d2157600080fd5b6000612d2f85828601612c52565b9250506020612d4085828601612c52565b9150509250929050565b600080600060608486031215612d5f57600080fd5b6000612d6d86828701612c52565b9350506020612d7e86828701612c52565b9250506040612d8f86828701612cbb565b9150509250925092565b60008060408385031215612dac57600080fd5b6000612dba85828601612c52565b9250506020612dcb85828601612cbb565b9150509250929050565b600060208284031215612de757600080fd5b6000612df584828501612ca6565b91505092915050565b600080600080600060a08688031215612e1657600080fd5b6000612e2488828901612ca6565b9550506020612e3588828901612c52565b945050604086013567ffffffffffffffff811115612e5257600080fd5b612e5e88828901612c67565b9350506060612e6f88828901612cbb565b9250506080612e8088828901612cbb565b9150509295509295909350565b60008060408385031215612ea057600080fd5b6000612eae85828601612ca6565b9250506020612ebf85828601612c91565b9150509250929050565b600060208284031215612edb57600080fd5b6000612ee984828501612cbb565b91505092915050565b600060208284031215612f0457600080fd5b6000612f1284828501612cd0565b91505092915050565b6000612f278383612f4b565b60208301905092915050565b6000612f3f8383613aad565b60e08301905092915050565b612f5481614235565b82525050565b612f6381614235565b82525050565b6000612f7482614071565b612f7e81856140ac565b9350612f8983614051565b8060005b83811015612fba578151612fa18882612f1b565b9750612fac83614092565b925050600181019050612f8d565b5085935050505092915050565b6000612fd28261407c565b612fdc81856140bd565b9350612fe783614061565b8060005b83811015613018578151612fff8882612f33565b975061300a8361409f565b925050600181019050612feb565b5085935050505092915050565b61302e81614247565b82525050565b61303d81614247565b82525050565b61304c81614253565b82525050565b61305b81614253565b82525050565b600061306c82614087565b61307681856140ce565b9350613086818560208601614294565b61308f816144aa565b840191505092915050565b60006130a76023836140ce565b91507f45524332303a207472616e7366657220746f20746865207a65726f206164647260008301527f65737300000000000000000000000000000000000000000000000000000000006020830152604082019050919050565b600061310d6022836140ce565b91507f45524332303a206275726e20616d6f756e7420657863656564732062616c616e60008301527f63650000000000000000000000000000000000000000000000000000000000006020830152604082019050919050565b6000613173601f836140ce565b91507f43686169726d616e206164647265737320646f6573206e6f74206578697374006000830152602082019050919050565b60006131b36022836140ce565b91507f45524332303a20617070726f766520746f20746865207a65726f20616464726560008301527f73730000000000000000000000000000000000000000000000000000000000006020830152604082019050919050565b60006132196021836140ce565b91507f45726120776974682070617373656420496420646f6573206e6f74206578697360008301527f74000000000000000000000000000000000000000000000000000000000000006020830152604082019050919050565b600061327f601d836140ce565b91507f45524332303a20696e73756666696369656e7420616c6c6f77616e63650000006000830152602082019050919050565b60006132bf6022836140ce565b91507f496e73756666696369656e742062616c616e636520666f7220756e7374616b6960008301527f6e670000000000000000000000000000000000000000000000000000000000006020830152604082019050919050565b60006133256026836140ce565b91507f45524332303a207472616e7366657220616d6f756e742065786365656473206260008301527f616c616e636500000000000000000000000000000000000000000000000000006020830152604082019050919050565b600061338b6017836140ce565b91507f56616c696461746f7220616c726561647920766f7465640000000000000000006000830152602082019050919050565b60006133cb6020836140ce565b91507f496e73756666696369656e742062616c616e636520666f72207374616b696e676000830152602082019050919050565b600061340b6025836140ce565b91507f4572612077697468207468652073616d6520494420616c72656164792070726f60008301527f706f7365640000000000000000000000000000000000000000000000000000006020830152604082019050919050565b6000613471602f836140ce565b91507f43616c6c6572206e6f742070726576696f7573206572612063686169726d616e60008301527f2e204163636573732064656e69656400000000000000000000000000000000006020830152604082019050919050565b60006134d76025836140ce565b91507f41646472657373206e6f74206c696e6b656420746f20616e79207374616b656860008301527f6f6c6465720000000000000000000000000000000000000000000000000000006020830152604082019050919050565b600061353d6021836140ce565b91507f4f6e6c792063686169726d616e2063616e20656e642063757272656e7420657260008301527f61000000000000000000000000000000000000000000000000000000000000006020830152604082019050919050565b60006135a36023836140ce565b91507f566f74696e6720666f7262696464656e20666f72206e6f6e2d76616c6964617460008301527f6f727300000000000000000000000000000000000000000000000000000000006020830152604082019050919050565b60006136096029836140ce565b91507f496e76616c696420696e64657820666f72207374616b65686f6c64657273206360008301527f6f6c6c656374696f6e00000000000000000000000000000000000000000000006020830152604082019050919050565b600061366f6021836140ce565b91507f45524332303a206275726e2066726f6d20746865207a65726f2061646472657360008301527f73000000000000000000000000000000000000000000000000000000000000006020830152604082019050919050565b60006136d56025836140ce565b91507f45524332303a207472616e736665722066726f6d20746865207a65726f20616460008301527f64726573730000000000000000000000000000000000000000000000000000006020830152604082019050919050565b600061373b6024836140ce565b91507f45524332303a20617070726f76652066726f6d20746865207a65726f2061646460008301527f72657373000000000000000000000000000000000000000000000000000000006020830152604082019050919050565b60006137a1601f836140ce565b91507f566f746520616c726561647920656e64656420666f72207468617420657261006000830152602082019050919050565b60006137e16025836140ce565b91507f45524332303a2064656372656173656420616c6c6f77616e63652062656c6f7760008301527f207a65726f0000000000000000000000000000000000000000000000000000006020830152604082019050919050565b6000613847601f836140ce565b91507f45524332303a206d696e7420746f20746865207a65726f2061646472657373006000830152602082019050919050565b610160820160008201516138916000850182613043565b5060208201516138a46020850182613b3b565b5060408201516138b76040850182613b3b565b5060608201516138ca6060850182613b3b565b5060808201516138dd6080850182612f4b565b5060a08201516138f060a0850182613b3b565b5060c082015161390360c0850182613025565b5060e082015161391660e0850182613b3b565b5061010082015161392b610100850182613b3b565b50610120820151613940610120850182613025565b50610140820151613955610140850182613025565b50505050565b6101608201600080830154905061397181614357565b61397e6000860182613043565b506001830154905061398f81614371565b61399c6020860182613b3b565b50600283015490506139ad81614371565b6139ba6040860182613b3b565b50600383015490506139cb81614371565b6139d86060860182613b3b565b50600483015490506139e981614323565b6139f66080860182612f4b565b5060058301549050613a0781614371565b613a1460a0860182613b3b565b5060068301549050613a258161433d565b613a3260c0860182613025565b5060078301549050613a4381614371565b613a5060e0860182613b3b565b5060088301549050613a6181614371565b613a6f610100860182613b3b565b5060098301549050613a808161433d565b613a8e610120860182613025565b50613a988161438b565b613aa6610140860182613025565b5050505050565b60e082016000820151613ac36000850182612f4b565b506020820151613ad66020850182613b3b565b506040820151613ae96040850182613b3b565b506060820151613afc6060850182613b3b565b506080820151613b0f6080850182613b3b565b5060a0820151613b2260a0850182613025565b5060c0820151613b3560c0850182613b3b565b50505050565b613b448161427d565b82525050565b613b538161427d565b82525050565b613b6281614287565b82525050565b6000602082019050613b7d6000830184612f5a565b92915050565b60006020820190508181036000830152613b9d8184612fc7565b905092915050565b6000602082019050613bba6000830184613034565b92915050565b600060a082019050613bd56000830188613052565b613be26020830187612f5a565b8181036040830152613bf48186612f69565b9050613c036060830185613b4a565b613c106080830184613b4a565b9695505050505050565b6000606082019050613c2f6000830186613052565b613c3c6020830185612f5a565b613c496040830184613b4a565b949350505050565b60006020820190508181036000830152613c6b8184613061565b905092915050565b60006020820190508181036000830152613c8c8161309a565b9050919050565b60006020820190508181036000830152613cac81613100565b9050919050565b60006020820190508181036000830152613ccc81613166565b9050919050565b60006020820190508181036000830152613cec816131a6565b9050919050565b60006020820190508181036000830152613d0c8161320c565b9050919050565b60006020820190508181036000830152613d2c81613272565b9050919050565b60006020820190508181036000830152613d4c816132b2565b9050919050565b60006020820190508181036000830152613d6c81613318565b9050919050565b60006020820190508181036000830152613d8c8161337e565b9050919050565b60006020820190508181036000830152613dac816133be565b9050919050565b60006020820190508181036000830152613dcc816133fe565b9050919050565b60006020820190508181036000830152613dec81613464565b9050919050565b60006020820190508181036000830152613e0c816134ca565b9050919050565b60006020820190508181036000830152613e2c81613530565b9050919050565b60006020820190508181036000830152613e4c81613596565b9050919050565b60006020820190508181036000830152613e6c816135fc565b9050919050565b60006020820190508181036000830152613e8c81613662565b9050919050565b60006020820190508181036000830152613eac816136c8565b9050919050565b60006020820190508181036000830152613ecc8161372e565b9050919050565b60006020820190508181036000830152613eec81613794565b9050919050565b60006020820190508181036000830152613f0c816137d4565b9050919050565b60006020820190508181036000830152613f2c8161383a565b9050919050565b600061016082019050613f49600083018461387a565b92915050565b600061016082019050613f65600083018461395b565b92915050565b6000602082019050613f806000830184613b4a565b92915050565b600060a082019050613f9b6000830188613b4a565b613fa86020830187613b4a565b613fb56040830186613b4a565b613fc26060830185613b4a565b613fcf6080830184613034565b9695505050505050565b6000602082019050613fee6000830184613b59565b92915050565b6000604051905081810181811067ffffffffffffffff8211171561401b5761401a61447b565b5b8060405250919050565b600067ffffffffffffffff8211156140405761403f61447b565b5b602082029050602081019050919050565b6000819050602082019050919050565b6000819050602082019050919050565b600081519050919050565b600081519050919050565b600081519050919050565b6000602082019050919050565b6000602082019050919050565b600082825260208201905092915050565b600082825260208201905092915050565b600082825260208201905092915050565b60006140ea8261427d565b91506140f58361427d565b9250827fffffffffffffffffffffffffffffffffffffffffffffffffffffffffffffffff0382111561412a576141296143ee565b5b828201905092915050565b60006141408261427d565b915061414b8361427d565b92508261415b5761415a61441d565b5b828204905092915050565b60006141718261427d565b915061417c8361427d565b9250817fffffffffffffffffffffffffffffffffffffffffffffffffffffffffffffffff04831182151516156141b5576141b46143ee565b5b828202905092915050565b60006141cb8261427d565b91506141d68361427d565b9250828210156141e9576141e86143ee565b5b828203905092915050565b600073ffffffffffffffffffffffffffffffffffffffff82169050919050565b600060ff82169050919050565b6000819050919050565b6000819050919050565b60006142408261425d565b9050919050565b60008115159050919050565b6000819050919050565b600073ffffffffffffffffffffffffffffffffffffffff82169050919050565b6000819050919050565b600060ff82169050919050565b60005b838110156142b2578082015181840152602081019050614297565b838111156142c1576000848401525b50505050565b60006142d28261427d565b915060008214156142e6576142e56143ee565b5b600182039050919050565b6000600282049050600182168061430957607f821691505b6020821081141561431d5761431c61444c565b5b50919050565b6000614336614331836144bb565b6141f4565b9050919050565b600061435061434b836144bb565b614214565b9050919050565b600061436a614365836144bb565b614221565b9050919050565b600061438461437f836144bb565b61422b565b9050919050565b600061439e614399836144c8565b614214565b9050919050565b60006143b08261427d565b91507fffffffffffffffffffffffffffffffffffffffffffffffffffffffffffffffff8214156143e3576143e26143ee565b5b600182019050919050565b7f4e487b7100000000000000000000000000000000000000000000000000000000600052601160045260246000fd5b7f4e487b7100000000000000000000000000000000000000000000000000000000600052601260045260246000fd5b7f4e487b7100000000000000000000000000000000000000000000000000000000600052602260045260246000fd5b7f4e487b7100000000000000000000000000000000000000000000000000000000600052604160045260246000fd5b6000601f19601f8301169050919050565b60008160001c9050919050565b60008160081c9050919050565b6144de81614235565b81146144e957600080fd5b50565b6144f581614247565b811461450057600080fd5b50565b61450c81614253565b811461451757600080fd5b50565b6145238161427d565b811461452e57600080fd5b5056fea26469706673582212208f67da1d1e3dad4f3cff072bb06dc0318956f181af6b6e029cdb9ec409946c1c64736f6c63430008000033",
  "immutableReferences": {
    "1892": [
      {
        "length": 32,
        "start": 6440
      }
    ],
    "2433": [
      {
        "length": 32,
        "start": 2041
      },
      {
        "length": 32,
        "start": 9045
      },
      {
        "length": 32,
        "start": 9913
      }
    ]
  },
  "source": "pragma solidity ^0.8.0;\r\n\r\nimport \"./base/ERC20ProofOfStake.sol\";\r\n\r\ncontract GoldOracleToken is ERC20ProofOfStake {\r\n    uint256 private constant MIN_STAKED_AMOUNT_REQUIRED_FOR_VALIDATION =\r\n        20000 * 10**18;\r\n    uint256 private constant REWARD_AMOUNT_IN_TOKENS_AFTER_EACH_ERA =\r\n        1000 * 10**18;\r\n    address private _owner;\r\n\r\n    constructor()\r\n        ERC20ProofOfStake(\r\n            \"GoldOracleToken\",\r\n            \"GOT\",\r\n            MIN_STAKED_AMOUNT_REQUIRED_FOR_VALIDATION,\r\n            REWARD_AMOUNT_IN_TOKENS_AFTER_EACH_ERA\r\n        )\r\n    {\r\n        _owner = msg.sender;\r\n        _mint(msg.sender, MIN_STAKED_AMOUNT_REQUIRED_FOR_VALIDATION * 10); // for testing\r\n    }\r\n\r\n    function getOwnerAddress() public view returns (address) {\r\n        return _owner;\r\n    }\r\n}\r\n",
  "sourcePath": "D:\\Documents\\Dev\\Repositories\\gold-price-oracle\\gold-price-oracle\\on-chain\\contracts\\token\\GoldOracleToken.sol",
  "compiler": {
    "name": "solc",
    "version": "0.8.0+commit.c7dfd78e.Emscripten.clang"
  },
  "schemaVersion": "3.4.3",
  "updatedAt": "2022-03-16T22:01:09.362Z",
  "networkType": "ethereum",
  "devdoc": {
    "kind": "dev",
    "methods": {
      "allowance(address,address)": {
        "details": "See {IERC20-allowance}."
      },
      "approve(address,uint256)": {
        "details": "See {IERC20-approve}. NOTE: If `amount` is the maximum `uint256`, the allowance is not updated on `transferFrom`. This is semantically equivalent to an infinite approval. Requirements: - `spender` cannot be the zero address."
      },
      "balanceOf(address)": {
        "details": "See {IERC20-balanceOf}."
      },
      "decimals()": {
        "details": "Returns the number of decimals used to get its user representation. For example, if `decimals` equals `2`, a balance of `505` tokens should be displayed to a user as `5.05` (`505 / 10 ** 2`). Tokens usually opt for a value of 18, imitating the relationship between Ether and Wei. This is the value {ERC20} uses, unless this function is overridden; NOTE: This information is only used for _display_ purposes: it in no way affects any of the arithmetic of the contract, including {IERC20-balanceOf} and {IERC20-transfer}."
      },
      "decreaseAllowance(address,uint256)": {
        "details": "Atomically decreases the allowance granted to `spender` by the caller. This is an alternative to {approve} that can be used as a mitigation for problems described in {IERC20-approve}. Emits an {Approval} event indicating the updated allowance. Requirements: - `spender` cannot be the zero address. - `spender` must have allowance for the caller of at least `subtractedValue`."
      },
      "increaseAllowance(address,uint256)": {
        "details": "Atomically increases the allowance granted to `spender` by the caller. This is an alternative to {approve} that can be used as a mitigation for problems described in {IERC20-approve}. Emits an {Approval} event indicating the updated allowance. Requirements: - `spender` cannot be the zero address."
      },
      "name()": {
        "details": "Returns the name of the token."
      },
      "symbol()": {
        "details": "Returns the symbol of the token, usually a shorter version of the name."
      },
      "totalSupply()": {
        "details": "See {IERC20-totalSupply}."
      },
      "transfer(address,uint256)": {
        "details": "See {IERC20-transfer}. Requirements: - `to` cannot be the zero address. - the caller must have a balance of at least `amount`."
      },
      "transferFrom(address,address,uint256)": {
        "details": "See {IERC20-transferFrom}. Emits an {Approval} event indicating the updated allowance. This is not required by the EIP. See the note at the beginning of {ERC20}. NOTE: Does not update the allowance if the current allowance is the maximum `uint256`. Requirements: - `from` and `to` cannot be the zero address. - `from` must have a balance of at least `amount`. - the caller must have allowance for ``from``'s tokens of at least `amount`."
      }
    },
    "version": 1
  },
  "userdoc": {
    "kind": "user",
    "methods": {},
    "version": 1
  }
}