{
  "contractName": "Timer",
  "abi": [
    {
      "inputs": [
        {
          "internalType": "uint256",
          "name": "initialTimeStamp_",
          "type": "uint256"
        },
        {
          "internalType": "address",
          "name": "resolverAddress_",
          "type": "address"
        }
      ],
      "stateMutability": "nonpayable",
      "type": "constructor"
    },
    {
      "anonymous": false,
      "inputs": [
        {
          "indexed": false,
          "internalType": "uint256",
          "name": "utcTimeStamped_",
          "type": "uint256"
        }
      ],
      "name": "CheckTimeStamped",
      "type": "event"
    },
    {
      "inputs": [
        {
          "internalType": "uint256",
          "name": "utcTimeStamped_",
          "type": "uint256"
        }
      ],
      "name": "ping",
      "outputs": [],
      "stateMutability": "nonpayable",
      "type": "function"
    },
    {
      "inputs": [],
      "name": "getInitialTimeStamps",
      "outputs": [
        {
          "internalType": "uint256",
          "name": "",
          "type": "uint256"
        }
      ],
      "stateMutability": "view",
      "type": "function"
    },
    {
      "inputs": [
        {
          "internalType": "uint256",
          "name": "price_",
          "type": "uint256"
        }
      ],
      "name": "callback",
      "outputs": [],
      "stateMutability": "nonpayable",
      "type": "function"
    }
  ],
  "bytecode": "0x60a060405234801561001057600080fd5b50604051610422380380610422833981810160405281019061003291906100ab565b8160808181525050806000806101000a81548173ffffffffffffffffffffffffffffffffffffffff021916908373ffffffffffffffffffffffffffffffffffffffff1602179055505050610151565b60008151905061009081610123565b92915050565b6000815190506100a58161013a565b92915050565b600080604083850312156100be57600080fd5b60006100cc85828601610096565b92505060206100dd85828601610081565b9150509250929050565b60006100f2826100f9565b9050919050565b600073ffffffffffffffffffffffffffffffffffffffff82169050919050565b6000819050919050565b61012c816100e7565b811461013757600080fd5b50565b61014381610119565b811461014e57600080fd5b50565b6080516102b761016b600039600060a001526102b76000f3fe608060405234801561001057600080fd5b50600436106100415760003560e01c806335988d4d14610046578063773acdef14610064578063ff585caf14610080575b600080fd5b61004e61009c565b60405161005b9190610213565b60405180910390f35b61007e600480360381019061007991906101a3565b6100c4565b005b61009a600480360381019061009591906101a3565b6100fe565b005b60007f0000000000000000000000000000000000000000000000000000000000000000905090565b7fd414433dccf7868b4ebe012a47bc5faa9f8fcfdee750e28280f33bd847138b3a816040516100f39190610213565b60405180910390a150565b60008054906101000a900473ffffffffffffffffffffffffffffffffffffffff1673ffffffffffffffffffffffffffffffffffffffff16635b9a6d9e33836040518363ffffffff1660e01b81526004016101599291906101ea565b600060405180830381600087803b15801561017357600080fd5b505af1158015610187573d6000803e3d6000fd5b5050505050565b60008135905061019d8161026a565b92915050565b6000602082840312156101b557600080fd5b60006101c38482850161018e565b91505092915050565b6101d58161022e565b82525050565b6101e481610260565b82525050565b60006040820190506101ff60008301856101cc565b61020c60208301846101db565b9392505050565b600060208201905061022860008301846101db565b92915050565b600061023982610240565b9050919050565b600073ffffffffffffffffffffffffffffffffffffffff82169050919050565b6000819050919050565b61027381610260565b811461027e57600080fd5b5056fea26469706673582212207cec506f4fe419a41c0aa0ec84930c6eb095de074059b4542ef73c52e5080f0c64736f6c63430008000033",
  "immutableReferences": {
    "735": [
      {
        "length": 32,
        "start": 160
      }
    ]
  },
  "source": "pragma solidity ^0.8.0;\r\n\r\nimport \"../resolvers/GoldPriceResolver.sol\";\r\n\r\ncontract Timer {\r\n    uint256 constant _utcTimestampOneMinute = 60;\r\n    GoldPriceResolver _resolver;\r\n    uint256 immutable _initialTimeStamp;\r\n\r\n    constructor(uint256 initialTimeStamp_, address resolverAddress_) {\r\n        _initialTimeStamp = initialTimeStamp_;\r\n        _resolver = GoldPriceResolver(resolverAddress_);\r\n    }\r\n\r\n    function ping(uint256 utcTimeStamped_) public {\r\n        emit CheckTimeStamped(utcTimeStamped_);\r\n    }\r\n\r\n    function getInitialTimeStamps() public view returns (uint256) {\r\n        return _initialTimeStamp;\r\n    }\r\n\r\n    function callback(uint256 price_) public {\r\n        _resolver.resolvePrice(msg.sender, price_);\r\n    }\r\n\r\n    event CheckTimeStamped(uint256 utcTimeStamped_);\r\n}\r\n",
  "sourcePath": "D:\\Documents\\Dev\\Repositories\\gold-price-oracle\\gold-price-oracle\\on-chain\\contracts\\oracle\\Sync\\Timer.sol",
  "compiler": {
    "name": "solc",
    "version": "0.8.0+commit.c7dfd78e.Emscripten.clang"
  },
  "schemaVersion": "3.4.3",
  "updatedAt": "2022-02-23T11:35:43.974Z",
  "devdoc": {
    "kind": "dev",
    "methods": {},
    "version": 1
  },
  "userdoc": {
    "kind": "user",
    "methods": {},
    "version": 1
  }
}