{
  "contractName": "Timer",
  "abi": [
    {
      "inputs": [
        {
          "internalType": "address",
          "name": "resolverAddress_",
          "type": "address"
        },
        {
          "internalType": "address",
          "name": "erasMonitor_",
          "type": "address"
        },
        {
          "internalType": "uint256",
          "name": "initialTimeStamp_",
          "type": "uint256"
        }
      ],
      "stateMutability": "nonpayable",
      "type": "constructor"
    },
    {
      "anonymous": false,
      "inputs": [
        {
          "indexed": false,
          "internalType": "uint256",
          "name": "utcTimeStamp",
          "type": "uint256"
        }
      ],
      "name": "StarNewPriceRound",
      "type": "event"
    },
    {
      "anonymous": false,
      "inputs": [
        {
          "indexed": false,
          "internalType": "uint256",
          "name": "utcTimeStamp_",
          "type": "uint256"
        },
        {
          "indexed": false,
          "internalType": "bytes32",
          "name": "newEraId_",
          "type": "bytes32"
        }
      ],
      "name": "StartNewEra",
      "type": "event"
    },
    {
      "inputs": [
        {
          "internalType": "uint256",
          "name": "utcTimeStamp_",
          "type": "uint256"
        }
      ],
      "name": "newPriceRoundTimeElapsed",
      "outputs": [],
      "stateMutability": "nonpayable",
      "type": "function"
    },
    {
      "inputs": [
        {
          "internalType": "uint256",
          "name": "utcTimeStamp_",
          "type": "uint256"
        }
      ],
      "name": "newEraTimeElapsed",
      "outputs": [],
      "stateMutability": "nonpayable",
      "type": "function"
    }
  ],
  "bytecode": "0x610120604052603c6003620000159190620001b3565b608090815250603c610b406200002c9190620001b3565b60a0908152506000805560006001553480156200004857600080fd5b5060405162000ea838038062000ea883398181016040528101906200006e91906200015d565b8061010081815250508273ffffffffffffffffffffffffffffffffffffffff1660c08173ffffffffffffffffffffffffffffffffffffffff1660601b815250508173ffffffffffffffffffffffffffffffffffffffff1660e08173ffffffffffffffffffffffffffffffffffffffff1660601b8152505033600260006101000a81548173ffffffffffffffffffffffffffffffffffffffff021916908373ffffffffffffffffffffffffffffffffffffffff160217905550505050620002b5565b600081519050620001408162000281565b92915050565b60008151905062000157816200029b565b92915050565b6000806000606084860312156200017357600080fd5b600062000183868287016200012f565b935050602062000196868287016200012f565b9250506040620001a98682870162000146565b9150509250925092565b6000620001c08262000248565b9150620001cd8362000248565b9250817fffffffffffffffffffffffffffffffffffffffffffffffffffffffffffffffff048311821515161562000209576200020862000252565b5b828202905092915050565b6000620002218262000228565b9050919050565b600073ffffffffffffffffffffffffffffffffffffffff82169050919050565b6000819050919050565b7f4e487b7100000000000000000000000000000000000000000000000000000000600052601160045260246000fd5b6200028c8162000214565b81146200029857600080fd5b50565b620002a68162000248565b8114620002b257600080fd5b50565b60805160a05160c05160601c60e05160601c61010051610ba46200030460003960005050600081816102e5015261044001526000610107015260006103fe015260006101a80152610ba46000f3fe608060405234801561001057600080fd5b50600436106100365760003560e01c80633e5073ac1461003b578063acac304f14610057575b600080fd5b6100556004803603810190610050919061070f565b610073565b005b610071600480360381019061006c919061070f565b610251565b005b600260009054906101000a900473ffffffffffffffffffffffffffffffffffffffff1673ffffffffffffffffffffffffffffffffffffffff163373ffffffffffffffffffffffffffffffffffffffff1614610103576040517f08c379a00000000000000000000000000000000000000000000000000000000081526004016100fa9061087e565b60405180910390fd5b60007f000000000000000000000000000000000000000000000000000000000000000073ffffffffffffffffffffffffffffffffffffffff16636de7da786040518163ffffffff1660e01b815260040160206040518083038186803b15801561016b57600080fd5b505afa15801561017f573d6000803e3d6000fd5b505050506040513d601f19601f820116820180604052508101906101a39190610738565b9050817f0000000000000000000000000000000000000000000000000000000000000000826101d2919061097a565b101580156101e257508060005414155b1561021f577fb4992463ce91f2fd47fb1c5cf70d9866ebc0ea845740846fc0eb6b40ace6889682604051610216919061089e565b60405180910390a15b60018161022c9190610924565b600054141561024d5760008081548092919061024790610a26565b91905055505b5050565b600260009054906101000a900473ffffffffffffffffffffffffffffffffffffffff1673ffffffffffffffffffffffffffffffffffffffff163373ffffffffffffffffffffffffffffffffffffffff16146102e1576040517f08c379a00000000000000000000000000000000000000000000000000000000081526004016102d89061087e565b60405180910390fd5b60007f000000000000000000000000000000000000000000000000000000000000000073ffffffffffffffffffffffffffffffffffffffff1663533aa7b86040518163ffffffff1660e01b815260040160206040518083038186803b15801561034957600080fd5b505afa15801561035d573d6000803e3d6000fd5b505050506040513d601f19601f820116820180604052508101906103819190610738565b905060008114156103fb5760003383336040516020016103a393929190610804565b6040516020818303038152906040528051906020012090507ffe268d8e389bd2854e06f65a9e1d56d61f072f36cb34d8f8d722f6fe56521d2683826040516103ec9291906108b9565b60405180910390a15050610587565b817f000000000000000000000000000000000000000000000000000000000000000082610428919061097a565b11801561043757508060015414155b156105565760007f000000000000000000000000000000000000000000000000000000000000000073ffffffffffffffffffffffffffffffffffffffff1663d250b6cb6040518163ffffffff1660e01b81526004016101406040518083038186803b1580156104a557600080fd5b505afa1580156104b9573d6000803e3d6000fd5b505050506040513d601f19601f820116820180604052508101906104dd91906106e5565b9050600081600001518260400151836080015160405160200161050293929190610841565b6040516020818303038152906040528051906020012090507ffe268d8e389bd2854e06f65a9e1d56d61f072f36cb34d8f8d722f6fe56521d26848260405161054b9291906108b9565b60405180910390a150505b6001816105639190610924565b6001541415610585576001600081548092919061057f90610a26565b91905055505b505b50565b60008151905061059981610b12565b92915050565b6000815190506105ae81610b29565b92915050565b6000815190506105c381610b40565b92915050565b600061014082840312156105dc57600080fd5b6105e76101406108e2565b905060006105f7848285016105b4565b600083015250602061060b848285016106d0565b602083015250604061061f848285016106d0565b6040830152506060610633848285016106d0565b60608301525060806106478482850161058a565b60808301525060a061065b848285016106d0565b60a08301525060c061066f8482850161059f565b60c08301525060e0610683848285016106d0565b60e083015250610100610698848285016106d0565b610100830152506101206106ae8482850161059f565b6101208301525092915050565b6000813590506106ca81610b57565b92915050565b6000815190506106df81610b57565b92915050565b600061014082840312156106f857600080fd5b6000610706848285016105c9565b91505092915050565b60006020828403121561072157600080fd5b600061072f848285016106bb565b91505092915050565b60006020828403121561074a57600080fd5b6000610758848285016106d0565b91505092915050565b61077261076d826109d4565b610a6f565b82525050565b610781816109f2565b82525050565b610798610793826109f2565b610a81565b82525050565b60006107ab600d83610913565b91507f4163636573732044656e696564000000000000000000000000000000000000006000830152602082019050919050565b6107e781610a1c565b82525050565b6107fe6107f982610a1c565b610a9d565b82525050565b60006108108286610761565b60148201915061082082856107ed565b6020820191506108308284610761565b601482019150819050949350505050565b600061084d8286610787565b60208201915061085d82856107ed565b60208201915061086d8284610761565b601482019150819050949350505050565b600060208201905081810360008301526108978161079e565b9050919050565b60006020820190506108b360008301846107de565b92915050565b60006040820190506108ce60008301856107de565b6108db6020830184610778565b9392505050565b6000604051905081810181811067ffffffffffffffff8211171561090957610908610ad6565b5b8060405250919050565b600082825260208201905092915050565b600061092f82610a1c565b915061093a83610a1c565b9250827fffffffffffffffffffffffffffffffffffffffffffffffffffffffffffffffff0382111561096f5761096e610aa7565b5b828201905092915050565b600061098582610a1c565b915061099083610a1c565b9250817fffffffffffffffffffffffffffffffffffffffffffffffffffffffffffffffff04831182151516156109c9576109c8610aa7565b5b828202905092915050565b60006109df826109fc565b9050919050565b60008115159050919050565b6000819050919050565b600073ffffffffffffffffffffffffffffffffffffffff82169050919050565b6000819050919050565b6000610a3182610a1c565b91507fffffffffffffffffffffffffffffffffffffffffffffffffffffffffffffffff821415610a6457610a63610aa7565b5b600182019050919050565b6000610a7a82610a8b565b9050919050565b6000819050919050565b6000610a9682610b05565b9050919050565b6000819050919050565b7f4e487b7100000000000000000000000000000000000000000000000000000000600052601160045260246000fd5b7f4e487b7100000000000000000000000000000000000000000000000000000000600052604160045260246000fd5b60008160601b9050919050565b610b1b816109d4565b8114610b2657600080fd5b50565b610b32816109e6565b8114610b3d57600080fd5b50565b610b49816109f2565b8114610b5457600080fd5b50565b610b6081610a1c565b8114610b6b57600080fd5b5056fea2646970667358221220fe465304470c5a1ca5afdf9f83bf0fe7d700eab1da5a3e51fade54b08c74198064736f6c63430008000033",
  "immutableReferences": {
    "738": [
      {
        "length": 32,
        "start": 424
      }
    ],
    "745": [
      {
        "length": 32,
        "start": 1022
      }
    ],
    "748": [
      {
        "length": 32,
        "start": 263
      }
    ],
    "751": [
      {
        "length": 32,
        "start": 741
      },
      {
        "length": 32,
        "start": 1088
      }
    ]
  },
  "source": "pragma solidity ^0.8.0;\r\n\r\nimport \"../resolvers/interfaces/IBaseResolver.sol\";\r\nimport \"../utils/Rounds.sol\";\r\nimport \"../../token/Interfaces/IErasMonitor.sol\";\r\nimport \"../../token/utils/Eras.sol\";\r\n\r\ncontract Timer {\r\n    uint256 constant UTC_TIMESTAMP_ONE_MINUTE = 60;\r\n    uint256 immutable _timeStepForNewPriceRound = 3 * UTC_TIMESTAMP_ONE_MINUTE;\r\n    uint256 immutable _timeStepForNewEra = 48 * 60 * UTC_TIMESTAMP_ONE_MINUTE; // new era on each 48 hours. should be much lower for testing\r\n    IBaseResolver private immutable _resolver;\r\n    IErasMonitor private immutable _erasMonitor;\r\n    uint256 immutable _initialTimeStamp;\r\n    uint256 private lastRoundsCount = 0;\r\n    uint256 private lastEraCount = 0;\r\n    address private _owner;\r\n\r\n    event StarNewPriceRound(uint256 utcTimeStamp);\r\n    event StartNewEra(uint256 utcTimeStamp_, bytes32 newEraId_);\r\n\r\n    constructor(\r\n        address resolverAddress_,\r\n        address erasMonitor_,\r\n        uint256 initialTimeStamp_\r\n    ) {\r\n        _initialTimeStamp = initialTimeStamp_;\r\n        _resolver = IBaseResolver(resolverAddress_);\r\n        _erasMonitor = IErasMonitor(erasMonitor_);\r\n        _owner = msg.sender;\r\n    }\r\n\r\n    modifier onlyOwner() {\r\n        require(msg.sender == _owner, \"Access Denied\");\r\n        _;\r\n    }\r\n\r\n    function newPriceRoundTimeElapsed(uint256 utcTimeStamp_) public onlyOwner {\r\n        uint256 roundsCount = _resolver.getRoundCount();\r\n        if (\r\n            roundsCount * _timeStepForNewPriceRound >= utcTimeStamp_ &&\r\n            lastRoundsCount != roundsCount\r\n        ) {\r\n            //new price round start\r\n            emit StarNewPriceRound(utcTimeStamp_);\r\n        }\r\n        if (lastRoundsCount == roundsCount + 1) {\r\n            lastRoundsCount++;\r\n        }\r\n    }\r\n\r\n    function newEraTimeElapsed(uint256 utcTimeStamp_) public onlyOwner {\r\n        uint256 erasCount = _erasMonitor.getErasCount();\r\n        if (erasCount == 0) {\r\n            bytes32 initialEraId = keccak256(\r\n                abi.encodePacked(msg.sender, utcTimeStamp_, msg.sender)\r\n            );\r\n            emit StartNewEra(utcTimeStamp_, initialEraId);\r\n            return;\r\n        }\r\n        if (\r\n            erasCount * _timeStepForNewEra > utcTimeStamp_ &&\r\n            lastEraCount != erasCount\r\n        ) {\r\n            //emit event\r\n            Eras.Era memory currentEra = _erasMonitor.getCurrentEra();\r\n\r\n            bytes32 newEraId = keccak256(\r\n                abi.encodePacked(\r\n                    currentEra.id,\r\n                    currentEra.startDate,\r\n                    currentEra.chairman\r\n                )\r\n            );\r\n            emit StartNewEra(utcTimeStamp_, newEraId);\r\n        }\r\n        if (lastEraCount == erasCount + 1) {\r\n            lastEraCount++;\r\n        }\r\n    }\r\n}\r\n",
  "sourcePath": "D:\\Documents\\Dev\\Repositories\\gold-price-oracle\\gold-price-oracle\\on-chain\\contracts\\oracle\\Sync\\Timer.sol",
  "compiler": {
    "name": "solc",
    "version": "0.8.0+commit.c7dfd78e.Emscripten.clang"
  },
  "schemaVersion": "3.4.3",
  "updatedAt": "2022-03-09T10:26:53.484Z",
  "devdoc": {
    "kind": "dev",
    "methods": {},
    "version": 1
  },
  "userdoc": {
    "kind": "user",
    "methods": {},
    "version": 1
  }
}