{
  "contractName": "Timer",
  "abi": [
    {
      "inputs": [
        {
          "internalType": "address",
          "name": "resolverAddress_",
          "type": "address"
        },
        {
          "internalType": "address",
          "name": "proofOfStakeContract",
          "type": "address"
        },
        {
          "internalType": "uint256",
          "name": "initialTimeStamp",
          "type": "uint256"
        }
      ],
      "stateMutability": "nonpayable",
      "type": "constructor"
    },
    {
      "anonymous": false,
      "inputs": [
        {
          "indexed": false,
          "internalType": "uint256",
          "name": "utcTimeStamp",
          "type": "uint256"
        }
      ],
      "name": "StarNewPriceRound",
      "type": "event"
    },
    {
      "anonymous": false,
      "inputs": [
        {
          "indexed": false,
          "internalType": "uint256",
          "name": "utcTimeStamp_",
          "type": "uint256"
        }
      ],
      "name": "StartNewEra",
      "type": "event"
    },
    {
      "inputs": [
        {
          "internalType": "uint256",
          "name": "utcTimeStamp_",
          "type": "uint256"
        }
      ],
      "name": "newPriceRoundTimeElapsed",
      "outputs": [],
      "stateMutability": "nonpayable",
      "type": "function"
    },
    {
      "inputs": [
        {
          "internalType": "uint256",
          "name": "utcTimeStamp_",
          "type": "uint256"
        }
      ],
      "name": "newEraTimeElapsed",
      "outputs": [],
      "stateMutability": "nonpayable",
      "type": "function"
    }
  ],
  "bytecode": "0x610120604052603c6003610013919061015d565b608090815250603c610b40610028919061015d565b60a09081525060008055600060015534801561004357600080fd5b506040516107ca3803806107ca8339818101604052810190610065919061010e565b8061010081815250508273ffffffffffffffffffffffffffffffffffffffff1660c08173ffffffffffffffffffffffffffffffffffffffff1660601b815250508173ffffffffffffffffffffffffffffffffffffffff1660e08173ffffffffffffffffffffffffffffffffffffffff1660601b81525050505050610250565b6000815190506100f381610222565b92915050565b60008151905061010881610239565b92915050565b60008060006060848603121561012357600080fd5b6000610131868287016100e4565b9350506020610142868287016100e4565b9250506040610153868287016100f9565b9150509250925092565b6000610168826101e9565b9150610173836101e9565b9250817fffffffffffffffffffffffffffffffffffffffffffffffffffffffffffffffff04831182151516156101ac576101ab6101f3565b5b828202905092915050565b60006101c2826101c9565b9050919050565b600073ffffffffffffffffffffffffffffffffffffffff82169050919050565b6000819050919050565b7f4e487b7100000000000000000000000000000000000000000000000000000000600052601160045260246000fd5b61022b816101b7565b811461023657600080fd5b50565b610242816101e9565b811461024d57600080fd5b50565b60805160a05160c05160601c60e05160601c610100516105346102966000396000505060006101c5015260006077015260006102660152600061011801526105346000f3fe608060405234801561001057600080fd5b50600436106100365760003560e01c80633e5073ac1461003b578063acac304f14610057575b600080fd5b61005560048036038101906100509190610339565b610073565b005b610071600480360381019061006c9190610339565b6101c1565b005b60007f000000000000000000000000000000000000000000000000000000000000000073ffffffffffffffffffffffffffffffffffffffff16636de7da786040518163ffffffff1660e01b815260040160206040518083038186803b1580156100db57600080fd5b505afa1580156100ef573d6000803e3d6000fd5b505050506040513d601f19601f820116820180604052508101906101139190610362565b9050817f000000000000000000000000000000000000000000000000000000000000000082610142919061040b565b1015801561015257508060005414155b1561018f577fb4992463ce91f2fd47fb1c5cf70d9866ebc0ea845740846fc0eb6b40ace6889682604051610186919061039a565b60405180910390a15b60018161019c91906103b5565b60005414156101bd576000808154809291906101b79061046f565b91905055505b5050565b60007f000000000000000000000000000000000000000000000000000000000000000073ffffffffffffffffffffffffffffffffffffffff1663533aa7b86040518163ffffffff1660e01b815260040160206040518083038186803b15801561022957600080fd5b505afa15801561023d573d6000803e3d6000fd5b505050506040513d601f19601f820116820180604052508101906102619190610362565b9050817f000000000000000000000000000000000000000000000000000000000000000082610290919061040b565b11801561029f57508060015414155b156102dc577fa0e25a122366b525f0099e04085abe025a97407a3e885e9e15e5e8cbdf80466d826040516102d3919061039a565b60405180910390a15b6001816102e991906103b5565b600154141561030b57600160008154809291906103059061046f565b91905055505b5050565b60008135905061031e816104e7565b92915050565b600081519050610333816104e7565b92915050565b60006020828403121561034b57600080fd5b60006103598482850161030f565b91505092915050565b60006020828403121561037457600080fd5b600061038284828501610324565b91505092915050565b61039481610465565b82525050565b60006020820190506103af600083018461038b565b92915050565b60006103c082610465565b91506103cb83610465565b9250827fffffffffffffffffffffffffffffffffffffffffffffffffffffffffffffffff03821115610400576103ff6104b8565b5b828201905092915050565b600061041682610465565b915061042183610465565b9250817fffffffffffffffffffffffffffffffffffffffffffffffffffffffffffffffff048311821515161561045a576104596104b8565b5b828202905092915050565b6000819050919050565b600061047a82610465565b91507fffffffffffffffffffffffffffffffffffffffffffffffffffffffffffffffff8214156104ad576104ac6104b8565b5b600182019050919050565b7f4e487b7100000000000000000000000000000000000000000000000000000000600052601160045260246000fd5b6104f081610465565b81146104fb57600080fd5b5056fea2646970667358221220e02a53672a2f84e2705037319ac2c5545057637961dd366bca77ee9dda62fccd64736f6c63430008000033",
  "immutableReferences": {
    "737": [
      {
        "length": 32,
        "start": 280
      }
    ],
    "744": [
      {
        "length": 32,
        "start": 614
      }
    ],
    "747": [
      {
        "length": 32,
        "start": 119
      }
    ],
    "750": [
      {
        "length": 32,
        "start": 453
      }
    ]
  },
  "source": "pragma solidity ^0.8.0;\r\n\r\nimport \"../resolvers/GoldPriceResolver.sol\";\r\nimport \"../utils/Rounds.sol\";\r\nimport \"../../token/Interfaces/IErasMonitor.sol\";\r\n\r\ncontract Timer {\r\n    uint256 constant UTC_TIMESTAMP_ONE_MINUTE = 60;\r\n    uint256 immutable _timeStepForNewPriceRound = 3 * UTC_TIMESTAMP_ONE_MINUTE;\r\n    uint256 immutable _timeStepForNewEra = 48 * 60 * UTC_TIMESTAMP_ONE_MINUTE; // new era on each 48 hours. should be much lower for testing\r\n    GoldPriceResolver private immutable _resolver;\r\n    IErasMonitor private immutable _proofOfStake;\r\n    uint256 immutable _initialTimeStamp;\r\n    uint256 private lastRoundsCount = 0;\r\n    uint256 private lastEraCount = 0;\r\n\r\n    event StarNewPriceRound(uint256 utcTimeStamp);\r\n    event StartNewEra(uint256 utcTimeStamp_);\r\n\r\n    constructor(\r\n        address resolverAddress_,\r\n        address proofOfStakeContract,\r\n        uint256 initialTimeStamp\r\n    ) {\r\n        _initialTimeStamp = initialTimeStamp;\r\n        _resolver = GoldPriceResolver(resolverAddress_);\r\n        _proofOfStake = IErasMonitor(proofOfStakeContract);\r\n    }\r\n\r\n    function newPriceRoundTimeElapsed(uint256 utcTimeStamp_) public {\r\n        uint256 roundsCount = _resolver.getRoundCount();\r\n        if (\r\n            roundsCount * _timeStepForNewPriceRound >= utcTimeStamp_ &&\r\n            lastRoundsCount != roundsCount\r\n        ) {\r\n            //new price round start\r\n            emit StarNewPriceRound(utcTimeStamp_);\r\n        }\r\n        if (lastRoundsCount == roundsCount + 1) {\r\n            lastRoundsCount++;\r\n        }\r\n    }\r\n\r\n    function newEraTimeElapsed(uint256 utcTimeStamp_) public {\r\n        uint256 erasCount = _proofOfStake.getErasCount();\r\n        if (\r\n            erasCount * _timeStepForNewEra > utcTimeStamp_ &&\r\n            lastEraCount != erasCount\r\n        ) {\r\n            //emit event\r\n            emit StartNewEra(utcTimeStamp_);\r\n        }\r\n        if (lastEraCount == erasCount + 1) {\r\n            lastEraCount++;\r\n        }\r\n    }\r\n}\r\n",
  "sourcePath": "D:\\Documents\\Dev\\Repositories\\gold-price-oracle\\gold-price-oracle\\on-chain\\contracts\\oracle\\Sync\\Timer.sol",
  "compiler": {
    "name": "solc",
    "version": "0.8.0+commit.c7dfd78e.Emscripten.clang"
  },
  "schemaVersion": "3.4.3",
  "updatedAt": "2022-03-04T10:24:27.909Z",
  "devdoc": {
    "kind": "dev",
    "methods": {},
    "version": 1
  },
  "userdoc": {
    "kind": "user",
    "methods": {},
    "version": 1
  }
}