{
  "contractName": "Timer",
  "abi": [
    {
      "inputs": [
        {
          "internalType": "address",
          "name": "resolverAddress_",
          "type": "address"
        },
        {
          "internalType": "address",
          "name": "erasMonitor_",
          "type": "address"
        },
        {
          "internalType": "uint256",
          "name": "initialTimeStamp_",
          "type": "uint256"
        }
      ],
      "stateMutability": "nonpayable",
      "type": "constructor"
    },
    {
      "anonymous": false,
      "inputs": [
        {
          "indexed": false,
          "internalType": "uint256",
          "name": "utcTimeStamp",
          "type": "uint256"
        }
      ],
      "name": "StarNewPriceRound",
      "type": "event"
    },
    {
      "anonymous": false,
      "inputs": [
        {
          "indexed": false,
          "internalType": "uint256",
          "name": "utcTimeStamp_",
          "type": "uint256"
        },
        {
          "indexed": false,
          "internalType": "bytes32",
          "name": "newEraId_",
          "type": "bytes32"
        }
      ],
      "name": "StartNewEra",
      "type": "event"
    },
    {
      "inputs": [
        {
          "internalType": "uint256",
          "name": "utcTimeStamp_",
          "type": "uint256"
        }
      ],
      "name": "newPriceRoundTimeElapsed",
      "outputs": [],
      "stateMutability": "nonpayable",
      "type": "function"
    },
    {
      "inputs": [
        {
          "internalType": "uint256",
          "name": "utcTimeStamp_",
          "type": "uint256"
        }
      ],
      "name": "newEraTimeElapsed",
      "outputs": [],
      "stateMutability": "nonpayable",
      "type": "function"
    },
    {
      "inputs": [],
      "name": "testStartNewEra",
      "outputs": [],
      "stateMutability": "nonpayable",
      "type": "function"
    },
    {
      "inputs": [],
      "name": "testStartNewPriceRound",
      "outputs": [],
      "stateMutability": "nonpayable",
      "type": "function"
    }
  ],
  "bytecode": "0x610120604052603c6003620000159190620001b3565b608090815250603c610b406200002c9190620001b3565b60a0908152506000805560006001553480156200004857600080fd5b50604051620012a0380380620012a083398181016040528101906200006e91906200015d565b8061010081815250508273ffffffffffffffffffffffffffffffffffffffff1660c08173ffffffffffffffffffffffffffffffffffffffff1660601b815250508173ffffffffffffffffffffffffffffffffffffffff1660e08173ffffffffffffffffffffffffffffffffffffffff1660601b8152505033600260006101000a81548173ffffffffffffffffffffffffffffffffffffffff021916908373ffffffffffffffffffffffffffffffffffffffff160217905550505050620002b5565b600081519050620001408162000281565b92915050565b60008151905062000157816200029b565b92915050565b6000806000606084860312156200017357600080fd5b600062000183868287016200012f565b935050602062000196868287016200012f565b9250506040620001a98682870162000146565b9150509250925092565b6000620001c08262000248565b9150620001cd8362000248565b9250817fffffffffffffffffffffffffffffffffffffffffffffffffffffffffffffffff048311821515161562000209576200020862000252565b5b828202905092915050565b6000620002218262000228565b9050919050565b600073ffffffffffffffffffffffffffffffffffffffff82169050919050565b6000819050919050565b7f4e487b7100000000000000000000000000000000000000000000000000000000600052601160045260246000fd5b6200028c8162000214565b81146200029857600080fd5b50565b620002a68162000248565b8114620002b257600080fd5b50565b60805160a05160c05160601c60e05160601c61010051610f956200030b60003960005050600081816101fe0152818161058c01526106e7015260006103ae015260006106a50152600061044f0152610f956000f3fe608060405234801561001057600080fd5b506004361061004c5760003560e01c8063136c56b514610051578063373fce731461005b5780633e5073ac14610065578063acac304f14610081575b600080fd5b61005961009d565b005b61006361016a565b005b61007f600480360381019061007a91906109f8565b61031a565b005b61009b600480360381019061009691906109f8565b6104f8565b005b600260009054906101000a900473ffffffffffffffffffffffffffffffffffffffff1673ffffffffffffffffffffffffffffffffffffffff163373ffffffffffffffffffffffffffffffffffffffff161461012d576040517f08c379a000000000000000000000000000000000000000000000000000000000815260040161012490610c40565b60405180910390fd5b7fb4992463ce91f2fd47fb1c5cf70d9866ebc0ea845740846fc0eb6b40ace6889663075815436040516101609190610bfc565b60405180910390a1565b600260009054906101000a900473ffffffffffffffffffffffffffffffffffffffff1673ffffffffffffffffffffffffffffffffffffffff163373ffffffffffffffffffffffffffffffffffffffff16146101fa576040517f08c379a00000000000000000000000000000000000000000000000000000000081526004016101f190610c40565b60405180910390fd5b60007f000000000000000000000000000000000000000000000000000000000000000073ffffffffffffffffffffffffffffffffffffffff1663533aa7b86040518163ffffffff1660e01b815260040160206040518083038186803b15801561026257600080fd5b505afa158015610276573d6000803e3d6000fd5b505050506040513d601f19601f8201168201806040525081019061029a9190610a21565b9050600081141561031657600033336040516020016102ba929190610b4b565b6040516020818303038152906040528051906020012090507ffe268d8e389bd2854e06f65a9e1d56d61f072f36cb34d8f8d722f6fe56521d2663ba2713b382604051610307929190610c17565b60405180910390a15050610318565b505b565b600260009054906101000a900473ffffffffffffffffffffffffffffffffffffffff1673ffffffffffffffffffffffffffffffffffffffff163373ffffffffffffffffffffffffffffffffffffffff16146103aa576040517f08c379a00000000000000000000000000000000000000000000000000000000081526004016103a190610c40565b60405180910390fd5b60007f000000000000000000000000000000000000000000000000000000000000000073ffffffffffffffffffffffffffffffffffffffff16636de7da786040518163ffffffff1660e01b815260040160206040518083038186803b15801561041257600080fd5b505afa158015610426573d6000803e3d6000fd5b505050506040513d601f19601f8201168201806040525081019061044a9190610a21565b9050817f0000000000000000000000000000000000000000000000000000000000000000826104799190610d47565b1015801561048957508060005414155b156104c6577fb4992463ce91f2fd47fb1c5cf70d9866ebc0ea845740846fc0eb6b40ace68896826040516104bd9190610c60565b60405180910390a15b6001816104d39190610cf1565b60005414156104f4576000808154809291906104ee90610e17565b91905055505b5050565b600260009054906101000a900473ffffffffffffffffffffffffffffffffffffffff1673ffffffffffffffffffffffffffffffffffffffff163373ffffffffffffffffffffffffffffffffffffffff1614610588576040517f08c379a000000000000000000000000000000000000000000000000000000000815260040161057f90610c40565b60405180910390fd5b60007f000000000000000000000000000000000000000000000000000000000000000073ffffffffffffffffffffffffffffffffffffffff1663533aa7b86040518163ffffffff1660e01b815260040160206040518083038186803b1580156105f057600080fd5b505afa158015610604573d6000803e3d6000fd5b505050506040513d601f19601f820116820180604052508101906106289190610a21565b905060008114156106a257600033833360405160200161064a93929190610b82565b6040516020818303038152906040528051906020012090507ffe268d8e389bd2854e06f65a9e1d56d61f072f36cb34d8f8d722f6fe56521d268382604051610693929190610c7b565b60405180910390a1505061082e565b817f0000000000000000000000000000000000000000000000000000000000000000826106cf9190610d47565b1180156106de57508060015414155b156107fd5760007f000000000000000000000000000000000000000000000000000000000000000073ffffffffffffffffffffffffffffffffffffffff1663d250b6cb6040518163ffffffff1660e01b81526004016101a06040518083038186803b15801561074c57600080fd5b505afa158015610760573d6000803e3d6000fd5b505050506040513d601f19601f8201168201806040525081019061078491906109ce565b90506000816000015182606001518360a001516040516020016107a993929190610bbf565b6040516020818303038152906040528051906020012090507ffe268d8e389bd2854e06f65a9e1d56d61f072f36cb34d8f8d722f6fe56521d2684826040516107f2929190610c7b565b60405180910390a150505b60018161080a9190610cf1565b600154141561082c576001600081548092919061082690610e17565b91905055505b505b50565b60008151905061084081610f03565b92915050565b60008151905061085581610f1a565b92915050565b60008151905061086a81610f31565b92915050565b60006101a0828403121561088357600080fd5b61088e6101a0610ca4565b9050600061089e8482850161085b565b60008301525060206108b28482850161085b565b60208301525060406108c6848285016109b9565b60408301525060606108da848285016109b9565b60608301525060806108ee848285016109b9565b60808301525060a061090284828501610831565b60a08301525060c0610916848285016109b9565b60c08301525060e061092a84828501610846565b60e08301525061010061093f848285016109b9565b61010083015250610120610955848285016109b9565b6101208301525061014061096b84828501610846565b6101408301525061016061098184828501610846565b61016083015250610180610997848285016109b9565b6101808301525092915050565b6000813590506109b381610f48565b92915050565b6000815190506109c881610f48565b92915050565b60006101a082840312156109e157600080fd5b60006109ef84828501610870565b91505092915050565b600060208284031215610a0a57600080fd5b6000610a18848285016109a4565b91505092915050565b600060208284031215610a3357600080fd5b6000610a41848285016109b9565b91505092915050565b610a5b610a5682610da1565b610e60565b82525050565b610a6a81610dbf565b82525050565b610a81610a7c82610dbf565b610e72565b82525050565b610a9081610df3565b82525050565b610a9f81610e05565b82525050565b6000610ab2600d83610cd5565b91507f4163636573732044656e696564000000000000000000000000000000000000006000830152602082019050919050565b6000610af2600a83610ce6565b91507f33313233313233313233000000000000000000000000000000000000000000006000830152600a82019050919050565b610b2e81610de9565b82525050565b610b45610b4082610de9565b610e8e565b82525050565b6000610b578285610a4a565b601482019150610b6682610ae5565b9150610b728284610a4a565b6014820191508190509392505050565b6000610b8e8286610a4a565b601482019150610b9e8285610b34565b602082019150610bae8284610a4a565b601482019150819050949350505050565b6000610bcb8286610a70565b602082019150610bdb8285610b34565b602082019150610beb8284610a4a565b601482019150819050949350505050565b6000602082019050610c116000830184610a87565b92915050565b6000604082019050610c2c6000830185610a96565b610c396020830184610a61565b9392505050565b60006020820190508181036000830152610c5981610aa5565b9050919050565b6000602082019050610c756000830184610b25565b92915050565b6000604082019050610c906000830185610b25565b610c9d6020830184610a61565b9392505050565b6000604051905081810181811067ffffffffffffffff82111715610ccb57610cca610ec7565b5b8060405250919050565b600082825260208201905092915050565b600081905092915050565b6000610cfc82610de9565b9150610d0783610de9565b9250827fffffffffffffffffffffffffffffffffffffffffffffffffffffffffffffffff03821115610d3c57610d3b610e98565b5b828201905092915050565b6000610d5282610de9565b9150610d5d83610de9565b9250817fffffffffffffffffffffffffffffffffffffffffffffffffffffffffffffffff0483118215151615610d9657610d95610e98565b5b828202905092915050565b6000610dac82610dc9565b9050919050565b60008115159050919050565b6000819050919050565b600073ffffffffffffffffffffffffffffffffffffffff82169050919050565b6000819050919050565b6000610dfe82610de9565b9050919050565b6000610e1082610de9565b9050919050565b6000610e2282610de9565b91507fffffffffffffffffffffffffffffffffffffffffffffffffffffffffffffffff821415610e5557610e54610e98565b5b600182019050919050565b6000610e6b82610e7c565b9050919050565b6000819050919050565b6000610e8782610ef6565b9050919050565b6000819050919050565b7f4e487b7100000000000000000000000000000000000000000000000000000000600052601160045260246000fd5b7f4e487b7100000000000000000000000000000000000000000000000000000000600052604160045260246000fd5b60008160601b9050919050565b610f0c81610da1565b8114610f1757600080fd5b50565b610f2381610db3565b8114610f2e57600080fd5b50565b610f3a81610dbf565b8114610f4557600080fd5b50565b610f5181610de9565b8114610f5c57600080fd5b5056fea2646970667358221220e448c212b73eccc8e34be5b8329110103dc42facd7829deb8cb85560284256f864736f6c63430008000033",
  "immutableReferences": {
    "738": [
      {
        "length": 32,
        "start": 1103
      }
    ],
    "745": [
      {
        "length": 32,
        "start": 1701
      }
    ],
    "748": [
      {
        "length": 32,
        "start": 942
      }
    ],
    "751": [
      {
        "length": 32,
        "start": 510
      },
      {
        "length": 32,
        "start": 1420
      },
      {
        "length": 32,
        "start": 1767
      }
    ]
  },
  "source": "pragma solidity ^0.8.0;\r\n\r\nimport \"../resolvers/interfaces/IBaseResolver.sol\";\r\nimport \"../utils/Rounds.sol\";\r\nimport \"../../token/Interfaces/IErasMonitor.sol\";\r\nimport \"../../token/utils/Eras.sol\";\r\n\r\ncontract Timer {\r\n    uint256 constant UTC_TIMESTAMP_ONE_MINUTE = 60;\r\n    uint256 immutable _timeStepForNewPriceRound = 3 * UTC_TIMESTAMP_ONE_MINUTE;\r\n    uint256 immutable _timeStepForNewEra = 48 * 60 * UTC_TIMESTAMP_ONE_MINUTE; // new era on each 48 hours. should be much lower for testing\r\n    IBaseResolver private immutable _resolver;\r\n    IErasMonitor private immutable _erasMonitor;\r\n    uint256 immutable _initialTimeStamp;\r\n    uint256 private lastRoundsCount = 0;\r\n    uint256 private lastEraCount = 0;\r\n    address private _owner;\r\n\r\n    event StarNewPriceRound(uint256 utcTimeStamp);\r\n    event StartNewEra(uint256 utcTimeStamp_, bytes32 newEraId_);\r\n\r\n    constructor(\r\n        address resolverAddress_,\r\n        address erasMonitor_,\r\n        uint256 initialTimeStamp_\r\n    ) {\r\n        _initialTimeStamp = initialTimeStamp_;\r\n        _resolver = IBaseResolver(resolverAddress_);\r\n        _erasMonitor = IErasMonitor(erasMonitor_);\r\n        _owner = msg.sender;\r\n    }\r\n\r\n    modifier onlyOwner() {\r\n        require(msg.sender == _owner, \"Access Denied\");\r\n        _;\r\n    }\r\n\r\n    function newPriceRoundTimeElapsed(uint256 utcTimeStamp_) public onlyOwner {\r\n        uint256 roundsCount = _resolver.getRoundCount();\r\n        if (\r\n            roundsCount * _timeStepForNewPriceRound >= utcTimeStamp_ &&\r\n            lastRoundsCount != roundsCount\r\n        ) {\r\n            //new price round start\r\n            emit StarNewPriceRound(utcTimeStamp_);\r\n        }\r\n        if (lastRoundsCount == roundsCount + 1) {\r\n            lastRoundsCount++;\r\n        }\r\n    }\r\n\r\n    function newEraTimeElapsed(uint256 utcTimeStamp_) public onlyOwner {\r\n        uint256 erasCount = _erasMonitor.getErasCount();\r\n        if (erasCount == 0) {\r\n            bytes32 initialEraId = keccak256(\r\n                abi.encodePacked(msg.sender, utcTimeStamp_, msg.sender)\r\n            );\r\n            emit StartNewEra(utcTimeStamp_, initialEraId);\r\n            return;\r\n        }\r\n        if (\r\n            erasCount * _timeStepForNewEra > utcTimeStamp_ &&\r\n            lastEraCount != erasCount\r\n        ) {\r\n            //emit event\r\n            Eras.Era memory currentEra = _erasMonitor.getCurrentEra();\r\n\r\n            bytes32 newEraId = keccak256(\r\n                abi.encodePacked(\r\n                    currentEra.id,\r\n                    currentEra.startDate,\r\n                    currentEra.chairman\r\n                )\r\n            );\r\n            emit StartNewEra(utcTimeStamp_, newEraId);\r\n        }\r\n        if (lastEraCount == erasCount + 1) {\r\n            lastEraCount++;\r\n        }\r\n    }\r\n\r\n    function testStartNewEra() public onlyOwner {\r\n        uint256 erasCount = _erasMonitor.getErasCount();\r\n        if (erasCount == 0) {\r\n            bytes32 initialEraId = keccak256(\r\n                abi.encodePacked(msg.sender, \"3123123123\", msg.sender)\r\n            );\r\n            emit StartNewEra(3123123123, initialEraId);\r\n            return;\r\n        }\r\n    }\r\n\r\n    function testStartNewPriceRound() public onlyOwner {\r\n        emit StarNewPriceRound(123213123);\r\n    }\r\n}\r\n",
  "sourcePath": "D:\\Documents\\Dev\\Repositories\\gold-price-oracle\\gold-price-oracle\\on-chain\\contracts\\oracle\\Sync\\Timer.sol",
  "compiler": {
    "name": "solc",
    "version": "0.8.0+commit.c7dfd78e.Emscripten.clang"
  },
  "schemaVersion": "3.4.3",
  "updatedAt": "2022-05-23T23:43:41.171Z",
  "devdoc": {
    "kind": "dev",
    "methods": {},
    "version": 1
  },
  "userdoc": {
    "kind": "user",
    "methods": {},
    "version": 1
  }
}