{
  "contractName": "Timer",
  "abi": [
    {
      "inputs": [
        {
          "internalType": "address",
          "name": "resolverAddress_",
          "type": "address"
        }
      ],
      "stateMutability": "nonpayable",
      "type": "constructor"
    },
    {
      "anonymous": false,
      "inputs": [
        {
          "indexed": false,
          "internalType": "uint256",
          "name": "utcTimeStamped_",
          "type": "uint256"
        }
      ],
      "name": "CheckTimeStamped",
      "type": "event"
    },
    {
      "inputs": [
        {
          "internalType": "uint256",
          "name": "utcTimeStamped_",
          "type": "uint256"
        }
      ],
      "name": "ping",
      "outputs": [],
      "stateMutability": "nonpayable",
      "type": "function"
    },
    {
      "inputs": [],
      "name": "getInitialTimeStamps",
      "outputs": [
        {
          "internalType": "uint256",
          "name": "",
          "type": "uint256"
        }
      ],
      "stateMutability": "view",
      "type": "function"
    },
    {
      "inputs": [
        {
          "internalType": "uint256",
          "name": "price_",
          "type": "uint256"
        }
      ],
      "name": "tryStartNewRound",
      "outputs": [],
      "stateMutability": "nonpayable",
      "type": "function"
    }
  ],
  "bytecode": "0x60a060405234801561001057600080fd5b506040516103d83803806103d883398181016040528101906100329190610095565b4260808181525050806000806101000a81548173ffffffffffffffffffffffffffffffffffffffff021916908373ffffffffffffffffffffffffffffffffffffffff16021790555050610107565b60008151905061008f816100f0565b92915050565b6000602082840312156100a757600080fd5b60006100b584828501610080565b91505092915050565b60006100c9826100d0565b9050919050565b600073ffffffffffffffffffffffffffffffffffffffff82169050919050565b6100f9816100be565b811461010457600080fd5b50565b6080516102b7610121600039600060a001526102b76000f3fe608060405234801561001057600080fd5b50600436106100415760003560e01c806335988d4d146100465780634154679314610064578063773acdef14610080575b600080fd5b61004e61009c565b60405161005b9190610213565b60405180910390f35b61007e600480360381019061007991906101a3565b6100c4565b005b61009a600480360381019061009591906101a3565b610154565b005b60007f0000000000000000000000000000000000000000000000000000000000000000905090565b60008054906101000a900473ffffffffffffffffffffffffffffffffffffffff1673ffffffffffffffffffffffffffffffffffffffff1663edf1aa7b33836040518363ffffffff1660e01b815260040161011f9291906101ea565b600060405180830381600087803b15801561013957600080fd5b505af115801561014d573d6000803e3d6000fd5b5050505050565b7fd414433dccf7868b4ebe012a47bc5faa9f8fcfdee750e28280f33bd847138b3a816040516101839190610213565b60405180910390a150565b60008135905061019d8161026a565b92915050565b6000602082840312156101b557600080fd5b60006101c38482850161018e565b91505092915050565b6101d58161022e565b82525050565b6101e481610260565b82525050565b60006040820190506101ff60008301856101cc565b61020c60208301846101db565b9392505050565b600060208201905061022860008301846101db565b92915050565b600061023982610240565b9050919050565b600073ffffffffffffffffffffffffffffffffffffffff82169050919050565b6000819050919050565b61027381610260565b811461027e57600080fd5b5056fea26469706673582212209a75e5c9366e219b781e3f04df88c9ac673157aa92f1bc265911f2c4120a74fd64736f6c63430008000033",
  "immutableReferences": {
    "736": [
      {
        "length": 32,
        "start": 160
      }
    ]
  },
  "source": "pragma solidity ^0.8.0;\r\n\r\nimport \"../resolvers/GoldPriceResolver.sol\";\r\nimport \"../utils/Rounds.sol\";\r\n\r\ncontract Timer {\r\n    uint256 constant UTC_TIMESTAMP_ONE_MINUTE = 60;\r\n    GoldPriceResolver _resolver;\r\n    uint256 immutable _initialTimeStamp;\r\n\r\n    constructor(address resolverAddress_) {\r\n        _initialTimeStamp = block.timestamp;\r\n        _resolver = GoldPriceResolver(resolverAddress_);\r\n    }\r\n\r\n    function ping(uint256 utcTimeStamped_) public {\r\n        emit CheckTimeStamped(utcTimeStamped_);\r\n    }\r\n\r\n    function getInitialTimeStamps() public view returns (uint256) {\r\n        return _initialTimeStamp;\r\n    }\r\n\r\n    function tryStartNewRound(uint256 price_) public {\r\n        //check if round should be created!\r\n        _resolver.startNewPriceRound(msg.sender, price_);\r\n    }\r\n\r\n    event CheckTimeStamped(uint256 utcTimeStamped_);\r\n}\r\n",
  "sourcePath": "D:\\Documents\\Dev\\Repositories\\gold-price-oracle\\gold-price-oracle\\on-chain\\contracts\\oracle\\Sync\\Timer.sol",
  "compiler": {
    "name": "solc",
    "version": "0.8.0+commit.c7dfd78e.Emscripten.clang"
  },
  "schemaVersion": "3.4.3",
  "updatedAt": "2022-02-26T16:22:19.795Z",
  "devdoc": {
    "kind": "dev",
    "methods": {},
    "version": 1
  },
  "userdoc": {
    "kind": "user",
    "methods": {},
    "version": 1
  }
}